:400000000080002011000000D9A60000D9A6000008B5044B1A6803F53F5302331A600AF07BFB00BFFA46004010B5054C237833B9044B13B10448AFF300800123237010BDF9
:400040008088FF1F00000000102A0100084B10B51BB108490848AFF300800848036803B910BD074B002BFBD0BDE81040184700BF000000008488FF1F102A0100C880FF1F0E
:400080000000000008B552490B8801339BB20B804A88013292B24A80888801308880B2F5C87F14D30A460121D180B2F908201AB147494A8901324A81454AB2F90C201AB125
:4000C0004349CA890132CA810021414A5180B3F57A7F7BD300223E4B1A8001223D4B1A803D490B8813440B803C490B8813440B803B490B8813440B803A49B1F90030B3FAB5
:4001000083F35B090B80384B1A800DF0CFFB012812D10022354B1A80354B1B88132B02D80133334A1380334B1B88B3F5167F0DD20133304A138009E02C4B1B88132B02D816
:4001400001332A4A13800022294B1A802A4BB3F900301BB1294A138801331380284BB3F900301BB1274A138801331380264BB3F900301BB1254A138801331380244BB3F92F
:4001800000301BB1234A138801331380224BB3F90030012B03D1214A138801331380204B1B78013BDBB2012B07D81E4A1388013313801D4A1368013313601C4BB3F90030F6
:4001C000012B03D11A4A13880133138008BD00BF9C88FF1FF2BBFF1F6CBCFF1F5EBCFF1FAEBFFF1F18BBFF1F26BBFF1F4489FF1F4689FF1F0CC0FF1F1C89FF1F1E89FF1F65
:4002000068BBFF1FB2BFFF1F2089FF1F8AC1FF1F16BBFF1F5ABDFF1F04C0FF1FFCBFFF1F28BDFF1FF4BCFF1F00BDFF1F3EBDFF1F58BDFF1F08B50CF091FAC0B21D4B187041
:40024000652805D101221C4B1A8000221B4B1A70194BB3F90030012B05D1184A13781849C85401331370154B1B78092B04D90023124A1370104A1380104B1B78CBB9104BC2
:400280001B78652B12D10E4B5B78FF2B0ED10C4B9B78FF2B0AD10A4B1B7A3BB9084B5B7AFF2B03D10522074B1A7008BD0A22054B1A7008BD2ABBFF1F9EBCFF1F4189FF1F9A
:4002C00030BDFF1F35BBFF1F08B50CF061FBC0B21D4B1870652805D101221C4B1A8000221B4B1A70194BB3F90030012B05D1184A13781849C85401331370154B1B78092B4B
:4003000004D90023124A1370104A1380104B1B78CBB9104B1B78652B12D10E4B5B78FF2B0ED10C4B9B78FF2B0AD10A4B1B7A3BB9084B5B7AFF2B03D10522074B1A7008BDAE
:400340000A22054B1A7008BD3BBBFF1F7ABDFF1F3E89FF1FD8C2FF1F5CBCFF1F000000002DE9804889B062B60DF068FB0DF024FF89480AF00DFF0CF0D5F90CF0EDFA874874
:400380000CF004FC86480CF045FB0CF077FA0CF063FB0AF05FFD0CF0ABFC0CF0BDFC0CF037FD0CF0FBFF0DF01FF80CF075FA0CF07BF9012100200AF0F5FF01200CF008FC5C
:4003C00001200CF0F9FB64200AF0ECFA754B1A68754B1A600120754B18700024744B1C820CF0EEFF06F028FA06F07CFD20460CF0E7FF704B1C7015E06F4C207808F07AFC6D
:400400006E4B1860207808F031FD6D4B18606D4B93F9000008F040FE6B4B1860654A137801331370634B1B784F2BE5D9664B1B68664A1360664A1360664A136001200AF0D3
:40044000B1FA00225B4B1A7016E003EB43018A0061490A4492784AB903EB43018A005E490A44D27812B95D4A137009E00133DBB25A4A13704F4A13704E4B1B78132BE4D9C4
:40048000574B1B781BBB574A127802BB564A1278EAB97823554A1370554A13700023554A1380554A1380554A1380554D284608F07BF8544C204608F077F8284608F08EF810
:4004C000204608F08BF80A200AF06CFACFE0464A1278012A03D10121484A118002E00021464A1180012B03D10122424B1A8002E00022404B1A803B4B1B78012B03D10122B1
:400500003D4B1A8002E000223B4B1A803E4B18780FF086FF06463D4B18880FF081FF0FF02DFB00223A4B0FF0A7FC04460D4630460FF024FB22462B460FF074FB0FF04AFEB6
:40054000344B1870344B18780FF06AFF0FF016FB22462B460FF066FB0FF03CFE2F4B18702F49304B186810F067F804462E4B18780FF05AFF21460FF0ABFF2C4B18602C4B86
:400580001B78002B5AD12B4B1B78002B56D10122294B1A8055E000BF8500000035020000C90200008487FF1FE4BFFF1FC3BEFF1F9C88FF1FBAB8FF1F06C0FF1F80BBFF1FB3
:4005C00010BDFF1F36BBFF1F00C3FF1F3489FF1F2C89FF1F3089FF1FACB7FF1F3CBBFF1FC4BEFF1FC0BFFF1F3CBDFF1F04C3FF1FB4BFFF1FDABFFF1F98BCFF1F06C3FF1F2B
:40060000182A0100282A01002BBBFF1FFEBCFF1F00005440D0BEFF1FD6BFFF1F3BBDFF1F000048437CBBFF1FB8BAFF1F78C1FF1F90C1FF1F70BBFF1FCCBFFF1F0022724B38
:400640001A80724807F0B0FF714C204607F0ACFF704807F0C3FF204607F0C0FF0A200AF0A1F914226C4B1A7001226C4B1A7000218E2005F0BFFB0021902005F0BBFB684CE7
:4006800022786378A178E078664E674D019000913146284610F0E8FD28460DF0F1FB0DF0FDFC22796379A179E079604F019000913146384610F0D8FD227A637AA17AE07A40
:4006C000DFF8D081019000913146404610F0CCFD28460DF0D5FB054640460DF0D1FB064638460DF0CDFB03463246294604F10C000DF02CFD4E4B4F4A4F49504805F0F8FBE5
:400700004F4D504C504A2946204605F023FC4F4B2A785A7222781A724D4B1A784D4B1A704D4BB3F90630F3B100224B4BDA804B4C207808F0DFFA4A4B1860207808F096FB26
:40074000484B186008F060FC474B1860474B93F9000008F0A1FC464B186005F025FC05F099FC05F017FD09F0DDFC09F03FFB304B304A3149314805F0BBFB334A30493148A4
:4007800005F0E8FB07F044FF234B1B78782B09D11F4807F009FF4FF448700AF003F9354807F002FF1C4B1B78002B40F006820022314B1A80314B1B79112B05D1304B1B7898
:4007C00013B1124807F0F0FE2D4B1B78032B06D12C4807F0E9FE2C4807F0E6FE6EE0022B06D12A4807F0E0FE274807F0DDFE65E0012B01D0042B4FD1254807F0D5FE224839
:4008000007F0D2FE5AE000BFCCBFFF1F302A0100282A0100402A010004C3FF1FB4BFFF1FCC80FF1F502A0100F8BBFF1F88BBFF1F84BCFF1F44BFFF1F07C0FF1FC2BEFF1FA7
:400840002CBBFF1FD0BFFF1F42BDFF1F2492FF1FD5C2FF1FF1BFFF1F9C88FF1F06C0FF1F80BBFF1F10BDFF1F70BCFF1F36BBFF1F00C3FF1F5C2A010060BCFF1FD8BEFF1F39
:400880004CBDFF1F682A0100842A0100902A0100AC2A010048BFFF1F83B9B64DB64C0FCC28606960AA60EB6003CC286169612288A3782A83AB76284607F076FEAF4BDB787B
:4008C0000F2B40F07A81AE4B1B78002B7FD1AB4B1B792F2B39D9A94A52792F2A35D9A74989792F2931D9A548C0792F282DD9392B2BD8392A29D8392927D8392825D8332BB2
:4009000023D1382A21D139291FD132281DD10A2100200CF0A5F814200AF044F80B2100200CF09EF814200AF03DF80C2100200CF097F814200AF036F80D2100200CF090F840
:4009400014200AF02FF80AF025F88C4B1B792F2B40F23381894A52792F2A40F22E81874989792F2940F229818448C0792F2840F22481392B00F22181392A00F21E81392901
:4009800000F21B81392800F218817E4C24783034A34218D17B4B5B7830339A4213D1794B9B78303399420ED1764BDB783033984209D1754807F0F8FD0022744B1A8074486A
:4009C00007F00CFEF9E0734807F0EEFDF5E0012B2ED16A4B1B792F2B40F2EF80674A52792F2A40F2EA80654988792F2840F2E580C9792F2940F2E180392B00F2DE80392AEA
:400A000000F2DB80392800F2D880392900F2D580342B09D1342A07D1342805D1342903D15D4807F0C1FDC8E05C4807F0BDFDC4E0022B45D1514B1B792F2B40F2BE804F4A72
:400A400052792F2A40F2B9804C4988792F2840F2B480C9792F2940F2B080392B00F2AD80392A00F2AA80392800F2A780392900F2A480444C24783034A3421DD1414B5B78E2
:400A800030339A4218D13F4B9B783033984213D13C4BDB78303399420ED1414807F084FD404807F081FD0322354B1A700023334AD3703D4AD37080E0384807F075FD7CE0DA
:400AC000032B40D1374807F06FFD344807F06CFD364BB3F900303BBB284C207930380A21C0B20BF0BDFF142009F05CFF607930380B21C0B20BF0B4FF142009F053FFA07930
:400B000030380C21C0B20BF0ABFF142009F04AFFE07930380D21C0B20BF0A2FF142009F041FF0122214B1A80144A1179154B30391970517930395970917930399970D27903
:400B4000303ADA7039E0042B37D10C4B1B79342B30D10A4B5B79342B2CD1084B9B79342B28D1064BDB79342B24D1114807F01CFD23E000BF88BBFF1FC82A0100D8BEFF1FB6
:400B80004CBDFF1FDCBFFF1FE42A010084BBFF1F402A0100F82A0100082B0100302A01005C2A0100682A010030BDFF1F64BDFF1F142B0100654807F0F7FC654B1B78022B21
:400BC00040F01B820023634A1380634A1380634B1B78634A1278634C6349097803916349097802916249097801916249097800916149204610F038FB204607F0D5FC5F4B47
:400C0000B3F90030002B40F0D1805D4B1B790A2B09D100225B490A8001205B4908805B490A805B490A800B2B09D10121554A1180002255490A8055490A8055490A80112BB0
:400C400036D1C82009F0AEFE4D4B1B79112B2FD100234C4A13804C4A13803C4807F0A4FC4C4BB3F900301BBB4B4C002120780BF0F7FE0A2009F096FE0121484B18780BF068
:400C8000EFFE0A2009F08EFE237833B9434B1B781BB90122424B1A8002E00022404B1A8001223C4B1A800023384A1380384A1380364BB3F900307BB1324BB3F900301BB16A
:400CC000354A1378013313702F4BB3F900301BB1324A1378013313702D4BB3F900309BB1284BB3F900302BB12B4B1B7813B1013B294A1370244BB3F900302BB1274B1B785D
:400D000013B1013B254A1370244B1B78632B02D90122224B1A70204B1B783B2B02D900221D4B1A700F4C1D4B1A781E49204610F09BFA204607F038FC174B1A781A492046E4
:400D400010F092FA204607F02FFC2BE1302A010004C3FF1F84BBFF1F56BBFF1F07C0FF1FC2BEFF1F88BBFF1F42BDFF1F2CBBFF1FD0BFFF1F44BFFF1F202B01007EC1FF1F0A
:400D8000D8BEFF1FACBAFF1FFCC2FF1F8EBCFF1F2CBDFF1F64BDFF1F90C1FF1F70BBFF1FCCBFFF1F5C2B0100702B0100A54B1B790A2B05D10021A44A11800121A34A11801D
:400DC0000B2B05D10121A04A118000219F4A1180112B3CD1C82009F0E5FD9A4B1B79112B35D10023984A1380984A1380984807F0DBFB984BB3F9003023BB974D2B78013BCE
:400E000003EB83016731954C03EB43039A00224489B290780BF024FE0A2009F0C3FD2B78013B03EB8301683103EB43039A00224489B2D0780BF014FE0A2009F0B3FD0122AC
:400E4000844B1A800023864A1380864A1380844BB3F900305BB37C4BB3F900308BB17E4B1B78013B7D495800C418A2008C18E0780EF072FE00227C4B0EF022FD0FF0AAF942
:400E8000E070724BB3F900308BB1734B1B78013B72495800C418A2008C18A0780EF05CFE0022714B0EF00CFD0FF094F9A0706D4BB3F90030002B37D0634BB3F90030BBB19E
:400EC000654B1B78013B03EB43018A0063490A44D07868B103EB43039A000C4614440EF03BFE0022604B0EF0E9FC0FF073F9E070564BB3F90030BBB1574B1B78013B03EBFA
:400F000043018A0055490A44907868B103EB43039A000C4614440EF01FFE0022524B0EF0CDFC0FF057F9A0704B4B1B78013B03EB43018A0049490A449278632A06D903EBF9
:400F400043018A0045490A440121917003EB43018A0042490A44D2783B2A06D903EB43018A003E490A440021D1703C4D03EB43039A002A443D4C92783D49204610F074F9DD
:400F8000204607F011FB344B1B78013B03EB43039A002A44D2783749204610F065F9204607F002FB274B1B790C2B01D0102B0ED1102B09D100232A4A13802A4A1380214A7D
:400FC00013712D4A137102E00122264B1A801D4B1A79A2F10D03DBB2012B0ED80E2A09D100231F4A13801F4A1380164A1371224A137102E001221A4B1A80204B1B78032BF4
:4010000040F04E8300231E4A13801E4A13800D4B1B790D2B0AD10122114B1A800023114A1380084A1371144A137193E00E2B2BD100230B4A13800B4A1380024A13710E4AF2
:40104000137187E0D8BEFF1FACBAFF1FFCC2FF1F842B010064BDFF1F05BDFF1FACB7FF1F8EBCFF1F2CBDFF1F0000F03F88BBFF1F5C2B0100702B010030BDFF1F04C3FF1F0E
:4010800084BBFF1F56BBFF1F0C2B0AD101229A4B1A800023994A1380994A1371994A137158E00B2B09D10023944A1380924A1380934A1371934A13714CE0202B15D10122FC
:4010C000914B1A800024914B1C80914B1C80914807F06AFA904807F067FA904807F064FA874B1C71874B1C7134E0212B15D10024854B1C800122854B1A80854B1C80884878
:4011000007F052FA874807F04FFA844807F04CFA7B4B1C717B4B1C711CE0222B15D10024794B1C80794B1C800122794B1A807C4807F03AFA784807F037FA7B4807F034FA5B
:401140006F4B1C716F4B1C7104E000236B4A1380694A1380754B1B78754A1278754C7649097803917549097802917549097801917449097800917449204610F075F82046B3
:4011800007F012FA714BB3F90030002B40F01B816F4B18680EF0F2FC02460B466D49204610F062F8204607F0FFF9554B1B79112B4FD10023684A1380684A1380684807F02F
:4011C000F3F9684BB3F900309BB9614C20680FF045FB0221C0B20BF043FC206805F0F2FA03210BF03DFC0A2009F0DCFB01225D4B1A800023414A13803F4A1380544B1C683D
:40120000594B196820460FF001FB88B10122574B1A80574920460FF00FFA0446554B18780FF002F921460FF053F9534B186010E000224E4B1A804E4920460FF0FDF90446C5
:401240004C4B18780FF0F0F821460FF041F94A4B18602A4BB3F9003033B32B4BB3F9003063B13B4C20680EF089FC21A3D3E900230EF026FB0EF0CEFF206015E0234BB3F968
:4012800000303BB1324C4FF07E5120680FF018F8206009E01E4BB3F900302BB12C4C374920680FF00DF82060134BB3F90030002B70D0154BB3F9003063B1254C20680EF075
:4012C0005DFC0BA3D3E900230EF0F8FA0EF0A2FF20605FE00D4BB3F90030002B50D01C4C4FF07E5120680EF0E9FF206052E000BF9A9999999999B93F2CBDFF1F8EBCFF1FE8
:40130000D8BEFF1F30BDFF1FCEBFFF1FE0BFFF1F74BCFF1F902B01009C2B0100A82B0100B42B0100C02B0100CC2B010007C0FF1FC2BEFF1F88BBFF1F42BDFF1F2CBBFF1F16
:40134000D0BFFF1F44BFFF1F202B01007EC1FF1F7CBBFF1FD82B0100FCC2FF1FACBAFF1F302A010064BDFF1F80BBFF1FF0BBFF1F00004843B8BAFF1F78C1FF1F00002041AE
:40138000914BB3F900302BB1904C914920680EF095FF20608D4B18680EF0F0FB88A3D3E900230EF0B1FE10B18A4A884B1A608949864B18680FF048FA002800F07181864A31
:4013C000824B1A606CE1854B1B78013B03EB43039A00834B1A4490680EF0D0FB814C02460B46814920460FF03FFF204607F0DCF87E4B1B79112B6ED100237D4A13707D4AEF
:4014000013707D4A13807D4A13807D4807F0CCF87C4BB3F9003073BB704D2B78013B704E03EB43018A00324403EB830303F16404A4B290680FF038FA2146C0B20BF010FB6A
:401440000A2009F0AFFA2B78013B03EB43039A003244906805F0B6F92B78013B03EB830303F1650189B20BF0FBFA0A2009F09AFA0122644B1A800023634A1380634A138043
:40148000524B1C68624B196820460FF0BFF988B10122604B1A80604920460FF0CDF804465E4B18780EF0C0FF21460FF011F85C4B186010E00022574B1A80574920460FF02B
:4014C000BBF80446554B18780EF0AEFF21460EF0FFFF534B18604C4BB3F90030002B3BD0504BB3F900309BB13C4B1B78013B3C495800C418A2008C18A0680EF03FFB30A3C7
:40150000D3E900230EF0DCF90EF084FEA06023E0454BB3F9003073B1304B1B78013B30495800C418A2008C184FF07E51A0680EF0C7FEA06010E0244BB3F9003063B1274B0F
:401540001B78013B26495800C418A2008C182049A0680EF0B5FEA0602C4BB3F90030002B75D0304BB3F900309BB11C4B1B78013B1B495800C418A2008C18A0680EF0FEFA19
:401580000FA3D3E900230EF099F90EF043FEA0605DE0254BB3F90030002B47D00F4B1B78013B0F495800C418A2008C184FF07E51A0680EF083FEA06049E000BFAFF3008066
:4015C0009A9999999999B93F74BCFF1F7CBBFF1F0000204100007042CDCCCC3D05BDFF1FACB7FF1F88BBFF1FD82B0100D8BEFF1F34BBFF1FD1BFFF1FFCC2FF1FACBAFF1F6F
:40160000842B010064BDFF1F8EBCFF1F2CBDFF1F80BBFF1FF0BBFF1F00004843B8BAFF1F78C1FF1FCEBFFF1FE0BFFF1F9C4BB3F9003063B19B4B1B78013B9B495800C418AC
:40164000A2008C189949A0680EF038FEA060954B1C78013C04EB44029300934A134498680EF08CFA8CA3D3E900230EF04DFD30B104EB440293008C4A13448D4A9A6004EBE9
:4016800044029300884A1344894998680FF0DCF830B104EB4404A300834A1344854A9A60854B1B78042B40F00582844B1B78844A1278844C84490978039184490978029145
:4016C000834909780191834909780091824920460FF0CAFD204606F067FF804B1B790D2B0AD101227E4B1A8000237E4A13807B4A13717D4A137159E00E2B09D10023784A39
:401700001380784A1380754A1371774A13714DE00C2B0AD10122734B1A800023704A13806E4A1371704A137140E00B2B09D100236B4A13806B4A1380684A13716A4A137144
:4017400034E0202B15D10122684B1A800024684B1C80534B1C80674806F026FF664806F023FF664806F020FF5C4B1C715E4B1C711CE0212B15D100245C4B1C8001225C4BEB
:401780001A80474B1C805E4806F00EFF5D4806F00BFF5A4806F008FF504B1C71524B1C7104E000234E4A13804E4A1380564BB3F90030002B40F0DF80484B1B79112B45D115
:4017C0000023524A1380524A1380524806F0ECFE514BB3F9003053B90421504B18780BF03FF90A2009F0DEF801224B4B1A804C4B18780EF015FE0646484B18880EF010FED8
:401800000EF0BCF90022474B0EF036FB04460D4630460EF0B3F922462B460EF003FA0EF0D9FC414B1870414B18780EF0F9FD0EF0A5F922462B460EF0F5F90EF0CBFC3C4BDD
:4018400018700023264A1380264A1380244BB3F9003083B1254BB3F9003023B12F4A13880133138007E0224BB3F900301BB12B4A13880A3313801B4BB3F90030002B61D0C3
:401880001A4BB3F90030002B54D0244A1388013B138057E0AFF300809A9999999999B93F74BCFF1F05BDFF1FACB7FF1F0000204100007042CDCCCC3D04C3FF1F07C0FF1FAA
:4018C000C2BEFF1F88BBFF1F42BDFF1F2CBBFF1FD0BFFF1F44BFFF1F202B0100D8BEFF1F8EBCFF1F2CBDFF1F30BDFF1FCEBFFF1FE0BFFF1F902B01009C2B0100A82B0100BF
:40190000B42B0100C02B01007EC1FF1FFCC2FF1FACBAFF1F302A010064BDFF1FFEBCFF1F2BBBFF1F00005440D0BEFF1FD6BFFF1F3BBDFF1F7D4BB3F900301BB17C4A1388CE
:401940000A3B13807A4B1B88092B02D85F22784B1A80774B1B885F2B02D90A22744B1A80744C734B1A88744920460FF07DFC204606F01AFE9EE0714B1B79112B25D100239A
:401980006F4A13806F4A13806F4806F00DFE6F4BB3F90030A3B96E4B1B78013B03EB8301663103EB43039A006A4B1A4489B210790BF056F80A2008F0F5FF0122634B1A80E5
:4019C0000023654A1380654A1380634BB3F90030F3B1634BB3F900305BB15D4B1B78013B5C485900CC18A20002441379013313710EE04E4BB3F9003053B1554B1B78013B22
:401A000054485900CC18A200024413790A331371524BB3F90030F3B1514BB3F900305BB14B4B1B78013B4B485900CC18A20002441379013B13710EE03C4BB3F9003053B139
:401A4000434B1B78013B43485900CC18A200024413790A3B13713E4B1B78013B03EB43018A003C490A441279092A06D803EB43018A0038490A445F21117103EB43018A0038
:401A800034490A4412795F2A06D903EB43018A0030490A440A21117103EB43039A002D4B1A44244C1279244920460FF0DDFB204606F07AFD2B4B1B78082B40F063810024A8
:401AC000294B1C80294B1B78294A1278194D294909780391284909780291284909780191274909780091274928460FF0BDFB284606F05AFD01221A4B1A800C4B1C80224B88
:401B00001C80224B1C704BE003EB43018A0011490A449278002A3DD103EB43018A000D490A44D278B2BB1A4A13703DE0E0BFFF1FFEBCFF1F88BBFF1FEC2B0100D8BEFF1F62
:401B4000FCC2FF1FACBAFF1F842B010064BDFF1F05BDFF1FACB7FF1F8EBCFF1F2CBDFF1FCEBFFF1F04C3FF1F54BBFF1F07C0FF1FC2BEFF1F42BDFF1F2CBBFF1FD0BFFF1F37
:401B800044BFFF1F002C010074BCFF1FBAB8FF1F3CBBFF1F0133DBB2334A1370334A1370324B1B78132BAFD9314C2F4B1A78314920460FF059FB204606F0F6FC00222E4BA8
:401BC0001A802E4B1A79531EDBB2132B3BD82C4920460FF049FB204606F0E6FC274D2B79013B284E03EB43039A00324490680DF0C5FF02460B46244920460FF035FB2046CC
:401C000006F0D2FC2B79013B03EB43039A00324412791E4920460FF027FB204606F0C4FC2B79013B5900C81882003244D3789278174920460FF018FB204606F0B5FC2A7939
:401C4000144B1A706DE0134B1A786ABB124806F0ABFC124806F0A8FC114806F0A5FC114806F0A2FC5DE000BF3CBBFF1FBAB8FF1F88BBFF1F382C010064BDFF1FD8BEFF1FF7
:401C8000582C0100ACB7FF1F702C0100942C0100B02C010005BDFF1FD02C0100E42C0100002D0100182D0100531EDBB2132B38D8904C914920460FF0D7FA204606F074FC7D
:401CC0008E4E3378013B8E4D03EB43039A002A4490680DF053FF02460B468A4920460FF0C3FA204606F060FC3378013B03EB43039A002A441279844920460FF0B5FA204688
:401D000006F052FC3378013B5900C81882002A44D37892787D4920460FF0A6FA204606F043FC7B4B1B79202B08D1744B1B782BB1784806F039FC0122774B1A80744B1B792B
:401D4000302B08D16D4B1B782BB1744806F02CFC0122714B1A806E4B1B79402B08D1674B1B782BB16E4806F01FFC01226A4B1A80674B1B79702B05D16A4806F015FC002238
:401D8000654B1A80684B1B780F2B0DD1674BB3F9003033B94FF4487008F004FE0122634B1A80604806F000FC5F4B1B78102B0DD15E4BB3F9003033B94FF4487008F0F2FD5E
:401DC00001225A4B1A805A4806F0EEFB564B1B78142B40F057860023564A1380564A1380564A1380564A1380564E424C06F1200735460FCD20606160A260E3602E461034AC
:401E0000BD42F5D128682060AA88AB79A280A371384C204606F0C8FB4B4B1B784B4A12784B49097803914B49097802914A49097801914A4909780091494920460FF014FAB5
:401E4000204606F0B1FB0122464B1A800023464A1380464A13802E4B1B79012B02D12D4806F0A2FB2A4B1B79022B02D12B4806F09BFB274B1B79032B02D1294806F094FB8A
:401E80003B4BB3F9003033B100233A4A13803A4A13803A4A13803A4BB3F9003033B10023384A1380384A1380344A1380184B1B790A2B02D1354806F077FB354BB3F9003091
:401EC000002B40F0B1830AF06FFE002840F002830F4B1B79082B40F088802B4BB3F90040B4FA84F464091C80002C53D00122254B1A8052E088BBFF1F582C010005BDFF1FB1
:401F0000ACB7FF1F702C0100942C0100B02C0100D8BEFF1F342D01007EC1FF1F482D0100582D0100302A010004C3FF1F60BCFF1F5C2A010064BDFF1F84BBFF1F16BBFF1FEA
:401F40005ABDFF1F642D010007C0FF1FC2BEFF1F42BDFF1F2CBBFF1FD0BFFF1F44BFFF1F202B0100CEBFFF1FE0BFFF1F74BCFF1F4A89FF1F0EC0FF1F98BCFF1F06C3FF1FEF
:401F80004C89FF1F62BCFF1FDABFFF1F842B0100B0BAFF1F0022AE4B1A800023AD4A1371AD4A1371AD49AE4B18680EF045FB0546AC4B18780EF038FA29460EF089FAAA4BA1
:401FC0001860AA4B1B7833B9A94B1B781BB90122A84B1A8002E00022A64B1A80292120460AF03EFD142008F0DDFC9A4B1B79092B51D1A14BB3F90040B4FA84F464091C809B
:402000009E4B18780EF00CFA05469D4B18880EF007FA0DF0B3FD00229A4B0DF02DFF06460F4628460DF0AAFD32463B460DF0FAFD0EF0D0F8944B1870944B18780EF0F0F951
:402040000DF09CFD32463B460DF0ECFD0EF0C2F88F4B18701CB101228E4B1A8002E000228C4B1A8000237B4A13717B4A13717F4B1B7833B97E4B1B781BB901227D4B1A8046
:4020800002E000227B4B1A802A2120460AF0E8FC142008F087FC6F4B1B790B2B40F086807D4B1B78002B7CD07A4BB3F90030002B77D1674BB3F90030002B72D1774AB2F976
:4020C0000030B3FA83F35B091380002B50D0DFF890A1DAF80020724B1A60DFF8A4E1BEF80020704B1A80DFF8888198F800206E4B1A705E4F3A786D4B1A706D4B19686D4B2E
:4021000019606D4B1B78DFF8E8C14FEA430909EB0300820062449678D578C6EB0610C0EB00100401C5EB051B4FEA8B00204484B2624804809068CAF800004B449A006244F0
:402140001379AEF800300EF0B9F8814620460EF06BF9014648460EF06FFA594B186088F800603D700123444A1380564A138018E04B4B1A683A4B1A604A4B1A88404B1A80F7
:40218000494B1A783A4B1A70484B1A78374B1A7000234D4A13704D4A1370374A1380494A138000232B4A13712B4A13713B4BB3F90030002B00F0EF8006F084F9444806F032
:4021C000F3F9444806F0F0F9434806F0EDF9434B1B88032B40F28E80414B1B88B3F5967F17D2404806F0E0F901200BF07BFB01200BF08CFB01200BF0E3F84FF4967008F0E9
:40220000D1FB00200BF0DCF84FF4967008F0CAFB7FE0354806F0C8F9344806F0C5F901200BF060FB00200BF071FB00200BF02AFB01200BF0C5F84FF4167008F0B3FB002074
:402240000BF0BEF84FF4167008F0ACFB61E000BF62BCFF1FD8BEFF1F30BDFF1F000048437CBBFF1FB8BAFF1F78C1FF1F90C1FF1F70BBFF1FCCBFFF1F98BCFF1F2BBBFF1FAC
:40228000FEBCFF1F00005440D0BEFF1FD6BFFF1F3BBDFF1F0EC0FF1F3CBBFF1F06C3FF1F70BDFF1F24BBFF1F14BDFF1F76BDFF1F80BBFF1F54BDFF1F3ABBFF1FC8BFFF1F8D
:4022C000F8BCFF1FDABFFF1FF0C2FF1F66BDFF1F8C2D0100982D0100A42D01004689FF1F0CC0FF1FB02D0100D02D0100F82D0100ACB7FF1FA34B1B88032B0AD9A24806F016
:4023000053F900200BF002FB07F0C6F800229F4B1A800BF09BFA012805D09D499D4B18680EF092FA48B39C4806F03EF900200AF061F900200AF064F90024984B1C829849FB
:40234000984B18680EF078F90546974B18780EF06BF829460EF0BCF8944B186001200BF02FF84FF4967008F01DFB20460BF028F84FF4967008F016FB01E006F059FB8C4B84
:402380001A788C4C01328C4920460EF06DFF204606F00AF98BE1894806F006F9884806F003F906F08FF8874BB3F90030002B51D0854B1B88032B3AD9744B1B88B3F5967F3E
:4023C00017D2824806F0F0F801200BF08BFA01200BF09CFA01200AF0F3FF4FF4967008F0E1FA00200AF0ECFF4FF4967008F0DAFA2CE0774806F0D8F8764806F0D5F8012083
:402400000BF070FA00200BF081FA00200BF03AFA01200AF0D5FF4FF4167008F0C3FA00200AF0CEFF4FF4167008F0BCFA0EE0554B1B88032B0AD9544806F0B6F800200BF0EA
:4024400065FA07F029F80022504B1A80624806F0ABF81BE0614806F0A7F84B4806F0A4F85F4806F0A1F84D4BB3F912305BB901200BF038FA00200BF0F1F900200BF046FA6F
:4024800000200BF0FFF90022404B1A80554BB3F900302BB1544806F087F807F085FA06E1524806F081F8524806F07EF83B4BB3F9123043B900200AF09DF800200AF0A0F81C
:4024C00001200BF0FBF90022344B1A820022494B1A60ECE00AF068FB012840F0E8802F4BB3F912309BB90BF0FDF900200BF0B6F901200BF0E3F900200BF008FA00200BF0CE
:40250000C1F900200AF076F800200AF079F80024394B1C80394B1C80394B1C80394B1C80334806F041F82E4806F03EF8244806F03BF81A4B1C82344B1C80344B1C801849AF
:40254000184B18680EF078F80546174B18780DF06BFF29460DF0BCFF144B18602C4B1C700022244B1A6001222A4B1A802A4B1C802A4806F019F82A4806F016F8294806F0C1
:4025800013F894E04489FF1F142E01000CC0FF1F0000704280BBFF1F302E01009C88FF1F000048437CBBFF1FB8BAFF1F78C1FF1F3ABBFF1F88BBFF1F4C2E0100602E010093
:4025C000702E010098BCFF1F4689FF1FB02D0100D02D0100F82D0100982D01007C2E0100942E0100DABFFF1F8C2D0100A02E0100B82E01005CBDFF1F2089FF1F8AC1FF1F19
:4026000068BBFF1FB2BFFF1F3EBDFF1F58BDFF1F28BDFF1F1ABBFF1FE8C2FF1FC42E0100E02E0100F42E010001200BF05BF900200BF014F900200BF0E1F800200BF0CAF832
:4026400000200BF0EFF800200BF01CF901200BF035F900200BF05AF9A64805F0A5FFA64805F0A2FF002009F0C5FF002009F0C8FF0023A24A13820021A14A1160A14A137019
:40268000A14A1380A14A1380A14A138006F0DEFEA04805F089FFA04805F086FF9F4805F083FF9F4805F080FF9E4805F07DFF9E4BB3F90030012B40F0DF8000229A4B1A80D6
:4026C0009A4B18780DF048FA02460B46002098490DF0D2FB04460D46894B18680DF04EFA22462B460DF09EFA0DF094FD914B1860914B1A68914B9A420DDD914B18680DF0E3
:402700003DFA02460B468F498F480EF0ADFD00228E4B1A8010E08C4D8D4C0FCC28606960AA60EB6003CC286169612288A3782A83AB760122854B1A80834805F035FF7E4BBB
:402740005A687E4B9A420ADD824B18680DF016FA02460B4680497C480EF086FD0AE07A4D7E4C0FCC28606960AA60EB6007CC28616961AA61744C204605F016FF784B18686A
:402780000DF0FCF902460B46764920460EF06CFD204605F009FF744B1A88744920460EF063FD204605F000FF714B1C68002120460EF04AF890B16F4920460EF031F868B1BD
:4027C0006D4B18680DF0DAF902460B466B495E480EF04AFD00226A4B1A8026E0654920460EF032F820B9002120460EF019F8E0B1644920460EF01EF848B15E4920460EF0BB
:4028000005F820B1604950480EF02EFD0AE04E4D5E4C0FCC28606960AA60EB6020682861A388AB820122564B1A80474C204605F0BBFE574B1B78574A1278574920460EF0DE
:4028400013FD204605F0B0FE544B1B78544A1278544920460EF008FD204605F0A5FE354B18680DF08BF902460B464F4920460EF0FBFC204605F098FE454B1B7823B9454B54
:402880001B78002B00F0FE8005F0EEFD1E4BB3F90030002B00F0AB80404B1A783C4B1B789A42C0F0EF803E4B1A783A4B1B789A42C0F0E8803D4BB3F90030002B40F0E28007
:4028C00000223B4B1A803B4B1A783B4B1B78013B9A4208DA0132374B1A700023304A13702E4A137002E00122304B1A800022334B1A7077E0082F01001C2F01009C88FF1FB0
:402900005CBDFF1F28BDFF1F06C3FF1FDABFFF1F98BCFF1FB82E0100942E0100702E01003C2F0100582F0100F2BBFF1F05C3FF1F00005940A0BCFF1F1CBDFF1F803801009C
:4029400080BBFF1F742F010088BBFF1F4C89FF1F942F010010BDFF1FB02F0100D02F01007CBBFF1FEC2F0100FEBCFF1F0C30010000C3FF1F0000DC423489FF1F28300100BE
:402980004A89FF1F0000C842443001005C30010090C1FF1F70BBFF1F74300100F0C2FF1F66BDFF1F98300100B0300100B0BAFF1FD4BEFF1F3ABBFF1F3CBBFF1FBAB8FF1F12
:4029C00001200AF0FDFC4FF4167007F0EBFF00200AF0F6FC4FF4167007F0E4FFA54A137801331370A34B1B78012BE9D94AE0A24B1A78A24B1B789A4244D3A14B1A78A14B44
:402A00001B789A423ED3A04B1B78012B3AD19F4BB3F90030BBB900249B4B1C7002229C4B1A800125994B1D80204609F0E3FD204609F0E6FD974B1C820022974B1A60974BE4
:402A40001C80974B1D80974805F0AEFD06F0FEFC0022884B1A7011E001200AF0B1FC4FF4167007F09FFF00200AF0AAFC4FF4167007F098FF7F4A1378013313707D4B1B78B9
:402A8000012BE9D9884B1B78002B40F0EE81874B1B79112B05D1864B1B7813B1854805F083FD834B1B78032B06D1834805F096FD824805F093FD25E0022B06D1804805F048
:402AC0008DFD7E4805F08AFD1CE0012B01D0042B06D17C4805F082FD784805F07FFD11E083B9794D794C0FCC28606960AA60EB6003CC286169612288A3782A83AB76284646
:402B000005F06CFD694BDB780F2B40F0AE81684B1B78002B7CD1654B1B792F2B39D9634A52792F2A35D9614989792F2931D95F48C0792F282DD9392B2BD8392A29D83929D2
:402B400027D8392825D8332B23D1382A21D139291FD132281DD10A21002009F081FF142007F020FF0B21002009F07AFF142007F019FF0C21002009F073FF142007F012FFB5
:402B80000D21002009F06CFF142007F00BFF07F001FF464B1B792F2B40F26781434A52792F2A40F26281414989792F2940F25D813E48C0792F2840F25881392B00F2558197
:402BC000392A00F25281392900F24F81392800F24C813F4C24783034A34215D13C4B5B7830339A4210D13A4B9B78303399420BD1374BDB783033984206D1364805F0EEFCA1
:402C00000022354B1A8030E1344805F0E7FC2CE1012B67D1254B1B792F2B40F22681234A52792F2A40F22181204988792F2840F21C81C9792F2940F21881392B00F2158105
:402C4000392A00F21281392800F20F81392900F20C81342B09D1342A07D1342805D1342903D11F4805F0BAFCFFE0124805F0B6FCFBE000BFBAB8FF1FF0C2FF1F90C1FF1F7B
:402C800066BDFF1F70BBFF1F28BDFF1F6CBDFF1F1CBBFF1F9C88FF1F5CBDFF1FE8C2FF1FB0BAFF1FCC300100B4BFFF1F48BBFF1F4CBDFF1F402A0100682A0100842A0100FF
:402CC000902A0100AC2A010088BBFF1FC82A0100DCBFFF1FE42A010084BBFF1FF82A0100082B0100022B45D1534B1B792F2B40F2BC80514A52792F2A40F2B7804E49887975
:402D00002F2840F2B280C9792F2940F2AE80392B00F2AB80392A00F2A880392800F2A580392900F2A280454C24783034A3421DD1424B5B7830339A4218D1404B9B78303305
:402D4000984213D13D4BDB78303399420ED13C4805F044FC3B4805F041FC03223A4B1A700023354AD370394AD3707EE0384805F035FC7AE0032B40D1324805F02FFC34489D
:402D800005F02CFC334BB3F900303BBB2A4C207930380A21C0B209F063FE142007F002FE607930380B21C0B209F05AFE142007F0F9FDA07930380C21C0B209F051FE142020
:402DC00007F0F0FDE07930380D21C0B209F048FE142007F0E7FD01221E4B1A80164A1179164B30391970517930395970917930399970D279303ADA7037E0042B35D10E4BC1
:402E00001B79342B2ED10C4B5B79342B2AD10A4B9B79342B26D1084BDB79342B22D10E4BB3F914301BB90D4805F0D8FB1DE00C4805F0D4FB19E000BF48BBFF1FDCBFFF1F82
:402E40005C2A0100682A01004CBDFF1FD8C2FF1F402A010064BDFF1F9C88FF1F142B0100082B01009F4805F0B9FB9F4B1B78012B40F0B2809D4D28460BF0D2F89C4C2A46E9
:402E80009C4920460EF0F0F9204605F0A7FB9A4B1B79012B1FD1994805F0A0FB0023984A1380984AD382138353839383D383138453849384D384138553859385D3851386E1
:402EC00053869386D38613878B4A13718E4A1371C82007F067FD884B1B79052B1BD18B4805F07CFB0023844A1371874A1371884B1A78884B1A70884B1A78884B1A70884B12
:402F00001A78884B1A70884B1A78884B1A70884B1A78884B1A70784B1B79062B0AD1864805F05CFB0023744A1371774A13710222824B1A70704B1B79042B0AD1804805F066
:402F40004DFB00236C4A13716F4A137104227B4B1A70694B1B79A02B0FD1774805F03EFB0023654A1371684A13710422734B1A700123744A1370634A93825F4B1B79072B88
:402F80000CD1714805F02AFB00235B4A13715E4A137101235B4A5387684A1370564B1B79082B0AD1694805F019FB0023524A1371554A13710122664B1A704F4B1B79092BEE
:402FC0000AD1644805F00AFB00234B4A13714E4A137101225E4B1A70434B1B78092B40F01C81454B1B79112B07D13E4805F0F6FA0023414A1371444A1371574B1A78574BC3
:403000001B789A4205D006F0C3FE534B1A78534B1A703C4BB3F93C3023B106F035FE0022384B9A87374BB3F93A30002B3AD006F02BFE00224A4B1A802BE04A4E03EB4303C7
:403040009A00B05801460DF03BF90CF097FD284C02460B46444920460EF006F9204605F0BDFA3F4D2B8803EB43039A003244506801460DF025F90CF081FD02460B463B4963
:4030800020460EF0F1F8204605F0A8FA2B8801332B80334B1B88364A12889342CDD30022184B5A87334BB3F900305BB1324AB2F900203AB9314AB2F900201AB9304805F0F8
:4030C0008DFA82E0002B5FD12B4AB2F90020002A5AD02A4AB2F90020002A55D1294805F07DFA72E0402A0100B4BFFF1FF8BBFF1F88BBFF1FE430010048BBFF1FF8300100AD
:403100003A89FF1F9C88FF1FD8C2FF1F04310100C2BEFF1F1589FF1F07C0FF1F1489FF1F44BFFF1F1689FF1FD0BFFF1F1789FF1F2CBBFF1F1889FF1F5C2A01004CBDFF1FC9
:40314000142B010020BBFF1F1031010020310100C3BEFF1F2C310100D5C2FF1FF1BFFF1F2289FF1F2492FF1F40310100503101002489FF1FDABFFF1F98BCFF1F06C3FF1F96
:40318000603101008C3101005BB10A4BB3F900303BB1094BB3F900301BB9084805F01EFA13E0054BB3F9003063B1054805F016FA0BE000BF98BCFF1F06C3FF1FB4310100C7
:4031C000E8310100C74805F009FAC74BB3F900301BB30022C44B1A80C44B186801460DF06FF80CF0CBFCC24C02460B46C14920460EF03AF8204605F0F1F9BF4B18680146CD
:403200000DF05EF80CF0BAFC02460B46BB4920460EF02AF8204605F0E1F9B94B1B780A2B40F07584B74BB3F90030002B40F09280B54DAF4C2A78B54920460EF015F820467D
:4032400005F0CCF96A78B24920460EF00DF8204605F0C4F9AA78AF4920460EF005F8204605F0BCF9EA78AC4920460DF0FDFF204605F0B4F92A79A94920460DF0F5FF20469B
:4032800005F0ACF96A79A64920460DF0EDFF204605F0A4F9AA79A34920460DF0E5FF204605F09CF9EA79A04920460DF0DDFF204605F094F92A7A9D4920460DF0D5FF20467B
:4032C00005F08CF96A7A9A4920460DF0CDFF204605F084F9AA7A974920460DF0C5FF204605F07CF9EA7A944920460DF0BDFF204605F074F92A7B914920460DF0B5FF204667
:4033000005F06CF96A7B8E4920460DF0ADFF204605F064F9AA7B8B4920460DF0A5FF204605F05CF9EA7B884920460DF09DFF204605F054F92A7C854920460DF095FF204652
:4033400005F04CF96A7C824920460DF08DFF204605F044F97F4B1B79112B40F0BC807E4805F03CF9684C22786378A178E0787B4E7B4D01900091314628460DF075FF2846D4
:403380000AF07EFD0AF08AFE22796379A179E079574F01900091314638460DF065FF227A637AA17AE07ADFF8C08101900091314640460DF059FF28460AF062FD05464046FC
:4033C0000AF05EFD064638460AF05AFD03463246294604F10C000AF0B9FE2F21207809F03FFB0A2007F0DEFA3021607809F038FB0A2007F0D7FA3121A07809F031FB0A2067
:4034000007F0D0FA3221E07809F02AFB0A2007F0C9FA3321207909F023FB0A2007F0C2FA3421607909F01CFB0A2007F0BBFA3521A07909F015FB0A2007F0B4FA3621E07932
:4034400009F00EFB0A2007F0ADFA3721207A09F007FB0A2007F0A6FA3821607A09F000FB0A2007F09FFA3921A07A09F0F9FA0A2007F098FA3A21E07A09F0F2FA0A2007F025
:4034800091FA3B21207B09F0EBFA0A2007F08AFA3C21607B09F0E4FA0A2007F083FA3D21A07B09F0DDFA0A2007F07CFA3E21E07B09F0D6FA0A2007F075FA3F21207C09F072
:4034C000CFFA0A2007F06EFA0023224A1371254A13710C4A13801F4B1B79002B40F0EA8044E000BF10320100EEBFFF1F80BBFF1F88BBFF1F403101003489FF1F503101004E
:40350000B4BFFF1F3A89FF1FCC80FF1F30320100403201005032010060320100703201007C3201008832010094320100A0320100AC320100B8320100C4320100D032010058
:40354000DC320100E8320100F4320100003301000C33010048BBFF1F402A0100502A0100F8BBFF1FD8C2FF1F48BFFF1F7E4BB3F9163023B17D4B5A797D4B1A70C7E27A4BE7
:40358000B3F9183023B1794B5A79794B5A70BEE2754BB3F91A3023B1744B5A79744B9A70B5E2714BB3F91C3023B1704B5A79704BDA70ACE26C4BB3F91E3023B16B4B5A794B
:4035C0006B4B1A71A3E2684BB3F9203023B1674B5A79674B5A719AE2634BB3F9223023B1624B5A79624B9A7191E25F4BB3F9243023B15E4B5A795E4BDA7188E25A4BB3F930
:40360000263023B1594B5A79594B1A727FE2564BB3F9283023B1554B5A79554B5A7276E2514BB3F92A3023B1504B5A79504B9A726DE24D4BB3F92C3023B14C4B5A794C4B59
:40364000DA7264E2484BB3F92E3023B1474B5A79474B1A735BE2444BB3F9303023B1434B5A79434B5A7352E23F4BB3F9323023B13E4B5A793E4B9A7349E23B4BB3F9343008
:4036800023B13A4B5A793A4BDA7340E2364BB3F9363023B1354B5A79354B1A7437E2324BB3F93830002B00F03282304B5A79304B5A742CE2012B1BD12B4A0121D1820023DF
:4036C000138353839383D383138453849384D384138553859385D385138653869386D3861387224A1371234A1371234B19800EE2022B1BD11C4A0023D3820121118353835D
:403700009383D383138453849384D384138553859385D385138653869386D3861387134A1371144A1371144B1980F0E1032B25D10D4A0023D3821383012151839383D3836C
:40374000138453849384D384138553859385D385138653869386D3861387044A1371054A1371054B1980D2E19C88FF1F48BBFF1FCC80FF1FD8C2FF1F3A89FF1F042B1BD14D
:40378000854A0023D3821383538301219183D383138453849384D384138553859385D385138653869386D38613877C4A13717C4A13717C4B1980AAE1052B1BD1764A002312
:4037C000D3821383538393830121D183138453849384D384138553859385D385138653869386D38613876D4A13716D4A13716D4B19808CE1062B1BD1674A0023D382138332
:4038000053839383D3830121118453849384D384138553859385D385138653869386D38613875E4A13715E4A13715E4B19806EE1072B1BD1584A0023D38213835383938349
:40384000D3831384012151849384D384138553859385D385138653869386D38613874F4A13714F4A13714F4B198050E1082B1BD1494A0023D382138353839383D383138461
:40388000538401219184D384138553859385D385138653869386D3861387404A1371404A1371404B198032E1092B1BD13A4A0023D382138353839383D38313845384938479
:4038C0000121D184138553859385D385138653869386D3861387314A1371314A1371314B198014E10A2B1BD12B4A0023D382138353839383D383138453849384D384012107
:40390000118553859385D385138653869386D3861387224A1371224A1371224B1980F6E00B2B1BD11C4A0023D382138353839383D383138453849384D3841385012151852B
:403940009385D385138653869386D3861387134A1371134A1371134B1980D8E00C2B23D10D4A0023D382138353839383D383138453849384D3841385538501219185D3853A
:40398000138653869386D3861387044A1371044A1371044B1980BAE09C88FF1F48BBFF1FD8C2FF1F3A89FF1F0D2B1BD1934A0023D382138353839383D38313845384938491
:4039C000D3841385538593850121D185138653869386D38613878A4A13718A4A13718A4B198094E00E2B1BD1844A0023D382138353839383D383138453849384D3841385A9
:403A000053859385D3850121118653869386D38613877B4A13717B4A13717B4B198076E00F2B1BD1754A0023D382138353839383D383138453849384D384138553859385C0
:403A4000D3851386012151869386D38613876C4A13716C4A13716C4B198058E0102B1BD1664A0023D382138353839383D383138453849384D384138553859385D3851386D8
:403A8000538601219186D38613875D4A13715D4A13715D4B19803AE0122B1BD1574A0023D382138353839383D383138453849384D384138553859385D385138653869386EF
:403AC0000121D18613874E4A13714E4A13714E4B19801CE0132B1AD1484A0023D382138353839383D383138453849384D384138553859385D385138653869386D386012180
:403B000011873F4A13713F4A13713F4B19803F4B1B780B2B40F03284394B1B79012B03D101223B4B1A7040E0022B03D10222384B1A703AE0032B03D10322354B1A7034E07B
:403B4000042B03D10422324B1A702EE0052B03D105222F4B1A7028E0062B03D106222C4B1A7022E0072B03D10722294B1A701CE0082B03D10822264B1A7016E0092B03D14D
:403B80000922234B1A7010E00A2B03D10A22204B1A700AE00B2B03D10B221D4B1A7004E00C2B02D10C221A4B1A70194B1B780C2B02D90122164B1A70154B1B7813B90C22A6
:403BC000134B1A700022134B1A7040E0104B1B78013B9A4226D1104C104920460DF044FB204604F0FBFC0B4B1A780D4920460DF03BFB204604F0F2FC25E000BF9C88FF1FE9
:403C000048BBFF1FD8C2FF1F3A89FF1FB4BFFF1FC3BEFF1FBAB8FF1F88BBFF1F1833010028330100C24CC34920460DF01DFB204604F0D4FCC04B1A78C04920460DF014FB2A
:403C4000204604F0CBFCBC4A137801331370BA4B1A780B2ABAD9BA4B1B79112B40F0E880B84804F0BBFCB84CA0690CF01DFE4021C0B208F0F5FE142006F094FEA06902F0CB
:403C8000A1FD412108F0ECFE142006F08BFEE0690CF00AFE4221C0B208F0E2FE142006F081FEE06902F08EFD432108F0D9FE142006F078FE206A0CF0F7FD4421C0B208F0EA
:403CC000CFFE142006F06EFE206A02F07BFD452108F0C6FE142006F065FE20680CF0E4FD4621C0B208F0BCFE142006F05BFE206802F068FD472108F0B3FE142006F052FEE1
:403D000060680CF0D1FD4821C0B208F0A9FE142006F048FE606802F055FD492108F0A0FE142006F03FFEA0680CF0BEFD4A21C0B208F096FE142006F035FEA06802F042FDD6
:403D40004B2108F08DFE142006F02CFEA06C0CF0ABFD4C21C0B208F083FE142006F022FEA06C02F02FFD4D2108F07AFE142006F019FEE06C0CF098FD4E21C0B208F070FE41
:403D8000142006F00FFEE06C02F01CFD4F2108F067FE142006F006FE206D0CF085FD5021C0B208F05DFE142006F0FCFD206D02F009FD512108F054FE142006F0F3FD206B30
:403DC0000CF072FD5221C0B208F04AFE142006F0E9FD206B02F0F6FC532108F041FE142006F0E0FD606B0CF05FFD5421C0B208F037FE142006F0D6FD606B02F0E3FC5521BC
:403E000008F02EFE142006F0CDFDA06B0CF04CFD5621C0B208F024FE142006F0C3FDA06B02F0D0FC572108F01BFE142006F0BAFD0022414B1A7059E043496B002B441A0108
:403E40008C186768895838460CF038FA8046E669A16930460CF032FA014640460CF0ECFB8046E06031460CF033FB014638460CF025FA81466062D4F808A0394650460CF040
:403E80001DFA8346276A314638460CF017FA014658460CF0D1FB0646206139460CF018FB014650460CF00AFAA0621435204C0BF065FECDE9060130460BF060FECDE904014E
:403EC00048460BF05BFECDE9020140460BF056FECDE900012A461D4920460DF0C5F9204604F07CFB144A137801331370124B1D78012DA1D9124B1C792A2C02D02C2C40F0F7
:403F0000D780134B1B78012B24D10F4D28680BF035FE05A3D3E900230BF0D2FC0CF07AF92860BBE0AFF300809A9999999999B93F88BBFF1F38330100BAB8FF1F4833010092
:403F400048BBFF1F402A0100AC89FF1F54330100C3BEFF1F022B0CD1AF4DA8690BF00EFEABA3D3E900230BF0ABFC0CF053F9A86194E0032B0CD1A84D68680BF0FFFDA4A37B
:403F8000D3E900230BF09CFC0CF044F9686085E0042B0CD1A04DE8690BF0F0FD9CA3D3E900230BF08DFC0CF035F9E86176E0052B0CD1994DA8680BF0E1FD95A3D3E9002399
:403FC0000BF07EFC0CF026F9A86067E0062B0CD1914D286A0BF0D2FD8DA3D3E900230BF06FFC0CF017F9286258E0072B0CD18A4D286B0BF0C3FD86A3D3E900230BF060FCC4
:404000000CF008F9286349E0082B0CD1824DA86C0BF0B4FD7EA3D3E900230BF051FC0CF0F9F8A8643AE0092B0CD17B4D686B0BF0A5FD77A3D3E900230BF042FC0CF0EAF87C
:4040400068632BE00A2B0CD1734DE86C0BF096FD6FA3D3E900230BF033FC0CF0DBF8E8641CE00B2B0CD16C4DA86B0BF087FD68A3D3E900230BF024FC0CF0CCF8A8630DE069
:404080000C2B0BD1644D286D0BF078FD60A3D3E900230BF015FC0CF0BDF828652C2C07D100235E4A13715E4A1371642006F07AFC5A4B1C792B2C02D02D2C40F0CD80594B93
:4040C0001B78012B0CD1544D28680BF057FD50A3D3E900230BF0F2FB0CF09CF82860B1E0022B0CD14C4DA8690BF048FD48A3D3E900230BF0E3FB0CF08DF8A861A2E0032B70
:404100000CD1454D68680BF039FD41A3D3E900230BF0D4FB0CF07EF8686093E0042B0CD13D4DE8690BF02AFD39A3D3E900230BF0C5FB0CF06FF8E86184E0052B0CD1364DB6
:40414000A8680BF01BFD32A3D3E900230BF0B6FB0CF060F8A86075E0062B0CD12E4D286A0BF00CFD2AA3D3E900230BF0A7FB0CF051F8286266E0072B0CD1274D286B0BF07D
:40418000FDFC23A3D3E900230BF098FB0CF042F8286357E0082B0CD11F4DA86C0BF0EEFC1BA3D3E900230BF089FB0CF033F8A86448E0092B0CD1184D686B0BF0DFFC14A319
:4041C000D3E900230BF07AFB0CF024F8686339E00A2B0CD1104DE86C0BF0D0FC0CA3D3E900230BF06BFB0CF015F8E8642AE00B2B1AD1094DA86B0BF0C1FC05A3D3E90023D3
:404200000BF05CFB0CF006F8A8631BE0AFF300809A9999999999B93FAC89FF1F48BBFF1FD8C2FF1FC3BEFF1F0C2B0BD1904D286D0BF0A4FC8CA3D3E900230BF03FFB0BF052
:40424000E9FF28652D2C07D100238A4A13718A4A1371642006F0A6FB854D28680BF08EFC864C02460B46864920460CF0FDFF204604F0B4F9A8690BF081FC02460B46814938
:4042800020460CF0F1FF204604F0A8F968680BF075FC02460B467C4920460CF0E5FF204604F09CF9E8690BF069FC02460B46774920460CF0D9FF204604F090F9A8680BF0B0
:4042C0005DFC02460B46724920460CF0CDFF204604F084F9286A0BF051FC02460B466D4920460CF0C1FF204604F078F9286B0BF045FC02460B46684920460CF0B5FF204661
:4043000004F06CF9A86C0BF039FC02460B46634920460CF0A9FF204604F060F9686B0BF02DFC02460B465E4920460CF09DFF204604F054F9E86C0BF021FC02460B4659495B
:4043400020460CF091FF204604F048F9A86B0BF015FC02460B46544920460CF085FF204604F03CF9286D0BF009FC02460B464F4920460CF079FF204604F030F94C4B1B7899
:404380000C2B40F0CA823B4B1B79012B03D10122484B1A7040E0022B03D10222454B1A703AE0032B03D10322424B1A7034E0042B03D104223F4B1A702EE0052B03D10522AF
:4043C0003C4B1A7028E0062B03D10622394B1A7022E0072B03D10722364B1A701CE0082B03D10822334B1A7016E0092B03D10922304B1A7010E00A2B03D10A222D4B1A70A3
:404400000AE00B2B03D10B222A4B1A7004E00C2B02D10C22274B1A70264B1B780C2B02D90122244B1A70234B1B7813B90C22214B1A700022204B1A7059E01E4B1B78013B99
:404440009A423FD10D4C1D4920460CF00DFF204604F0C4F8184B1A78194920460CF004FF204604F0BBF83EE09A9999999999B93FAC89FF1F48BBFF1FD8C2FF1F88BBFF1F0A
:404480008433010098330100AC330100C0330100D4330100E8330100FC3301001034010024340100383401004C34010060340100B4BFFF1FC3BEFF1FBAB8FF1F1833010023
:4044C00028330100BA4CBB4920460CF0CDFE204604F084F8B84B1A78B84920460CF0C4FE204604F07BF8B44A137801331370B24B1A780B2AA1D9B24B1B79112B77D1B14840
:4045000004F06CF8B04CA06F0CF0CEF95821C0B208F0A6FA142006F045FAA06F02F052F9592108F09DFA142006F03CFAE06F0CF0BBF95A21C0B208F093FA142006F032FAED
:40454000E06F02F03FF95B2108F08AFA142006F029FAD4F880000CF0A7F95C21C0B208F07FFA142006F01EFAD4F8800002F02AF95D2108F075FA142006F014FA206E0CF0EB
:4045800093F95E21C0B208F06BFA142006F00AFA206E02F017F95F2108F062FA142006F001FA606E0CF080F96021C0B208F058FA142006F0F7F9606E02F004F9612108F099
:4045C0004FFA142006F0EEF9A06E0CF06DF96221C0B208F045FA142006F0E4F9A06E02F0F1F8632108F03CFA142006F0DBF9764C676E216E38460BF061FE0646E56FA16F77
:4046000028460BF05BFE014630460CF015F80646E066014628460BF05BFF014638460BF04DFE8046C4F88400D4F86890394648460BF044FE8246D4F88070294638460BF0CB
:404640003DFE014650460BF0F7FF05462067014638460BF03DFF014648460BF02FFE8146C4F8880030460BF089FA06460F46504C48460BF083FACDE9040128460BF07EFA88
:40468000CDE9020140460BF079FACDE9000132463B464E4920460CF0E7FD204603F09EFF474B1C792A2C01D02C2C66D1484B1B78012B0CD1444D286E0BF060FA3AA3D3E9A9
:4046C00000230BF0FDF80BF0A5FD28664BE0022B0CD13D4DA86F0BF051FA33A3D3E900230BF0EEF80BF096FDA8673CE0032B0CD1354D686E0BF042FA2BA3D3E900230BF0CF
:40470000DFF80BF087FD68662DE0042B0CD12E4DE86F0BF033FA24A3D3E900230BF0D0F80BF078FDE8671EE0052B0CD1264DA86E0BF024FA1CA3D3E900230BF0C1F80BF020
:4047400069FDA8660FE0062B0DD11F4DD5F880000BF014FA14A3D3E900230BF0B1F80BF059FDC5F880002C2C07D10023144A1371184A1371642006F015F9114B1C792B2C52
:4047800001D02D2C7ED1124B1B78012B24D10E4D286E0BF0F3F904A3D3E900230BF08EF80BF038FD286663E09A9999999999B93F88BBFF1F38330100BAB8FF1F4833010027
:4047C00048BBFF1F402A0100AC89FF1F74340100C3BEFF1FD8C2FF1F022B0CD1C04DA86F0BF0CCF9BCA3D3E900230BF067F80BF011FDA8673CE0032B0CD1B94D686E0BF03E
:40480000BDF9B5A3D3E900230BF058F80BF002FD68662DE0042B0CD1B14DE86F0BF0AEF9ADA3D3E900230BF049F80BF0F3FCE8671EE0052B0CD1AA4DA86E0BF09FF9A6A3D0
:40484000D3E900230BF03AF80BF0E4FCA8660FE0062B0DD1A24DD5F880000BF08FF99EA3D3E900230BF02AF80BF0D4FCC5F880002D2C07D100239B4A13719B4A1371642097
:4048800006F090F8964D286E0BF078F9974C02460B46974920460CF0E7FC204603F09EFEA86F0BF06BF902460B46924920460CF0DBFC204603F092FE686E0BF05FF9024682
:4048C0000B468D4920460CF0CFFC204603F086FEE86F0BF053F902460B46884920460CF0C3FC204603F07AFEA86E0BF047F902460B46834920460CF0B7FC204603F06EFEFD
:40490000D5F880000BF03AF902460B467D4920460CF0AAFC204603F061FE7B4B1B78062B40F0DE81794B01225A8200221A826D4B1B79212B09D1764803F050FE0023734AF2
:404940005382684A1371684A1371664B1B79082B0BD1704AB2F90030B3FA83F35B0913800023604A1371604A13715E4B1B79132B0BD108F031FDB0FA80F0400908F020FD7F
:404980000023584A1371584A1371564B1B79012B0BD108F03FFFB0FA80F0400908F02EFF0023504A1371504A13714E4B1B79022B0BD108F01BFFB0FA80F0400908F00AFF82
:4049C0000023484A1371484A1371464B1B79032B0BD108F033FFB0FA80F0400908F022FF0023404A1371404A13713E4B1B79042B0BD108F053FFB0FA80F0400908F042FF46
:404A00000023384A1371384A1371364B1B79052B0BD108F02FFFB0FA80F0400908F01EFF0023304A1371304A13712E4B1B79062B0BD108F04FFFB0FA80F0400908F03EFF71
:404A40000023284A1371284A1371264B1B79072B0BD108F053FFB0FA80F0400908F042FF0023204A1371204A13711E4B1B79122B0BD108F057FFB0FA80F0400908F046FF2B
:404A80000023184A1371184A1371234BB3F90030BBB9204BB3F9003053B148F6B80007F0A9FD002007F0ACFD1C4803F097FD08E0002007F09FFD002007F0A2FD184803F01C
:404AC0008DFD08F089FC01282ED1164803F086FD2DE000BFAFF300809A9999999999B93FAC89FF1F48BBFF1FD8C2FF1F88BBFF1F8433010098330100AC330100C033010051
:404B0000D4330100E8330100B4BFFF1F9C88FF1F402A01009ABCFF1FDABFFF1FA4340100B0340100C03401008D4803F057FD08F071FE012803D18B4803F050FD02E08A48EE
:404B400003F04CFD08F052FE012803D1874803F045FD02E0864803F041FD08F06FFE012803D1844803F03AFD02E0834803F036FD08F094FE012803D1804803F02FFD02E054
:404B80007F4803F02BFD08F075FE012803D17D4803F024FD02E07C4803F020FD08F09AFE18B97A4803F01AFD02E0794803F016FD08F0A4FE18B9774803F010FD02E076487C
:404BC00003F00CFD08F0AEFE012803D1734803F005FD02E0724803F001FD07F0E5FF18B9704803F0FBFC02E06F4803F0F7FC08F02DFE18B96D4803F0F1FC02E06C4803F0FC
:404C0000EDFC08F053FE30B96A4803F0E7FC002008F07CFE02E0684803F0E0FC674C684B1A68684920460CF01FFB204603F0D6FC654B1A68654920460CF016FB204603F0F2
:404C4000CDFC634B18680AF099FF02460B46614920460CF009FB204603F0C0FC5E4D2A685E4920460CF000FB204603F0B7FC6A685B4920460CF0F8FA204603F0AFFC594B2E
:404C800018680AF07BFF02460B46574920460CF0EBFA204603F0A2FC04F0B6F90246534920460CF0E1FA204603F098FC504B18680AF064FF02460B464E4920460CF0D4FA00
:404CC000204603F08BFC4C4B18680AF057FF02460B464A4920460CF0C7FA204603F07EFC474B1B78072B40F02D82464B1B790A2B02D10421444A11700B2B02D10521424AF9
:404D000011700C2B02D101213F4A11700D2B02D102213D4A11700E2B02D103213A4A1170394A1278052A02D90121374A1170364A127812B90521344A1170112B40F0C98067
:404D4000324803F04BFC324B187804F011FB002866D0304B1B78304AD256304B1A7065E0D0340100E0340100EC340100FC340100083501001835010024350100343501005E
:404D800040350100503501005C3501006C350100783501008835010094350100A4350100B4350100C4350100D0350100E0350100EC350100FC3501000C36010088BBFF1FBB
:404DC000B0B8FF1F1C360100B4B8FF1F3036010000C3FF1F403601001CBDFF1F543601006836010080BBFF1F7C3601009036010010BDFF1FA436010024BDFF1FB8360100E9
:404E0000B4BFFF1F48BBFF1FC3BEFF1F402A01001689FF1F1489FF1F8887FF1FF0BFFF1F9E4B1B789E4AD2569E4B1A709E4B1A78531E9E4883FB00015C18D917C1EBA4043C
:404E4000C4EBC4041C1B1946002B00DAD91C8910974880FB0350DB17C3EB6013013303EB43031846002B00DAD81CA1EBA0008F4D80FB0567C319C117C1EBA303C3EBC303AA
:404E8000C31A234487490C781C448A4B18788A4EA0FB0667C11B07EB51018908C1EBC101431ADBB2234483FB05455C19D917C1EBA401C1EBC101591ACBB280490B70774965
:404EC00009787F4C247801947E4C2478009400F0B9FF7D4B1B792A2B40F099807B4B1B78012B58D16D4B1B78022B1CD16E4B187804F03EFA58B16F4B1B781C2B03D8013365
:404F00006C4A13707EE001226A4B1A707AE0694B1B781B2B03D80133664A137072E00122644B1A706EE0072B1AD813F0010F0BD1604B1B781D2B03D801335E4A137061E03F
:404F400001225C4B1A705DE05A4B1B781E2B03D80133584A137055E00122564B1A7051E013F0010F0BD1534B1B781E2B03D80133504A137046E001224E4B1A7042E04D4B7C
:404F80001B781D2B03D801334A4A13703AE00122484B1A7036E0022B0BD1404B1B780B2B03D801333D4A13702CE001223B4B1A7028E0032B0BD13C4B1B78622B03D8013303
:404FC000394A13701EE00022374B1A701AE0042B0BD13C4B1B78172B03D80133394A137010E00022374B1A700CE0052B0AD1344B1B783A2B03D80133314A137002E000226C
:405000002F4B1A700023304A1371314A13712E4B1B792B2B66D12D4B1B78012B0DD1254B1B78012B03D9013B224A137055E01F22204B1A7004F0B2F94FE0022B0BD1174BC3
:405040001B78012B03D9013B144A137045E00C22124B1A7041E0032B0AD1134B1B781BB1013B114A137038E063220F4B1A7034E0042B0AD1134B1B781BB1013B114A1370C7
:405080002BE017220F4B1A7027E0052B25D10C4B1B78FBB1013B0A4A13701EE01489FF1F9487FF1FF0BFFF1F1689FF1F932449921F85EB511589FF1F254992243889FF1F45
:4050C0001889FF1F1789FF1F48BBFF1FC3BEFF1FD8C2FF1F3B22AB4B1A700023AA4A1371AA4A137104F05AF9A94CAA4B1A78AA4920460CF0B9F8204603F070FAA14B1A78C1
:40510000A64920460CF0B0F8204603F067FAA44B1A78A44920460CF0A7F8204603F05EFAA14B1A78A14920460CF09EF8204603F055FA9F4B1A789F4920460CF095F82046DB
:4051400003F04CFA9C4B1B78642B7BF4E9AA00229A4B9A829A4B1B78112B02D90122984B1A70974B1B7813B91122954B1A70944B1B78012B46D1934803F030FA844C924B71
:405180001A78924920460CF06FF8204603F026FA7D4B1B790A2B10D10FD18B4C20780AF0DBFC00228A4B0AF08BFB0BF013F820700023754A1371754A1371734B1B790B2B70
:4051C00010D10FD1804C20780AF0C6FC0022804B0AF074FB0AF0FEFF207000236A4A13716A4A1371784B1B78142B02D90122764B1A70754B1B78002B40F0E9831422724B73
:405200001A70E4E3022B38D1724803F0E7F9604C714B1A786D4920460CF026F8204603F0DDF9594B1B790A2B09D108D16A4A1378013313700023544A1371544A1371524BE1
:405240001B790B2B09D108D1634A1378013B137000234D4A13714D4A13715F4B1B78502B02D901225C4B1A705B4B1B78002B40F0AE835022584B1A70A9E3032B38D15748B4
:4052800003F0ACF9424C564B1A78504920460BF0EBFF204603F0A2F93B4B1B790A2B09D108D14F4A1378013313700023364A1371364A1371344B1B790B2B09D108D1484A27
:4052C0001378013B137000232F4A13712F4A1371434B1B78042B02D90122414B1A70404B1B78002B40F0738304223D4B1A706EE3042B7BD13B4803F071F9254C3A4B1A7808
:40530000324920460BF0B0FF204603F067F91E4B1B790A2B10D10FD1334C20780AF01CFC00222B4B0AF0CCFA0AF054FF20700023154A1371154A1371134B1B790B2B10D1E6
:405340000FD1294C20780AF007FC0022204B0AF0B5FA0AF03FFF207000230B4A13710B4A1371214B1B78142B02D905221E4B1A701D4B1B78042B00F22A8314221A4B1A704F
:4053800025E300BF1889FF1F48BBFF1FD8C2FF1F88BBFF1F1789FF1FD0360100E43601001589FF1FF83601001489FF1F083701001689FF1F18370100B4BFFF1F9C88FF1F87
:4053C00020BBFF1F2C370100B8BAFF1F4C3701000000F03F5C370100F4BBFF1F78370100D2BFFF1F9437010005C3FF1F052B30D1984803F0F3F8984C984B1A78984920460C
:405400000BF032FF204603F0E9F8964B1B790A2B0CD10BD1914B1B78632B02D801338F4A137000238F4A13718F4A13718D4B1B790B2B40F0CC8240F0CA82884B1B7813B199
:40544000013B864A13700023864A1371864A1371BDE2062B30D1854803F0C0F87E4C844B1A787F4920460BF0FFFE204603F0B6F87C4B1B790A2B0CD10BD17D4B1B78632BFF
:4054800002D801337A4A13700023764A1371764A1371744B1B790B2B40F0998240F09782734B1B7813B1013B714A137000236D4A13716D4A13718AE2072B31D16D4803F05F
:4054C0008DF8654C6C4B1A78654920460BF0CCFE204603F083F8634B1B790A2B0CD10BD1654B1B784F2B02D80133634A137000235C4A13715C4A13715A4B1B790B2B40F03F
:40550000668240F064825C4B1B780A2B02D9013B594A13700023534A1371534A137156E2082B31D1554803F059F84B4C544B1A784B4920460BF098FE204603F04FF8494B87
:405540001B790A2B0CD10BD14D4B1B784F2B02D801334B4A13700023424A1371424A1371404B1B790B2B40F0328240F03082444B1B780A2B02D9013B414A13700023394A5E
:405580001371394A137122E2092B30D13D4803F025F8314C3C4B1A78314920460BF064FE204603F01BF82F4B1B790A2B0CD10BD1354B1B78632B02D80133334A1370002385
:4055C000284A1371284A1371264B1B790B2B40F0FE8140F0FC812C4B1B7813B1013B2A4A137000231F4A13711F4A1371EFE10A2B50D1264802F0F2FF174C254B1A781849ED
:4056000020460BF031FE204602F0E8FF154B1B790A2B0CD10BD11E4B1B78632B02D801331B4A137000230F4A13710F4A13710D4B1B790B2B40F0CB8140F0C981144B1B7852
:4056400013B1013B124A13700023064A1371064A1371BCE1AC37010088BBFF1F40BDFF1F4C37010048BBFF1FD8C2FF1FC837010004BDFF1FE437010006C0FF1FFC37010013
:4056800036BBFF1F183801007CC1FF1F343801003DBBFF1F0B2B37D1A04802F09FFFA04CA04B1A78A04920460BF0DEFD204602F095FF9E4B1B790A2B09D108D1994A1378A9
:4056C000013313700023994A1371994A1371974B1B790B2B09D108D1924A1378013B13700023924A1371924A13718E4B1B7813B9FF228C4B1A708B4B1B78FF2B40F0678135
:405700000122884B1A7062E10C2B32D1894802F065FF894C824D2278884928460BF0A4FD284602F05BFF2378013BDBB23B2B01D9012222707D4B1B790A2B09D108D17E4A0D
:405740001378013313700023784A1371784A1371764B1B790B2B40F03A8140F03881764A1378013B13700023704A1371704A13712DE10D2B32D1724802F030FF714C684D9A
:4057800022786E4928460BF06FFD284602F026FF2378043BDBB2382B01D904222270634B1B790A2B09D108D1664A13780133137000235E4A13715E4A13715C4B1B790B2BDA
:4057C00040F0058140F003815E4A1378013B13700023564A1371564A1371F8E00E2B32D1594802F0FBFE594C4D4D2278534928460BF03AFD284602F0F1FE2378013BDBB27A
:405800003B2B01D901222270484B1B790A2B09D108D14E4A1378013313700023434A1371434A1371414B1B790B2B40F0D08040F0CE80464A1378013B137000233B4A1371EB
:405840003B4A1371C3E00F2B30D1414802F0C6FE404C334D2288344928460BF005FD284602F0BCFE2388782B01D9012222802F4B1B790A2B09D108D1364A13880133138085
:4058800000232A4A13712A4A1371284B1B790B2B40F09D8040F09B802E4A1388013B13800023224A1371224A137190E0102B57D1294802F093FE294C194D22881A492846FE
:4058C0000BF0D2FC284602F089FE2388782B01D901222280214B1B8813B978221F4B1A80124B1B790A2B09D108D11C4A13880133138000230D4A13710D4A13710B4B1B792E
:405900000B2B64D163D1154A1388013B13800023064A1371064A137159E000BF5038010088BBFF1FD5C2FF1F6C38010048BBFF1FD8C2FF1F7C3801002BBBFF1F9838010095
:40594000A8380100D4C2FF1FC4380100D6BFFF1FE03801000089FF1FFC3801000289FF1F112B34D18D4802F039FE8D4C8D4D22788D4928460BF078FC284602F02FFE2378DD
:405980003C2B01D905222270854B1B78042B02D83C22834B1A70854B1B790A2B09D108D17F4A1378013313700023804A1371804A13717E4B1B790B2B09D108D1784A137822
:4059C000013B13700023794A1371794A1371774B1B790C2B09D108D1764A1378013313700023724A1371724A1371704B1B790D2B09D108D16F4A1378013B137000236B4A3D
:405A000013716B4A1371694B1B79112B7AF488AE142004F0C7FF654B1B79112B7AF480AE654BB3F90030002B40F0B380634C0021208800F0F1FE052107F012F80A2004F0C1
:405A4000B1FF0121208800F0E7FE062107F008F80A2004F0A7FF5A4C0021208800F0DCFE072106F0FDFF0A2004F09CFF0121208800F0D2FE082106F0F3FF0A2004F092FF9F
:405A80000921474B187806F0EBFF0A2004F08AFF20214C4B187806F0E3FF0A2004F082FF1F21494B187806F0DBFF0A2004F07AFF464C1E21207806F0D3FF0A2004F072FFA9
:405AC0002221434B187806F0CBFF0A2004F06AFF2321404B187806F0C3FF0A2004F062FF24213D4B187806F0BBFF0A2004F05AFF21213A4B187806F0B3FF0A2004F052FF76
:405B00002521374B187806F0ABFF0A2004F04AFF2621344B187806F0A3FF0A2004F042FF2721314B187806F09BFF0A2004F03AFF2E492F4B18680AF07FFD054620780AF0BA
:405B400073FC29460AF0C4FC2A4B186028212A4B187806F085FF0A2004F024FF2C21274B187806F07DFF0A2004F01CFF2D21244B187806F075FF0A2004F014FF2E21214BFA
:405B8000187806F06DFF0A2004F00CFF01220A4B1A801D4802F022FDFAF7C2BD183901000489FF1F88BBFF1F6C38010048BBFF1FD8C2FF1F20BBFF1F64BDFF1F0089FF1F17
:405BC0000289FF1FD2BFFF1FF4BBFF1FB8BAFF1F40BDFF1F04BDFF1F06C0FF1F05C3FF1F7CC1FF1F3DBBFF1F36BBFF1F000048437CBBFF1F78C1FF1FD5C2FF1F2BBBFF1FBC
:405C0000D4C2FF1FD6BFFF1F402A010010B5012007F0FAFB012006F05BFE7D2007F08CFB05F02CF9002005F039F905F04FF9044600F064F80021201A00F042F810BD00BFF0
:405C400038B505460C467D2007F076FB74B9002007F0DAFB002006F03BFE05F00FF9002005F01CF905F032F9044611E0012C0ED1022007F0C9FB022006F02AFE05F0FEF897
:405C8000002005F00BF905F021F9044600E0002400F034F80121201A00F012F80AF0C4FB044628460AF0C0FB014620460AF0C4FC02490AF00DFC0AF0D1FD38BD0050C3470A
:405CC00080020D4B53F8213003F54832904203DCA3F54832904203DA074B43F8210005E0C01A03EB2010044B43F82100024B53F821008012704700BFE488FF1F08B50020EC
:405D000007F01AFB05F0BAF8002005F0C7F805F0DDF808BD08B5002007F050FD002007F041FD012007F04AFD042004F051FE08BD08B5002007F042FD042004F049FE08BD15
:405D400070B506460D46002418E046FA04F000F0010007F013FD012004F03AFE012007F021FD012004F034FE0DB1072C05D0002007F018FD012004F02BFE0134072CE4DDF4
:405D800070BD00BF38B500252C4619E0012007F009FD012004F01CFE002007F003FD012004F016FE07F0F6FC20B10123A3401D43EDB203E00123A34025EA03050134E4B261
:405DC000072CE3D9284638BD70B50546FFF7A2FF0021BE20FFF7B4FF002406E06E1C00212878FFF7ADFF01343546072CF6DDFFF79FFF70BD38B50C4620F00105FFF78AFF60
:405E0000002105F0FE00FFF79BFF00212046FFF797FFFFF78DFF38BD70B50546FFF77AFF0121BF20FFF78CFF002405E06E1CFFF7A9FF287001343546072CF7DDFFF778FFE6
:405E400070BD00BFF8B59DF818E09DF81C60274C002525606560A5F13335A5FB06C7FF0807EB870CA6EB4C0C66786CF3030667F306166670A5FB0E67FF0807EB8706AEEB63
:405E8000460EA6786EF3030667F30516A670A5FB0076F60806EB8607A0EB4707E07867F3030066F30510E070A5FB0160C00800EB8006A1EB4606217966F3030160F304112C
:405EC0002171617963F302016171A5FB0235ED0805EB8503A2EB4302A37962F3030365F30713A3712046FFF76FFFF8BDA4B7FF1F2DE9F04180460F4616461D46144C204619
:405F0000FFF78AFFE278C2F3011302F00F0103EB83035A000A4488F800202279C2F3001302F00F019A0013445A000A443A70A279C2F3031302F00F0103EB83035A000A4455
:405F400032706379C3F302032B70BDE8F08100BFA4B7FF1FF8B507460E461446114D2846FFF75AFFAA78C2F3011302F00F0103EB83035A000A443A706A78C2F3021302F0EB
:405F80000F0103EB83035A000A4432702A78C2F3021302F00F0103EB83035A000A442270F8BD00BFA4B7FF1F08B5002301222C49772007F0A9F807F075F910F0020FFAD023
:405FC00007F08CF9002316222649772007F002F907F068F910F0010FFAD007F07FF90122214B1A701F4B19785A7842EA01221F490A809978DA7842EA01221D490A801979D6
:406000005A7942EA01221B490A809979DA7942EA012219490A80197A5A7A42EA012217490A80997ADA7A42EA012215490A80197B5A7B42EA012213490A80997BDA7B42EA3F
:40604000012211490A80997CDA7C42EA01220F490A801A7D5B7D43EA02230D4A138008BDE080FF1FBCB8FF1FF088FF1FD4B8FF1FF4B8FF1FF6B8FF1FECB8FF1FE4B8FF1FAB
:40608000D6B8FF1F08B9FF1FF8B8FF1F10B9FF1FD2B8FF1F08B5002302221849772007F033F807F0FFF810F0020FFAD007F016F9052004F077FC002301221149772007F051
:4060C00023F807F0EFF810F0020FFAD007F006F9002302220B49772007F07CF807F0E2F810F0010FFAD007F0F9F8074A1179537943EA0123054A136008BD00BFE480FF1FE6
:40610000E880FF1FF488FF1FF088FF1FDCB8FF1F08B5002302221A49772006F0F5FF07F0C1F810F0020FFAD007F0D8F81A2004F039FC002301221349772006F0E5FF07F050
:40614000B1F810F0020FFAD007F0C8F8002303220D49772007F03EF807F0A4F810F0010FFAD007F0BBF8094A117A537A1B0243EA0143927A13435B11054A136008BD00BF1E
:40618000EC80FF1FF080FF1FF888FF1FF088FF1F0CB9FF1F2DE9F041874B1B780BB9FFF703FFFFF777FFFFF7B3FF844B1888844B1B681B1A834A108803FB00F009F0CCFC2A
:4061C00000224FF07C5309F02DFD09F0DBFF05467D4BB3F9000009F0BFFC00227B4B09F021FD06460F467A4BB3F90000284409F0B3FC02460B463046394609F03DFE09F026
:40620000C1FF0544734B1D6005F1080009F0A4FC0022714B09F006FD09F0B4FF6F4B1860A5F57A656E4B1D6005FB05F009F094FC00226C4B09F0F6FC06460F466A4BB3F9D8
:40624000000009F089FC32463B4609F0EBFC00224FF07D5309F0E6FC09F094FF0446634BB3F9000005FB00F009F076FC00224FF07D5309F0D7FC09F085FF20445C4BB3F9FF
:40628000004000EB8404E400023400D50334A410584B1C60584BB3F9000005FB00F009F05BFC0022554B09F0BDFC09F06BFF0546534BB3F9000009F04FFC32463B4609F001
:4062C000B1FC00224F4B09F0ADFC09F05BFF2844023009F041FC00224B4B09F0A3FC09F051FF4A4B186000F50040494B1B8800FB03F009F021FC00224FF07C5309F092FC9F
:4063000009F068FF434B1860434B1B681C1B41F66A0303FB04F4414B1C60002C05DB6400B4FBF0F03E4B186004E0B4FBF0F464003B4B1C603A4CD4F80080404609F00CFCD7
:4063400006460F460022374B09F06CFC02460B4609F068FC09F016FF40F6DE3303FB00F009F0FAFB0022274B09F05CFC09F00AFF05462D4B18602D4800FB08F009F0ECFBE6
:406380000022204B09F04EFC09F0FCFE284B1860284400F6CF6009F0DFFB00220E4B09F041FC02460B463046394609F089FA09F0E9FE2060BDE8F081F088FF1FD6B8FF1F58
:4063C000DCB8FF1FE4B8FF1F10B9FF1F0000A040D2B8FF1FE8B8FF1F0000B03FB0B8FF1FD8B8FF1F0000303FF8B8FF1FF4B8FF1FD4B8FF1F14B9FF1FF6B8FF1F0000203F1A
:4064000008B9FF1F0000F03E0000D03FFCB8FF1FECB8FF1F00B9FF1F0CB9FF1F04B9FF1FB4B8FF1F0000703FF0B8FF1F43E3FFFFE0B8FF1F70B504462AE0262120460AF01E
:4064400046FF18B1461C0022027000E006463D2120460AF03CFF18B1451C0022027000E005460D4920460AF040FF80B97DB10B4928460AF03AFF10B906F0A2FF07E0084921
:4064800028460AF032FF10B9012006F099FF3446002CD2D170BD00BF34390100383901003C39010070B504464FF4FA6200210AF061FA394920460AF022FF20460AF027FF33
:4064C00002462118354B1868A0509B888B80344B186809F053FB334D02460B46324928460AF0C2FE294620460AF0E2FE2F4B186809F044FB02460B462D4928460AF0B4FEF1
:40650000294620460AF0D4FE2A4B1B682A4A82FB0312DB17C3EB6212284928460AF0A4FE294620460AF0C4FE254B186809F026FB02460B46234928460AF096FE29462046BC
:406540000AF0B6FE204B186809F018FB02460B461E4928460AF088FE294620460AF0A8FE20460AF0D4FE01462218194B1868605099889B799180937120460AF0C8FE064610
:406580002518144B07CBA0516960AA601A889B78AA81AB7370BD00BF0081FF1F4039010080BBFF1F1CB9FF1F4839010010BDFF1F6C39010070BCFF1F1F85EB519039010053
:4065C00000C3FF1FBC39010024BDFF1FD8390100FC390100043A0100F8B507460C464FF4FA6200210AF0C6F922463D493D480AF03BFE3D4938460AF05BFE38460AF087FE7F
:406600003A4E3C1806F1200E35460FCD20606160A260E3602E4610347545F5D128682060AA88AB79A280A37138460AF070FE06463D182F4C0FCCB8516960AA60EB6003CCD5
:406640002861696138460AF062FE2A4C3D1804F1200E26460FCE28606960AA60EB60344610357645F5D107CC28606960AA602288A378AA81AB731B4938460AF019FE384625
:406680000AF045FE024639181B4B1868B8501B790B7138460AF03BFE184E3C1806F1200E35460FCD20606160A260E3602E4610347545F5D12A88AB782280A37038460AF05F
:4066C00026FE06463D180E4C0FCCB8516960AA60EB600FCC28616961AA61EB61F8BD00BF143A01001CB9FF1FFC88FF1F183A0100403A0100583A0100883A0100903A0100AD
:40670000B43A01002DE9F04106460C460D1D202128460AF0DCFD28B920460AF0F8FD234B1B8823520422224920460AF009F978BB202128460AF0CBFD074648B300230370A8
:406740003F2128460AF0C3FD20B100F101080022027000E08046174928460AF0C6FD38B939464046FFF766FE2046FFF79BFE13E0114928460AF0B9FD28B9104B196820462E
:40678000FFF72AFF08E00E4920460AF091FD03E00B4920460AF08CFD20460AF0B8FD82B22146304607F06AFDBDE8F081D43A0100D83A0100E03A0100E43A010018B9FF1F88
:4067C000EC86FF1F10B504460AF048F840B209F02BFE0146204609F071FD034909F078FE0AF062F8C0B210BD0000204110B504460AF034F840B209F017FE0146204609F00E
:406800005DFD10BD08B509F00BFE024909F014FF08BD00BF0000204109B9C0B27047012901D1000A70470020704700BF41EA0020704700BF000000002DE9F041002006F0DA
:4068400077F9C04B1870052004F0ACF8012006F06FF9BD4B1870052004F0A4F8022006F067F9BA4E3070052004F09CF8032006F05FF9B74C09F0D4FD2060052004F092F866
:40688000B449206809F0D8FE05462060307809F0CBFD294609F014FDAF4B1860042006F047F9AE4B1880052004F07CF8062006F03FF90446052006F03BF901462046FFF75D
:4068C000B5FFA74C2080052004F06CF8082006F02FF90546072006F02BF901462846FFF7A5FF6080052004F05DF8092006F020F92071052004F056F80A2006F019F9994C1E
:406900002070052004F04EF80B2006F011F96070052004F047F80C2006F00AF9A070052004F040F80D2006F003F9E070052004F039F81E2006F0FCF809F072FD8A4B1860F9
:40694000052004F02FF81F2006F0F2F8874B1870052004F027F8202006F0EAF8844B1870052004F01FF8212006F0E2F8814B1870052004F017F8222006F0DAF87E4B18709F
:40698000052004F00FF8232006F0D2F87B4B1870052004F007F8242006F0CAF8784B1870052003F0FFFF252006F0C2F8754B1870052003F0F7FF262006F0BAF8724B187073
:4069C000052003F0EFFF272006F0B2F86F4B1870052003F0E7FF282006F0AAF86C4B1870052003F0DFFF292006F0A2F8694B1870052003F0D7FF2A2006F09AF8664B187047
:406A0000052003F0CFFF2B2006F092F8634B1870052003F0C7FF2C2006F08AF8604B1870052003F0BFFF2D2006F082F85D4B1870052003F0B7FF2E2006F07AF85A4B187026
:406A4000052003F0AFFF2F2006F072F8574C2070052003F0A7FF302006F06AF86070052003F0A0FF312006F063F8A070052003F099FF322006F05CF8E070052003F092FF8A
:406A8000332006F055F84A4C2070052003F08AFF342006F04DF86070052003F083FF352006F046F8A070052003F07CFF362006F03FF8E070052003F075FF372006F038F878
:406AC0003C4C2070052003F06DFF382006F030F86070052003F066FF392006F029F8A070052003F05FFF3A2006F022F8E070052003F058FF3B2006F01BF82F4C2070052084
:406B000003F050FF3C2006F013F86070052003F049FF3D2006F00CF8A070052003F042FF3E2006F005F8E070052003F03BFF3F2005F0FEFF2071052003F034FF00221F4B1A
:406B40001A700CE190C1FF1F70BBFF1F64BBFF1F68BDFF1F000020417CBBFF1FFEBCFF1F0089FF1FDCBFFF1F78C1FF1FF4BBFF1FD2BFFF1F05C3FF1F40BDFF1F04BDFF1FC5
:406B800006C0FF1F7CC1FF1F3DBBFF1F36BBFF1FD5C2FF1FC4BEFF1FC0BFFF1F3CBDFF1F2BBBFF1FD4C2FF1FD6BFFF1FCC80FF1FD080FF1FD480FF1FD880FF1FBAB8FF1FAD
:406BC00005EB45039800403080B205F0B1FF0746BD4C237803EB43039800413080B205F0A7FFFFF70FFE0646384609F01DFC314609F066FBB54E05EB45052B0133449861FA
:406C0000052003F0CFFE257805EB45039800423080B205F08DFF0746237803EB43039800433080B205F084FFFFF7ECFD8046384609F0FAFB414609F043FB05EB45052B01D7
:406C40003344D861052003F0ADFE257805EB45039800443080B205F06BFF0746237803EB43039800453080B205F062FFFFF7CAFD8046384609F0D8FB414609F021FB05EB25
:406C800045052B0133441862052003F08BFE257805EB45039800463080B205F049FF0746237803EB43039800473080B205F040FFFFF7A8FD8046384609F0B6FB414609F0E0
:406CC000FFFA05EB45052B01F050052003F06AFE257805EB45039800483080B205F028FF0746237803EB43039800493080B205F01FFFFFF787FD8046384609F095FB414602
:406D000009F0DEFA05EB45052B0133445860052003F048FE257805EB450398004A3080B205F006FF0746237803EB430398004B3080B205F0FDFEFFF765FD8046384609F096
:406D400073FB414609F0BCFA05EB45052B011E44B060052003F026FE2378013323705A4B1D78022D7FF62CAF594B186809F09CFD584B18700022544B1A7098E004EB440366
:406D80005800643080B205F0D3FE534D04EB4404A3002B4458704C4E347804EB44035800653080B205F0C4FE04EB4404A300E854347804EB44035800663080B205F0B8FE29
:406DC00004EB4404A3002B441871347804EB44035800673080B205F0ABFE04EB4404A3002B449870347804EB44035800683080B205F09EFE04EB4404A3002B44D8703478FD
:406E0000630023449A00AE187778A85CFFF7FAFC0546384609F008FB294609F051FA0546B0602E4909F010FD40B9284608F0A6FE23A3D3E9002309F067F930B104EB4402E2
:406E40009300254A1344264A9A6004EB44029300214A13441B790A3BDBB2552B06D904EB440293001C4A13443C221A7104EB44029300194A13449B78632B06D904EB44025B
:406E80009300154A13440A229A7004EB44029300114A1344DB783B2B06D904EB440293000D4A13440A22DA700134074B1C70064B1C78132C7FF662AFBDE8F081AFF3008060
:406EC0009A9999999999B93FBAB8FF1FAC89FF1F78C1FF1FB8BAFF1FACB7FF1F000070420000F0412DE9F04F83B0BB4B1B783B2B08D90A20B84B1870002105F0B1FD1420C0
:406F000003F050FDB54B1B78632B08D90A20B34B1870012105F0A4FD142003F043FDB04B1C68B049204609F08FFC20B90021204609F06CFC80B1AC4AA94B1A6002216420E1
:406F400005F08EFD142003F02DFD0321002005F087FD142003F026FDA44B1B880A3B9BB2552B08D93C20A14B1880042105F078FD142003F017FD9E4B1B88782B10D90024CE
:406F80009B4B1C800521204605F06AFD142003F009FD0621204605F063FD142003F002FD934B5B88013B9BB2772B0FD90520904B5880072105F054FD142003F0F3FC0821D9
:406FC000002005F04DFD142003F0ECFC884B1B79053BDBB2372B08D90A20854B1871092105F03EFD142003F0DDFC824B1B78092B08D900207F4B18700A2105F031FD142066
:4070000003F0D0FC7B4B5B78092B08D90020794B58700B2105F024FD142003F0C3FC754B9B78092B08D90020724B98700C2105F017FD142003F0B6FC6E4BDB78092B08D912
:4070400000206C4BD8700D2105F00AFD142003F0A9FC694B1C686949204609F0F5FB28B94FF07E51204609F0D1FB50B14FF08042614B1A601E21022005F0F2FC142003F015
:4070800091FC5F4B1B78053BDBB24B2B08D950205B4B18701F2105F0E3FC142003F082FC584B1B78013BDBB2032B08D90120554B1870202105F0D4FC142003F073FC524BFB
:4070C0001B78053BDBB20F2B08D905204E4B1870212105F0C5FC142003F064FC4B4B1B78642B08D90020494B1870222105F0B8FC142003F057FC464B1B78642B08D9002061
:40710000434B1870232105F0ABFC142003F04AFC404B1B780A3BDBB2462B08D950203D4B1870242105F09CFC142003F03BFC3A4B1B78642B08D90020374B1870252105F00D
:407140008FFC142003F02EFC344B1B78642B08D90020324B1870262105F082FC142003F021FC2F4B1B780A3BDBB2462B08D928202B4B1870272105F073FC142003F012FC36
:40718000284B1B784BB91424264B1C702821204605F066FC204603F005FC234B1B78012B08D90020204B1870292105F059FC142003F0F8FB1D4B1B78012B08D900201B4BD3
:4071C00018702A2105F04CFC142003F0EBFB184B1B78012B37D92DE090C1FF1F70BBFF1F7CBBFF1F000070420000F041FEBCFF1F0089FF1FDCBFFF1F78C1FF1F0000A041D3
:40720000F4BBFF1FD2BFFF1F05C3FF1F40BDFF1F04BDFF1F06C0FF1F7CC1FF1F3DBBFF1F36BBFF1FD5C2FF1FC4BEFF1FC0BFFF1F3CBDFF1F0020B14B18702B2105F010FC94
