:10000000DCEF53F0C7EF3EF0046ED8CF05F0E0CF41
:1000100006F00001E9CF0CF0EACF07F0E1CF08F0DD
:10002000E2CF09F0D9CF0AF0DACF0BF0F3CF12F01C
:10003000F4CF13F0FACF14F0FBCF15F000C00EF0A0
:1000400001C00FF002C010F003C011F0F2AA2CEFB3
:1000500000F0F2B464EF00F09DAA32EF00F09EBA17
:100060001AEF01F00EC000F00FC001F010C002F056
:1000700011C003F00CC0E9FF07C0EAFF078E08C0FB
:10008000E1FF09C0E2FF0AC0D9FF0BC0DAFF12C0CE
:10009000F3FF13C0F4FF14C0FAFF15C0FBFF0450B8
:1000A00006C0E0FF05C0D8FF1000F2A40AD0010E80
:1000B00001011927D8B01A2BD8B41B2BD8B41C2B8C
:1000C000F294000165EF00F0F0D732EF00F04854F1
:1000D00054502F312E3120254C5520004175746825
:1000E0006F72697A6174696F6E2052657175697299
:1000F000656400004E6F7420466F756E6400536532
:1001000072766572204572726F720000436F6E7472
:10011000656E742D547970653A2000004C617374DB
:100120002D4D6F6469666965643A205475652C20AD
:100130003135204E6F7620313939342031323A341E
:10014000353A323620474D540D0A0000436163684A
:10015000652D436F6E74726F6C3A206E6F2D636104
:100160006368650D0A00436F6E6E656374696F6E38
:100170003A20636C6F73650D0A006572726F723599
:1001800030302E68746D00003C68746D6C3E3C62CB
:100190006F64793E3C68313E353030204572726F75
:1001A000723C2F68313E3C68723E3C703E496E7432
:1001B00065726E616C20736572766572206572720D
:1001C0006F722E3C2F703E3C2F626F64793E3C2F45
:1001D00068746D6C3E00696E6465782E68746D009D
:1001E0006572726F723430342E68746D00006572FF
:1001F000726F723530302E68746D00006572726FE8
:10020000723530302E68746D00006572726F723511
:1002100030302E68746D00009EAAFED7ABCF81F3FC
:100220000301AECF01F081A302D0AB98AB880001EF
:100230001BEF01F0F1D701C0BBF30301BB5165080F
:1002400003E1010EBC6FBA6BBC2D0AD0036ABA5130
:100250009E0FE96E030E0320EA6EBBC3EFFFBA2BBD
:10026000BABF05D0BA511A0802E2BA6BBC6BBA53D6
:100270000EE19E51650809E19F3D07D0A75305E1B6
:10028000A83D03D0050EBD6F02D00A0EBD6F9E9A29
:10029000000132EF00F0030EEA6EC20EE96EEF507D
:1002A0000DE0060E016E006A002EFED7012EFBD770
:1002B0007B0E006E002EFED7EF2EF3D71200506A91
:1002C000200E516E300E526E400E536E500E546E14
:1002D000600E556EC00E236EA80E246E256A760E33
:1002E000266EC00E2B6EA80E2C6E2D6A010E2E6E81
:1002F0002768286829682A6A5DEF54F0D76AD66AA9
:10030000F194F294F28A870ED56E5FEF54F00401F7
:10031000186B18510E0844E3D89001011431040100
:100320001D6F0101133104011C6F01011231040121
:100330001B6F0101113104011A6F01011151010BF1
:10034000006E016A026A036A000ED880005404013C
:100350001E6F000E01541F6F000E0254206F000E1E
:100360000354216F1E51010B006E016A026A215174
:10037000D00B036E00501A190101116F01500401D6
:100380001B190101126F025004011C190101136FA6
:10039000035004011D190101146F0401182BB9D772
:1003A000010111C101F012C102F00001120014C1DB
:1003B000DDF313C1DCF312C1DBF311C1DAF3030186
:1003C000D6530BE1D75309E1D85307E1D95305E1DF
:1003D000D96BD86BD76B010ED66FD9C314F1D8C3C4
:1003E00013F1D7C312F1D6C311F1DE6BDE510F0842
:1003F00005E300018CDF0301DE2BF8D7DAC300F040
:10040000DBC301F0DCC302F0DDC303F00001120026
:10041000C2CFCFF3C0CFD0F3D5CFD1F3D6CFD3F364
:10042000D7CFD2F3010EC26E3F0EC06E880ED56ECE
:100430000301C06BCA6BC96BC86BC76BC66BC56B5E
:10044000000165DF0301CE6BCD6B02C0CCF301C0B0
:10045000CBF3D76AD66AC2820400C2B2FED7D6CF27
:10046000C3F3D7CFC4F3000152DF02C0C2F301C00F
:10047000C1F30301C351C727C451C823000EC923C8
:10048000CA23CA530DE1C9514B0819E2FF0A08E11A
:10049000C8514A0814E2FF0A03E1C7513F080FE2BE
:1004A000000135DF01500301CB1B0250CC1B0001C2
:1004B0002EDF01500301CD1B0250CE1B37D0C3519C
:1004C000C55D04E1C451C65D01E1C3D7C351C55D3B
:1004D000006EC451C659036E0050C125D46F03503D
:1004E000C221D56FD96BD86BD76FD4C3D6F30001B7
:1004F0005EDFC4C3C6F3C3C3C5F3D8900301CB37D3
:10050000CC37CD37CE37000102DF02C0D5F301C0B2
:10051000D4F303010150800B006E036A00500310F6
:1005200001E0CB81C02B01E101D093D7CFC3C2FF43
:10053000D0C3C0FFD2C3D7FFD3C3D6FFD1C3D5FF2B
:10054000CBC300F0CCC301F0CDC302F0CEC303F0A7
:10055000000182EF0AF08B929E9604015851A00987
:10056000C96E9EA6FED79E96C9CF5AF459C4C9FF3C
:100570009EA6FED79E96C9CF5AF48B820001120028
:100580001E0E0401586F200E596F0001E4DF010EAA
:100590000301C26F00017FDE8B929E96C9689EA602
:1005A000FED79E96C9CFC1F38B82010E0301C26FA5
:1005B000000171DEC0EF03F08B929E9604015EC4D1
:1005C000C9FF9EA6FED79E96C9CF5FF4C96A9EA6B4
:1005D000FED79E96C9CF5FF48B825FC401F0000105
:1005E00012008B929E96040163514009C96E9EA62B
:1005F000FED79E96C9CF65F464C4C9FF9EA6FED7F8
:100600009E96C9CF65F48B82000112008B929E9654
:100610007A0EC96E9EA6FED79E96C9CF62F461C4BB
:10062000C9FF9EA6FED79E96C9CF62F48B821200A8
:100630008B929E96040158518009C96E9EA6FED7E2
:100640009E96C9CF5AF459C4C9FF9EA6FED79E965E
:10065000C9CF5AF48B82000112001F0E0401586F9B
:10066000030E596F000177DF040E0401456F420E3F
:10067000446F010E4425E96E000E4521EA6EEFCF6E
:1006800046F41F0E586F46C459F40001D1DF120022
:100690008B929E960301CDC3C9FF9EA6FED79E9660
:1006A000C9CFCEF3C96A9EA6FED79E96C9CFCEF318
:1006B000C96A9EA6FED79E96C9CFCEF38B82CEC3C3
:1006C00001F000011200020E0401436F140E426F8C
:1006D0000001C3DF140E0401636FC1C364F40001A1
:1006E00080DF030E0301C56FC20EC46FE96EC5C380
:1006F000EAFFEFCFC6F3160E0401636FC6C364F4BE
:1007000000016FDF030E0301C56FC20EC46F010E3F
:10071000C425E96E000EC521EA6EEFCFC6F3170EB1
:100720000401636FC6C364F400015BDF030E0401C0
:10073000436F0A0E426F000190DF0A0E0301CD6F76
:100740000001A6DF01C0C4F3000E030101B0010ED9
:10075000000AD8B402D00001F0D70401436B426B09
:1007600000017BDF12008B8294929496949A948875
:100770008B8094909E96200EC66EC78CC79E00D725
:100780001D0E04015E6F000117DF01C0C0F30301FD
:10079000C0A702D00001F3D7C051FF0A010BD8B4A3
:1007A00002D00001ECD701011085246B236B080EE9
:1007B0000401636F646B000114DF090E0401636FB1
:1007C000646B00010EDF0C0E0401636FD50E646FC5
:1007D000000107DF0D0E0401636F110E646F00014D
:1007E00000DF0A0E0401636FD50E646F0001F9DEAD
:1007F0000B0E0401636F110E646F0001F2DE040E34
:100800000401636FD60E646F0001EBDE050E040178
:10081000636F110E646F0001E4DE020E0401636F6A
:10082000D60E646F0001DDDE030E0401636F110E4E
:10083000646F0001D6DE0401616B0001E7DE020E89
:100840000401436F426B000108DF0401636B0D0E6E
:10085000646F0001C6DE020E0401636F320E646F26
:100860000001BFDE040E0401636F120E646F00010D
:10087000B8DE030E0401636F400E646F0001B1DE49
:10088000090E0401636F3F0E646F0001AADE060EBD
:100890000401636F120E646F0001A3DE070E0401F2
:1008A000636F0C0E646F00019CDE0A0E0401636F1F
:1008B000EE0E646F000195DE0B0E0401636F050EF2
:1008C000646F00018EDE030E0401436F040E426F5D
:1008D0000001C3DE040E0401636F50C064F4000124
:1008E00080DE050E0401636F51C064F4000179DEFF
:1008F000020E0401636F52C064F4000172DE030E45
:100900000401636F53C064F400016BDE0401636B88
:1009100054C064F4000165DE010E0401636F55C02C
:1009200064F400015EDE150E0401636F646B000168
:1009300058DE120E04015E6F00013EDE01C027F199
:10094000100E0301C16F010EC36FC26B0001BBDE4D
:10095000140E0301C16F340EC36F720EC26F00011B
:10096000B2DE0301C16BC36BC26B0001ACDE0401DC
:10097000436B426B000171DE1F0E0401586F040EC1
:10098000596F000155DE99EF0AF00301CB510608BB
:1009900001E23BD0CB51170DF350CD6BCC6F0C0E59
:1009A000CC25016E000ECD21036E0150570FE96E6C
:1009B000000E0320EA6EEC6AED52EF6ACB51170D80
:1009C000F350CD6BCC6F570ECC25E96E000ECD21C8
:1009D000EA6EEE52EE52EC6AED52EF6AED52EF6AB9
:1009E000ED52EF6ACB51170DF350CD6BCC6F0E0E5D
:1009F000CC25016E000ECD21036E0150570FE96E1C
:100A0000000E0320EA6E040EEF6E000112000301D7
:100A1000C06BC051060807E3C0C3CBF30001B5DFCC
:100A20000301C02BF6D701013A8300019BEF0AF0C6
:100A3000016603D0026602D007D0022A00C0EEFF92
:100A4000012EFCD7022EFAD712000301FE5101013C
:100A5000A15D01E14CD0A151FE081EE0A1511C0D89
:100A6000F350036A5E0F016E010E032201C000F411
:100A7000040103C001F4010E036FDE0E03C0EAFFA0
:100A800001C0E9FF03C4E2FFE16E1C0E016EE6CF78
:100A9000EEFF012EFCD70101FEC3A1F10301FE51BF
:100AA000FE0803E1010123D00301010E0401016FDF
:100AB000DE0E006F0301FE511C0DF350036A5E0F42
:100AC000016E010E032201C002F4040103C003F40D
:100AD00001C4EAFF00C4E9FF03C0E2FF01C0E1FF77
:100AE0001C0E016EE6CFEEFF012EFCD701010001C6
:100AF0001200020E04015E6F00015EDD01C04FF4C2
:100B0000030E04015E6F000157DD01C050F4040EB6
:100B10000401526F4D0E516FE96E52C4EAFFEFCFE0
:100B200053F4020E636F53C464F400015ADD040EE3
:100B30000401526F4D0E516F010E5125E96E000EEA
:100B40005221EA6EEFCF53F4030E636F53C464F483
:100B5000000147DD04014FC401F050C402F0000160
:100B600012008B929E967A0EC96E9EA6FED79E9616
:100B7000C9CF66F404016451651113E062C4E9FF52
:100B800063C4EAFFEFCFC9FF622BD8B4632B645173
:100B9000D8B4650764079EA6FED79E96C9CF66F4B3
:100BA000EAD78B820001120004015E6B000104DDB4
:100BB00001C04FF4010E04015E6F0001FDDC01C0B5
:100BC00050F4040E0401526F4D0E516FE96E52C481
:100BD000EAFFEFCF53F4636B53C464F4000101DD0B
:100BE000040E0401526F4D0E516F010E5125E96E36
:100BF000000E5221EA6EEFCF53F4010E636F53C41F
:100C000064F40001EEDC04014FC401F050C402F0B2
:100C1000000112008B929E963A0EC96E0401656B1C
:100C2000646B6051611104E06051D8B461076007E2
:100C30009EA6FED79E96C9CF66F46551635D1EE3FE
:100C400003E16251645D1AE2C96A642BD8B4652B72
:100C5000605161110DE0602BD8B4612B9EA6FED7C8
:100C60009E9660C4E9FF61C4EAFFC9CFEFFF05D0DB
:100C70009EA6FED79E96C9CF66F4DFD78B8264C44A
:100C800001F065C402F0000112008B929E963A0EAC
:100C9000C96E9EA6FED79E96C9CF58F4C96A9EA675
:100CA000FED79E96C9CF58F48B82040158C401F038
:100CB000000112000401579157934D3D12D04E3D53
:100CC00010D05781020E5E6F000176DC04014E6B7E
:100CD00001C04DF4030E5E6F00016EDC01C04EF4E6
:100CE00004014F3D11D0503D0FD057835E6B000182
:100CF00063DC0401506B01C04FF4010E5E6F000114
:100D00005BDC01C050F404015253D8A470D051519F
:100D10000108D8A06CD057B30DD05E6B00014CDC3D
:100D200001C053F4010E04015E6F000145DC01C0F7
:100D300054F4040157B10ED0020E5E6F00013CDC8A
:100D400001C055F4030E04015E6F000135DC01C0E3
:100D500056F40401636B4FC464F4000142DC010EDD
:100D60000401636F50C464F400013BDC020E040113
:100D7000636F4DC464F4000134DC030E0401636F3F
:100D80004EC464F400012DDC040152C403F051513F
:100D9000D8B452075107031009E0000176DF01C003
:100DA00058F401C061F432DCEFD7040157B30DD021
:100DB000636B53C464F4000114DC010E0401636F1F
:100DC00054C464F400010DDC040157B10FD0020ECD
:100DD000636F55C464F4000104DC030E0401636F07
:100DE00056C464F40001F1EC02F00401A9D057A14B
:100DF00016D051514D25556F52514E21566F020E4E
:100E0000636F55C464F40001F1EC02F0030E0401B9
:100E1000636F56C464F40001F1EC02F00401010EAA
:100E20004F5D006E000E5059036E00505127035065
:100E300052231F0E5E6F0001DCEC02F001C058F47B
:100E4000000E040101BA010E000AF3E1100E636FF7
:100E50004FC464F40001F1EC02F0110E0401636F61
:100E600050C464F40001F1EC02F0140E0401636F4D
:100E70004DC464F40001F1EC02F0150E0401636F3F
:100E80004EC464F40001F1EC02F004015051110869
:100E900010E303E14F51D5080CE35251100809E269
:100EA000FF0A03E15151D50804E2D60E515F110E3D
:100EB000525B120E636F51C464F40001F1EC02F056
:100EC000130E0401636F52C464F40001F1EC02F0EC
:100ED0001F0E0401586F100E596F0001ABEC02F0A9
:100EE0001F0E0401586F200E596F000118EC03F01B
:100EF000040157A325D0512BD8B4522B50511108BF
:100F000010E303E14F51D5080CE35251100809E2F8
:100F1000FF0A03E15151D50804E2D60E515F110ECC
:100F2000525B636B51C464F40001F1EC02F0010EFA
:100F30000401636F52C464F40001F1EC02F0040197
:100F4000000112001F0E04015E6F0001DCEC02F0D4
:100F500001C04DF4000E040101BA010E000A02E0C6
:100F6000000E01D0010E016E0001120004014A5171
:100F7000010A000103E0010A3AE06AD00401475186
:100F8000010A000103E0010A1AE030D046C4EAFF7A
:100F900045C4E9FF49C4E2FF48C4E1FF4CC402F084
:100FA0004BC401F0015202E0022A02D0025206E0D4
:100FB000E6CFEEFF012EFCD7022EFAD717D00401A0
:100FC000453D03D0463D01D007D046C44EF445C44C
:100FD0004DF400018EDD040149C463F448C462F499
:100FE0004CC465F44BC464F40001BBDD31D0040192
:100FF0004751010A000103E0010A19E028D0040169
:10100000483D03D0493D01D007D049C44EF448C4FF
:101010004DF40001C9DD040146C461F445C460F427
:101020004CC463F44BC462F40001F4DD10D046C438
:101030004EF445C44DF449C450F448C44FF44CC474
:1010400052F44BC451F436DE7DDF0152FDE000D096
:1010500012000101A151FA5D01E165D0FA51FE08CB
:101060003FE0FA511C0DF35004013F6B3E6F5E0EE2
:101070003E25E96E010E3F21EA6EECCF41F4ED52C0
:10108000EFCF40F4270E405F000E415B0101FA51A3
:101090001C0DF3500401436B426F1B0E4225016E81
:1010A000000E4321036E01505E0FE96E010E032016
:1010B000EA6EEFCF42F4010E446F7A0E436F41C4E3
:1010C00046F440C445F442C447F444C449F4486F6C
:1010D000010E4A6F4C6B270E4B6F000147DF010179
:1010E000A1C1FAF1010E04013F6F7A0E3E6F270E87
:1010F0000101DE5D0401406F000E0101DF590401B2
:10110000416F3FC446F43EC445F4010E476F41C4ED
:1011100049F440C448F4F9C14AF44C6B270E4B6FB4
:10112000000124DF01010001120093DF8BC1F8F1FF
:101130008AC1F7F1DFC1E5F1DEC1E4F1DFC1E7F11A
:10114000DEC1E6F1E1C1E9F1E0C1E8F1E1C1EBF1B5
:10115000E0C1EAF10101F5A702D0040E01D00D0EA5
:10116000F46FF80EF515F56FF599F59BF59DF59F64
:10117000F691F693F695F697F6899C919C939C9739
:101180009C99DFC187F1DEC186F1010E0401156F64
:101190007E0E146F016E15C403F0166F15C417F49C
:1011A000000187EC01F017C4EAFF16C4E9FF02C092
:1011B000ECFFED5201C0EFFF010E0401156F7E0E32
:1011C000146F020E1425016E000E1521036E01C06E
:1011D00016F4176F000187EC01F017C4EAFF16C47C
:1011E000E9FF02C0ECFFED5201C0EFFF01019B6976
:1011F0009A698D6B010E8C6F00011200170E0301AE
:10120000CA6FC80EC96F010ECC6FA20ECB6FCCC3D4
:10121000EAFFE96E006A026A3C0E016E000108DC1A
:101220000301C16BC06BC053D8A4B3D0C0C3FEF3DD
:1012300000010BDC0301C051060DF350CC6BCB6FEA
:10124000010ECB25016E000ECC21036E01501D0F47
:10125000E96E000E0320EA6EEFCFC8F3C051060D11
:10126000F350CC6BCB6F020ECB25016E000ECC2160
:10127000036E01501D0FE96E000E0320EA6EECCFE5
:10128000C3F3ED52EFCFC2F3C051060DF350CC6B58
:10129000CB6F040ECB25016E000ECC21036E0150E6
:1012A0001D0FE96E000E0320EA6EECCFC5F3ED5280
:1012B000EFCFC4F3C851000A000101E027D0CAC330
:1012C000C7F3C9C3C6F3270E0301C225CB6F000EB7
:1012D000C321CC6F010ECB27000ECC23C451CB27EA
:1012E000C551CC23010ECB25016E000ECC21036E1F
:1012F0000150C9270350CA23CA511E0805E2FF0A3C
:10130000FBE1C951FC08F8E303D00001FFD703015A
:10131000C8C3F9F1270EC6250101DE6F000E0301D7
:10132000C7210101DF6F0301C2510101DE25030165
:10133000CB6FC3510101DF210301CC6F010ECB251F
:101340000101E06F000E0301CC210101E16F0301F7
:10135000C4510101E025E26F0301C5510101E12102
:10136000E36F0D0EF46FF597000173DE0301C051BA
:10137000060DF350CC6BCB6F1D0ECB25E96E000E26
:10138000CC21EA6EEFCFA0F10001CFDE0301C02B2C
:101390004AD700019CEF0AF0010110B90BD0108967
:1013A0000301CA6BCA5305E1010142690301CA2B5B
:1013B000F9D70101423D01D007D042C1CBF3000172
:1013C000C5EC04F001014269010E436F446B44898E
:1013D0004483000112000101423D01D007D042C107
:1013E000CBF30001C5EC04F001014269436B00013D
:1013F000A6EF0AF00301CB6BCB5333E1CBC3FEF373
:10140000000125EC05F00101F4510D0801E026D0A2
:1014100000011FDE0301CA510101A05D01E01ED0E1
:10142000020E9E6F180E9D6F0301C7530EE1C9C3D4
:101430008BF1C8C38AF10101F587040EF46FC9C3AB
:10144000F8F1C8C3F7F105D00301FE0E016E0BD011
:1014500001010301CBC301F006D001010301CB2B35
:10146000CBD7FE0E016E00015BEF0AF00301C06BEB
:10147000C0BF03D0C05100083AE3036AC0510F0F48
:10148000E96E020E0320EA6EEF68036AC0510E0F88
:10149000016E020E032201C0C1F303C0C2F3C66B8A
:1014A000C56BC46BC36BC76BC96B500EC86F080E9E
:1014B000CA6F00019FD7C2C3EAFFC1C3E9FF01C0E1
:1014C000EFFF036A0301C0510E0FE96E020E032005
:1014D000EA6EEF50FE0809E0036AC0510F0FE96E93
:1014E000020E0320EA6E010EEF6EC02BC1D7000181
:1014F000A7EF0AF00101056B4F8E10B117D0000164
:1015000008EF02F003C0C3F302C0C2F301C0C1F38D
:1015100000C0C0F303C0D9F302C0D8F301C0D7F3B1
:1015200000C0D6F3D7EC01F0010110810001B3EF48
:1015300003F007EF05F062D60301C96B00012CDF51
:101540004FBC04D00301C06B000145D78FD761EFBA
:1015500054F0020E0401436F140E426F00012DEC93
:1015600003F0140E0401636FCAC364F40001F1ECCC
:1015700002F0120E0401636F010E646F0001F1ECC2
:1015800002F0030E0401436F0A0E426F00012DECBE
:1015900003F00A0E0301CD6F000148EC03F001C017
:1015A000CDF3000E030101B0010E000AD8B402D041
:1015B0000001EFD7020E0401436F140E426F0001C9
:1015C0002DEC03F0120E0401636F646B0001F1EC6B
:1015D00002F0180E0301CD6F000148EC03F001C0CA
:1015E000CBF3190E0301CD6F000148EC03F001C0ED
:1015F000CCF30401436B426B00012DEC03F00301BB
:10160000CBC301F0CCC302F000010CEF0BF0010ED4
:101610000301CA6F00019DD701C0CAF3000E030188
:1016200001B4010E016E000112000301D56B570ECB
:10163000D46FD36BD3510608D8A0A1D00C0ED425FB
:10164000E96E000ED521EA6EECCFD7F3ED52EFCF65
:10165000D6F3D653D8A48DD0D753D8A48AD00C0EA5
:10166000D425E96E000ED521EA6ED0C3ECFFED5211
:10167000CFC3EFFFCF5323E1D05321E101013D510F
:101680001F0805E2FF0A06E13C51000803E33D5153
:101690000F0803E3100E3D6F3C6B0C0E0301D425C5
:1016A000E96E000ED521EA6E01013DC103F03C5107
:1016B0003C2BD8B43D2BEF6E03C0ECFF0301CE539F
:1016C00008E0CA5321E1CB531FE1CC531DE1CD53B8
:1016D0001BE1D5C303F0D4C3D6F3D5C3D7F3D5C329
:1016E000EAFFD4C3E9FF0068026A0A0E016E000136
:1016F00018EC05F00E0E0301D425E96E000ED5217D
:10170000EA6E050EEF6E25D0CE51040A000101E00D
:101710001FD00301D5C303F0D4C3D6F3D5C3D7F389
:10172000D5C3EAFFD4C3E9FFCBC3E2FFCAC3E1FFDD
:101730000A0E016EE6CFEEFF012EFCD70E0ED42569
:10174000E96E000ED521EA6E050EEF6E02D00001A3
:1017500003010A0ED425E96E000ED521EA6ED2C32C
:10176000ECFFED52D1C3EFFFD3C356F0D3C301F06A
:1017700008D0170ED427D8B0D52BD32B5BD7FF0EAC
:10178000016E000112001F0E04015E6F0001DCEC0F
:1017900002F001C03EF4000E040101B6010E000A81
:1017A00002E0000E01D0010E016E00011200080ED1
:1017B0000301CB25CD6F000ECC21CE6FD70ECD27E8
:1017C000110ECE230E0ECD27000ECE23140ECD27E4
:1017D000000ECE23CEC34EF4CDC34DF4000179EC00
:1017E00005F0CCC337F1CBC336F10DEF0CF0CBDFF6
:1017F000015204E1000E016E026E1DD00301CA51B8
:101800000101355D0BE0CAC335F10001F96BF86BDE
:101810000301CC6BCB6B0001CAD70101CAC356F0E0
:10182000C00ED8800001F855006E050EF955036E04
:1018300000C001F0026E120004012C6B2D6B010E32
:101840002E6FDA6AD96A040E316F240E306F040EDF
:10185000EA6E280EE96E31C4E2FF30C4E1FF2EC407
:101860002FF4D890E550EE02F3502C23F4502D23A2
:101870002F2FF7D72CC4DEFF2DC42CF42D6BD8B03E
:101880002D2B302BD8B4312B2E2B2E510508DFE118
:1018900000011200016A026A006A036A0301D95159
:1018A00002E1D85118E0100EDA6FD890D637D7374A
:1018B00000360336D951035C02E1D851005C07E3DE
:1018C000D851005ED8A00306D951035ED8800136F6
:1018D0000236DA2FEAD70001A1EF0CF01CC027F482
:1018E0001BC026F41AC025F419C024F4410E0401CB
:1018F0002B6FC60E2A6F4E0E296F6D0E286F0001DA
:101900009BDF390E03010024196E300E01201A6E80
:10191000000E02201B6E000E03201C6E1BC000F088
:101920001CC001F0026A036A1CC0D5F31BC0D4F3CB
:101930001CC0D7F31BC0D6F37F0ED96FD869000146
:10194000A9D700C001F003C002F012000101375115
:10195000040808E2FF0A03E13651BF0803E2000E63
:10196000016E1DD0D3C361F4000106EC03F0010148
:10197000362BD8B4372B0001F9510101375D0DE347
:1019800008E136510001F85DD8A002D0010105D070
:10199000010137C1F9F036C1F8F0010E016E000106
:1019A0001200C00ED880010136550301D76F050E15
:1019B000010137550301D86FD851D65D08E303E123
:1019C000D551D75D04E2D8C3D6F3D7C3D5F3D551EB
:1019D000010136270301D651010137230001F951D6
:1019E0000101375D0DE308E136510001F85DD8A033
:1019F00002D0010105D0010137C1F9F036C1F8F07C
:101A0000D4C363F4D3C362F4D6C365F4D5C364F41A
:101A10000001B1EC05F00301D5C301F0D6C302F01B
:101A2000000112005EC460F45DC45FF460C461F440
:101A30005FC460F461C45FF404015FC401F060C47A
:101A400002F000011200020E04015725016E000E83
:101A50005821036E01C059F45A6F020E5725E96EE2
:101A6000000E5821EA6EECCF5CF4ED52EFCF5BF440
:101A70005CC45EF45BC45DF40001D4DF5AC4EAFFC9
:101A800059C4E9FF02C0ECFFED5201C0EFFF040EA4
:101A900004015725016E000E5821036E01C059F450
:101AA0005A6F040E5725E96E000E5821EA6EECCFEE
:101AB0005CF4ED52EFCF5BF45CC45EF45BC45DF4A8
:101AC0000001B0DF5AC4EAFF59C4E9FF02C0ECFFCD
:101AD000ED5201C0EFFF0A0E04015725016E000E02
:101AE0005821036E01C059F45A6F0A0E5725E96E4A
:101AF000000E5821EA6EECCF5CF4ED52EFCF5BF4B0
:101B00005CC45EF45BC45DF400018CDF5AC4EAFF80
:101B100059C4E9FF02C0ECFFED5201C0EFFF120013
:101B2000D89004015C315E6F5B315D6F5AC460F424
:101B300059C45FF4646B636B626B616B5EC403F0EA
:101B40005D51D8B45E075D0703101EE060C403F06A
:101B50005FC400F0020E5F27D8B0602B00C0E9FF21
:101B600003C0EAFFECCF03F0ED52EFCF00F003C06B
:101B700001F0026A036A005061270150622302509B
:101B8000632303506423DAD75B51010B006E036AB1
:101B90000050031013E060C403F05FC4E9FF60C4A9
:101BA000EAFFEFCF00F0016A026A036A0050612782
:101BB000015062230250632303506423686B676BF8
:101BC00062C466F461C465F463C400F064C401F0E7
:101BD000026A036A63516125616F64516221626F19
:101BE00002506721636F03506821646F635161275E
:101BF0006451622362C403F0031E6151FF0A016E47
:101C000003C002F000011200020E0401636FD70E40
:101C1000646F0001F1EC02F0030E0401636F110E1A
:101C2000646F0001F1EC02F0E40E04015E27110E76
:101C30005F23040E616F5E0E606FE96E61C4EAFFA0
:101C4000EFCF62F4060E636F62C464F40001F1EC3E
:101C500002F0040E0401616F5E0E606F010E6025DC
:101C6000E96E000E6121EA6EEFCF62F4070E636F3A
:101C700062C464F40001F1EC02F05CC463F45BC480
:101C800062F40401656B060E646F0001B1EC05F0AF
:101C90000401616B500E606F61C463F4626F656B29
:101CA000060E646F0001B1EC05F0080E0401616FCF
:101CB000000106EC03F004015D5302E1000E01D0C7
:101CC000060E606F616F000106EC03F01200140E47
:101CD00001012A6F450E0401436F446B140E412528
:101CE000456F000E4221466F0101282BD8B4292BE5
:101CF00029C148F428C147F404014A6B496B640EBA
:101D00004B6F40C44CF44E6B4D6B26C052F425C053
:101D100051F424C050F423C04FF43EC4E9FF3FC443
:101D2000EAFFEFCF53F4ECCF54F4ECCF55F4ECCF03
:101D300056F4040E586F430E576F000184DE040EF4
:101D40000401586F430E576F58C45AF4596F5C6BB7
:101D5000140E5B6F0001E4DE02C04EF401C04DF4CE
:101D6000040E04013E25016E000E3F21036E01C0EA
:101D700057F4586F140E4125596F000E42215A6FC7
:101D800003C05CF401C05BF45D6B5F6F59C45EF42B
:101D900000013ADF040E0401586F430E576F58C418
:101DA00063F4626F656B140E646F0001B1EC05F0B3
:101DB000000E016E026E12001F0E0401586F800E9D
:101DC000596F000118EC03F01F0E0401586F800ECC
:101DD000596F0001ABEC02F01C0E0401586F0A0EA3
:101DE000596F0001ABEC02F01F0E0401586F080E92
:101DF000596F000118EC03F001012751050804E0B8
:101E000027510608D8A4F2D004013F6B3E6B1C0E8C
:101E10005E6F0001DCEC02F001C04CF404010150E3
:101E20000A0B0AE13E2BD8B43F2B3F51030804E3D1
:101E3000EEE13E51E708EBE21C0E5E6F0001DCECC8
:101E400002F001C04CF4000E040101B2010E000AC0
:101E50000AE13F510208D8B0C8D0FF0A04E13E5160
:101E6000E708D8B0C2D01F0E586F080E596F000196
:101E7000ABEC02F004015E6B0001DCEC02F001C08F
:101E800040F4010E04015E6F0001DCEC02F001C0C1
:101E900041F4060E04015E6F0001DCEC02F001C0AB
:101EA00042F4070E04015E6F0001DCEC02F001C099
:101EB00043F40401422BD8B4432B636B42C464F453
:101EC0000001F1EC02F0010E0401636F43C464F4FD
:101ED0000001F1EC02F0040E04014D6F440E4C6F52
:101EE0004DC461F4606F636B070E626F00010AEC12
:101EF00006F004014B6B4B510F0868E31C0E5E6F3C
:101F00000001DCEC02F001C04CF4000E040101B24F
:101F1000010E000A56E047AB54D01F0E586F800EDA
:101F2000596F000118EC03F01F0E0401586F800E6A
:101F3000596F0001ABEC02F01C0E0401586F0A0E41
:101F4000596F0001ABEC02F01F0E0401586F080E30
:101F5000596F000118EC03F01C0E04015E6F0001C4
:101F6000DCEC02F001C04CF4040101500A0BD8A4CF
:101F700002D00001F1D71F0E586F080E596F0001F3
:101F8000ABEC02F00401636B42C464F40001F1ECB9
:101F900002F0010E0401636F43C464F40001F1EC2C
:101FA00002F0040E04014D6F440E4C6F4DC461F4F9
:101FB000606F636B070E626F00010AEC06F003D0DE
:101FC000040104D0000104014B2B95D7636B40C47E
:101FD00064F40001F1EC02F0010E0401636F41C4EE
:101FE00064F40001F1EC02F00401010100011200AF
:101FF0005650170DF350036A570F016E000E03225F
:1020000001C0D9F3030103C0DAF3080E0001F8257B
:102010000301DB6F000E0001F9210301DC6F0C0EE0
:10202000D925E96E000EDA21EA6EECCFDEF3ED522F
:10203000EFCFDDF3DEC35EF4DDC35DF40001F2DC5F
:1020400002C0D2F301C0D1F30A0E0301D925E96E13
:10205000000EDA21EA6EECCFDEF3ED52EFCFDDF3C6
:10206000DEC35EF4DDC35DF40001DCDC02C0D4F34A
:1020700001C0D3F3DCC35EF4DBC35DF4D3DC02C088
:10208000D6F301C0D5F30301D86BD76B110E040151
:102090004E6FE50E4D6F000179EC05F0D9C301F0EC
:1020A000DAC303F0D9C3DDF3DAC3DEF3DAC33FF4F6
:1020B000D9C33EF4110E0401406FDCC342F4DBC30C
:1020C00041F4000104DE030E0301DE6FD10EDD6F6B
:1020D000DEC363F4E8CF62F40401656B080E646F3D
:1020E0000001B1EC05F068DEF96BF86B01013569B0
:1020F0000001ECEF11F00301CA2D12D000016EECCB
:102100000CF002C0D2F301C0D1F36EEC0CF0D1C3DD
:1021100040F1D2C341F101C03EF102C03FF10301E1
:10212000010ED36F000112DC010E0301D36F000119
:102130000DDC060E0301D36F000108DC0301D36B35
:10214000000104DC3EC1D1F33EC1D3F3A6EC0CF098
:102150003FC1D1F33FC1D3F3A6EC0CF040C1D1F3A2
:1021600040C1D3F3A6EC0CF041C1D1F341C1D3F38C
:10217000A6EC0CF00301D36B0001A6EC0CF00301FC
:10218000D36B0001A6EC0CF0010144A902D0000EB3
:1021900001D0800E0301D16FD36F0001A6EC0CF0CB
:1021A0000301D36B0001A6EC0CF00301CA51030834
:1021B00011E1CB530FE0010ED26F510ED16FD2C39C
:1021C000D4F3D36FD66B040ED56F0001D1EC0CF0B5
:1021D00014D00301D36B0001A6EC0CF00301D36B08
:1021E0000001A6EC0CF00301D36B0001A6EC0CF08F
:1021F0000301D36B0001A6EC0CF00301CC6BCC51B6
:102200000B0807E3D36B0001A6EC0CF00301CC2B09
:10221000F6D7D26B500ED16FD2C3D4F3D36FD66B37
:10222000060ED56F0001D1EC0CF00301CC6BCC5144
:10223000C90807E3D36B0001A6EC0CF00301CC2B1B
:10224000F6D7630ED36F0001A6EC0CF0820E0301EB
:10225000D36F0001A6EC0CF0530E0301D36F000105
:10226000A6EC0CF0630E0301D36F0001A6EC0CF09A
:10227000350E0301D36F0001A6EC0CF0010E030133
:10228000D36F0001A6EC0CF0CAC3D3F3A6EC0CF09C
:102290000301CA2D03D0010144950301CA5103086B
:1022A0001EE1CB531CE1360ED36F0001A6EC0CF0FF
:1022B000040E0301D36F0001A6EC0CF050C1D3F360
:1022C000A6EC0CF04FC1D3F3A6EC0CF04EC1D3F347
:1022D000A6EC0CF04DC1D3F3A6EC0CF00301370EC5
:1022E000D36F0001A6EC0CF0040E0301D36F0001C4
:1022F000A6EC0CF0010E0301D36F0001A6EC0CF06C
:10230000030E0301D36F0001A6EC0CF0060E0301CF
:10231000D36F0001A6EC0CF00C0E0301D36F00018B
:10232000A6EC0CF00301CA51030802E1CB5318E0FC
:10233000CA2D30D001015153D8B402D0030110D0BE
:102340005253D8B402D003010BD05353D8B402D0A7
:10235000030106D05453D8A402D003011BD00301BB
:10236000320ED36F0001A6EC0CF0040E0301D36F04
:102370000001A6EC0CF0010E0301D26F510ED16FDB
:10238000D2C3D4F3D36FD66B040ED56F0001D1EC5A
:102390000CF00301D3690001A6EC0CF0F95101081F
:1023A0000AE303E1F8512B0806E30301D36B0001B4
:1023B000A6EC0CF0F3D726C0D0F325C0CFF324C091
:1023C000CEF323C0CDF30301CB5304E1266A256A83
:1023D000246A236A00010CD6D0C326F0CFC325F0AF
:1023E000CEC324F0CDC323F01200F28A0000F29A8B
:1023F000D6CF1DF1D7CF1EF1010E04013F6F1F0E86
:10240000E96E3FC4EAFF19C1EFFF1AC1ECFF1BC11F
:10241000ECFF1CC1ECFFF2A402D00001E6D7F28A67
:1024200000011200E2DF010E04013F6F1D0E3FC4E8
:1024300003F0E96E3FC4EAFFEFCF00F0ECCF01F00C
:10244000ECCF02F0ECCF03F000011200140E0101FA
:1024500025250401206F000E010126210401216FB2
:102460001C5120251E6F1D5121211F6F1F51100867
:1024700009E2FF0A03E11E51D50804E2D60E1E5FF1
:10248000110E1F5B636B1EC464F40001F1EC02F0DB
:10249000010E0401636F1FC464F40001F1EC02F04B
:1024A000120001012A51040118251A6F000E19218A
:1024B0001B6F1D6F1AC41CF40001C8DF1200080E48
:1024C0000301D725D96F000ED821DA6FE8CF19F4B0
:1024D000D9C318F40001E5DFD8C339F1D7C338F107
:1024E0001200CAC356F00301CA5101013B5D04E06A
:1024F000000E016E026E16D03AA107D03A91030188
:10250000D86BD76B0001DBDF010138510001FA5DA8
:10251000006E010139510001FB59036E00C001F04A
:10252000026E010100011200FB510101395D06E359
:1025300008E10001FA510101385D03E256503B5DAC
:1025400003E0000E016E15D0DAC303F0D9C3DBF34C
:10255000DAC3DCF3000145EC06F0DCC3EAFFDBC3C1
:10256000E9FF01C0EFFF0101382BD8B4392B010E70
:10257000016E00011200FB510101395D06E308E123
:102580000001FA510101385D03E256503B5D04E061
:10259000000E016E026E33D038510001FA5D030166
:1025A000DD6F010139510001FB590301DE6FDE517E
:1025B000DC5D08E303E1DB51DD5D04E2DEC3DCF357
:1025C000DDC3DBF3DAC361F4D9C360F4DCC363F4C5
:1025D000DBC362F400010AEC06F002C0DCF301C0C8
:1025E000DBF30301DB51010138270301DC51010159
:1025F00039230301DBC301F0DCC302F00101000158
:102600001200010110A501D02FD01085010E235D0D
:102610000301F46F000E010124590301F56FF55118
:10262000100809E2FF0A03E1F451D50804E2110E93
:10263000F56FD50EF46F1E0E0401586F400E596FE2
:10264000000118EC03F00C0E0401636FF4C364F492
:102650000001F1EC02F00D0E0401636FF5C364F4A8
:102660000001F1EC02F001010001120001013AB396
:1026700007D00001C6DFFB6BFA6B01013B693A83AF
:10268000000112000301CD6B030EDA6FCA0ED96F81
:1026900000014ADF0301CA510208D8A4BFD1D86B98
:1026A000040ED76F00010BDF030E0301DA6FD30EA8
:1026B000D96FDC6B040EDB6F00015DDF01013E5161
:1026C0000301D35D0FE101013F510301D45D0AE134
:1026D000010140510301D55D05E1010141510301B3
:1026E000D65D01E0C6D1D86B1C0ED76F0001E7DEC6
:1026F0000301CB6BCB51050814E3030EDA6FCA0E4E
:10270000D96F000111DF036A0301CB51500FE96E4D
:10271000000E0320EA6EEF50CA5D01E0AAD1CB2B78
:10272000E9D7010144B515D00301D86B100ED76F5E
:102730000001C5DE010E0301D86F510ED76FD8C35B
:10274000DAF3D96FDC6B040EDB6F000114DF0101DB
:102750005D810301D86BF00ED76F0001B0DE03017D
:10276000CE91030EDA6FCA0ED96F0001DDDE015281
:1027700004E10301CE8152D100010301CA51350A9F
:1027800000010EE0340A2DE0020A5DE0350AD8B4FB
:102790009AD0C90AD8B4C3D0CC0AD8B4C4D026D1F0
:1027A000030E0301DA6FCA0ED96F0001BDDE03010B
:1027B000CA2D14D0030EDA6FCD0ED96F0001B4DE2E
:1027C000010144A509D00301CD510208D8B402D0BB
:1027D000010102D04ED1010103D003014AD1010110
:1027E0001AD1030E0301DA6FCA0ED96F00019CDE05
:1027F0000301CA51040824E1010144A510D00301DA
:10280000CB6BCB51030809E3030EDA6FCA0ED96F05
:1028100000018ADE0301CB2BF4D711D00101010E98
:102820000301D86F590ED76FD8C3DAF3D96FDC6BB9
:10283000040EDB6F00019FDE01015D85030101D005
:1028400018D10101E8D0030E0301DA6FCC0ED96F65
:1028500000016ADE0301CC51030824E2010144A512
:1028600010D00301CB6BCB51030809E3030EDA6FE1
:10287000CA0ED96F000158DE0301CB2BF4D711D05B
:102880000101010E0301D86F550ED76FD8C3DAF3DB
:10289000D96FDC6B040EDB6F00016DDE01015D831F
:1028A000030101D0E6D0040ECC5FCC51CC07000A66
:1028B00008E0030EDA6FCA0ED96F000135DE03019E
:1028C000F4D70101A8D0030E0301DA6FCA0ED96F45
:1028D00000012ADE0301CA5104081DE1030EDA6F6C
:1028E000D20ED96F000120DE030E0301DA6FD10E84
:1028F000D96F000119DE030E0301DA6FD00ED96F14
:10290000000112DE030E0301DA6FCF0ED96F000152
:102910000BDE03D00301ADD0000101017CD0030127
:10292000CE81010178D0030E0301DA6FCA0ED96F90
:102930000001FADD0301CA51040854E1010144A574
:1029400010D00301CB6BCB51030809E3030EDA6F00
:10295000CA0ED96F0001E8DD0301CB2BF4D741D0BB
:102960000101010E0301DA6F4C0ED96F0001DCDDAD
:10297000010E0301DA6F4B0ED96F0001D5DD010E98
:102980000301DA6F4A0ED96F0001CEDD010E03019B
:10299000DA6F490ED96F0001C7DD01014C31036EBA
:1029A0004B31026E4A31016E4931006E0332023200
:1029B000013200320332023201320032033202327B
:1029C000013200320332023201320032070E0316A6
:1029D0000050495F01504A5B02504B5B03504C5B17
:1029E000030101D046D0010116D00001030E0301FE
:1029F000DA6FCC0ED96F000197DD0301CC51CC0703
:102A0000000A08E0030EDA6FCA0ED96F00018CDDF0
:102A1000F4D7030101010301CEA1A3D6CD510208D1
:102A20000CE1D2C350F1D1C34FF1D0C34EF1CFC3AB
:102A30004DF10101448517D00301CF5101014D5DD6
:102A40000FE10301D05101014E5D0AE10301D151B3
:102A500001014F5D05E10301D2510101505D03E029
:102A60000301CD6B0101000101DE0301CDC301F0C3
:102A700005D00001FBDD000E016E03010001120014
:102A80000301C96BC953D8A479D201014351F30F93
:102A9000D8B071D20D0F0001C1EF17F001016BD258
:102AA0000301CD6BCC6BCB6BCA6BCE6BD06B440E82
:102AB000CF6FD26B430ED16F000115EC0BF001C04C
:102AC00042F10101423D01D056D2020E436F000196
:102AD00001014C6B4B6B4A6B3C0E496F5D6B449133
:102AE0004495000107EC0BF0015203E1010143D2D0
:102AF000000142C1CAF3F7EC0BF002C0CBF301C0F6
:102B0000CAF303010250010807E303E1CA512B088D
:102B100003E3010130D20301006A010144B9002A34
:102B2000010E001A449900B044894251170DF35028
:102B30000301CB6BCA6F570ECA25016E000ECB2165
:102B4000036E01C0CCF3CD6FEA6E01C0E9FF0068EF
:102B5000026A0A0E016E000118EC05F0010E030175
:102B6000CA6FCB6B00017BEC10F05CDC03C048F15A
:102B700002C047F101C046F100C045F1030E01015A
:102B8000436FF9D142C1CAF3ACDC02C0CBF301C040
:102B9000CAF30301CB5332E1CA51F9082FE3000114
:102BA00041DC03C0CDF302C0CCF301C0CBF300C0C5
:102BB000CAF3010145510301CA5F010146510301F6
:102BC000CB5B010147510301CC5B0101485103017B
:102BD000CD5B0DE1CC5100080EE2FF0A08E1CB51BC
:102BE0007C0809E2FF0A03E1CA51760804E2020EFA
:102BF0000101436F03010101BED1030101014487BB
:102C0000000140DD0150020803E00101B4D10001E0
:102C1000040E0101436F000142C1CAF3F7EC0BF04F
:102C200002C0CBF301C0CAF303010250010807E35D
:102C300003E1CA51010803E301019DD10301010130
:102C40004251170DF3500301CB6BCA6F570ECA25C3
:102C5000016E000ECB21036E01C0CCF3CD6FEA6E86
:102C600001C0E9FF0068026A0A0E016E000118EC5B
:102C700005F0030E0301CA6FCB6B00017BEC10F073
:102C800012EC12F003C048F102C047F101C046F156
:102C900000C045F1050E0101436F6DD142C1CAF379
:102CA00020DC02C0CBF301C0CAF30301CB5333E1F4
:102CB000CA51F90830E3000112EC12F003C0CDF361
:102CC00002C0CCF301C0CBF300C0CAF301014551EF
:102CD0000301CA5F010146510301CB5B010147516A
:102CE0000301CC5B010148510301CD5B0DE1CC51E7
:102CF00000080EE2FF0A08E1CB517C0809E2FF0A56
:102D000003E1CA51760804E2020E0101436F030198
:102D1000010131D103010001B5DC0150050A03E0D6
:102D2000030A37E03AD042C1CBF3C5EC04F001010D
:102D30004269000112EC12F003C048F102C047F1F1
:102D400001C046F100C045F1060E0101436F448306
:102D500044815DA108D054C126F053C125F052C171
:102D600024F051C123F05DA508D05CC12AF05BC1FD
:102D700029F05AC128F059C127F05DA308D058C1E5
:102D80002EF057C12DF056C12CF055C12BF000018B
:102D900004D0020E0101436F00010101ECD012ECDE
:102DA00012F003C0CDF302C0CCF301C0CBF300C0DE
:102DB000CAF3010145510301CA5F010146510301F4
:102DC000CB5B010147510301CC5B01014851030179
:102DD000CD5B0CE1CC530AE1CB514C0807E303E196
:102DE000CA514A0803E30101C6D0030101014C5353
:102DF00007E14B5305E14A5303E14951010810E251
:102E00004B0E45274C0E4623000E47234823FF0E4A
:102E10004927D8A04A27D8A04B27D8A04C27ABD009
:102E20000301CD6BCC6BCB6BCA6BCE6BD06B440EFE
:102E3000CF6FD26B430ED16F000115EC0BF001C0C8
:102E400042F10101423D01D096D0070E436F0001CF
:102E500042C1CAF3F7EC0BF002C0CBF301C0CAF3D6
:102E600003010250010807E303E1CA51010803E32B
:102E7000010181D00301030ECA6F010ECB6F000167
:102E80007BEC10F001014495000112EC12F003C03C
:102E900048F102C047F101C046F100C045F101010F
:102EA000432B69D042C1CAF371EC12F002C0CBF3DC
:102EB00001C0CAF30301CB5337E1CA51F90834E327
:102EC000000112EC12F003C0CDF302C0CCF301C03C
:102ED000CBF300C0CAF3010145510301CA5F0101F0
:102EE00046510301CB5B010147510301CC5B01015A
:102EF00048510301CD5B0DE1CC51000812E2FF0AFD
:102F000008E1CB517C080DE2FF0A03E1CA517608C3
:102F100008E20101432B43510C0802E2020E436F09
:102F20000301010128D00301000142EC13F001501C
:102F3000050A03E0030A18E01BD042C1CBF3C5EC3D
:102F400004F001014269000112EC12F003C048F1E3
:102F500002C047F101C046F100C045F1060E010173
:102F6000436F4483000104D0020E0101436F00014E
:102F7000010101D001010301C92B84D5000117EF24
:102F800036F0F2CF0DF0F29EE824F76AF736AD0F77
:102F9000F66E2F0EF722000EF86EFB6E0A00F5504B
:102FA000FA6E0800F5500DBEF28EF96E9C2AA02A2A
:102FB000D02A842B182C9C2C9E2D502EA42E502EC3
:102FC000A42E502EA42E000E010144B1010E016E5C
:102FD00000011CEF36F0F5EC11F01EC114F41FC116
:102FE00015F420C116F421C117F414C400F015C45F
:102FF00001F016C402F017C403F012000301FE51E1
:1030000004010003F3CF01F0F4CF00F00103F3500B
:1030100000260301FF5104010003F3500020026E5B
:1030200000011200010E0401436F190E426F0001EE
:103030002DEC03F0190E04015E6F0001DCEC02F0D0
:1030400001C03EF40401436B0E0E426F00012DECF3
:1030500003F00E0E04015E6F0001DCEC02F001C013
:1030600040F40F0E04015E6F0001DCEC02F001C0C1
:1030700041F4010E0401436F190E426F00012DEC63
:1030800003F0190E04015E6F0001DCEC02F001C0D8
:1030900042F404013E51015CD8B402D00001CAD709
:1030A000436B0C0E426F00012DEC03F00C0E04017B
:1030B0005E6F0001DCEC02F001C03EF40D0E040175
:1030C0005E6F0001DCEC02F001C03FF404013F51EF
:1030D000415D16E303E140513E5D12E23E51405D29
:1030E000006E3F514159036E0050FF0AD60F006E2B
:1030F000110E035600C001F003C002F01CD01BD01B
:103100003E51405D09E13F51415D06E1D50E016E42
:10311000110E026E10D00FD040513E5D426F4151F2
:103120003F59436F010E425D006E000E4359036E1E
:1031300000C001F0026E000146EF1DF0040E040114
:103140004B6F460E016E4BC4EAFFE96EEFCF4EF4B3
:10315000040E506F460E4F6F030E4F25E96E000EA2
:103160005021EA6EEF504E194BC4EAFF01C0E9FF4F
:10317000EF6E040E4B6F460E4A6F030E4A25016E2A
:10318000000E4B21036EEA6E01C0E9FFEFCF4EF453
:10319000040E506F460EE96E50C4EAFFEF504E1910
:1031A00003C0EAFF01C0E9FFEF6E040E4B6F460E4D
:1031B000016E4BC4EAFFE96EEFCF4EF4040E506F80
:1031C000460E4F6F030E4F25E96E000E5021EA6E3A
:1031D000EF504E194BC4EAFF01C0E9FFEF6E040E39
:1031E0004B6F460E4A6F010E4A25016E000E4B21B1
:1031F000036EEA6E01C0E9FFEFCF4EF4040E506F8C
:10320000460E4F6F020E4F25E96E000E5021EA6EFA
:10321000EF504E1903C0EAFF01C0E9FFEF6E040E44
:103220004B6F460E4A6F020E4A25016E000E4B216F
:10323000036EEA6E01C0E9FFEFCF4EF4040E506F4B
:10324000460E4F6F010E4F25E96E000E5021EA6EBB
:10325000EF504E1903C0EAFF01C0E9FFEF6E040E04
:103260004B6F460E4A6F010E4A25016E000E4B2130
:10327000036EEA6E01C0E9FFEFCF4EF4040E506F0B
:10328000460E4F6F020E4F25E96E000E5021EA6E7A
:10329000EF504E1903C0EAFF01C0E9FFEF6E46C4CC
:1032A00000F047C401F048C402F049C403F0000133
:1032B000120004013EC401F03FC403F03EC440F4D8
:1032C0003FC441F43EC4E9FF3FC4EAFFECCF43F4FE
:1032D000ED52EFCF42F443C45EF442C45DF400010A
:1032E00012EC0DF041C4EAFF40C4E9FF02C0ECFF5C
:1032F000ED5201C0EFFF020E04013E25016E000EEB
:103300003F21036E01C040F4416F020E3E25E96E7D
:10331000000E3F21EA6EECCF43F4ED52EFCF42F4C2
:1033200043C45EF442C45DF4000112EC0DF041C4EC
:10333000EAFF40C4E9FF02C0ECFFED5201C0EFFF1D
:10334000040E04013E25016E000E3F21036E01C0F4
:1033500040F4416F040E3E25E96E000E3F21EA6EF7
:10336000EFCF42F4ECCF43F4ECCF44F4ECCF45F490
:1033700045C449F444C448F443C447F442C446F441
:103380000001DCDE41C4EAFF40C4E9FF00C0EFFFFA
:1033900001C0ECFF02C0ECFF03C0ECFF080E04010B
:1033A0003E25016E000E3F21036E01C040F4416FC7
:1033B000080E3E25E96E000E3F21EA6EEFCF42F483
:1033C000ECCF43F4ECCF44F4ECCF45F445C449F4DE
:1033D00044C448F443C447F442C446F40001AEDE9A
:1033E00041C4EAFF40C4E9FF00C0EFFF01C0ECFFA9
:1033F00002C0ECFF03C0ECFF0E0E04013E25016E7F
:10340000000E3F21036E01C040F4416F0E0E3E25B9
:10341000E96E000E3F21EA6EECCF43F4ED52EFCFA0
:1034200042F443C45EF442C45DF4000112EC0DF0BA
:1034300041C4EAFF40C4E9FF02C0ECFFED5201C005
:10344000EFFF100E04013E25016E000E3F21036EBA
:1034500001C040F4416F100E3E25E96E000E3F2181
:10346000EA6EECCF43F4ED52EFCF42F443C45EF486
:1034700042C45DF4000112EC0DF041C4EAFF40C407
:10348000E9FF02C0ECFFED5201C0EFFF120E040194
:103490003E25016E000E3F21036E01C040F4416FD6
:1034A000120E3E25E96E000E3F21EA6EECCF43F48A
:1034B000ED52EFCF42F443C45EF442C45DF4000128
:1034C00012EC0DF041C4EAFF40C4E9FF02C0ECFF7A
:1034D000ED5201C0EFFF12000401426B436B446BDD
:1034E000456B5E6B0001DCEC02F001C040F4010EA4
:1034F00004015E6F0001DCEC02F001C041F4040144
:103500003E513F1158E03F5303E13E51140803E29E
:10351000036A140E03D03FC403F03E51466F03C04C
:1035200047F4040E5F6F480E5E6F5FC461F4606F16
:1035300047C463F446C462F400010AEC06F00401D7
:1035400046513E5F47513F5B040E5F6F460EE96E8A
:103550005FC4EAFFEFA00CD0040E5F6F480E462553
:10356000E96E5F514721EA6EEF6A462BD8B4472BCC
:10357000040E5D6F480E5C6F465147111BE05DC441
:1035800003F05CC400F0020E5C27D8B05D2B00C0D5
:10359000E9FF03C0EAFFECCF03F0ED52EF50422702
:1035A00003504323000E44234523020E465F000EC2
:1035B000475BE2D7A5D7636B40C464F40001F1EC2C
:1035C00002F0010E0401636F41C464F40001F1ECE8
:1035D00002F00401616B606B43C45FF442C45EF4AB
:1035E00044C400F045C401F0026A036A4451422514
:1035F000426F45514321436F02506021446F035095
:103600006121456F445142274551432343C403F090
:10361000031E4251FF0A016E03C002F000011200B6
:1036200029EC08F0040114A104D00101F68704017B
:1036300014910101F59BF59DF59FF693F695F69192
:103640000001C3EC0BF00152FCE004011451060B25
:1036500003E03D6B3C6B19D101018651E45D08E14B
:103660008751E55D05E104013D6B3C6BF7D001013D
:103670008751E55D4FE303E1E451865D4BE28651FE
:10368000E45D04013C6F01018751E55904013D6F80
:1036900001018D5104013D5D0DE308E13C51010143
:1036A0008C5DD8A002D0040105D004018DC13DF489
:1036B0008CC13CF401019E5104013D5D10E308E121
:1036C0003C5101019D5DD8A002D0040108D0040145
:1036D0009EC13DF49DC13CF40101F6850401120E2A
:1036E000466F0D0E456F476B87C149F486C148F49C
:1036F000F9C14AF43DC44CF43CC44BF40001B6ECAF
:1037000007F004013C510101862704013D510101EC
:103710008723A3D08651E05D04013A6F01018751F0
:10372000E15904013B6F0101E45104013A253E6F68
:103730000101E55104013B213F6F0101DE5104010C
:103740003E5D3C6F0101DF5104013F593D6F0101B6
:103750008D5104013D5D0DE308E13C5101018C5D9B
:10376000D8A002D0040105D004018DC13DF48CC164
:103770003CF401019E5104013D5D10E308E13C5120
:1037800001019D5DD8A002D0040108D004019EC1B2
:103790003DF49DC13CF40101F68504013D513B5DC2
:1037A00008E303E13A513C5D04E23DC43BF43CC410
:1037B0003AF4120E466F0D0E456F476B87C149F400
:1037C00086C148F4F9C14AF43BC44CF43AC44BF402
:1037D0000001B6EC07F004013A513C5D3A6F3B51F1
:1037E0003D593B6F3A513B1120E001018651E05DAC
:1037F000006E8751E159036E00500D0F04013E6FBA
:10380000120E03203F6F466F3EC445F4476BDFC185
:1038100049F4DEC148F4F9C14AF43BC44CF43AC45B
:103820004BF40001B6EC07F004013C51010186277E
:1038300004013D5101018723E151875D0EE303E15E
:10384000E051865D0AE3DE51E05D006EDF51E15933
:10385000036E0050865F0350875B04010101F6A7E9
:1038600015D08C5104013C5D05E101018D5104012D
:103870003D5D0BE001019D5104013C5D05E101014D
:103880009E5104013D5D01E01481010104013C51A0
:103890003D1103E11451030B32E03C5101018C5FF7
:1038A00004013D5101018D5B04013C513D1101E0DA
:1038B000148715A109D001019F6B7D6B7C6B4C0EA9
:1038C0007B6F4B0E7A6F0401000112EC12F00101C4
:1038D0007A51040100240101EC6F7B5104010120A5
:1038E0000101ED6F7C51040102200101EE6F7D5159
:1038F000040103200101EF6FF5893FD0040115A3F6
:1039000014D00101F551010F070B006EF80EF515EB
:103910000010F56F010E7E5F000E7F5B805B815BA8
:1039200004013D6B010E3C6F29D00101F5A925D0A2
:10393000040115B10AD001019F5306E09F07D890FA
:103940007D337C337B337A330401000112EC12F0B7
:1039500001017A51040100240101EC6F7B51040143
:1039600001200101ED6F7C51040102200101EE6F85
:103970007D51040103200101EF6F04018BC119F493
:103980008AC118F489C11BF488C11AF481C11FF4DB
:1039900080C11EF47FC11DF47EC11CF485C123F4D7
:1039A00084C122F483C121F482C120F43F0E251585
:1039B000256FF00E2415246F14C425F42B6B2A6B8D
:1039C0003DC401F0026A036A3C5101017E270150A7
:1039D0007F230250802303508123040114A31ED0AF
:1039E00014B904D0236B226B216B206B01019CA3C3
:1039F0000BD0FF0E04011C27D8A01D27D8A01E271E
:103A0000D8A01F270BD00101010E7E27D8B07F2B35
:103A1000D8B4802BD8B4812B9C83040114A103D08B
:103A200001019C8104010101EB51E95D1DE303E10A
:103A3000EA51E85D19E3E051E25D04013E6F0101E6
:103A4000E151E35904013F6F0101EA51E85D006E65
:103A5000EB51E959036E005004013E5D266F03509F
:103A60003F59276F10D00101E851EA5D04013E6F14
:103A70000101E951EB5904013F6F010E3E5D266FD4
:103A8000000E3F59276F000112EF18F002C017F423
:103A900001C016F40401175306E116513F0803E371
:103AA000176B166B04D0400E165F000E175B175194
:103AB000275D08E303E12651165D04E217C427F4ED
:103AC00016C426F4040E3F6F180E3E6F000159EC29
:103AD00019F0140E04013C27000E3D230F0E24158F
:103AE0005009246F14A317D0040E3C27000E3D2369
:103AF000020E2C6F040E2D6F180E2F6F020E2E6FFC
:103B000024390F0B010F006E0038F00B006E0F0E02
:103B100024150010246F26C033F425C032F424C0CD
:103B200031F423C030F493C137F492C136F491C11B
:103B300035F490C134F4386B060E396F3DC43BF454
:103B40003CC43AF43BC45EF43AC45DF4000112ECA8
:103B50000DF002C03BF401C03AF4040E04013F6FC3
:103B6000300E3E6F3FC45AF4596F5C6B0C0E5B6FA6
:103B7000000190EC0DF001C028F40401281F02C0E0
:103B800029F4291F110E4E6FE50E4D6F000179ECDF
:103B900005F0010E04013F6F900E3E6F060E406F60
:103BA0003DC442F43CC441F4000167EC0EF0040E45
:103BB00004013F6F180E3E6F3FC463F4626F656B84
:103BC000140E646F0001B1EC05F0040114A30ED0D3
:103BD000040E3F6F2C0E3E6F3FC463F4626F656B43
:103BE000040E646F0001B1EC05F00401110E4E6F7C
:103BF000F90E4D6F0001D4EC05F03DC43FF43CC418
:103C00003EF46ADC02C017F401C016F4120E04017F
:103C10004E6F090E4D6F000179EC05F0040E0401A2
:103C20003F6F160E3E6F3FC463F4626F656B020E0A
:103C3000646F0001B1EC05F0DCEC0EF01200030142
:103C4000CE51000801E26ED0CEC3FEF3000125EC98
:103C500005F0E9C1EBF1E8C1EAF10101F451000A14
:103C6000000115E0020A13E0010A11E0060A0FE064
:103C7000030A10E0010A0EE00C0A29E0050A44E0FC
:103C8000060A47E0010A45E0050A43E042D095EC08
:103C900008F047D0110E0401146F010E156F0001DA
:103CA000BFDC01018C5303E18D5301E10CD086513F
:103CB000E45DD8B402D00001EDD78751E55DD8B4FA
:103CC00002D00001E7D7080EF46F00012AD0110ED0
:103CD0000401146F010E156F0001A2DC01018C5369
:103CE00003E18D5301E10CD08651E45DD8B402D0DC
:103CF0000001EDD78751E55DD8B402D00001E7D7C8
:103D00000C0EF46F00010DD00D0E0101F46F0001D7
:103D100008D0140E0401146F156B000181DC95ECC2
:103D200008F00301000112000301C96BC953D8A4B4
:103D300062D3C9C3FEF3000125EC05F00301CB6B90
:103D4000CA91CA930101F6B302D0F6A50FD00001C3
:103D5000C3EC0BF001520BE0100E0301CB6FCA91C4
:103D60000101F6A503D00301CA810101000101018F
:103D7000F5AB18D00001EBEC17F000500101F05D3D
:103D8000006E0150F159036E00C0CEF30301CF6FF6
:103D9000E8BE05D0CF5305E1CE51000802E3100E76
:103DA000CB6F0101F5AD18D00001EBEC17F000501E
:103DB0000101F25D006E0150F359036E00C0CEF3B5
:103DC0000301CF6FE8BE05D0CF5305E1CE51000807
:103DD00002E3100ECB6F0101F4510B081AE1000150
:103DE000EBEC17F000500101F25D006E0150F35949
:103DF000036E00C0CEF30301CF6FE8BE05D0CF53F2
:103E000009E1CE51000806E3110ECB6F0C0E010143
:103E1000F46F03010101F4510408D8A460D1030137
:103E2000CD6BCC6BCD53D8A459D1CC510208D8A0BE
:103E300055D1CDC3FFF3CCC3FEF30401016B140EC7
:103E4000006F0001FEEC17F001C0CEF3100E03016D
:103E50000124016E000E0220036E0150A20FE96ED4
:103E6000010E0320EA6EECCFCFF3ED52EFCFCEF38D
:103E7000CE5303E1CF5301E131D1CDC3FFF3CCC326
:103E8000FEF30401016B140E006F0001FEEC17F04D
:103E900001C0CEF3100E03010124016E000E0220BA
:103EA000036E0150A20FE96E010E0320EA6EECCF03
:103EB000CFF3ED52EFCFCEF30101F7510301CE5D09
:103EC000D8A408D10101F8510301CF5DD8A402D1D3
:103ED000000129EC08F0010E0301CF6F900ECE6FA8
:103EE000CDC3FFF3CCC3FEF30401016B140E006FCE
:103EF0000001FEEC17F002C0D1F301C0D0F3A20E16
:103F000003010124016E010E0220036E01C0D2F3F1
:103F1000D36FCFC3EAFFCEC3E9FFE26E01C0E1FF7A
:103F20000A0E016EE6CFEEFF012EFCD7CDC3FFF3E4
:103F3000CCC3FEF30401016B140E006F0001FEEC14
:103F400017F001C0CEF30A0E03010124016E000E2A
:103F50000220036E0150A20FE96E010E0320EA6EEB
:103F6000ECCF89F1ED52EFCF88F1CDC3FFF3CCC395
:103F7000FEF30401016B140E006F0001FEEC17F05C
:103F800001C0CEF30C0E03010124016E000E0220CD
:103F9000036E0150A20FE96E010E0320EA6EEFCF0F
:103FA000CEF3ECCFCFF3ECCFD0F3ECCFD1F3010EC7
:103FB000CE250101826F000E0301CF210101836F25
:103FC000000E0301D0210101846F000E0301D121F5
:103FD0000101856F905192250301CE6F010191512E
:103FE00093210301CF6F010188510301CE27010105
:103FF00089510301CF23CE5101018A19F76F0301C3
:10400000CF5101018B19F86F120E0301CB6F060E11
:104010000101F46FCDC3FFF3CCC3FEF30401016BC8
:10402000140E006F0001FEEC17F002C003F0015007
:10403000A20F016E010E032201C0CEF3030103C0E3
:10404000CFF3010ECC25D06F000ECD21D16FFF6FC5
:10405000D0C3FEF30401016B140E006F0001FEECEF
:1040600017F002C003F00150A20F016E010E0322EF
:1040700001C0D0F3030103C0D1F3020ED880CC55A8
:10408000D26F000ECD55D36FFF6FD2C3FEF3040184
:10409000016B140E006F0001FEEC17F002C0D3F3A9
:1040A00001C0D2F3CFC346F4CEC345F4010E0401E0
:1040B000476FD1C349F4D0C348F44A6F02C04CF4EF
:1040C00001C04BF40001B6EC07F00101DB6BDA6BC9
:1040D000030104D0CC2BD8B4CD2BA4D6010103010D
:1040E000CB530EE0CAA102D0000E01D0010ECE6F5C
:1040F000CBC314F4E8CF15F4000110EC1BF003015E
:104100000101F5B96DD0F451070867E1000112EC27
:1041100012F003C0D1F302C0D0F301C0CFF300C04E
:10412000CEF30101EC510301005C006E0101ED5181
:1041300003010158016E0101EE5103010258026EA4
:104140000101EF5103010358036ED16F02C0D0F398
:1041500001C0CFF300C0CEF3E8AE01D04AD10101D7
:10416000F551070B060818E10301CB6B0101F5A718
:1041700003D00301CB2B0101C9C3CEF300015FDDE6
:10418000C9C3CEF35CDD0301CB5304E10E0E010184
:10419000F46F03012ED10101000129EC08F0100E8B
:1041A0000401146F020E156F000110EC1BF012ECED
:1041B00012F0EE0E030100240101EC6FFA0E030170
:1041C00001200101ED6F020E030102200101EE6FDB
:1041D000000E030103200101EF6F03010AD1010169
:1041E000000112EC12F003C0D1F302C0D0F301C001
:1041F000CFF300C0CEF30101EC510301005C006E6F
:104200000101ED5103010158016E0101EE5103015D
:104210000258026E0101EF5103010358036ED16F82
:1042200002C0D0F301C0CFF300C0CEF3E8AE01D09E
:10423000E0D0000129EC08F00101F451050A000169
:104240000FE0030A1EE0010A33E00C0A31E0030A22
:1042500040E0010A4EE0030A52E0060A60E070D036
:10426000020E0301CB6FCA8101019F51030808E2CE
:10427000040E9F6F7D6B7C6FC40E7B6FB00E7A6FE8
:1042800060D001019F51010806E3120E0301CB6FBC
:10429000CA810CD00101F5A706D0140E0301CB6F23
:1042A000CA8304D00101020E0301CB6F010149D082
:1042B00001019F51040806E3100E0301CB6FCA8170
:1042C00006D00101080EF46F110E0301CB6F01013E
:1042D00038D001019F51040806E3110E0301CB6F92
:1042E000CA8105D00101140E0301CB6FCA830101FD
:1042F00028D0140E0301CB6FCA83010122D0010123
:104300009F51040806E3100E0301CB6FCA8105D04C
:104310000101140E0301CB6FCA83010112D0010108
:104320009F51040806E3110E0301CB6FCA8105D02B
:104330000101140E0301CB6FCA83010102D00001F9
:1043400001010301CB534FE0CAA144D001019F2BCF
:10435000D8907A377B377C377D37E651865D03010D
:10436000CC6F0101E75187590301CD6F01018751DE
:10437000E75D10E303E1E651865D0CE2DE51E05DAE
:10438000006EDF51E159036E00500301CC2703504A
:10439000CD2301010301CC5101017E5F0301CD5109
:1043A00001017F5B000E805B815B0301CC51010149
:1043B0008C270301CD5101018D23E7C187F1E6C1AF
:1043C00086F1CBC314F40401156B000110EC1BF053
:1043D00009D00301CBC314F4010E0401156F0001D1
:1043E00010EC1BF00301CAA304D0000195EC08F007
:1043F0000301C92B9BD4CD6BCC6BCD53D8A4BDD0BE
:10440000CC510208D8A0B9D0CDC3FFF3CCC3FEF382
:104410000401016B140E006F0001FEEC17F001C0E7
:10442000CEF3100E03010124016E000E0220036E74
:104430000150A20FE96E010E0320EA6EECCFCFF31C
:10444000ED52EFCFCEF3CE5303E1CF5301E195D040
:104450000001EBEC17F001C0CFF300C0CEF3CDC3E9
:10446000FFF3CCC3FEF30401016B140E006F0001D7
:10447000FEEC17F002C0D1F301C0D0F3120E03011D
:104480000124016E000E0220036E0150A20FE96E9E
:10449000010E0320EA6EECCF03F0ED52EF50CE5F39
:1044A0000350CF5B03E1CE51E40863E2CDC3FFF3D9
:1044B000CCC3FEF30401016B140E006F0001FEEC8F
:1044C00017F002C003F00150A20F016E010E03228B
:1044D00001C0CEF3030103C0CFF3010ECC25D06F92
:1044E000000ECD21D16FFF6FD0C3FEF30401016B2D
:1044F000140E006F0001FEEC17F002C003F0015033
:10450000A20F016E010E032201C0D0F3030103C00C
:10451000D1F3020ED880CC55D26F000ECD55D36F9B
:10452000FF6FD2C3FEF30401016B140E006F000194
:10453000FEEC17F002C0D3F301C0D2F3CFC346F4B0
:10454000CEC345F4010E0401476FD1C349F4D0C373
:1045500048F44A6F02C04CF401C04BF40001B6ECC1
:1045600007F00101DB6BDA6B0301CC51D8B4CD0746
:10457000CC07CC2BD8B4CD2B40D7000121EF36F09F
:104580000301C96BC95106083DE3C951170DF3502A
:10459000CB6BCA6F0E0ECA25016E000ECB21036EC7
:1045A0000150570FE96E000E0320EA6EEF50050828
:1045B00014E0C951170DF350CB6BCA6F0E0ECA250C
:1045C000016E000ECB21036E0150570FE96E000EF5
:1045D0000320EA6EEF50040801E112D0C951170D13
:1045E000F350CB6BCA6F0E0ECA25016E000ECB21A5
:1045F000036E0150570FE96E000E0320EA6EEF5074
:10460000C92BC0D7000123EF36F0010E0401436F20
:10461000190E426F00012DEC03F0190E04015E6FBC
:104620000001DCEC02F001C0E1F30401436B426BDA
:1046300000012DEC03F00301E15303E1000E016ED4
:104640008CD0010110B508D0000101EC13F0000E70
:10465000016E030182D0010124C126F123C125F19D
:104660000401636B25C164F40001F1EC02F0010E5A
:104670000401636F26C164F40001F1EC02F0030E43
:104680000301E36FCD0EE26FE3C361F4E8CF60F4A2
:104690000401636B140E626F00010AEC06F0E0C3C4
:1046A0005EF4DFC35DF412EC0DF002C0E0F301C074
:1046B000DFF30301CE51100805E2FF0A19E1CD51E5
:1046C000D50816E3030EE36FCD0EE96EE3C3EAFFF0
:1046D000EFB00ED0D2BF0CD0D1B90AD0D05104085F
:1046E00005E2FF0A05E1CF51EE0802E3D1BF01D098
:1046F000FF00CEC324F1CDC323F1CAC303F0C9C365
:10470000E2F3CAC3E3F3030EE56FD90ECAC3EAFFAF
:10471000C9C3E9FFE5C3E2FFE16E060E016EE6CF15
:10472000EEFF012EFCD7CCC303F0CBC3E9FF03C0DF
:10473000EAFFEF68E05108080BE1DF5303E0DF51C7
:10474000060806E1CBC3E9FFCCC3EAFFDFC3EFFFF6
:1047500001011095010E016E0301000131EF36F0E9
:104760000301E7C301F0E8C303F0E7C3E9F3E8C3DB
:10477000EAF3E7C3E9FFE8C3EAFFECCFECF3ED525D
:10478000EFCFEBF3ECC35EF4EBC35DF4000112EC8E
:104790000DF0EAC3EAFFE9C3E9FF02C0ECFFED5206
:1047A00001C0EFFF020E0301E725016E000EE821B4
:1047B000036E01C0E9F3EA6F020EE725E96E000E11
:1047C000E821EA6EECCFECF3ED52EFCFEBF3ECC364
:1047D0005EF4EBC35DF4000112EC0DF0EAC3EAFFF6
:1047E000E9C3E9FF02C0ECFFED5201C0EFFF060E86
:1047F0000301E725016E000EE821036E01C0E9F315
:10480000EA6F060EE725E96E000EE821EA6EECCFAE
:10481000ECF3ED52EFCFEBF3ECC35EF4EBC35DF4DE
:10482000000112EC0DF0EAC3EAFFE9C3E9FF02C0A0
:10483000ECFFED5201C0EFFF1200C3EC0BF0015290
:10484000FCE0110E04014E6FD70E4D6F000179ECA4
:1048500005F00301E5C3E9FFE6C3EAFFEC6AED52A8
:10486000010EEF6E020EE525E96E000EE621EA6EFE
:10487000080EEC6EED52EF6A040EE525E96E000EAF
:10488000E621EA6E060EEF6E050EE525E96E000ED6
:10489000E621EA6E040EEF6E080EE525016E000EAD
:1048A000E621036E01C0E7F3E86FEA6B500E03C028
:1048B000EAFF01C0E9FFEAC3E2FFE16E060E016E06
:1048C000E6CFEEFF012EFCD70E0EE525E96E000EB9
:1048D000E621EA6E23C0EFFF24C0ECFF25C0ECFF09
:1048E00026C0ECFFE6C3E8F3E5C3E7F3000138DFD9
:1048F000120E0301E525016E000EE621036E01C0D4
:10490000E7F3E86FE8CF5CF401C05BF4060E040146
:104910005D6F5F6B1C0E5E6F000104EC0EF0E6C372
:1049200063F4E5C362F40401656B1C0E646F00015F
:10493000B1EC05F0DCEC0EF0010E016E1EEF25F07F
:10494000000E010110B7010E000A000103E0010A88
:1049500055E07ED0030E0301E66FC90EE56FE6C396
:1049600061F4E8CF60F40401636B1C0E626F000118
:104970000AEC06F001EC13F0030E0301E86FC90E18
:10498000E76F0001EDDE0301C92D08D0CA5306E12F
:10499000CD51060803E1CE51040803E0010E016E7B
:1049A0005AD0CF2D2AD0D05328E12350E15D09E120
:1049B0002450E25D06E12550E35D03E12650E45D0D
:1049C00003E0010E016E47D0DAC32EF1D9C32DF1F9
:1049D000D8C32CF1D7C32BF1010EEA6E2F0EE96E6E
:1049E000030EE26ED10EE16E060E016EE6CFEEFF13
:1049F000012EFCD701011087030100010301D06BD8
:104A0000020ECF6F030EEA6EDB0EE96E010EE26E50
:104A10002F0EE16E060E016EE6CFEEFF012EFCD7E3
:104A20002EC1E4F32DC1E3F32CC1E2F32BC1E1F37A
:104A3000030EE66FC90EE56F0001FFD6015205E1D6
:104A4000000E016E030107D0000101011097000163
:104A5000010E016E03010001D6EF36F0140E0101C4
:104A600025250301EF6F000E010126210301F06FE0
:104A7000E751EF25EB6FE851F021EC6FEC51100896
:104A800009E2FF0A03E1EB51D50804E2D60EEB5F21
:104A9000110EEC5B04015E6B0001DCEC02F001C066
:104AA000EDF3010E04015E6F0001DCEC02F001C0C9
:104AB000EEF30401636BEBC364F40001F1EC02F06C
:104AC000010E0401636FECC364F40001F1EC02F029
:104AD000EAC33FF4E9C33EF46CEC1AF002C0ECF315
:104AE00001C0EBF30401636BEDC364F40001F1EC6E
:104AF00002F0010E0401636FEEC364F40001F1ECF7
:104B000002F00301EBC301F0ECC302F0000112005C
:104B1000030E0301E86FD30EE76FE8C361F4E8CF3B
:104B200060F40401636B140E626F00010AEC06F07E
:104B30000301D351F00B400803E0000E016E68D072
:104B4000D9511F0B006EDAC303F00050DA1103E0F5
:104B5000000E016E5DD0D3510F0B006E00340101C9
:104B60002A6F2A37FC0E2A170301E86BE76BEA6B02
:104B70002AC1E9F3000172DF02C0D2F301C0D1F310
:104B800004011D6B2AC11CF4000126EC12F0030184
:104B9000D151D21103E0000E016E3AD0030E040190
:104BA000586FD30E576F000123EC0DF00301C9516C
:104BB000CA110CE0C9C3E9FFCAC3EAFFE3C3EFFFB0
:104BC000E4C3ECFFE5C3ECFFE6C3ECFFCBC3E9FFB6
:104BD000CC51EA6EDFC3EFFFE0C3ECFFE1C3ECFFB3
:104BE000E2C3ECFFCDC3E9FFCEC3EAFFDCC3EFFFB6
:104BF000CFC3E9FFD0C3EAFF01012A510301D55D0C
:104C0000006E000ED65900C0EFFFEC6E010E016E73
:104C1000000153EF36F0030E0301D26FCD0ED16FBA
:104C2000D2C361F4E8CF60F40401636B040E626FD9
:104C300000010AEC06F00301CD5108085EE1CE53F5
:104C40005CE1E86B140EE76FCCC3EAF3CBC3E9F386
:104C5000000104DF0150021001E04ED00301CD6BD2
:104C6000080ECF27CF51070804E3D02BD05301E122
:104C7000CF2B0001C3EC0BF00152FCE0110E04013C
:104C80004E6FE50E4D6F000179EC05F0CAC33FF49D
:104C9000C9C33EF4010E0401406FCCC342F4CBC340
:104CA00041F4000167EC0EF0030E0301D26FCD0E4C
:104CB000D16FD2C363F4E8CF62F40401656B040ED4
:104CC000646F0001B1EC05F0040E0301CB5DD16F00
:104CD000000ECC59D26F04014E694D6950694F697D
:104CE000526FD1C351F400015AEC06F0A2EC07F068
:104CF0000152FCE0DCEC0EF003010001A9EF36F0FC
:104D0000020E0301F425E96E000EF521EA6EECCFE8
:104D1000FFF3ED52EFCFFEF3FE5305E1FF5303E146
:104D2000000E016E0FD3FE0EF96F020EF625E96E2E
:104D3000000EF721EA6EECCFFFF3ED52EFCFFEF35A
:104D4000F6C3E9FFF7C3EAFFECCF03F0ED52EF50F3
:104D5000FE270350FF23F4C3E9FFF5C3EAFFECCFBE
:104D600003F0ED52EF50FE270350FF23020EF4250F
:104D7000E96E000EF521EA6EECCF03F0ED52EF5034
:104D8000FE19FA6F0350FF19FB6FF86BF853D8A4A4
:104D900088D0F8C3FEF3000125EC05F00101F451C1
:104DA0000D0802E17BD023D0F451040815E1020E76
:104DB0000301F425E96E000EF521EA6EECCF03F055
:104DC000ED52EF500101F75D05E10350F85D02E19E
:104DD000F8C3F9F363D00BD00301FA510101F75D79
:104DE00005E10301FB510101F85D01E057D000012D
:104DF00029EC08F0020E0301F425E96E000EF521FE
:104E0000EA6EECCFFFF3ED52EFCFFEF301018A51D2
:104E10000301FE5D42E101018B510301FF5D3DE1B4
:104E2000F4C3E9FFF5C3EAFFECCFFFF3ED52EFCF98
:104E3000FEF3010188510301FE5D2FE1010189515B
:104E40000301FF5D2AE1F6C3E9FFF7C3EAFFEFCFF5
:104E5000FEF3ECCFFFF3ECCF00F4ECCF01F4010153
:104E600090510301FE5D19E1010191510301FF5DC4
:104E700014E1010192510401005DD8B402D0030194
:104E80000CD0010193510401015DD8B402D003019B
:104E900004D0010E016E030155D201010301F82B6C
:104EA00075D7F951FE083AE0F9C3FEF3000125EC8D
:104EB00005F029EC08F00301F951FE082FE0FBC3CF
:104EC000F8F1FAC3F7F1010EFF6F900EFFC3EAFF8E
:104ED000E96EF7C3E2FFF6C3E1FF0A0E016EE6CF0B
:104EE000EEFF012EFCD7F4C3E9FFF5C3EAFFECCFD8
:104EF00089F1ED52EFCF88F1020EF425E96E000E34
:104F0000F521EA6EECCF8BF1ED52EFCF8AF1DFC1E4
:104F100087F1DEC186F1010E016E14D20D0EF4256B
:104F2000E96E000EF521EA6EEFB203D0000E016EBD
:104F300009D20101DA51DB1105E0000E016E030117
:104F400001D201010301FD6BFC6BFD53D8A4EDD030
:104F5000FC510208D8A0E9D0FDC3FFF3FCC3FEF367
:104F60000401016B140E006F0001FEEC17F001C08C
:104F7000FEF3100E03010124016E000E0220036EE9
:104F80000150A20FE96E010E0320EA6EECCFFFF391
:104F9000ED52EFCFFEF3FE5303E1FF5301E1C5D025
:104FA000FDC3FFF3FCC3FEF30401016B140E006F9D
:104FB0000001FEEC17F001C0FEF3100E0301012406
:104FC000016E000E0220036E0150A20FE96E010E69
:104FD0000320EA6EECCFFFF3ED52EFCFFEF3020EAB
:104FE000F425E96E000EF521EA6EECCF03F0ED52E8
:104FF000EF50FE5D03E10350FF5D01E092D0FDC381
:10500000FFF3FCC3FEF30401016B140E006F0001FB
:10501000FEEC17F001C0FEF30A0E03010124016E3D
:10502000000E0220036E0150A20FE96E010E032054
:10503000EA6EECCFFFF3ED52EFCFFEF3F4C3E9FFDE
:10504000F5C3EAFFECCF03F0ED52EF50FE5D03E154
:105050000350FF5D01E065D0FDC3FFF3FCC3FEF329
:105060000401016B140E006F0001FEEC17F002C08A
:10507000FFF301C0FEF3A20E03010124E96E010E4D
:105080000220EA6EEFCF00F4ECCF01F4ECCF02F493
:10509000ECCF03F4F6C3E9FFF7C3EAFFEFCF00F06C
:1050A000ECCF01F0ECCF02F0ECCF03F000500401A4
:1050B000005D09E10150015D06E10250025D03E17E
:1050C0000350035D03E003012CD00401FDC3FFF393
:1050D000FCC3FEF3016B140E006F0001FEEC17F031
:1050E00001C0FEF3120E03010124016E000E022026
:1050F000036E0150A20F016E010E032201C0FEF3E8
:1051000003C0FFF30001EBEC17F0FFC3EAFFFEC39F
:10511000E9FF00C0EFFF01C0ECFF000E016E0301CC
:1051200011D1FC2BD8B4FD2B10D7F86BF853D8A4B1
:1051300007D1F8C3FEF3000125EC05F00101F5B736
:1051400001D0FBD0000129EC08F0020E0301F42588
:10515000E96E000EF521EA6EECCF03F0ED52EF5050
:1051600001018A5D03E103508B5D01E0E6D0FDC3E0
:10517000FFF3FCC3FEF30401016B140E006F00018A
:10518000FEEC17F002C0FFF301C0FEF3A20E030114
:105190000124016E010E0220036E01C000F404011F
:1051A000016FEA6E01C0E9FFF7C3E2FFF6C3E1FF5A
:1051B0000A0E016EE6CFEEFF012EFCD7FDC3FFF312
:1051C000FCC3FEF3016B140E006F0001FEEC17F040
:1051D00001C0FEF30A0E03010124016E000E02203D
:1051E000036E0150A20F016E010E032203C0FFF3F4
:1051F000F4C3E9FFF5C3EAFFECCF03F0ED52EFCFC4
:1052000000F40401FFC3EAFF01C0E9FF03C0ECFFA3
:10521000ED5200C4EFFFFDC3FFF3FCC3FEF3016BCF
:10522000140E006F0001FEEC17F001C0FEF30C0E2F
:1052300003010124016E000E0220036E0150A20F33
:10524000016E010E032201C0FEF303C0FFF3040E42
:10525000F425E96E000EF521EA6EEFCF00F0ECCFF9
:1052600001F0ECCF02F0ECCF03F0FFC3EAFFFEC386
:10527000E9FF00C0EFFF01C0ECFF02C0ECFF03C07C
:10528000ECFFFDC3FFF3FCC3FEF30401016B140E3E
:10529000006F0001FEEC17F001C0FEF3100E0301D9
:1052A0000124016E000E0220036E0150A20F016E58
:1052B000010E032203C0FFF3020EF425E96E000E77
:1052C000F521EA6EECCF03F0ED52EFCF00F40401CC
:1052D000FFC3EAFF01C0E9FF03C0ECFFED5200C4C9
:1052E000EFFFFDC3FFF3FCC3FEF3016B140E006F71
:1052F0000001FEEC17F001C0FEF3120E03010124C1
:10530000016E000E0220036E0150A20F016E010E0D
:10531000032201C0FEF303C0FFF30001EBEC17F022
:10532000FFC3EAFFFEC3E9FF00C0EFFF01C0ECFFCF
:10533000000E016E030106D001010301F82BF6D621
:10534000000E016E000146EF34F00401196B0C0EE3
:10535000186F000151EC12F045EC06F001C014F496
:1053600004011451F00B006E003200323F0E0016A3
:105370000050EC0F146F145305E1180E016E020E6D
:10538000026E70D0616B606B636B070E626F000121
:105390000AEC06F0040114511407000AD8B45ED0D8
:1053A000000145EC06F001C015F40401155301E1BC
:1053B00055D0152D01D0EFD71551020835E1145104
:1053C000020801E34BD0176B166B000145EC06F0A9
:1053D00001C015F40401155104080AE1000145EC6F
:1053E00006F001C017F445EC06F001C016F4040104
:1053F0001751020805E303E11651170801E32ED007
:10540000175104080BE2FF0A03E11651B40806E243
:10541000B40E016E050E026E25D005D016C401F043
:1054200017C402F01FD019D01451010801E316D09F
:10543000000145EC06F001C015F404011551145D9E
:1054400001E20CD0616B606B636B15C462F4000108
:105450000AEC06F004011551145F9DD7180E016E79
:10546000020E026E000112000D0E0301F425E96E1A
:10547000000EF521EA6EEFCF06F4080EF425E96E72
:10548000000EF521EA6EEFCF07F4ECCF08F4ECCF75
:1054900009F4ECCF0AF4040EF425E96E000EF521B0
:1054A000EA6EEFCF0BF4ECCF0CF4ECCF0DF4ECCFB5
:1054B0000EF4F80E0101F515F56FF5B917D00001DE
:1054C00012EC12F0EE0E040100240101EC6FFA0E52
:1054D000040101200101ED6F020E0401022001010F
:1054E000EE6F000E040103200101EF6FF451040A76
:1054F000000103E0010A4EE0E8D0040106A506D051
:10550000000195EC08F097EF33F0040106A913D0E1
:105510000AC481F109C480F108C47FF107C47EF197
:10552000040E146F156B000110EC1BF095EC08F0E5
:1055300097EF33F0040106A326D0010E0B250101DD
:10554000826F000E04010C210101836F000E040123
:105550000D210101846F000E04010E210101856FF0
:105560000001F3DE02C09EF101C09DF1120E0401A4
:10557000146F010E156F000110EC1BF0060E0101F7
:10558000F46F05D00401000195EC08F00101000161
:1055900097EF33F0040106A504D0000197EF33F034
:1055A000040106A936D001017E510401075D0FE117
:1055B00001017F510401085D0AE1010180510401EC
:1055C000095D05E10101815104010A5D22E081C10B
:1055D0000EF480C10DF47FC10CF47EC10BF40AC43B
:1055E00081F109C480F108C47FF107C47EF1040E83
:1055F000146F010E156F000110EC1BF00EC481F149
:105600000DC480F10CC47FF10BC47EF197EF33F031
:10561000040106A357D0010E0B250101826F000E75
:1056200004010C210101836F000E04010D21010111
:10563000846F000E04010E210101856F0E0E03011F
:10564000F425E96E000EF521EA6EECCF8DF1ED52F6
:10565000EFCF8CF1000179DE02C09EF101C09DF117
:10566000040106A924D0100E146F010E156F00015D
:1056700010EC1BF0070E0101F46F000112EC12F0A8
:10568000EE0E040100240101EC6FFA0E040101206A
:105690000101ED6F020E040102200101EE6F000E08
:1056A000040103200101EF6FF5990BD00401120EE4
:1056B000146F010E156F000110EC1BF0060E0101B6
:1056C000F46F0401000197EF33F0F7C310F4F6C351
:1056D0000FF4040106A103D00F2BD8B4102B06A39E
:1056E00003D00F2BD8B4102B0101EB51E95D1DE362
:1056F00003E1EA51E85D19E3E051E25D0401146F52
:105700000101E151E3590401156F0101EA51E85D1E
:10571000006EEB51E959036E00500401145D046FF3
:1057200003501559056F10D00101E851EA5D0401DD
:10573000146F0101E951EB590401156F010E145D5D
:10574000046F000E1559056F0101825104010B5DB4
:10575000006E0101835104010C59016E0101845155
:1057600004010D59026E0101855104010E59016FAA
:1057700002C000F401C0FFF300C0FEF3FFC303F456
:10578000FEC302F411910F511011D8B4A2D00451EC
:105790000511D8B49DD001BF14D0015312E10053BC
:1057A00010E10301FF510401055D0BE308E1045121
:1057B0000301FE5DD8A002D0040103D004011181D1
:1057C00052D00FC400F010C401F0026A036A0F51F6
:1057D0000301FE250401146F10510301FF21040190
:1057E000156F02500021166F03500121176FE8BE9C
:1057F0003AD0175307E1165305E1155303E114514D
:10580000000831E20F51045D006E10510559036E1E
:10581000005003C001F0026A036A01AE02D0020622
:10582000030601AF03D003AE1DD002D003BE1BD0D0
:105830000151035C18E316E10051025C14E312E12C
:105840000301FF51015CD8B002D004010CD0D8B4E0
:1058500002D0040107D0FE51005CD8B002D0040190
:1058600002D00401118104C400F005C401F0026AF1
:10587000036A01AF03D003AE1DD002D003BE28D00F
:105880000151035C25E316E10051025C21E312E1C2
:105890000301FF51015CD8B002D0040119D0D8B483
:1058A00002D0040107D00050FE5DD8A002D0040150
:1058B0000FD004010F510225146F10510321156FF1
:1058C000E8BE06D0155303E11451000801E211812E
:1058D00029D00301FE5310E1FF530EE104010053F0
:1058E000D8B402D0030108D00153D8B402D00301C8
:1058F00003D0118117D00301040101BF13D001535C
:1059000011E100530FE10301FF510401055D0AE3BA
:1059100008E104510301FE5DD8A002D0040102D0C9
:105920000401118111B10ED006B508D0100E146F0C
:10593000010E156F000110EC1BF00401000197EF40
:1059400033F004010651060B06E0000195EC08F067
:1059500097EF33F0040106B904D0000197EF33F05C
:1059600004010101F451060A00010EE0010A46E0BB
:105970000F0A44E0010A42E0020A40E0010A3EE068
:10598000060AD8B4F1D217D301017E510401075D94
:105990000FE101017F510401085D0AE1010180511D
:1059A0000401095D05E10101815104010A5D22E064
:1059B00081C10EF480C10DF47FC10CF47EC10BF4E3
:1059C0000AC481F109C480F108C47FF107C47EF1E3
:1059D000040E146F010E156F000110EC1BF00EC4C5
:1059E00081F10DC480F10CC47FF10BC47EF197EFFF
:1059F00033F00401070E0101F46F0001010186512B
:105A0000E45D0301FC6F01018751E5590301FD6F5E
:105A1000FDAF0CD00101DE51E05D006EDF51E159B8
:105A2000036E00500301FC270350FD23026A036A42
:105A3000FC5101017E250301F86FFD5101017F2119
:105A40000301F96F0250010180210301FA6F035035
:105A5000010181210301FB6FF8510401075D006E14
:105A60000301F95104010859016E0301FA510401BF
:105A70000959026E0301FB5104010A59E8CFFBF3F7
:105A800002C0FAF301C0F9F300C0F8F30301FBBF51
:105A900035D0FB5307E1FA5305E1F95303E1F8511F
:105AA00000082CE201019CA113D00301F82D01D0C4
:105AB00002D001010DD0F953D8B402D0010108D0B1
:105AC000FA53D8B402D0010103D0FB530CE001011A
:105AD000100E0401146F156B000110EC1BF097EF12
