:040000001BEF88F07A
:080008005DEF00F000000000B4
:100010000000000000000000046ED8CF05F0E0CF23
:1000200006F00001E9CF0CF0EACF07F0E1CF08F0CD
:10003000E2CF09F0D9CF0AF0DACF0BF0F3CF12F00C
:10004000F4CF13F0FACF14F0FBCF15F000C00EF090
:1000500001C00FF002C010F003C011F09DA034EFFA
:1000600000F09EB0AEEF07F09DA23AEF00F09EB216
:10007000A0EF08F00EC000F00FC001F010C002F0B9
:1000800011C003F00CC0E9FF07C0EAFF078E08C0EB
:10009000E1FF09C0E2FF0AC0D9FF0BC0DAFF12C0BE
:1000A000F3FF13C0F4FF14C0FAFF15C0FBFF0450A8
:1000B00006C0E0FF05C0D8FF1000186ED8CF19F0B9
:1000C000E0CF1AF00001E9CF20F0EACF1BF0E1CF3A
:1000D0001CF0E2CF1DF0D9CF1EF0DACF1FF0F3CF26
:1000E00026F0F4CF27F0FACF28F0FBCF29F000C09C
:1000F00022F001C023F002C024F003C025F09DAA25
:1001000085EF00F09EBA74EF07F022C000F023C024
:1001100001F024C002F025C003F020C0E9FF1BC09D
:10012000EAFF1B8E1CC0E1FF1DC0E2FF1EC0D9FF0D
:100130001FC0DAFF26C0F3FF27C0F4FF28C0FAFF74
:1001400029C0FBFF18501AC0E0FF19C0D8FF1000EB
:10015000737461747573542E7478743D22215465E0
:10016000726D6F737461746F212200007374617417
:100170007573542E7478743D22436F6E74726F6C75
:10018000616E646F2200737461747573542E747899
:10019000743D224D6573657461220000737461744F
:1001A0007573542E7478743D2252616D7061202DE8
:1001B0002200737461747573542E7478743D2245F3
:1001C0006E667269616E646F220073746174757318
:1001D000542E7478743D22436F6E74726F6C616E2E
:1001E000646F2200737461747573542E7478743D57
:1001F000224D6573657461220000737461747573B8
:10020000542E7478743D2252616D7061202B22004F
:10021000737461747573542E7478743D2243616CE9
:10022000656E74616E646F2200007374617475731F
:10023000542E7478743D22215465726D6F7374610D
:10024000746F21220000737461747573542E747876
:10025000743D22436F6E74726F6C616E646F202DFB
:100260002200737461747573542E7478743D224542
:100270006E667269616E646F220073746174757367
:10028000542E7478743D22436F6E74726F6C616E7D
:10029000646F202B2200737461747573542E74780C
:1002A000743D2243616C656E74616E646F22000060
:1002B000737461747573542E7478743D222154657F
:1002C0006D702E2042616A61212200007374617496
:1002D0007573542E7478743D222154656D702E20F0
:1002E000416C746121220000737461747573542E23
:1002F0007478743D22436F6E74726F6C616E646FBC
:10030000202D2200737461747573542E7478743DBB
:1003100022456E667269616E646F22007374617447
:100320007573542E7478743D22456E667269616EE1
:10033000646F2200737461747573542E7478743D05
:1003400022436F6E74726F6C616E646F202B22009B
:10035000737461747573542E7478743D22436F6E98
:1003600074726F6C616E646F202B22007374617401
:100370007573542E7478743D2243616C656E74619C
:100380006E646F22000074254C752E7478743D22C3
:10039000253032753A25303275220000737461744D
:1003A0007573482E7478743D222148756D2E204255
:1003B000616A61212200737461747573482E7478C8
:1003C000743D222148756D2E20416C7461212200FC
:1003D000737461747573482E7478743D2248756D1A
:1003E000696469666963616E646F22007374617425
:1003F0007573482E7478743D22436F6E74726F6CFF
:10040000616E646F2200737461747573482E747822
:10041000743D22436F6E74726F6C616E646F220064
:10042000737461747573482E7478743D22446573D7
:1004300068756D696469666963616E646F22000046
:10044000737461747573482E7478743D22436F6EB3
:1004500074726F6C616E646F220073746174757373
:10046000482E7478743D22436F6E74726F6C616EA7
:10047000646F220066656368612E7478743D22465D
:10048000656368613A253032752F253032752F3219
:10049000302530327520202020486F72613A2025A7
:1004A0003032753A253032753A25303275220000E7
:1004B00070616765205072696E636970616C0000DD
:1004C000746D696E7365632E7478743D22253032C5
:1004D00075220000747365637365632E7478743DD0
:1004E0002225303275220000706167652052616DEF
:1004F00070617300746D696E7365632E7478743DFA
:100500002225303275220000747365637365632E93
:100510007478743D222530327522000063302E76C7
:10052000616C3D31000063312E76616C3D3000001E
:1005300063322E76616C3D30000063302E76616C44
:100540003D30000063312E76616C3D310000633236
:100550002E76616C3D30000063302E76616C3D304C
:10056000000063312E76616C3D30000063322E76E0
:10057000616C3D31000066656368612E7478743D7E
:100580002246656368613A253032752F2530327511
:100590002F32302530327520202020486F72613A8A
:1005A00020253032753A253032753A2530327522A1
:1005B00000007473657474656D2E7478743D222523
:1005C000322E3166220070616765205072696E6359
:1005D0006970616C00007473657474656D2E747855
:1005E000743D2225322E31662200706167652052EB
:1005F000616D7061730066656368612E7478743D27
:100600002246656368613A253032752F2530327590
:100610002F32302530327520202020486F72613A09
:1006200020253032753A253032753A253032752220
:10063000000063302E76616C3D31000063312E7610
:10064000616C3D30000063322E76616C3D300000FD
:1006500063302E76616C3D30000063312E76616C24
:100660003D31000063322E76616C3D3000007061D8
:100670006765205072696E636970616C0000747305
:10068000657474656D2E7478743D22253032752240
:100690000000706167652052616D70617300747352
:1006A000657474656D2E7478743D22253032752220
:1006B00000006231322E62636F3D3130323400000F
:1006C0006231322E62636F3D363334383800623027
:1006D0002E62636F3D313032340062302E62636FC0
:1006E0003D3633343838000062312E62636F3D315D
:1006F0003032340062312E62636F3D363334383825
:10070000000062322E62636F3D313032340062325B
:100710002E62636F3D363334383800006231312E3B
:1007200062636F3D3130323400006231312E6263DA
:100730006F3D36333438380062332E62636F3D319B
:100740003032340062332E62636F3D3633343838D2
:10075000000062362E62636F3D3130323400623603
:100760002E62636F3D3633343838000062382E62B3
:10077000636F3D313032340062382E62636F3D3634
:1007800033343838000062392E62636F3D313032C5
:10079000340062392E62636F3D36333438380000DE
:1007A0006231372E62636F3D313032340000623186
:1007B000372E62636F3D3633343838006232312E63
:1007C00062636F3D3130323400006232312E626339
:1007D0006F3D3633343838006231372E7478743DCB
:1007E000224E6976656C2042616A6F220000623297
:1007F000312E7478743D224E6976656C20416C749C
:100800006F2200006231362E7478743D22416C3ABA
:100810002530327522006231332E7478743D2241C6
:100820004443313A2530332E30662025312E31664F
:1008300022006231342E7478743D22414443323AAE
:100840002530332E30662025312E3166220062316C
:10085000352E7478743D2254313A25312E3266207B
:10086000220062352E7478743D225433353A256C5B
:10087000642200006231382E7478743D2254323A7A
:1008800025312E32662200006232302E7478743D9B
:10089000225468756D3A25312E326622000062318D
:1008A000392E7478743D2248756D3A25312E3266A2
:1008B000252522007061676520416A757374657330
:1008C00000007061676520416A757374657300008C
:1008D00074686F72612E7478743D222530327522EF
:1008E0000000746D696E75746F732E7478743D2298
:1008F000253032752200746469612E7478743D224B
:10090000253032752200746D65732E7478743D2223
:1009100025303275220074796561722E7478743DC9
:10092000222530327522000070616765205072699F
:100930006E636970616C000061646420312C302C3E
:100940002575000061646420312C312C2575000070
:1009500074302E7478743D22436F6E74726F6C2005
:1009600064652054656D70657261747572612041B3
:100970006374697661646F22000074302E74787439
:100980003D22436F6E74726F6C2064652048756DF4
:100990006564616420416374697661646F2200005C
:1009A00074302E7478743D22436F6E74726F6C20B5
:1009B00064652054656D706572617475726120792B
:1009C0002048756D65646164204163746976616473
:1009D0006F22000074302E7478743D22436F6E7461
:1009E000726F6C20706F722052616D706173204164
:1009F0006374697661646F22000074302E747874B9
:100A00003D22436F6E74726F6C6573204465736131
:100A10006374697661646F73220074656D702E74FF
:100A200078743D2225312E3166B04322000068756E
:100A30006D65642E7478743D2225312E316625252E
:100A4000220061646420312C302C25312E30660068
:100A500061646420312C312C25312E3066006970A0
:100A6000312E7478743D2225752200006970322E73
:100A70007478743D2225752200006970332E7478D5
:100A8000743D2225752200006970342E7478743DFF
:100A900022257522000067312E7478743D22257559
:100AA000220067322E7478743D2225752200673348
:100AB0002E7478743D222575220067342E74787464
:100AC0003D222575220073312E7478743D222575E0
:100AD000220073322E7478743D2225752200733300
:100AE0002E7478743D222575220073342E74787428
:100AF0003D22257522006D312E7478743D222575B6
:100B000022006D322E7478743D22257522006D33DB
:100B10002E7478743D22257522006D342E747874FD
:100B20003D22257522006D352E7478743D22257581
:100B300022006D362E7478743D2225752200706176
:100B4000676520416A757374657300006236312EE3
:100B50007478743D22494E4943494F220000623661
:100B6000312E62636F3D3130323400006236312EF7
:100B70007478743D22444554454E455222006236F5
:100B8000312E62636F3D36333438380074697472C5
:100B9000616D7061732E7478743D2250726F67724C
:100BA000616D61202530324C752C205061736F735C
:100BB0002050726F6772616D61646F7320253032EF
:100BC000752C205061736F2073656C656363696F6A
:100BD0006E61646F3A202530324C752200007465D6
:100BE0006D702E7478743D2254656D7065726174F9
:100BF0007572613A54413A25322E316643202054B1
:100C00003A25322E31664322000074656D702E74D1
:100C100078743D2254656D70657261747572613AC5
:100C200054413A2D2D2D2020543A25322E31664341
:100C300022007469656D706F2E7478743D2254695A
:100C4000656D706F3A253032753A2530327520283F
:100C500048483A4D4D29220068756D2E7478743DD0
:100C60002248756D656461643A2530337520252509
:100C70002022000074656D702E7478743D225465D6
:100C80006D70657261747572613A202D2D220000BD
:100C90007469656D706F2E7478743D225469656D4A
:100CA000706F3A2D2D3A2D2D220068756D2E7478B7
:100CB000743D2248756D656461643A202D2D2200D3
:100CC00074656D702E7478743D2254656D70657214
:100CD00061747572613A54413A25322E316643206F
:100CE00020543A25322E31664322000074656D701F
:100CF0002E7478743D2254656D70657261747572DE
:100D0000613A54413A2D2D2D2020543A25322E316E
:100D1000664322007469656D706F2E7478743D228D
:100D20005469656D706F3A253032753A25303275E9
:100D3000202848483A4D4D29220068756D2E747858
:100D4000743D2248756D656461643A2530337520C1
:100D5000252520220000706167652054656D70654F
:100D60007261747572610000706167652048756D0D
:100D700065646164000070616765205469656D7029
:100D80006F0070616765205072696E636970616C95
:100D900000007061676520496E69636961646F0076
:100DA00074697472616D7061732E7478743D222160
:100DB00050726F6772616D6120566163696F2C209C
:100DC00070726F6772616D6520616C206D656E6F0A
:100DD000732031207365676D656E746F212200008A
:100DE0007061676520496E69636961646F00706155
:100DF000676520456C696D696E61646F00007061A4
:100E000067652052616D706173007472616D70610D
:100E10002E7478743D2250726F6772616D61202567
:100E200030324C7520496E69636961646F2200003D
:100E30007472616D70612E7478743D2250726F67A8
:100E400072616D6120446574656E69646F22000093
:100E500070616765205072696E636970616C000033
:100E60007474656D702E70636F3D363535333500A3
:100E70007468756D2E70636F3D3000007468756D19
:100E80002E70636F3D363535333500007474656DF3
:100E9000702E70636F3D30007061676520416A7528
:100EA0007374657300007474656D702E7478743D8E
:100EB000222B2F2D25312E31662200007468756D8E
:100EC0002E7478743D222B2F2D25312E3066220072
:100ED0009EAAFED7ABCF2BF0AECF01F02BA202D053
:100EE000AB98AB8875EF07F0F3D701C061F1010152
:100EF0006151650802E129895C6B29A90AD0036A5E
:100F00005C51510FE96E010E0320EA6E61C1EFFFE3
:100F10005C2B5C51090802E25C6B29995C5310E17F
:100F2000515165080BE1523D09D0533D07D059534B
:100F300005E15A3D03D0050E626F02D00A0E626FC2
:100F40009E9A000185EF00F00C01DF5303E08A86D2
:100F5000939602D08A969396000112009E0ECF6E51
:100F6000580ECE6E0601372BD8B4382B392BD8B497
:100F70003A2B3B2BD8B43C2B928880A80BD03E5107
:100F80000B0807E303E13D51B70803E33D2BD8B459
:100F90003E2B02D03E6B3D6B0001AFA529D0060170
:100FA0003C510001FC5D11E308E1FB5106013B5D92
:100FB000D8A002D0000109D00001010E0C01DF6FA2
:100FC0000001C2DF8A88939806D00C01DF6B000114
:100FD000BBDF8A989398FA5106013C5D08E305E16E
:100FE0000001F95106013B5D02E33C6B3B6B0001E4
:100FF000AEA103D0CB2BD8B4CC2B06013A5303E1DE
:10100000395113080FE20101738995A103D08F2B89
:10101000D8B4902B95A303D0912BD8B4922B060172
:101020003A6B396B385304E13751C708D8B084D0D4
:10103000386B376B0101738F832BD8B4842B852BCE
:10104000D8B4862B872BD8B4882B7377728FF52B67
:10105000D8B4F62B635114080CE172B50AD096B3DC
:1010600008D096A506D00001C72BD8B4C82B04D051
:1010700001010001C86BC76B01016351140810E145
:101080000001ADAF02D001010BD0010196B308D031
:1010900096A706D00001C92BD8B4CA2B04D00101F1
:1010A0000001CA6BC96BAEBD02D0AEAF14D0B55152
:1010B000010803E38B8094900DD0B551050806E339
:1010C000B551000803E28B90949004D0B551050807
:1010D00001E2B56BB52BAEA503D0E92BD8B4EA2B52
:1010E000ADAB03D0B72BD8B4B82BADAD03D0B92B73
:1010F000D8B4BA2B010195AF03D0F32BD8B4F42B9D
:1011000073AB03D0892BD8B48A2B782D01D003D0B0
:10111000785102080BE18B2BD8B48C2B010E2527BC
:10112000D8B0262BD8B4272BD8B4282B73AD03D036
:101130008D2BD8B48E2B06019E9000013AEF00F063
:10114000CE0ECC6EF52BD8B4F62BF72BD8B4F82BEB
:10115000F65303E1F5513B0802E2F66BF56BF651ED
:1011600001015E5D0CE308E15D510001F55DD8A071
:1011700002D0010104D001018B84949402D08B949D
:1011800094940001F85303E1F7513B0802E2F86B35
:10119000F76BF851C25D07E303E1C151F75D03E26C
:1011A0008B82949202D08B9294929E923AEF00F0AE
:1011B00070616765204269656E76656E696461007D
:1011C000626B636D643D30007061676520507269C9
:1011D0006E636970616C0000626B636D643D30002A
:1011E000626B636D643D30007061676520436C61C4
:1011F0007665000070616765205072696E63697082
:10120000616C0000746974756C6F2E7478743D2283
:10121000436C617665204E75657661220000646FCF
:101220006576656E74730000746974756C6F2E74E6
:1012300078743D22436C6176652041637475616CFE
:101240002200646F6576656E74730000746974754E
:101250006C6F2E7478743D22436C61766520546502
:10126000636E69636F220000646F6576656E7473E8
:101270000000746974756C6F2E7478743D22496E29
:10128000677265736520436C61766522000070614A
:10129000676520436C617665436F72726563746144
:1012A00000007061676520436C617665426164008F
:1012B0007061676520436F6E66696700706167657E
:1012C000205072696E636970616C000070616765BF
:1012D00020436C6176650000746974756C6F2E74C0
:1012E00078743D22436C617665204E756576612287
:1012F000000070616765205072696E636970616C8F
:101300000000746974756C6F2E7478743D22436CA0
:10131000617665204E7565766122000070616765B3
:10132000205072696E636970616C0000706167655E
:1013300020546573740070616765205072696E6334
:101340006970616C0000706167652043616C69625F
:10135000000070616765205072696E636970616C2E
:10136000000066656368612E7478743D224665638B
:1013700068613A253032752F253032752F3230258D
:1013800030327520486F72613A20253032753A2527
:101390003032753A2530327522007061676520520F
:1013A00065640000706167652046656368610000E0
:1013B0007061676520436C617665000070616765E8
:1013C0002054657374007061676520436C617665B5
:1013D00000007061676520477261666963610000A3
:1013E0007061676520416C61726D617300007061AE
:1013F0006765205072696E636970616C000070618E
:101400006765205072696E636970616C000070617D
:10141000676520436C6176650000746974756C6F54
:101420002E7478743D2250726F6772616D61202551
:1014300030324C752C205061736F2025303275226C
:101440000000746974756C6F2E7478743D2250724C
:101450006F6772616D61202530324C752046696E70
:10146000616C697A61646F220000746974756C6FD5
:101470002E7478743D2243616D61726120436C6902
:101480006D6174696361204A5020496E676C6F62B8
:10149000616C220066656368612E7478743D224633
:1014A000656368613A253032752F253032752F32E9
:1014B000302530327520202020486F72613A202577
:1014C0003032753A253032753A25303275220000B7
:1014D000706167652054656D7065726174757261C5
:1014E0000000706167652048756D65646164000087
:1014F00070616765205469656D706F007061676524
:1015000020416A75737465730000706167652052CD
:10151000616D70617300706167652056656C6F6303
:101520006964616400007374617475732E747874F7
:101530003D225075657274612063657272616461E9
:10154000220062342E7069633D35320062352E70A0
:1015500069633D35320062362E7069633D35320075
:101560007468756D656461642E7478743D22487585
:101570006D65646164220000737461747573542E28
:101580007478743D22215465726D6F737461746F49
:10159000212200007468756D656461642E7478742E
:1015A0003D2248756D6564616422000062352E70CD
:1015B00069633D353200737461747573482E7478B5
:1015C000743D22446574656E69646F22000074681E
:1015D000756D656461642E7478743D222153696E63
:1015E00020416775612122007468756D65646164CE
:1015F0002E7478743D2248756D6564616422000024
:1016000062352E7069633D35310062342E70696336
:101610003D353200737461747573542E7478743D63
:1016200022446574656E69646F22000062342E7016
:1016300069633D35310062342E7069633D35310098
:1016400062352E7069633D35310062362E706963F4
:101650003D353100737461747573482E7478743D30
:10166000222D2D2D2D2D2200737461747573542E2F
:101670007478743D222D2D2D2D2D220073746174EC
:1016800075732E7478743D22507565727461206193
:10169000626965727461220062342E7069633D353F
:1016A000310062352E7069633D35310062362E702F
:1016B00069633D353100737461747573542E7478A9
:1016C000743D2246696E616C697A61646F22000024
:1016D000737461747573482E7478743D2246696E14
:1016E000616C697A61646F22000074656D70657267
:1016F00061747572612E7478743D2254313A2531CB
:101700002E3166B04322000074656D70657261749D
:101710007572612E7478743D2254313A2D2D2D2D21
:101720002D22000074656D7065726174757261328E
:101730002E7478743D2254323A25312E3166B043EE
:10174000220074656D7065726174757261322E74F9
:1017500078743D2254323A2D2D2D2D2D2200737494
:10176000656D70657261747572612E7478743D2256
:101770005345543A25312E3166B043220000736838
:10178000756D656461642E7478743D225345543AD6
:101790002530337525252022000068756D6564614C
:1017A000642E7478743D2248523A2530332E3166C7
:1017B0002525220068756D656461642E7478743D1A
:1017C0002248523A313030252522000068756D6577
:1017D0006461642E7478743D2248523A2D2D2D2D6B
:1017E0002200737469656D706F2E7478743D225396
:1017F00045543A253032753A25303275202848480C
:101800003A4D4D2922007469656D706F2E7478749D
:101810003D22253032753A25303275202200706F16
:1018200074542E7478743D22502E543A25322E3042
:101830006620252520502E483A25322E3066202558
:10184000252200007374617475732E7478743D22C0
:1018500046696E616C697A61646F2200436F6E66DF
:1018600069672E7432632E7478743D2250726F70E3
:101870006F7263696F6E616C22007433632E7478CB
:10188000743D222575220000436F6E6669672E74D1
:1018900032632E7478743D2244657269766174698E
:1018A000766F22007433632E7478743D222575227E
:1018B0000000436F6E6669672E7432632E7478740D
:1018C0003D22496E74656772616C22007433632E29
:1018D0007478743D222575220000436F6E66696737
:1018E0002E7432632E7478743D22546369636C6F76
:1018F00022007433632E7478743D22257522000013
:10190000436F6E6669672E7432632E7478743D225D
:10191000416A75737465202B22007433632E7478CA
:10192000743D222575220000436F6E6669672E7430
:1019300032632E7478743D22416A75737465202D6C
:1019400022007433632E7478743D222575220000C2
:10195000436F6E6669672E7432632E7478743D220D
:101960004D656469612200007433632E7478743DA0
:10197000222575220000436F6E6669672E743263FC
:101980002E7478743D224D656469612048756D221E
:1019900000007433632E7478743D22257522000094
:1019A000436F6E6669672E7432632E7478743D22BD
:1019B000416A7573746532202B2200007433632EE4
:1019C0007478743D222575220000436F6E66696746
:1019D0002E7432632E7478743D22416A7573746577
:1019E00032202D2200007433632E7478743D22253A
:1019F00075220000436F6E6669672E7432632E7421
:101A000078743D224D7565737472656F220074336E
:101A1000632E7478743D2225303375220000436FA5
:101A20006E6669672E7432632E7478743D22543169
:101A30002048756D6564616422007433632E747888
:101A4000743D2225303275220000436F6E6669674F
:101A50002E7432632E7478743D2254322048756D92
:101A60006564616422007433632E7478743D2225AA
:101A7000303275220000436F6E6669672E743263E0
:101A80002E7478743D2254332048756D656461640A
:101A900022007433632E7478743D2225303275220F
:101AA0000000436F6E6669672E7432632E7478741B
:101AB0003D2274436F6E67656C6122007433632E40
:101AC0007478743D222530334C752200436F6E6666
:101AD00069672E7432632E7478743D22744469737E
:101AE000706C617922007433632E7478743D222502
:101AF000303375220000436F6E6669672E7432635F
:101B00002E7478743D22502E2048756D6564616492
:101B100022007433632E7478743D222575220000F0
:101B2000436F6E6669672E7432632E7478743D223B
:101B300074446566726F7374322200007433632ECE
:101B40007478743D222530334C75220070616765CE
:101B500020416A757374657300000C0EEA6EA00E66
:101B6000E96EEF500DE0060E016E006A002EFED702
:101B7000012EFBD77B0E006E002EFED7EF2EF3D783
:101B800012000C01886B885107080DE3D890873349
:101B900002E28C9C01D08C8C959C959A8C8A959AAB
:101BA0008C9A882BF0D700011200959E8C8E85CCE4
:101BB00087FCE7DF86CC87FCE4DF959E8C9E1200D5
:101BC000959E8C8E82CC87FCDCDF958C100E006E8F
:101BD000002EFED700000C01836B8351070819E328
:101BE000958C83BC02D0D89001D0D8808433959A4C
:101BF0008C8A200E006E002EFED700D00000959A31
:101C00008C9A200E006E002EFED700D00000832B91
:101C1000E4D7959E8C9E84CC01F000011200959E25
:101C20008C9E200E006E002EFED700D00000959AEC
:101C30008C9A8E0E0C01856F866B0001B6DF900EBC
:101C40000C01856FA40E866F0001AFDF810E0C01C1
:101C5000826F0001B5DF01C07EFC0C017E51800B5C
:101C600006E0800E856F866B00019FDF0C0100018E
:101C7000AAEF8AF00C017F5302E18B9001D08B8098
:101C8000949000011200F2CF7FFCF29CF29EAA6AAF
:101C90007ECCA9FFA69CA69EA680A8500C017FBD65
:101CA000F28C7FBFF28E016E000112008E0E006E6C
:101CB000D0CC01F0CFCC02F0036A015209E102C09E
:101CC00001F0026A080E005E015202E1006A08D0CB
:101CD000D89001BE04D0023601360006F9D7019E25
:101CE00012000C01C451D8B4A5D0D06FC851D8B4DB
:101CF000A1D0D05F05E37F0ED027D8B09BD006D00F
:101D0000810ED05FD8A096D0D8B494D0D0CC00F0BB
:101D1000016A026A036ACF6BC5CCCEFCCE8FC6CCFB
:101D2000CDFCC7CCCCFC190ED06FCB51CC5F0DE2F3
:101D3000010ECD5F0AE2CE5F08E2CF5F06E2CF2B55
:101D4000CE2BCD2BCB51CC2728D0CA51CD5F12E260
:101D5000010ECE5F0FE2CF5F0DE2CF2BCE2BCA512B
:101D6000CD27CB51CC2719E3CD2B17E1CE2B15E195
:101D7000CF2B13D0C9518009CE5F0EE2010ECF5F89
:101D80000BE2CF2BC9518009CE27CA51CD27E9E3F9
:101D9000CE2BE7E1CF2BE5D70380D02F01D00BD09E
:101DA000D890CC37CD37CE37CF37D89003360236E0
:101DB0000136D137BAD7D1A106D0D890013202323C
:101DC0000332D13302D0000635E0D1BF1ED0D89007
:101DD000CC37CD37CE37CF37CB51CC5F07E2010EB2
:101DE000CD5F04E2CE5F02E2CF5F1AE3CA51CD5F5E
:101DF00005E2010ECE5F02E2CF5F12E3C951800916
:101E0000CE5F03E2010ECF5F0BE3032A09E1022A52
:101E100007E1012A05E1002A0DE001320232033216
:101E2000C5CCD0FCC951D01BD0AF02D0018E06D09A
:101E3000019E04D0006A016A026A036A000112006E
:101E4000800ED8A202D00C01D41B0C01D96BDA6B26
:101E5000D0CCD8FCD451D81BCF51D8B4DFD0D76F59
:101E6000006ED351D8B4E3D0D75FD8B483D03EE36B
:101E7000D4CCDDFCDD8FD5CCDCFCD6CCDBFCDA6B46
:101E8000D890DD33DC33DB33DA33D72FF8D7D8AF54
:101E900003D0D981E0D0D991D791D9890C0EEA6EBF
:101EA000D20EE96EEBD0D999D8BF0AD0D7A113D002
:101EB000DD33DC33DB33DA33002AD8B4C7D00BD0C0
:101EC000DDBF0CD0D890DA37DB37DC37DD370006E2
:101ED000D8B4BCD0F5D7D98D6DD0D99DD0CCD8FC95
:101EE000D0AF02D0DD8FABD0DD9FA9D0D3CCD7FC53
:101EF000D3CC00F0CF51D75FD0CCDDFCDD8FD1CC7F
:101F0000DCFCD2CCDBFCDA6BD890DD33DC33DB33AA
:101F1000DA33D72FF8D7D8AF03D0D9839CD0D99351
:101F2000D791D98B0C0EEA6ED60EE96EA7D0D99B4D
:101F3000D8BF0AD0D7A113D0DD33DC33DB33DA339B
:101F4000002AD8B483D00BD0DDBF0CD0D890DA37BC
:101F5000DB37DC37DD370006D8B478D0F5D7D98F3A
:101F600029D0D99FD4CCD8FCD4AF02D0DD8F67D094
:101F7000DD9F65D0D4CCDDFCDD8FD5CCDCFCD6CCB0
:101F8000DBFCD8AF04D0DD9FD98565D0D995DA6B5D
:101F9000D7910C0EEA6ED20EE96E70D0D8BF1CD06D
:101FA000D0CCD8FCD7A106D0DD33DC33DB33DA3339
:101FB000002A4CE0DAAF0BD0DB2B09E1DC2B07E188
:101FC000DD2B05E1DD33DC33DB33002A3FE0D9BD17
:101FD00084D7D9BFC6D71CD0800EDD1BDDAF04D09F
:101FE0003AD0D4CCD8FC0AD0D0CCD8FCDD5306E112
:101FF000DC5304E1DB5302E1006A21D0DDBF08D0ED
:10200000D890DA37DB37DC37DD37002EF7D71ED034
:10201000D8AF02D0DD8F13D0DD9F11D0D3CC00F02C
:10202000D4CCDDFCD5CCDCFCD6CCDBFC08D0CFCCD2
:1020300000F0D0CCDDFCD1CCDCFCD2CCDBFCDDCCA8
:1020400001F0DCCC02F0DBCC03F034D0006A016A92
:10205000026A036A2FD0DA6BDB1FDC1FDD1FDA1F79
:10206000DA2B05E1DB2B03E1DC2B01E1DD2BD9B120
:1020700012D7D9B354D7D9B589D7B3D7EF50DB2707
:1020800005E3DC2B03E1DD2BD8B4D781ED52EF5013
:10209000DC2703E3DD2BD8B4D781ED52EF50EFBE40
:1020A00001D0800ADD27D8B0D781D9B9FCD6D9BBF9
:1020B0003ED774D7000112000C017E6B0001E3DDF6
:1020C00001C07DF1050E0C01A06F000146DD010E7F
:1020D0000C017E6F0001D7DD01C07CF1050E0C0103
:1020E000A06F00013ADD020E0C017E6F0001CBDD16
:1020F00001C039F2050E0C01A06F00012EDD030EA8
:102100000C017E6F0001BFDD0C01D06B01C0CFFC64
:102110000001CCDD03C041F202C040F201C03FF239
:1021200000C03EF2050E0C01A06F000116DD41C299
:10213000C7FC40C2C6FC3FC2C5FC3EC2C4FC0C0189
:10214000CB6BCA6B200EC96F820EC86F0001C9DD50
:1021500003C041F202C040F201C03FF200C03EF2B3
:102160000C01D06B39C2CFFC0001A0DDD89203C0B6
:10217000D2FC02C0D1FC01C0D0FC00C0CFFC41C2E7
:10218000D6FC40C2D5FC3FC2D4FC3EC2D3FC58DED4
:1021900003C000F102C0FFF001C0FEF000C0FDF07E
:1021A000040E0C017E6F00016EDD01C0D0F0050E43
:1021B0000C01A06F0001D1DC050E0C017E6F000147
:1021C00062DD01C0B4F0050E0C01A06F0001C5DC9A
:1021D000060E0C017E6F000156DD0C01D06B01C0B4
:1021E000CFFC000163DD03C01CF102C01BF101C084
:1021F0001AF100C019F1050E0C01A06F0001ADDC51
:10220000F2CF7EFCF29CF29EAA6A070EA96EA69CF3
:10221000A69EA680A8500C017EBDF28C7EBFF28ED9
:102220000001F26BF16F050E0C01A06F000195DC4F
:10223000F2CF7EFCF29CF29EAA6A080EA96EA69CC2
:10224000A69EA680A8500C017EBDF28C7EBFF28EA9
:102250000001C46BC36F050E0C01A06F00017DDC93
:10226000090E0C017E6F00010EDD01C0B3F0050EFA
:102270000C01A06F000171DC0A0E0C017E6F0001E1
:1022800002DD01C074F1050E0C01A06F000165DCD8
:102290000B0E0C017E6F0001F6DC01C075F1050E1E
:1022A0000C01A06F000159DC0C0E0C017E6F0001C7
:1022B000EADC01C076F1050E0C01A06F00014DDCD7
:1022C0000D0E0C017E6F0001DEDC01C077F1050E02
:1022D0000C01A06F000141DC140E0C017E6F0001A7
:1022E000D2DC01C0D1F0050E0C01A06F000135DC7D
:1022F000150E0C017E6F0001C6DC01C0CFF0050E8B
:102300000C01A06F000129DC160E0C017E6F00018C
:10231000BADC0C01D06B01C0CFFC0001C7DC03C0EC
:1023200029F202C028F201C027F200C026F2050EF1
:102330000C01A06F000111DC29C2C7FC28C2C6FC39
:1023400027C2C5FC26C2C4FC0C01CB6BCA6B200E95
:10235000C96F820EC86F0001C4DC03C029F202C03D
:1023600028F201C027F200C026F21B0E0C017E6F7E
:10237000000189DC0C01D06B01C0CFFC000196DCB0
:1023800003C03DF102C03CF101C03BF100C03AF195
:10239000050E0C01A06F0001ADEC0DF01E0E0C013E
:1023A0007E6F000170DC0C01D06B01C0CFFC00011E
:1023B0007DDC03C02DF102C02CF101C02BF100C067
:1023C0002AF1050E0C01A06F0001ADEC0DF01F0EFF
:1023D0000C017E6F000157DC01C0D8F0050E0C0126
:1023E000A06F0001ADEC0DF0200E0C017E6F00011E
:1023F0004ADC01C0D9F0050E0C01A06F0001ADEC64
:102400000DF0210E0C017E6F00013DDC01C0DCF0FF
:10241000050E0C01A06F0001ADEC0DF0220E0C01B9
:102420007E6F000130DC01C0DDF0050E0C01A06FF5
:102430000001ADEC0DF0230E0C017E6F000123DCDA
:1024400001C0DEF0050E0C01A06F0001ADEC0DF037
:10245000240E0C017E6F000116DC01C0DAF0050EBF
:102460000C01A06F0001ADEC0DF0250E0C017E6F8C
:10247000000109DC01C0DFF0050E0C01A06F0001B6
:10248000ADEC0DF0260E0C017E6F000143EC0EF05A
:1024900001C0E0F0050E0C01A06F0001ADEC0DF0E5
:1024A000270E0C017E6F000143EC0EF001C0DBF043
:1024B000050E0C01A06F0001ADEC0DF0280E0C0113
:1024C0007E6F000143EC0EF001C049F2050E0C01D5
:1024D000A06F0001ADEC0DF0290E0C017E6F000124
:1024E00043EC0EF001C04CF2050E0C01A06F000190
:1024F000ADEC0DF02A0E0C017E6F000143EC0EF0E6
:1025000001C04BF2050E0C01A06F0001ADEC0DF007
:102510002B0E0C017E6F000143EC0EF001C04DF25A
:10252000050E0C01A06F0001ADEC0DF02C0E0C019E
:102530007E6F000143EC0EF001C0B0F0050E0C01FF
:10254000A06F0001ADEC0DF02D0E0C017E6F0001AF
:1025500043EC0EF001C0B1F0050E0C01A06F0001BC
:10256000ADEC0DF02E0E0C017E6F000143EC0EF071
:1025700001C0B2F0050E0C01A06F0001ADEC0DF032
:10258000F2CF7EFCF29CF29EAA6A180EA96EA69C5F
:10259000A69EA680A8500C017EBDF28C7EBFF28E56
:1025A000D06BCF6F000156EC0EF003C018F102C0E3
:1025B00017F101C016F100C015F10A0E0C01A06F51
:1025C0000001ADEC0DF018C1C7FC17C1C6FC16C167
:1025D000C5FC15C1C4FC0C01CB6BCA6B200EC96FC6
:1025E000820EC86F000171EC0EF003C018F102C03A
:1025F00017F101C016F100C015F10A0E0C01A06F11
:102600000001ADEC0DF0F2CF7EFCF29CF29EAA6AC6
:10261000170EA96EA69CA69EA680A8500C017EBD92
:10262000F28C7EBFF28ED06BCF6F000156EC0EF0B5
:10263000D89203C0D2FC02C0D1FC01C0D0FC00C0C3
:10264000CFFC18C1D6FC17C1D5FC16C1D4FC15C1EE
:10265000D3FC20EC0FF003C010F102C00FF101C059
:102660000EF100C00DF10A0E0C01A06F0001ADECDF
:102670000DF0F2CF7EFCF29CF29EAA6A1A0EA96EB1
:10268000A69CA69EA680A8500C017EBDF28C7EBFA3
:10269000F28ED06BCF6F000156EC0EF003C018F134
:1026A00002C017F101C016F100C015F10A0E0C01AD
:1026B000A06F0001ADEC0DF018C1C7FC17C1C6FC3E
:1026C00016C1C5FC15C1C4FC0C01CB6BCA6B200E36
:1026D000C96F820EC86F000171EC0EF003C018F1D3
:1026E00002C017F101C016F100C015F10A0E0C016D
:1026F000A06F0001ADEC0DF0F2CF7EFCF29CF29EDB
:10270000AA6A190EA96EA69CA69EA680A8500C01C6
:102710007EBDF28C7EBFF28ED06BCF6F000156EC87
:102720000EF0D89203C0D2FC02C0D1FC01C0D0FC94
:1027300000C0CFFC18C1D6FC17C1D5FC16C1D4FC13
:1027400015C1D3FC20EC0FF003C014F102C013F14B
:1027500001C012F100C011F10A0E0C01A06F0001BE
:10276000ADEC0DF02F0E0C017E6F000143EC0EF06E
:1027700001C06CF6050E0C01A06F0001ADEC0DF070
:10278000300E0C017E6F000143EC0EF001C06DF6BF
:10279000050E0C01A06F0001ADEC0DF0310E0C0127
:1027A0007E6F000143EC0EF001C06EF6050E0C01C9
:1027B000A06F0001ADEC0DF0320E0C017E6F000138
:1027C00043EC0EF001C06FF6050E0C01A06F000186
:1027D000ADEC0DF0330E0C017E6F000143EC0EF0FA
:1027E00001C070F6050E0C01A06F0001ADEC0DF0FC
:1027F000340E0C017E6F000143EC0EF001C071F647
:10280000050E0C01A06F0001ADEC0DF0350E0C01B2
:102810007E6F000143EC0EF001C072F6050E0C0154
:10282000A06F0001ADEC0DF0360E0C017E6F0001C3
:1028300043EC0EF001C073F6050E0C01A06F000111
:10284000ADEC0DF0370E0C017E6F000143EC0EF085
:1028500001C074F6050E0C01A06F0001ADEC0DF087
:10286000380E0C017E6F000143EC0EF001C075F6CE
:10287000050E0C01A06F0001ADEC0DF0390E0C013E
:102880007E6F000143EC0EF001C076F6050E0C01E0
:10289000A06F0001ADEC0DF03A0E0C017E6F00014F
:1028A00043EC0EF001C077F6050E0C01A06F00019D
:1028B000ADEC0DF0DFEF8AF0F250006EF29CF29E6C
:1028C000AA6A80CCA9FF7FCCA8FFA69CA69EA6845E
:1028D0000F01550EA76EAA0EA76EA682A6B2FED74E
:1028E000A6940050F21200011200CCCCD3FC0C01D3
:1028F000D051D31BD3AF05D0D894D890CCBFD880BB
:102900002FD0CCCCD3FCCFCCD4FCCB51D45F06E0C1
:10291000D3AF26D0D850010AD86E22D0D0CCD4FC68
:10292000CC51D45F06E0D3AF1BD0D850010AD86E8B
:1029300017D0D1CCD4FCCD51D45F06E0D3AF10D0AA
:10294000D850010AD86E0CD0D2CCD4FCCE51D45F72
:1029500006E0D3AF05D0D850010AD86E01D0D89088
:10296000000112008E0E006E0C01CB51005ECCCC2B
:1029700002F0CDCC01F0028E005209E0D890025254
:1029800002E1015204E002320132002EF7D7CCAF4F
:1029900005D0011E021E012AD8B4022A000112002D
:1029A00001017D513B080EE20A0E7D6F0C017F6F25
:1029B000806B000181DF140E0C01A06F0001ADECF3
:1029C0000DF001017C5163080FE20A0E7C6F0C01CF
:1029D0007F6F010E806F00016FDF140E0C01A06F7E
:1029E0000001ADEC0DF001010C01CE6BCD6B0C0EB6
:1029F000CC6F850ECB6F00C1D2FCFFC0D1FCFEC0F6
:102A0000D0FCFDC0CFFC000170DF10E200C1CEFCA5
:102A1000FFC0CDFCFEC0CCFCFDC0CBFC0C01D26BDA
:102A2000D16BD06BCF6B000160DF21E30101006B44
:102A30000001FF6B700EFE6F830EFD6F640E0C01C4
:102A40007F6F020E806F000137DF140E0C01A06F44
:102A50000001ADEC0DF00C017F6B030E806F0001E7
:102A60002BDF140E0C01A06F0001ADEC0DF00C017A
:102A7000D06BD0C0CFFC000156EC0EF00C01CE6B39
:102A8000CD6B340ECC6F850ECB6F03C0D2FC02C071
:102A9000D1FC01C0D0FC00C0CFFC000126DF19E250
:102AA0000C01D06BD0C0CFFC000156EC0EF003C07F
:102AB000CEFC02C0CDFC01C0CCFC00C0CBFC0C01A4
:102AC000D26BD16B200ED06F820ECF6F00010DDF65
:102AD0000EE33C0ED06F0C017F6F040E806F00017F
:102AE000EBDE140E0C01A06F0001ADEC0DF0B45143
:102AF000500803E3B45109080EE3140EB46F0C013F
:102B00007F6F050E806F0001D7DE140E0C01A06FE1
:102B10000001ADEC0DF00C01CE6BCD6B480ECC6F0F
:102B2000860ECB6F1CC1D2FC1BC1D1FC1AC1D0FCDC
:102B300019C1CFFC0001D9DE11E21CC1CEFC1BC1C2
:102B4000CDFC1AC1CCFC19C1CBFC0C01D26BD16BF2
:102B5000D06B7F0ECF6F0001C8DE14E301011C6B48
:102B60001B6B140E1A6F850E196F4A0E0C017F6FC6
:102B7000060E806F0001A0DE140E0C01A06F000194
:102B8000ADEC0DF0F25307E1F151C80804E3F15345
:102B900011E1F2530FE1F26BC80EF16F0C017F6F80
:102BA000070E806F000188DE140E0C01A06F00017B
:102BB000ADEC0DF0C45307E1C351C80804E3C3539F
:102BC00011E1C4530FE1C46B3C0EC36F0C017F6F66
:102BD000080E806F000170DE140E0C01A06F000162
:102BE000ADEC0DF0B3513C0802E3B3530EE1050E1A
:102BF000B36F0C017F6F090E806F00015DDE140E54
:102C00000C01A06F0001ADEC0DF001017451090839
:102C100011E202D000A00ED0746B0C017F6B0A0E83
:102C2000806F000149DE140E0C01A06F0001ADECB5
:102C30000DF001017551090811E202D000A00ED07B
:102C4000756B0C017F6B0B0E806F000135DE140E6F
:102C50000C01A06F0001ADEC0DF0010176510908E7
:102C600011E202D000A00ED0766B0C017F6B0C0E2F
:102C7000806F000121DE140E0C01A06F0001ADEC8D
:102C80000DF001017751090811E202D000A00ED029
:102C9000776B0C017F6B0D0E806F00010DDE140E43
:102CA0000C01A06F0001ADEC0DF001010001D1514C
:102CB00001080DE2D16B0C017F6B140E806F0001D7
:102CC000FBDD140E0C01A06F0001ADEC0DF00C014A
:102CD000CE6BCD6B200ECC6F810ECB6F29C2D2FC98
:102CE00028C2D1FC27C2D0FC26C2CFFC0001FDDDEA
:102CF00010E229C2CEFC28C2CDFC27C2CCFC26C2E1
:102D0000CBFC0C01D26BD16BD06BCF6B0001EDDD36
:102D100016E1CD0E0201296FCC0E286F4C0E276FE5
:102D20007C0E266F020E0C017F6F160E806F000165
:102D3000C3DD140E0C01A06F0001ADEC0DF00C0111
:102D4000CE6BCD6B200ECC6F830ECB6F3DC1D2FC12
:102D50003CC1D1FC3BC1D0FC3AC1CFFC0001C5DD78
:102D600011E23DC1CEFC3CC1CDFC3BC1CCFC3AC123
:102D7000CBFC0C01D26BD16BD06B7F0ECF6F0001FF
:102D8000B4DD13E301013D6B3C6B3B6B800E3A6F8E
:102D9000020E0C017F6F1B0E806F00018DDD140E83
:102DA0000C01A06F0001ADEC0DF00C01CE6BCD6BF2
:102DB000200ECC6F830ECB6F2DC1D2FC2CC1D1FC69
:102DC0002BC1D0FC2AC1CFFC00018FDD11E22DC147
:102DD000CEFC2CC1CDFC2BC1CCFC2AC1CBFC0C0100
:102DE000D26BD16BD06B7F0ECF6F00017EDD13E312
:102DF00001012D6B2C6B2B6B800E2A6F020E0C01C8
:102E00007F6F1E0E806F000157DD140E0C01A06F46
:102E10000001ADEC0DF0D851500803E3D85104087F
:102E20000EE3500ED86F0C017F6F1F0E806F0001F4
:102E300043DD140E0C01A06F0001ADEC0DF0D95173
:102E4000040802E3D9530EE1010ED96F0C017F6F24
:102E5000200E806F000130DD140E0C01A06F000108
:102E6000ADEC0DF0DC51140803E3DC5104080EE373
:102E7000050EDC6F0C017F6F210E806F00011CDDE1
:102E8000140E0C01A06F0001ADEC0DF0DD516408D3
:102E90000DE2DD6B0C017F6B220E806F00010CDDFB
:102EA000140E0C01A06F0001ADEC0DF0DE516408B2
:102EB0000DE2DE6B0C017F6B230E806F0001FCDCEA
:102EC000140E0C01A06F0001ADEC0DF0DA515008AA
:102ED00003E3DA5109080EE3500EDA6F0C017F6F3D
:102EE000240E806F0001E8DC140E0C01A06F0001BD
:102EF000ADEC0DF0DF5164080DE2DF6B0C017F6B70
:102F0000250E806F0001D8DC140E0C01A06F0001AB
:102F1000ADEC0DF0E05164080DE2E06B0C017F6B4D
:102F2000260E806F0001C8DC140E0C01A06F00019A
:102F3000ADEC0DF0DB51500803E3DB5109080EE363
:102F4000280EDB6F0C017F6F270E806F0001B4DC51
:102F5000140E0C01A06F0001ADEC0DF002014953FD
:102F60000FE1140E496F0C017F6F280E806F000176
:102F7000A3DC140E0C01A06F0001ADEC0DF00201FA
:102F80004C5101080EE24C6B0C017F6B290E806FD7
:102F9000000192DC140E0C01A06F0001ADEC0DF0ED
:102FA00002014B5101080EE24B6B0C017F6B2A0EA4
:102FB000806F000181DC140E0C01A06F0001ADECEC
:102FC0000DF002014D5101080EE24D6B0C017F6BBB
:102FD0002B0E806F000170DC140E0C01A06F00013D
:102FE000ADEC0DF002010001B0513C0802E3B0531A
:102FF0000EE10A0EB06F0C017F6F2C0E806F000186
:103000005BDC140E0C01A06F0001ADEC0DF0B151B2
:103010003C0803E3B15103080EE31E0EB16F0C012F
:103020007F6F2D0E806F000147DC140E0C01A06F26
:103030000001ADEC0DF0B2513C0802E3B2530EE1D9
:10304000060EB26F0C017F6F2E0E806F000134DC14
:10305000140E0C01A06F0001ADEC0DF00C01CE6B55
:10306000CD6B200ECC6F830ECB6F10C1D2FC0FC185
:10307000D1FC0EC1D0FC0DC1CFFC000136DC11E249
:1030800010C1CEFC0FC1CDFC0EC1CCFC0DC1CBFCE0
:103090000C01D26BD16BD06B7E0ECF6F000125DCA3
:1030A0003FE30101106B0F6B0E6B7F0E0D6FF25043
:1030B000006EF29CF29EAA6A320EA96E010EA86EF4
:1030C000A69CA69EA6840F01550EA76EAA0EA76EFB
:1030D000A682A6B2FED7A6940050F212140E0C01DE
:1030E000A06F0001ADEC0DF0F250006EF29CF29E6C
:1030F000AA6A330EA96EA86AA69CA69EA6840F0192
:10310000550EA76EAA0EA76EA682A6B2FED7A694EB
:103110000050F212140E0C01A06F0001ADEC0DF086
:103120000C01CE6BCD6B200ECC6F840ECB6F14C117
:10313000D2FC13C1D1FC12C1D0FC11C1CFFC0001E3
:1031400075EC14F013E214C1CEFC13C1CDFC12C116
:10315000CCFC11C1CBFC0C01D26BD16B200ED06F1B
:10316000810ECF6F000175EC14F040E30101146B88
:10317000136B200E126F810E116FF250006EF29CD5
:10318000F29EAA6A340EA96E050EA86EA69CA69E93
:10319000A6840F01550EA76EAA0EA76EA682A6B230
:1031A000FED7A6940050F212140E0C01A06F00017D
:1031B000ADEC0DF0F250006EF29CF29EAA6A350E54
:1031C000A96EA86AA69CA69EA6840F01550EA76E9E
:1031D000AA0EA76EA682A6B2FED7A6940050F2123F
:1031E000140E0C01A06F0001ADEC0DF02DC1CEFC52
:1031F0002CC1CDFC2BC1CCFC2AC1CBFCB2EC14F011
:1032000001C0F7F13DC1CEFC3CC1CDFC3BC1CCFCC3
:103210003AC1CBFCB2EC14F00C01D06B01C0CFFC76
:10322000000156EC0EF003C041F102C040F101C0B4
:103230003FF100C03EF1E46BD8C0E3F0E1EF8AF06B
:103240000C019B35006E0036FC0E001600C001F02C
:10325000C250C30B0010C26E010EA06F0001ADEC96
:103260000DF0C282C2B2FED7C4CFD0FCC3CFCFFC18
:10327000000156EC0EF003C09FFC02C09EFC01C092
:103280009DFC00C09CFC9CCC00F09DCC01F09ECC31
:1032900002F09FCC03F012000C01CB51D8B471D0D6
:1032A000006ECF51D8B46DD0002604E3810E002605
:1032B00068E204D07F0E005E64E363E0CCCCD3FC14
:1032C000D051D31BCC8FD08FCE51D203F4CFD5FCAD
:1032D000CD51D103F4CF03F0F3CFD4FCD203F3509C
:1032E000D527F450D423000E0322CE51D103F3503E
:1032F000D527F450D423000E026A03220222CC51B7
:10330000D203F350D427F4500322000E0222CC51F2
:10331000D103F3500326F4500222000E016A012269
:10332000CE51D003F350D427F4500322000E0222D2
:103330000122CD51D003F3500326F4500222000E97
:103340000122CC51D003F3500226F4500122002A6E
:1033500001BE05D0D4370336023601360006000E12
:10336000D4AF0AD0032A02220122015005E1025003
:1033700003E1035001E1002AD3BF018ED3AF019EC8
:1033800004D0006A016A026A036A000112000C019B
:10339000846B836B826B816B886B876B866B856BB1
:1033A0000201156B146B136B126B0101FD6BFC6B4F
:1033B000FB6BFA6B010E0C019B6F000141DF03C038
:1033C000CEFC02C0CDFC01C0CCFC00C0CBFCB2ECFA
:1033D00014F002C080FC01C07FFC010E0C017E5D78
:1033E00001016A5D02E001E36A6BD8906A35036A05
:1033F0004F0FE96E020E0320EA6E80CCECFFED5217
:103400007FCCEFFF6A2B696B0C017E510101695D76
:1034100038E2D8906935036A4F0FE96E020E032037
:10342000EA6EECCF03F0ED52EFCFCFFC03C0D0FC3F
:10343000000156EC0EF0EACF8EFCE9CF8DFCD8925D
:10344000FDC1D2FCFCC1D1FCFBC1D0FCFAC1CFFC58
:1034500003C0D6FC02C0D5FC01C0D4FC00C0D3FC24
:1034600020EC0FF08ECCEAFF8DCCE9FF03C0FDF11C
:1034700002C0FCF101C0FBF100C0FAF10101692BAF
:10348000C3D70C01D06B7ECCCFFC000156EC0EF004
:10349000FDC1C7FCFCC1C6FCFBC1C5FCFAC1C4FC34
:1034A00003C0CBFC02C0CAFC01C0C9FC00C0C8FC00
:1034B00071EC0EF003C005F202C004F201C003F289
:1034C00000C002F205C2C7FC04C2C6FC03C2C5FCB0
:1034D00002C2C4FCB80E0C01CB6F1E0ECA6F530E95
:1034E000C96F850EC86F000171EC0EF003C005F2C4
:1034F00002C004F201C003F200C002F2D89205C279
:10350000D2FC04C2D1FC03C2D0FC02C2CFFCD70E55
:103510000C01D66FA30ED56F6C0ED46F820ED36FD5
:10352000000120EC0FF003C005F202C004F201C05C
:1035300003F200C002F20C01C76BC00EC66F7F0E13
:10354000C56F880EC46F05C2CBFC04C2CAFC03C29F
:10355000C9FC02C2C8FC000171EC0EF003C090FC73
:1035600002C08FFC01C08EFC00C08DFCD88203C05D
:10357000D2FC02C0D1FC01C0D0FC00C0CFFC0C01C9
:10358000D66BD56BD46B7F0ED36F000120EC0FF0A0
:103590000C01C76B800EC66F540EC56F8B0EC46FC7
:1035A00003C0CBFC02C0CAFC01C0C9FC00C0C8FCFF
:1035B000000171EC0EF003C015F202C014F201C05C
:1035C00013F200C012F215C2CEFC14C2CDFC13C21D
:1035D000CCFC12C2CBFC15C2D2FC14C2D1FC13C26B
:1035E000D0FC12C2CFFC58DE03C090FC02C08FFC9E
:1035F00001C08EFC00C08DFC03C0CEFC02C0CDFC1F
:1036000001C0CCFC00C0CBFC63C6D2FC62C6D1FCBE
:1036100061C6D0FC60C6CFFC3FDE03C090FC02C098
:103620008FFC01C08EFC00C08DFC15C2CEFC14C204
:10363000CDFC13C2CCFC12C2CBFC67C6D2FC66C662
:10364000D1FC65C6D0FC64C6CFFC26DED89290CCF7
:10365000D2FC8FCCD1FC8ECCD0FC8DCCCFFC03C067
:10366000D6FC02C0D5FC01C0D4FC00C0D3FC20ECC9
:103670000FF003C090FC02C08FFC01C08EFC00C0A4
:103680008DFCD89203C0D2FC02C0D1FC01C0D0FC9A
:1036900000C0CFFC6BC6D6FC6AC6D5FC69C6D4FC9C
:1036A00068C6D3FC20EC0FF003C00DF202C00CF290
:1036B00001C00BF200C00AF20C01D06BDDC0CFFCE0
:1036C000000156EC0EF003C084FC02C083FC01C074
:1036D00082FC00C081FC84CCC7FC83CCC6FC82CCBD
:1036E000C5FC81CCC4FC0C01CB6BCA6B200EC96F2E
:1036F000820EC86F000171EC0EF003C084FC02C0A2
:1037000083FC01C082FC00C081FC0C01D06BDEC0D8
:10371000CFFC000156EC0EF003C088FC02C087FC11
:1037200001C086FC00C085FC88CCC7FC87CCC6FCE9
:1037300086CCC5FC85CCC4FC0C01CB6BCA6B200EBF
:10374000C96F820EC86F000171EC0EF003C088FCD7
:1037500002C087FC01C086FC00C085FCD88284CCF6
:10376000D2FC83CCD1FC82CCD0FC81CCCFFC88CCE9
:10377000D6FC87CCD5FC86CCD4FC85CCD3FC20EC05
:103780000FF0D8920DC2D2FC0CC2D1FC0BC2D0FCFF
:103790000AC2CFFC03C0D6FC02C0D5FC01C0D4FCD9
:1037A00000C0D3FC20EC0FF003C00DF202C00CF2FD
:1037B00001C00BF200C00AF20AC200F00BC201F015
:1037C0000CC202F00DC203F012000201196B186B5B
:1037D000176B166B016B006B0101FF6BFE6B0C012D
:1037E000846B836B826B816B020E9B6F000128DD03
:1037F00003C0CEFC02C0CDFC01C0CCFC00C0CBFCA1
:10380000B2EC14F002C080FC01C07FFC010E0C0180
:103810007E5D02013A5D02E001E33A6BD8903A35F1
:10382000036AEF0FE96E020E0320EA6E80CCECFF14
:10383000ED527FCCEFFF3A2B3B6B0C017E51020126
:103840003B5D38E2D8903B35036AEF0FE96E020E1C
:103850000320EA6EECCF03F0ED52EFCFCFFC03C0B4
:10386000D0FC000156EC0EF0EACF92FCE9CF91FCBF
:10387000D89201C2D2FC00C2D1FCFFC1D0FCFEC173
:10388000CFFC03C0D6FC02C0D5FC01C0D4FC00C0F4
:10389000D3FC20EC0FF092CCEAFF91CCE9FF03C0FF
:1038A00001F202C000F201C0FFF100C0FEF102010E
:1038B0003B2BC3D70C01D06B7ECCCFFC000156EC68
:1038C0000EF001C2C7FC00C2C6FCFFC1C5FCFEC1B0
:1038D000C4FC03C0CBFC02C0CAFC01C0C9FC00C0D0
:1038E000C8FC71EC0EF003C009F202C008F201C07E
:1038F00007F200C006F209C2C7FC08C2C6FC07C234
:10390000C5FC06C2C4FCB80E0C01CB6F1E0ECA6FFC
:10391000530EC96F850EC86F000171EC0EF003C025
:1039200009F202C008F201C007F200C006F2D89204
:1039300009C2D2FC08C2D1FC07C2D0FC06C2CFFC2F
:10394000D70E0C01D66FA30ED56F6C0ED46F820EFE
:10395000D36F000120EC0FF003C009F202C008F29F
:1039600001C007F200C006F20C01C76BC00EC66FA3
:103970007F0EC56F880EC46F09C2CBFC08C2CAFC9B
:1039800007C2C9FC06C2C8FC000171EC0EF003C0FE
:1039900094FC02C093FC01C092FC00C091FCD88250
:1039A00003C0D2FC02C0D1FC01C0D0FC00C0CFFCDF
:1039B0000C01D66BD56BD46B7F0ED36F000120EC5E
:1039C0000FF00C01C76B800EC66F540EC56F8B0EC7
:1039D000C46F03C0CBFC02C0CAFC01C0C9FC00C05C
:1039E000C8FC000171EC0EF003C019F202C018F21D
:1039F00001C017F200C016F219C2CEFC18C2CDFCED
:103A000017C2CCFC16C2CBFC19C2D2FC18C2D1FC26
:103A100017C2D0FC16C2CFFC3FDC03C094FC02C02E
:103A200093FC01C092FC00C091FC03C0CEFC02C01C
:103A3000CDFC01C0CCFC00C0CBFC63C6D2FC62C68E
:103A4000D1FC61C6D0FC60C6CFFC26DC03C094FC70
:103A500002C093FC01C092FC00C091FC19C2CEFCD4
:103A600018C2CDFC17C2CCFC16C2CBFC67C6D2FC78
:103A700066C6D1FC65C6D0FC64C6CFFC0DDCD8920E
:103A800094CCD2FC93CCD1FC92CCD0FC91CCCFFC8A
:103A900003C0D6FC02C0D5FC01C0D4FC00C0D3FCDE
:103AA00020EC0FF003C094FC02C093FC01C092FC18
:103AB00000C091FCD89203C0D2FC02C0D1FC01C06E
:103AC000D0FC00C0CFFC6BC6D6FC6AC6D5FC69C66C
:103AD000D4FC68C6D3FC20EC0FF003C011F202C086
:103AE00010F201C00FF200C00EF20C01D06BDFC06B
:103AF000CFFC000156EC0EF003C088FC02C087FC2E
:103B000001C086FC00C085FC88CCC7FC87CCC6FC05
:103B100086CCC5FC85CCC4FC0C01CB6BCA6B200EDB
:103B2000C96F820EC86F000171EC0EF003C088FCF3
:103B300002C087FC01C086FC00C085FC0C01D06B74
:103B4000E0C0CFFC000156EC0EF003C08CFC02C0BC
:103B50008BFC01C08AFC00C089FC8CCCC7FC8BCCE0
:103B6000C6FC8ACCC5FC89CCC4FC0C01CB6BCA6BEF
:103B7000200EC96F820EC86F000171EC0EF003C0F9
:103B80008CFC02C08BFC01C08AFC00C089FCD8827E
:103B900088CCD2FC87CCD1FC86CCD0FC85CCCFFCA9
:103BA0008CCCD6FC8BCCD5FC8ACCD4FC89CCD3FC79
:103BB00020EC0FF0D89211C2D2FC10C2D1FC0FC27F
:103BC000D0FC0EC2CFFC03C0D6FC02C0D5FC01C0A5
:103BD000D4FC00C0D3FC20EC0FF003C011F202C0F3
:103BE00010F201C00FF200C00EF20EC200F00FC2C0
:103BF00001F010C202F011C203F012000C01CA91D0
:103C0000BECCC3FCBDCCC2FCBCCCC1FCBBCCC0FC9C
:103C1000BECCCEFCBDCCCDFCBCCCCCFCBBCCCBFC60
:103C2000D26BD16BD06BCF6B000175EC14F006E357
:103C30000C01CA81C151800AC16F0001C3CCCEFC06
:103C4000C2CCCDFCC1CCCCFCC0CCCBFC0C01D26B2B
:103C5000D16BD06B8E0ECF6F000175EC14F001E2CA
:103C600019E1C3CCCEFCC2CCCDFCC1CCCCFCC0CCC9
:103C7000CBFCB2EC14F002C0D0FC01C0CFFC56EC7F
:103C80000EF003C0C7FC02C0C6FC01C0C5FC00C0EA
:103C9000C4FCD3D0C3CCCEFCC2CCCDFCC1CCCCFCBC
:103CA000C0CCCBFC800E0C01D26F960ED16F180EDB
:103CB000D06F960ECF6F000175EC14F0D8A0B5D080
:103CC000C3CCCEFCC2CCCDFCC1CCCCFCC0CCCBFC9C
:103CD0000C01D26BD16BD06B700ECF6F00014CEC2E
:103CE00019F003C0CEFC02C0CDFC01C0CCFC00C06A
:103CF000CBFCB2EC14F002C0C9FC01C0C8FCC3CCC0
:103D0000CEFCC2CCCDFCC1CCCCFCC0CCCBFC0C01DD
:103D1000D26BD16BD06B700ECF6F00014CEC19F0F1
:103D200003C0CEFC02C0CDFC01C0CCFC00C0CBFC6B
:103D3000C9CCD0FCC8CCCFFC56EC0EF0D882CECC8F
:103D4000D2FCCDCCD1FCCCCCD0FCCBCCCFFC03C0B6
:103D5000D6FC02C0D5FC01C0D4FC00C0D3FC20ECD2
:103D60000FF00C01CE6BCD6BCC6B8E0ECB6F03C006
:103D7000D2FC02C0D1FC01C0D0FC00C0CFFC0001CD
:103D80004CEC19F003C0C3FC02C0C2FC01C0C1FC72
:103D900000C0C0FCC9CCD0FCC8CCCFFC56EC0EF0A7
:103DA0000C01CE6BCD6BCC6B8E0ECB6F03C0D2FCF7
:103DB00002C0D1FC01C0D0FC00C0CFFC00014CEC23
:103DC00019F003C0C7FC02C0C6FC01C0C5FC00C09E
:103DD000C4FCC3CCCEFCC2CCCDFCC1CCCCFCC0CC92
:103DE000CBFCB2EC14F002C0D0FC01C0CFFC56EC0E
:103DF0000EF0D892C7CCD2FCC6CCD1FCC5CCD0FC3E
:103E0000C4CCCFFC03C0D6FC02C0D5FC01C0D4FC9E
:103E100000C0D3FC20EC0FF003C0C7FC02C0C6FCFE
:103E200001C0C5FC00C0C4FC08D0C3CCC7FCC2CCD8
:103E3000C6FCC1CCC5FCC0CCC4FCC3CCCEFCC2CC3F
:103E4000CDFCC1CCCCFCC0CCCBFCB2EC14F002C09D
:103E5000D0FC01C0CFFC56EC0EF0D882C3CCD2FC13
:103E6000C2CCD1FCC1CCD0FCC0CCCFFC03C0D6FCB2
:103E700002C0D5FC01C0D4FC00C0D3FC20EC0FF084
:103E800003C0C3FC02C0C2FC01C0C1FC00C0C0FC36
:103E90000C01CAA103D0C551800AC56FC3CCCEFCAA
:103EA000C2CCCDFCC1CCCCFCC0CCCBFCD26BD16B9A
:103EB000D06BCF6B000175EC14F03CE00C01CAA193
:103EC0001CD0BF531AE1D882C7CCD2FCC6CCD1FCDF
:103ED000C5CCD0FCC4CCCFFCD66BD56BD46B7F0EDD
:103EE000D36F000120EC0FF003C0C7FC02C0C6FC7A
:103EF00001C0C5FC00C0C4FC0C01CAB11CD0BF2D60
:103F00001AD0D892C7CCD2FCC6CCD1FCC5CCD0FC40
:103F1000C4CCCFFCD66BD56BD46B7F0ED36F0001B6
:103F200020EC0FF003C0C7FC02C0C6FC01C0C5FCFA
:103F300000C0C4FC0C01BECCCEFCBDCCCDFCBCCCC6
:103F4000CCFCBBCCCBFCD26BD16BD06BCF6B00016C
:103F500075EC14F006E10C01C76BC66BC56BC46B46
:103F60000001C4CC00F0C5CC01F0C6CC02F0C7CC37
:103F700003F01200BACCBEFCB9CCBDFCB8CCBCFC82
:103F8000B7CCBBFC010E0C01BF6F000137DE37EF71
:103F900020F0BACCBEFCB9CCBDFCB8CCBCFCB7CCD4
:103FA000BBFC0C01BF6B000129DE5BEF20F0AECC47
:103FB000CEFCADCCCDFCACCCCCFCABCCCBFC0C016A
:103FC000D26BD16BD06BCF6B000175EC14F0D8B411
:103FD000A0D0AACCC7FCA9CCC6FCA8CCC5FCA7CC59
:103FE000C4FCAECCCBFCADCCCAFCACCCC9FCABCCDD
:103FF000C8FC71EC0EF003C0B6FC02C0B5FC01C0F9
:10400000B4FC00C0B3FC03C0CEFC02C0CDFC01C0B8
:10401000CCFC00C0CBFC0C01D26BD16BD06BCF6B56
:10402000000175EC14F024E3AACCC7FCA9CCC6FCB3
:10403000A8CCC5FCA7CCC4FCAECCCBFCADCCCAFC98
:10404000ACCCC9FCABCCC8FC71EC0EF003C0B6FC28
:1040500002C0B5FC01C0B4FC00C0B3FC03C0BAFC94
:1040600002C0B9FC01C0B8FC00C0B7FC83D723D0A4
:10407000AACCC7FCA9CCC6FCA8CCC5FCA7CCC4FC68
:10408000AECCCBFCADCCCAFCACCCC9FCABCCC8FC38
:1040900071EC0EF003C0B6FC02C0B5FC01C0B4FC6C
:1040A00000C0B3FC03C0BAFC02C0B9FC01C0B8FC3C
:1040B00000C0B7FC6ED703C0B2FC02C0B1FC01C0A7
:1040C000B0FC00C0AFFCB2CCCEFCB1CCCDFCB0CCCF
:1040D000CCFCAFCCCBFCAECCD2FCADCCD1FCACCCD0
:1040E000D0FCABCCCFFC4CEC19F0D882AACCD2FCE3
:1040F000A9CCD1FCA8CCD0FCA7CCCFFC03C0D6FC6B
:1041000002C0D5FC01C0D4FC00C0D3FC20EC0FF0F1
:1041100000D012008E0E006EC2CC01F0C1CC02F0B5
:10412000036A01AE05D0011E021E022A01E1012A26
:10413000015209E102C001F0026A080E005E01525C
:1041400002E1006A0ED0D89001BE04D002360136DA
:104150000006F9D70C01C2AF02D0000102D0019EC7
:1041600000011200AECCB2FCADCCB1FCACCCB0FCCA
:10417000ABCCAFFCB2CCCEFCB1CCCDFCB0CCCCFC4B
:10418000AFCCCBFC0C01D26BD16BD06B7F0ECF6F61
:10419000000175EC14F0D8B49ED10C0E0C01C16F67
:1041A000AF0EE96EC1CCEAFF7E0EEF6ED882B2CCC4
:1041B000D2FCB1CCD1FCB0CCD0FCAFCCCFFCD66B18
:1041C000D56BD46B7F0ED36F000120EC0FF003C0D2
:1041D000C3FC02C0C2FC01C0C1FC00C0C0FCD8923C
:1041E000B2CCD2FCB1CCD1FCB0CCD0FCAFCCCFFCAB
:1041F0000C01D66BD56BD46B7F0ED36F000120EC16
:104200000FF0C3CCC7FCC2CCC6FCC1CCC5FCC0CC33
:10421000C4FC03C0CBFC02C0CAFC01C0C9FC00C086
:10422000C8FC71EC0EF003C0B2FC02C0B1FC01C0CE
:10423000B0FC00C0AFFCB2CCCEFCB1CCCDFCB0CC5D
:10424000CCFCAFCCCBFCB2CCD2FCB1CCD1FCB0CC52
:10425000D0FCAFCCCFFC4CEC19F003C0BEFC02C0CC
:10426000BDFC01C0BCFC00C0BBFC990E0C01CE6FB4
:10427000470ECD6F8A0ECC6F7F0ECB6FBECCD2FCBB
:10428000BDCCD1FCBCCCD0FCBBCCCFFC00014CECF9
:1042900019F003C0C3FC02C0C2FC01C0C1FC00C0D5
:1042A000C0FCD89203C0D2FC02C0D1FC01C0D0FC3B
:1042B00000C0CFFC0C01D66BD56BD46B800ED36FD6
:1042C000000120EC0FF003C0B6FC02C0B5FC01C039
:1042D000B4FC00C0B3FC4C0E0C01CE6FF30ECD6FDE
:1042E0003A0ECC6F7B0ECB6FBECCD2FCBDCCD1FCDA
:1042F000BCCCD0FCBBCCCFFC00014CEC19F003C013
:10430000C3FC02C0C2FC01C0C1FC00C0C0FCD8920A
:1043100003C0D2FC02C0D1FC01C0D0FC00C0CFFC65
:104320002B0E0C01D66F9D0ED56FDF0ED46F7E0E57
:10433000D36F000120EC0FF003C0BAFC02C0B9FC3F
:1043400001C0B8FC00C0B7FCBACCCEFCB9CCCDFCE7
:10435000B8CCCCFCB7CCCBFCBECCD2FCBDCCD1FC19
:10436000BCCCD0FCBBCCCFFC4CEC19F003C0C3FCE4
:1043700002C0C2FC01C0C1FC00C0C0FCD89203C096
:10438000D2FC02C0D1FC01C0D0FC00C0CFFC0C01AB
:10439000D66BD56BD46B7F0ED36F000120EC0FF082
:1043A00003C0BAFC02C0B9FC01C0B8FC00C0B7FC35
:1043B000B2CCCEFCB1CCCDFCB0CCCCFCAFCCCBFCE9
:1043C000B6CCD2FCB5CCD1FCB4CCD0FCB3CCCFFCB9
:1043D0004CEC19F003C0C3FC02C0C2FC01C0C1FC1C
:1043E00000C0C0FC03C0C7FC02C0C6FC01C0C5FCC5
:1043F00000C0C4FCBACCCBFCB9CCCAFCB8CCC9FC5C
:10440000B7CCC8FC71EC0EF003C0B6FC02C0B5FC22
:1044100001C0B4FC00C0B3FC0C0E0C01C16FAB0EAC
:10442000E96EC1CCEAFF7E0EEF5CBF6FBFAF14D068
:10443000000ED880BF55C26BC16FC1BFC20700015B
:1044400069DE00C0B7FC0150800A0C01B86F02C0E1
:10445000B9FC03C0BAFC10D0C26BBFCCC1FCC1BF59
:10446000C207000157DE03C0BAFC02C0B9FC01C09C
:10447000B8FC00C0B7FC0C01BACCCEFCB9CCCDFC6A
:10448000B8CCCCFCB7CCCBFC180ED26F720ED16F6F
:10449000310ED06F7E0ECF6F00014CEC19F0D89228
:1044A000B6CCD2FCB5CCD1FCB4CCD0FCB3CCCFFCD8
:1044B00003C0D6FC02C0D5FC01C0D4FC00C0D3FCB4
:1044C00020EC0FF003C0B6FC02C0B5FC01C0B4FC88
:1044D00000C0B3FC06D00C01B66BB56BB46BB36B0C
:1044E0000001B3CC00F0B4CC01F0B5CC02F0B6CCF6
:1044F00003F01200AECCCEFCADCCCDFCACCCCCFCF1
:10450000ABCCCBFC3B0E0C01D26FAA0ED16F380E98
:10451000D06F7F0ECF6F00014CEC19F003C0CEFCC2
:1045200002C0CDFC01C0CCFC00C0CBFCB2EC14F04E
:1045300001C0BBFC0C01BC91AECCB2FCADCCB1FC5B
:10454000ACCCB0FCABCCAFFCAECCCEFCADCCCDFC9F
:10455000ACCCCCFCABCCCBFCD26BD16BD06BCF6BEF
:10456000000175EC14F007E30C01BC81BB6DB05188
:10457000800AB06F00010C01B66BB56BB46BB36B06
:104580000C0EBE6FB30EE96EBECCEAFF7F0EBB25EC
:10459000EF6EB2CCCEFCB1CCCDFCB0CCCCFCAFCC71
:1045A000CBFC3B0ED26FAA0ED16F380ED06F7F0EB0
:1045B000CF6F00014CEC19F003C0C0FC02C0BFFC7F
:1045C00001C0BEFC00C0BDFC0C01C26BBBCCC1FC79
:1045D000C1BFC20700019EDDD882C0CCD2FCBFCCD7
:1045E000D1FCBECCD0FCBDCCCFFC03C0D6FC02C0FD
:1045F000D5FC01C0D4FC00C0D3FC20EC0FF003C0FC
:10460000B2FC02C0B1FC01C0B0FC00C0AFFC7C0E2B
:104610000C01CE6F880ECD6F590ECC6F720ECB6F22
:10462000B2CCD2FCB1CCD1FCB0CCD0FCAFCCCFFC66
:1046300000014CEC19F003C0C0FC02C0BFFC01C07B
:10464000BEFC00C0BDFCD89203C0D2FC02C0D1FCAD
:1046500001C0D0FC00C0CFFCE00E0C01D66F970E5D
:10466000D56F260ED46F750ED36F000120EC0FF0BE
:1046700003C0BAFC02C0B9FC01C0B8FC00C0B7FC62
:10468000BACCCEFCB9CCCDFCB8CCCCFCB7CCCBFCF6
:10469000B2CCD2FCB1CCD1FCB0CCD0FCAFCCCFFCF6
:1046A0004CEC19F003C0C0FC02C0BFFC01C0BEFC52
:1046B00000C0BDFCD89203C0D2FC02C0D1FC01C036
:1046C000D0FC00C0CFFCC40E0C01D66F1D0ED56F00
:1046D0001E0ED46F780ED36F000120EC0FF003C0D4
:1046E000BAFC02C0B9FC01C0B8FC00C0B7FCBACC2F
:1046F000CEFCB9CCCDFCB8CCCCFCB7CCCBFCB2CC8E
:10470000D2FCB1CCD1FCB0CCD0FCAFCCCFFC4CECCB
:1047100019F003C0C0FC02C0BFFC01C0BEFC00C059
:10472000BDFCD89203C0D2FC02C0D1FC01C0D0FCB9
:1047300000C0CFFC5E0E0C01D66F500ED56F630E1D
:10474000D46F7A0ED36F000120EC0FF003C0BAFCD7
:1047500002C0B9FC01C0B8FC00C0B7FCBACCCEFCAA
:10476000B9CCCDFCB8CCCCFCB7CCCBFCB2CCD2FC19
:10477000B1CCD1FCB0CCD0FCAFCCCFFC4CEC19F020
:1047800003C0C0FC02C0BFFC01C0BEFC00C0BDFC39
:10479000D89203C0D2FC02C0D1FC01C0D0FC00C042
:1047A000CFFC1A0E0C01D66FFE0ED56F750ED46FAE
:1047B0007C0ED36F000120EC0FF003C0BAFC02C0E6
:1047C000B9FC01C0B8FC00C0B7FCBACCCEFCB9CC77
:1047D000CDFCB8CCCCFCB7CCCBFCB2CCD2FCB1CCB1
:1047E000D1FCB0CCD0FCAFCCCFFC4CEC19F003C06A
:1047F000C0FC02C0BFFC01C0BEFC00C0BDFCD89222
:1048000003C0D2FC02C0D1FC01C0D0FC00C0CFFC70
:10481000180E0C01D66F720ED56F310ED46F7E0E4E
:10482000D36F000120EC0FF003C0BAFC02C0B9FC4A
:1048300001C0B8FC00C0B7FCB2CCCEFCB1CCCDFC02
:10484000B0CCCCFCAFCCCBFCBACCD2FCB9CCD1FC3C
:10485000B8CCD0FCB7CCCFFC4CEC19F0D8920C0102
:10486000D26BD16BD06B7F0ECF6F03C0D6FC02C072
:10487000D5FC01C0D4FC00C0D3FC000120EC0FF03B
:10488000B6CCCEFCB5CCCDFCB4CCCCFCB3CCCBFC04
:1048900003C0D2FC02C0D1FC01C0D0FC00C0CFFCE0
:1048A0004CEC19F003C0B6FC02C0B5FC01C0B4FC6E
:1048B00000C0B3FC0C01BCA119D0C76BC66BC56BA3
:1048C0007F0EC46FB6CCCBFCB5CCCAFCB4CCC9FC53
:1048D000B3CCC8FC000171EC0EF003C0B6FC02C002
:1048E000B5FC01C0B4FC00C0B3FC0C01B3CC00F0BB
:1048F000B4CC01F0B5CC02F0B6CC03F0000112004C
:10490000A2CCCEFCA1CCCDFCA0CCCCFC9FCCCBFCD3
:104910000C01D26BD16BD06BCF6B000175EC14F036
:10492000D8A0D9D0A6CCAAFCA5CCA9FCA4CCA8FC24
:10493000A3CCA7FC0C01AE6BAD6BAC6B7F0EAB6F69
:104940000001D7EC1FF003C0AAFC02C0A9FC01C003
:10495000A8FC00C0A7FC03C0CEFC02C0CDFC01C077
:10496000CCFC00C0CBFC0C01D26BD16BD06BCF6BFD
:10497000000175EC14F0D8A4AED0A6CCAAFCA5CC4E
:10498000A9FCA4CCA8FCA3CCA7FC0C01AE6BAD6B1E
:10499000AC6B800EAB6F0001D7EC1FF003C0AAFC1C
:1049A00002C0A9FC01C0A8FC00C0A7FC03C0CEFC4B
:1049B00002C0CDFC01C0CCFC00C0CBFC0C01D26B12
:1049C000D16BD06BCF6B000175EC14F041E19FCC43
:1049D000A7FC0C01A051800AA86FA1CCA9FCA2CC15
:1049E000AAFCA2CCAEFCA1CCADFCAC6F9FCCABFCC6
:1049F0000001B2EC20F003C0AAFC02C0A9FC01C077
:104A0000A8FC00C0A7FC03C0CEFC02C0CDFC01C0C6
:104A1000CCFC00C0CBFCA6CCD2FCA5CCD1FCA4CC59
:104A2000D0FCA3CCCFFC4CEC19F003C0AAFC02C014
:104A3000A9FC01C0A8FC00C0A7FC03C0AEFC02C0DA
:104A4000ADFC01C0ACFC00C0ABFC54DDDDD042D0FD
:104A50009FCCA7FC0C01A051800AA86FA1CCA9FC97
:104A6000A2CCAAFCA2CCAEFCA1CCADFCAC6F9FCC7E
:104A7000ABFC0001B2EC20F003C0AAFC02C0A9FC10
:104A800001C0A8FC00C0A7FC03C0CEFC02C0CDFC46
:104A900001C0CCFC00C0CBFCA6CCD2FCA5CCD1FC88
:104AA000A4CCD0FCA3CCCFFC4CEC19F003C0AAFCE6
:104AB00002C0A9FC01C0A8FC00C0A7FC03C0AEFC5A
:104AC00002C0ADFC01C0ACFC00C0ABFC13DD800E2D
:104AD000011A9AD099D0A2CCCEFCA1CCCDFCA0CC0E
:104AE000CCFC9FCCCBFC0C01D26BD16BD06BCF6BD1
:104AF000000175EC14F030E3A6CCAAFCA5CCA9FC0F
:104B0000A4CCA8FCA3CCA7FC0C01AE6BAD6BAC6B2A
:104B10007F0EAB6F0001D7EC1FF003C0AAFC02C0F0
:104B2000A9FC01C0A8FC00C0A7FC03C0CEFC02C0C9
:104B3000CDFC01C0CCFC00C0CBFC0C01D26BD16B16
:104B4000D06BCF6B000175EC14F006E0006A016ACF
:104B5000026A036A59D058D0A2CCCEFCA1CCCDFCBD
:104B6000A0CCCCFC9FCCCBFC0C01D26BD16BD06B1E
:104B7000CF6B000175EC14F012E1A6CCCEFCA5CCF5
:104B8000CDFCA4CCCCFCA3CCCBFC0C01D26BD16B68
:104B9000D06BCF6B000175EC14F001E235E1A2CCD3
:104BA000AEFCA1CCADFCA0CCACFC9FCCABFCB2EC81
:104BB00020F003C0AAFC02C0A9FC01C0A8FC00C0F0
:104BC000A7FC03C0CEFC02C0CDFC01C0CCFC00C0E1
:104BD000CBFCA6CCD2FCA5CCD1FCA4CCD0FCA3CCE5
:104BE000CFFC4CEC19F003C0AAFC02C0A9FC01C028
:104BF000A8FC00C0A7FC03C0AEFC02C0ADFC01C015
:104C0000ACFC00C0ABFC76DC12000C019B519D0398
:104C1000F3CF01F0F4CF00F09E03F35000269C5137
:104C20009D03F3500020026E000112000C01826B04
:104C3000816B806B7F6B866B856B846B836B8A6B00
:104C4000896B886B876B8E6B8D6B8C6B8B6B926BB0
:104C5000916B906B8F6B966B956B946B936B040E53
:104C60009B6F000120EC19F003C082FC02C081FCA4
:104C700001C080FC00C07FFC82CCC7FC81CCC6FC9C
:104C800080CCC5FC7FCCC4FC0C01CB6BC00ECA6FC2
:104C90007F0EC96F880EC86F000171EC0EF00C0119
:104CA000CE6BCD6B200ECC6F810ECB6F03C0D2FCD0
:104CB00002C0D1FC01C0D0FC00C0CFFC00014CEC14
:104CC00019F003C082FC02C081FC01C080FC00C05E
:104CD0007FFC030E0C019B6F000120EC19F003C058
:104CE0008EFC02C08DFC01C08CFC00C08BFC8ECC05
:104CF000C7FC8DCCC6FC8CCCC5FC8BCCC4FC0C0199
:104D0000CB6BC00ECA6F7F0EC96F880EC86F0001D3
:104D100071EC0EF00C01CE6BCD6B200ECC6F810EC2
:104D2000CB6F03C0D2FC02C0D1FC01C0D0FC00C0DC
:104D3000CFFC00014CEC19F003C08EFC02C08DFCCE
:104D400001C08CFC00C08BFC82CCCEFC81CCCDFCA5
:104D500080CCCCFC7FCCCBFC0C01D26BD16B7A0E1F
:104D6000D06F880ECF6F00014CEC19F003C082FCAD
:104D700002C081FC01C080FC00C07FFC8ECCA2FC84
:104D80008DCCA1FC8CCCA0FC8BCC9FFC0C01A66B29
:104D9000A56B400EA46F800EA36F0001B1DD03C0B0
:104DA0009EFC02C09DFC01C09CFC00C09BFC03C09B
:104DB000CEFC02C0CDFC01C0CCFC00C0CBFC1B0E65
:104DC0000C01D26F2F0ED16F9D0ED06F800ECF6F62
:104DD00000014CEC19F003C09EFC02C09DFC01C018
:104DE0009CFC00C09BFC8ECCA2FC8DCCA1FC8CCC8E
:104DF000A0FC8BCC9FFC0C01A66BA56BA46B800E5A
:104E0000A36F00017DDD03C0A2FC02C0A1FC01C0B4
:104E1000A0FC00C09FFC03C0CEFC02C0CDFC01C0C2
:104E2000CCFC00C0CBFC730E0C01D26F680ED16FAE
:104E30001E0ED06F830ECF6F00014CEC19F0EACF3D
:104E4000A0FCE9CF9FFCD8929ECCD2FC9DCCD1FC9B
:104E50009CCCD0FC9BCCCFFC03C0D6FC02C0D5FCC4
:104E600001C0D4FC00C0D3FC20EC0FF0A0CCEAFFC2
:104E70009FCCE9FF03C09EFC02C09DFC01C09CFCCE
:104E800000C09BFC8ECCCEFC8DCCCDFC8CCCCCFC65
:104E90008BCCCBFCD70E0C01D26F630ED16F920E70
:104EA000D06F850ECF6F00014CEC19F0EACFA2FC59
:104EB000E9CFA1FCD8929ECCD2FC9DCCD1FC9CCC5D
:104EC000D0FC9BCCCFFC03C0D6FC02C0D5FC01C0FB
:104ED000D4FC00C0D3FC20EC0FF0A2CCEAFFA1CCA4
:104EE000E9FF03C09EFC02C09DFC01C09CFC00C009
:104EF0009BFCEACFA4FCE9CFA3FCD89203C0D2FC70
:104F000002C0D1FC01C0D0FC00C0CFFC9A0E0C0145
:104F1000D66F190ED56F750ED46F850ED36F000145
:104F200020EC0FF0A4CCEAFFA3CCE9FF03C08AFC7D
:104F300002C089FC01C088FC00C087FC010E0C0186
:104F40007E5D0201345D02E001E3346B0C019C6B79
:104F500034C29BFC9E6B040E9D6F000156DE015017
:104F6000B70FE96E030E0220EA6E87CCEFFF88CC04
:104F7000ECFF89CCECFF8ACCECFF0201342B010161
:104F8000696B0C017E510101695D3FE20C019C6B74
:104F900069C19BFC9E6B040E9D6F000136DE02C052
:104FA00003F00150B70FE96E030E0220EA6EEFCF57
:104FB00000F0ECCF01F0ECCF02F0ECCF03F0EACF41
:104FC0009CFCE9CF9BFCD89296CCD2FC95CCD1FC32
:104FD00094CCD0FC93CCCFFC03C0D6FC02C0D5FC53
:104FE00001C0D4FC00C0D3FC20EC0FF09CCCEAFF45
:104FF0009BCCE9FF03C096FC02C095FC01C094FC69
:1050000000C093FC0101692BBCD70C01D06B7ECC96
:10501000CFFC000156EC0EF096CCC7FC95CCC6FC3C
:1050200094CCC5FC93CCC4FC03C0CBFC02C0CAFC2E
:1050300001C0C9FC00C0C8FC71EC0EF003C096FCB6
:1050400002C095FC01C094FC00C093FC96CC21F2F8
:1050500095CC20F294CC1FF293CC1EF282CCA2FC11
:1050600081CCA1FC80CCA0FC7FCC9FFC0C01A66B6A
:10507000A56B400EA46F800EA36F000141DC8D0E66
:105080000C01CE6FFB0ECD6F830ECC6F620ECB6F1B
:1050900003C0D2FC02C0D1FC01C0D0FC00C0CFFCD8
:1050A00000014CEC19F003C09EFC02C09DFC01C045
:1050B0009CFC00C09BFC82CCA2FC81CCA1FC80CCDF
:1050C000A0FC7FCC9FFC0C01A66BA56BA46B800E93
:1050D000A36F000115DCAE0E0C01CE6F160ECD6F66
:1050E000710ECC6F6E0ECB6F03C0D2FC02C0D1FC30
:1050F00001C0D0FC00C0CFFC00014CEC19F0EACF9D
:10510000A0FCE9CF9FFCD8929ECCD2FC9DCCD1FCD8
:105110009CCCD0FC9BCCCFFC03C0D6FC02C0D5FC01
:1051200001C0D4FC00C0D3FC20EC0FF0A0CCEAFFFF
:105130009FCCE9FF03C09EFC02C09DFC01C09CFC0B
:1051400000C09BFCDB0E0C01CE6F320ECD6F600EEB
:10515000CC6F760ECB6F82CCD2FC81CCD1FC80CCD4
:10516000D0FC7FCCCFFC00014CEC19F0EACFA2FCC4
:10517000E9CFA1FCD8929ECCD2FC9DCCD1FC9CCC9A
:10518000D0FC9BCCCFFC03C0D6FC02C0D5FC01C038
:10519000D4FC00C0D3FC20EC0FF0A2CCEAFFA1CCE1
:1051A000E9FF03C09EFC02C09DFC01C09CFC00C046
:1051B0009BFCEACFA4FCE9CFA3FCD88203C0D2FCBD
:1051C00002C0D1FC01C0D0FC00C0CFFC660E0C01B7
:1051D000D66FD56F460ED46F820ED36F000120ECD0
:1051E0000FF0A4CCEAFFA3CCE9FF03C09EFC02C0F1
:1051F0009DFC01C09CFC00C09BFCEACFA6FCE9CF53
:10520000A5FCD88296CCD2FC95CCD1FC94CCD0FC19
:1052100093CCCFFC0C01D66BD56B380ED46F830EBC
:10522000D36F000120EC0FF0A6CCEAFFA5CCE9FF7C
:1052300003C0AAFC02C0A9FC01C0A8FC00C0A7FCD6
:1052400003C0CEFC02C0CDFC01C0CCFC00C0CBFC36
:10525000520E0C01D26F490ED16F1D0ED06F760E1B
:10526000CF6F00014CEC19F0EACFA8FCE9CFA7FC06
:10527000D8920C01D26BD16BD06B7F0ECF6F03C075
:10528000D6FC02C0D5FC01C0D4FC00C0D3FC000198
:1052900020EC0FF0A8CCEAFFA7CCE9FF9ECCC7FC1E
:1052A0009DCCC6FC9CCCC5FC9BCCC4FC03C0CBFCF9
:1052B00002C0CAFC01C0C9FC00C0C8FC71EC0EF001
:1052C00003C086FC02C085FC01C084FC00C083FCD6
:1052D00086CCCEFC85CCCDFC84CCCCFC83CCCBFC6A
:1052E0000C01D26BD16BD06BCF6B000175EC14F05D
:1052F00006E30C01866B856B846B836B00019A0E51
:105300000C01CE6F990ECD6F190ECC6F7A0ECB6F4C
:1053100082CCD2FC81CCD1FC80CCD0FC7FCCCFFC29
:1053200000014CEC19F003C09EFC02C09DFC01C0C2
:105330009CFC00C09BFCD88203C0D2FC02C0D1FC04
:1053400001C0D0FC00C0CFFCCD0E0C01D66FCC0E3E
:10535000D56F160ED46F840ED36F000120EC0FF0C2
:1053600003C025F202C024F201C023F200C022F2E1
:10537000010E0C017E5D0001EE5303E1ED5D0DE0D9
:105380000CE3EE6BED6B0101F92BF951010804E21E
:105390000001AF870101F96B0001ED35026EEE35BA
:1053A000036E02360336FC0E02160250F70FE96E4A
:1053B000040E0320EA6E83CCEFFF84CCECFF85CC97
:1053C000ECFF86CCECFFED2BD8B4EE2B0101696B22
:1053D0000C017E510101695D3FE20C019C6B69C1CA
:1053E0009BFC9E6B040E9D6F00010FDC02C003F05E
:1053F0000150F70FE96E040E0220EA6EEFCF00F0C5
:10540000ECCF01F0ECCF02F0ECCF03F0EACF9CFC44
:10541000E9CF9BFCD89292CCD2FC91CCD1FC90CC21
:10542000D0FC8FCCCFFC03C0D6FC02C0D5FC01C0A1
:10543000D4FC00C0D3FC20EC0FF09CCCEAFF9BCC4A
:10544000E9FF03C092FC02C091FC01C090FC00C0C7
:105450008FFC0101692BBCD70C01D06B7ECCCFFC3B
:10546000000156EC0EF092CCC7FC91CCC6FC90CC5F
:10547000C5FC8FCCC4FC03C0CBFC02C0CAFC01C07D
:10548000C9FC00C0C8FC71EC0EF003C092FC02C065
:1054900091FC01C090FC00C08FFCAFA74BD0AF9730
:1054A000D651040DF350036A9F0FE96E010E0320DD
:1054B000EA6E8FCCEFFF90CCECFF91CCECFF92CC5E
:1054C000ECFFD62BD651010835E2D66BD892A2C19B
:1054D000D2FCA1C1D1FCA0C1D0FC9FC1CFFCA6C110
:1054E000D6FCA5C1D5FCA4C1D4FCA3C1D3FC20EC3F
:1054F0000FF003C09EFC02C09DFC01C09CFC00C0DC
:105500009BFC03C0C7FC02C0C6FC01C0C5FC00C0B8
:10551000C4FC0C01CB6BCA6BC96B800EC86F000159
:1055200071EC0EF003C02DF202C02CF201C02BF280
:1055300000C02AF28FCC00F090CC01F091CC02F0A8
:1055400092CC03F012000C01846B836B826B816B35
:10555000886B876B866B856B8C6B8B6B8A6B896BAF
:10556000906B8F6B8E6B8D6B9B6B000120EC19F039
:1055700003C0CEFC02C0CDFC01C0CCFC00C0CBFC03
:10558000B2EC14F002C080FC01C07FFC0201465165
:105590000C017E5D03E20201466B0C01D890020112
:1055A0004635036A8F0FE96E030E0320EA6E80CC46
:1055B000ECFFED527FCCEFFF462B476B010E0C0149
:1055C0007E5D0201475D01E038E2D8904735036A0D
:1055D0008F0FE96E030E0320EA6EECCF03F0ED525D
:1055E000EFCFCFFC03C0D0FC000156EC0EF0EACFA9
:1055F00092FCE9CF91FCD89284CCD2FC83CCD1FC34
:1056000082CCD0FC81CCCFFC03C0D6FC02C0D5FC40
:1056100001C0D4FC00C0D3FC20EC0FF092CCEAFF18
:1056200091CCE9FF03C084FC02C083FC01C082FC72
:1056300000C081FC0201472BC1D70C01D06B7ECC8E
:10564000CFFC000156EC0EF084CCC7FC83CCC6FC2A
:1056500082CCC5FC81CCC4FC03C0CBFC02C0CAFC1C
:1056600001C0C9FC00C0C8FC71EC0EF003C088FC8E
:1056700002C087FC01C086FC00C085FC0C01CE6B1B
:10568000CD6B200ECC6F810ECB6F88CCD2FC87CC3B
:10569000D1FC86CCD0FC85CCCFFC00014CEC19F0C1
:1056A00003C094FC02C093FC01C092FC00C091FCBA
:1056B00003C0C7FC02C0C6FC01C0C5FC00C0C4FCDE
:1056C0000C01CB6BC00ECA6F7F0EC96F880EC86FFE
:1056D000000171EC0EF003C08CFC02C08BFC01C019
:1056E0008AFC00C089FC8CCCC7FC8BCCC6FC8ACC65
:1056F000C5FC89CCC4FC0A0E0C01CB6FD70ECA6F57
:10570000230EC96F780EC86F000171EC0EF003C054
:1057100090FC02C08FFC01C08EFC00C08DFC8DCCC3
:1057200000F08ECC01F08FCC02F090CC03F0120090
:105730000C01835303E18251640803E2836B640E1E
:10574000826F83CC5EF182CC5DF1000112000C010E
:10575000835303E18251640803E2836B640E826F1A
:1057600083CCC2F082CCC1F0000112000900F552D6
:1057700011E0F6CF7EFCF7CF7FFCF8CF80FCF55030
:105780009EA8FED7AD6E7ECCF6FF7FCCF7FF80CC17
:10579000F8FFECD712009EA8FED7AD6E1200100ED7
:1057A000006E002EFED70000FF0EF5DF100E006E1B
:1057B000002EFED70000FF0EEEDF100E006E002E52
:1057C000FED70000FF0EE7DF100E006E002EFED7A2
:1057D000000012000C018851016A875D03E287CC4A
:1057E00000F00CD0006A080E896F873700368851A8
:1057F000005CD8B0006E0136892FF7D70001120087
:1058000083CC84FC0C018439006E0F0E001600500E
:105810000A0DF3CF83FC8439006EF00E00160050A1
:10582000003A0F0E00160050832783CC01F00001D0
:105830001200080E016E050E006E002EFED78D922E
:105840009692060E006E002EFED70C0189378D94BD
:10585000D8B09684D8A09694968284A2FED7012EC2
:1058600001D002D00001E7D7050E006E002EFED752
:105870008D92969200009684060E006E002EFED742
:10588000060E006E002EFED7968284A2FED7016A15
:10589000060E006E002EFED784B401808D92969283
:1058A0008D94969400011200080E0C01886F00C0C0
:1058B00089FC9684060E006E002EFED7968284A286
:1058C000FED784B4D88084A4D8900136050E006E2B
:1058D000002EFED796928D92882FEBD79684060ED7
:1058E000006E002EFED78D948951D8A496940000A6
:1058F000968284A2FED7050E006E002EFED78D92F2
:105900009692060E006E002EFED78D94969400019E
:10591000120072C0D2F073C0D3F074C0D4F075C05E
:10592000D5F0F6EF2CF0EC6BEB6BEC535EE1EB514A
:1059300004085BE3B00E936FEBC094F093C07EFC61
:1059400094C07FFC9684050E006E002EFED79682D2
:10595000060E006E002EFED78D949694050E006EF6
:10596000002EFED78D9296927ECC89FC62DF7FCC92
:1059700089FC5FDF9684050E006E002EFED79682AE
:10598000060E006E002EFED784A2FED78D9496944C
:10599000050E006E002EFED78D929692010E0C0120
:1059A0007E25806F896F000144DF006A7DDF01C0C2
:1059B00092F096940000968284A2FED7050E006EA7
:1059C000002EFED700D000009684050E006E002E3B
:1059D000FED7720EEB25E96E000EEC21EA6E92C046
:1059E000EFFFEB2BD8B4EC2BA0D793D7A6EF8EF01C
:1059F0000C018D6B8C6B8B6B8A6B916B906B8F6BCF
:105A00008E6B89CCCEFC88CCCDFC87CCCCFC86CCF4
:105A1000CBFC0001B2EC14F00C01D06B01C0CFFC48
:105A2000000156EC0EF003C08DFC02C08CFC01C0DE
:105A30008BFC00C08AFCD88289CCD2FC88CCD1FCFB
:105A400087CCD0FC86CCCFFC8DCCD6FC8CCCD5FCC6
:105A50008BCCD4FC8ACCD3FC20EC0FF003C095FC9B
:105A600002C094FC01C093FC00C092FC03C0CEFCB9
:105A700002C0CDFC01C0CCFC00C0CBFC0C01D26B41
:105A8000D16B200ED06F820ECF6F00014CEC19F05D
:105A900003C091FC02C090FC01C08FFC00C08EFCD2
:105AA00091CCCEFC90CCCDFC8FCCCCFC8ECCCBFC66
:105AB000B2EC14F001501200AAC1CEFCA9C1CDFC79
:105AC000A8C1CCFCA7C1CBFCB2EC14F001C032F0F1
:105AD000AAC189FCA9C188FCA8C187FCA7C186FC12
