:040000001CEF88F079
:080008005DEF00F000000000B4
:100010000000000000000000046ED8CF05F0E0CF23
:1000200006F00001E9CF0CF0EACF07F0E1CF08F0CD
:10003000E2CF09F0D9CF0AF0DACF0BF0F3CF12F00C
:10004000F4CF13F0FACF14F0FBCF15F000C00EF090
:1000500001C00FF002C010F003C011F09DA034EFFA
:1000600000F09EB0AEEF07F09DA23AEF00F09EB216
:10007000ACEF08F00EC000F00FC001F010C002F0AD
:1000800011C003F00CC0E9FF07C0EAFF078E08C0EB
:10009000E1FF09C0E2FF0AC0D9FF0BC0DAFF12C0BE
:1000A000F3FF13C0F4FF14C0FAFF15C0FBFF0450A8
:1000B00006C0E0FF05C0D8FF1000186ED8CF19F0B9
:1000C000E0CF1AF00001E9CF20F0EACF1BF0E1CF3A
:1000D0001CF0E2CF1DF0D9CF1EF0DACF1FF0F3CF26
:1000E00026F0F4CF27F0FACF28F0FBCF29F000C09C
:1000F00022F001C023F002C024F003C025F09DAA25
:1001000085EF00F09EBA74EF07F022C000F023C024
:1001100001F024C002F025C003F020C0E9FF1BC09D
:10012000EAFF1B8E1CC0E1FF1DC0E2FF1EC0D9FF0D
:100130001FC0DAFF26C0F3FF27C0F4FF28C0FAFF74
:1001400029C0FBFF18501AC0E0FF19C0D8FF1000EB
:10015000737461747573542E7478743D22215465E0
:10016000726D6F737461746F212200007374617417
:100170007573542E7478743D22436F6E74726F6C75
:10018000616E646F2200737461747573542E747899
:10019000743D224D6573657461220000737461744F
:1001A0007573542E7478743D2252616D7061202DE8
:1001B0002200737461747573542E7478743D2245F3
:1001C0006E667269616E646F220073746174757318
:1001D000542E7478743D22436F6E74726F6C616E2E
:1001E000646F2200737461747573542E7478743D57
:1001F000224D6573657461220000737461747573B8
:10020000542E7478743D2252616D7061202B22004F
:10021000737461747573542E7478743D2243616CE9
:10022000656E74616E646F2200007374617475731F
:10023000542E7478743D22215465726D6F7374610D
:10024000746F21220000737461747573542E747876
:10025000743D22436F6E74726F6C616E646F202DFB
:100260002200737461747573542E7478743D224542
:100270006E667269616E646F220073746174757367
:10028000542E7478743D22436F6E74726F6C616E7D
:10029000646F202B2200737461747573542E74780C
:1002A000743D2243616C656E74616E646F22000060
:1002B000737461747573542E7478743D222154657F
:1002C0006D702E2042616A61212200007374617496
:1002D0007573542E7478743D222154656D702E20F0
:1002E000416C746121220000737461747573542E23
:1002F0007478743D22436F6E74726F6C616E646FBC
:10030000202D2200737461747573542E7478743DBB
:1003100022456E667269616E646F22007374617447
:100320007573542E7478743D22456E667269616EE1
:10033000646F2200737461747573542E7478743D05
:1003400022436F6E74726F6C616E646F202B22009B
:10035000737461747573542E7478743D22436F6E98
:1003600074726F6C616E646F202B22007374617401
:100370007573542E7478743D2243616C656E74619C
:100380006E646F22000074254C752E7478743D22C3
:10039000253032753A25303275220000737461744D
:1003A0007573482E7478743D222148756D2E204255
:1003B000616A61212200737461747573482E7478C8
:1003C000743D222148756D2E20416C7461212200FC
:1003D000737461747573482E7478743D2248756D1A
:1003E000696469666963616E646F22007374617425
:1003F0007573482E7478743D22436F6E74726F6CFF
:10040000616E646F2200737461747573482E747822
:10041000743D22436F6E74726F6C616E646F220064
:10042000737461747573482E7478743D22446573D7
:1004300068756D696469666963616E646F22000046
:10044000737461747573482E7478743D22436F6EB3
:1004500074726F6C616E646F220073746174757373
:10046000482E7478743D22436F6E74726F6C616EA7
:10047000646F220066656368612E7478743D22465D
:10048000656368613A253032752F253032752F3219
:10049000302530327520202020486F72613A2025A7
:1004A0003032753A253032753A25303275220000E7
:1004B00070616765205072696E636970616C0000DD
:1004C000746D696E7365632E7478743D22253032C5
:1004D00075220000747365637365632E7478743DD0
:1004E0002225303275220000706167652052616DEF
:1004F00070617300746D696E7365632E7478743DFA
:100500002225303275220000747365637365632E93
:100510007478743D222530327522000063302E76C7
:10052000616C3D31000063312E76616C3D3000001E
:1005300063322E76616C3D30000063302E76616C44
:100540003D30000063312E76616C3D310000633236
:100550002E76616C3D30000063302E76616C3D304C
:10056000000063312E76616C3D30000063322E76E0
:10057000616C3D31000066656368612E7478743D7E
:100580002246656368613A253032752F2530327511
:100590002F32302530327520202020486F72613A8A
:1005A00020253032753A253032753A2530327522A1
:1005B00000007473657474656D2E7478743D222523
:1005C000322E3166220070616765205072696E6359
:1005D0006970616C00007473657474656D2E747855
:1005E000743D2225322E31662200706167652052EB
:1005F000616D7061730066656368612E7478743D27
:100600002246656368613A253032752F2530327590
:100610002F32302530327520202020486F72613A09
:1006200020253032753A253032753A253032752220
:10063000000063302E76616C3D31000063312E7610
:10064000616C3D30000063322E76616C3D300000FD
:1006500063302E76616C3D30000063312E76616C24
:100660003D31000063322E76616C3D3000007061D8
:100670006765205072696E636970616C0000747305
:10068000657474656D2E7478743D22253032752240
:100690000000706167652052616D70617300747352
:1006A000657474656D2E7478743D22253032752220
:1006B00000006231322E62636F3D3130323400000F
:1006C0006231322E62636F3D363334383800623027
:1006D0002E62636F3D313032340062302E62636FC0
:1006E0003D3633343838000062312E62636F3D315D
:1006F0003032340062312E62636F3D363334383825
:10070000000062322E62636F3D313032340062325B
:100710002E62636F3D363334383800006231312E3B
:1007200062636F3D3130323400006231312E6263DA
:100730006F3D36333438380062332E62636F3D319B
:100740003032340062332E62636F3D3633343838D2
:10075000000062362E62636F3D3130323400623603
:100760002E62636F3D3633343838000062382E62B3
:10077000636F3D313032340062382E62636F3D3634
:1007800033343838000062392E62636F3D313032C5
:10079000340062392E62636F3D36333438380000DE
:1007A0006231372E62636F3D313032340000623186
:1007B000372E62636F3D3633343838006232312E63
:1007C00062636F3D3130323400006232312E626339
:1007D0006F3D3633343838006231372E7478743DCB
:1007E000224E6976656C2042616A6F220000623297
:1007F000312E7478743D224E6976656C20416C749C
:100800006F2200006231362E7478743D22416C3ABA
:100810002530327522006231332E7478743D2241C6
:100820004443313A2530332E30662025312E31664F
:1008300022006231342E7478743D22414443323AAE
:100840002530332E30662025312E3166220062316C
:10085000352E7478743D2254313A25312E3266207B
:10086000220062352E7478743D225433353A256C5B
:10087000642200006231382E7478743D2254323A7A
:1008800025312E32662200006232302E7478743D9B
:10089000225468756D3A25312E326622000062318D
:1008A000392E7478743D2248756D3A25312E3266A2
:1008B000252522007061676520416A757374657330
:1008C00000007061676520416A757374657300008C
:1008D00074686F72612E7478743D222530327522EF
:1008E0000000746D696E75746F732E7478743D2298
:1008F000253032752200746469612E7478743D224B
:10090000253032752200746D65732E7478743D2223
:1009100025303275220074796561722E7478743DC9
:10092000222530327522000070616765205072699F
:100930006E636970616C000061646420312C302C3E
:100940002575000061646420312C312C2575000070
:1009500074302E7478743D22436F6E74726F6C2005
:1009600064652054656D70657261747572612041B3
:100970006374697661646F22000074302E74787439
:100980003D22436F6E74726F6C2064652048756DF4
:100990006564616420416374697661646F2200005C
:1009A00074302E7478743D22436F6E74726F6C20B5
:1009B00064652054656D706572617475726120792B
:1009C0002048756D65646164204163746976616473
:1009D0006F22000074302E7478743D22436F6E7461
:1009E000726F6C20706F722052616D706173204164
:1009F0006374697661646F22000074302E747874B9
:100A00003D22436F6E74726F6C6573204465736131
:100A10006374697661646F73220074656D702E74FF
:100A200078743D2225312E3166B04322000068756E
:100A30006D65642E7478743D2225312E316625252E
:100A4000220061646420312C302C25312E30660068
:100A500061646420312C312C25312E3066006970A0
:100A6000312E7478743D2225752200006970322E73
:100A70007478743D2225752200006970332E7478D5
:100A8000743D2225752200006970342E7478743DFF
:100A900022257522000067312E7478743D22257559
:100AA000220067322E7478743D2225752200673348
:100AB0002E7478743D222575220067342E74787464
:100AC0003D222575220073312E7478743D222575E0
:100AD000220073322E7478743D2225752200733300
:100AE0002E7478743D222575220073342E74787428
:100AF0003D22257522006D312E7478743D222575B6
:100B000022006D322E7478743D22257522006D33DB
:100B10002E7478743D22257522006D342E747874FD
:100B20003D22257522006D352E7478743D22257581
:100B300022006D362E7478743D2225752200706176
:100B4000676520416A757374657300006236312EE3
:100B50007478743D22494E4943494F220000623661
:100B6000312E62636F3D3130323400006236312EF7
:100B70007478743D22444554454E455222006236F5
:100B8000312E62636F3D36333438380074697472C5
:100B9000616D7061732E7478743D2250726F67724C
:100BA000616D61202530324C752C205061736F735C
:100BB0002050726F6772616D61646F7320253032EF
:100BC000752C205061736F2073656C656363696F6A
:100BD0006E61646F3A202530324C752200007465D6
:100BE0006D702E7478743D2254656D7065726174F9
:100BF0007572613A54413A25322E316643202054B1
:100C00003A25322E31664322000074656D702E74D1
:100C100078743D2254656D70657261747572613AC5
:100C200054413A2D2D2D2020543A25322E31664341
:100C300022007469656D706F2E7478743D2254695A
:100C4000656D706F3A253032753A2530327520283F
:100C500048483A4D4D29220068756D2E7478743DD0
:100C60002248756D656461643A2530337520252509
:100C70002022000074656D702E7478743D225465D6
:100C80006D70657261747572613A202D2D220000BD
:100C90007469656D706F2E7478743D225469656D4A
:100CA000706F3A2D2D3A2D2D220068756D2E7478B7
:100CB000743D2248756D656461643A202D2D2200D3
:100CC00074656D702E7478743D2254656D70657214
:100CD00061747572613A54413A25322E316643206F
:100CE00020543A25322E31664322000074656D701F
:100CF0002E7478743D2254656D70657261747572DE
:100D0000613A54413A2D2D2D2020543A25322E316E
:100D1000664322007469656D706F2E7478743D228D
:100D20005469656D706F3A253032753A25303275E9
:100D3000202848483A4D4D29220068756D2E747858
:100D4000743D2248756D656461643A2530337520C1
:100D5000252520220000706167652054656D70654F
:100D60007261747572610000706167652048756D0D
:100D700065646164000070616765205469656D7029
:100D80006F0070616765205072696E636970616C95
:100D900000007061676520496E69636961646F0076
:100DA00074697472616D7061732E7478743D222160
:100DB00050726F6772616D6120566163696F2C209C
:100DC00070726F6772616D6520616C206D656E6F0A
:100DD000732031207365676D656E746F212200008A
:100DE0007061676520496E69636961646F00706155
:100DF000676520456C696D696E61646F00007061A4
:100E000067652052616D706173007472616D70610D
:100E10002E7478743D2250726F6772616D61202567
:100E200030324C7520496E69636961646F2200003D
:100E30007472616D70612E7478743D2250726F67A8
:100E400072616D6120446574656E69646F22000093
:100E500070616765205072696E636970616C000033
:100E60007474656D702E70636F3D363535333500A3
:100E70007468756D2E70636F3D3000007468756D19
:100E80002E70636F3D363535333500007474656DF3
:100E9000702E70636F3D30007061676520416A7528
:100EA0007374657300007474656D702E7478743D8E
:100EB000222B2F2D25312E31662200007468756D8E
:100EC0002E7478743D222B2F2D25312E3066220072
:100ED0009EAAFED7ABCF2BF0AECF01F02BA202D053
:100EE000AB98AB8875EF07F0F3D701C061F1010152
:100EF0006151650802E1298B5C6B29AB0AD0036A5A
:100F00005C51510FE96E010E0320EA6E61C1EFFFE3
:100F10005C2B5C51090802E25C6B299B5C5310E17D
:100F2000515165080BE1523D09D0533D07D059534B
:100F300005E15A3D03D0050E626F02D00A0E626FC2
:100F40009E9A000185EF00F00C01E35303E08A86CE
:100F5000939602D08A969396000112009E0ECF6E51
:100F6000580ECE6E06013B2BD8B43C2B3D2BD8B48B
:100F70003E2B3F2BD8B4402B928880A80BD04251F7
:100F80000B0807E303E14151B70803E3412BD8B451
:100F9000422B02D0426B416B0001AFA529D0060164
:100FA00040510001FC5D11E308E1FB5106013F5D8A
:100FB000D8A002D0000109D00001010E0C01E36F9E
:100FC0000001C2DF8A88939806D00C01E36B000110
:100FD000BBDF8A989398FA510601405D08E305E16A
:100FE0000001F95106013F5D02E3406B3F6B0001D8
:100FF000AEA103D0CB2BD8B4CC2B06013E5303E1DA
:101000003D5113080FE20101738B95A303D08F2B81
:10101000D8B4902B95A503D0912BD8B4922B060170
:101020003E6B3D6B3C5304E13B51C708D8B090D0B8
:101030003C6B3B6B01019581832BD8B4842B852BB2
:10104000D8B4862B872BD8B4882B73797381000191
:10105000AFA906D00101F72BD8B4F82B04D00001BA
:101060000101F86BF76BF52BD8B4F62B635114081C
:101070000CE172B70AD096B508D096A706D0000149
:10108000C72BD8B4C82B04D001010001C86BC76BB3
:1010900001016351140810E10001ADAF02D001015C
:1010A0000BD0010196B508D096A906D00001C92B36
:1010B000D8B4CA2B04D001010001CA6BC96BAEBD04
:1010C00002D0AEAF14D0B551010803E38B809490E9
:1010D0000DD0B551050806E3B551000803E28B9029
:1010E000949004D0B551050801E2B56BB52BAEA5BF
:1010F00003D0E92BD8B4EA2BADAB03D0B72BD8B4CF
:10110000B82BADAD03D0B92BD8B4BA2B010196A141
:1011100003D0F32BD8B4F42B73AD03D0892BD8B400
:101120008A2B782D01D003D0785102080BE18B2B4C
:10113000D8B48C2B010E2527D8B0262BD8B4272B5A
:10114000D8B4282B73AF03D08D2BD8B48E2B0601C7
:101150009E9000013AEF00F0CE0ECC6EF52BD8B485
:10116000F62BF72BD8B4F82BF65303E1F5513B08D7
:1011700002E2F66BF56BF65101015E5D0CE308E1EE
:101180005D510001F55DD8A002D0010104D001013C
:101190008B84949402D08B9494940001F85303E1CF
:1011A000F7513B0802E2F86BF76BF851C25D07E3B9
:1011B00003E1C151F75D03E28B82949202D08B92DE
:1011C00094929E923AEF00F07061676520426965E3
:1011D0006E76656E69646100626B636D643D3000BC
:1011E00070616765205072696E636970616C0000A0
:1011F000626B636D643D3000626B636D643D300013
:101200007061676520436C61766500007061676599
:10121000205072696E636970616C00007469747546
:101220006C6F2E7478743D22436C617665204E7528
:10123000657661220000646F6576656E74730000E8
:10124000746974756C6F2E7478743D22436C61768A
:10125000652041637475616C2200646F6576656E0C
:1012600074730000746974756C6F2E7478743D2209
:10127000436C617665205465636E69636F2200007C
:10128000646F6576656E74730000746974756C6F55
:101290002E7478743D22496E677265736520436CC5
:1012A0006176652200007061676520436C61766538
:1012B000436F7272656374610000706167652043FB
:1012C0006C617665426164007061676520436F6E92
:1012D0006669670070616765205072696E63697046
:1012E000616C00007061676520436C617665000089
:1012F000746974756C6F2E7478743D22436C6176DA
:1013000065204E756576612200007061676520502A
:1013100072696E636970616C0000746974756C6FDA
:101320002E7478743D22436C617665204E75657627
:101330006122000070616765205072696E63697098
:10134000616C0000706167652054657374007061A2
:101350006765205072696E636970616C000070612E
:1013600067652043616C69620000706167652050A9
:1013700072696E636970616C000066656368612EF6
:101380007478743D2246656368613A253032752F62
:10139000253032752F32302530327520486F72611A
:1013A0003A20253032753A253032753A253032757B
:1013B0002200706167652052656400007061676596
:1013C00020466563686100007061676520436C6159
:1013D0007665000070616765205465737400706104
:1013E000676520436C617665000070616765204722
:1013F00072616669636100007061676520416C61BC
:10140000726D6173000070616765205072696E6370
:101410006970616C000070616765205072696E636D
:101420006970616C00007061676520436C6176656E
:101430000000746974756C6F2E7478743D2250725C
:101440006F6772616D61202530324C752C205061C0
:10145000736F2025303275220000746974756C6FCB
:101460002E7478743D2250726F6772616D61202511
:1014700030324C752046696E616C697A61646F2206
:101480000000746974756C6F2E7478743D2243612A
:101490006D61726120436C696D6174696361204A9A
:1014A0005020496E676C6F62616C220066656368EC
:1014B000612E7478743D2246656368613A25303246
:1014C000752F253032752F3230253032752020208F
:1014D00020486F72613A20253032753A25303275D6
:1014E0003A25303275220000706167652054656DC1
:1014F0007065726174757261000070616765204883
:10150000756D65646164000070616765205469658C
:101510006D706F007061676520416A7573746573E3
:101520000000706167652052616D70617300626CCC
:10153000757A2E7069633D3131390000626C757ABD
:101540002E7069633D3132300000626C757A2E7006
:1015500069633D3132300000626C757A2E706963C8
:10156000323D31323000626C757A2E7069633D31E4
:1015700031390000626C757A2E706963323D313109
:1015800039007374617475732E7478743D225075CC
:1015900065727461206365727261646122006234F5
:1015A0002E7069633D35320062352E7069633D35BA
:1015B000320062362E7069633D3532007468756D95
:1015C000656461642E7478743D2248756D6564614C
:1015D00064220000737461747573542E7478743DC2
:1015E00022215465726D6F737461746F2122000043
:1015F0007468756D656461642E7478743D224875F5
:101600006D6564616422000062352E7069633D354A
:101610003200737461747573482E7478743D22447B
:101620006574656E69646F2200007468756D656429
:1016300061642E7478743D222153696E2041677570
:10164000612122007468756D656461642E7478741C
:101650003D2248756D6564616422000062352E701C
:1016600069633D35310062342E7069633D35320067
:10167000737461747573542E7478743D2244657468
:10168000656E69646F22000062342E7069633D35B7
:10169000310062342E7069633D35310062352E7041
:1016A00069633D35310062362E7069633D35310026
:1016B000737461747573482E7478743D222D2D2DCA
:1016C0002D2D2200737461747573542E7478743DDB
:1016D000222D2D2D2D2D22007374617475732E749F
:1016E00078743D225075657274612061626965721B
:1016F0007461220062342E7069633D3531006235B9
:101700002E7069633D35310062362E7069633D3558
:101710003100737461747573542E7478743D22466D
:10172000696E616C697A61646F2200007374617420
:101730007573482E7478743D2246696E616C697ABF
:1017400061646F22000074656D70657261747572FA
:10175000612E7478743D2254313A25312E3166B0B1
:101760004322000074656D70657261747572612E3C
:101770007478743D2254313A2D2D2D2D2D220000E8
:1017800074656D7065726174757261322E747874EF
:101790003D2254323A25312E3166B0432200746521
:1017A0006D7065726174757261322E7478743D2249
:1017B00054323A2D2D2D2D2D22007374656D7065D8
:1017C0007261747572612E7478743D225345543A77
:1017D00025312E3166B0432200007368756D656453
:1017E00061642E7478743D225345543A2530337524
:1017F00025252022000068756D656461642E74786B
:10180000743D2248523A2530332E31662525220078
:1018100068756D656461642E7478743D2248523A2F
:10182000313030252522000068756D656461642EB5
:101830007478743D2248523A2D2D2D2D2200737458
:1018400069656D706F2E7478743D225345543A2546
:101850003032753A25303275202848483A4D4D29A6
:1018600022007469656D706F2E7478743D22253086
:1018700032753A25303275202200706F74542E7400
:1018800078743D22502E543A25322E30662025257C
:1018900020502E483A25322E306620252522000081
:1018A0007374617475732E7478743D2246696E6129
:1018B0006C697A61646F2200436F6E6669672E748B
:1018C00032632E7478743D2250726F706F72636948
:1018D0006F6E616C22007433632E7478743D222520
:1018E00075220000436F6E6669672E7432632E7432
:1018F00078743D224465726976617469766F22005E
:101900007433632E7478743D222575220000436F72
:101910006E6669672E7432632E7478743D22496E48
:1019200074656772616C22007433632E7478743D41
:10193000222575220000436F6E6669672E7432633C
:101940002E7478743D22546369636C6F2200743383
:10195000632E7478743D222575220000436F6E66F5
:1019600069672E7432632E7478743D22416A7573F0
:101970007465202B22007433632E7478743D222505
:1019800075220000436F6E6669672E7432632E7491
:1019900078743D22416A75737465202D220074337A
:1019A000632E7478743D222575220000436F6E66A5
:1019B00069672E7432632E7478743D224D656469B4
:1019C000612200007433632E7478743D22257522E1
:1019D0000000436F6E6669672E7432632E747874EC
:1019E0003D224D656469612048756D2200007433A5
:1019F000632E7478743D222575220000436F6E6655
:101A000069672E7432632E7478743D22416A75734F
:101A1000746532202B2200007433632E7478743D79
:101A2000222575220000436F6E6669672E7432634B
:101A30002E7478743D22416A7573746532202D22AC
:101A400000007433632E7478743D222575220000E3
:101A5000436F6E6669672E7432632E7478743D220C
:101A60004D7565737472656F22007433632E7478DC
:101A7000743D2225303375220000436F6E6669671E
:101A80002E7432632E7478743D2254312048756D63
:101A90006564616422007433632E7478743D22257A
:101AA000303275220000436F6E6669672E743263B0
:101AB0002E7478743D2254322048756D65646164DB
:101AC00022007433632E7478743D222530327522DF
:101AD0000000436F6E6669672E7432632E747874EB
:101AE0003D2254332048756D65646164220074336F
:101AF000632E7478743D2225303275220000436FC6
:101B00006E6669672E7432632E7478743D22744356
:101B10006F6E67656C6122007433632E7478743D58
:101B2000222530334C752200436F6E6669672E7430
:101B300032632E7478743D2274446973706C6179D9
:101B400022007433632E7478743D2225303375225D
:101B50000000436F6E6669672E7432632E7478746A
:101B60003D22502E2048756D6564616422007433F7
:101B7000632E7478743D222575220000436F6E66D3
:101B800069672E7432632E7478743D2274446566DE
:101B9000726F7374322200007433632E7478743D54
:101BA000222530334C752200436F6E6669672E74B0
:101BB00032632E7478743D22744C757A220074332B
:101BC000632E7478743D222530334C752200706189
:101BD000676520416A757374657300000C0EEA6EC8
:101BE000A40EE96EEF500DE0060E016E006A002EA5
:101BF000FED7012EFBD77B0E006E002EFED7EF2EF8
:101C0000F3D712000C018C6B8C5107080DE3D890B0
:101C10008B3302E28C9C01D08C8C959C959A8C8A9B
:101C2000959A8C9A8C2BF0D700011200959E8C8E81
:101C300089CC8BFCE7DF8ACC8BFCE4DF959E8C9E05
:101C40001200959E8C8E86CC8BFCDCDF958C100E62
:101C5000006E002EFED700000C01876B875107082D
:101C600019E3958C83BC02D0D89001D0D8808833FA
:101C7000959A8C8A200E006E002EFED700D00000B0
:101C8000959A8C9A200E006E002EFED700D0000090
:101C9000872BE4D7959E8C9E88CC01F00001120022
:101CA000959E8C9E200E006E002EFED700D0000068
:101CB000959A8C9A8E0E0C01896F8A6B0001B6DFA3
:101CC000900E0C01896FA40E8A6F0001AFDF810EA8
:101CD0000C01866F0001B5DF01C082FC0C0182514E
:101CE000800B06E0800E896F8A6B00019FDF0C017C
:101CF0000001AEEF8AF00C01835302E18B9001D01A
:101D00008B80949000011200F2CF83FCF29CF29E33
:101D1000AA6A82CCA9FFA69CA69EA680A8500C0108
:101D200083BDF28C83BFF28E016E000112008E0E15
:101D3000006ED4CC01F0D3CC02F0036A015209E169
:101D400002C001F0026A080E005E015202E1006A60
:101D500008D0D89001BE04D0023601360006F9D76B
:101D6000019E12000C01C851D8B4A5D0D46FCC513B
:101D7000D8B4A1D0D45F05E37F0ED427D8B09BD0D0
:101D800006D0810ED45FD8A096D0D8B494D0D4CC4D
:101D900000F0016A026A036AD36BC9CCD2FCD28F0D
:101DA000CACCD1FCCBCCD0FC190ED46FCF51D05FB4
:101DB0000DE2010ED15F0AE2D25F08E2D35F06E2D4
:101DC000D32BD22BD12BCF51D02728D0CE51D15FBE
:101DD00012E2010ED25F0FE2D35F0DE2D32BD22BC2
:101DE000CE51D127CF51D02719E3D12B17E1D22BD8
:101DF00015E1D32B13D0CD518009D25F0EE2010E35
:101E0000D35F0BE2D32BCD518009D227CE51D127FE
:101E1000E9E3D22BE7E1D32BE5D70380D42F01D020
:101E20000BD0D890D037D137D237D337D8900336AC
:101E300002360136D537BAD7D5A106D0D8900132AF
:101E400002320332D53302D0000635E0D5BF1ED0B2
:101E5000D890D037D137D237D337CF51D05F07E2C0
:101E6000010ED15F04E2D25F02E2D35F1AE3CE51EA
:101E7000D15F05E2010ED25F02E2D35F12E3CD51E2
:101E80008009D25F03E2010ED35F0BE3032A09E16D
:101E9000022A07E1012A05E1002A0DE0013202329F
:101EA0000332C9CCD4FCCD51D41BD4AF02D0018EA7
:101EB00006D0019E04D0006A016A026A036A00012A
:101EC0001200800ED8A202D00C01D81B0C01DD6BD1
:101ED000DE6BD4CCDCFCD851DC1BD351D8B4DFD0C2
:101EE000DB6F006ED751D8B4E3D0DB5FD8B483D0BA
:101EF0003EE3D8CCE1FCE18FD9CCE0FCDACCDFFCCE
:101F0000DE6BD890E133E033DF33DE33DB2FF8D7FD
:101F1000DCAF03D0DD81E0D0DD91DB91DD890C0EFB
:101F2000EA6ED60EE96EEBD0DD99DCBF0AD0DBA1FC
:101F300013D0E133E033DF33DE33002AD8B4C7D027
:101F40000BD0E1BF0CD0D890DE37DF37E037E13778
:101F50000006D8B4BCD0F5D7DD8D6DD0DD9DD4CCD6
:101F6000DCFCD4AF02D0E18FABD0E19FA9D0D7CCBD
:101F7000DBFCD7CC00F0D351DB5FD4CCE1FCE18FAC
:101F8000D5CCE0FCD6CCDFFCDE6BD890E133E0337F
:101F9000DF33DE33DB2FF8D7DCAF03D0DD839CD01B
:101FA000DD93DB91DD8B0C0EEA6EDA0EE96EA7D0C5
:101FB000DD9BDCBF0AD0DBA113D0E133E033DF339C
:101FC000DE33002AD8B483D00BD0E1BF0CD0D89038
:101FD000DE37DF37E037E1370006D8B478D0F5D701
:101FE000DD8F29D0DD9FD8CCDCFCD8AF02D0E18FCB
:101FF00067D0E19F65D0D8CCE1FCE18FD9CCE0FC83
:10200000DACCDFFCDCAF04D0E19FDD8565D0DD9567
:10201000DE6BDB910C0EEA6ED60EE96E70D0DCBF83
:102020001CD0D4CCDCFCDBA106D0E133E033DF33C1
:10203000DE33002A4CE0DEAF0BD0DF2B09E1E02BD2
:1020400007E1E12B05E1E133E033DF33002A3FE034
:10205000DDBD84D7DDBFC6D71CD0800EE11BE1AF4C
:1020600004D03AD0D8CCDCFC0AD0D4CCDCFCE15390
:1020700006E1E05304E1DF5302E1006A21D0E1BF51
:1020800008D0D890DE37DF37E037E137002EF7D7BA
:102090001ED0DCAF02D0E18F13D0E19F11D0D7CC9E
:1020A00000F0D8CCE1FCD9CCE0FCDACCDFFC08D0E5
:1020B000D3CC00F0D4CCE1FCD5CCE0FCD6CCDFFC1A
:1020C000E1CC01F0E0CC02F0DFCC03F034D0006AC8
:1020D000016A026A036A2FD0DE6BDF1FE01FE11F77
:1020E000DE1FDE2B05E1DF2B03E1E02B01E1E12B1D
:1020F000DDB112D7DDB354D7DDB589D7B3D7EF50F3
:10210000DF2705E3E02B03E1E12BD8B4DB81ED52BF
:10211000EF50E02703E3E12BD8B4DB81ED52EF5021
:10212000EFBE01D0800AE127D8B0DB81DDB9FCD653
:10213000DDBB3ED774D7000112000C01826B000199
:10214000E3DD01C07DF1050E0C01A46F000146DD49
:10215000010E0C01826F0001D7DD01C07CF1050E7C
:102160000C01A46F00013ADD020E0C01826F000128
:10217000CBDD01C03DF2050E0C01A46F00012EDD88
:10218000030E0C01826F0001BFDD0C01D46B01C096
:10219000D3FC0001CCDD03C045F202C044F201C013
:1021A00043F200C042F2050E0C01A46F000116DDDF
:1021B00045C2CBFC44C2CAFC43C2C9FC42C2C8FCF3
:1021C0000C01CF6BCE6B200ECD6F820ECC6F000159
:1021D000C9DD03C045F202C044F201C043F200C0B1
:1021E00042F20C01D46B3DC2D3FC0001A0DDD892B9
:1021F00003C0D6FC02C0D5FC01C0D4FC00C0D3FC97
:1022000045C2DAFC44C2D9FC43C2D8FC42C2D7FC66
:1022100058DE03C000F102C0FFF001C0FEF000C0B4
:10222000FDF0040E0C01826F00016EDD01C0D0F0E4
:10223000050E0C01A46F0001D1DC050E0C01826FAC
:10224000000162DD01C0B4F0050E0C01A46F0001B5
:10225000C5DC060E0C01826F000156DD0C01D46B4B
:1022600001C0D3FC000163DD03C01CF102C01BF1FF
:1022700001C01AF100C019F1050E0C01A46F000194
:10228000ADDCF2CF82FCF29CF29EAA6A070EA96E28
:10229000A69CA69EA680A8500C0182BDF28C82BF8F
:1022A000F28E0001F26BF16F050E0C01A46F0001BC
:1022B00095DCF2CF82FCF29CF29EAA6A080EA96E0F
:1022C000A69CA69EA680A8500C0182BDF28C82BF5F
:1022D000F28E0001C46BC36F050E0C01A46F0001E8
:1022E0007DDC090E0C01826F00010EDD01C0B3F030
:1022F000050E0C01A46F000171DC0A0E0C01826F47
:10230000000102DD01C074F1050E0C01A46F000193
:1023100065DC0B0E0C01826F0001F6DC01C075F16B
:10232000050E0C01A46F000159DC0C0E0C01826F2C
:102330000001EADC01C076F1050E0C01A46F00017A
:102340004DDC0D0E0C01826F0001DEDC01C077F167
:10235000050E0C01A46F000141DC0E0E0C01826F12
:102360000001D2DC0101FA6B01C0F9F1050E0C018C
:10237000A46F000133DC140E0C01826F0001C4DC79
:1023800001C0D1F0050E0C01A46F000127DC150E71
:102390000C01826F0001B8DC01C0CFF0050E0C010A
:1023A000A46F00011BDC160E0C01826F0001ACDC77
:1023B0000C01D46B01C0D3FC0001B9DC03C02DF2C9
:1023C00002C02CF201C02BF200C02AF2050E0C0153
:1023D000A46F000103DC2DC2CBFC2CC2CAFC2BC2B3
:1023E000C9FC2AC2C8FC0C01CF6BCE6B200ECD6F8E
:1023F000820ECC6F0001B6DC03C02DF202C02CF2BD
:1024000001C02BF200C02AF21B0E0C01826F0001EA
:102410007BDC0C01D46B01C0D3FC000188DC03C061
:102420003DF102C03CF101C03BF100C03AF1050EA4
:102430000C01A46F0001EEEC0DF01E0E0C01826F7A
:10244000000162DC0C01D46B01C0D3FC00016FDC25
:1024500003C02DF102C02CF101C02BF100C02AF104
:10246000050E0C01A46F0001EEEC0DF01F0E0C0127
:10247000826F000149DC01C0D8F0050E0C01A46F89
:102480000001EEEC0DF0200E0C01826F00013CDC2F
:1024900001C0D9F0050E0C01A46F0001EEEC0DF0A7
:1024A000210E0C01826F00012FDC01C0DCF0050E53
:1024B0000C01A46F0001EEEC0DF0220E0C01826FF6
:1024C000000122DC01C0DDF0050E0C01A46F00014B
:1024D000EEEC0DF0230E0C01826F000115DC01C043
:1024E000DEF0050E0C01A46F0001EEEC0DF0240EE1
:1024F0000C01826F000108DC01C0DAF0050E0C014E
:10250000A46F0001EEEC0DF0250E0C01826F0001AE
:1025100084EC0EF001C0DFF0050E0C01A46F000189
:10252000EEEC0DF0260E0C01826F000184EC0EF033
:1025300001C0E0F0050E0C01A46F0001EEEC0DF0FF
:10254000270E0C01826F000184EC0EF001C0DBF05D
:10255000050E0C01A46F0001EEEC0DF0280E0C012D
:10256000826F000184EC0EF001C04DF2050E0C01EB
:10257000A46F0001EEEC0DF0290E0C01826F00013A
:1025800084EC0EF001C050F2050E0C01A46F0001A6
:10259000EEEC0DF02A0E0C01826F000184EC0EF0BF
:1025A00001C04FF2050E0C01A46F0001EEEC0DF01E
:1025B0002B0E0C01826F000184EC0EF001C051F271
:1025C000050E0C01A46F0001EEEC0DF02C0E0C01B9
:1025D000826F000184EC0EF001C0B0F0050E0C011A
:1025E000A46F0001EEEC0DF02D0E0C01826F0001C6
:1025F00084EC0EF001C0B1F0050E0C01A46F0001D7
:10260000EEEC0DF02E0E0C01826F000184EC0EF04A
:1026100001C0B2F0050E0C01A46F0001EEEC0DF04C
:10262000F2CF82FCF29CF29EAA6A180EA96EA69CBA
:10263000A69EA680A8500C0182BDF28C82BFF28EAD
:10264000D46BD36F000197EC0EF003C018F102C0F9
:1026500017F101C016F100C015F10A0E0C01A46FAC
:102660000001EEEC0DF018C1CBFC17C1CAFC16C17D
:10267000C9FC15C1C8FC0C01CF6BCE6B200ECD6F11
:10268000820ECC6F0001B2EC0EF003C018F102C054
:1026900017F101C016F100C015F10A0E0C01A46F6C
:1026A0000001EEEC0DF0F2CF82FCF29CF29EAA6AE1
:1026B000170EA96EA69CA69EA680A8500C0182BDEE
:1026C000F28C82BFF28ED46BD36F000197EC0EF0C8
:1026D000D89203C0D6FC02C0D5FC01C0D4FC00C017
:1026E000D3FC18C1DAFC17C1D9FC16C1D8FC15C13E
:1026F000D7FC61EC0FF003C010F102C00FF101C074
:102700000EF100C00DF10A0E0C01A46F0001EEECF9
:102710000DF0F2CF82FCF29CF29EAA6A1A0EA96E0C
:10272000A69CA69EA680A8500C0182BDF28C82BFFA
:10273000F28ED46BD36F000197EC0EF003C018F14A
:1027400002C017F101C016F100C015F10A0E0C010C
:10275000A46F0001EEEC0DF018C1CBFC17C1CAFC50
:1027600016C1C9FC15C1C8FC0C01CF6BCE6B200E85
:10277000CD6F820ECC6F0001B2EC0EF003C018F1E9
:1027800002C017F101C016F100C015F10A0E0C01CC
:10279000A46F0001EEEC0DF0F2CF82FCF29CF29EF1
:1027A000AA6A190EA96EA69CA69EA680A8500C0126
:1027B00082BDF28C82BFF28ED46BD36F000197EC96
:1027C0000EF0D89203C0D6FC02C0D5FC01C0D4FCE8
:1027D00000C0D3FC18C1DAFC17C1D9FC16C1D8FC63
:1027E00015C1D7FC61EC0FF003C014F102C013F166
:1027F00001C012F100C011F10A0E0C01A46F00011A
:10280000EEEC0DF02F0E0C01826F000184EC0EF047
:1028100001C070F6050E0C01A46F0001EEEC0DF086
:10282000300E0C01826F000184EC0EF001C071F6D5
:10283000050E0C01A46F0001EEEC0DF0310E0C0141
:10284000826F000184EC0EF001C072F6050E0C01DF
:10285000A46F0001EEEC0DF0320E0C01826F00014E
:1028600084EC0EF001C073F6050E0C01A46F00019C
:10287000EEEC0DF0330E0C01826F000184EC0EF0D3
:1028800001C074F6050E0C01A46F0001EEEC0DF012
:10289000340E0C01826F000184EC0EF001C075F65D
:1028A000050E0C01A46F0001EEEC0DF0350E0C01CD
:1028B000826F000184EC0EF001C076F6050E0C016B
:1028C000A46F0001EEEC0DF0360E0C01826F0001DA
:1028D00084EC0EF001C077F6050E0C01A46F000128
:1028E000EEEC0DF0370E0C01826F000184EC0EF05F
:1028F00001C078F6050E0C01A46F0001EEEC0DF09E
:10290000380E0C01826F000184EC0EF001C079F6E4
:10291000050E0C01A46F0001EEEC0DF0390E0C0158
:10292000826F000184EC0EF001C07AF6050E0C01F6
:10293000A46F0001EEEC0DF03A0E0C01826F000165
:1029400084EC0EF001C07BF6050E0C01A46F0001B3
:10295000EEEC0DF0E4EF8AF0F250006EF29CF29E85
:10296000AA6A84CCA9FF83CCA8FFA69CA69EA684B5
:102970000F01550EA76EAA0EA76EA682A6B2FED7AD
:10298000A6940050F21200011200D0CCD7FC0C012A
:10299000D451D71BD7AF05D0D894D890D0BFD8800A
:1029A0002FD0D0CCD7FCD3CCD8FCCF51D85F06E009
:1029B000D7AF26D0D850010AD86E22D0D4CCD8FCBC
:1029C000D051D85F06E0D7AF1BD0D850010AD86EDF
:1029D00017D0D5CCD8FCD151D85F06E0D7AF10D0F6
:1029E000D850010AD86E0CD0D6CCD8FCD251D85FC2
:1029F00006E0D7AF05D0D850010AD86E01D0D890E4
:102A0000000112008E0E006E0C01CF51005ED0CC82
:102A100002F0D1CC01F0028E005209E0D8900252AF
:102A200002E1015204E002320132002EF7D7D0AFAA
:102A300005D0011E021E012AD8B4022A000112008C
:102A400001017D513B080EE20A0E7D6F0C01836F80
:102A5000846B000181DF140E0C01A46F0001EEEC09
:102A60000DF001017C5163080FE20A0E7C6F0C012E
:102A7000836F010E846F00016FDF140E0C01A46FD1
:102A80000001EEEC0DF001010C01D26BD16B0C0ECC
:102A9000D06F850ECF6F00C1D6FCFFC0D5FCFEC045
:102AA000D4FCFDC0D3FC000170DF10E200C1D2FCF9
:102AB000FFC0D1FCFEC0D0FCFDC0CFFC0C01D66B2A
:102AC000D56BD46BD36B000160DF21E30101006B98
:102AD0000001FF6B700EFE6F830EFD6F640E0C0124
:102AE000836F020E846F000137DF140E0C01A46F98
:102AF0000001EEEC0DF00C01836B030E846F0001FE
:102B00002BDF140E0C01A46F0001EEEC0DF00C0194
:102B1000D46BD0C0D3FC000197EC0EF00C01D26B4B
:102B2000D16B340ED06F850ECF6F03C0D6FC02C0C0
:102B3000D5FC01C0D4FC00C0D3FC000126DF19E2A3
:102B40000C01D46BD0C0D3FC000197EC0EF003C095
:102B5000D2FC02C0D1FC01C0D0FC00C0CFFC0C01F3
:102B6000D66BD56B200ED46F820ED36F00010DDFB4
:102B70000EE33C0ED06F0C01836F040E846F0001D6
:102B8000EBDE140E0C01A46F0001EEEC0DF0B4515D
:102B9000500803E3B45109080EE3140EB46F0C019E
:102BA000836F050E846F0001D7DE140E0C01A46F35
:102BB0000001EEEC0DF00C01D26BD16B480ED06F22
:102BC000860ECF6F1CC1D6FC1BC1D5FC1AC1D4FC2C
:102BD00019C1D3FC0001D9DE11E21CC1D2FC1BC11A
:102BE000D1FC1AC1D0FC19C1CFFC0C01D66BD56B3E
:102BF000D46B7F0ED36F0001C8DE14E301011C6BA0
:102C00001B6B140E1A6F850E196F4A0E0C01836F21
:102C1000060E846F0001A0DE140E0C01A46F0001EB
:102C2000EEEC0DF0F25307E1F151C80804E3F15363
:102C300011E1F2530FE1F26BC80EF16F0C01836FDB
:102C4000070E846F000188DE140E0C01A46F0001D2
:102C5000EEEC0DF0C45307E1C351C80804E3C353BD
:102C600011E1C4530FE1C46B3C0EC36F0C01836FC1
:102C7000080E846F000170DE140E0C01A46F0001B9
:102C8000EEEC0DF0B3513C0802E3B3530EE1050E38
:102C9000B36F0C01836F090E846F00015DDE140EAB
:102CA0000C01A46F0001EEEC0DF001017451090854
:102CB00011E202D000A00ED0746B0C01836B0A0EDF
:102CC000846F000149DE140E0C01A46F0001EEECCC
:102CD0000DF001017551090811E202D000A00ED0DB
:102CE000756B0C01836B0B0E846F000135DE140EC7
:102CF0000C01A46F0001EEEC0DF001017651090802
:102D000011E202D000A00ED0766B0C01836B0C0E8A
:102D1000846F000121DE140E0C01A46F0001EEECA3
:102D20000DF001017751090811E202D000A00ED088
:102D3000776B0C01836B0D0E846F00010DDE140E9A
:102D40000C01A46F0001EEEC0DF00101FA5307E154
:102D5000F951C80804E3F95312E1FA5310E1FA6B90
:102D6000010EF96F0C01836F0E0E846F0001F4DD0C
:102D7000140E0C01A46F0001EEEC0DF00101000136
:102D8000D15101080DE2D16B0C01836B140E846FDD
:102D90000001E2DD140E0C01A46F0001EEEC0DF059
:102DA0000C01D26BD16B200ED06F810ECF6F2DC274
:102DB000D6FC2CC2D5FC2BC2D4FC2AC2D3FC000109
:102DC000E4DD10E22DC2D2FC2CC2D1FC2BC2D0FC1F
:102DD0002AC2CFFC0C01D66BD56BD46BD36B000130
:102DE000D4DD16E1CD0E02012D6FCC0E2C6F4C0EF2
:102DF0002B6F7C0E2A6F020E0C01836F160E846FF0
:102E00000001AADD140E0C01A46F0001EEEC0DF020
:102E10000C01D26BD16B200ED06F830ECF6F3DC1F2
:102E2000D6FC3CC1D5FC3BC1D4FC3AC1D3FC00016B
:102E3000ACDD11E23DC1D2FC3CC1D1FC3BC1D0FCB8
:102E40003AC1CFFC0C01D66BD56BD46B7F0ED36F20
:102E500000019BDD13E301013D6B3C6B3B6B800E7E
:102E60003A6F020E0C01836F1B0E846F000174DD3C
:102E7000140E0C01A46F0001EEEC0DF00C01D26BEE
:102E8000D16B200ED06F830ECF6F2DC1D6FC2CC11D
:102E9000D5FC2BC1D4FC2AC1D3FC000176DD11E2A4
:102EA0002DC1D2FC2CC1D1FC2BC1D0FC2AC1CFFC3E
:102EB0000C01D66BD56BD46B7F0ED36F000165DD33
:102EC00013E301012D6B2C6B2B6B800E2A6F020E0E
:102ED0000C01836F1E0E846F00013EDD140E0C0189
:102EE000A46F0001EEEC0DF0D851500803E3D85167
:102EF00004080EE3500ED86F0C01836F1F0E846F11
:102F000000012ADD140E0C01A46F0001EEEC0DF09F
:102F1000D951040802E3D9530EE1010ED96F0C0117
:102F2000836F200E846F000117DD140E0C01A46F57
:102F30000001EEEC0DF0DC51140803E3DC51040851
:102F40000EE3050EDC6F0C01836F210E846F000110
:102F500003DD140E0C01A46F0001EEEC0DF0DD5149
:102F600064080DE2DD6B0C01836B220E846F00019F
:102F7000F3DC140E0C01A46F0001EEEC0DF0DE5139
:102F800064080DE2DE6B0C01836B230E846F00017D
:102F9000E3DC140E0C01A46F0001EEEC0DF0DA512D
:102FA000500803E3DA5109080EE3500EDA6F0C0102
:102FB000836F240E846F0001CFDC140E0C01A46F0C
:102FC0000001EEEC0DF0DF5164080DE2DF6B0C0147
:102FD000836B250E846F0001BFDC140E0C01A46FFF
:102FE0000001EEEC0DF0E05164080DE2E06B0C0125
:102FF000836B260E846F0001AFDC140E0C01A46FEE
:103000000001EEEC0DF0DB51500803E3DB51090841
:103010000EE3280EDB6F0C01836F270E846F000117
:103020009BDC140E0C01A46F0001EEEC0DF002010C
:103030004D530FE1140E4D6F0C01836F280E846FFA
:1030400000018ADC140E0C01A46F0001EEEC0DF0FF
:103050000201505101080EE2506B0C01836B290EE6
:10306000846F000179DC140E0C01A46F0001EEECFA
:103070000DF002014F5101080EE24F6B0C01836B02
:103080002A0E846F000168DC140E0C01A46F00018D
:10309000EEEC0DF00201515101080EE2516B0C01F2
:1030A000836B2B0E846F000157DC140E0C01A46F90
:1030B0000001EEEC0DF002010001B0513C0802E30A
:1030C000B0530EE10A0EB06F0C01836F2C0E846FAB
:1030D000000142DC140E0C01A46F0001EEEC0DF0B7
:1030E000B1513C0803E3B15103080EE31E0EB16F6A
:1030F0000C01836F2D0E846F00012EDC140E0C0169
:10310000A46F0001EEEC0DF0B2513C0802E3B253A3
:103110000EE1060EB26F0C01836F2E0E846F00015C
:103120001BDC140E0C01A46F0001EEEC0DF00C0181
:10313000D26BD16B200ED06F830ECF6F10C1D6FC37
:103140000FC1D5FC0EC1D4FC0DC1D3FC00011DDCA8
:1031500011E210C1D2FC0FC1D1FC0EC1D0FC0DC1D7
:10316000CFFC0C01D66BD56BD46B7E0ED36F0001F8
:103170000CDC3FE30101106B0F6B0E6B7F0E0D6FCC
:10318000F250006EF29CF29EAA6A320EA96E010EF7
:10319000A86EA69CA69EA6840F01550EA76EAA0E29
:1031A000A76EA682A6B2FED7A6940050F212140E05
:1031B0000C01A46F0001EEEC0DF0F250006EF29CD9
:1031C000F29EAA6A330EA96EA86AA69CA69EA68441
:1031D0000F01550EA76EAA0EA76EA682A6B2FED745
:1031E000A6940050F212140E0C01A46F0001EEEC34
:1031F0000DF00C01D26BD16B200ED06F840ECF6F0F
:1032000014C1D6FC13C1D5FC12C1D4FC11C1D3FC2E
:103210000001C5EC14F013E214C1D2FC13C1D1FCBF
:1032200012C1D0FC11C1CFFC0C01D66BD56B200EA6
:10323000D46F810ED36F0001C5EC14F040E301019F
:10324000146B136B200E126F810E116FF250006E13
:10325000F29CF29EAA6A340EA96E050EA86EA69C78
:10326000A69EA6840F01550EA76EAA0EA76EA68273
:10327000A6B2FED7A6940050F212140E0C01A46F51
:103280000001EEEC0DF0F250006EF29CF29EAA6A84
:10329000350EA96EA86AA69CA69EA6840F01550E9F
:1032A000A76EAA0EA76EA682A6B2FED7A69400505D
:1032B000F212140E0C01A46F0001EEEC0DF02DC102
:1032C000D2FC2CC1D1FC2BC1D0FC2AC1CFFC02EC1A
:1032D00015F001C0FBF13DC1D2FC3CC1D1FC3BC1AA
:1032E000D0FC3AC1CFFC02EC15F00C01D46B01C04C
:1032F000D3FC000197EC0EF003C041F102C040F195
:1033000001C03FF100C03EF1E46BD8C0E3F0E6EF4E
:103310008AF00C019F35006E0036FC0E001600C0CE
:1033200001F0C250C30B0010C26E010EA46F000169
:10333000EEEC0DF0C282C2B2FED7C4CFD4FCC3CF34
:10334000D3FC000197EC0EF003C0A3FC02C0A2FC6A
:1033500001C0A1FC00C0A0FCA0CC00F0A1CC01F0F9
:10336000A2CC02F0A3CC03F012000C01CF51D8B4D0
:1033700071D0006ED351D8B46DD0002604E3810E15
:10338000002668E204D07F0E005E64E363E0D0CCE8
:10339000D7FCD451D71BD08FD48FD251D603F4CFC2
:1033A000D9FCD151D503F4CF03F0F3CFD8FCD60329
:1033B000F350D927F450D823000E0322D251D5035D
:1033C000F350D927F450D823000E026A03220222B8
:1033D000D051D603F350D827F4500322000E022216
:1033E000D051D503F3500326F4500222000E016A97
:1033F0000122D251D403F350D827F4500322000EF7
:1034000002220122D151D403F3500326F4500222A8
:10341000000E0122D051D403F3500226F4500122B1
:10342000002A01BE05D0D837033602360136000621
:10343000000ED8AF0AD0032A02220122015005E172
:10344000025003E1035001E1002AD7BF018ED7AF3C
:10345000019E04D0006A016A026A036A0001120038
:103460000C01886B876B866B856B8C6B8B6B8A6BA7
:10347000896B0201196B186B176B166B016B006B74
:103480000101FF6BFE6B010E0C019F6F000141DF1C
:1034900003C0D2FC02C0D1FC01C0D0FC00C0CFFCF4
:1034A00002EC15F002C084FC01C083FC010E0C018B
:1034B000825D01016A5D02E001E36A6BD8906A35C2
:1034C000036A530FE96E020E0320EA6E84CCECFF10
:1034D000ED5283CCEFFF6A2B696B0C018251010125
:1034E000695D38E2D8906935036A530FE96E020EC0
:1034F0000320EA6EECCF03F0ED52EFCFD3FC03C014
:10350000D4FC000197EC0EF0EACF92FCE9CF91FCDD
:10351000D89201C2D6FC00C2D5FCFFC1D4FCFEC1CA
:10352000D3FC03C0DAFC02C0D9FC01C0D8FC00C047
:10353000D7FC61EC0FF092CCEAFF91CCE9FF03C01D
:1035400001F202C000F201C0FFF100C0FEF1010172
:10355000692BC3D70C01D46B82CCD3FC000197EC50
:103560000EF001C2CBFC00C2CAFCFFC1C9FCFEC107
:10357000C8FC03C0CFFC02C0CEFC01C0CDFC00C023
:10358000CCFCB2EC0EF003C009F202C008F201C09C
:1035900007F200C006F209C2CBFC08C2CAFC07C28F
:1035A000C9FC06C2C8FCB80E0C01CF6F1E0ECE6F50
:1035B000530ECD6F850ECC6F0001B2EC0EF003C040
:1035C00009F202C008F201C007F200C006F2D89268
:1035D00009C2D6FC08C2D5FC07C2D4FC06C2D3FC83
:1035E000D70E0C01DA6FA30ED96F6C0ED86F820E56
:1035F000D76F000161EC0FF003C009F202C008F2BE
:1036000001C007F200C006F20C01CB6BC00ECA6FFE
:103610007F0EC96F880EC86F09C2CFFC08C2CEFCEE
:1036200007C2CDFC06C2CCFC0001B2EC0EF003C018
:1036300094FC02C093FC01C092FC00C091FCD882B3
:1036400003C0D6FC02C0D5FC01C0D4FC00C0D3FC32
:103650000C01DA6BD96BD86B7F0ED76F000161EC70
:103660000FF00C01CB6B800ECA6F540EC96F8B0E1E
:10367000C86F03C0CFFC02C0CEFC01C0CDFC00C0AF
:10368000CCFC0001B2EC0EF003C019F202C018F23B
:1036900001C017F200C016F219C2D2FC18C2D1FC48
:1036A00017C2D0FC16C2CFFC19C2D6FC18C2D5FC7A
:1036B00017C2D4FC16C2D3FC58DE03C094FC02C06F
:1036C00093FC01C092FC00C091FC03C0D2FC02C07C
:1036D000D1FC01C0D0FC00C0CFFC67C6D6FC66C6DA
:1036E000D5FC65C6D4FC64C6D3FC3FDE03C094FCA5
:1036F00002C093FC01C092FC00C091FC19C2D2FC34
:1037000018C2D1FC17C2D0FC16C2CFFC6BC6D6FCC7
:103710006AC6D5FC69C6D4FC68C6D3FC26DED8923E
:1037200094CCD6FC93CCD5FC92CCD4FC91CCD3FCDD
:1037300003C0DAFC02C0D9FC01C0D8FC00C0D7FC31
:1037400061EC0FF003C094FC02C093FC01C092FC3A
:1037500000C091FCD89203C0D6FC02C0D5FC01C0C9
:10376000D4FC00C0D3FC6FC6DAFC6EC6D9FC6DC6B3
:10377000D8FC6CC6D7FC61EC0FF003C011F202C09C
:1037800010F201C00FF200C00EF20C01D46BDDC0CC
:10379000D3FC000197EC0EF003C088FC02C087FC4C
:1037A00001C086FC00C085FC88CCCBFC87CCCAFC61
:1037B00086CCC9FC85CCC8FC0C01CF6BCE6B200E2F
:1037C000CD6F820ECC6F0001B2EC0EF003C088FC0E
:1037D00002C087FC01C086FC00C085FC0C01D46BD4
:1037E000DEC0D3FC000197EC0EF003C08CFC02C0DD
:1037F0008BFC01C08AFC00C089FC8CCCCBFC8BCC40
:10380000CAFC8ACCC9FC89CCC8FC0C01CF6BCE6B3E
:10381000200ECD6F820ECC6F0001B2EC0EF003C013
:103820008CFC02C08BFC01C08AFC00C089FCD882E1
:1038300088CCD6FC87CCD5FC86CCD4FC85CCD3FCFC
:103840008CCCDAFC8BCCD9FC8ACCD8FC89CCD7FCCC
:1038500061EC0FF0D89211C2D6FC10C2D5FC0FC299
:10386000D4FC0EC2D3FC03C0DAFC02C0D9FC01C0F8
:10387000D8FC00C0D7FC61EC0FF003C011F202C00D
:1038800010F201C00FF200C00EF20EC200F00FC223
:1038900001F010C202F011C203F0120002011D6B10
:1038A0001C6B1B6B1A6B056B046B036B026B0C01BF
:1038B000886B876B866B856B020E9F6F000129DD1D
:1038C00003C0D2FC02C0D1FC01C0D0FC00C0CFFCC0
:1038D00002EC15F002C084FC01C083FC010E0C0157
:1038E000825D02013E5D02E001E33E6BD8903E3511
:1038F000036AF30FE96E020E0320EA6E84CCECFF3C
:10390000ED5283CCEFFF3E2B3F6B0C018251020145
:103910003F5D38E2D8903F35036AF30FE96E020E3F
:103920000320EA6EECCF03F0ED52EFCFD3FC03C0DF
:10393000D4FC000197EC0EF0EACF96FCE9CF95FCA1
:10394000D89205C2D6FC04C2D5FC03C2D4FC02C284
:10395000D3FC03C0DAFC02C0D9FC01C0D8FC00C013
:10396000D7FC61EC0FF096CCEAFF95CCE9FF03C0E1
:1039700005F202C004F201C003F200C002F202012B
:103980003F2BC3D70C01D46B82CCD3FC000197EC46
:103990000EF005C2CBFC04C2CAFC03C2C9FC02C2C1
:1039A000C8FC03C0CFFC02C0CEFC01C0CDFC00C0EF
:1039B000CCFCB2EC0EF003C00DF202C00CF201C060
:1039C0000BF200C00AF20DC2CBFC0CC2CAFC0BC247
:1039D000C9FC0AC2C8FCB80E0C01CF6F1E0ECE6F18
:1039E000530ECD6F850ECC6F0001B2EC0EF003C00C
:1039F0000DF202C00CF201C00BF200C00AF2D89224
:103A00000DC2D6FC0CC2D5FC0BC2D4FC0AC2D3FC3E
:103A1000D70E0C01DA6FA30ED96F6C0ED86F820E21
:103A2000D76F000161EC0FF003C00DF202C00CF281
:103A300001C00BF200C00AF20C01CB6BC00ECA6FC2
:103A40007F0EC96F880EC86F0DC2CFFC0CC2CEFCB2
:103A50000BC2CDFC0AC2CCFC0001B2EC0EF003C0DC
:103A600098FC02C097FC01C096FC00C095FCD8826F
:103A700003C0D6FC02C0D5FC01C0D4FC00C0D3FCFE
:103A80000C01DA6BD96BD86B7F0ED76F000161EC3C
:103A90000FF00C01CB6B800ECA6F540EC96F8B0EEA
:103AA000C86F03C0CFFC02C0CEFC01C0CDFC00C07B
:103AB000CCFC0001B2EC0EF003C01DF202C01CF2FF
:103AC00001C01BF200C01AF21DC2D2FC1CC2D1FC04
:103AD0001BC2D0FC1AC2CFFC1DC2D6FC1CC2D5FC36
:103AE0001BC2D4FC1AC2D3FC40DC03C098FC02C049
:103AF00097FC01C096FC00C095FC03C0D2FC02C03C
:103B0000D1FC01C0D0FC00C0CFFC67C6D6FC66C6A5
:103B1000D5FC65C6D4FC64C6D3FC27DC03C098FC86
:103B200002C097FC01C096FC00C095FC1DC2D2FCEF
:103B30001CC2D1FC1BC2D0FC1AC2CFFC6BC6D6FC87
:103B40006AC6D5FC69C6D4FC68C6D3FC0EDCD89224
:103B500098CCD6FC97CCD5FC96CCD4FC95CCD3FC99
:103B600003C0DAFC02C0D9FC01C0D8FC00C0D7FCFD
:103B700061EC0FF003C098FC02C097FC01C096FCFA
:103B800000C095FCD89203C0D6FC02C0D5FC01C091
:103B9000D4FC00C0D3FC6FC6DAFC6EC6D9FC6DC67F
:103BA000D8FC6CC6D7FC61EC0FF003C015F202C064
:103BB00014F201C013F200C012F20C01D46BDFC08A
:103BC000D3FC000197EC0EF003C08CFC02C08BFC10
:103BD00001C08AFC00C089FC8CCCCBFC8BCCCAFC1D
:103BE0008ACCC9FC89CCC8FC0C01CF6BCE6B200EF3
:103BF000CD6F820ECC6F0001B2EC0EF003C08CFCD6
:103C000002C08BFC01C08AFC00C089FC0C01D46B93
:103C1000E0C0D3FC000197EC0EF003C090FC02C0A2
:103C20008FFC01C08EFC00C08DFC90CCCBFC8FCCF7
:103C3000CAFC8ECCC9FC8DCCC8FC0C01CF6BCE6B02
:103C4000200ECD6F820ECC6F0001B2EC0EF003C0DF
:103C500090FC02C08FFC01C08EFC00C08DFCD8829D
:103C60008CCCD6FC8BCCD5FC8ACCD4FC89CCD3FCB8
:103C700090CCDAFC8FCCD9FC8ECCD8FC8DCCD7FC88
:103C800061EC0FF0D89215C2D6FC14C2D5FC13C259
:103C9000D4FC12C2D3FC03C0DAFC02C0D9FC01C0C0
:103CA000D8FC00C0D7FC61EC0FF003C015F202C0D5
:103CB00014F201C013F200C012F212C200F013C2DB
:103CC00001F014C202F015C203F012000C01CE91F3
:103CD000C2CCC7FCC1CCC6FCC0CCC5FCBFCCC4FCAC
:103CE000C2CCD2FCC1CCD1FCC0CCD0FCBFCCCFFC70
:103CF000D66BD56BD46BD36B0001C5EC14F006E327
:103D00000C01CE81C551800AC56F0001C7CCD2FC21
:103D1000C6CCD1FCC5CCD0FCC4CCCFFC0C01D66B3E
:103D2000D56BD46B8E0ED36F0001C5EC14F001E29D
:103D300019E1C7CCD2FCC6CCD1FCC5CCD0FCC4CCDC
:103D4000CFFC02EC15F002C0D4FC01C0D3FC97EC10
:103D50000EF003C0CBFC02C0CAFC01C0C9FC00C00D
:103D6000C8FCD3D0C7CCD2FCC6CCD1FCC5CCD0FCCF
:103D7000C4CCCFFC800E0C01D66F960ED56F180EFA
:103D8000D46F960ED36F0001C5EC14F0D8A0B5D057
:103D9000C7CCD2FCC6CCD1FCC5CCD0FCC4CCCFFCAB
:103DA0000C01D66BD56BD46B700ED36F0001B5ECE4
:103DB00019F003C0D2FC02C0D1FC01C0D0FC00C08D
:103DC000CFFC02EC15F002C0CDFC01C0CCFCC7CC8E
:103DD000D2FCC6CCD1FCC5CCD0FCC4CCCFFC0C01F1
:103DE000D66BD56BD46B700ED36F0001B5EC19F0A8
:103DF00003C0D2FC02C0D1FC01C0D0FC00C0CFFC8B
:103E0000CDCCD4FCCCCCD3FC97EC0EF0D882D2CC69
:103E1000D6FCD1CCD5FCD0CCD4FCCFCCD3FC03C0C9
:103E2000DAFC02C0D9FC01C0D8FC00C0D7FC61ECB0
:103E30000FF00C01D26BD16BD06B8E0ECF6F03C025
:103E4000D6FC02C0D5FC01C0D4FC00C0D3FC0001EC
:103E5000B5EC19F003C0C7FC02C0C6FC01C0C5FC2C
:103E600000C0C4FCCDCCD4FCCCCCD3FC97EC0EF081
:103E70000C01D26BD16BD06B8E0ECF6F03C0D6FC12
:103E800002C0D5FC01C0D4FC00C0D3FC0001B5ECDD
:103E900019F003C0CBFC02C0CAFC01C0C9FC00C0C1
:103EA000C8FCC7CCD2FCC6CCD1FCC5CCD0FCC4CCA1
:103EB000CFFC02EC15F002C0D4FC01C0D3FC97EC9F
:103EC0000EF0D892CBCCD6FCCACCD5FCC9CCD4FC55
:103ED000C8CCD3FC03C0DAFC02C0D9FC01C0D8FCBA
:103EE00000C0D7FC61EC0FF003C0CBFC02C0CAFCE1
:103EF00001C0C9FC00C0C8FC08D0C7CCCBFCC6CCF4
:103F0000CAFCC5CCC9FCC4CCC8FCC7CCD2FCC6CC4E
:103F1000D1FCC5CCD0FCC4CCCFFC02EC15F002C067
:103F2000D4FC01C0D3FC97EC0EF0D882C7CCD6FCF1
:103F3000C6CCD5FCC5CCD4FCC4CCD3FC03C0DAFCC5
:103F400002C0D9FC01C0D8FC00C0D7FC61EC0FF066
:103F500003C0C7FC02C0C6FC01C0C5FC00C0C4FC55
:103F60000C01CEA103D0C951800AC96FC7CCD2FCC5
:103F7000C6CCD1FCC5CCD0FCC4CCCFFCD66BD56BA9
:103F8000D46BD36B0001C5EC14F03CE00C01CEA166
:103F90001CD0C3531AE1D882CBCCD6FCCACCD5FCFA
:103FA000C9CCD4FCC8CCD3FCDA6BD96BD86B7F0EF0
:103FB000D76F000161EC0FF003C0CBFC02C0CAFC5C
:103FC00001C0C9FC00C0C8FC0C01CEB11CD0C32D7F
:103FD0001AD0D892CBCCD6FCCACCD5FCC9CCD4FC58
:103FE000C8CCD3FCDA6BD96BD86B7F0ED76F0001CE
:103FF00061EC0FF003C0CBFC02C0CAFC01C0C9FCDD
:1040000000C0C8FC0C01C2CCD2FCC1CCD1FCC0CCDD
:10401000D0FCBFCCCFFCD66BD56BD46BD36B00017F
:10402000C5EC14F006E10C01CB6BCA6BC96BC86B15
:104030000001C8CC00F0C9CC01F0CACC02F0CBCC56
:1040400003F01200BECCC2FCBDCCC1FCBCCCC0FC99
:10405000BBCCBFFC010E0C01C36F000137DE9FEF2C
:1040600020F0BECCC2FCBDCCC1FCBCCCC0FCBBCCE7
:10407000BFFC0C01C36B000129DEC3EF20F0B2CC02
:10408000D2FCB1CCD1FCB0CCD0FCAFCCCFFC0C017D
:10409000D66BD56BD46BD36B0001C5EC14F0D8B4E0
:1040A000A0D0AECCCBFCADCCCAFCACCCC9FCABCC6C
:1040B000C8FCB2CCCFFCB1CCCEFCB0CCCDFCAFCCEC
:1040C000CCFCB2EC0EF003C0BAFC02C0B9FC01C0DB
:1040D000B8FC00C0B7FC03C0D2FC02C0D1FC01C0D8
:1040E000D0FC00C0CFFC0C01D66BD56BD46BD36B6E
:1040F0000001C5EC14F024E3AECCCBFCADCCCAFC83
:10410000ACCCC9FCABCCC8FCB2CCCFFCB1CCCEFCA7
:10411000B0CCCDFCAFCCCCFCB2EC0EF003C0BAFC02
:1041200002C0B9FC01C0B8FC00C0B7FC03C0BEFCB3
:1041300002C0BDFC01C0BCFC00C0BBFC83D723D0C7
:10414000AECCCBFCADCCCAFCACCCC9FCABCCC8FC77
:10415000B2CCCFFCB1CCCEFCB0CCCDFCAFCCCCFC47
:10416000B2EC0EF003C0BAFC02C0B9FC01C0B8FC4E
:1041700000C0B7FC03C0BEFC02C0BDFC01C0BCFC5B
:1041800000C0BBFC6ED703C0B6FC02C0B5FC01C0CA
:10419000B4FC00C0B3FCB6CCD2FCB5CCD1FCB4CCE2
:1041A000D0FCB3CCCFFCB2CCD6FCB1CCD5FCB0CCDF
:1041B000D4FCAFCCD3FCB5EC19F0D882AECCD6FC95
:1041C000ADCCD5FCACCCD4FCABCCD3FC03C0DAFC7E
:1041D00002C0D9FC01C0D8FC00C0D7FC61EC0FF0D4
:1041E00000D012008E0E006EC6CC01F0C5CC02F0DD
:1041F000036A01AE05D0011E021E022A01E1012A56
:10420000015209E102C001F0026A080E005E01528B
:1042100002E1006A0ED0D89001BE04D00236013609
:104220000006F9D70C01C6AF02D0000102D0019EF2
:1042300000011200B2CCB6FCB1CCB5FCB0CCB4FCE1
:10424000AFCCB3FCB6CCD2FCB5CCD1FCB4CCD0FC5A
:10425000B3CCCFFC0C01D66BD56BD46B7F0ED36F78
:104260000001C5EC14F0D8B49ED10C0E0C01C56F42
:10427000B30EE96EC5CCEAFF7E0EEF6ED882B6CCE7
:10428000D6FCB5CCD5FCB4CCD4FCB3CCD3FCDA6B27
:10429000D96BD86B7F0ED76F000161EC0FF003C0B4
:1042A000C7FC02C0C6FC01C0C5FC00C0C4FCD8925B
:1042B000B6CCD6FCB5CCD5FCB4CCD4FCB3CCD3FCBA
:1042C0000C01DA6BD96BD86B7F0ED76F000161ECF4
:1042D0000FF0C7CCCBFCC6CCCAFCC5CCC9FCC4CC47
:1042E000C8FC03C0CFFC02C0CEFC01C0CDFC00C0A6
:1042F000CCFCB2EC0EF003C0B6FC02C0B5FC01C0B1
:10430000B4FC00C0B3FCB6CCD2FCB5CCD1FCB4CC70
:10431000D0FCB3CCCFFCB6CCD6FCB5CCD5FCB4CC61
:10432000D4FCB3CCD3FCB5EC19F003C0C2FC02C082
:10433000C1FC01C0C0FC00C0BFFC990E0C01D26FD3
:10434000470ED16F8A0ED06F7F0ECF6FC2CCD6FCD6
:10435000C1CCD5FCC0CCD4FCBFCCD3FC0001B5ECA7
:1043600019F003C0C7FC02C0C6FC01C0C5FC00C0F8
:10437000C4FCD89203C0D6FC02C0D5FC01C0D4FC5A
:1043800000C0D3FC0C01DA6BD96BD86B800ED76FF1
:10439000000161EC0FF003C0BAFC02C0B9FC01C01F
:1043A000B8FC00C0B7FC4C0E0C01D26FF30ED16FFD
:1043B0003A0ED06F7B0ECF6FC2CCD6FCC1CCD5FCF1
:1043C000C0CCD4FCBFCCD3FC0001B5EC19F003C0C9
:1043D000C7FC02C0C6FC01C0C5FC00C0C4FCD8922A
:1043E00003C0D6FC02C0D5FC01C0D4FC00C0D3FC85
:1043F0002B0E0C01DA6F9D0ED96FDF0ED86F7E0E7B
:10440000D76F000161EC0FF003C0BEFC02C0BDFC21
:1044100001C0BCFC00C0BBFCBECCD2FCBDCCD1FCFE
:10442000BCCCD0FCBBCCCFFCC2CCD6FCC1CCD5FC28
:10443000C0CCD4FCBFCCD3FCB5EC19F003C0C7FC96
:1044400002C0C6FC01C0C5FC00C0C4FCD89203C0B9
:10445000D6FC02C0D5FC01C0D4FC00C0D3FC0C01CA
:10446000DA6BD96BD86B7F0ED76F000161EC0FF060
:1044700003C0BEFC02C0BDFC01C0BCFC00C0BBFC54
:10448000B6CCD2FCB5CCD1FCB4CCD0FCB3CCCFFCF8
:10449000BACCD6FCB9CCD5FCB8CCD4FCB7CCD3FCC8
:1044A000B5EC19F003C0C7FC02C0C6FC01C0C5FCD6
:1044B00000C0C4FC03C0CBFC02C0CAFC01C0C9FCE4
:1044C00000C0C8FCBECCCFFCBDCCCEFCBCCCCDFC6F
:1044D000BBCCCCFCB2EC0EF003C0BAFC02C0B9FC01
:1044E00001C0B8FC00C0B7FC0C0E0C01C56FAF0ECC
:1044F000E96EC5CCEAFF7E0EEF5CC36FC3AF14D08C
:10450000000ED880C355C66BC56FC5BFC607000176
:1045100069DE00C0BBFC0150800A0C01BC6F02C008
:10452000BDFC03C0BEFC10D0C66BC3CCC5FCC5BF70
:10453000C607000157DE03C0BEFC02C0BDFC01C0BF
:10454000BCFC00C0BBFC0C01BECCD2FCBDCCD1FC81
:10455000BCCCD0FCBBCCCFFC180ED66F720ED56F86
:10456000310ED46F7E0ED36F0001B5EC19F0D892E6
:10457000BACCD6FCB9CCD5FCB8CCD4FCB7CCD3FCE7
:1045800003C0DAFC02C0D9FC01C0D8FC00C0D7FCD3
:1045900061EC0FF003C0BAFC02C0B9FC01C0B8FC6A
:1045A00000C0B7FC06D00C01BA6BB96BB86BB76B27
:1045B0000001B7CC00F0B8CC01F0B9CC02F0BACC15
:1045C00003F01200B2CCD2FCB1CCD1FCB0CCD0FC08
:1045D000AFCCCFFC3B0E0C01D66FAA0ED56F380EB8
:1045E000D46F7F0ED36F0001B5EC19F003C0D2FC7D
:1045F00002C0D1FC01C0D0FC00C0CFFC02EC15F021
:1046000001C0BFFC0C01C091B2CCB6FCB1CCB5FC72
:10461000B0CCB4FCAFCCB3FCB2CCD2FCB1CCD1FCAE
:10462000B0CCD0FCAFCCCFFCD66BD56BD46BD36BFE
:104630000001C5EC14F007E30C01C081BF6DB4515B
:10464000800AB46F00010C01BA6BB96BB86BB76B21
:104650000C0EC26FB70EE96EC2CCEAFF7F0EBF250B
:10466000EF6EB6CCD2FCB5CCD1FCB4CCD0FCB3CC84
:10467000CFFC3B0ED66FAA0ED56F380ED46F7F0ECF
:10468000D36F0001B5EC19F003C0C4FC02C0C3FC39
:1046900001C0C2FC00C0C1FC0C01C66BBFCCC5FC94
:1046A000C5BFC60700019EDDD882C4CCD6FCC3CCF2
:1046B000D5FCC2CCD4FCC1CCD3FC03C0DAFC02C014
:1046C000D9FC01C0D8FC00C0D7FC61EC0FF003C0DE
:1046D000B6FC02C0B5FC01C0B4FC00C0B3FC7C0E4B
:1046E0000C01D26F880ED16F590ED06F720ECF6F42
:1046F000B6CCD6FCB5CCD5FCB4CCD4FCB3CCD3FC76
:104700000001B5EC19F003C0C4FC02C0C3FC01C039
:10471000C2FC00C0C1FCD89203C0D6FC02C0D5FCCC
:1047200001C0D4FC00C0D3FCE00E0C01DA6F970E80
:10473000D96F260ED86F750ED76F000161EC0FF0A0
:1047400003C0BEFC02C0BDFC01C0BCFC00C0BBFC81
:10475000BECCD2FCBDCCD1FCBCCCD0FCBBCCCFFC05
:10476000B6CCD6FCB5CCD5FCB4CCD4FCB3CCD3FC05
:10477000B5EC19F003C0C4FC02C0C3FC01C0C2FC0C
:1047800000C0C1FCD89203C0D6FC02C0D5FC01C059
:10479000D4FC00C0D3FCC40E0C01DA6F1D0ED96F1F
:1047A0001E0ED86F780ED76F000161EC0FF003C0BA
:1047B000BEFC02C0BDFC01C0BCFC00C0BBFCBECC4A
:1047C000D2FCBDCCD1FCBCCCD0FCBBCCCFFCB6CC9D
:1047D000D6FCB5CCD5FCB4CCD4FCB3CCD3FCB5EC76
:1047E00019F003C0C4FC02C0C3FC01C0C2FC00C07D
:1047F000C1FCD89203C0D6FC02C0D5FC01C0D4FCD9
:1048000000C0D3FC5E0E0C01DA6F500ED96F630E40
:10481000D86F7A0ED76F000161EC0FF003C0BEFCB9
:1048200002C0BDFC01C0BCFC00C0BBFCBECCD2FCC5
:10483000BDCCD1FCBCCCD0FCBBCCCFFCB6CCD6FC28
:10484000B5CCD5FCB4CCD4FCB3CCD3FCB5EC19F0CE
:1048500003C0C4FC02C0C3FC01C0C2FC00C0C1FC58
:10486000D89203C0D6FC02C0D5FC01C0D4FC00C065
:10487000D3FC1A0E0C01DA6FFE0ED96F750ED86FCD
:104880007C0ED76F000161EC0FF003C0BEFC02C0CC
:10489000BDFC01C0BCFC00C0BBFCBECCD2FCBDCC8E
:1048A000D1FCBCCCD0FCBBCCCFFCB6CCD6FCB5CCC0
:1048B000D5FCB4CCD4FCB3CCD3FCB5EC19F003C01C
:1048C000C4FC02C0C3FC01C0C2FC00C0C1FCD89241
:1048D00003C0D6FC02C0D5FC01C0D4FC00C0D3FC90
:1048E000180E0C01DA6F720ED96F310ED86F7E0E72
:1048F000D76F000161EC0FF003C0BEFC02C0BDFC2D
:1049000001C0BCFC00C0BBFCB6CCD2FCB5CCD1FC19
:10491000B4CCD0FCB3CCCFFCBECCD6FCBDCCD5FC4B
:10492000BCCCD4FCBBCCD3FCB5EC19F0D8920C01B8
:10493000D66BD56BD46B7F0ED36F03C0DAFC02C08D
:10494000D9FC01C0D8FC00C0D7FC000161EC0FF01D
:10495000BACCD2FCB9CCD1FCB8CCD0FCB7CCCFFC13
:1049600003C0D6FC02C0D5FC01C0D4FC00C0D3FCFF
:10497000B5EC19F003C0BAFC02C0B9FC01C0B8FC28
:1049800000C0B7FC0C01C0A119D0CB6BCA6BC96BBE
:104990007F0EC86FBACCCFFCB9CCCEFCB8CCCDFC66
:1049A000B7CCCCFC0001B2EC0EF003C0BAFC02C0E4
:1049B000B9FC01C0B8FC00C0B7FC0C01B7CC00F0DA
:1049C000B8CC01F0B9CC02F0BACC03F0000112006F
:1049D000A6CCD2FCA5CCD1FCA4CCD0FCA3CCCFFCE3
:1049E0000C01D66BD56BD46BD36B0001C5EC14F006
:1049F000D8A0D9D0AACCAEFCA9CCADFCA8CCACFC3C
:104A0000A7CCABFC0C01B26BB16BB06B7F0EAF6F80
:104A100000013FEC20F003C0AEFC02C0ADFC01C0C1
:104A2000ACFC00C0ABFC03C0D2FC02C0D1FC01C096
:104A3000D0FC00C0CFFC0C01D66BD56BD46BD36B14
:104A40000001C5EC14F0D8A4AED0AACCAEFCA9CC21
:104A5000ADFCA8CCACFCA7CCABFC0C01B26BB16B31
:104A6000B06B800EAF6F00013FEC20F003C0AEFCD6
:104A700002C0ADFC01C0ACFC00C0ABFC03C0D2FC6A
:104A800002C0D1FC01C0D0FC00C0CFFC0C01D66B31
:104A9000D56BD46BD36B0001C5EC14F041E1A3CC12
:104AA000ABFC0C01A451800AAC6FA5CCADFCA6CC2C
:104AB000AEFCA6CCB2FCA5CCB1FCB06FA3CCAFFCD5
:104AC00000011AEC21F003C0AEFC02C0ADFC01C035
:104AD000ACFC00C0ABFC03C0D2FC02C0D1FC01C0E6
:104AE000D0FC00C0CFFCAACCD6FCA9CCD5FCA8CC6D
:104AF000D4FCA7CCD3FCB5EC19F003C0AEFC02C0CB
:104B0000ADFC01C0ACFC00C0ABFC03C0B2FC02C0F9
:104B1000B1FC01C0B0FC00C0AFFC54DDDDD042D020
:104B2000A3CCABFC0C01A451800AAC6FA5CCADFCAE
:104B3000A6CCAEFCA6CCB2FCA5CCB1FCB06FA3CC8D
:104B4000AFFC00011AEC21F003C0AEFC02C0ADFCCA
:104B500001C0ACFC00C0ABFC03C0D2FC02C0D1FC65
:104B600001C0D0FC00C0CFFCAACCD6FCA9CCD5FC9F
:104B7000A8CCD4FCA7CCD3FCB5EC19F003C0AEFC98
:104B800002C0ADFC01C0ACFC00C0ABFC03C0B2FC79
:104B900002C0B1FC01C0B0FC00C0AFFC13DD800E50
:104BA000011A9AD099D0A6CCD2FCA5CCD1FCA4CC29
:104BB000D0FCA3CCCFFC0C01D66BD56BD46BD36BE4
:104BC0000001C5EC14F030E3AACCAEFCA9CCADFCDE
:104BD000A8CCACFCA7CCABFC0C01B26BB16BB06B3E
:104BE0007F0EAF6F00013FEC20F003C0AEFC02C0AF
:104BF000ADFC01C0ACFC00C0ABFC03C0D2FC02C0E9
:104C0000D1FC01C0D0FC00C0CFFC0C01D66BD56B31
:104C1000D46BD36B0001C5EC14F006E0006A016AA6
:104C2000026A036A59D058D0A6CCD2FCA5CCD1FCDC
:104C3000A4CCD0FCA3CCCFFC0C01D66BD56BD46B31
:104C4000D36B0001C5EC14F012E1AACCD2FCA9CCC4
:104C5000D1FCA8CCD0FCA7CCCFFC0C01D66BD56B7B
:104C6000D46BD36B0001C5EC14F001E235E1A6CCA6
:104C7000B2FCA5CCB1FCA4CCB0FCA3CCAFFC1AEC2C
:104C800021F003C0AEFC02C0ADFC01C0ACFC00C012
:104C9000ABFC03C0D2FC02C0D1FC01C0D0FC00C000
:104CA000CFFCAACCD6FCA9CCD5FCA8CCD4FCA7CCF4
:104CB000D3FCB5EC19F003C0AEFC02C0ADFC01C0E2
:104CC000ACFC00C0ABFC03C0B2FC02C0B1FC01C034
:104CD000B0FC00C0AFFC76DC12000C019F51A103B8
:104CE000F3CF01F0F4CF00F0A203F3500026A0515F
:104CF000A103F3500020026E000112000C01866B2C
:104D0000856B846B836B8A6B896B886B876B8E6B0F
:104D10008D6B8C6B8B6B926B916B906B8F6B966BBF
:104D2000956B946B936B9A6B996B986B976B040E66
:104D30009F6F000189EC19F003C086FC02C085FC5E
:104D400001C084FC00C083FC86CCCBFC85CCCAFCB3
:104D500084CCC9FC83CCC8FC0C01CF6BC00ECE6FD9
:104D60007F0ECD6F880ECC6F0001B2EC0EF00C01FF
:104D7000D26BD16B200ED06F810ECF6F03C0D6FCEB
:104D800002C0D5FC01C0D4FC00C0D3FC0001B5ECCE
:104D900019F003C086FC02C085FC01C084FC00C081
:104DA00083FC030E0C019F6F000189EC19F003C016
:104DB00092FC02C091FC01C090FC00C08FFC92CC20
:104DC000CBFC91CCCAFC90CCC9FC8FCCC8FC0C01AC
:104DD000CF6BC00ECE6F7F0ECD6F880ECC6F0001F3
:104DE000B2EC0EF00C01D26BD16B200ED06F810EA5
:104DF000CF6F03C0D6FC02C0D5FC01C0D4FC00C0FC
:104E0000D3FC0001B5EC19F003C092FC02C091FC88
:104E100001C090FC00C08FFC86CCD2FC85CCD1FCBC
:104E200084CCD0FC83CCCFFC0C01D66BD56B7A0E36
:104E3000D46F880ED36F0001B5EC19F003C086FC67
:104E400002C085FC01C084FC00C083FC92CCA6FC9F
:104E500091CCA5FC90CCA4FC8FCCA3FC0C01AA6B3C
:104E6000A96B400EA86F800EA76F0001B1DD03C0D3
:104E7000A2FC02C0A1FC01C0A0FC00C09FFC03C0BA
:104E8000D2FC02C0D1FC01C0D0FC00C0CFFC1B0E84
:104E90000C01D66F2F0ED56F9D0ED46F800ED36F81
:104EA0000001B5EC19F003C0A2FC02C0A1FC01C0D6
:104EB000A0FC00C09FFC92CCA6FC91CCA5FC90CCA1
:104EC000A4FC8FCCA3FC0C01AA6BA96BA86B800E71
:104ED000A76F00017DDD03C0A6FC02C0A5FC01C0D8
:104EE000A4FC00C0A3FC03C0D2FC02C0D1FC01C0E2
:104EF000D0FC00C0CFFC730E0C01D66F680ED56FCE
:104F00001E0ED46F830ED36F0001B5EC19F0EACFFB
:104F1000A4FCE9CFA3FCD892A2CCD6FCA1CCD5FCB2
:104F2000A0CCD4FC9FCCD3FC03C0DAFC02C0D9FCDB
:104F300001C0D8FC00C0D7FC61EC0FF0A4CCEAFFA4
:104F4000A3CCE9FF03C0A2FC02C0A1FC01C0A0FCED
:104F500000C09FFC92CCD2FC91CCD1FC90CCD0FC78
:104F60008FCCCFFCD70E0C01D66F630ED56F920E8F
:104F7000D46F850ED36F0001B5EC19F0EACFA6FC13
:104F8000E9CFA5FCD892A2CCD6FCA1CCD5FCA0CC74
:104F9000D4FC9FCCD3FC03C0DAFC02C0D9FC01C016
:104FA000D8FC00C0D7FC61EC0FF0A6CCEAFFA5CC82
:104FB000E9FF03C0A2FC02C0A1FC01C0A0FC00C02C
:104FC0009FFCEACFA8FCE9CFA7FCD89203C0D6FC8F
:104FD00002C0D5FC01C0D4FC00C0D3FC9A0E0C0169
:104FE000DA6F190ED96F750ED86F850ED76F000165
:104FF00061EC0FF0A8CCEAFFA7CCE9FF03C08EFC60
:1050000002C08DFC01C08CFC00C08BFC010E0C01A9
:10501000825D0201385D02E001E3386B0C01A06B98
:1050200038C29FFCA26B040EA16F000156DE015036
:10503000BB0FE96E030E0220EA6E8BCCEFFF8CCC27
:10504000ECFF8DCCECFF8ECCECFF0201382B010184
:10505000696B0C0182510101695D3FE20C01A06B9B
:1050600069C19FFCA26B040EA16F000136DE02C075
:1050700003F00150BB0FE96E030E0220EA6EEFCF82
:1050800000F0ECCF01F0ECCF02F0ECCF03F0EACF70
:10509000A0FCE9CF9FFCD8929ACCD6FC99CCD5FC49
:1050A00098CCD4FC97CCD3FC03C0DAFC02C0D9FC6A
:1050B00001C0D8FC00C0D7FC61EC0FF0A0CCEAFF27
:1050C0009FCCE9FF03C09AFC02C099FC01C098FC88
:1050D00000C097FC0101692BBCD70C01D46B82CCBA
:1050E000D3FC000197EC0EF09ACCCBFC99CCCAFC17
:1050F00098CCC9FC97CCC8FC03C0CFFC02C0CEFC46
:1051000001C0CDFC00C0CCFCB2EC0EF003C09AFC98
:1051100002C099FC01C098FC00C097FC9ACC25F213
:1051200099CC24F298CC23F297CC22F286CCA6FC20
:1051300085CCA5FC84CCA4FC83CCA3FC0C01AA6B7D
:10514000A96B400EA86F800EA76F000141DC8D0E89
:105150000C01D26FFB0ED16F830ED06F620ECF6F3A
:1051600003C0D6FC02C0D5FC01C0D4FC00C0D3FCF7
:105170000001B5EC19F003C0A2FC02C0A1FC01C003
:10518000A0FC00C09FFC86CCA6FC85CCA5FC84CCF2
:10519000A4FC83CCA3FC0C01AA6BA96BA86B800EAA
:1051A000A76F000115DCAE0E0C01D26F160ED16F89
:1051B000710ED06F6E0ECF6F03C0D6FC02C0D5FC4F
:1051C00001C0D4FC00C0D3FC0001B5EC19F0EACF5B
:1051D000A4FCE9CFA3FCD892A2CCD6FCA1CCD5FCF0
:1051E000A0CCD4FC9FCCD3FC03C0DAFC02C0D9FC19
:1051F00001C0D8FC00C0D7FC61EC0FF0A4CCEAFFE2
:10520000A3CCE9FF03C0A2FC02C0A1FC01C0A0FC2A
:1052100000C09FFCDB0E0C01D26F320ED16F600E0E
:10522000D06F760ECF6F86CCD6FC85CCD5FC84CCE7
:10523000D4FC83CCD3FC0001B5EC19F0EACFA6FC7A
:10524000E9CFA5FCD892A2CCD6FCA1CCD5FCA0CCB1
:10525000D4FC9FCCD3FC03C0DAFC02C0D9FC01C053
:10526000D8FC00C0D7FC61EC0FF0A6CCEAFFA5CCBF
:10527000E9FF03C0A2FC02C0A1FC01C0A0FC00C069
:105280009FFCEACFA8FCE9CFA7FCD88203C0D6FCDC
:1052900002C0D5FC01C0D4FC00C0D3FC660E0C01DA
:1052A000DA6FD96F460ED86F820ED76F000161ECAE
:1052B0000FF0A8CCEAFFA7CCE9FF03C0A2FC02C014
:1052C000A1FC01C0A0FC00C09FFCEACFAAFCE9CF72
:1052D000A9FCD8829ACCD6FC99CCD5FC98CCD4FC2D
:1052E00097CCD3FC0C01DA6BD96B380ED86F830ED8
:1052F000D76F000161EC0FF0AACCEAFFA9CCE9FF5F
:1053000003C0AEFC02C0ADFC01C0ACFC00C0ABFCF5
:1053100003C0D2FC02C0D1FC01C0D0FC00C0CFFC55
:10532000520E0C01D66F490ED56F1D0ED46F760E3E
:10533000D36F0001B5EC19F0EACFACFCE9CFABFCC0
:10534000D8920C01D66BD56BD46B7F0ED36F03C094
:10535000DAFC02C0D9FC01C0D8FC00C0D7FC0001B7
:1053600061EC0FF0ACCCEAFFABCCE9FFA2CCCBFCFC
:10537000A1CCCAFCA0CCC9FC9FCCC8FC03C0CFFC0C
:1053800002C0CEFC01C0CDFC00C0CCFCB2EC0EF0E3
:1053900003C08AFC02C089FC01C088FC00C087FCF5
:1053A0008ACCD2FC89CCD1FC88CCD0FC87CCCFFC79
:1053B0000C01D66BD56BD46BD36B0001C5EC14F02C
:1053C00006E30C018A6B896B886B876B00019A0E70
:1053D0000C01D26F990ED16F190ED06F7A0ECF6F6C
:1053E00086CCD6FC85CCD5FC84CCD4FC83CCD3FC39
:1053F0000001B5EC19F003C0A2FC02C0A1FC01C081
:10540000A0FC00C09FFCD88203C0D6FC02C0D5FC23
:1054100001C0D4FC00C0D3FCCD0E0C01DA6FCC0E61
:10542000D96F160ED86F840ED76F000161EC0FF0A4
:1054300003C029F202C028F201C027F200C026F200
:10544000010E0C01825D0001EE5303E1ED5D0DE004
:105450000CE3EE6BED6B0101FD2BFD51010804E245
:105460000001AF870101FD6B0001ED35026EEE35E5
:10547000036E02360336FC0E02160250FB0FE96E75
:10548000040E0320EA6E87CCEFFF88CCECFF89CCBA
:10549000ECFF8ACCECFFED2BD8B4EE2B0101696B4D
:1054A0000C0182510101695D3FE20C01A06B69C1F1
:1054B0009FFCA26B040EA16F00010FDC02C003F081
:1054C0000150FB0FE96E040E0220EA6EEFCF00F0F0
:1054D000ECCF01F0ECCF02F0ECCF03F0EACFA0FC70
:1054E000E9CF9FFCD89296CCD6FC95CCD5FC94CC39
:1054F000D4FC93CCD3FC03C0DAFC02C0D9FC01C0BD
:10550000D8FC00C0D7FC61EC0FF0A0CCEAFF9FCC28
:10551000E9FF03C096FC02C095FC01C094FC00C0EA
:1055200093FC0101692BBCD70C01D46B82CCD3FC5A
:10553000000197EC0EF096CCCBFC95CCCAFC94CC39
:10554000C9FC93CCC8FC03C0CFFC02C0CEFC01C098
:10555000CDFC00C0CCFCB2EC0EF003C096FC02C047
:1055600095FC01C094FC00C093FCAFA74BD0AF9753
:10557000D651040DF350036A9F0FE96E010E03200C
:10558000EA6E93CCEFFF94CCECFF95CCECFF96CC7D
:10559000ECFFD62BD651010835E2D66BD892A2C1CA
:1055A000D6FCA1C1D5FCA0C1D4FC9FC1D3FCA6C12F
:1055B000DAFCA5C1D9FCA4C1D8FCA3C1D7FC61EC1D
:1055C0000FF003C0A2FC02C0A1FC01C0A0FC00C0FF
:1055D0009FFC03C0CBFC02C0CAFC01C0C9FC00C0D8
:1055E000C8FC0C01CF6BCE6BCD6B800ECC6F000175
:1055F000B2EC0EF003C031F202C030F201C02FF263
:1056000000C02EF293CC00F094CC01F095CC02F0C7
:1056100096CC03F012000C01886B876B866B856B50
:105620008C6B8B6B8A6B896B906B8F6B8E6B8D6BBE
:10563000946B936B926B916B9F6B000189EC19F0EB
:1056400003C0D2FC02C0D1FC01C0D0FC00C0CFFC22
:1056500002EC15F002C084FC01C083FC02014A5137
:105660000C01825D03E202014A6B0C01D890020139
:105670004A35036A930FE96E030E0320EA6E84CC69
:10568000ECFFED5283CCEFFF4A2B4B6B010E0C016C
:10569000825D02014B5D01E038E2D8904B35036A30
:1056A000930FE96E030E0320EA6EECCF03F0ED5288
:1056B000EFCFD3FC03C0D4FC000197EC0EF0EACF8F
:1056C00096FCE9CF95FCD89288CCD6FC87CCD5FC4B
:1056D00086CCD4FC85CCD3FC03C0DAFC02C0D9FC58
:1056E00001C0D8FC00C0D7FC61EC0FF096CCEAFFFB
:1056F00095CCE9FF03C088FC02C087FC01C086FC92
:1057000000C085FC02014B2BC1D70C01D46B82CCAD
:10571000D3FC000197EC0EF088CCCBFC87CCCAFC04
:1057200086CCC9FC85CCC8FC03C0CFFC02C0CEFC33
:1057300001C0CDFC00C0CCFCB2EC0EF003C08CFC70
:1057400002C08BFC01C08AFC00C089FC0C01D26B3A
:10575000D16B200ED06F810ECF6F8CCCD6FC8BCC52
:10576000D5FC8ACCD4FC89CCD3FC0001B5EC19F073
:1057700003C098FC02C097FC01C096FC00C095FCD9
:1057800003C0CBFC02C0CAFC01C0C9FC00C0C8FCFD
:105790000C01CF6BC00ECE6F7F0ECD6F880ECC6F1D
:1057A0000001B2EC0EF003C090FC02C08FFC01C0FF
:1057B0008EFC00C08DFC90CCCBFC8FCCCAFC8ECC78
:1057C000C9FC8DCCC8FC0A0E0C01CF6FD70ECE6F72
:1057D000230ECD6F780ECC6F0001B2EC0EF003C03B
:1057E00094FC02C093FC01C092FC00C091FC91CCDF
:1057F00000F092CC01F093CC02F094CC03F01200B4
:105800000C01875303E18651640803E2876B640E41
:10581000866F87CC5EF186CC5DF1000112000C0131
:10582000875303E18651640803E2876B640E866F39
:1058300087CCC2F086CCC1F0000112000900F552FD
:1058400011E0F6CF82FCF7CF83FCF8CF84FCF55053
:105850009EA8FED7AD6E82CCF6FF83CCF7FF84CC3A
:10586000F8FFECD712009EA8FED7AD6E1200100E06
:10587000006E002EFED70000FF0EF5DF100E006E4A
:10588000002EFED70000FF0EEEDF100E006E002E81
:10589000FED70000FF0EE7DF100E006E002EFED7D1
:1058A000000012000C018C51016A8B5D03E28BCC6D
:1058B00000F00CD0006A080E8D6F8B3700368C51CB
:1058C000005CD8B0006E01368D2FF7D700011200B2
:1058D00087CC88FC0C018839006E0F0E0016005032
:1058E0000A0DF3CF87FC8839006EF00E00160050C9
:1058F000003A0F0E00160050872787CC01F00001F8
:105900001200080E016E050E006E002EFED78D925D
:105910009692060E006E002EFED70C018D378D94E8
:10592000D8B09684D8A09694968284A2FED7012EF1
:1059300001D002D00001E7D7050E006E002EFED781
:105940008D92969200009684060E006E002EFED771
:10595000060E006E002EFED7968284A2FED7016A44
:10596000060E006E002EFED784B401808D929692B2
:105970008D94969400011200080E0C018C6F00C0EB
:105980008DFC9684060E006E002EFED7968284A2B1
:10599000FED784B4D88084A4D8900136050E006E5A
:1059A000002EFED796928D928C2FEBD79684060E02
:1059B000006E002EFED78D948D51D8A496940000D1
:1059C000968284A2FED7050E006E002EFED78D9221
:1059D0009692060E006E002EFED78D9496940001CE
:1059E000120072C0D2F073C0D3F074C0D4F075C08E
:1059F000D5F05EEF2DF0EC6BEB6BEC535EE1EB5111
:105A000004085BE3B00E936FEBC094F093C082FC8C
:105A100094C083FC9684050E006E002EFED79682FD
:105A2000060E006E002EFED78D949694050E006E25
:105A3000002EFED78D92969282CC8DFC62DF83CCB5
:105A40008DFC5FDF9684050E006E002EFED79682D9
:105A5000060E006E002EFED784A2FED78D9496947B
:105A6000050E006E002EFED78D929692010E0C014F
:105A70008225846F8D6F000144DF006A7DDF01C0E5
:105A800092F096940000968284A2FED7050E006ED6
:105A9000002EFED700D000009684050E006E002E6A
:105AA000FED7720EEB25E96E000EEC21EA6E92C075
:105AB000EFFFEB2BD8B4EC2BA0D793D7C2EF8EF02F
:105AC0000C01916B906B8F6B8E6B956B946B936BE2
:105AD000926B8DCCD2FC8CCCD1FC8BCCD0FC8ACC04
