:04000000BEEF84F0DB
:080008005DEF00F000000000B4
:100010000000000000000000046ED8CF05F0E0CF23
:1000200006F00001E9CF0CF0EACF07F0E1CF08F0CD
:10003000E2CF09F0D9CF0AF0DACF0BF0F3CF12F00C
:10004000F4CF13F0FACF14F0FBCF15F000C00EF090
:1000500001C00FF002C010F003C011F09DA034EFFA
:1000600000F09EB00CEF08F09DA23AEF00F09EB2B7
:10007000F2EF08F00EC000F00FC001F010C002F067
:1000800011C003F00CC0E9FF07C0EAFF078E08C0EB
:10009000E1FF09C0E2FF0AC0D9FF0BC0DAFF12C0BE
:1000A000F3FF13C0F4FF14C0FAFF15C0FBFF0450A8
:1000B00006C0E0FF05C0D8FF1000186ED8CF19F0B9
:1000C000E0CF1AF00001E9CF20F0EACF1BF0E1CF3A
:1000D0001CF0E2CF1DF0D9CF1EF0DACF1FF0F3CF26
:1000E00026F0F4CF27F0FACF28F0FBCF29F000C09C
:1000F00022F001C023F002C024F003C025F09DAA25
:1001000085EF00F09EBAD2EF07F022C000F023C0C6
:1001100001F024C002F025C003F020C0E9FF1BC09D
:10012000EAFF1B8E1CC0E1FF1DC0E2FF1EC0D9FF0D
:100130001FC0DAFF26C0F3FF27C0F4FF28C0FAFF74
:1001400029C0FBFF18501AC0E0FF19C0D8FF1000EB
:10015000737461747573542E7478743D22436F6E9A
:1001600074726F6C616E646F220073746174757366
:10017000542E7478743D224D6573657461220000BD
:10018000737461747573542E7478743D2252616D6A
:100190007061202D2200737461747573542E74780D
:1001A000743D22456E667269616E646F22007374DD
:1001B00061747573542E7478743D22436F6E74723B
:1001C0006F6C616E646F2200737461747573542E6A
:1001D0007478743D224D65736574612200007374F8
:1001E00061747573542E7478743D2252616D706120
:1001F000202B2200737461747573542E7478743DCF
:100200002243616C656E74616E646F2200007374CA
:1002100061747573542E7478743D22215465726D27
:100220006F737461746F212200007374617475734D
:10023000542E7478743D22436F6E74726F6C616ECD
:10024000646F202D2200737461747573542E74785A
:10025000743D22456E667269616E646F220073742C
:1002600061747573542E7478743D22436F6E74728A
:100270006F6C616E646F202B2200737461747573F0
:10028000542E7478743D2243616C656E74616E64A3
:100290006F220000737461747573542E7478743D0A
:1002A000222154656D702E2042616A612122000076
:1002B000737461747573542E7478743D222154657F
:1002C0006D702E20416C7461212200007374617482
:1002D0007573542E7478743D22436F6E74726F6C14
:1002E000616E646F202D2200737461747573542ED7
:1002F0007478743D22456E667269616E646F220087
:10030000737461747573542E7478743D22456E66EF
:100310007269616E646F2200737461747573542E18
:100320007478743D22436F6E74726F6C616E646F8B
:10033000202B2200737461747573542E7478743D8D
:1003400022436F6E74726F6C616E646F202B22009B
:10035000737461747573542E7478743D2243616CA8
:10036000656E74616E646F22000074254C752E7486
:1003700078743D22253032753A25303275220000DE
:10038000737461747573482E7478743D22214875B6
:100390006D2E2042616A612122007374617475734D
:1003A000482E7478743D222148756D2E20416C745E
:1003B00061212200737461747573482E7478743DE2
:1003C0002248756D696469666963616E646F2200B5
:1003D000737461747573482E7478743D22436F6E24
:1003E00074726F6C616E646F2200737461747573E4
:1003F000482E7478743D22436F6E74726F6C616E18
:10040000646F2200737461747573482E7478743D40
:100410002244657368756D696469666963616E64B9
:100420006F220000737461747573482E7478743D84
:1004300022436F6E74726F6C616E646F220073740E
:1004400061747573482E7478743D22436F6E7472B4
:100450006F6C616E646F2200737461747573482EE3
:100460007478743D222148756D2E2042616A6121A5
:100470002200737461747573482E7478743D222160
:1004800048756D2E20416C74612122007374617473
:100490007573482E7478743D2248756D6964696679
:1004A0006963616E646F2200737461747573482EA2
:1004B0007478743D22436F6E74726F6C616E646FFA
:1004C0002200737461747573482E7478743D2243EE
:1004D0006F6E74726F6C616E646F220073746174FE
:1004E0007573482E7478743D2244657368756D6920
:1004F0006469666963616E646F220000737461747D
:100500007573482E7478743D22436F6E74726F6CED
:10051000616E646F2200737461747573482E747811
:10052000743D22436F6E74726F6C616E646F220053
:1005300066656368612E7478743D22466563686100
:100540003A253032752F253032752F323025303232
:100550007520202020486F72613A20253032753A8C
:10056000253032753A25303275220000706167659A
:10057000205072696E636970616C0000746D696E01
:100580007365632E7478743D222530327522000025
:10059000747365637365632E7478743D22253032FD
:1005A00075220000706167652052616D7061730093
:1005B000746D696E7365632E7478743D22253032D4
:1005C00075220000747365637365632E7478743DDF
:1005D000222530327522000063302E76616C3D3169
:1005E000000063312E76616C3D30000063322E7660
:1005F000616C3D30000063302E76616C3D30000050
:1006000063312E76616C3D31000063322E76616C71
:100610003D30000063302E76616C3D300000633168
:100620002E76616C3D30000063322E76616C3D3178
:10063000000066656368612E7478743D22466563C8
:1006400068613A253032752F253032752F323025CA
:1006500030327520202020486F72613A20253032D8
:10066000753A253032753A253032752200007473A0
:10067000657474656D2E7478743D2225322E316652
:10068000220070616765205072696E636970616CE9
:1006900000007473657474656D2E7478743D222542
:1006A000322E31662200706167652052616D706183
:1006B000730066656368612E7478743D22466563D5
:1006C00068613A253032752F253032752F3230254A
:1006D00030327520202020486F72613A2025303258
:1006E000753A253032753A25303275220000633074
:1006F0002E76616C3D31000063312E76616C3D30A9
:10070000000063322E76616C3D30000063302E763F
:10071000616C3D30000063312E76616C3D3100002C
:1007200063322E76616C3D30000070616765205049
:1007300072696E636970616C0000747365747465CE
:100740006D2E7478743D2225303275220000706160
:1007500067652052616D70617300747365747465B0
:100760006D2E7478743D222530327522000062317E
:10077000322E62636F3D3130323400006231322EEE
:1007800062636F3D36333438380062302E62636FF7
:100790003D313032340062302E62636F3D36333487
:1007A0003838000062312E62636F3D3130323400E0
:1007B00062312E62636F3D36333438380000623266
:1007C0002E62636F3D313032340062322E62636FCD
:1007D0003D363334383800006231312E62636F3D6C
:1007E0003130323400006231312E62636F3D363376
:1007F0003438380062332E62636F3D31303234005A
:1008000062332E62636F3D3633343838000062360F
:100810002E62636F3D313032340062362E62636F78
:100820003D3633343838000062382E62636F3D3114
:100830003032340062382E62636F3D3633343838DC
:10084000000062392E62636F3D313032340062390C
:100850002E62636F3D363334383800006231372EF4
:1008600062636F3D3130323400006231372E626393
:100870006F3D3633343838006232312E62636F3D5B
:100880003130323400006232312E62636F3D3633D4
:10089000343838006231372E7478743D224E6976D0
:1008A000656C2042616A6F2200006232312E7478DA
:1008B000743D224E6976656C20416C746F22000095
:1008C0006231362E7478743D22416C3A253032758F
:1008D00022006231332E7478743D22414443313A10
:1008E0002530332E30662025312E316622006231CC
:1008F000342E7478743D22414443323A2530332EED
:1009000030662025312E316622006231352E747812
:10091000743D2254313A25312E3266202200623550
:100920002E7478743D225433353A256C64220000CD
:100930006231382E7478743D2254323A25312E3289
:10094000662200006232302E7478743D225468753D
:100950006D3A25312E32662200006231392E7478CC
:10096000743D2248756D3A25312E326625252200C8
:100970007061676520416A7573746573000070610A
:10098000676520416A7573746573000074686F72DF
:10099000612E7478743D2225303275220000746D0A
:1009A000696E75746F732E7478743D2225303275BC
:1009B0002200746469612E7478743D22253032758A
:1009C0002200746D65732E7478743D222530327563
:1009D000220074796561722E7478743D222530325C
:1009E0007522000070616765205072696E636970DE
:1009F000616C000061646420312C302C257500008E
:100A000061646420312C312C2575000074302E7403
:100A100078743D22436F6E74726F6C20646520544D
:100A2000656D706572617475726120416374697679
:100A300061646F22000074302E7478743D22436F1D
:100A40006E74726F6C2064652048756D65646164B6
:100A500020416374697661646F22000074302E74E3
:100A600078743D22436F6E74726F6C2064652054FD
:100A7000656D706572617475726120792048756D5D
:100A80006564616420416374697661646F2200006B
:100A900074302E7478743D22436F6E74726F6C20C4
:100AA000706F722052616D7061732041637469765A
:100AB00061646F22000074302E7478743D22436F9D
:100AC0006E74726F6C6573204465736163746976CC
:100AD00061646F73220074656D702E7478743D22AA
:100AE00025312E3166B04322000068756D65642E95
:100AF0007478743D2225312E3166252522006164EB
:100B00006420312C302C25312E3066006164642045
:100B1000312C312C25312E3066006970312E7478DD
:100B2000743D2225752200006970322E7478743D60
:100B30002225752200006970332E7478743D2225B9
:100B4000752200006970342E7478743D2225752258
:100B5000000067312E7478743D22257522006732BB
:100B60002E7478743D222575220067332E747874B4
:100B70003D222575220067342E7478743D22257538
:100B8000220073312E7478743D2225752200733251
:100B90002E7478743D222575220073332E74787478
:100BA0003D222575220073342E7478743D222575FC
:100BB00022006D312E7478743D22257522006D322D
:100BC0002E7478743D22257522006D332E7478744E
:100BD0003D22257522006D342E7478743D222575D2
:100BE00022006D352E7478743D22257522006D36F5
:100BF0002E7478743D22257522007061676520414E
:100C00006A757374657300006236312E7478743DB2
:100C100022494E4943494F2200006236312E626319
:100C20006F3D3130323400006236312E7478743DBD
:100C300022444554454E455222006236312E6263AD
:100C40006F3D36333438380074697472616D706189
:100C5000732E7478743D2250726F6772616D6120DB
:100C60002530324C752C205061736F732050726F99
:100C70006772616D61646F7320253032752C20506E
:100C800061736F2073656C656363696F6E61646F18
:100C90003A202530324C7522000074656D702E7438
:100CA00078743D2254656D70657261747572613A35
:100CB00054413A25322E3166432020543A25322EB3
:100CC00031664322000074656D702E7478743D2285
:100CD00054656D70657261747572613A54413A2D54
:100CE0002D2D2020543A25322E316643220074697E
:100CF000656D706F2E7478743D225469656D706FE8
:100D00003A253032753A25303275202848483A4D18
:100D10004D29220068756D2E7478743D2248756DDA
:100D2000656461643A253033752025252022000052
:100D300074656D702E7478743D2254656D706572A3
:100D400061747572613A202D2D2200007469656D01
:100D5000706F2E7478743D225469656D706F3A2DF2
:100D60002D3A2D2D220068756D2E7478743D224821
:100D7000756D656461643A202D2D220074656D7077
:100D80002E7478743D2254656D706572617475724D
:100D9000613A54413A25322E3166432020543A2597
:100DA000322E31664322000074656D702E747874A3
:100DB0003D2254656D70657261747572613A54417B
:100DC0003A2D2D2D2020543A25322E316643220013
:100DD0007469656D706F2E7478743D225469656D09
:100DE000706F3A253032753A2530327520284848E0
:100DF0003A4D4D29220068756D2E7478743D224855
:100E0000756D656461643A2530337520252520228F
:100E10000000706167652054656D7065726174755E
:100E200072610000706167652048756D656461647A
:100E3000000070616765205469656D706F007061B6
:100E40006765205072696E636970616C0000706143
:100E5000676520496E69636961646F0074697472C3
:100E6000616D7061732E7478743D222150726F67CA
:100E700072616D6120566163696F2C2070726F67BB
:100E800072616D6520616C206D656E6F732031201D
:100E90007365676D656E746F212200007061676510
:100EA00020496E69636961646F0070616765204500
:100EB0006C696D696E61646F0000706167652052D6
:100EC000616D706173007472616D70612E747874FD
:100ED0003D2250726F6772616D61202530324C7512
:100EE00020496E69636961646F2200007472616DEC
:100EF00070612E7478743D2250726F6772616D61FB
:100F000020446574656E69646F22000070616765D6
:100F1000205072696E636970616C00007474656D55
:100F2000702E70636F3D3635353335007468756DDE
:100F30002E70636F3D3000007468756D2E70636FA6
:100F40003D363535333500007474656D702E706331
:100F50006F3D30007061676520416A757374657319
:100F600000007474656D702E7478743D222B2F2DE3
:100F700025312E31662200007468756D2E747874E8
:100F80003D222B2F2D25312E306622009EAAFED722
:100F9000ABCF2BF0AECF01F02BA202D0AB98AB8839
:100FA000D3EF07F0F3D701C04EF101014E516508B0
:100FB00002E11E83496B1EA30AD0036A49513E0F0A
:100FC000E96E010E0320EA6E4EC1EFFF492B495135
:100FD000090802E2496B1E93495310E13E5165082E
:100FE0000BE13F3D09D0403D07D0465305E1473D69
:100FF00003D0050E4F6F02D00A0E4F6F9E9A00016C
:1010000085EF00F00C01E55303E08A8C939C02D03D
:101010008A9C939C000112009E0ECF6E580ECE6EDD
:101020000601152BD8B4162B172BD8B4182B192B57
:10103000D8B41A2B928880A80BD01C510B0807E358
:1010400003E11B51B70803E31B2BD8B41C2B02D0C0
:101050001C6B1B6B0001AFA125D006011A510001CA
:10106000F95D0FE308E1F8510601195DD8A002D03F
:10107000000107D00001010E0C01E56F0001C2DF85
:1010800004D00C01E56B0001BDDFF75106011A5DCC
:1010900008E305E10001F6510601195D02E31A6B50
:1010A000196B00010601185303E1175113080FE2F1
:1010B0000101818381AB03D07B2BD8B47C2B81AD24
:1010C00003D07D2BD8B47E2B0601186B176B1653FB
:1010D00004E11551C708D8B081D0166B156B01011A
:1010E00081896F2BD8B4702B712BD8B4722B732BD2
:1010F000D8B4742B81715F89505114080CE11EBF64
:101100000AD082BD08D082AF06D00001C72BD8B468
:10111000C82B04D001010001C86BC76B01015051FD
:10112000140810E10001ADAF02D001010BD00101A4
:1011300082BD08D083A106D00001C92BD8B4CA2B28
:1011400004D001010001CA6BC96BAEB902D0AEABCD
:1011500014D0B551010803E38B8094900DD0B551A4
:10116000050806E3B551000803E28B90949004D083
:10117000B551050801E2B56BB52BAEA103D0E62B46
:10118000D8B4E72BADAB03D0B72BD8B4B82BADADEB
:1011900003D0B92BD8B4BA2B010182A903D0D82B24
:1011A000D8B4D92B81A503D0752BD8B4762B642D58
:1011B00001D003D0645102080BE1772BD8B4782B0F
:1011C000010E1A27D8B01B2BD8B41C2BD8B41D2B5A
:1011D00081A703D0792BD8B47A2B06019E90000109
:1011E0003AEF00F0CE0ECC6EF22BD8B4F32BF42BEA
:1011F000D8B4F52BF35303E1F2513B0802E2F36B51
:10120000F26BF35101014B5D0CE308E14A5100011F
:10121000F25DD8A002D0010104D001018B84949426
:1012200002D08B9494940001F55303E1F4513B08F0
:1012300002E2F56BF46BF551C25D07E303E1C151C6
:10124000F45D03E28B82949202D08B9294929E92F0
:101250003AEF00F070616765204269656E76656EF1
:1012600069646100626B636D643D30007061676545
:10127000205072696E636970616C0000626B636D0F
:10128000643D3000626B636D643D30007061676582
:1012900020436C617665000070616765205072695B
:1012A0006E636970616C0000746974756C6F2E7484
:1012B00078743D22436C617665204E7565766122B7
:1012C0000000646F6576656E7473000074697475F0
:1012D0006C6F2E7478743D22436C61766520416397
:1012E0007475616C2200646F6576656E74730000BE
:1012F000746974756C6F2E7478743D22436C6176DA
:1013000065205465636E69636F220000646F6576C3
:10131000656E74730000746974756C6F2E747874E4
:101320003D22496E677265736520436C6176652264
:1013300000007061676520436C617665436F72726F
:101340006563746100007061676520436C61766558
:10135000426164007061676520436F6E6669670073
:1013600070616765205072696E636970616C00001E
:101370007061676520436C617665000074697475FF
:101380006C6F2E7478743D22436C617665204E75C7
:1013900065766122000070616765205072696E6336
:1013A0006970616C0000746974756C6F2E74787468
:1013B0003D22436C617665204E75657661220000A2
:1013C00070616765205072696E636970616C0000BE
:1013D00070616765205465737400706167652050A3
:1013E00072696E636970616C0000706167652043AB
:1013F000616C6962000070616765205072696E639C
:101400006970616C000066656368612E7478743D74
:101410002246656368613A253032752F2530327572
:101420002F32302530327520486F72613A202530D6
:1014300032753A253032753A2530327522007061A6
:1014400067652052656400007061676520466563CA
:10145000686100007061676520436C61766500001B
:10146000706167652054657374007061676520431F
:101470006C6176650000706167652047726166691E
:10148000636100007061676520416C61726D61731A
:10149000000070616765205072696E636970616CED
:1014A000000070616765205072696E636970616CDD
:1014B00000007061676520436C61766500007469A7
:1014C00074756C6F2E7478743D2250726F67726100
:1014D0006D61202530324C752C205061736F2025B2
:1014E000303275220000746974756C6F2E747874D4
:1014F0003D2250726F6772616D61202530324C75EC
:101500002046696E616C697A61646F2200007469BB
:1015100074756C6F2E7478743D2243616D617261D5
:1015200020436C696D6174696361204A5020496E83
:10153000676C6F62616C220066656368612E747807
:10154000743D2246656368613A253032752F253037
:1015500032752F32302530327520202020486F72AE
:10156000613A20253032753A253032753A253032CD
:1015700075220000706167652054656D7065726149
:10158000747572610000706167652048756D6564EF
:101590006164000070616765205469656D706F005B
:1015A0007061676520416A757374657300007061CE
:1015B00067652052616D70617300706167652056C8
:1015C000656C6F6369646164000073746174757342
:1015D0002E7478743D225075657274612063657253
:1015E00072616461220062342E7069633D3532009D
:1015F00062352E7069633D35320062362E70696344
:101600003D3532007468756D656461642E7478745C
:101610003D2248756D6564616422000073746174D5
:101620007573542E7478743D22215465726D6F73F6
:101630007461746F212200007468756D6564616463
:101640002E7478743D2248756D65646164220000D3
:1016500062352E7069633D35320073746174757341
:10166000482E7478743D22446574656E69646F22F7
:1016700000007468756D656461642E7478743D2231
:1016800048756D6564616422000062352E7069637F
:101690003D35310062342E7069633D35320073741C
:1016A00061747573542E7478743D22446574656E4C
:1016B00069646F22000062342E7069633D35310029
:1016C00062342E7069633D35310062352E70696376
:1016D0003D35310062362E7069633D3531007374DB
:1016E00061747573482E7478743D222D2D2D2D2D27
:1016F0002200737461747573542E7478743D222DB6
:101700002D2D2D2D22007374617475732E747874D1
:101710003D22507565727461206162696572746101
:10172000220062342E7069633D35310062352E70BF
:1017300069633D35310062362E7069633D35310095
:10174000737461747573542E7478743D2246696E97
:10175000616C697A61646F220000737461747573DF
:10176000482E7478743D2246696E616C697A6164B2
:101770006F22000074656D70657261747572612E00
:101780007478743D2254313A25312E3166B04322AB
:10179000000074656D70657261747572612E747885
:1017A000743D2254313A2D2D2D2D2D2200007465CB
:1017B0006D7065726174757261322E7478743D2239
:1017C00054323A25312E3166B043220074656D7073
:1017D00065726174757261322E7478743D22543270
:1017E0003A2D2D2D2D2D22007374656D706572615B
:1017F000747572612E7478743D225345543A2531C4
:101800002E3166B0432200007368756D65646164B3
:101810002E7478743D225345543A2530337525256E
:101820002022000068756D656461642E7478743DD3
:101830002248523A2530332E31662525220068751C
:101840006D656461642E7478743D2248523A31307B
:1018500030252522000068756D656461642E7478FA
:10186000743D2248523A2D2D2D2D22007374696546
:101870006D706F2E7478743D225345543A25303282
:10188000753A25303275202848483A4D4D292200B6
:101890007469656D706F2E7478743D2225303275D1
:1018A0003A25303275202200706F74542E7478748B
:1018B0003D22506F742E20543A25322E306620255A
:1018C000252200007374617475732E7478743D2240
:1018D00046696E616C697A61646F2200436F6E665F
:1018E00069672E7432632E7478743D2250726F7063
:1018F0006F7263696F6E616C22007433632E74784B
:10190000743D222575220000436F6E6669672E7450
:1019100032632E7478743D2244657269766174690D
:10192000766F22007433632E7478743D22257522FD
:101930000000436F6E6669672E7432632E7478748C
:101940003D22496E74656772616C22007433632EA8
:101950007478743D222575220000436F6E666967B6
:101960002E7432632E7478743D22546369636C6FF5
:1019700022007433632E7478743D22257522000092
:10198000436F6E6669672E7432632E7478743D22DD
:10199000416A75737465202B22007433632E74784A
:1019A000743D222575220000436F6E6669672E74B0
:1019B00032632E7478743D22416A75737465202DEC
:1019C00022007433632E7478743D22257522000042
:1019D000436F6E6669672E7432632E7478743D228D
:1019E0004D656469612200007433632E7478743D20
:1019F000222575220000436F6E6669672E7432637C
:101A00002E7478743D224D656469612048756D229D
:101A100000007433632E7478743D22257522000013
:101A2000436F6E6669672E7432632E7478743D223C
:101A3000416A7573746532202B2200007433632E63
:101A40007478743D222575220000436F6E666967C5
:101A50002E7432632E7478743D22416A75737465F6
:101A600032202D2200007433632E7478743D2225B9
:101A700075220000436F6E6669672E7432632E74A0
:101A800078743D224D7565737472656F22007433EE
:101A9000632E7478743D2225303375220000436F25
:101AA0006E6669672E7432632E7478743D225431E9
:101AB0002048756D6564616422007433632E747808
:101AC000743D2225303275220000436F6E666967CF
:101AD0002E7432632E7478743D2254322048756D12
:101AE0006564616422007433632E7478743D22252A
:101AF000303275220000436F6E6669672E74326360
:101B00002E7478743D2254332048756D6564616489
:101B100022007433632E7478743D2225303275228E
:101B20000000436F6E6669672E7432632E7478749A
:101B30003D2274436F6E67656C6122007433632EBF
:101B40007478743D222530334C752200436F6E66E5
:101B500069672E7432632E7478743D2274446973FD
:101B6000706C617922007433632E7478743D222581
:101B7000303375220000436F6E6669672E743263DE
:101B80002E7478743D224869737465726573697345
:101B900022007433632E7478743D2225312E316611
:101BA0002200436F6E6669672E7432632E747874F8
:101BB0003D2274446566726F737432220000743380
:101BC000632E7478743D222530334C752200706189
:101BD000676520416A757374657300000C0EEA6EC8
:101BE000A60EE96EEF500DE0060E016E006A002EA3
:101BF000FED7012EFBD77B0E006E002EFED7EF2EF8
:101C0000F3D712000C018E6B8E5107080DE3D890AC
:101C10008D3302E28C9C01D08C8C959C959A8C8A99
:101C2000959A8C9A8E2BF0D700011200959E8C8E7F
:101C30008BCC8DFCE7DF8CCC8DFCE4DF959E8C9EFD
:101C40001200959E8C8E88CC8DFCDCDF958C100E5E
:101C5000006E002EFED700000C01896B8951070829
:101C600019E3958C83BC02D0D89001D0D8808A33F8
:101C7000959A8C8A200E006E002EFED700D00000B0
:101C8000959A8C9A200E006E002EFED700D0000090
:101C9000892BE4D7959E8C9E8ACC01F0000112001E
:101CA000959E8C9E200E006E002EFED700D0000068
:101CB000959A8C9A8E0E0C018B6F8C6B0001B6DF9F
:101CC000900E0C018B6FA40E8C6F0001AFDF810EA4
:101CD0000C01886F0001B5DF01C084FC0C01845148
:101CE000800B06E0800E8B6F8C6B00019FDF0C0178
:101CF00000011AEF87F00C01855302E18B9001D0AF
:101D00008B80949000011200F2CF85FCF29CF29E31
:101D1000AA6A84CCA9FFA69CA69EA680A8500C0106
:101D200085BDF28C85BFF28E016E000112008E0E11
:101D3000006ED6CC01F0D5CC02F0036A015209E165
:101D400002C001F0026A080E005E015202E1006A60
:101D500008D0D89001BE04D0023601360006F9D76B
:101D6000019E12000C01CA51D8B4A5D0D66FCE5135
:101D7000D8B4A1D0D65F05E37F0ED627D8B09BD0CC
:101D800006D0810ED65FD8A096D0D8B494D0D6CC49
:101D900000F0016A026A036AD56BCBCCD4FCD48F05
:101DA000CCCCD3FCCDCCD2FC190ED66FD151D25FA6
:101DB0000DE2010ED35F0AE2D45F08E2D55F06E2CE
:101DC000D52BD42BD32BD151D22728D0D051D35FB0
:101DD00012E2010ED45F0FE2D55F0DE2D52BD42BBA
:101DE000D051D327D151D22719E3D32B17E1D42BCC
:101DF00015E1D52B13D0CF518009D45F0EE2010E2F
:101E0000D55F0BE2D52BCF518009D427D051D327F2
:101E1000E9E3D42BE7E1D52BE5D70380D62F01D01A
:101E20000BD0D890D237D337D437D537D8900336A4
:101E300002360136D737BAD7D7A106D0D8900132AB
:101E400002320332D73302D0000635E0D7BF1ED0AE
:101E5000D890D237D337D437D537D151D25F07E2B4
:101E6000010ED35F04E2D45F02E2D55F1AE3D051E2
:101E7000D35F05E2010ED45F02E2D55F12E3CF51DA
:101E80008009D45F03E2010ED55F0BE3032A09E169
:101E9000022A07E1012A05E1002A0DE0013202329F
:101EA0000332CBCCD6FCCF51D61BD6AF02D0018E9D
:101EB00006D0019E04D0006A016A026A036A00012A
:101EC0001200800ED8A202D00C01DA1B0C01DF6BCD
:101ED000E06BD6CCDEFCDA51DE1BD551D8B4DFD0B6
:101EE000DD6F006ED951D8B4E3D0DD5FD8B483D0B4
:101EF0003EE3DACCE3FCE38FDBCCE2FCDCCCE1FCC0
:101F0000E06BD890E333E233E133E033DD2FF8D7F1
:101F1000DEAF03D0DF81E0D0DF91DD91DF890C0EF1
:101F2000EA6ED80EE96EEBD0DF99DEBF0AD0DDA1F4
:101F300013D0E333E233E133E033002AD8B4C7D01F
:101F40000BD0E3BF0CD0D890E037E137E237E3376E
:101F50000006D8B4BCD0F5D7DF8D6DD0DF9DD6CCD0
:101F6000DEFCD6AF02D0E38FABD0E39FA9D0D9CCB3
:101F7000DDFCD9CC00F0D551DD5FD6CCE3FCE38F9E
:101F8000D7CCE2FCD8CCE1FCE06BD890E333E23371
:101F9000E133E033DD2FF8D7DEAF03D0DF839CD011
:101FA000DF93DD91DF8B0C0EEA6EDC0EE96EA7D0BD
:101FB000DF9BDEBF0AD0DDA113D0E333E233E13390
:101FC000E033002AD8B483D00BD0E3BF0CD0D89034
:101FD000E037E137E237E3370006D8B478D0F5D7F9
:101FE000DF8F29D0DF9FDACCDEFCDAAF02D0E38FBF
:101FF00067D0E39F65D0DACCE3FCE38FDBCCE2FC77
:10200000DCCCE1FCDEAF04D0E39FDF8565D0DF955B
:10201000E06BDD910C0EEA6ED80EE96E70D0DEBF7B
:102020001CD0D6CCDEFCDDA106D0E333E233E133B5
:10203000E033002A4CE0E0AF0BD0E12B09E1E22BCA
:1020400007E1E32B05E1E333E233E133002A3FE02C
:10205000DFBD84D7DFBFC6D71CD0800EE31BE3AF44
:1020600004D03AD0DACCDEFC0AD0D6CCDEFCE35386
:1020700006E1E25304E1E15302E1006A21D0E3BF4B
:1020800008D0D890E037E137E237E337002EF7D7B2
:102090001ED0DEAF02D0E38F13D0E39F11D0D9CC96
:1020A00000F0DACCE3FCDBCCE2FCDCCCE1FC08D0D9
:1020B000D5CC00F0D6CCE3FCD7CCE2FCD8CCE1FC0C
:1020C000E3CC01F0E2CC02F0E1CC03F034D0006AC2
:1020D000016A026A036A2FD0E06BE11FE21FE31F6F
:1020E000E01FE02B05E1E12B03E1E22B01E1E32B13
:1020F000DFB112D7DFB354D7DFB589D7B3D7EF50ED
:10210000E12705E3E22B03E1E32BD8B4DD81ED52B7
:10211000EF50E22703E3E32BD8B4DD81ED52EF501B
:10212000EFBE01D0800AE327D8B0DD81DFB9FCD64D
:10213000DFBB3ED774D7000112000C01846B000195
:10214000E3DD01C069F1050E0C01A66F000146DD5B
:10215000010E0C01846F0001D7DD01C068F1050E8E
:102160000C01A66F00013ADD020E0C01846F000124
:10217000CBDD01C017F2050E0C01A66F00012EDDAC
:10218000030E0C01846F0001BFDD0C01D66B01C092
:10219000D5FC0001CCDD03C01FF202C01EF201C05D
:1021A0001DF200C01CF2050E0C01A66F000116DD29
:1021B0001FC2CDFC1EC2CCFC1DC2CBFC1CC2CAFC83
:1021C0000C01D16BD06B200ECF6F820ECE6F000151
:1021D000C9DD03C01FF202C01EF201C01DF200C023
:1021E0001CF20C01D66B17C2D5FC0001A0DDD89201
:1021F00003C0D8FC02C0D7FC01C0D6FC00C0D5FC8F
:102200001FC2DCFC1EC2DBFC1DC2DAFC1CC2D9FCF6
:1022100058DE03C0FDF002C0FCF001C0FBF000C0BE
:10222000FAF0040E0C01846F00016EDD01C0CCF0E9
:10223000050E0C01A66F0001D1DC050E0C01846FA8
:10224000000162DD01C0B4F0050E0C01A66F0001B3
:10225000C5DC060E0C01846F000156DD0C01D66B47
:1022600001C0D5FC000163DD03C019F102C018F103
:1022700001C017F100C016F1050E0C01A66F000198
:10228000ADDCF2CF84FCF29CF29EAA6A070EA96E26
:10229000A69CA69EA680A8500C0184BDF28C84BF8B
:1022A000F28E0001EF6BEE6F050E0C01A66F0001C0
:1022B00095DCF2CF84FCF29CF29EAA6A080EA96E0D
:1022C000A69CA69EA680A8500C0184BDF28C84BF5B
:1022D000F28E0001C46BC36F050E0C01A66F0001E6
:1022E0007DDC090E0C01846F00010EDD01C0B3F02E
:1022F000050E0C01A66F000171DC0A0E0C01846F43
:10230000000102DD01C060F1050E0C01A66F0001A5
:1023100065DC0B0E0C01846F0001F6DC01C061F17D
:10232000050E0C01A66F000159DC0C0E0C01846F28
:102330000001EADC01C062F1050E0C01A66F00018C
:102340004DDC0D0E0C01846F0001DEDC01C063F179
:10235000050E0C01A66F000141DC140E0C01846F08
:102360000001D2DC01C0CDF0050E0C01A66F00010A
:1023700035DC150E0C01846F0001C6DC01C0CBF00A
:10238000050E0C01A66F000129DC160E0C01846FEE
:102390000001BADC0C01D66B01C0D5FC0001C7DC22
:1023A00003C00BF202C00AF201C009F200C008F239
:1023B000050E0C01A66F000111DC0BC2CDFC0AC298
:1023C000CCFC09C2CBFC08C2CAFC0C01D16BD06B9F
:1023D000200ECF6F820ECE6F0001C4DC03C00BF263
:1023E00002C00AF201C009F200C008F21E0E0C0180
:1023F000846F000189DC0C01D66B01C0D5FC0001A3
:1024000096DC03C022F102C021F101C020F100C01E
:102410001FF1050E0C01A66F0001EEEC0DF01F0E72
:102420000C01846F000170DC01C0D3F0050E0C01BB
:10243000A66F0001EEEC0DF0200E0C01846F000180
:1024400063DC01C0D4F0050E0C01A66F0001EEECB8
:102450000DF0210E0C01846F000156DC01C0D7F095
:10246000050E0C01A66F0001EEEC0DF0220E0C0122
:10247000846F000149DC01C0D8F0050E0C01A66F85
:102480000001EEEC0DF0230E0C01846F00013CDC2A
:1024900001C0D9F0050E0C01A66F0001EEEC0DF0A5
:1024A000240E0C01846F00012FDC01C0D5F0050E55
:1024B0000C01A66F0001EEEC0DF0250E0C01846FEF
:1024C000000122DC01C0DAF0050E0C01A66F00014C
:1024D000EEEC0DF0260E0C01846F000115DC01C03E
:1024E000DBF0050E0C01A66F0001EEEC0DF0270EDF
:1024F0000C01846F000108DC01C0D6F0050E0C0150
:10250000A66F0001EEEC0DF0280E0C01846F0001A7
:1025100084EC0EF001C027F2050E0C01A66F00013D
:10252000EEEC0DF0290E0C01846F000184EC0EF02E
:1025300001C02AF2050E0C01A66F0001EEEC0DF0B1
:102540002A0E0C01846F000184EC0EF001C029F208
:10255000050E0C01A66F0001EEEC0DF02B0E0C0128
:10256000846F000184EC0EF001C02BF2050E0C010B
:10257000A66F0001EEEC0DF02C0E0C01846F000133
:1025800084EC0EF001C0B0F0050E0C01A66F000146
:10259000EEEC0DF02D0E0C01846F000184EC0EF0BA
:1025A00001C0B1F0050E0C01A66F0001EEEC0DF0BC
:1025B0002E0E0C01846F000184EC0EF001C0B2F00D
:1025C000050E0C01A66F0001EEEC0DF0F2CF84FCBD
:1025D000F29CF29EAA6A180EA96EA69CA69EA680E0
:1025E000A8500C0184BDF28C84BFF28ED66BD56FDF
:1025F000000197EC0EF003C015F102C014F101C008
:1026000013F100C012F10A0E0C01A66F0001EEECEE
:102610000DF015C1CDFC14C1CCFC13C1CBFC12C113
:10262000CAFC0C01D16BD06B200ECF6F820ECE6F27
:102630000001B2EC0EF003C015F102C014F101C0AC
:1026400013F100C012F10A0E0C01A66F0001EEECAE
:102650000DF0F2CF84FCF29CF29EAA6A170EA96ECE
:10266000A69CA69EA680A8500C0184BDF28C84BFB7
:10267000F28ED66BD56F000197EC0EF0D89203C0A6
:10268000D8FC02C0D7FC01C0D6FC00C0D5FC15C1E7
:10269000DCFC14C1DBFC13C1DAFC12C1D9FC11DC77
:1026A00003C00DF102C00CF101C00BF100C00AF132
:1026B0000A0E0C01A66F0001EEEC0DF0F2CF84FCC7
:1026C000F29CF29EAA6A1A0EA96EA69CA69EA680ED
:1026D000A8500C0184BDF28C84BFF28ED66BD56FEE
:1026E000000197EC0EF003C015F102C014F101C017
:1026F00013F100C012F10A0E0C01A66F0001EEECFE
:102700000DF015C1CDFC14C1CCFC13C1CBFC12C122
:10271000CAFC0C01D16BD06B200ECF6F820ECE6F36
:102720000001B2EC0EF003C015F102C014F101C0BB
:1027300013F100C012F10A0E0C01A66F0001EEECBD
:102740000DF0F2CF84FCF29CF29EAA6A190EA96EDB
:10275000A69CA69EA680A8500C0184BDF28C84BFC6
:10276000F28ED66BD56F000197EC0EF0D89203C0B5
:10277000D8FC02C0D7FC01C0D6FC00C0D5FC15C1F6
:10278000DCFC14C1DBFC13C1DAFC12C1D9FC61EC26
:102790000FF003C011F102C010F101C00FF100C031
:1027A0000EF10A0E0C01A66F0001EEEC0DF02F0EDB
:1027B0000C01846F000184EC0EF001C04AF6050E96
:1027C0000C01A66F0001EEEC0DF0300E0C01846FD1
:1027D000000184EC0EF001C04BF6050E0C01A66F53
:1027E0000001EEEC0DF0310E0C01846F000184EC61
:1027F0000EF001C04CF6050E0C01A66F0001EEECC8
:102800000DF0320E0C01846F000184EC0EF001C05B
:102810004DF6050E0C01A66F0001EEEC0DF0330E27
:102820000C01846F000184EC0EF001C04EF6050E21
:102830000C01A66F0001EEEC0DF0340E0C01846F5C
:10284000000184EC0EF001C04FF6050E0C01A66FDE
:102850000001EEEC0DF0350E0C01846F000184ECEC
:102860000EF001C050F6050E0C01A66F0001EEEC53
:102870000DF0360E0C01846F000184EC0EF001C0E7
:1028800051F6050E0C01A66F0001EEEC0DF0370EAF
:102890000C01846F000184EC0EF001C052F6050EAD
:1028A0000C01A66F0001EEEC0DF0380E0C01846FE8
:1028B000000184EC0EF001C053F6050E0C01A66F6A
:1028C0000001EEEC0DF0390E0C01846F000184EC78
:1028D0000EF001C054F6050E0C01A66F0001EEECDF
:1028E0000DF03A0E0C01846F000184EC0EF001C073
:1028F00055F6050E0C01A66F0001EEEC0DF04FEF42
:1029000087F0F250006EF29CF29EAA6A86CCA9FF74
:1029100085CCA8FFA69CA69EA6840F01550EA76E87
:10292000AA0EA76EA682A6B2FED7A6940050F212F7
:1029300000011200D2CCD9FC0C01D651D91BD9AF61
:1029400005D0D894D890D2BFD8802FD0D2CCD9FC83
:10295000D5CCDAFCD151DA5F06E0D9AF26D0D85019
:10296000010AD86E22D0D6CCDAFCD251DA5F06E06A
:10297000D9AF1BD0D850010AD86E17D0D7CCDAFC0B
:10298000D351DA5F06E0D9AF10D0D850010AD86E23
:102990000CD0D8CCDAFCD451DA5F06E0D9AF05D040
:1029A000D850010AD86E01D0D890000112008E0EC6
:1029B000006E0C01D151005ED2CC02F0D3CC01F0FC
:1029C000028E005209E0D890025202E1015204E066
:1029D00002320132002EF7D7D2AF05D0011E021EFF
:1029E000012AD8B4022A00011200010169513B08F2
:1029F0000EE20A0E696F0C01856F866B000181DFA4
:102A0000140E0C01A66F0001EEEC0DF001016851EF
:102A100063080FE20A0E686F0C01856F010E866F66
:102A200000016FDF140E0C01A66F0001EEEC0DF03B
:102A300001010C01D46BD36B0C0ED26F850ED16FDC
:102A4000FDC0D8FCFCC0D7FCFBC0D6FCFAC0D5FC4E
:102A5000000170DF10E2FDC0D4FCFCC0D3FCFBC061
:102A6000D2FCFAC0D1FC0C01D86BD76BD66BD56BFE
:102A7000000160DF1FE3FD6BFC6B700EFB6F830ECC
:102A8000FA6F640E0C01856F020E866F000139DF4C
:102A9000140E0C01A66F0001EEEC0DF00C01856B1D
:102AA000030E866F00012DDF140E0C01A66F0001CE
:102AB000EEEC0DF00C01D66BCCC0D5FC000197EC10
:102AC0000EF00C01D46BD36B340ED26F850ED16F28
:102AD00003C0D8FC02C0D7FC01C0D6FC00C0D5FCA6
:102AE000000128DF19E20C01D66BCCC0D5FC000137
:102AF00097EC0EF003C0D4FC02C0D3FC01C0D2FCA2
:102B000000C0D1FC0C01D86BD76B200ED66F820EA3
:102B1000D56F00010FDF0EE33C0ECC6F0C01856F0B
:102B2000040E866F0001EDDE140E0C01A66F00018D
:102B3000EEEC0DF0B451500803E3B45109080EE374
:102B4000140EB46F0C01856F050E866F0001D9DE7F
:102B5000140E0C01A66F0001EEEC0DF00C01D46B0D
:102B6000D36B480ED26F860ED16F19C1D8FC18C135
:102B7000D7FC17C1D6FC16C1D5FC0001DBDE11E283
:102B800019C1D4FC18C1D3FC17C1D2FC16C1D1FCA9
:102B90000C01D86BD76BD66B7F0ED56F0001CADEE8
:102BA00014E30101196B186B140E176F850E166F65
:102BB0004A0E0C01856F060E866F0001A2DE140E10
:102BC0000C01A66F0001EEEC0DF0EF5307E1EE51A2
:102BD000C80804E3EE5311E1EF530FE1EF6BC80EA9
:102BE000EE6F0C01856F070E866F00018ADE140EF2
:102BF0000C01A66F0001EEEC0DF0C45307E1C351C8
:102C0000C80804E3C35311E1C4530FE1C46B3C0E85
:102C1000C36F0C01856F080E866F000172DE140E03
:102C20000C01A66F0001EEEC0DF0B3513C0802E37D
:102C3000B3530EE1050EB36F0C01856F090E866F5D
:102C400000015FDE140E0C01A66F0001EEEC0DF02A
:102C500001016051090811E202D000A00ED0606BA2
:102C60000C01856B0A0E866F00014BDE140E0C0101
:102C7000A66F0001EEEC0DF001016151090811E2AF
:102C800002D000A00ED0616B0C01856B0B0E866F1D
:102C9000000137DE140E0C01A66F0001EEEC0DF002
:102CA00001016251090811E202D000A00ED0626B4E
:102CB0000C01856B0C0E866F000123DE140E0C01D7
:102CC000A66F0001EEEC0DF001016351090811E25D
:102CD00002D000A00ED0636B0C01856B0D0E866FC9
:102CE00000010FDE140E0C01A66F0001EEEC0DF0DA
:102CF00001010001CD5101080DE2CD6B0C01856B86
:102D0000140E866F0001FDDD140E0C01A66F00018C
:102D1000EEEC0DF00C01D46BD36B200ED26F810E54
:102D2000D16F0BC2D8FC0AC2D7FC09C2D6FC08C2BC
:102D3000D5FC0001FFDD10E20BC2D4FC0AC2D3FCBB
:102D400009C2D2FC08C2D1FC0C01D86BD76BD66B80
:102D5000D56B0001EFDD16E1CD0E02010B6FCC0E3D
:102D60000A6F4C0E096F7C0E086F020E0C01856F06
:102D7000160E866F0001C5DD140E0C01A66F000152
:102D8000EEEC0DF00C01D46BD36B200ED26F830EE2
:102D9000D16F22C1D8FC21C1D7FC20C1D6FC1FC1F4
:102DA000D5FC0001C7DD11E222C1D4FC21C1D3FC56
:102DB00020C1D2FC1FC1D1FC0C01D86BD76BD66BE4
:102DC0007F0ED56F0001B6DD13E30101226B216B8D
:102DD000206B800E1F6F020E0C01856F1E0E866F1A
:102DE00000018FDD140E0C01A66F0001EEEC0DF05A
:102DF000D351500803E3D35104080EE3500ED36FB0
:102E00000C01856F1F0E866F00017BDD140E0C0117
:102E1000A66F0001EEEC0DF0D451040802E3D45388
:102E20000EE1010ED46F0C01856F200E866F00013C
:102E300068DD140E0C01A66F0001EEEC0DF0D75109
:102E4000140803E3D75104080EE3050ED76F0C01F5
:102E5000856F210E866F000154DD140E0C01A66FE4
:102E60000001EEEC0DF0D85164080DE2D86B0C01B6
:102E7000856B220E866F000144DD140E0C01A66FD7
:102E80000001EEEC0DF0D95164080DE2D96B0C0194
:102E9000856B230E866F000134DD140E0C01A66FC6
:102EA0000001EEEC0DF0D551500803E3D5510908AF
:102EB0000EE3500ED56F0C01856F240E866F000156
:102EC00020DD140E0C01A66F0001EEEC0DF0DA51BE
:102ED00064080DE2DA6B0C01856B250E866F00012C
:102EE00010DD140E0C01A66F0001EEEC0DF0DB51AD
:102EF00064080DE2DB6B0C01856B260E866F00010A
:102F000000DD140E0C01A66F0001EEEC0DF0D651A1
:102F1000500803E3D65109080EE3280ED66F0C01C2
:102F2000856F270E866F0001ECDC140E0C01A66F76
:102F30000001EEEC0DF0020127530FE1140E276F94
:102F40000C01856F280E866F0001DBDC140E0C016E
:102F5000A66F0001EEEC0DF002012A5101080EE20D
:102F60002A6B0C01856B290E866F0001CADC140EDA
:102F70000C01A66F0001EEEC0DF0020129510108D1
:102F80000EE2296B0C01856B2A0E866F0001B9DCFD
:102F9000140E0C01A66F0001EEEC0DF002012B5196
:102FA00001080EE22B6B0C01856B2B0E866F000166
:102FB000A8DC140E0C01A66F0001EEEC0DF002016E
:102FC0000001B0513C0802E3B0530EE10A0EB06FAD
:102FD0000C01856F2C0E866F000193DC140E0C0122
:102FE000A66F0001EEEC0DF0B1513C0803E3B151C6
:102FF00003080EE31E0EB16F0C01856F2D0E866F58
:1030000000017FDC140E0C01A66F0001EEEC0DF048
:10301000B2513C0802E3B2530EE1060EB26F0C014E
:10302000856F2E0E866F00016CDC140E0C01A66FEE
:103030000001EEEC0DF00C01D46BD36B200ED26FBF
:10304000830ED16F0DC1D8FC0CC1D7FC0BC1D6FCCF
:103050000AC1D5FC00016EDC11E20DC1D4FC0CC12B
:10306000D3FC0BC1D2FC0AC1D1FC0C01D86BD76BCD
:10307000D66B7E0ED56F00015DDC3FE301010D6B69
:103080000C6B0B6B7F0E0A6FF250006EF29CF29E7F
:10309000AA6A320EA96E010EA86EA69CA69EA684F0
:1030A0000F01550EA76EAA0EA76EA682A6B2FED776
:1030B000A6940050F212140E0C01A66F0001EEEC63
:1030C0000DF0F250006EF29CF29EAA6A330EA96EC9
:1030D000A86AA69CA69EA6840F01550EA76EAA0EEE
:1030E000A76EA682A6B2FED7A6940050F212140EC6
:1030F0000C01A66F0001EEEC0DF00C01D46BD36B4C
:10310000200ED26F840ED16F11C1D8FC10C1D7FC34
:103110000FC1D6FC0EC1D5FC00010CDC13E211C1BD
:10312000D4FC10C1D3FC0FC1D2FC0EC1D1FC0C01E8
:10313000D86BD76B200ED66F810ED56F00019AEC3D
:1031400014F040E30101116B106B200E0F6F810E24
:103150000E6FF250006EF29CF29EAA6A340EA96EB7
:10316000050EA86EA69CA69EA6840F01550EA76EFE
:10317000AA0EA76EA682A6B2FED7A6940050F2129F
:10318000140E0C01A66F0001EEEC0DF0F250006E73
:10319000F29CF29EAA6A350EA96EA86AA69CA69E0B
:1031A000A6840F01550EA76EAA0EA76EA682A6B220
:1031B000FED7A6940050F212140E0C01A66F000167
:1031C000EEEC0DF022C1D4FC21C1D3FC20C1D2FC15
:1031D0001FC1D1FCD7EC14F001C0DAF1DF6BD3C012
:1031E000DEF051EF87F00C01A135006E0036FC0EC9
:1031F000001600C001F0C250C30B0010C26E010ED9
:10320000A66F0001EEEC0DF0C282C2B2FED7C4CFB1
:10321000D6FCC3CFD5FC000197EC0EF003C0A5FC93
:1032200002C0A4FC01C0A3FC00C0A2FCA2CC00F020
:10323000A3CC01F0A4CC02F0A5CC03F012000C0149
:10324000D151D8B471D0006ED551D8B46DD000260C
:1032500004E3810E002668E204D07F0E005E64E382
:1032600063E0D2CCD9FCD651D91BD28FD68FD451A2
:10327000D803F4CFDBFCD351D703F4CF03F0F3CF63
:10328000DAFCD803F350DB27F450DA23000E0322D4
:10329000D451D703F350DB27F450DA23000E026A2F
:1032A00003220222D251D803F350DA27F45003222A
:1032B000000E0222D251D703F3500326F45002220B
:1032C000000E016A0122D451D603F350DA27F450DC
:1032D0000322000E02220122D351D603F35003260B
:1032E000F4500222000E0122D251D603F3500226DE
:1032F000F4500122002A01BE05D0DA370336023627
:1033000001360006000EDAAF0AD0032A022201229B
:10331000015005E1025003E1035001E1002AD9BF49
:10332000018ED9AF019E04D0006A016A026A036A65
:10333000000112000C018A6B896B886B876B8E6BA6
:103340008D6B8C6B8B6B0101F76BF66BF56BF46B14
:10335000DF6BDE6BDD6BDC6B010E0C01A16F00011E
:1033600042DF03C0D4FC02C0D3FC01C0D2FC00C0C9
:10337000D1FCD7EC14F002C086FC01C085FC010E24
:103380000C01845D0101575D02E001E3576BD890A9
:103390005735036A2D0FE96E020E0320EA6E86CCC4
:1033A000ECFFED5285CCEFFF572B566B0C0184518F
:1033B0000101565D38E2D8905635036A2D0FE96E4B
:1033C000020E0320EA6EECCF03F0ED52EFCFD5FCF6
:1033D00003C0D6FC000197EC0EF0EACF94FCE9CFD5
:1033E00093FCD892DFC1D8FCDEC1D7FCDDC1D6FC8E
:1033F000DCC1D5FC03C0DCFC02C0DBFC01C0DAFC94
:1034000000C0D9FC61EC0FF094CCEAFF93CCE9FF4B
:1034100003C0DFF102C0DEF101C0DDF100C0DCF16C
:103420000101562BC3D70C01D66B84CCD5FC00010F
:1034300097EC0EF0DFC1CDFCDEC1CCFCDDC1CBFCD6
:10344000DCC1CAFC03C0D1FC02C0D0FC01C0CFFC6F
:1034500000C0CEFCB2EC0EF003C0E7F102C0E6F112
:1034600001C0E5F100C0E4F1E7C1CDFCE6C1CCFC50
:10347000E5C1CBFCE4C1CAFCB80E0C01D16F1E0E35
:10348000D06F530ECF6F850ECE6F0001B2EC0EF0F1
:1034900003C0E7F102C0E6F101C0E5F100C0E4F1CC
:1034A000D892E7C1D8FCE6C1D7FCE5C1D6FCE4C19F
:1034B000D5FCD70E0C01DC6FA30EDB6F6C0EDA6F40
:1034C000820ED96F000161EC0FF003C0E7F102C07A
:1034D000E6F101C0E5F100C0E4F10C01CD6BC00ED6
:1034E000CC6F7F0ECB6F880ECA6FE7C1D1FCE6C1EF
:1034F000D0FCE5C1CFFCE4C1CEFC0001B2EC0EF083
:1035000003C096FC02C095FC01C094FC00C093FC73
:10351000D88203C0D8FC02C0D7FC01C0D6FC00C0D2
:10352000D5FC0C01DC6BDB6BDA6B7F0ED96F000115
:1035300061EC0FF00C01CD6B800ECC6F540ECB6F95
:103540008B0ECA6F03C0D1FC02C0D0FC01C0CFFCFF
:1035500000C0CEFC0001B2EC0EF003C0F7F102C0D7
:10356000F6F101C0F5F100C0F4F1F7C1D4FCF6C1E9
:10357000D3FCF5C1D2FCF4C1D1FCF7C1D8FCF6C133
:10358000D7FCF5C1D6FCF4C1D5FC59DE03C096FCCE
:1035900002C095FC01C094FC00C093FC03C0D4FCA5
:1035A00002C0D3FC01C0D2FC00C0D1FC41C6D8FC93
:1035B00040C6D7FC3FC6D6FC3EC6D5FC40DE03C0A5
:1035C00096FC02C095FC01C094FC00C093FCF7C1BE
:1035D000D4FCF6C1D3FCF5C1D2FCF4C1D1FC45C684
:1035E000D8FC44C6D7FC43C6D6FC42C6D5FC27DE71
:1035F000D89296CCD8FC95CCD7FC94CCD6FC93CC66
:10360000D5FC03C0DCFC02C0DBFC01C0DAFC00C05E
:10361000D9FC61EC0FF003C096FC02C095FC01C020
:1036200094FC00C093FCD89203C0D8FC02C0D7FC25
:1036300001C0D6FC00C0D5FC49C6DCFC48C6DBFC9A
:1036400047C6DAFC46C6D9FC61EC0FF003C0EFF1C7
:1036500002C0EEF101C0EDF100C0ECF10C01D66B3F
:10366000D8C0D5FC000197EC0EF003C08AFC02C064
:1036700089FC01C088FC00C087FC8ACCCDFC89CCC9
:10368000CCFC88CCCBFC87CCCAFC0C01D16BD06BBA
:10369000200ECF6F820ECE6F0001B2EC0EF003C091
:1036A0008AFC02C089FC01C088FC00C087FC0C01B8
:1036B000D66BD9C0D5FC000197EC0EF003C08EFC90
:1036C00002C08DFC01C08CFC00C08BFC8ECCCDFCFC
:1036D0008DCCCCFC8CCCCBFC8BCCCAFC0C01D16B44
:1036E000D06B200ECF6F820ECE6F0001B2EC0EF0C9
:1036F00003C08EFC02C08DFC01C08CFC00C08BFCA2
:10370000D8828ACCD8FC89CCD7FC88CCD6FC87CC94
:10371000D5FC8ECCDCFC8DCCDBFC8CCCDAFC8BCCF1
:10372000D9FC61EC0FF0D892EFC1D8FCEEC1D7FC08
:10373000EDC1D6FCECC1D5FC03C0DCFC02C0DBFC57
:1037400001C0DAFC00C0D9FC61EC0FF003C0EFF15E
:1037500002C0EEF101C0EDF100C0ECF1ECC100F0EF
:10376000EDC101F0EEC102F0EFC103F01200010162
:10377000FB6BFA6BF96BF86BE36BE26BE16BE06B85
:103780000C018A6B896B886B876B020EA16F00013D
:103790002ADD03C0D4FC02C0D3FC01C0D2FC00C0AF
:1037A000D1FCD7EC14F002C086FC01C085FC010EF0
:1037B0000C01845D0201185D02E001E3186BD890F2
:1037C0001835036ACD0FE96E020E0320EA6E86CC2F
:1037D000ECFFED5285CCEFFF182B196B0C018451D7
:1037E0000201195D38E2D8901935036ACD0FE96EF0
:1037F000020E0320EA6EECCF03F0ED52EFCFD5FCC2
:1038000003C0D6FC000197EC0EF0EACF98FCE9CF9C
:1038100097FCD892E3C1D8FCE2C1D7FCE1C1D6FC49
:10382000E0C1D5FC03C0DCFC02C0DBFC01C0DAFC5B
:1038300000C0D9FC61EC0FF098CCEAFF97CCE9FF0F
:1038400003C0E3F102C0E2F101C0E1F100C0E0F128
:103850000201192BC3D70C01D66B84CCD5FC000117
:1038600097EC0EF0E3C1CDFCE2C1CCFCE1C1CBFC96
:10387000E0C1CAFC03C0D1FC02C0D0FC01C0CFFC37
:1038800000C0CEFCB2EC0EF003C0EBF102C0EAF1D6
:1038900001C0E9F100C0E8F1EBC1CDFCEAC1CCFC0C
:1038A000E9C1CBFCE8C1CAFCB80E0C01D16F1E0EF9
:1038B000D06F530ECF6F850ECE6F0001B2EC0EF0BD
:1038C00003C0EBF102C0EAF101C0E9F100C0E8F188
:1038D000D892EBC1D8FCEAC1D7FCE9C1D6FCE8C15B
:1038E000D5FCD70E0C01DC6FA30EDB6F6C0EDA6F0C
:1038F000820ED96F000161EC0FF003C0EBF102C042
:10390000EAF101C0E9F100C0E8F10C01CD6BC00E95
:10391000CC6F7F0ECB6F880ECA6FEBC1D1FCEAC1B2
:10392000D0FCE9C1CFFCE8C1CEFC0001B2EC0EF046
:1039300003C09AFC02C099FC01C098FC00C097FC2F
:10394000D88203C0D8FC02C0D7FC01C0D6FC00C09E
:10395000D5FC0C01DC6BDB6BDA6B7F0ED96F0001E1
:1039600061EC0FF00C01CD6B800ECC6F540ECB6F61
:103970008B0ECA6F03C0D1FC02C0D0FC01C0CFFCCB
:1039800000C0CEFC0001B2EC0EF003C0FBF102C09F
:10399000FAF101C0F9F100C0F8F1FBC1D4FCFAC1A1
:1039A000D3FCF9C1D2FCF8C1D1FCFBC1D8FCFAC1EF
:1039B000D7FCF9C1D6FCF8C1D5FC41DC03C09AFCA8
:1039C00002C099FC01C098FC00C097FC03C0D4FC65
:1039D00002C0D3FC01C0D2FC00C0D1FC41C6D8FC5F
:1039E00040C6D7FC3FC6D6FC3EC6D5FC28DC03C08B
:1039F0009AFC02C099FC01C098FC00C097FCFBC176
:103A0000D4FCFAC1D3FCF9C1D2FCF8C1D1FC45C643
:103A1000D8FC44C6D7FC43C6D6FC42C6D5FC0FDC56
:103A2000D8929ACCD8FC99CCD7FC98CCD6FC97CC21
:103A3000D5FC03C0DCFC02C0DBFC01C0DAFC00C02A
:103A4000D9FC61EC0FF003C09AFC02C099FC01C0E4
:103A500098FC00C097FCD89203C0D8FC02C0D7FCE9
:103A600001C0D6FC00C0D5FC49C6DCFC48C6DBFC66
:103A700047C6DAFC46C6D9FC61EC0FF003C0F3F18F
:103A800002C0F2F101C0F1F100C0F0F10C01D66BFF
:103A9000DAC0D5FC000197EC0EF003C08EFC02C02A
:103AA0008DFC01C08CFC00C08BFC8ECCCDFC8DCC81
:103AB000CCFC8CCCCBFC8BCCCAFC0C01D16BD06B7E
:103AC000200ECF6F820ECE6F0001B2EC0EF003C05D
:103AD0008EFC02C08DFC01C08CFC00C08BFC0C0174
:103AE000D66BDBC0D5FC000197EC0EF003C092FC56
:103AF00002C091FC01C090FC00C08FFC92CCCDFCB8
:103B000091CCCCFC90CCCBFC8FCCCAFC0C01D16B03
:103B1000D06B200ECF6F820ECE6F0001B2EC0EF094
:103B200003C092FC02C091FC01C090FC00C08FFC5D
:103B3000D8828ECCD8FC8DCCD7FC8CCCD6FC8BCC50
:103B4000D5FC92CCDCFC91CCDBFC90CCDAFC8FCCAD
:103B5000D9FC61EC0FF0D892F3C1D8FCF2C1D7FCCC
:103B6000F1C1D6FCF0C1D5FC03C0DCFC02C0DBFC1B
:103B700001C0DAFC00C0D9FC61EC0FF003C0F3F126
:103B800002C0F2F101C0F1F100C0F0F1F0C100F0AB
:103B9000F1C101F0F2C102F0F3C103F012000C0117
:103BA000D091C4CCC9FCC3CCC8FCC2CCC7FCC1CC2E
:103BB000C6FCC4CCD4FCC3CCD3FCC2CCD2FCC1CC9C
:103BC000D1FCD86BD76BD66BD56B00019AEC14F097
:103BD00006E30C01D081C751800AC76F0001C9CC30
:103BE000D4FCC8CCD3FCC7CCD2FCC6CCD1FC0C01D5
:103BF000D86BD76BD66B8E0ED56F00019AEC14F094
:103C000001E219E1C9CCD4FCC8CCD3FCC7CCD2FCAE
:103C1000C6CCD1FCD7EC14F002C0D6FC01C0D5FC58
:103C200097EC0EF003C0CDFC02C0CCFC01C0CBFC75
:103C300000C0CAFCD3D0C9CCD4FCC8CCD3FCC7CC00
:103C4000D2FCC6CCD1FC800E0C01D86F960ED76F7B
:103C5000180ED66F960ED56F00019AEC14F0D8A00E
:103C6000B5D0C9CCD4FCC8CCD3FCC7CCD2FCC6CC14
:103C7000D1FC0C01D86BD76BD66B700ED56F0001E1
:103C80001FEC19F003C0D4FC02C0D3FC01C0D2FC6D
:103C900000C0D1FCD7EC14F002C0CFFC01C0CEFCB8
:103CA000C9CCD4FCC8CCD3FCC7CCD2FCC6CCD1FC8C
:103CB0000C01D86BD76BD66B700ED56F00011FEC63
:103CC00019F003C0D4FC02C0D3FC01C0D2FC00C078
:103CD000D1FCCFCCD6FCCECCD5FC97EC0EF0D88264
:103CE000D4CCD8FCD3CCD7FCD2CCD6FCD1CCD5FC10
:103CF00003C0DCFC02C0DBFC01C0DAFC00C0D9FC64
:103D000061EC0FF00C01D46BD36BD26B8E0ED16FC4
:103D100003C0D8FC02C0D7FC01C0D6FC00C0D5FC53
:103D200000011FEC19F003C0C9FC02C0C8FC01C0AF
:103D3000C7FC00C0C6FCCFCCD6FCCECCD5FC97ECE3
:103D40000EF00C01D46BD36BD26B8E0ED16F03C00F
:103D5000D8FC02C0D7FC01C0D6FC00C0D5FC0001D5
:103D60001FEC19F003C0CDFC02C0CCFC01C0CBFCA1
:103D700000C0CAFCC9CCD4FCC8CCD3FCC7CCD2FC94
:103D8000C6CCD1FCD7EC14F002C0D6FC01C0D5FCE7
:103D900097EC0EF0D892CDCCD8FCCCCCD7FCCBCCC9
:103DA000D6FCCACCD5FC03C0DCFC02C0DBFC01C0E5
:103DB000DAFC00C0D9FC61EC0FF003C0CDFC02C0FE
:103DC000CCFC01C0CBFC00C0CAFC08D0C9CCCDFCE7
:103DD000C8CCCCFCC7CCCBFCC6CCCAFCC9CCD4FC70
:103DE000C8CCD3FCC7CCD2FCC6CCD1FCD7EC14F0E9
:103DF00002C0D6FC01C0D5FC97EC0EF0D882C9CC2D
:103E0000D8FCC8CCD7FCC7CCD6FCC6CCD5FC03C0EC
:103E1000DCFC02C0DBFC01C0DAFC00C0D9FC61ECB8
:103E20000FF003C0C9FC02C0C8FC01C0C7FC00C041
:103E3000C6FC0C01D0A103D0CB51800ACB6FC9CCFA
:103E4000D4FCC8CCD3FCC7CCD2FCC6CCD1FCD86B3C
:103E5000D76BD66BD56B00019AEC14F03CE00C01EB
:103E6000D0A11CD0C5531AE1D882CDCCD8FCCCCC83
:103E7000D7FCCBCCD6FCCACCD5FCDC6BDB6BDA6BCD
:103E80007F0ED96F000161EC0FF003C0CDFC02C0C2
:103E9000CCFC01C0CBFC00C0CAFC0C01D0B11CD0D2
:103EA000C52D1AD0D892CDCCD8FCCCCCD7FCCBCC5D
:103EB000D6FCCACCD5FCDC6BDB6BDA6B7F0ED96F22
:103EC000000161EC0FF003C0CDFC02C0CCFC01C0CE
:103ED000CBFC00C0CAFC0C01C4CCD4FCC3CCD3FCCA
:103EE000C2CCD2FCC1CCD1FCD86BD76BD66BD56B16
:103EF00000019AEC14F006E10C01CD6BCC6BCB6B9E
:103F0000CA6B0001CACC00F0CBCC01F0CCCC02F0E3
:103F1000CDCC03F01200C0CCC4FCBFCCC3FCBECCE3
:103F2000C2FCBDCCC1FC010E0C01C56F000137DE27
:103F300008EF20F0C0CCC4FCBFCCC3FCBECCC2FC9C
:103F4000BDCCC1FC0C01C56B000129DE2CEF20F0BB
:103F5000B4CCD4FCB3CCD3FCB2CCD2FCB1CCD1FC2D
:103F60000C01D86BD76BD66BD56B00019AEC14F0B3
:103F7000D8B4A0D0B0CCCDFCAFCCCCFCAECCCBFC7C
:103F8000ADCCCAFCB4CCD1FCB3CCD0FCB2CCCFFC11
:103F9000B1CCCEFCB2EC0EF003C0BCFC02C0BBFC4A
:103FA00001C0BAFC00C0B9FC03C0D4FC02C0D3FC01
:103FB00001C0D2FC00C0D1FC0C01D86BD76BD66B12
:103FC000D56B00019AEC14F024E3B0CCCDFCAFCC5F
:103FD000CCFCAECCCBFCADCCCAFCB4CCD1FCB3CCCD
:103FE000D0FCB2CCCFFCB1CCCEFCB2EC0EF003C016
:103FF000BCFC02C0BBFC01C0BAFC00C0B9FC03C0E1
:10400000C0FC02C0BFFC01C0BEFC00C0BDFC83D729
:1040100023D0B0CCCDFCAFCCCCFCAECCCBFCADCC6B
:10402000CAFCB4CCD1FCB3CCD0FCB2CCCFFCB1CC6C
:10403000CEFCB2EC0EF003C0BCFC02C0BBFC01C065
:10404000BAFC00C0B9FC03C0C0FC02C0BFFC01C088
:10405000BEFC00C0BDFC6ED703C0B8FC02C0B7FCFC
:1040600001C0B6FC00C0B5FCB8CCD4FCB7CCD3FCC6
:10407000B6CCD2FCB5CCD1FCB4CCD8FCB3CCD7FCFC
:10408000B2CCD6FCB1CCD5FC1FEC19F0D882B0CCA8
:10409000D8FCAFCCD7FCAECCD6FCADCCD5FC03C0A5
:1040A000DCFC02C0DBFC01C0DAFC00C0D9FC61EC26
:1040B0000FF000D012008E0E006EC8CC01F0C7CCFD
:1040C00002F0036A01AE05D0011E021E022A01E1C0
:1040D000012A015209E102C001F0026A080E005EE5
:1040E000015202E1006A0ED0D89001BE04D002361F
:1040F00001360006F9D70C01C8AF02D0000102D08A
:10410000019E00011200B4CCB8FCB3CCB7FCB2CC19
:10411000B6FCB1CCB5FCB8CCD4FCB7CCD3FCB6CC97
:10412000D2FCB5CCD1FC0C01D86BD76BD66B7F0E13
:10413000D56F00019AEC14F0D8B49ED10C0E0C018E
:10414000C76FB50EE96EC7CCEAFF7E0EEF6ED88260
:10415000B8CCD8FCB7CCD7FCB6CCD6FCB5CCD5FC0B
:10416000DC6BDB6BDA6B7F0ED96F000161EC0FF05B
:1041700003C0C9FC02C0C8FC01C0C7FC00C0C6FC2B
:10418000D892B8CCD8FCB7CCD7FCB6CCD6FCB5CC42
:10419000D5FC0C01DC6BDB6BDA6B7F0ED96F000199
:1041A00061EC0FF0C9CCCDFCC8CCCCFCC7CCCBFCAF
:1041B000C6CCCAFC03C0D1FC02C0D0FC01C0CFFCFD
:1041C00000C0CEFCB2EC0EF003C0B8FC02C0B7FCDD
:1041D00001C0B6FC00C0B5FCB8CCD4FCB7CCD3FC55
:1041E000B6CCD2FCB5CCD1FCB8CCD8FCB7CCD7FC83
:1041F000B6CCD6FCB5CCD5FC1FEC19F003C0C4FC82
:1042000002C0C3FC01C0C2FC00C0C1FC990E0C017D
:10421000D46F470ED36F8A0ED26F7F0ED16FC4CC8E
:10422000D8FCC3CCD7FCC2CCD6FCC1CCD5FC000199
:104230001FEC19F003C0C9FC02C0C8FC01C0C7FCD8
:1042400000C0C6FCD89203C0D8FC02C0D7FC01C095
:10425000D6FC00C0D5FC0C01DC6BDB6BDA6B800E8E
:10426000D96F000161EC0FF003C0BCFC02C0BBFCC5
:1042700001C0BAFC00C0B9FC4C0E0C01D46FF30EA7
:10428000D36F3A0ED26F7B0ED16FC4CCD8FCC3CCA7
:10429000D7FCC2CCD6FCC1CCD5FC00011FEC19F078
:1042A00003C0C9FC02C0C8FC01C0C7FC00C0C6FCFA
:1042B000D89203C0D8FC02C0D7FC01C0D6FC00C015
:1042C000D5FC2B0E0C01DC6F9D0EDB6FDF0EDA6F61
:1042D0007E0ED96F000161EC0FF003C0C0FC02C07C
:1042E000BFFC01C0BEFC00C0BDFCC0CCD4FCBFCC38
:1042F000D3FCBECCD2FCBDCCD1FCC4CCD8FCC3CC4E
:10430000D7FCC2CCD6FCC1CCD5FC1FEC19F003C045
:10431000C9FC02C0C8FC01C0C7FC00C0C6FCD892E2
:1043200003C0D8FC02C0D7FC01C0D6FC00C0D5FC3D
:104330000C01DC6BDB6BDA6B7F0ED96F000161EC7B
:104340000FF003C0C0FC02C0BFFC01C0BEFC00C037
:10435000BDFCB8CCD4FCB7CCD3FCB6CCD2FCB5CC2D
:10436000D1FCBCCCD8FCBBCCD7FCBACCD6FCB9CCED
:10437000D5FC1FEC19F003C0C9FC02C0C8FC01C089
:10438000C7FC00C0C6FC03C0CDFC02C0CCFC01C011
:10439000CBFC00C0CAFCC0CCD1FCBFCCD0FCBECC96
:1043A000CFFCBDCCCEFCB2EC0EF003C0BCFC02C016
:1043B000BBFC01C0BAFC00C0B9FC0C0E0C01C76FFD
:1043C000B10EE96EC7CCEAFF7E0EEF5CC56FC5AFDC
:1043D00014D0000ED880C555C86BC76FC7BFC807BB
:1043E000000169DE00C0BDFC0150800A0C01BE6FF7
:1043F00002C0BFFC03C0C0FC10D0C86BC5CCC7FC5A
:10440000C7BFC807000157DE03C0C0FC02C0BFFC25
:1044100001C0BEFC00C0BDFC0C01C0CCD4FCBFCCB4
:10442000D3FCBECCD2FCBDCCD1FC180ED86F720E22
:10443000D76F310ED66F7E0ED56F00011FEC19F0CD
:10444000D892BCCCD8FCBBCCD7FCBACCD6FCB9CC6F
:10445000D5FC03C0DCFC02C0DBFC01C0DAFC00C000
:10446000D9FC61EC0FF003C0BCFC02C0BBFC01C076
:10447000BAFC00C0B9FC06D00C01BC6BBB6BBA6BBC
:10448000B96B0001B9CC00F0BACC01F0BBCC02F0A2
:10449000BCCC03F01200B4CCD4FCB3CCD3FCB2CC73
:1044A000D2FCB1CCD1FC3B0E0C01D86FAA0ED76F59
:1044B000380ED66F7F0ED56F00011FEC19F003C0C8
:1044C000D4FC02C0D3FC01C0D2FC00C0D1FCD7ECAC
:1044D00014F001C0C1FC0C01C291B4CCB8FCB3CC47
:1044E000B7FCB2CCB6FCB1CCB5FCB4CCD4FCB3CCEC
:1044F000D3FCB2CCD2FCB1CCD1FCD86BD76BD66B91
:10450000D56B00019AEC14F007E30C01C281C16D78
:10451000B651800AB66F00010C01BC6BBB6BBA6B65
:10452000B96B0C0EC46FB90EE96EC4CCEAFF7F0EF6
:10453000C125EF6EB8CCD4FCB7CCD3FCB6CCD2FC42
:10454000B5CCD1FC3B0ED86FAA0ED76F380ED66F04
:104550007F0ED56F00011FEC19F003C0C6FC02C02E
:10456000C5FC01C0C4FC00C0C3FC0C01C86BC1CCBD
:10457000C7FCC7BFC80700019EDDD882C6CCD8FCE7
:10458000C5CCD7FCC4CCD6FCC3CCD5FC03C0DCFC6A
:1045900002C0DBFC01C0DAFC00C0D9FC61EC0FF00A
:1045A00003C0B8FC02C0B7FC01C0B6FC00C0B5FC3B
:1045B0007C0E0C01D46F880ED36F590ED26F720E21
:1045C000D16FB8CCD8FCB7CCD7FCB6CCD6FCB5CC28
:1045D000D5FC00011FEC19F003C0C6FC02C0C5FCED
:1045E00001C0C4FC00C0C3FCD89203C0D8FC02C008
:1045F000D7FC01C0D6FC00C0D5FCE00E0C01DC6F7E
:10460000970EDB6F260EDA6F750ED96F000161EC25
:104610000FF003C0C0FC02C0BFFC01C0BEFC00C064
:10462000BDFCC0CCD4FCBFCCD3FCBECCD2FCBDCC3A
:10463000D1FCB8CCD8FCB7CCD7FCB6CCD6FCB5CC2A
:10464000D5FC1FEC19F003C0C6FC02C0C5FC01C0BC
:10465000C4FC00C0C3FCD89203C0D8FC02C0D7FC85
:1046600001C0D6FC00C0D5FCC40E0C01DC6F1D0ED1
:10467000DB6F1E0EDA6F780ED96F000161EC0FF060
:1046800003C0C0FC02C0BFFC01C0BEFC00C0BDFC3A
:10469000C0CCD4FCBFCCD3FCBECCD2FCBDCCD1FCB6
:1046A000B8CCD8FCB7CCD7FCB6CCD6FCB5CCD5FCB6
:1046B0001FEC19F003C0C6FC02C0C5FC01C0C4FC5D
:1046C00000C0C3FCD89203C0D8FC02C0D7FC01C014
:1046D000D6FC00C0D5FC5E0E0C01DC6F500EDB6F0B
:1046E000630EDA6F7A0ED96F000161EC0FF003C030
:1046F000C0FC02C0BFFC01C0BEFC00C0BDFCC0CC01
:10470000D4FCBFCCD3FCBECCD2FCBDCCD1FCB8CC4D
:10471000D8FCB7CCD7FCB6CCD6FCB5CCD5FC1FECBE
:1047200019F003C0C6FC02C0C5FC01C0C4FC00C037
:10473000C3FCD89203C0D8FC02C0D7FC01C0D6FC91
:1047400000C0D5FC1A0E0C01DC6FFE0EDB6F750E7F
:10475000DA6F7C0ED96F000161EC0FF003C0C0FC72
:1047600002C0BFFC01C0BEFC00C0BDFCC0CCD4FC7C
:10477000BFCCD3FCBECCD2FCBDCCD1FCB8CCD8FCD9
:10478000B7CCD7FCB6CCD6FCB5CCD5FC1FEC19F019
:1047900003C0C6FC02C0C5FC01C0C4FC00C0C3FC11
:1047A000D89203C0D8FC02C0D7FC01C0D6FC00C020
:1047B000D5FC180E0C01DC6F720EDB6F310EDA6F58
:1047C0007E0ED96F000161EC0FF003C0C0FC02C087
:1047D000BFFC01C0BEFC00C0BDFCB8CCD4FCB7CC53
:1047E000D3FCB6CCD2FCB5CCD1FCC0CCD8FCBFCC71
:1047F000D7FCBECCD6FCBDCCD5FC1FEC19F0D892B2
:104800000C01D86BD76BD66B7F0ED56F03C0DCFC69
:1048100002C0DBFC01C0DAFC00C0D9FC000161EC85
:104820000FF0BCCCD4FCBBCCD3FCBACCD2FCB9CC02
:10483000D1FC03C0D8FC02C0D7FC01C0D6FC00C02C
:10484000D5FC1FEC19F003C0BCFC02C0BBFC01C0CE
:10485000BAFC00C0B9FC0C01C2A119D0CD6BCC6B65
:10486000CB6B7F0ECA6FBCCCD1FCBBCCD0FCBACC1E
:10487000CFFCB9CCCEFC0001B2EC0EF003C0BCFC06
:1048800002C0BBFC01C0BAFC00C0B9FC0C01B9CC31
:1048900000F0BACC01F0BBCC02F0BCCC03F00001BC
:1048A0001200A8CCD4FCA7CCD3FCA6CCD2FCA5CCBF
:1048B000D1FC0C01D86BD76BD66BD56B00019AEC91
:1048C00014F0D8A0D9D0ACCCB0FCABCCAFFCAACC07
:1048D000AEFCA9CCADFC0C01B46BB36BB26B7F0E1C
:1048E000B16F0001A8EC1FF003C0B0FC02C0AFFC28
:1048F00001C0AEFC00C0ADFC03C0D4FC02C0D3FCC0
:1049000001C0D2FC00C0D1FC0C01D86BD76BD66BB8
:10491000D56B00019AEC14F0D8A4AED0ACCCB0FCAE
:10492000ABCCAFFCAACCAEFCA9CCADFC0C01B46BFB
:10493000B36BB26B800EB16F0001A8EC1FF003C027
:10494000B0FC02C0AFFC01C0AEFC00C0ADFC03C0B7
:10495000D4FC02C0D3FC01C0D2FC00C0D1FC0C01CD
:10496000D86BD76BD66BD56B00019AEC14F041E194
:10497000A5CCADFC0C01A651800AAE6FA7CCAFFC54
:10498000A8CCB0FCA8CCB4FCA7CCB3FCB26FA5CC2F
:10499000B1FC000183EC20F003C0B0FC02C0AFFC0E
:1049A00001C0AEFC00C0ADFC03C0D4FC02C0D3FC0F
:1049B00001C0D2FC00C0D1FCACCCD8FCABCCD7FC45
:1049C000AACCD6FCA9CCD5FC1FEC19F003C0B0FCD6
:1049D00002C0AFFC01C0AEFC00C0ADFC03C0B4FC23
:1049E00002C0B3FC01C0B2FC00C0B1FC54DDDDD09C
:1049F00042D0A5CCADFC0C01A651800AAE6FA7CC6D
:104A0000AFFCA8CCB0FCA8CCB4FCA7CCB3FCB26F74
:104A1000A5CCB1FC000183EC20F003C0B0FC02C0C7
:104A2000AFFC01C0AEFC00C0ADFC03C0D4FC02C0B2
:104A3000D3FC01C0D2FC00C0D1FCACCCD8FCABCCC8
:104A4000D7FCAACCD6FCA9CCD5FC1FEC19F003C02E
:104A5000B0FC02C0AFFC01C0AEFC00C0ADFC03C0A6
:104A6000B4FC02C0B3FC01C0B2FC00C0B1FC13DD59
:104A7000800E011A9AD099D0A8CCD4FCA7CCD3FC34
:104A8000A6CCD2FCA5CCD1FC0C01D86BD76BD66BD5
:104A9000D56B00019AEC14F030E3ACCCB0FCABCC9D
:104AA000AFFCAACCAEFCA9CCADFC0C01B46BB36BD3
:104AB000B26B7F0EB16F0001A8EC1FF003C0B0FC19
:104AC00002C0AFFC01C0AEFC00C0ADFC03C0D4FC12
:104AD00002C0D3FC01C0D2FC00C0D1FC0C01D86BD9
:104AE000D76BD66BD56B00019AEC14F006E0006A28
:104AF000016A026A036A59D058D0A8CCD4FCA7CC6A
:104B0000D3FCA6CCD2FCA5CCD1FC0C01D86BD76BC6
:104B1000D66BD56B00019AEC14F012E1ACCCD4FC4E
:104B2000ABCCD3FCAACCD2FCA9CCD1FC0C01D86B69
:104B3000D76BD66BD56B00019AEC14F001E235E12E
:104B4000A8CCB4FCA7CCB3FCA6CCB2FCA5CCB1FCE1
:104B500083EC20F003C0B0FC02C0AFFC01C0AEFC8F
:104B600000C0ADFC03C0D4FC02C0D3FC01C0D2FC29
:104B700000C0D1FCACCCD8FCABCCD7FCAACCD6FCCA
:104B8000A9CCD5FC1FEC19F003C0B0FC02C0AFFCEF
:104B900001C0AEFC00C0ADFC03C0B4FC02C0B3FC5D
:104BA00001C0B2FC00C0B1FC76DC12000C01A151C6
:104BB000A303F3CF01F0F4CF00F0A403F3500026D9
:104BC000A251A303F3500020026E000112000C0159
:104BD000886B876B866B856B8C6B8B6B8A6B896B39
:104BE000906B8F6B8E6B8D6B946B936B926B916BE9
:104BF000986B976B966B956B9C6B9B6B9A6B996B99
:104C0000040EA16F0001F3EC18F003C088FC02C091
:104C100087FC01C086FC00C085FC88CCCDFC87CC1D
:104C2000CCFC86CCCBFC85CCCAFC0C01D16BC00E75
:104C3000D06F7F0ECF6F880ECE6F0001B2EC0EF0FA
:104C40000C01D46BD36B200ED26F810ED16F03C0D9
:104C5000D8FC02C0D7FC01C0D6FC00C0D5FC0001C6
:104C60001FEC19F003C088FC02C087FC01C086FC61
:104C700000C085FC030E0C01A16F0001F3EC18F0DD
:104C800003C094FC02C093FC01C092FC00C091FCE4
:104C900094CCCDFC93CCCCFC92CCCBFC91CCCAFC7C
:104CA0000C01D16BC00ED06F7F0ECF6F880ECE6F10
:104CB0000001B2EC0EF00C01D46BD36B200ED26F5E
:104CC000810ED16F03C0D8FC02C0D7FC01C0D6FC56
:104CD00000C0D5FC00011FEC19F003C094FC02C019
:104CE00093FC01C092FC00C091FC88CCD4FC87CC22
:104CF000D3FC86CCD2FC85CCD1FC0C01D86BD76B15
:104D00007A0ED66F880ED56F00011FEC19F003C024
:104D100088FC02C087FC01C086FC00C085FC94CCE6
:104D2000A8FC93CCA7FC92CCA6FC91CCA5FC0C01D2
:104D3000AC6BAB6B400EAA6F800EA96F0001B1DDAA
:104D400003C0A4FC02C0A3FC01C0A2FC00C0A1FCE3
:104D500003C0D4FC02C0D3FC01C0D2FC00C0D1FC13
:104D60001B0E0C01D86F2F0ED76F9D0ED66F800EC5
:104D7000D56F00011FEC19F003C0A4FC02C0A3FC16
:104D800001C0A2FC00C0A1FC94CCA8FC93CCA7FC61
:104D900092CCA6FC91CCA5FC0C01AC6BAB6BAA6BC6
:104DA000800EA96F00017DDD03C0A8FC02C0A7FC36
:104DB00001C0A6FC00C0A5FC03C0D4FC02C0D3FC0B
:104DC00001C0D2FC00C0D1FC730E0C01D86F680E7C
:104DD000D76F1E0ED66F830ED56F00011FEC19F032
:104DE000EACFA6FCE9CFA5FCD892A4CCD8FCA3CCF2
:104DF000D7FCA2CCD6FCA1CCD5FC03C0DCFC02C005
:104E0000DBFC01C0DAFC00C0D9FC61EC0FF0A6CCE1
:104E1000EAFFA5CCE9FF03C0A4FC02C0A3FC01C0CB
:104E2000A2FC00C0A1FC94CCD4FC93CCD3FC92CCCB
:104E3000D2FC91CCD1FCD70E0C01D86F630ED76F8A
:104E4000920ED66F850ED56F00011FEC19F0EACFD8
:104E5000A8FCE9CFA7FCD892A4CCD8FCA3CCD7FC63
:104E6000A2CCD6FCA1CCD5FC03C0DCFC02C0DBFC90
:104E700001C0DAFC00C0D9FC61EC0FF0A8CCEAFF5D
:104E8000A7CCE9FF03C0A4FC02C0A3FC01C0A2FCA4
:104E900000C0A1FCEACFAAFCE9CFA9FCD89203C0CC
:104EA000D8FC02C0D7FC01C0D6FC00C0D5FC9A0ECD
:104EB0000C01DC6F190EDB6F750EDA6F850ED96F82
:104EC000000161EC0FF0AACCEAFFA9CCE9FF03C016
:104ED00090FC02C08FFC01C08EFC00C08DFC010E56
:104EE0000C01845D0201125D02E001E3126B0C0112
:104EF000A26B12C2A1FCA46B040EA36F000156DECC
:104F00000150950FE96E030E0220EA6E8DCCEFFF83
:104F10008ECCECFF8FCCECFF90CCECFF0201122B7F
:104F20000101566B0C0184510101565D3FE20C01F9
:104F3000A26B56C1A1FCA46B040EA36F000136DE68
:104F400002C003F00150950FE96E030E0220EA6ED5
:104F5000EFCF00F0ECCF01F0ECCF02F0ECCF03F09C
:104F6000EACFA2FCE9CFA1FCD8929CCCD8FC9BCC88
:104F7000D7FC9ACCD6FC99CCD5FC03C0DCFC02C093
:104F8000DBFC01C0DAFC00C0D9FC61EC0FF0A2CC64
:104F9000EAFFA1CCE9FF03C09CFC02C09BFC01C05E
:104FA0009AFC00C099FC0101562BBCD70C01D66BB2
:104FB00084CCD5FC000197EC0EF09CCCCDFC9BCCB6
:104FC000CCFC9ACCCBFC99CCCAFC03C0D1FC02C06F
:104FD000D0FC01C0CFFC00C0CEFCB2EC0EF003C090
:104FE0009CFC02C09BFC01C09AFC00C099FC9CCCBC
:104FF00003F29BCC02F29ACC01F299CC00F288CC5D
:10500000A8FC87CCA7FC86CCA6FC85CCA5FC0C0113
:10501000AC6BAB6B400EAA6F800EA96F000141DC38
:105020008D0E0C01D46FFB0ED36F830ED26F620E08
:10503000D16F03C0D8FC02C0D7FC01C0D6FC00C0B1
:10504000D5FC00011FEC19F003C0A4FC02C0A3FCB6
:1050500001C0A2FC00C0A1FC88CCA8FC87CCA7FCA6
:1050600086CCA6FC85CCA5FC0C01AC6BAB6BAA6B0B
:10507000800EA96F000115DCAE0E0C01D46F160E68
:10508000D36F710ED26F6E0ED16F03C0D8FC02C009
:10509000D7FC01C0D6FC00C0D5FC00011FEC19F004
:1050A000EACFA6FCE9CFA5FCD892A4CCD8FCA3CC2F
:1050B000D7FCA2CCD6FCA1CCD5FC03C0DCFC02C042
:1050C000DBFC01C0DAFC00C0D9FC61EC0FF0A6CC1F
:1050D000EAFFA5CCE9FF03C0A4FC02C0A3FC01C009
:1050E000A2FC00C0A1FCDB0E0C01D46F320ED36F0A
:1050F000600ED26F760ED16F88CCD8FC87CCD7FCEF
:1051000086CCD6FC85CCD5FC00011FEC19F0EACF8B
:10511000A8FCE9CFA7FCD892A4CCD8FCA3CCD7FCA0
:10512000A2CCD6FCA1CCD5FC03C0DCFC02C0DBFCCD
:1051300001C0DAFC00C0D9FC61EC0FF0A8CCEAFF9A
:10514000A7CCE9FF03C0A4FC02C0A3FC01C0A2FCE1
:1051500000C0A1FCEACFAAFCE9CFA9FCD88203C019
:10516000D8FC02C0D7FC01C0D6FC00C0D5FC660E3E
:105170000C01DC6FDB6F460EDA6F820ED96F000117
:1051800061EC0FF0AACCEAFFA9CCE9FF03C0A4FCB4
:1051900002C0A3FC01C0A2FC00C0A1FCEACFACFC91
:1051A000E9CFABFCD8829CCCD8FC9BCCD7FC9ACC6A
:1051B000D6FC99CCD5FC0C01DC6BDB6B380EDA6FBE
:1051C000830ED96F000161EC0FF0ACCCEAFFABCCE1
:1051D000E9FF03C0B0FC02C0AFFC01C0AEFC00C0E0
:1051E000ADFC03C0D4FC02C0D3FC01C0D2FC00C0A3
:1051F000D1FC520E0C01D86F490ED76F1D0ED66F21
:10520000760ED56F00011FEC19F0EACFAEFCE9CFA6
:10521000ADFCD8920C01D86BD76BD66B7F0ED56FD7
:1052200003C0DCFC02C0DBFC01C0DAFC00C0D9FC1E
:10523000000161EC0FF0AECCEAFFADCCE9FFA4CCED
:10524000CDFCA3CCCCFCA2CCCBFCA1CCCAFC03C033
:10525000D1FC02C0D0FC01C0CFFC00C0CEFCB2EC3F
:105260000EF003C08CFC02C08BFC01C08AFC00C0A5
:1052700089FC8CCCD4FC8BCCD3FC8ACCD2FC89CCE2
:10528000D1FC0C01D86BD76BD66BD56B00019AECB7
:1052900014F006E30C018C6B8B6B8A6B896B00013D
:1052A0009A0E0C01D46F990ED36F190ED26F7A0E2D
:1052B000D16F88CCD8FC87CCD7FC86CCD6FC85CCEB
:1052C000D5FC00011FEC19F003C0A4FC02C0A3FC34
:1052D00001C0A2FC00C0A1FCD88203C0D8FC02C05F
:1052E000D7FC01C0D6FC00C0D5FCCD0E0C01DC6F94
:1052F000CC0EDB6F160EDA6F840ED96F000161ECF5
:105300000FF003C007F202C006F201C005F200C0B0
:1053100004F2010E0C01845D0001EB5303E1EA5D30
:1053200003E002E3EB6BEA6BEA35026EEB35036EEA
:1053300002360336FC0E02160250D50FE96E040E3B
:105340000320EA6E89CCEFFF8ACCECFF8BCCECFF1C
:105350008CCCECFFEA2BD8B4EB2B0101566B0C0183
:1053600084510101565D3FE20C01A26B56C1A1FCC4
:10537000A46B040EA36F000119DC02C003F00150FE
:10538000D50FE96E040E0220EA6EEFCF00F0ECCFED
:1053900001F0ECCF02F0ECCF03F0EACFA2FCE9CFB2
:1053A000A1FCD89298CCD8FC97CCD7FC96CCD6FC54
:1053B00095CCD5FC03C0DCFC02C0DBFC01C0DAFCF0
:1053C00000C0D9FC61EC0FF0A2CCEAFFA1CCE9FF50
:1053D00003C098FC02C097FC01C096FC00C095FC7D
:1053E0000101562BBCD70C01D66B84CCD5FC000137
:1053F00097EC0EF098CCCDFC97CCCCFC96CCCBFCAB
:1054000095CCCAFC03C0D1FC02C0D0FC01C0CFFCCB
:1054100000C0CEFCB2EC0EF003C098FC02C097FCBA
:1054200001C096FC00C095FC95CC00F096CC01F034
:1054300097CC02F098CC03F012000C018A6B896BB8
:10544000886B876B8E6B8D6B8C6B8B6B926B916BA0
:10545000906B8F6B966B956B946B936BA16B00014C
:10546000F3EC18F003C0D4FC02C0D3FC01C0D2FCA2
:1054700000C0D1FCD7EC14F002C086FC01C085FC52
:10548000020124510C01845D03E20201246B0C0132
:10549000D89002012435036A6D0FE96E030E0320D4
:1054A000EA6E86CCECFFED5285CCEFFF242B256B0A
:1054B000010E0C01845D0201255D01E038E2D89007
:1054C0002535036A6D0FE96E030E0320EA6EECCFFB
:1054D00003F0ED52EFCFD5FC03C0D6FC000197ECF2
:1054E0000EF0EACF98FCE9CF97FCD8928ACCD8FC92
:1054F00089CCD7FC88CCD6FC87CCD5FC03C0DCFC9F
:1055000002C0DBFC01C0DAFC00C0D9FC61EC0FF08A
:1055100098CCEAFF97CCE9FF03C08AFC02C089FC63
:1055200001C088FC00C087FC0201252BC1D70C01FB
:10553000D66B84CCD5FC000197EC0EF08ACCCDFC68
:1055400089CCCCFC88CCCBFC87CCCAFC03C0D1FC7A
:1055500002C0D0FC01C0CFFC00C0CEFCB2EC0EF00B
:1055600003C08EFC02C08DFC01C08CFC00C08BFC13
:105570000C01D46BD36B200ED26F810ED16F8ECC09
:10558000D8FC8DCCD7FC8CCCD6FC8BCCD5FC0001C8
:105590001FEC19F003C09AFC02C099FC01C098FCF2
:1055A00000C097FC03C0CDFC02C0CCFC01C0CBFC0A
:1055B00000C0CAFC0C01D16BC00ED06F7F0ECF6F44
:1055C000880ECE6F0001B2EC0EF003C092FC02C058
:1055D00091FC01C090FC00C08FFC92CCCDFC91CC22
:1055E000CCFC90CCCBFC8FCCCAFC0A0E0C01D16F4A
:1055F000D70ED06F230ECF6F780ECE6F0001B2ECB6
:105600000EF003C096FC02C095FC01C094FC00C0E3
:1056100093FC93CC00F094CC01F095CC02F096CCA6
:1056200003F012000C01895303E18851640803E27E
:10563000896B640E886F89CC4BF188CC4AF10001EC
:1056400012000C01895303E18851640803E2896B5D
:10565000640E886F89CCC2F088CCC1F000011200C2
:105660000900F55211E0F6CF84FCF7CF85FCF8CFA6
:1056700086FCF5509EA8FED7AD6E84CCF6FF85CC97
:10568000F7FF86CCF8FFECD712009EA8FED7AD6ED0
:105690001200100E006E002EFED70000FF0EF5DF88
:1056A000100E006E002EFED70000FF0EEEDF100E73
:1056B000006E002EFED70000FF0EE7DF100E006E1A
:1056C000002EFED70000120089CC8AFC0C018A391A
:1056D000006E0F0E001600500A0DF3CF89FC8A39B8
:1056E000006EF00E00160050003A0F0E001600502B
:1056F000892789CC01F000011200080E016E050E09
:10570000006E002EFED78D929692060E006E002E31
:10571000FED70C018F378D94D8B09684D8A096947C
:10572000968284A2FED7012E01D002D00001E7D7D5
:10573000050E006E002EFED78D9296920000968484
:10574000060E006E002EFED7060E006E002EFED74F
:10575000968284A2FED7016A060E006E002EFED746
:1057600084B401808D9296928D94969400011200DB
:10577000080E0C018E6F00C08FFC9684060E006E22
:10578000002EFED7968284A2FED784B4D88084A44B
:10579000D8900136050E006E002EFED796928D929F
:1057A0008E2FEBD79684060E006E002EFED78D94BA
:1057B0008F51D8A496940000968284A2FED7050E3D
:1057C000006E002EFED78D929692060E006E002E71
:1057D000FED78D9496940001120072C0CEF073C073
:1057E000CFF074C0D0F075C0D1F05AEF2CF0E96B57
:1057F000E86BE9535EE1E85104085BE3B00E936F98
:10580000E8C094F093C084FC94C085FC9684050E97
:10581000006E002EFED79682060E006E002EFED77A
:105820008D949694050E006E002EFED78D92969262
:1058300084CC8FFC62DF85CC8FFC5FDF9684050E05
:10584000006E002EFED79682060E006E002EFED74A
:1058500084A2FED78D949694050E006E002EFED77E
:105860008D929692010E0C018425866F8F6F000138
:1058700044DF006A7DDF01C092F0969400009682BA
:1058800084A2FED7050E006E002EFED700D00000C9
:105890009684050E006E002EFED7720EE825E96E86
:1058A000000EE921EA6E92C0EFFFE82BD8B4E92B95
:1058B000A0D793D7A1EF8AF00C01936B926B916BF9
:1058C000906B976B966B956B946B8FCCD4FC8ECC56
:1058D000D3FC8DCCD2FC8CCCD1FC0001D7EC14F0E5
:1058E0000C01D66B01C0D5FC000197EC0EF003C093
:1058F00093FC02C092FC01C091FC00C090FCD882D5
:105900008FCCD8FC8ECCD7FC8DCCD6FC8CCCD5FCE7
:1059100093CCDCFC92CCDBFC91CCDAFC90CCD9FCB7
:1059200061EC0FF003C09BFC02C09AFC01C099FC23
:1059300000C098FC03C0D4FC02C0D3FC01C0D2FC60
:1059400000C0D1FC0C01D86BD76B200ED66F820E35
:10595000D56F00011FEC19F003C097FC02C096FC44
:1059600001C095FC00C094FC97CCD4FC96CCD3FC31
:1059700095CCD2FC94CCD1FCD7EC14F001501200A1
:105980008FC1D4FC8EC1D3FC8DC1D2FC8CC1D1FCA3
:10599000D7EC14F001C032F08FC18FFC8EC18EFCA9
:1059A0008DC18DFC8CC18CFC87DF01C033F093C1AD
:1059B000D4FC92C1D3FC91C1D2FC90C1D1FCD7ECF4
:1059C00014F001C034F093C18FFC92C18EFC91C1E0
:1059D0008DFC90C18CFC70DF01C035F023C2D4FC7B
:1059E00022C2D3FC21C2D2FC20C2D1FCD7EC14F0DD
:1059F00001C036F023C28FFC22C28EFC21C28DFC76
:105A000020C28CFC59DF01C037F0FDC0D4FCFCC0C3
:105A1000D3FCFBC0D2FCFAC0D1FCD7EC14F001C01F
:105A200038F039683A68800E3B6E4AC63CF04BC687
:105A30003DF04CC63EF04DC63FF052C640F053C656
:105A400041F054C642F055C643F056C644F057C61E
:105A500045F058C646F059C647F05AC648F05BC6EE
:105A600049F0B6C04AF063EF2DF09684050E006E43
:105A7000002EFED79682060E006E002EFED78D9465
:105A80009694050E006E002EFED78D92969285CCD0
:105A90008FFC33DE86CC8FFC30DE87CC8FFC2DDE96
:105AA00096940000968284A2FED7050E006E002E0A
:105AB000FED700D000009684050E006E002EFED7A3
:105AC0007BEF2DF05DD7E96BE86BE95318E1E85106
:105AD000180815E3B00E936F320EE825E96E000E3C
