:10000000C3EF0CF068961200046ED8CF05F0E0CF75
:1000100006F00001E9CF0CF0EACF07F0E1CF08F0DD
:10002000E2CF09F0D9CF0AF0DACF0BF0F3CF12F01C
:10003000F4CF13F0FACF14F000C00EF001C00FF0AF
:1000400002C010F003C011F09DA02AEF00F09EB096
:10005000EEEF06F09DA630EF00F09EB6BAEF06F088
:10006000A0AA36EF00F0A1BA6FEF06F00EC000F0C4
:100070000FC001F010C002F011C003F00CC0E9FF86
:1000800007C0EAFF078E08C0E1FF09C0E2FF0AC00F
:10009000D9FF0BC0DAFF12C0F3FF13C0F4FF14C086
:1000A000FAFF045006C0E0FF05C0D8FF1000F76A51
:1000B000BE0FF66E000EF7220900F5501200000286
:1000C000FFFFFFFFFFFFFFFFFFFFFFFFFFFF07AE89
:1000D00003D0F2CF0DF0F29EF76AF00FF66E000E2D
:1000E000F7220900F55007AE02D00DBEF28E1200C5
:1000F00040002000000000000000000000000000A0
:1001000000000000000000000000000000000000EF
:10011000F76A200FF66E010EF7220900F550120063
:1001200009022000010100C0320904000002FFFFA3
:10013000FF000705810220000107050102200001E0
:10014000F76A500FF66E010EF7220900F550120003
:100150000100F76A620FF66E010EF7220900F550F2
:1001600012001201100100000040D8040B00010031
:1001700001020001F76A840FF66E010EF7220900F2
:10018000F550120000041400F76A980FF66E010E85
:10019000F7220900F55012000403090410036A0055
:1001A00050006900630055007300620022034C0098
:1001B0006500630074006F007200200046004C0070
:1001C00055004A004F0020004A0050002E006D925A
:1001D000699468A402D06894FCD77BEF06F0400EC7
:1001E0000401016F040E036F100E026F880E006F82
:1001F000046B040E076F500E066F0001120070A012
:1002000002D0EDDF7090689A82EF06F06A6A689219
:1002100087EF06F00101249123BF2481239F2351FE
:10022000100803E2000E016E24D024A112D0036A4C
:100230002351F2CF25F1F29E000139DF010125BFE4
:10024000F28EFF0802E1000E01D0010E016E11D006
:1002500010D0036A2351F2CF25F1F29E000127DF6F
:10026000010125BFF28EFF0802E1000E01D0010E50
:10027000016E00011200036A01012251700FE96E44
:100280000F0E0320EA6EEF6A22C123F10001C2DFE4
:1002900001521AE001012251080DF350246BE96E5E
:1002A000040E2425EA6EEF6A2251080DF350246BE8
:1002B000236F040E2327000E242323C1E9FF040E1D
:1002C0002425EA6EEF6A00011200010E0101216F80
:1002D00021510F0807E321C122F10001CCDF010108
:1002E000212BF6D7000112000101176B17530AE109
:1002F000036A1751220FE96E000E0320EA6EEF6ABF
:10030000172BF4D7196A010E1A6E186A0001120031
:100310006A6A686A9F0E6B6E3D0E696E6E6AD5DF03
:10032000E3DF160E706E68A602D06CDEFCD76D9807
:1003300056DF030E1D6E8CEF06F0698468986D829F
:1003400091EF06F0689C96EF06F01CC11EF01200BB
:100350001E68120001011A6B21523DE01A513F083C
:100360003AE31B50000A000105E0020A0FE0010A0F
:1003700019E023D0036A2050F2CF1CF1F29EC8DEB0
:1003800001011CBFF28E1B6F000117D0036A2050C1
:10039000F2CF1CF1F29EF8DE01011CBFF28E1B6F42
:1003A00000010BD0036A2050F2CF1CF1F29ED1DE87
:1003B00001011CBFF28E1B6F0001202A21060101E2
:1003C0001A511A2B036A500FE96E040E0320EA6ECD
:1003D0001BC1EFFFC1D7215204E11A51400801E0CF
:1003E000186A1AC11CF10001B0DF1200206A1B6AF2
:1003F00004011351010A000105E0030A08E0010AA3
:1004000009E023D0120E216E030E1B6E20D0200EA9
:10041000216E1DD0020E1B6E036A04011251F2CF31
:1004200019F1F29E0001A6DE010119BFF28E206EC5
:10043000036A2050F2CF19F1F29E0001A5DE0101FE
:1004400019BFF28E216E000102D082DF0CD00401B0
:10045000175305E12150165D02E216C421F0010E8A
:10046000186E000177DF7CEF03F00101195306E1FC
:10047000040E1D6E000129DFE0D00101050E1D6E86
:10048000040E1C6F900E1B6F010E1A6F1A510F088D
:10049000D8A0D3D01AC122F10001EDDE01011D6BFD
:1004A000036A1A51F2CF21F1F29E000100DE010130
:1004B00021BFF28EFF085DE0040E1D6FD8901A3543
:1004C000036AF2CF21F1F29E000101DE0900F5CFAF
:1004D00003F0010121BFF28E1E6F03C01FF11A51FC
:1004E000080DF350226B216F010E2125016E000EC5
:1004F0002221036E01C0E9FF040E0324EA6E1EC12F
:10050000EFFF1A51080DF350226B216F020E2125C7
:10051000016E000E2221036E01C0E9FF040E0324C8
:10052000EA6E1CC1ECFFED521BC1EFFFD8901A35EB
:10053000036AF2CF21F1F29E0001C9DD0900F5CF77
:1005400003F0010121BFF28E1B2703501C23880EEC
:10055000206F1FA101D020811FA301D020831A5139
:10056000080DF350226BE96E040E2225EA6E20C1BD
:10057000EFFF036A1A51F2CF21F1F29E000197DDDD
:10058000010121BFF28EFF083BE01D831A51080DC7
:10059000F350226B216F040E2127000E2223020E3E
:1005A0002125016E000E2221036E01C0E9FF040E19
:1005B0000324EA6E1CC1ECFFED521BC1EFFFD89083
:1005C0001A35036AF2CF21F1F29E000180DD0900A5
:1005D000F5CF03F0010121BFF28E1B2703501C232E
:1005E0001A51080DF350226B216F040E2127000EC3
:1005F000222321C1E9FF040E2225EA6E400EEF6E90
:100600001D51060802E10E0E1D6F036A1A51F2CF4A
:1006100021F1F29E00014BDD010121BFF28E0108A4
:1006200001E01D89036A1A51700FE96E0F0E032055
:10063000EA6E1DC1EFFF1A2B29D7000174EF03F0FA
:1006400004011151000A00010DE0010A15E0020A3F
:1006500021E0060A2CE0030A33E00E0A33E0010A27
:1006600039E049D01AC050F40401516B020E010167
:100670001C6F00016ADE40D00401122D08D0010E6B
:100680001A1601011C6B000160DE03D00401000199
:100690005FDE32D00401122D07D01A8201011C6BDB
:1006A000000153DE03D00401000152DE25D0020E0A
:1006B000186E12C41FF001011C6B000146DE1CD035
:1006C00095D61AD019C050F4010E01011C6F00011B
:1006D0003CDE12D00401125101080BE312C419F0E0
:1006E00012C419F10001C1D601011C6B00012DDEFD
:1006F0000401000101D02CDE92EF04F019C019F1C1
:1007000004011151000A000105E00A0A0CE0010A87
:1007100032E047D00401506B516B020E01011C6F97
:10072000000113DE3FD00101195322E0010E195DD3
:10073000036AF2CF1AF1F29E000102DD01011ABF35
:10074000F28E016E0401145DD8A002D0010110D018
:10075000036A1451220FE96E000E0320EA6EEFCFF8
:1007600050F4010E01011C6F0001EFDD03D0010107
:100770000001EEDD17D00101195310E0036A0401F6
:100780001451220FE96E000E0320EA6E12C4EFFF2F
:1007900001011C6B0001D9DD03D001010001D8DD8E
:1007A00001D0D6DD92EF04F001011A9119BF1A8130
:1007B000199F1AA111D01951080DF3501C6B1B6F12
:1007C000040E1B27000E1C231BC1E9FF040E1C2571
:1007D000EA6E880EEF6E09D01951080DF3501C6BAC
:1007E000E96E040E1C25EA6EEF6A00015CEF04F06E
:1007F00001011A9119BF1A81199F1AA111D019511B
:10080000080DF3501C6B1B6F040E1B27000E1C23DE
:100810001BC1E9FF040E1C25EA6E840EEF6E0AD0A0
:100820001951080DF3501C6BE96E040E1C25EA6E7D
:10083000840EEF6E000164EF04F001011A9119BFFC
:100840001A81199F1AA111D01951080DF3501D6B6F
:100850001C6F040E1C27000E1D231CC1E9FF040E93
:100860001D25EA6EEFCF1BF10AD01951080DF35088
:100870001D6BE96E040E1D25EA6EEFCF1BF11BAF59
:1008800002D01BB502D0000E01D0010E016E000196
:1008900070EF04F014C423F1BDDC01522EE004011A
:1008A0001151010A000105E0020A0BE0030A11E000
:1008B00023D014C419F178D701011C6B000145DD68
:1008C0001CD014C419F194D701011C6B00013DDD4B
:1008D00014D00401506B516B14C419F10001ADD751
:1008E000015204E0010E0401506F0001020E0101EB
:1008F0001C6F00012ADD01D02BDD92EF04F0186A95
:10090000040110517F0B000A000105E0010A05E017
:10091000030A05E006D094D605D0F0D603D0BAD7A6
:1009200001D016DDD3EF05F001011951080DF35088
:100930001F6BE96E040E1F25EA6EEFCF1BF11A51F3
:10094000020806E11BAD02D01A6B02D0010E1A6F2D
:100950001A51030813E1840E1B6F1951080DF3504F
:100960001F6B1E6F040E1E27000E1F231EC1E9FF02
:10097000040E1F25EA6E840EEF6E07D01A2D03D0E9
:10098000C80E1B6F02D0880E1B6FD8901935036AF2
:10099000F2CF1EF1F29E000167EC00F00900F5CFE6
:1009A00003F001011EBFF28E1C6F03C01DF119512F
:1009B000080DF3501F6B1E6F010E1E25016E000EF9
:1009C0001F21036E01C0E9FF040E0324EA6E1CC15F
:1009D000EFFF1DA101D01B811DA301D01B83195165
:1009E000080DF3501F6BE96E040E1F25EA6E1BC144
:1009F000EFFF00011200036A01011E51700FE96E42
:100A00000F0E0320EA6EEF5212E01E51080DF35054
:100A1000206B1F6F040E1F27000E20231FC1E9FF4C
:100A2000040E2025EA6EEFCF21F121AF02D0000E97
:100A300001D0010E016E0001120019C11EF1DBDFB1
:100A4000015265E001011951080DF3501F6B1E6F33
:100A5000040E1E27000E1F23010E1E25016E000E20
:100A60001F21036E01C0E9FF040E0324EA6E1AC1C0
:100A7000EFFF1C51020817E11951080DF3501F6BCD
:100A80001E6F040E1E27000E1F231EC1E9FF040E59
:100A90001F25EA6EEFCF1DF11DAD02D01C6B02D0F9
:100AA000010E1C6F13D01C51040810E11951080DE0
:100AB000F3501F6BE96E040E1F25EA6EEFCF1DF198
:100AC0001DAD03D0010E1C6F01D01C6B1C2D03D07B
:100AD000C80E1D6F02D0880E1D6F1BA101D01D8195
:100AE0001BA301D01D831951080DF3501F6B1E6FFE
:100AF000040E1E27000E1F231EC1E9FF040E1F2532
:100B0000EA6E1DC1EFFF010E016E04D00001000E60
:100B1000016E0101000112000101195300E1000101
:100B200012001AC16EFF01011A5303E0040E1D6E7C
:100B300002D0020E1D6E0001A3EF05F0196A186ABB
:100B40001FC01AF1EED7B4EF05F0010119530DE102
:100B5000182C05D00001AAEC01F006D001011850B4
:100B6000020803E10001EAD70101000112001C3074
:100B70000101176F173317331F0E17171C524EE161
:100B8000040100513C0B0101186F430E04010017D2
:100B900001011851340825E104010451800B01E0E2
:100BA000046B0001ACD66D981E3C07D00101196B97
:100BB000030E1A6F0001B8DE12D00101196B020E8C
:100BC0001A6F0001B1DE1E50FE0809E00101196B29
:100BD0001B6B1EC01AF1040E1C6F00012EDF1CD00F
:100BE00001011851040819E1196B000195DF010199
:100BF000196B020E1A6F000197DE1E50FE080CE002
:100C00001E3C01D009D00101196B1B6B1EC01AF1EB
:100C1000010E1C6F000111DF01015ED01C500408A1
:100C200016E1430E040104171E680101196B00014F
:100C30008CDF1E3C01D009D00101196B1B6B1EC05B
:100C40001AF1020E1C6F0001F8DE45D001011CB440
:100C50001DD01751080DF3501A6B016E040E1A25A2
:100C6000036E1751080DF3501E6BE96E040E1E251E
:100C7000EA6EEF50430B03C0EAFF01C0E9FFEF6EDD
:100C800017C119F1000148DF26D001011751080DE5
:100C9000F3501A6B196F040E1927000E1A23040E55
:100CA0001A25036E1751080DF3501E6B1D6F040EAD
:100CB0001D27000E1E231DC1E9FF040E1E25EA6E2E
:100CC000EF50430B03C0EAFF19C1E9FFEF6E17C1F4
:100CD00019F100013ADF01010001A2EF06F0A19A2B
:100CE0001D52D8B439D06852D8B436D068A403D0D5
:100CF00069B4E7EF00F06DB22FD068AA03D069BAEB
:100D0000FFEF00F068A203D069B206EF01F068A01F
:100D100003D069B088EF01F068A803D069B89DEFEF
:100D200001F068AC03D069BCA2EF01F00101166BC1
:100D300068A60AD069A608D06CCF1CF0000102ECAE
:100D400000F015D703D0010106D0000101011651B2
:100D5000162B0308EDE2000136EF00F0C95018C170
:100D6000C9FFC6889E96C7B0FED7016AC6B8012AD9
:100D7000D1EF06F0C7BA03D0FA6BC7B4FA8FFA51B5
:100D8000FA2B866F865180080DE1036A8751A80F00
:100D9000E96E000E0320EA6EEFCF17F117C118F1CC
:100DA000DDD719D0C69C9EA6FED7C950C6880101C2
:100DB000166F0001862D03D016C187F00CD0865126
:100DC000020809E1036A8751C80FE96E000E03208B
:100DD000EA6E16C1EFFF9E9636EF00F0150ECF6E4D
:100DE000A00ECE6E928080B00BD07D510B0807E331
:100DF00003E17C51B70803E37C2BD8B47D2B02D0F0
:100E00007D6B7C6B928280B20BD07F510B0807E325
:100E100003E17E51B70803E37E2BD8B47F2B02D0C9
:100E20007F6B7E6B822BD8B4832B835303E182517B
:100E3000C7080BE2836B826B638363A104D0802BB2
:100E4000D8B4812B02D0816B806B9E9036EF00F07E
:100E50008E0E006EFCC001F0FBC002F0036A01526E
:100E600009E102C001F0026A080E005E015202E1CF
:100E7000006A08D0D89001BE04D0023601360006C0
:100E8000F9D7019E1200FB51D8B4B4D00101076F0D
:100E90000001FF51D8B4AED00101075F07E37F0E18
:100EA0000727D8A002D00001A5D00AD0810E075F85
:100EB000D8B002D000019ED0D8A402D000019AD0B0
:100EC00007C100F0016A026A036A066BFCC005F103
:100ED000058FFDC004F1FEC003F1190E076F02512A
:100EE000035F0DE2010E045F0AE2055F08E2065FA0
:100EF00006E2062B052B042B0251032728D00151B3
:100F0000045F12E2010E055F0FE2065F0DE2062BA1
:100F1000052B015104270251032719E3042B17E184
:100F2000052B15E1062B13D000518009055F0EE259
:100F3000010E065F0BE2062B0051800905270151C7
:100F40000427E9E3052BE7E1062BE5D70380072F0C
:100F500001D00BD0D8900337043705370637D89027
:100F60000336023601360837BAD708A106D0D89022
:100F7000013202320332083304D0002E02D00001C5
:100F800039D008BF1ED0D89003370437053706374D
:100F90000251035F07E2010E045F04E2055F02E213
:100FA000065F1DE30151045F05E2010E055F02E2E9
:100FB000065F15E300518009055F03E2010E065F3D
:100FC0000EE3032A0CE1022A0AE1012A08E1002AC1
:100FD000D8A402D000010ED0013202320332FCC08C
:100FE00007F10051071B07AF02D0018E08D0019E08
:100FF00006D00001006A016A026A036A0101000169
:101000001200800ED8A202D00101001B0101056B65
:10101000066BFCC004F10051041B0001FB51D8B465
:10102000E2D00101036F006E0001FF51D8B4E5D09A
:101030000101035FD8B484D03DE300C109F1098FF9
:1010400001C108F102C107F1066BD89009330833DA
:1010500007330633032FF8D704AF03D00581E2D05E
:10106000059103910589EA6AFE0EE96EEED00599B5
:1010700004BF0AD003A113D0093308330733063362
:10108000002AD8B4CAD00BD009BF0CD0D8900637EC
:101090000737083709370006D8B4BFD0F5D7058D14
:1010A0006ED0059DFCC004F104AF02D0098FAED014
:1010B000099FACD0FFC003F1FFC000F00001FB515D
:1010C0000101035FFCC009F1098FFDC008F1FEC0FA
:1010D00007F1066BD8900933083307330633032F23
:1010E000F8D704AF03D005839DD005930391058BFA
:1010F000010EEA6E020EE96EA8D0059B04BF0AD06D
:1011000003A113D00933083307330633002AD8B4B8
:1011100084D00BD009BF0CD0D890063707370837DA
:1011200009370006D8B479D0F5D7058F28D0059FA8
:1011300000C104F100AF02D0098F68D0099F66D0CA
:1011400000C109F1098F01C108F102C107F104AF23
:1011500004D0099F058566D00595066B0391EA6A60
:10116000FE0EE96E72D004BF1CD0FCC004F103A1D6
:1011700006D00933083307330633002A4EE006AFA2
:101180000BD0072B09E1082B07E1092B05E10933F7
:1011900008330733002A41E005BD83D705BFC7D711
:1011A0001CD0800E091B09AF04D03CD000C104F153
:1011B0000AD0FCC004F1095306E1085304E10753C7
:1011C00002E1006A23D009BF08D0D890063707375C
:1011D00008370937002EF7D720D004AF02D0098F87
:1011E00015D0099F13D0FFC000F000C109F101C163
:1011F00008F102C107F1010109D0FBC000F0FCC0F9
:1012000009F1FDC008F1FEC007F1010109C101F0BB
:1012100008C102F007C103F034D0006A016A026A13
:10122000036A2FD0066B071F081F091F061F062B16
:1012300005E1072B03E1082B01E1092B05B110D7CC
:1012400005B353D705B588D7B1D7EF50072705E3C6
:10125000082B03E1092BD8B40381ED52EF50082786
:1012600003E3092BD8B40381ED52EF50EFBE01D058
:10127000800A0927D8B0038105B9F9D605BB3DD747
:1012800072D700011200CF3DEBD0D03DE9D0D15153
:101290008008D8A4E5D0FC6BC9C0FBF0D9DD03C041
:1012A00073F002C072F001C071F000C070F0FC6B0E
:1012B000C8C0FBF0CDDD03C06BF002C06AF001C016
:1012C00069F000C068F073C0FEF072C0FDF071C03C
:1012D000FCF070C0FBF00101026B016B200E006F8F
:1012E000820E0001FF6FCFDDD8926BC0FEF06AC0A6
:1012F000FDF069C0FCF068C0FBF003C002F102C061
:1013000001F101C000F100C0FFF07BDE03C06BF013
:1013100002C06AF001C069F000C068F0FC6BCBC08D
:10132000FBF096DD03C073F002C072F001C071F0F3
:1013300000C070F0FC6BCAC0FBF08ADD03C077F020
:1013400002C076F001C075F000C074F073C0FEF00A
:1013500072C0FDF071C0FCF070C0FBF00101026BC7
:10136000016B200E006F820E0001FF6F8CDDD892A2
:1013700077C0FEF076C0FDF075C0FCF074C0FBF0E5
:1013800003C002F102C001F101C000F100C0FFF092
:1013900038DE03C077F002C076F001C075F000C0FF
:1013A00074F0FC6BCDC0FBF053DD03C073F002C0E2
:1013B00072F001C071F000C070F0FC6BCCC0FBF0AB
:1013C00047DD03C07BF002C07AF001C079F000C0B5
:1013D00078F073C0FEF072C0FDF071C0FCF070C018
:1013E000FBF00101026B016B200E006F820E000109
:1013F000FF6F49DDD8927BC0FEF07AC0FDF079C066
:10140000FCF078C0FBF003C002F102C001F101C0A2
:1014100000F100C0FFF0F5DD03C07BF002C07AF000
:1014200001C079F000C078F0D2C0E8F0D3C0E9F094
:10143000D4C0EAF0D5C0EBF0D6C0F0F0D7C0F1F0E0
:10144000D8C0F2F0D9C0F3F0DAC0F4F0DBC0F5F0A8
:10145000DCC0F6F0DDC0F7F0DEC0F8F0DFC0F9F078
:1014600012006D6A696A080E6F6E94503009946EAE
:101470001D6A166AF2BE168EF29E74EC01F016BE5C
:10148000F28E44EF0AF0EDD769EF0AF0166AF2BE69
:10149000168EF29E74EC01F016BEF28E6D6A140E7A
:1014A0006F6E696A6D86010E1D6E5AEF0AF06DB699
:1014B00001D0ECD71D2C0BD06DBA09D0686A696ACF
:1014C000A08AC00EF212110E696E020E1D6E12007D
:1014D000DAD7EDDF1D500208FCE141EF0DF0FCC052
:1014E00003F101010051031B03AF06D0D894D8903B
:1014F0000001FCBFD88045D0FCC003F1FFC004F15F
:101500000001FB510101045F09E003BF02D00001AB
:1015100038D0D850010AD86E000133D000C104F190
:101520000001FC510101045F09E003BF02D000018A
:1015300028D0D850010AD86E000123D001C104F18F
:101540000001FD510101045F09E003BF02D0000169
:1015500018D0D850010AD86E000113D002C104F18E
:101560000001FE510101045F0AE003BF02D0000147
:1015700008D0D850010AD86E000103D00101D890DC
:1015800000011200D8826BC0FEF06AC0FDF069C095
:10159000FCF068C0FBF00101026B016B006B7F0E79
:1015A0000001FF6F2EDD03C0FEF002C0FDF001C0A0
:1015B000FCF000C0FBF077C002F176C001F175C00D
:1015C00000F174C0FFF08BDF01E228E1D8926BC01C
:1015D000FEF06AC0FDF069C0FCF068C0FBF00101DC
:1015E000026B016B006B7F0E0001FF6F0ADD77C09D
:1015F000FEF076C0FDF075C0FCF074C0FBF003C0D7
:1016000002F102C001F101C000F100C0FFF067DF8C
:1016100005E38B9094908B92949204D08B8094905D
:101620008B92949299EF0DF09EA8FED7AD6E1200AA
:101630001950016E92EF0EF0036AFB51700FE96EC4
:101640000F0E0320EA6EEF520DE0FB51080DF35030
:10165000FD6BFC6FE96E040EFD25EA6EEFCFFEF028
:10166000FEAF02D0000E01D0010E016E98EF0EF019
:1016700001010051080DF3500B6B0A6F020E0A2591
:10168000016E000E0B21036E01C0E9FF040E03245E
:10169000EA6EECCF06F1ED52EFCF05F10051080DE7
:1016A000F3500B6B0A6F010E0A25016E000E0B2121
:1016B000036E01C0E9FF040E0324EA6E096BEFCF4D
:1016C00008F10051080DF3500B6BE96E040E0B2569
:1016D000EA6EEFCF07F107A101D0098107A301D07E
:1016E00009830951045D08E303E10351085D04E245
:1016F00009C104F108C103F102C1EAFF01C1E9FF18
:1017000006C1E2FF05C1E1FF04C102F003C101F01F
:10171000015202E0022A02D0025206E0E6CFEEFFBA
:10172000012EFCD7022EFAD703C101F004C102F04A
:101730000001A6EF0BF0FBC000F1FDC002F1FCC000
:1017400001F1FFC004F1FEC003F192D702C0FFF027
:1017500001C0FEF0166AF2BE168EF29EFBC019F1B1
:10176000020E01011A6F000194EC04F016BEF28E15
:10177000FEC001F0FFC002F0A3EF0EF08E0E006E6F
:10178000FB51005EFCC002F0FDC001F0028E005271
:1017900009E0D890025202E1015204E00232013223
:1017A000002EF7D7FCAF05D0011E021E012AD8B4C7
:1017B000022AB8EF0EF0FB51D8B488D0006EFF516A
:1017C000D8B484D0002605E3810E0026D8B07ED0A0
:1017D00006D07F0E005ED8A079D0D8B477D0FCC0F8
:1017E00003F101010051031B0001FC8F0101008F77
:1017F0000001FE5101010203F4CF05F10001FD518A
:1018000001010103F4CF03F0F3CF04F10203F3501D
:101810000527F4500423000E03220001FE510101AC
:101820000103F3500527F4500423000E026A03223B
:1018300002220001FC5101010203F3500427F4507D
:101840000322000E02220001FC5101010103F350AA
:101850000326F4500222000E016A01220001FE510B
:1018600001010003F3500427F4500322000E02226A
:1018700001220001FD5101010003F3500326F45041
:101880000222000E01220001FC5101010003F3506D
:101890000226F4500122002A01BE05D00437033687
:1018A000023601360006000E04AF0AD0032A0222D7
:1018B0000122015005E1025003E1035001E1002A39
:1018C00003BF018E03AF019E06D00001006A016ACA
:1018D000026A036A01010001E9EF0EF0166AF2BE26
:1018E000168EF29EFBC01EF1FBEC04F016BEF28ECB
:1018F000015245E0FB51080DF3500101046B036FE9
:10190000040E0327000E0423020E0325016E000EB1
:101910000421036E01C0E9FF040E0324EA6EECCF3C
:1019200002F1ED52EFCF01F102C1EAFF01C1E9FF7F
:10193000FDC0E2FFFCC0E1FFFFC002F0FEC001F00D
:10194000015202E0022A02D0025206E0E6CFEEFF88
:10195000012EFCD7022EFAD7166AF2BE168EF29E20
:10196000FBC019F1FFC01BF1FEC01AF100C11CF150
:1019700000011DEC05F016BEF28E015002D0000EE3
:10198000016E16EF0FF0F86AD09E078E9382938057
:10199000B00EC86E360EC66EC580176AB886D40EF5
:1019A000AF6E040EB06EA60EAC6E900EAB6E1D6ADE
:1019B000216A639163936395676B666B656B646B78
:1019C0006B6B6A6B696B686B6F6B6E6B6D6B6C6B63
:1019D000736B726B716B706B776B766B756B746B13
:1019E0007B6B7A6B796B786B7D6B7C6B7F6B7E6BC3
:1019F000816B806B836B826B856B846B030EFA6FDC
:101A0000C150C00B0F09C16E070EB46EE86BE96BD5
:101A1000EA6BEB6BEC6BED6BEE6BEF6BF06BF16B02
:101A2000F26BF36BF46B040EF56FA30EF66F060EFC
:101A3000F76F070EF86FF96B866B876B87510F088E
:101A40001AE3036A8751880FE96E000E0320EA6EDD
:101A5000EF6A036A8751A80FE96E000E0320EA6E51
:101A6000EF6A036A8751C80FE96E000E0320EA6E21
:101A7000EF6A872BE3D707DC9D86850ECD6E9D80B0
:101A800027D515DDD180C00EF2128B9494940B0EE5
:101A90007D6FB80E7C6F43EC09F004007D510008A7
:101AA00008E2FF0A03E17C51900803E2050EA96FEA
:101AB00002D00A0EA96F7F51000808E2FF0A03E175
:101AC0007E51900803E2050EAA6F02D00A0EAA6F9B
:101AD00082A403D0050EAB6F02D00A0EAB6F7D510E
:101AE000000828E2FF0A03E17C51900823E2FE6B24
:101AF000FD6BFC6B800EFB6F77C002F176C001F1CD
:101B000075C000F174C0FFF0EADC13E377C0FEF0AB
:101B100076C0FDF075C0FCF074C0FBF00101026BF3
:101B2000016B480E006F840E0001FF6FD8DC01E3EB
:101B300029D504D08B9094908B9294928151010876
:101B400017E303E180512B0813E37C5306E17D5337
:101B500004E18B84949463810BD07F51000808E2E8
:101B6000FF0A03E17E518F0803E28B949494639102
:101B7000815100080AE2FF0A03E180512B0805E2C7
:101B80000A0EA86F8B94949413D07F51010808E239
:101B9000FF0A03E17E51570803E2140EA86F08D034
:101BA0007C5305E17D5303E11E0EA86F01D0A86BA5
:101BB00063A3B7D06393650E37DD270E006E002E4A
:101BC000FED700D0FF0E30DD270E006E002EFED7B0
:101BD00000D0FF0E29DD270E006E002EFED700D0AC
:101BE000C85122DD270E006E002EFED700D0C9514D
:101BF0001BDD270E006E002EFED700D0CA5114DD6B
:101C0000270E006E002EFED700D0CB510DDD270E23
:101C1000006E002EFED700D0CC5106DD270E006EE0
:101C2000002EFED700D0CD51FFDC270E006E002E17
:101C3000FED700D0000EF8DC270E006E002EFED777
:101C400000D0FF0EF1DC270E006E002EFED700D074
:101C5000E851EADC270E006E002EFED700D0E951D5
:101C6000E3DC270E006E002EFED700D0EA51DCDC4C
:101C7000270E006E002EFED700D0EB51D5DC270ECC
:101C8000006E002EFED700D0F051CEDC270E006E85
:101C9000002EFED700D0F151C7DC270E006E002EBB
:101CA000FED700D0F251C0DC270E006E002EFED70A
:101CB00000D0F351B9DC270E006E002EFED700D005
:101CC000010EB2DC270E006E002EFED700D0F451BC
:101CD000ABDC270E006E002EFED700D0F551A4DC41
:101CE000270E006E002EFED700D0F6519DDC270E89
:101CF000006E002EFED700D0F75196DC270E006E46
:101D0000002EFED700D0F8518FDC270E006E002E7B
:101D1000FED700D0F95188DC270E006E002EFED7CA
:101D200000D086D40152D8B481D0010EFB6F84D488
:101D3000015209E0010EFB6FFD6B430EFC6FFF6B60
:101D4000200EFE6FF8D46BC06FF06AC06EF069C0F1
:101D50006DF068C06CF0C8C023F0780E246E6FC0C0
:101D6000FEF06EC0FDF06DC0FCF06CC0FBF006D55F
:101D7000FC6B01C0FBF028EC07F0D8826FC0FEF0CE
:101D80006EC0FDF06DC0FCF06CC0FBF003C002F152
:101D900002C001F101C000F100C0FFF001EC08F049
:101DA00003C067F002C066F001C065F000C064F0D7
:101DB00067C0FEF066C0FDF065C0FCF064C0FBF0DB
:101DC0000101026B016B200E006F820E0001FF6F9C
:101DD000F2D403C067F002C066F001C065F000C035
:101DE00064F0C9C025F0CAC026F0CBC027F0CCC033
:101DF00028F0CDC029F0E8C02AF0E9C02BF0EAC0F5
:101E00002CF0EBC02DF084C02EF0E0C030F0E1C02B
:101E100031F0010EFB6FFD6B230EFC6FFF6B200E8C
:101E2000FE6F020E0101006F000158D534D6030089
:020000040030CA
:0E00000024CE3E19000781000FC00FE00F4014
:00000001FF
;PIC18F2550
;CRC=9C0B  CREATED="28-oct.-22 08:34"
