:0600000097EF3FF0120033
:080008000000000000000000F0
:100010000000000000000000046ED8CF05F0E0CF23
:1000200006F00001E9CF0CF0EACF07F0E1CF08F0CD
:10003000E2CF09F0D9CF0AF0DACF0BF0F3CF12F00C
:10004000F4CF13F0FACF14F0FBCF15F000C00EF090
:1000500001C00FF002C010F003C011F0F2AA34EF9B
:1000600000F0F2B45DEF00F09DAA3AEF00F09EBA06
:10007000DEEF0CF00EC000F00FC001F010C002F077
:1000800011C003F00CC0E9FF07C0EAFF078E08C0EB
:10009000E1FF09C0E2FF0AC0D9FF0BC0DAFF12C0BE
:1000A000F3FF13C0F4FF14C0FAFF15C0FBFF0450A8
:1000B00006C0E0FF05C0D8FF1000512AD8B4522A6C
:1000C000542A5450090802E2532A546A850ED76E06
:1000D000ED0ED66EF2943AEF00F03C48544D4C3E93
:1000E0003C424F44593E3C48313E34303420457206
:1000F000726F723C2F48313E3C48523E3C503E4667
:10010000696C65204E6F7420666F756E642E3C2F8F
:10011000424F44593E3C2F48544D4C3E00003C4811
:10012000544D4C3E3C424F44593E3C48313E3530A4
:1001300030204572726F723C2F48313E3C48523E2F
:100140003C503E496E7465726E616C2053657276E8
:100150006572204572726F723C2F424F44593E3C8B
:100160002F48544D4C3E0000485454502F312E30EF
:1001700020254C5520004E6F7420666F756E64000C
:10018000536572766572204572726F7200000D0AB7
:10019000436F6E74656E742D547970653A2000005B
:1001A000746578742F68746D6C000D0A0D0A000078
:1001B000200A2020203C68746D6C3E200A3C686553
:1001C00061643E200A3C6D65746120687474702D12
:1001D00065717569763D2272656672657368226322
:1001E0006F6E74656E743D2232303B75726C3D22C9
:1001F0003E200A3C7469746C653E4A50496E676CD7
:100200006F62616C204461746F732045746865721D
:100210006E65743C2F7469746C653E200A3C2F68CF
:100220006561643E200A200A3C626F647920737421
:10023000796C653D226261636B67726F756E643ABB
:1002400023666666666666223E20200A200A3C64B3
:100250006976207374796C653D226261636B6772A5
:100260006F756E643A233433383364332220616C03
:1002700069676E3D2263656E746572223E200A20B6
:100280000A2020203C696D67207372633D226874E8
:100290007470733A2F2F6A70696E676C6F62616C4D
:1002A0002E636F6D2F696D616765732F616E646F6B
:1002B0005F73697374656D612F4C6F676F2D4A5062
:1002C0005F323031392D30352E706E672220616CEF
:1002D000743D224C6F676F204A50496E676C6F62A5
:1002E000616C2220616C69676E3D2263656E746586
:1002F00072222077696474683D223536372220687F
:1003000065696768743D22313839223E200A3C2FE6
:100310006469763E200A200A3C68722073697A6517
:100320003D223870782220636F6C6F723D22233437
:100330003338336433223E200A200A3C6469762035
:100340007374796C653D226261636B67726F756E61
:10035000643A234531463646462220616C69676E11
:100360003D2263656E746572223E200A200A2020B9
:10037000203C683220616C69676E3D2263656E7453
:100380006572223E2056697375616C697A61636992
:10039000F36E206465206461746F733C2F68323E95
:1003A000200A2020203C5441424C4520424F5244D8
:1003B00045523D303E200A2020202020203C54522F
:1003C0003E200A202020203C54443E203C696D679A
:1003D000207372633D2268747470733A2F2F7737DD
:1003E0002E706E6777696E672E636F6D2F706E6704
:1003F000732F322F3233372F706E672D7472616E08
:1004000073706172656E742D636F6D707574657253
:100410002D69636F6E732D746865726D6F6D657491
:1004200065722D74656D70657261747572652D628B
:100430007573696E6573732D63656C736975732D60
:100440007468656D6F6D657465722D6D656173752A
:1004500072656D656E742D627573696E6573732D4B
:1004600074656D70657261747572652D6D6561730B
:100470007572656D656E742E706E672220616C7486
:100480003D2254656D7065726174757261222061E0
:100490006C69676E3D2263656E74657222207769B0
:1004A0006474683D22393222206865696768743D4A
:1004B000223531223E203C2F54443E200A20202069
:1004C0002020202020203C54483E54656D706572E9
:1004D00061747572613A3C2F54483E200A202020F6
:1004E0002020202020203C54442069643D2264794F
:1004F0006E30223E25303C2F54443E2020202020C8
:1005000020202020200A2020202020203C2F545270
:100510003E200A2020202020203C54523E200A2049
:100520002020203C54443E203C696D672073726358
:100530003D2268747470733A2F2F77372E706E6770
:1005400077696E672E636F6D2F706E67732F322F12
:100550003233372F706E672D7472616E73706172F3
:10056000656E742D636F6D70757465722D69636F40
:100570006E732D746865726D6F6D657465722D7420
:10058000656D70657261747572652D627573696EE3
:100590006573732D63656C736975732D7468656D10
:1005A0006F6D657465722D6D6561737572656D65CE
:1005B0006E742D627573696E6573732D74656D70DD
:1005C000657261747572652D6D6561737572656DA7
:1005D000656E742E706E672220616C743D225465C6
:1005E0006D70657261747572612220616C69676EED
:1005F0003D2263656E746572222077696474683D7C
:1006000022393222206865696768743D22353122BB
:100610003E203C2F54443E200A2020202020202031
:1006200020203C54483E54656D706572617475724B
:1006300061323A3C2F54483E200A202020202020BE
:100640002020203C54442069643D2264796E31228C
:100650003E25313C2F54443E2020202020202020C5
:1006600020200A2020202020203C2F54523E200A07
:100670002020202020203C54523E20200A202020F0
:10068000203C54443E203C696D67207372633D22D8
:1006900068747470733A2F2F77372E706E6777698E
:1006A0006E672E636F6D2F706E67732F3736322F24
:1006B0003335312F706E672D7472616E7370617295
:1006C000656E742D68756D69646974792D636F6DDD
:1006D00070757465722D69636F6E732D636C696DCF
:1006E0006174652D6D6F6973747572652D68756DB4
:1006F00069642D616E676C652D636C6F75642D6D1B
:100700006574656F726F6C6F67792E706E672220EB
:10071000616C743D2248756D656461642220616C72
:1007200069676E3D2263656E746572222077696425
:1007300074683D22393222206865696768743D22F9
:100740003531223E3C2F54443E200A2020202020D8
:10075000202020203C54483E48756D656461643A11
:100760003C2F54483E200A202020202020202020FA
:100770003C54442069643D2264796E32223E253225
:100780003C2F54443E200A2020202020203C2F547F
:10079000523E202020202020200A2020202020201F
:1007A0003C54523E200A202020203C54443E203C11
:1007B000696D67207372633D2268747470733A2F99
:1007C0002F77372E706E6777696E672E636F6D2F88
:1007D000706E67732F3439332F3935382F706E6749
:1007E0002D7472616E73706172656E742D73796DA4
:1007F000626F6C2D6C6F676F2D636F6D70757465B4
:10080000722D69636F6E732D74696D652D73796DCB
:10081000626F6C2D6D697363656C6C616E656F756D
:10082000732D616E676C652D6C6F676F2E706E67D0
:100830002220616C743D225469656D706F222061C5
:100840006C69676E3D2263656E74657222207769FC
:100850006474683D22393222206865696768743D96
:10086000223531223E203C2F54443E200A202020B5
:10087000203C54483E2046656368613A203C2F5432
:10088000483E200A202020203C54442069643D2218
:10089000486F726141637475616C223E203C2F5435
:1008A000443E200A2020202020203C2F54523E206D
:1008B0000A2020203C2F5441424C453E200A200A69
:1008C000200A2020203C42522F3E200A3C2F6469FF
:1008D000763E200A200A200A3C2F626F64793E206F
:1008E0000A200A3C73637269707420747970653DE4
:1008F00022746578742F6A617661736372697074AB
:10090000223E200A2F2F2F2F2F2F2F2F2F2F2F2F29
:100910002F2F2F2F2F2F2F2F2F2F2F2F2F2F2F2FE7
:100920002F2F2F2F2F2F2F2F2F2F2F2F2F2F2F2FD7
:100930002F2F2F2F2F2F2F2F2F2F2F2F2F2F2F2FC7
:100940002F2F2F2F2F2F2F2F2F2F2F2F2F200A2FEB
:100950002F2F2F202020202020202020202020206A
:100960002020202020202020202020202020202087
:100970002020202020202020202020202020202077
:100980002020202020202020202020202020202067
:10099000202020202F2F2F2F200A2F2F2F2F2020F5
:1009A000414A415820726F7574696E657320666F95
:1009B000722072782F7478206F66206461746120D1
:1009C000776974686F757420686176696E672074E2
:1009D0006F2072656C6F616420706167652E202FD7
:1009E0002F2F2F200A2F2F2F2F20202020202020B4
:1009F00020202020202020202020202020202020F7
:100A000020202020202020202020202020202020E6
:100A100020202020202020202020202020202020D6
:100A2000202020202020202020202F2F2F2F200AA0
:100A30002F2F2F2F20205772697474656E206279D2
:100A4000204343532C20496E632E20202020202059
:100A500020202020202020202020202020206874FA
:100A600074703A2F2F7777772E636373696E666F92
:100A70002E636F6D202F2F2F2F200A2F2F2F2F2027
:100A80002020202020202020202020202020202066
:100A90002020202020202020202020202020202056
:100AA0002020202020202020202020202020202046
:100AB0002020202020202020202020202020202036
:100AC0002F2F2F2F200A2F2F2F2F202020202020C4
:100AD000202028432920436F707972696768742049
:100AE000313939362C3230313320437573746F6DA0
:100AF00020436F6D707574657220536572766963FB
:100B000065732020202020202020202F2F2F2F2011
:100B10000A2F2F2F2F205468697320736F7572630B
:100B20006520636F6465206D6179206F6E6C79203C
:100B300062652075736564206279206C6963656EF7
:100B4000736564207573657273206F6620746865C1
:100B50002043435320202F2F2F2F200A2F2F2F2FBA
:100B6000204320636F6D70696C65722E202054687D
:100B7000697320736F7572636520636F6465206DA0
:100B80006179206F6E6C792062652064697374727C
:100B900069627574656420746F206F746865722073
:100BA000202F2F2F2F200A2F2F2F2F206C696365C6
:100BB0006E736564207573657273206F6620746848
:100BC0006520434353204320636F6D70696C6572E9
:100BD0002E20204E6F206F74686572207573652C0F
:100BE0002020202020202020202020202F2F2F2FC9
:100BF000200A2F2F2F2F20726570726F6475637417
:100C0000696F6E206F7220646973747269627574A3
:100C1000696F6E206973207065726D6974746564A4
:100C200020776974686F7574207772697474656E63
:100C3000202020202020202F2F2F2F200A2F2F2F61
:100C40002F207065726D697373696F6E2E2020207E
:100C50002020202020202020202020202020202094
:100C60002020202020202020202020202020202084
:100C70002020202020202020202020202020202074
:100C800020202F2F2F2F200A2F2F2F2F2F2F2F2FC6
:100C90002F2F2F2F2F2F2F2F2F2F2F2F2F2F2F2F64
:100CA0002F2F2F2F2F2F2F2F2F2F2F2F2F2F2F2F54
:100CB0002F2F2F2F2F2F2F2F2F2F2F2F2F2F2F2F44
:100CC0002F2F2F2F2F2F2F2F2F2F2F2F2F2F2F2F34
:100CD0002F200A76617220616A61784765743B2033
:100CE0000A76617220743B200A766172207761690E
:100CF00074696E67203D20303B200A766172207453
:100D000056616C6964203D20303B200A7661722078
:100D10006E657874436769203D2022223B200A7665
:100D20006172206C617374436769203D2022223B0D
:100D3000200A76617220696F7336776F726B617209
:100D40006F756E64203D20303B200A200A66756E68
:100D50006374696F6E20736574537461727454693F
:100D60006D652829200A7B200A2020207456616C9A
:100D70006964203D20313B200A20202074203D2042
:100D800073657454696D656F75742827616A61783D
:100D90002829272C20353030293B200A7D200A20A5
:100DA0000A66756E6374696F6E20616A61782829BE
:100DB000200A7B200A202020696620287761697438
:100DC000696E6729200A2020207B200A202020200D
:100DD000202077616974696E672D2D3B200A2020E1
:100DE000202020206966202877616974696E672059
:100DF0003D3D203029200A2020202020207B200A71
:100E0000202020202020202020696620286C61736B
:100E10007443676920213D20222229200A202020B6
:100E20002020202020207B200A202020202020207D
:100E30002020202020696620286E65787443676929
:100E4000203D3D20222229200A2020202020202071
:100E500020202020202020206E65787443676920A0
:100E60003D206C6173744367693B200A2020202079
:100E70002020202020202020656C7365200A20205F
:100E8000202020202020202020202020206E657877
:100E900074436769203D206C617374436769202B3C
:100EA00020222622202B206E6578744367693B2020
:100EB0000A2020202020202020207D200A20202001
:100EC0002020207D200A2020207D200A200A2020AA
:100ED00020696620282177616974696E6729200A74
:100EE0002020207B200A202020202020616A617899
:100EF0004765743D476574586D6C487474704F62F3
:100F00006A65637428293B200A200A2020202020BB
:100F10002069662028616A61784765743D3D6E7579
:100F20006C6C29200A2020202020207B200A2020F1
:100F300020202020202020616C65727420282259F6
:100F40006F75722062726F7773657220646F65735C
:100F5000206E6F7420737570706F727420414A41F7
:100F6000582122293B200A20202020202020202038
:100F700072657475726E3B200A2020202020207D2F
:100F8000200A200A20202020202077616974696EC1
:100F900067203D20353B20202F2F77616974203258
:100FA0002E35207365636F6E647320666F722061E7
:100FB00020726573706F6E7365200A200A202020EE
:100FC000202020616A61784765742E6F70656E28F5
:100FD00022504F5354222C2022696E6465782E785B
:100FE0006D6C222C2074727565293B200A200A2022
:100FF0002020202020616A61784765742E6F6E7210
:101000006561647973746174656368616E67652096
:101010003D2073746174654368616E6765643B204D
:101020000A200A202020202020696620286E65786A
:101030007443676920213D20222229200A20202094
:101040002020207B200A202020202020202020611A
:101050006A61784765742E73656E64286E6578746E
:10106000436769293B200A202020202020202020BF
:101070006C617374436769203D206E6578744367C3
:10108000693B200A2020202020202020206E657827
:1010900074436769203D2022223B200A2020202023
:1010A00020207D200A202020202020656C736520D0
:1010B0000A2020202020207B200A20202020202001
:1010C000202020616A61784765742E73656E6428FC
:1010D0002249474E4F5245445441473D222B696FA8
:1010E0007336776F726B61726F756E64293B200A7D
:1010F000200A202020202020202020696620282B64
:101100002B696F7336776F726B61726F756E6420C7
:101110003E2032353529200A202020202020202082
:1011200020202020696F7336776F726B61726F7544
:101130006E64203D20303B200A2020202020207D8E
:10114000200A2020207D200A200A20202073657498
:10115000537461727454696D6528293B200A7D209F
:101160000A200A66756E6374696F6E2073656E641B
:1011700043676928636D642C2076616C756529204E
:101180000A7B200A202020696620286E6578744337
:10119000676920213D20222229200A2020202020AA
:1011A000206E657874436769202B3D202226223B00
:1011B000200A200A2020206E657874436769202B5E
:1011C0003D20636D64202B20223D22202B20766160
:1011D0006C75653B200A7D200A200A66756E637473
:1011E000696F6E20476574456C656D656E744E6FF2
:1011F000646556616C756528786D6C446F632C204E
:10120000696429200A7B200A202020726574757287
:101210006E20786D6C446F632E676574456C656DE8
:10122000656E747342795461674E616D65286964B7
:10123000295B305D2E6368696C644E6F6465735B17
:10124000305D2E6E6F646556616C75653B200A7D5E
:10125000200A200A66756E6374696F6E2047657494
:10126000456C656D656E7441747472696275746500
:1012700056616C756528786D6C446F632C20656CC5
:10128000656D656E742C2061747472696275746525
:1012900029200A7B200A202020766172206E3B20C4
:1012A0000A20202076617220693B200A200A202033
:1012B000206E203D20786D6C446F632E6765744509
:1012C0006C656D656E747342795461674E616D65CE
:1012D00028656C656D656E74295B305D2E61747474
:1012E000726962757465732E6C656E6774683B20F5
:1012F0000A200A202020666F722028693D303B209A
:10130000693C6E3B20692B2B29200A2020207B2062
:101310000A20202020202069662028786D6C446FE8
:10132000632E676574456C656D656E7473427954A0
:1013300061674E616D6528656C656D656E74295BCE
:10134000305D2E617474726962757465735B695D7A
:101350002E6E616D65203D3D206174747269627509
:10136000746529200A2020202020207B200A2020AC
:101370002020202020202072657475726E20786DE8
:101380006C446F632E676574456C656D656E747330
:1013900042795461674E616D6528656C656D656E57
:1013A00074295B305D2E6174747269627574657343
:1013B0005B695D2E76616C75653B200A20202020DC
:1013C00020207D200A2020207D200A200A202020A5
:1013D00072657475726E203B200A7D200A200A66B1
:1013E000756E6374696F6E205570646174654578BD
:1013F000697374696E675461626C6528786D6C44BA
:101400006F6329200A7B200A2020207661722069E0
:10141000203D20303B200A200A202020666F7228C1
:101420003B3B29200A2020207B200A20202020204E
:1014300020766172206964203D202264796E222B1F
:10144000693B200A202020202020692B2B3B200AEA
:1014500020202020202069662028646F63756D6538
:101460006E742E676574456C656D656E744279495E
:10147000642869642929200A2020202020207B203C
:101480002020202020202020200A20202020202072
:10149000202020646F63756D656E742E67657445DA
:1014A0006C656D656E7442794964286964292E699A
:1014B0006E6E657248544D4C203D20476574456CF6
:1014C000656D656E744E6F646556616C75652878E0
:1014D0006D6C446F632C206964293B200A20202016
:1014E0002020207D200A202020202020656C73658C
:1014F0007B200A202020202020202020627265618D
:101500006B3B200A2020202020207D200A20202044
:101510007D200A7D200A200A66756E6374696F6EED
:101520002073746174654368616E6765642829205F
:101530000A7B200A20202069662028616A6178479A
:1015400065742E726561647953746174653D3D34D0
:1015500029200A2020207B200A202020202020551E
:1015600070646174654578697374696E675461620B
:101570006C6528616A61784765742E726573706F57
:101580006E7365584D4C2E646F63756D656E744552
:101590006C656D656E74293B200A200A202020208E
:1015A000202077616974696E67203D20303B200AF6
:1015B00020207D200A7D200A200A66756E637469EA
:1015C0006F6E20476574586D6C487474704F626A12
:1015D0006563742829200A7B200A20202069662060
:1015E0002877696E646F772E584D4C48747470522A
:1015F00065717565737429200A2020207B200A20DC
:1016000020202020202F2F20636F646520666F72BA
:10161000204945372B2C2046697265666F782C204F
:101620004368726F6D652C204F706572612C20537A
:101630006166617269200A20202020202072657472
:1016400075726E206E657720584D4C4874747052D8
:1016500065717565737428293B200A2020207D2040
:101660000A2020206966202877696E646F772E41F2
:101670006374697665584F626A65637429200A202D
:1016800020207B200A2020202020202F2F20636F65
:10169000646520666F72204945362C204945352007
:1016A0000A20202020202072657475726E206E65DD
:1016B0007720416374697665584F626A6563742860
:1016C000224D6963726F736F66742E584D4C485487
:1016D000545022293B200A2020207D200A2020204F
:1016E00072657475726E206E756C6C3B200A7D207D
:1016F0000A200A73686F7754696D6528293B200AB0
:10170000200A66756E6374696F6E2073686F775414
:10171000696D6528297B200A2020206D7944617439
:1017200065203D206E6577204461746528293B2043
:101730000A2020202F2F646F63756D656E742E77DD
:1017400072697465286D7944617465293B200A20AB
:1017500020202F2F6D79446174652E746F5554438A
:10176000537472696E6728293B200A2020202F2F8E
:10177000646F63756D656E742E676574456C656D19
:10178000656E74427949642822486F7261416374BE
:1017900075616C22292E696E6E657248544D4C201D
:1017A0003D206D79446174652E746F5554435374B4
:1017B00072696E6728293B200A202020686F7572A5
:1017C00073203D206D79446174652E676574486FA0
:1017D00075727328293B200A2020206D696E75746C
:1017E0006573203D206D79446174652E6765744D85
:1017F000696E7574657328293B200A202020736563
:10180000636F6E6473203D206D79446174652E674B
:1018100065745365636F6E647328293B200A20202A
:101820002069662028686F757273203C203130294A
:1018300020686F757273203D2030202B20686F75F3
:1018400072733B200A202020696620286D696E751E
:10185000746573203C20313029206D696E75746584
:1018600073203D20223022202B206D696E75746517
:10187000733B200A202020696620287365636F6E01
:101880006473203C20313029207365636F6E64736C
:10189000203D20223022202B207365636F6E6473FD
:1018A0003B200A2020202F2F24282223486F7261FA
:1018B00041637475616C22292E7465787428686F91
:1018C0007572732B20223A22202B6D696E75746518
:1018D000732B20223A22202B7365636F6E64732969
:1018E0003B200A202020646F63756D656E742E673F
:1018F0006574456C656D656E74427949642822484B
:101900006F726141637475616C22292E696E6E6518
:101910007248544D4C3D6D79446174652E746F5519
:101920005443537472696E6728293B200A20202093
:1019300073657454696D656F7574282273686F7769
:1019400054696D652829222C2031303030293B2004
:101950002020200A20202073657454696D656F75FE
:101960007428225570646174654578697374696E72
:10197000675461626C652829222C2031303030296F
:101980003B2020200A200A7D200A200A3C2F736376
:10199000726970743E200A200A3C2F68746D6C3E98
:1019A000200A00009EAAFED7ABCF17F0AECF01F001
:1019B00017A202D0AB98AB88DFEF0CF0F3D701C0D1
:1019C00002F303010251650803E1010E036F016B8D
:1019D000032D0AD0036A0151E50FE96E020E0320C0
:1019E000EA6E02C3EFFF012B01511A0802E2016BFC
:1019F000036B015312E10201E55165080BE1E63D7D
:101A000009D0EE5307E1EF3D05D0050E0301046F49
:101A100004D002010A0E0301046F9E9A00013AEFFE
:101A200000F0030EEA6E2A0EE96EEF500DE0060E8E
:101A3000016E006A002EFED7012EFBD77B0E006ED2
:101A4000002EFED7EF2EF3D71200236A040E246E69
:101A5000A30E256E060E266E070E276E080E286E44
:101A600017EF40F0C00E1F6EA80E206E216A760E92
:101A7000226EC00E2D6EA80E2E6E2F6A010E306ED5
:101A800029682A682B682C6A19EF40F0830ED56EFE
:101A9000850ED76EED0ED66EF28AC00EF212B2EF40
:101AA00011F0C69A949A94889496200EC66E400EB1
:101AB000C76E94928B8294908B80CEEF0EF0C950BB
:101AC000E2C3C9FFC730FEE3C9CF01F01200949210
:101AD0008B92D7C3D9F3D7C3E2F30001F0DF030140
:101AE000E26B0001ECDF01C0D8F394928B8203011A
:101AF000D8C301F00001120094928B920301E269B5
:101B00000001DDDF94928B82E3EF0EF094928B92D2
:101B10000301DD514009DF6FE26F0001D0DFDEC35A
:101B2000E2F3CDDF94928B82120094928B920301A8
:101B3000DC51A009DE6FE26F0001C1DFDDC3E2F31B
:101B4000BEDF94928B82120094928B920301DF513C
:101B50008009E16FE26F0001B2DFE0C3E2F3AFDFC3
:101B600094928B8212001F0E0301DC6F030EDD6F57
:101B70000001DBDF030E0301DD6FDA0EDC6F010E07
:101B8000DC25E96E000EDD21EA6EEFCFDEF31F0EDD
:101B9000DF6FDEC3E0F30001D7DF120094928B9277
:101BA00031C333F331C3E2F3000189DF0301E26B98
:101BB000000185DF0301E26B000181DF01C032F328
:101BC00094928B82030132C301F000011200020ED5
:101BD0000301DB6F140EDA6F0001C5DF140E030181
:101BE000DD6F2EC3DEF3000191DF030E0301326FC0
:101BF0002F0E316FE96E32C3EAFFEFCF33F3160ECB
:101C0000DD6F33C3DEF3000181DF030E0301326FAA
:101C10002F0E316F010E3125E96E000E3221EA6E72
:101C2000EFCF33F3170EDD6F33C3DEF300016EDF4A
:101C3000030E0301DB6F0A0EDA6F000194DF0A0E58
:101C40000301316F0001AADF01C031F3000E03016F
:101C500001B0010E000AD8B402D00001F0D7000193
:101C60001200020E0301DB6F140EDA6F00017BDF3E
:101C7000140E0301DD6F2EC3DEF3000147DF120EE9
:101C80000301DD6F010EDE6F000140DF030E030173
:101C9000DB6F0A0EDA6F000166DF0A0E0301316F97
:101CA00000017CDF01C031F3000E030101B0010E21
:101CB000000AD8B402D00001F0D7020EDB6F140E78
:101CC000DA6F000150DF120E0301DD6FDE6B0001E1
:101CD0001DDF180E0301316F000160DF01C02FF31B
:101CE000190E0301316F000159DF01C030F3030108
:101CF0002FC301F030C302F000018AEF0EF01F0E77
:101D00000301DC6F0C0EDD6F00010FDF03012E6B92
:101D10000001A7D702C02DF301C02CF303012A5103
:101D2000020804E12A6B2DB12A2B0BD02D912AB188
:101D30002D812E6B2DC330F32CC32FF3000147DF11
:101D40000301020EDB6FDA6F00010DDF020E0301EB
:101D5000316F000123DF01C02BF303012B912AB166
:101D60002B81020EDD6F2BC3DEF30001CFDE0301FA
:101D70002A5302E0150E01D0120E2E6F040EDD6FF5
:101D80002EC3DEF30001C2DE1F0E0301DF6F040E5F
:101D9000E06F0001D9DEABEF0FF083D61D0E03011B
:101DA000D76F000194DE01C029F3030129A702D0F7
:101DB0000001F4D72951FF0A010BD8B402D0000169
:101DC000EDD7000199D6010E03012A6F000129DE2B
:101DD000506A5980566A556A080E0301DD6FDE6B42
:101DE000000194DE090E0301DD6FDE6B00018EDE63
:101DF0000C0E0301DD6FF70EDE6F000187DE0D0EA6
:101E00000301DD6F1B0EDE6F000180DE0A0E030191
:101E1000DD6FF70EDE6F000179DE0B0E0301DD6F63
:101E20001B0EDE6F000172DE040E0301DD6FF80E83
:101E3000DE6F00016BDE050E0301DD6F1B0EDE6F32
:101E4000000164DE020E0301DB6FDA6B00018BDE42
:101E50000301DD6B0D0EDE6F000158DE020E030183
:101E6000DD6F320EDE6F000151DE030E0301DD6F08
:101E7000400EDE6F00014ADE090E0301DD6F3F0EEA
:101E8000DE6F000143DE060E0301DD6F120EDE6F12
:101E900000013CDE070E0301DD6F0C0EDE6F00015A
:101EA00035DE0A0E0301DD6FEE0EDE6F00012EDE61
:101EB0000B0E0301DD6F050EDE6F000127DE030E42
:101EC0000301DB6F040EDA6F00014DDE040E030127
:101ED000DD6F23C0DEF3000119DE050E0301DD6FA7
:101EE00024C0DEF3000112DE020E0301DD6F25C007
:101EF000DEF300010BDE030E0301DD6F26C0DEF30F
:101F0000000104DE0301DD6B27C0DEF30001FEDD0E
:101F1000010E0301DD6F28C0DEF30001F7DD120EB4
:101F20000301D76F0001D3DD01C05AF0100E030189
:101F30002E6F010E306F2F6B000149DE140E03016E
:101F40002E6F040E306F720E2F6F000140DE030102
:101F50002A6B0001D4D61F0E0301DF6F040EE06F61
:101F60000001F2DDB3EF11F0599201011669176912
:101F7000186919691A691B691F6B1E6B1D6B1C6B35
:101F80000001B4EF11F02FC31DF02EC31CF02DC3C0
:101F90001BF02CC31AF0E0EF10F00301346B356B2B
:101FA000010E366FDA6AD96A030E396F2C0E386F5C
:101FB000030EEA6E300EE96E39C3E2FF38C3E1FF6B
:101FC00036C337F3D890E550EE02F3503423F45083
:101FD0003523372FF7D734C3DEFF35C334F3356BE2
:101FE000D8B0352B382BD8B4392B362B36510508C1
:101FF000DFE1000133EF10F0016A026A006A036A50
:102000000301325102E1315118E0100E336FD890C4
:102010002F373037003603363251035C02E131513D
:10202000005C07E33151005ED8A003063251035E25
:10203000D88001360236332FEAD7000153EF10F073
:102040001DC02FF31CC02EF31BC02DF31AC02CF3A0
:10205000410E0301336FC60E326F4E0E316F6D0E9F
:10206000306F00019AD7390E030100241A6E300E2A
:1020700001201B6E000E02201C6E000E03201D6E40
:102080001CC000F01DC001F0026A036A1DC02EF3DF
:102090001CC02DF31DC030F31CC02FF37F0E326F18
:1020A00031690001A9D700C001F003C002F0E1EFDF
:1020B00010F00301296B2951040868E32951240D0C
:1020C000F350036A600F016E000E032201C02AF371
:1020D00003C02BF32AC3E9FF2BC3EAFF0A0EEF6EFE
:1020E000230E2A25E96E000E2B21EA6EEF90230EB7
:1020F0002A25E96E000E2B21EA6EEF82230E2A2597
:10210000E96E000E2B21EA6EEF84230E2A25E96E7C
:10211000000E2B21EA6EEF98230E2A25E96E000EA1
:102120002B21EA6EEF960F0E2A25E96E000E2B2169
:10213000EA6EEF3C01D015D00F0E2A25E96E000E95
:102140002B21EA6EEFCF2CF32CC37CF3000102ECC1
:1021500000F00F0E03012A25E96E000E2B21EA6E16
:10216000EF68210E2A25E96E000E2B21EA6EEC6A3B
:10217000ED521E0EEF6E100E2A25E96E000E2B2179
:10218000EA6EEC6AED52EF6A292B95D7D650010121
:102190001427D7501523CE501427CF501523CC50D9
:1021A0001427000E1523B2501427B3501523030132
:1021B0002F6B2E6B15C12DF314C12CF30001E3D648
:1021C0003FD702C05FF001C05EF0040E5F265F5093
:1021D00012080AE2FF0A03E15E50870805E2880E52
:1021E0005E5E130E5F5AF3D75F50030802E3040EDE
:1021F0005F26B5EF11F003012E6B2E51040873E337
:102200002E51240DF350036A600F016E000E03225D
:1022100001C02FF303C030F32FC3E9FF30C3EAFF3F
:10222000EF500A085EE12FC3E9FF30C3EAFFEF6A0F
:102230000B0E2F25E96E000E3021EA6E2DC3ECFF48
:10224000ED522CC3EFFF0D0E2F25E96E000E30214D
:10225000EA6EEC6AED52EF6A070E2F25E96E000E6A
:102260003021EA6EEE52EE52EC6AED52EF6AED5218
:10227000EF6AED52EF6A230E2F25E96E000E302132
:10228000EA6EEF80230E2F25E96E000E3021EA6EF4
:10229000EF960F0E2F25E96E000E3021EA6EEF3C0F
:1022A00001D015D00F0E2F25E96E000E3021EA6EF9
:1022B000EFCF31F331C37CF3000102EC00F00F0EDD
:1022C00003012F25E96E000E3021EA6EEF68230E20
:1022D0002F25E96E000E3021EA6EEF822EC301F049
:1022E00004D02E2B8AD7FE0E016E00018BEF11F069
:1022F0000301296B29532EE1036A2951200F016E36
:10230000010E032201C02AF303C02BF32D6B500EE4
:102310002C6F000170D72BC3EAFF2AC3E9FF01C06D
:10232000EFFF036A03012951200FE96E010E03201C
:10233000EA6EEF50FE080CE0D8902935036A210FB1
:10234000E96E010E0320EA6E010EEC6EED52EF6EA7
:10235000292BD0D70001B6EF11F00201786B0001F4
:1023600046EF0DF01AD500D6A4D6C2D71BEF40F029
:1023700059A001D032D05980010E555C03017B6F0A
:10238000000E56587C6F7C511A0809E2FF0A03E1DF
:102390007B51F70804E21B0E7C6FF70E7B6F1E0E5D
:1023A000DF6F400EE06F0001A4EC0DF00301DB6B6A
:1023B0000C0EDA6F0001B3EC0DF00C0E0301DD6FB3
:1023C0007BC3DEF3000186EC0DF00D0E0301DD6F23
:1023D0007CC3DEF3000186EC0DF012000301CB6B31
:1023E000CA6B94928B923A0EE26F00015FEC0DF093
:1023F0000301CB51C95D1CE303E1C851CA5D18E27A
:10240000C7C303F0C6C3CCF3C7C3CDF3E26B00016F
:102410005FEC0DF0CDC3EAFFCCC3E9FF01C0EFFFD5
:102420000301C62BD8B4C72BCA2BD8B4CB2BE1D70A
:1024300094928B82CAC301F0CBC302F00001120058
:10244000D8C3D9F3D7C3DAF30301D9C301F0DAC390
:1024500002F000011200010E0301DB6F190EDA6FAA
:102460000001B3EC0DF0190E0301D76F000167EC0A
:102470000DF001C047F30301475303E1000E016E65
:1024800086D059B006D0000173DF000E016E030143
:102490007ED056C058F055C057F0DB6BDA6B0001A8
:1024A000B3EC0DF00301DD6B55C0DEF3000186ECEB
:1024B0000DF0010E0301DD6F56C0DEF3000186EC66
:1024C0000DF0030E0301486F330E476F48C3C7F387
:1024D000C66FC96B140EC86F000180DF46C3D8F306
:1024E00045C3D7F3ADDF02C046F301C045F3030196
:1024F00034511A0805E2FF0A19E13351F70816E3CF
:10250000030E486F330EE96E48C3EAFFEFB00ED0FA
:1025100038BF0CD037B90AD03651040805E2FF0A9B
:1025200005E13551EE0802E337BF01D0FF0034C3A7
:1025300056F033C355F030C303F02FC347F330C315
:1025400048F330C3EAFF2FC3E9FF030EE26E3F0EEC
:10255000E16E060E016EE6CFEEFF012EFCD732C310
:1025600003F031C3E9FF03C0EAFFEF6846510808F2
:102570000BE1455303E04551060806E131C3E9FF8D
:1025800032C3EAFF45C3EFFF5990010E016E00010F
:1025900077EF3EF003015AC301F05BC303F05AC367
:1025A0005CF35BC35DF35AC3E9FF5BC3EAFFECCFA7
:1025B0005FF3ED52EFCF5EF35FC3D8F35EC3D7F3A3
:1025C00000013EDF5DC3EAFF5CC3E9FF02C0ECFF30
:1025D000ED5201C0EFFF020E03015A25016E000EFD
:1025E0005B21036E01C05CF35D6F020E5A25E96E3C
:1025F000000E5B21EA6EECCF5FF3ED52EFCF5EF39E
:102600005FC3D8F35EC3D7F300011ADF5DC3EAFFEF
:102610005CC3E9FF02C0ECFFED5201C0EFFF060E04
:1026200003015A25016E000E5B21036E01C05CF3AD
:102630005D6F060E5A25E96E000E5B21EA6EECCF47
:102640005FF3ED52EFCF5EF35FC3D8F35EC3D7F312
:102650000001F6DE5DC3EAFF5CC3E9FF02C0ECFFE8
:10266000ED5201C0EFFF1200030E0301C76F3E0ED3
:10267000C66FC96B1C0EC86F0001B0DE79DE030E99
:1026800003015B6F3E0E5A6F000184DF03013E2D94
:1026900008D03F5306E14251060803E143510408C4
:1026A00003E0000E016E51D0445102080AE1455387
:1026B00008E13DC303F03CC3E9FF3DC3EAFFEF6A15
:1026C00016D0442D0BD0455309E13DC303F03CC364
:1026D000E9FF3DC3EAFF010EEF6E09D03CC3E9FFFD
:1026E0003DC3EAFF020EEF6E000E016E2ED01F50AA
:1026F000565D29E12050575D26E12150585D23E1C8
:102700002250595D20E13AC3E9FF3BC3EAFF030EC3
:10271000E26E460EE16E060E016EE6CFEEFF012E72
:10272000FCD7060E3A25E96E000E3B21EA6E4CC33B
:10273000EFFF4DC3ECFF4EC3ECFF4FC3ECFF010EA8
:10274000016E03D002D0000E016E00019AEF16F068
:102750001F0E0301D76F000167EC0DF001C0B9F344
:10276000000E030101B6010E000A02E1000E01D0C5
:10277000FF0E016E00011200D1C350F0070E0301DD
:10278000D2271C0ED323DB6B020EDA6F0001B3ECF1
:102790000DF0030E0301D56FD20ED46FE96ED5C3D1
:1027A000EAFFEFCFD6F3DD6BD6C3DEF3000186EC94
:1027B0000DF0030E0301D56FD20ED46F010ED42598
:1027C000E96E000ED521EA6EEFCFD6F3010EDD6F74
:1027D000D6C3DEF3000186EC0DF0030E0301D56FC6
:1027E000D20ED46FE96ED5C3EAFFEFCFD6F3020E57
:1027F000DD6FD6C3DEF3000186EC0DF0030E03019E
:10280000D56FD20ED46F010ED425E96E000ED521FE
:10281000EA6EEFCFD6F3030EDD6FD6C3DEF3000111
:1028200086EC0DF0120094928B927A0E0301E26F07
:1028300000015FEC0DF0DBC3E2F35FEC0DF094926E
:102840008B82120094928B927A0E0301E26F000148
:102850005FEC0DF00301DFC303F0DE51D8B4DF07F6
:10286000DE07031012E0DDC303F0DCC3E9FFDDC3C4
:10287000EAFFEFCFE0F3E0C3E2F300015FEC0DF01D
:102880000301DC2BD8B4DD2BE6D794928B820001B8
:1028900012000301DB6B020EDA6F0001B3EC0DF0E6
:1028A000020E0301DD6FF80EDE6F000186EC0DF005
:1028B000030E0301DD6F1B0EDE6F000186EC0DF0D1
:1028C000060E0301D8271C0ED923030EDB6FD80E8A
:1028D000DA6FE96EDBC3EAFFEFCFDCF3060EDD6FE4
:1028E000DCC3DEF3000186EC0DF0030E0301DB6FA9
:1028F000D80EDA6F010EDA25E96E000EDB21EA6EE2
:10290000EFCFDCF3070EDD6FDCC3DEF3000186ECF6
:102910000DF00301DB6B000186DFD6C3DDF3D5C309
:10292000DCF30301DF6B060EDE6F00018BDF0301BA
:10293000DB6B230EDA6FDBC3DDF3DC6FDF6B060EC0
:10294000DE6F00017FDF080E0301DB6F00016BDF2C
:102950000301D75302E1000E01D0060EDA6FDB6FE0
:10296000000161DF12001C0E0301D76F000167EC4C
:102970000DF001C0C4F3000E030101B2010E000A04
:1029800010E01F0EDF6F800EE06F0001A4EC0DF071
:102990001F0E0301DC6F800EDD6F000195EC0DF062
:1029A00003011C0EDC6F0A0EDD6F000195EC0DF0CB
:1029B0001F0E0301DF6F080EE06F0001A4EC0DF0A5
:1029C0005A500508D8A4E2D01C0E0301D76F0001AD
:1029D00067EC0DF001C0C4F3030101500A0BD8A449
:1029E00002D00001F1D71C0ED76F000167EC0DF08B
:1029F00001C0C4F3000E030101B2010E000AD8B4F5
:102A0000C6D01F0EDC6F080EDD6F000195EC0DF0D7
:102A10000301DB6BDA6B0001B3EC0DF00301D76B44
:102A2000000167EC0DF001C0B8F3010E0301D76F90
:102A3000000167EC0DF001C0B9F3060E0301D76F7A
:102A4000000167EC0DF001C0BAF3070E0301D76F68
:102A5000000167EC0DF001C0BBF30301BA2BD8B441
:102A6000BB2BDD6BBAC3DEF3000186EC0DF0010E6B
:102A70000301DD6FBBC3DEF3000186EC0DF0030E36
:102A80000301C56FBC0EC46FC5C3C7F3C66FC96B66
:102A9000070EC86F0001A2DC0301C36BC3510F080E
:102AA00067E31C0ED76F000167EC0DF001C0C4F3A3
:102AB000000E030101B2010E000A55E0BFAB53D076
:102AC0001F0EDF6F800EE06F0001A4EC0DF01F0EF3
:102AD0000301DC6F800EDD6F000195EC0DF01C0E24
:102AE0000301DC6F0A0EDD6F000195EC0DF01F0E87
:102AF0000301DF6F080EE06F0001A4EC0DF01C0E67
:102B00000301D76F000167EC0DF001C0C4F30301AE
:102B100001500A0BD8A402D00001F1D71F0EDC6FC0
:102B2000080EDD6F000195EC0DF00301DD6BBAC3FB
:102B3000DEF3000186EC0DF0010E0301DD6FBBC377
:102B4000DEF3000186EC0DF0030E0301C56FBC0E31
:102B5000C46FC5C3C7F3C66FC96B070EC86F00014A
:102B60003DDC03D0030104D000010301C32B96D741
:102B7000DD6BB8C3DEF3000186EC0DF0010E03013E
:102B8000DD6FB9C3DEF3000186EC0DF00301000137
:102B90001200010E0301B86F0001DADD01C059F324
:102BA0000301593D03D0000E016EB0D059C3D1F3DB
:102BB000D36BD26B0001E0DD03013E6B010E3D6F74
:102BC000080E406F3F6B060E416F040E426F3C2DA6
:102BD0000AD0446B010E436F4F69506951695269C5
:102BE0005369546911D0446B020E436F3AC3E1FF3D
:102BF0003BC3E2FF030EEA6E4F0EE96E060E016E56
:102C0000E6CFEEFF012EFCD7030EEA6E450EE96E0D
:102C1000E26A230EE16E060E016EE6CFEEFF012E94
:102C2000FCD722C04EF321C04DF320C04CF31FC08F
:102C30004BF3060E3A25E96E000E3B21EA6EEFCF0C
:102C400000F0ECCF01F0ECCF02F0ECCF03F000503D
:102C50004B195A6F01504C195B6F02504D195C6F44
:102C600003504E195D6F5A512914006E5B512A149E
:102C7000016E5C512B14026E5D512C14036E0052D8
:102C800006E1015204E1025202E1035209E030C0C0
:102C900058F32FC057F32EC056F32DC055F316D05E
:102CA000060E3A25E96E000E3B21EA6EEFCF00F0EA
:102CB000ECCF01F0ECCF02F0ECCF03F000C055F305
:102CC00001C056F302C057F303C058F3030E5B6F05
:102CD0003D0E5A6F00015EDC030E0301D66F4F0EEE
:102CE000D56F060ED76FD96B1C0ED86F0001D1DDE2
:102CF000030E0301DD6F3D0EDC6FDF6B1C0EDE6F1C
:102D00000001A0DD30DE010E016E03010001C6EFFF
:102D100016F0000E59B2010E000A01E02FD0030E8A
:102D200003013B6F2F0E3A6F030E3D6F390E3C6F60
:102D300000019AD4015201E130D0B8EC11F0030146
:102D400039531AE1010EEA6E160EE96E030EE26EB9
:102D50002F0EE16E060E016EE6CFEEFF012EFCD7C0
:102D600038C31FF137C31EF136C31DF135C31CF143
:102D7000000113D003D0030159820001030E0301A7
:102D80003B6F2F0E3A6F3C6B000103D7015202E0FC
:102D9000599203D0000E016E02D0010E016E94EF25
:102DA0003EF0140E572403018E6F000E58208F6FD3
:102DB00088518E258C6F89518F218D6F8D511A0806
:102DC00009E2FF0A03E18C51F70804E2F80E8C5F78
:102DD0001B0E8D5BDB6B100EDA6F0001B3EC0DF098
:102DE000100E0301DD6F8CC3DEF3000186EC0DF0E5
:102DF000110E0301DD6F8DC3DEF3000186EC0DF0D3
:102E0000010E03018A5D006E000E8B59036E0050A7
:102E10008C2703508D238D511A0809E2FF0A03E124
:102E20008C51F70804E2F80E8C5F1B0E8D5B120EBE
:102E3000DD6F8CC3DEF3000186EC0DF0130E030191
:102E4000DD6F8DC3DEF3000186EC0DF01F0E030174
:102E5000DF6F300EE06F0001A4EC0DF01F0E0301D8
:102E6000D76F000167EC0DF001C08EF3000E030177
:102E700001BA010E000AD8B402D00001EFD7160E35
:102E8000D76F000167EC0DF001C08DF3170E030141
:102E9000D76F000167EC0DF001C08CF303018CC308
:102EA00001F08DC302F000011200140E572403013B
:102EB000646F000E5820656F60516425626F615128
:102EC0006521636F63511A0809E2FF0A03E1625149
:102ED000F70804E2F80E625F1B0E635BDB6BDA6BD4
:102EE0000001B3EC0DF00301DD6B62C3DEF3000102
:102EF00086EC0DF0010E0301DD6F63C3DEF300010C
:102F000086EC0DF0020E0301DD6F62C3DEF30001FB
:102F100086EC0DF0030E0301DD6F63C3DEF30001E9
:102F200086EC0DF01200020E0301D125016E000E99
:102F3000D221036E01C0D3F3D46F020ED125E96E06
:102F4000000ED221EA6EECCFD6F3ED52EFCFD5F3DF
:102F5000D6C3D8F3D5C3D7F3000120EC12F0D4C305
:102F6000EAFFD3C3E9FF02C0ECFFED5201C0EFFF5F
:102F7000040E0301D125016E000ED221036E01C0A3
:102F8000D3F3D46F040ED125E96E000ED221EA6E80
:102F9000ECCFD6F3ED52EFCFD5F3D6C3D8F3D5C3EC
:102FA000D7F3000120EC12F0D4C3EAFFD3C3E9FF4A
:102FB00002C0ECFFED5201C0EFFF0A0E0301D12564
:102FC000016E000ED221036E01C0D3F3D46F0A0E3E
:102FD000D125E96E000ED221EA6EECCFD6F3ED5288
:102FE000EFCFD5F3D6C3D8F3D5C3D7F3000120EC88
:102FF00012F0D4C3EAFFD3C3E9FF02C0ECFFED52E5
:1030000001C0EFFF1200030E03014E6F390E4D6F2A
:103010004EC3C7F3C66FC96B140EC86F0001EEEC48
:1030200011F003013951F00B400803E0000E016E6E
:1030300058D039510F0B006E00345D6E5D36FC0EBA
:103040005D16896B886B8B6B5DC08AF30001A9DE0E
:1030500002C038F301C037F30301616B5DC060F358
:10306000000123DF03013751381103E0000E016E28
:1030700038D0030ED26F390ED16F000154DF030137
:103080002F5130110CE02FC3E9FF30C3EAFF49C3D1
:10309000EFFF4AC3ECFF4BC3ECFF4CC3ECFF060E43
:1030A0003125E96E000E3221EA6E45C3EFFF46C3BB
:1030B000ECFF47C3ECFF48C3ECFF33C3E9FF34C365
:1030C000EAFF42C3EFFF35C3E9FF36C3EAFF5D50B5
:1030D0003B5D006E000E3C5900C0EFFFEC6E010E30
:1030E000016E0001AFEF3EF00301C96BC86BC76B07
:1030F000C66BD890BD31BF6FBC31BE6FBBC3C1F3CF
:10310000BAC3C0F3BFC303F0BE51D8B4BF07BE07F4
:10311000031017E0C1C303F0C0C300F0020EC027C4
:10312000D8B0C12B00C0E9FF03C0EAFFECCF03F029
:10313000ED52EF50C6270350C723000EC823C92302
:10314000E1D7BC51010B006E036A005003100AE086
:10315000C0C3E9FFC1C3EAFFEF50C627000EC72373
:10316000C823C923C9C3C5F3C8C3C4F3C7C3C3F3C2
:10317000C6C3C2F3C5C3BFF3C4C3BEF3BE5302E1AB
:10318000BF531FE0C96BC86BCD6BCC6BC7C3CBF310
:10319000C6C3CAF3026A036ABE51C625C66FBF51D1
:1031A000C721C76F0250CC21C86F0350CD21C96F12
:1031B000C9C3C5F3C8C3C4F3C7C3C3F3C6C3C2F30B
:1031C000D9D7C7C303F0031EC651FF0A016E03C05F
:1031D00002F00001120094928B923A0E0301E26F0A
:1031E00000015FEC0DF00301E26B00015FEC0DF0FC
:1031F00001C0BCF394928B820301BCC301F00001B7
:1032000012000301B85307E1B95305E1FF0E016E47
:10321000026EA1D017D0B82D15D0B95313E100011B
:10322000DADF0301BD6B01C0BCF301C003F0000E87
:10323000006A0006001AFF0E031A00C001F003C066
:1032400002F089D0DB6BDA6B0001B3EC0DF0030107
:10325000D76B000167EC0DF001C0BAF3010E03015A
:10326000D76F000167EC0DF001C0BBF3100E030136
:10327000DD6FBAC3DEF3000186EC0DF0110E030121
:10328000DD6FBBC3DEF3000186EC0DF00301BB5123
:103290001B081BE303E1BA51F70817E3010EB85D01
:1032A000006E000EB959036E0050BA270350BB23BD
:1032B000BB511A0809E2FF0A03E1BA51F70804E218
:1032C000F80EBA5F1B0EBB5B0AD0010EB85D006E34
:1032D000000EB959036E0050BA270350BB23120EDB
:1032E000DD6FBAC3DEF3000186EC0DF0130E0301AF
:1032F000DD6FBBC3DEF3000186EC0DF01F0E030192
:10330000DF6F300EE06F0001A4EC0DF01F0E030123
:10331000D76F000167EC0DF001C0BCF3000E030194
:1033200001BA010E000AD8B402D00001EFD7160E80
:10333000D76F000167EC0DF001C0BAF3170E03015F
:10334000D76F000167EC0DF001C0BBF30301BAC3F6
:1033500001F0BBC302F0000112005D5003015C25C7
:103360005E6F000E5D215F6F616F5EC360F30001F1
:103370009CDD1200C3C3C4F3C2C3C5F3C1C3C6F30B
:10338000C0C3C7F3C4C300F0C5C301F0C6C302F095
:10339000C7C303F012000301B8C301F0B9C303F0BF
:1033A000B8C3BAF3B9C3BBF3B8C3E9FFB9C3EAFF03
:1033B000ECCFBDF3ED52EFCFBCF3BDC3D8F3BCC32C
:1033C000D7F3000120EC12F0BBC3EAFFBAC3E9FF58
:1033D00002C0ECFFED5201C0EFFF020E0301B82561
:1033E000016E000EB921036E01C0BAF3BB6F020E6D
:1033F000B825E96E000EB921EA6EECCFBDF3ED52AF
:10340000EFCFBCF3BDC3D8F3BCC3D7F3000120ECAE
:1034100012F0BBC3EAFFBAC3E9FF02C0ECFFED52F2
:1034200001C0EFFF040E0301B825016E000EB921A3
:10343000036E01C0BAF3BB6F040EB825E96E000E2F
:10344000B921EA6EEFCFBCF3ECCFBDF3ECCFBEF306
:10345000ECCFBFF3BFC3C3F3BEC3C2F3BDC3C1F35D
:10346000BCC3C0F3000186DFBBC3EAFFBAC3E9FFF8
:1034700000C0EFFF01C0ECFF02C0ECFF03C0ECFF97
:10348000080E0301B825016E000EB921036E01C0BC
:10349000BAF3BB6F080EB825E96E000EB921EA6ECB
:1034A000EFCFBCF3ECCFBDF3ECCFBEF3ECCFBFF36B
:1034B000BFC3C3F3BEC3C2F3BDC3C1F3BCC3C0F338
:1034C000000158DFBBC3EAFFBAC3E9FF00C0EFFF4A
:1034D00001C0ECFF02C0ECFF03C0ECFF0E0E0301C5
:1034E000B825016E000EB921036E01C0BAF3BB6F9F
:1034F0000E0EB825E96E000EB921EA6EECCFBDF3D1
:10350000ED52EFCFBCF3BDC3D8F3BCC3D7F300017A
:1035100020EC12F0BBC3EAFFBAC3E9FF02C0ECFF24
:10352000ED5201C0EFFF100E0301B825016E000E31
:10353000B921036E01C0BAF3BB6F100EB825E96E56
:10354000000EB921EA6EECCFBDF3ED52EFCFBCF324
:10355000BDC3D8F3BCC3D7F3000120EC12F0BBC34A
:10356000EAFFBAC3E9FF02C0ECFFED5201C0EFFF72
:10357000120E0301B825016E000EB921036E01C0C1
:10358000BAF3BB6F120EB825E96E000EB921EA6ED0
:10359000ECCFBDF3ED52EFCFBCF3BDC3D8F3BCC34A
:1035A000D7F3000120EC12F0BBC3EAFFBAC3E9FF76
:1035B00002C0ECFFED5201C0EFFF1200FE0E03014E
:1035C000626F616B61510408D8A07AD06151240DFB
:1035D000F350036A600F016E000E032201C05FF317
:1035E00003C060F35FC3E9FF60C3EAFFEF500A085E
:1035F00065E00B0E5F25E96E000E6021EA6EECCFF0
:1036000064F3ED52EFCF63F3020E5B25E96E000E1B
:103610005C21EA6EECCF03F0ED52EF50635D4EE1BA
:103620000350645D4BE15FC3E9FF60C3EAFFEF5203
:1036300002E161C362F30D0E5F25E96E000E6021A9
:10364000EA6EECCF64F3ED52EFCF63F35BC3E9FFB7
:103650005CC3EAFFECCF03F0ED52EF50635D2EE167
:103660000350645D2BE1070E5F25E96E000E6021BB
:10367000EA6EEFCF63F3ECCF64F3ECCF65F3ECCFFE
:1036800066F3060E5D25E96E000E5E21EA6EEFCF51
:1036900000F0ECCF01F0ECCF02F0ECCF03F00050E3
:1036A000635D0CE10150645D09E10250655D06E176
:1036B0000350665D03E161C301F06ED0612B82D7D8
:1036C0006251FE0803E1FE0E016E66D06251240DC8
:1036D000F350036A600F016E000E032201C05FF316
:1036E00003C060F3010E5F25016E000E6021036EC2
:1036F00001C063F3646FEA6E01C0E9FF5EC3E2FFDD
:103700005DC3E1FF0A0E016EE6CFEEFF012EFCD78E
:103710000D0E5F25016E000E60215BC3E9FF5CC3E7
:10372000EAFFECCF03F0ED52EFCF65F3EA6E01C094
:10373000E9FF03C0ECFFED5265C3EFFF230E5F25E9
:10374000E96E000E6021EA6EEF960F0E5F25E96EBE
:10375000000E6021EA6EEF3C01D015D00F0E5F2500
:10376000E96E000E6021EA6EEFCF63F363C37CF372
:10377000000102EC00F00F0E03015F25E96E000E60
:103780006021EA6EEF68230E5F25E96E000E60216E
:10379000EA6EEF8262C301F00001E2EF24F0F29AD8
:1037A00052C07CF351C07BF3F28A03017BC301F06A
:1037B0007CC302F0000112000F0E03017925E96EAF
:1037C000000E7A21EA6EEF3C01D01CD00F0E792555
:1037D000E96E000E7A21EA6EEFCF7BF37BC37CF3B8
:1037E000000102EC00F00F0E03017925E96E000ED6
:1037F0007A21EA6EEF68230E7925E96E000E7A21B0
:10380000EA6EEF82070E7925E96E000E7A21EA6EE4
:10381000EE52EE52EC6AED52EF6AED52EF6AED5263
:10382000EF6A0D0E7925E96E000E7A21EA6EEC6AD8
:10383000ED52EF6A230E7925E96E000E7A21EA6EC9
:10384000EFA604D00001B8EC11F00301230E792596
:10385000E96E000E7A21EA6EEF96210E7925E96E67
:10386000000E7A21EA6EEC6AED521E0EEF6E230E08
:103870007925E96E000E7A21EA6EEF98230E7925FC
:10388000E96E000E7A21EA6EEFA006D079C3E9FF57
:103890007AC3EAFFEF6A06D079C3E9FF7AC3EAFF89
:1038A0000A0EEF6E100E7925E96E000E7A21EA6E8F
:1038B000EC6AED52EF6A000112001F0E0301D76F90
:1038C000000167EC0DF001C0B9F3000E030101B671
:1038D000010E000A02E0000E01D0010E016E00018F
:1038E0001200010E0301DB6F190EDA6F0001B3EC59
:1038F0000DF0190E0301D76F000167EC0DF001C048
:10390000B8F30301DB6B0E0EDA6F0001B3EC0DF0C0
:103910000E0E0301D76F000167EC0DF001C0BAF382
:103920000F0E0301D76F000167EC0DF001C0BBF370
:10393000010E0301DB6F190EDA6F0001B3EC0DF01D
:10394000190E0301D76F000167EC0DF001C0BCF345
:103950000301B851015CD8B402D00001CAD7DB6BB7
:103960000C0EDA6F0001B3EC0DF00C0E0301D76FF3
:10397000000167EC0DF001C0B8F30D0E0301D76F25
:10398000000167EC0DF001C0B9F30301B951BB5D53
:1039900016E303E1BA51B85D12E2B851BA5D006EA8
:1039A000B951BB59036E0050FF0AF80F006E1B0E91
:1039B000035600C001F003C002F01CD01BD0B85168
:1039C000BA5D09E1B951BB5D06E1F70E016E1B0E50
:1039D000026E10D00FD0BA51B85DBC6FBB51B9594F
:1039E000BD6F010EBC5D006E000EBD59036E00C0C0
:1039F00001F0026E000139EF1EF0060E0301D12521
:103A0000D76F1C0ED221D86F010ED725D56F000EAF
:103A1000D821D66FDB6B100EDA6F0001B3EC0DF01E
:103A2000100E0301DD6FD5C3DEF3000186EC0DF04F
:103A3000110E0301DD6FD6C3DEF3000186EC0DF03D
:103A4000010E0301D35D006E000ED459036E0050C9
:103A5000D5270350D623120EDD6FD5C3DEF3000148
:103A600086EC0DF0130E0301DD6FD6C3DEF300010B
:103A700086EC0DF01F0E0301DF6F300EE06F0001CA
:103A8000A4EC0DF01F0E0301D76F000167EC0DF0E1
:103A900001C0D7F3000E030101BA010E000AD8B429
:103AA00002D00001EFD7160ED76F000167EC0DF0C2
:103AB00001C0D6F3170E0301D76F000167EC0DF0BC
:103AC00001C0D5F30301D5C301F0D6C302F0000154
:103AD0001200140E5D6E450E0301BD6FBE6B140E19
:103AE000BB25BF6F000EBC21C06F5B2AD8B45C2A17
:103AF0005CC0C2F35BC0C1F3C46BC36B640EC56F23
:103B0000BAC3C6F3C86BC76B22C0CCF321C0CBF3DA
:103B100020C0CAF31FC0C9F3060EB825E96E000E17
:103B2000B921EA6EEFCFCDF3ECCFCEF3ECCFCFF3EC
:103B3000ECCFD0F3030ED26FBD0ED16F000193EC2A
:103B400017F00301B8C301F0B9C303F0B8C3D1F350
:103B5000B9C3D2F3140EBB25D36F000EBC21D46FB2
:103B6000B9C3D6F3B8C3D5F3D76BD96FD3C3D8F3E2
:103B7000000149EC14F0030E0301D26FBD0ED16FAA
:103B8000D2C3DDF3DC6FDF6B140EDE6F000122ECBD
:103B900014F00301D26BD16BD46B140ED36F000100
:103BA0002CDF02C0C8F301C0C7F350C0D1F303013A
:103BB000D36B0A0ED26F0001BCEC13F0030E0301AD
:103BC000D26FC70ED16FD2C3DDF3DC6FDF6B020E95
:103BD000DE6F000122EC14F050C0D1F30301D36B6F
:103BE000140ED26F0001BCEC13F0000E016E026ED9
:103BF0001200010E0301B86F00015FDE0152F9E00F
:103C000003018F3D08D0010EB86F0001A8EC13F03E
:103C100001C08FF303018F3D01D003D18FC3D1F3D6
:103C2000D36B140ED26F0001BCEC13F083C395F379
:103C300082C394F385C397F384C396F389C39BF33C
:103C400088C39AF387C399F386C398F38DC39FF310
:103C50008CC39EF38BC39DF38AC39CF33F0E030179
:103C6000A115A16FF00EA015A06F8EC3A1F30001E6
:103C700038D602C0A3F301C0A2F30301A35303E1AA
:103C8000A251280805E2280EA25F000EA35B02D015
:103C9000A36BA26BA56BA46BA76BA66B030EB96F8E
:103CA000940EB86F0001CBEC19F0140E03019027AD
:103CB000000E91238EA30FD0040E9027000E9123A7
:103CC000020EA86F040EA96FAA6FAB6B0F0EA015A2
:103CD0006009A06F04D00F0EA0155009A06F22C07C
:103CE000AFF321C0AEF320C0ADF31FC0ACF3060E9E
:103CF0008025E96E000E8121EA6EEFCF00F0ECCF57
:103D000001F0ECCF02F0ECCF03F000C0B0F301C043
:103D1000B1F302C0B2F303C0B3F3B46B060EB56FD8
:103D200091C3B7F390C3B6F3B7C3D8F3B6C3D7F311
:103D3000000120EC12F002C0B7F301C0B6F3030E8D
:103D40000301B96FAC0EB86FB9C3BBF3BA6FBD6BEB
:103D50000C0EBC6F000174EC18F001C0A4F3030159
:103D6000A41F02C0A5F3A51FA5C393F3A4C392F398
:103D700081C3B9F380C3B8F3060EBA6F91C3BCF325
:103D800090C3BBF30001A5DE030E0301B96F940ECF
:103D9000B86FB9C3DDF3DC6FDF6B140EDE6F0001AB
:103DA00022EC14F003018EA30ED0030EB96FA80EFF
:103DB000B86FB9C3DDF3DC6FDF6B040EDE6F00019B
:103DC00022EC14F003018FC3D1F3D36B140ED26F26
:103DD0000001BCEC13F091C3B9F390C3B8F301EC4C
:103DE00019F002C093F301C092F38FC3D1F3030122
:103DF000D36B240ED26F0001BCEC13F093C3DBF342
:103E000013EC14F092C3DBF313EC14F08FC3D1F373
:103E10000301D36BD26B0001BCEC13F0B3EC14F0D4
:103E200003010001120003015B51240DF350036AEA
:103E3000600F016E000E032201C072F303C073F322
:103E4000746B1E0E7225E96E000E7321EA6EEF6A26
:103E50001F0E7225016E000E7321036E01C079F3EF
:103E60007A6F00019CDC7AC3EAFF79C3E9FF02C0E4
:103E7000ECFFED5201C0EFFF210E03017225E96E48
:103E8000000E7321EA6EEC6AED521E0EEF6E0D0EFF
:103E90005E25E96E000E5F21EA6EEFA41ED00001E0
:103EA000B8EC11F0030172C301F073C303F072C3E5
:103EB00079F373C37AF3230E7225E96E000E732132
:103EC000EA6EEFA002D0000E01D0010E7AC3EAFF25
:103ED00079C3E9FFEF6E28EF24F0160E7225E96E24
:103EE000000E7321EA6EEFCF66F3ECCF67F3ECCFF1
:103EF00068F3ECCF69F30E0E5E25E96E000E5F21CC
:103F0000EA6EECCF03F0ED52EFCF79F303C07AF312
:103F10007B6B7C6B080E5E25E96E000E5F21EA6EFE
:103F2000EFCF00F0ECCF01F0ECCF02F0ECCF03F0DC
:103F30000050665D006E01506759016E025068596D
:103F4000026E03506959036E0050795F01507A5B2D
:103F500002507B5B03507C5B100E7225E96E000EF5
:103F60007321EA6EECCF03F0ED52EFCF00F003C007
:103F700001F0026A036A0050795D756F01507A5949
:103F8000766F02507B59776F03507C59786F78AF0A
:103F90000AD0140E7225E96E000E7321EA6EEC6AE7
:103FA000ED52EF6A0AD0140E7225E96E000E7321ED
:103FB000EA6E62C3EFFF63C3ECFF72C3E9FF73C332
:103FC000EAFFEF2CB5D00D0E5E25E96E000E5F21E5
:103FD000EA6EEFB212D00001B8EC11F00D0E030141
:103FE0005E25E96E000E5F21EA6EEFA804D0040E94
:103FF000746FEDEF23F028EF24F01A0E7225016E96
:10400000000E732101C079F37A6F040E5E25E96E0C
:10401000000E5F21EA6EEFCF7BF3ECCF7CF3ECCFA9
:104020007DF3ECCF7EF360517B2761517C23000E42
:104030007D237E23010E7B25006E000E7C21016E08
:10404000000E7D21026E000E7E217AC3EAFF79C345
:10405000E9FF00C0EFFF01C0ECFF02C0ECFFEC6E17
:104060001A0E7225E96E000E7321EA6EEFCF62F32D
:10407000ECCF63F3ECCF64F3ECCF65F30D0E5E256C
:10408000E96E000E5F21EA6EEFB80DD072C3E9FF52
:1040900073C3EAFF020EEF6E0001B8EC11F0120ECE
:1040A0000301746F9AD372C3E9FF73C3EAFF030E6F
:1040B000EF6E100E746F140E7225016E000E7321D8
:1040C000036E7A6F0E0E5E25E96E000E5F21EA6EBA
:1040D000ECCF03F0ED52EFCF7BF37AC3EAFF01C0E0
:1040E000E9FF03C0ECFFED527BC3EFFF60516111AC
:1040F0001AE0230E7225E96E000E7321EA6EEF8638
:10410000120E7225E96E000E7321EA6E61C3ECFF98
:10411000ED5260C3EFFF230E7225E96E000E73218E
:10412000EA6EEF8404D00001B8EC11F0030155D31E
:1041300072C3E9FF73C3EAFFEF52D8A4BFD00001F6
:10414000B8EC11F00D0E03015E25E96E000E5F2143
:10415000EA6EEFB203D0040E746F3FD31A0E7225CD
:10416000016E000E732101C079F37A6F040E5E2593
:10417000E96E000E5F21EA6EEFCF7BF3ECCF7CF3AC
:10418000ECCF7DF3ECCF7EF360517B2761517C2334
:10419000000E7D237E23010E7B25006E000E7C2108
:1041A000016E000E7D21026E000E7E217AC3EAFFB1
:1041B00079C3E9FF00C0EFFF01C0ECFF02C0ECFFD4
:1041C000EC6E140E7225016E000E7321036E7A6F71
:1041D0000E0E5E25E96E000E5F21EA6EECCF03F055
:1041E000ED52EFCF7BF37AC3EAFF01C0E9FF03C0D2
:1041F000ECFFED527BC3EFFF010E7225016E000E46
:104200007321036E01C079F37A6FEA6E01C0E9FF92
:104210005DC3E2FF5CC3E1FF0A0E016EE6CFEEFF75
:10422000012EFCD70D0E7225016E000E73215EC3A8
:10423000E9FF5FC3EAFFECCF03F0ED52EFCF7BF372
:10424000EA6E01C0E9FF03C0ECFFED527BC3EFFF54
:1042500072C3E9FF73C3EAFF020EEF6E160E7225FA
:10426000E96E000E7321EA6EEE52EE52EE52EDCF81
:1042700003F0EDCF02F0EDCF01F0EFCF00F0010E33
:10428000EE26000EEE22EE22ED2203C069F302C0FC
:1042900068F301C067F300C066F31A0E7225E96E79
:1042A000000E7321EA6EEFCF62F3ECCF63F3ECCF35
:1042B00064F3ECCF65F3120E746F8FD21A0E722571
:1042C000E96E000E7321EA6EEFCF6AF3ECCF6BF369
:1042D000ECCF6CF3ECCF6DF3160E7225E96E000E89
:1042E0007321EA6EEFCF6EF3ECCF6FF3ECCF70F388
:1042F000ECCF71F3040E5E25E96E000E5F21EA6ECD
:10430000EFCF62F3ECCF63F3ECCF64F3ECCF65F364
:10431000026A036A60516227615163230250642379
:1043200003506523160E7225E96E000E7321EA6EA6
:10433000EFCF66F3ECCF67F3ECCF68F3ECCF69F324
:10434000040E5E25E96E000E5F21EA6EEFCF79F371
:10435000ECCF7AF3ECCF7BF3ECCF7CF36A51795D51
:10436000D8A42DD26B517A5DD8A429D26C517B5D33
:10437000D8A425D26D517C5DD8A421D272C3E9FFA7
:1043800073C3EAFFEF50020843E10D0E5E25E96EAC
:10439000000E5F21EA6EEFA836D01A0E7225E96E84
:1043A000000E7321EA6E62C3EFFF63C3ECFF64C3C8
:1043B000ECFF65C3ECFF72C3E9FF73C3EAFF030EB2
:1043C000EF6E605161111AE0230E7225E96E000E46
:1043D0007321EA6EEF86120E7225E96E000E7321CC
:1043E000EA6E61C3ECFFED5260C3EFFF230E72254E
:1043F000E96E000E7321EA6EEF8404D00001B8EC80
:1044000011F0030104D00001B8EC11F00301D6D182
:104410001A0E7225E96E000E7321EA6E62C3EFFF79
:1044200063C3ECFF64C3ECFF65C3ECFF72C3E9FF39
:1044300073C3EAFFEF500308D8A4D9D00D0E5E2550
:10444000E96E000E5F21EA6EEFA82DD0230E7225D3
:10445000E96E000E7321EA6EEFB225D00F0E7225C1
:10446000E96E000E7321EA6EEF3C01D01CD00F0EF6
:104470007225E96E000E7321EA6EEFCF79F379C3EE
:104480007CF3000102EC00F00F0E03017225E96ECF
:10449000000E7321EA6EEF68230E7225E96E000E9E
:1044A0007321EA6EEF820D0E5E25E96E000E5F212C
:1044B000EA6EEFA050D0110E746F160E7225E96EE1
:1044C000000E7321EA6EEE52EE52EE52EDCF03F083
:1044D000EDCF02F0EDCF01F0EFCF00F0010EEE26B0
:1044E000000EEE22EE22ED2203C069F302C068F353
:1044F00001C067F300C066F31A0E7225E96E000E64
:104500007321EA6E010EEF24006E000EEC20016EA6
:10451000000EEC20026E000EEC20ED52ED52ED523A
:1045200000C0EFFF01C0ECFF02C0ECFFEC6E1A0E02
:104530007225E96E000E7321EA6EEFCF62F3ECCFC5
:1045400063F3ECCF64F3ECCF65F372C3E9FF73C39D
:10455000EAFF090EEF6E6051611144E0230E7225EF
:10456000E96E000E7321EA6EEFB61BD0230E7225A2
:10457000E96E000E7321EA6EEF86120E7225E96E67
:10458000000E7321EA6E61C3ECFFED5260C3EFFFD2
:10459000230E7225E96E000E7321EA6EEF84748992
:1045A00020D0160E7225E96E000E7321EA6E6EC3DE
:1045B000EFFF6FC3ECFF70C3ECFF71C3ECFF1A0E8B
:1045C0007225E96E000E7321EA6E6AC3EFFF6BC3BA
:1045D000ECFF6CC3ECFF6DC3ECFF0001B8EC11F015
:1045E000030104D00001B8EC11F00301E7D072C35D
:1045F000E9FF73C3EAFFEF50090815E10001B8ECC9
:1046000011F00D0E03015E25E96E000E5F21EA6ECA
:10461000EFA808D073C37AF372C379F30001DCEC1E
:104620001BF00301CBD072C3E9FF73C3EAFFEF5065
:10463000040862E10001B8EC11F00D0E03015E25E3
:10464000E96E000E5F21EA6EEFA045D0100E746F88
:104650001A0E7225E96E000E7321EA6E010EEF2428
:10466000006E000EEC20016E000EEC20026E000EBB
:10467000EC20ED52ED52ED5200C0EFFF01C0ECFF17
:1046800002C0ECFFEC6E1A0E7225E96E000E73216B
:10469000EA6EEFCF62F3ECCF63F3ECCF64F3ECCFD1
:1046A00065F30D0E5E25E96E000E5F21EA6EEFA840
:1046B00009D073C37AF372C379F30001DCEC1BF009
:1046C00008D0030172C3E9FF73C3EAFF060EEF6E61
:1046D000000110D003010D0E5E25E96E000E5F2172
:1046E000EA6EEFA806D072C3E9FF73C3EAFF050EB6
:1046F000EF6E000162D0030172C3E9FF73C3EAFFEA
:10470000EF50050840E10001B8EC11F00D0E030177
:104710005E25E96E000E5F21EA6EEFA033D0100E29
:10472000746F1A0E7225E96E000E7321EA6E010E87
:10473000EF24006E000EEC20016E000EEC20026EE5
:10474000000EEC20ED52ED52ED5200C0EFFF01C023
:10475000ECFF02C0ECFFEC6E1A0E7225E96E000E43
:104760007321EA6EEFCF62F3ECCF63F3ECCF64F327
:10477000ECCF65F373C37AF372C379F30001DCEC19
:104780001BF003011BD072C3E9FF73C3EAFFEF50B4
:10479000060814E10001B8EC11F00D0E03015E25CE
:1047A000E96E000E5F21EA6EEFA808D073C37AF3BA
:1047B00072C379F30001DCEC1BF003010ED00001A1
:1047C000B8EC11F0100E0301746F6DC365F36CC388
:1047D00064F36BC363F36AC362F3745339E0020E8C
:1047E0005E25E96E000E5F21EA6EECCF7AF3ED52A2
:1047F000EFCF79F35EC3E9FF5FC3EAFFECCF7CF351
:10480000ED52EFCF7BF35DC381F35CC380F37AC3DA
:1048100083F379C382F37CC385F37BC384F369C3D9
:1048200089F368C388F367C387F366C386F365C3F8
:104830008DF364C38CF363C38BF362C38AF374C3D5
:104840008EF38F69916B906B0001F9EC1DF0030101
:104850000001F9EF24F0060E03012F25E96E000E8A
:104860003021EA6EEFCF00F0ECCF01F0ECCF02F098
:10487000ECCF03F000C049F301C04AF302C04BF390
:1048800003C04CF331C3E9FF32C3EAFFEFCF00F0BE
:10489000ECCF01F0ECCF02F0ECCF03F000C04DF311
:1048A00001C04EF302C04FF303C050F3516B060E2C
:1048B000526F34C354F333C353F354C3D8F353C3C5
:1048C000D7F3000120EC12F002C054F301C053F3FF
:1048D000030E03015C6F490E5B6F5CC3BBF3BA6FE1
:1048E000BD6B0C0EBC6F000174EC18F001C056F3E8
:1048F0000301561F02C057F3571F34C3B9F333C324
:10490000B8F3000101EC19F002C059F301C058F3EB
:1049100003015951565D03E15851575D07E000010D
:10492000B8EC11F0010E016E6BD003015D6B5C6B96
:104930000001ADEC19F0030E03015C6F350E5B6FE7
:104940005CC3C7F3C66FC96B140EC86F0001EEECF1
:1049500011F0030E0301B96F350EB86F0001CBECF7
:1049600019F0030141390F0B006E00360036FC0EC2
:1049700000160050EC0F5A6F5A51335D5B6F000EFA
:1049800034595C6F140E5B5D336F000E5C59346FED
:1049900041390F0B006E00345B6F5B37FC0E5B1709
:1049A0005D6B5BC35CF30001ADEC19F0030E03011A
:1049B0005C6F350E5B6F30C35EF32FC35DF3000198
:1049C000DEEF1AF001C055F303015551FE0813E064
:1049D00055C35BF330C35DF32FC35CF3030E5F6F0E
:1049E000350E5E6F34C361F333C360F3000113EF20
:1049F0001FF004D003010001B8EC11F0010E016EAC
:104A0000DFEF3EF0040E03018725016E000E8821C2
:104A1000036E01C089F38A6F040E8725E96E000ECC
:104A20008821EA6EECCF8CF3ED52EFCF8BF38CC381
:104A3000D8F38BC3D7F3000120EC12F08AC3EAFF4E
:104A400089C3E9FF02C0ECFFED5201C0EFFF060E83
:104A500003018725016E000E8821036E01C089F3D2
:104A60008A6F060E8725E96E000E8821EA6EECCF6C
:104A70008CF3ED52EFCF8BF38CC3D8F38BC3D7F30A
:104A8000000120EC12F08AC3EAFF89C3E9FF02C0EB
:104A9000ECFFED5201C0EFFF020E03018725016E0E
:104AA000000E8821036E01C089F38A6F020E8725EC
:104AB000E96E000E8821EA6EECCF8CF3ED52EFCF59
:104AC0008BF38CC3D8F38BC3D7F3000120EC12F027
:104AD0008AC3EAFF89C3E9FF02C0ECFFED5201C0BF
:104AE000EFFF1200030E0301886F3B0E876F88C330
:104AF000C7F3C66FC96B080EC86F0001EEEC11F06A
:104B00000301866B856B36C303F035C3E9FF36C3FB
:104B1000EAFFEFCF87F3896B140E886F8B6B87C327
:104B20008AF30001D1EC16F002C084F301C083F3D4
:104B3000030135C3E9FF36C3EAFF080EEF5CEF6EF1
:104B400036C303F035C3E9FF36C3EAFFEFCF87F37F
:104B500034C3C7F333C3C6F3C96B87C3C8F30001BB
:104B6000EEEC11F0030E0301886F3B0E876F00011E
:104B700049DF030131C3E9FF32C3EAFF3BC3EFFF63
:104B800037C3E9FF38C3EAFF40C3ECFFED523FC330
:104B9000EFFF39C3E9FF3AC3EAFF42C3ECFFED522E
:104BA00041C3EFFF8551835D03E18651845D02E0DF
:104BB000000E01D0010E016E000109EF3FF0010E61
:104BC0000301B86F0001A8EC13F001C083F30301E7
:104BD000833D01D07CD083C3D1F3D36B140ED26F4D
:104BE0000001BCEC13F0036A03013451080F816F1C
:104BF000000E0320826F3A6B31C339F33C6B3B6B81
:104C000036C33EF335C33DF338C340F337C33FF3F8
:104C1000030EEA6E410EE96E33C3E2FF32C3E1FFD9
:104C20003451016E04E0E6CFEEFF012EFCD7030EF7
:104C3000886F390E876F0001E5DE080E0301342509
:104C4000856B846F30C3B9F32FC3B8F3010EBA6F0D
:104C500085C3BCF384C3BBF3000169EC1DF0030EF4
:104C60000301856F390E846F85C3DDF3DC6F82C36A
:104C7000DFF381C3DEF3000122EC14F00301D26BF9
:104C8000140ED16F82C3D4F381C3D3F30001FDECC2
:104C90001CF002C03CF301C03BF383C3D1F303011A
:104CA000D36B160ED26F0001BCEC13F0030E0301A0
:104CB000856F3B0E846F85C3DDF3DC6FDF6B020E07
:104CC000DE6F000122EC14F0B3EC14F003010001DC
:104CD00038EF3FF003013A6B2F6B2F510408D8A037
:104CE00035D22F51240DF350036A600F016E000E70
:104CF000032201C034F303C035F3230E3425E96EDB
:104D0000000E3521EA6EEFB608D0230E3425E96E89
:104D1000000E3521EA6EEFA801D016D234C3E9FFA8
:104D200035C3EAFFEF500A0810E034C3E9FF35C38A
:104D3000EAFFEF520BE1230E3425E96E000E352118
:104D4000EA6EEF50010B010801E1FED134C3E9FF27
:104D500035C3EAFFEF5003080BE1230E3425E96E5B
:104D6000000E3521EA6EEF50010B010801E1ECD194
:104D70000001CFEC1BF002C033F301C032F31F0E71
:104D800003013425E96E000E3521EA6EECCF03F005
:104D9000ED52EFCF01F03351035C04E305E1015024
:104DA000325D02E3000E01D0010E036A03101BE026
:104DB0001F0E3425E96E000E3521EA6EECCF03F0AC
:104DC000ED52EF50FF083B6FFF0E03543C6F325122
:104DD0003B2733513C23010E3B25016E000E3C2145
:104DE000036E015010D01F0E3425E96E000E3521E0
:104DF000EA6EECCF03F0ED52EF50325D006E0350DF
:104E00003359036E0050306F03C031F3210E342547
:104E1000E96E000E3521EA6EECCF03F0ED52EFCFD4
:104E200001F03151035C05E303E13051015C01E322
:104E30008BD1010EB86F00015DEC1CF0015201E155
:104E400085D11F0E03013425016E000E3521036E3E
:104E500001C03BF33C6F0001CFEC1BF03CC3EAFF09
:104E60003BC3E9FF02C0ECFFED5201C0EFFF210E92
:104E700003013425E96E000E3521EA6ED890EF3437
:104E8000026EEC34036E0250ED52EF6E03C0ECFF85
:104E90001E0E3425E96E000E3521EA6EEF2A34C36A
:104EA000E9FF35C3EAFF010EEF5CF70FD8B0C7D0BA
:104EB000090F0001A9EF28F0020E03013A6FBFD0DD
:104EC0001E0E03013425E96E000E3521EA6EEF5007
:104ED000030803E3120E3A6F16D0230E3425E96E51
:104EE000000E3521EA6EEFA006D034C3E9FF35C3CA
:104EF000EAFFEF6A08D0020E3A6F34C3E9FF35C308
:104F0000EAFF010EEF6E9BD01E0E03013425E96E01
:104F1000000E3521EA6EEF50030821E30F0E342511
:104F2000E96E000E3521EA6EEF3C01D013D00F0E72
:104F30003425E96E000E3521EA6EEFCF3BF33BC31B
:104F4000D1F3D36BD26B0001BCEC13F0B3EC14F0D3
:104F500004D00301100E3A6F000128D003010F0E98
:104F60003425E96E000E3521EA6EEF3C01D015D0F4
:104F70000F0E3425E96E000E3521EA6EEFCF3BF3BC
:104F80003BC37CF3000102EC00F00F0E030134255B
:104F9000E96E000E3521EA6EEF68110E3A6F34C3E8
:104FA000E9FF35C3EAFF040EEF6E0001030147D0AD
:104FB0001E0E03013425E96E000E3521EA6EEF5016
:104FC000030803E3010E3A6F08D035C37AF334C304
:104FD00079F30001DCEC1BF0030131D035C37AF327
:104FE00034C379F3DCEC1BF0030129D035C37AF329
:104FF00034C379F3DCEC1BF0030121D0010E030173
:105000003A6F34C3E9FF35C3EAFF090EEF6E17D0DC
:105010001E0E03013425E96E000E3521EA6EEF50B5
:10502000030803E3010E3A6F08D035C37AF334C3A3
:1050300079F30001DCEC1BF0030101D003013A53CA
:10504000D8B482D03AA90FD0160E3425E96E000EDE
:105050003521EA6EEFCF36F3ECCF37F3ECCF38F3F0
:10506000ECCF39F31FD0160E3425E96E000E352132
:10507000EA6EEE52EE52EE52EDCF03F0EDCF02F0BB
:10508000EDCF01F0EFCF00F0010EEE26000EEE2284
:10509000EE22ED2203C039F302C038F301C037F32A
:1050A00000C036F3010E3425016E000E3521036E6B
:1050B00001C03BF33C6F0B0E3425E96E000E352129
:1050C000EA6EECCF3EF3ED52EFCF3DF30D0E3425FB
:1050D000E96E000E3521EA6EECCF40F3ED52EFCFD2
:1050E0003FF31A0E3425E96E000E3521EA6EEFCF3C
:1050F00041F3ECCF42F3ECCF43F3ECCF44F303C0E6
:1051000081F301C080F33EC383F33DC382F340C308
:1051100085F33FC384F339C389F338C388F337C3B6
:1051200087F336C386F344C38DF343C38CF342C382
:105130008BF341C38AF33AC38EF38F69916B906B03
:105140000001F9EC1DF003012F2BC7D5000144EF3E
:105150003FF0F2CF0DF0F29CF29EE824F76AF736AA
:10516000830FF66E510EF722000EF86EFB6E0A00EA
:10517000F550FA6E0800F5500DBCF28C0DBEF28EA3
:10518000F96EB84EC04E084FB04FDC4FDC4FEC4FBD
:10519000FC4F105003013751240DF350396B386F19
:1051A000600E3825E96E000E3921EA6EEF500308D3
:1051B00002E0000E01D0010E016E00011200030199
:1051C0003751240DF350396B386F230E3827000EFA
:1051D0003923600E3825E96E000E3921EA6E000E83
:1051E000EFB6010E016E0001120003013751240DCC
:1051F000F350036A600F016E000E032201C03AF300
:1052000003C03BF3230E3A25E96E000E3B21EA6E04
:10521000EFA651D0230E3A25E96E000E3B21EA6E2F
:10522000EFA40ED05D6B140E5C6F0001ADEC19F0B5
:10523000230E03013A25E96E000E3B21EA6EEF943E
:10524000120E3A25E96E000E3B21EA6EECCF3DF3DB
:10525000ED52EFCF3CF33C5310E13D530EE1000122
:10526000B8EC11F0230E03013A25E96E000E3B2144
:10527000EA6EEF96000E016E20D0120E3A25E96E0E
:10528000000E3B21EA6EFF0EEF2602E2EE52ED0623
:1052900039C303F038C33CF339C33DF30001EBECF1
:1052A00018F03DC3EAFF3CC3E9FF01C0EFFF010E68
:1052B000016E030102D0000E016E0001120044C312
:1052C00048F343C347F348C303F0030147C3E9FF6F
:1052D00048C3EAFFEF5230E046C34AF345C349F3FF
:1052E0004AC303F049C3E9FF4AC3EAFFEF520AE1A8
:1052F0004351475D006E44514859036E00C001F0B0
:1053000023D010D047C3E9FF48C3EAFFEFCF4BF3E8
:105310004AC303F049C3E9FF4AC3EAFFEF504B5DBC
:1053200001E104D0492BD8B44A2BDAD7472BD8B4A3
:10533000482B0001C8D703014351475D006E44511B
:105340004859036E00C001F00001FCEF29F044C38E
:1053500048F343C347F348C303F0030147C3E9FFDE
:1053600048C3EAFFEF522AE046C34AF345C349F374
:105370004AC303F049C3E9FF4AC3EAFFEF5218E00A
:1053800047C3E9FF48C3EAFFEFCF4BF34AC303F03B
:1053900049C3E9FF4AC3EAFFEF504B5D05E147C34C
:1053A00001F048C302F00DD0492BD8B44A2BE0D706
:1053B000472BD8B4482B0001CED70301000E016E55
:1053C000026E00011DEF2AF003013B513C1104E085
:1053D0003CC303F03B5103D019C003F018503F6F9A
:1053E00003C040F340C344F33FC343F33EC346F31B
:1053F0003DC345F3000163D7015003013F27000E71
:10540000402340C303F03FC3E9FF40C3EAFFEF522C
:105410000AE118C0E9FF19C0EAFF200EEF6E000E86
:10542000016E026E27D040C344F33FC343F33EC333
:1054300046F33DC345F300018AD702C042F301C0E1
:1054400041F342C303F0030141C3E9FF42C3EAFF52
:10545000EF5208E041C3E9FF42C3EAFFEF6A412B84
:10546000D8B4422B42C319F041C318F03FC301F036
:1054700040C302F000011200030137C3E9FF38C343
:10548000EAFFEFCF3BF33AC303F039C3E9FF3AC376
:10549000EAFFEF503B5D15E138C303F037C3E9FF86
:1054A00003C0EAFFEF5203E1000E016E1FD038C3C4
:1054B00003F03751372BD8B4382B392BD8B43A2BCB
:1054C000DCD738C303F037C3E9FF38C3EAFFEFCFB7
:1054D0003BF33AC303F039C3E9FF3AC3EAFFEF50A5
:1054E0003B5D02E2FF0E01D0010E016E00011200D1
:1054F00088C38AF387C38CF386C38BF30301895176
:10550000000813E28CC303F08BC3E9FF8CC3EAFFEE
:105510008A51EF5C05E18BC301F08CC302F008D027
:105520008B2BD8B48C2B8907EAD7000E016E026E44
:1055300000011200030188518A19800B8C6F88AF1B
:1055400005D0871F881F872BD8B4882B8AAF05D03A
:10555000891F8A1F892BD8B48A2B87518903F3CFDF
:1055600001F0F4CF00F08A03F3500026885189033C
:10557000F3500020026E8CAF05D0011E021E012ADE
:10558000D8B4022A0001120003015F6B5E6B300E7B
:10559000616F310E626F320E636F330E646F340EC3
:1055A000656F350E666F360E676F370E686F380E93
:1055B000696F390E6A6F610E6B6F620E6C6F630EEE
:1055C0006D6F640E6E6F650E6F6F660E706F670E97
:1055D000716F680E726F690E736F6A0E746F6B0E67
:1055E000756F6C0E766F6D0E776F6E0E786F6F0E37
:1055F000796F700E7A6F710E7B6F730E7C6F740E05
:105600007D6F750E7E6F760E7F6F770E806F780ED2
:10561000816F790E826F7A0E836F846B54C359F356
:1056200053C358F359C303F058C3E9FF59C3EAFF02
:10563000EF50200804E1582BD8B4592BF3D759C3A5
:1056400003F058C3E9FF59C3EAFFEF502D0809E002
:1056500059C303F058C3E9FF59C3EAFFEF502B08C1
:105660000BE159C303F05851582BD8B4592BE96EAC
:1056700003C0EAFFEF5001D02B0E606F60512D0880
:105680000AE057BF08D0572D01D005D057BF05D02D
:105690005751240802E20BD184D057534CE05751A4
:1056A00010081FE159C303F058C3E9FF59C3EAFFCB
:1056B000EF50300816E1010E5825E96E000E592111
:1056C000EA6EEF50780809E0010E5825E96E000EE9
:1056D0005921EA6EEF50580804E1020E5827000ED7
:1056E0005923575108080DE159C303F058C3E9FF86
:1056F00059C3EAFFEF50300804E1010E5827000EAD
:1057000059235751020816E159C303F058C3E9FF62
:1057100059C3EAFFEF5030080DE1010E5825E96E3C
:10572000000E5921EA6EEF50620804E1020E58277C
:10573000000E592336D059C303F058C3E9FF59C3AB
:10574000EAFFEF50300803E00A0E576F2AD0010E2F
:105750005825E96E000E5921EA6EEF50780809E0ED
:10576000010E5825E96E000E5921EA6EEF505808D7
:1057700007E1100E576F020E5827000E592311D063
:10578000010E5825E96E000E5921EA6EEF506208AD
:1057900006E1020E576F5827000E592302D0080E5B
:1057A000576F59C35BF358C35AF359C303F058C337
:1057B000E9FF59C3EAFFEF50300804E1582BD8B491
:1057C000592BF3D759C303F058C3E9FF59C3EAFF74
:1057D000EFCF85F38551400806E285515A0803E36F
:1057E0008551200901D08551856F030E876F610EA9
:1057F000866F85C388F357C389F3000179DE02C041
:105800005DF301C05CF303015C5302E15D5349E0C9
:10581000036A5751006EE8BE0306856F03C086F326
:105820005FC388F35EC387F303C08AF3896F000107
:1058300081DE01C085F3610E03015C5D006E030E25
:105840005D59036E00500124016E0250032201C015
:105850005EF303C05FF3582BD8B4592B59C303F040
:1058600058C3E9FF59C3EAFFEFCF85F385514008DC
:1058700006E285515A0803E38551200901D085517C
:10588000856F030E876F610E866F85C388F357C3DC
:1058900089F300012DDE02C05DF301C05CF3B3D7D4
:1058A000030158515A5D13E159515B5D10E15551A7
:1058B000561109E055C3E9FF56C3EAFF54C3ECFF94
:1058C000ED5253C3EFFF000E016E026E10D0555122
:1058D000561109E055C3E9FF56C3EAFF59C3ECFF6F
:1058E000ED5258C3EFFF5EC301F05FC302F0000149
:1058F00042EF2DF08EC390F38DC38FF390C303F06E
:1059000003018FC3E9FF90C3EAFFEF5206E08F2B3C
:10591000D8B4902B0001F2D703018D518F5D006E3A
:105920008E519059036E00C001F00001120057C360
:105930005CF356C35BF359C35EF358C35DF30301D5
:105940005E515C5D39E303E15B515D5D35E25A51C7
:105950005D25016E000E5E21036E5C51035C2CE33D
:1059600003E101505B5D28E25A515B27000E5C2386
:105970005A515D27000E5E235A5100081CE25B510C
:10598000D8B45C075B075BC35FF35CC360F35D5136
:10599000D8B45E075D075EC303F05DC3E9FF5EC375
:1059A000EAFFEFCF61F35CC3EAFF5BC3E9FF61C3CA
:1059B000EFFF5A07E1D71FD05A5100081CE25CC321
:1059C00003F05B515B2BD8B45C2B5F6F03C060F3BB
:1059D0005EC303F05D515D2BD8B45E2BE96E03C04E
:1059E000EAFFEFCF61F360C3EAFF5FC3E9FF61C382
:1059F000EFFF5A07E1D756C301F057C302F0000189
:105A00006BEF2DF00301506B4BC34DF34AC34CF3C6
:105A10004BC303F04AC3E9FF4BC3EAFFEFCF51F397
:105A2000515360E051512B080CE14BC303F04A5134
:105A30004A2BD8B44B2BE96E03C0EAFF200EEF6E61
:105A40004FD05151250849E1010E4A25536F000EF0
:105A50004B21546F030EEA6E4E0EE96E54C3E2FF03
:105A600053C3E1FF020E016EE6CFEEFF012EFCD71D
:105A7000030E546F4E0E536F566B556B100E576FCF
:105A8000000182D501C052F303014BC303F04A5118
:105A90004A2BD8B44B2BE96E03C0EAFF52C3EFFF89
:105AA000020E4A25536F000E4B21546F4BC38EF3E9
:105AB0004AC38DF300011EDF010E015C0301556F27
:105AC0004BC357F34AC356F354C359F353C358F364
:105AD0005A6F00012CD704D003014A2BD8B44B2BAA
