:0400000075EF3AF06E
:0800080057EF00F000000000BA
:100010000000000000000000046ED8CF05F0E0CF23
:1000200006F00001E9CF0CF0EACF07F0E1CF08F0CD
:10003000E2CF09F0D9CF0AF0DACF0BF0F3CF12F00C
:10004000F4CF13F0FACF14F0FBCF15F000C00EF090
:1000500001C00FF002C010F003C011F09DA034EFFA
:1000600000F09EB09EEF01F00EC000F00FC001F056
:1000700010C002F011C003F00CC0E9FF07C0EAFF96
:10008000078E08C0E1FF09C0E2FF0AC0D9FF0BC01C
:10009000DAFF12C0F3FF13C0F4FF14C0FAFF15C05B
:1000A000FBFF045006C0E0FF05C0D8FF1000176E2C
:1000B000D8CF18F0E0CF19F00001E9CF1FF0EACF58
:1000C0001AF0E1CF1BF0E2CF1CF0D9CF1DF0DACF50
:1000D0001EF0F3CF25F0F4CF26F0FACF27F0FBCFB8
:1000E00028F000C021F001C022F002C023F003C0BC
:1000F00024F09DAA7FEF00F09EBA6CEF01F021C0C2
:1001000000F022C001F023C002F024C003F01FC0A1
:10011000E9FF1AC0EAFF1A8E1BC0E1FF1CC0E2FF14
:100120001DC0D9FF1EC0DAFF25C0F3FF26C0F4FFB3
:1001300027C0FAFF28C0FBFF175019C0E0FF18C006
:10014000D8FF1000737461747573482E7478743D11
:100150002248756D696469666963616E646F220027
:10016000737461747573482E7478743D22436F6E96
:1001700074726F6C616E646F220073746174757356
:10018000482E7478743D2244657368756D6964699E
:10019000666963616E646F220000737461747573C5
:1001A000482E7478743D22436F6E74726F6C616E6A
:1001B000646F2200737461747573542E7478743D87
:1001C00022436F6E74726F6C616E646F2200737481
:1001D00061747573542E7478743D22456E6672692D
:1001E000616E646F2200737461747573542E747839
:1001F000743D22436F6E74726F6C616E646F220087
:10020000737461747573542E7478743D2243616CF9
:10021000656E74616E646F2200007374617475732F
:10022000542E7478743D22436F6E74726F6C616EDD
:10023000646F2200737461747573542E7478743D06
:10024000224D657365746122000073746174757367
:10025000542E7478743D2252616D7061202D2200FD
:10026000737461747573542E7478743D22456E6690
:100270007269616E646F2200737461747573542EB9
:100280007478743D22436F6E74726F6C616E646F2C
:100290002200737461747573542E7478743D224D0A
:1002A0006573657461220000737461747573542EF4
:1002B0007478743D2252616D7061202B220073743A
:1002C00061747573542E7478743D2243616C656E4D
:1002D00074616E646F2200009EAAFED7AECF9AF5BD
:1002E00005019A51650803E1010E9B6F406A9B2D41
:1002F0000AD0036A4050350FE96E000E0320EA6E03
:100300009AC5EFFF402A4050090802E2406A9B6B01
:10031000405210E1355065080BE1363C09D0373CBE
:1003200007D03D5205E13E3C03D0050EC66F02D01A
:100330000A0EC66F9E9A00017FEF00F09E0ECF6EF0
:10034000580ECE6E0501C82BD8B4C92BCA2BD8B411
:10035000CB2BCC2BD8B4CD2BCB5303E1CA51C70840
:1003600002E2010E936F952D1DD0CD51D55D0BE3AB
:1003700003E1D451CC5D07E28B8494948B829492F8
:100380008B80949006D08B9494948B9294928B90C3
:100390009490D751CD5D06E303E1D651CC5D02E3E5
:1003A000CD6BCC6BC95303E1C851C70815E2C96BCB
:1003B000C86BBA81BC2BC12B912BBAAF03D0D22B07
:1003C000D8B4D32BC32D03D0CE2BD8B4CF2BBAADFA
:1003D00003D0D02BD8B4D12B9E90000134EF00F085
:1003E00070616765204269656E76656E696461005B
:1003F000626B636D643D30007061676520436C61C2
:1004000076650000626B636D643D30007061676506
:1004100020436C61766500007061676520507269E9
:100420006E636970616C0000746974756C6F2E7412
:1004300078743D22436C617665204E756576612245
:100440000000646F6576656E74730000746974757E
:100450006C6F2E7478743D22436C61766520416325
:100460007475616C2200646F6576656E747300004C
:10047000746974756C6F2E7478743D22436C617668
:1004800065205465636E69636F220000646F657652
:10049000656E74730000746974756C6F2E74787473
:1004A0003D22496E677265736520436C61766522F3
:1004B00000007061676520436C617665436F7272FE
:1004C0006563746100007061676520436C617665E7
:1004D000426164007061676520436F6E6669670002
:1004E00070616765205072696E636970616C0000AD
:1004F0007061676520436C6176650000746974758E
:100500006C6F2E7478743D22436C617665204E7555
:1005100065766122000070616765205072696E63C4
:100520006970616C0000746974756C6F2E747874F6
:100530003D22436C617665204E7565766122000030
:1005400070616765205072696E636970616C00004C
:100550007061676520546573740070616765205031
:1005600072696E636970616C000066656368612E14
:100570007478743D2246656368613A253032752F80
:10058000253032752F32302530327520202020481A
:100590006F72613A20253032753A253032753A252E
:1005A00030327522000070616765205072696E6399
:1005B0006970616C0000747365636573742E706399
:1005C0006F3D363535333500746D696E6573742E45
:1005D00070636F3D3000747365636573742E706370
:1005E0006F3D3000746D696E6573742E70636F3D7E
:1005F000363535333500746D696E7365632E7478E6
:10060000743D222530322E306622000074736563FB
:100610007365632E7478743D222530322E30662245
:100620000000706167652052616D706173007473C2
:1006300065636573742E70636F3D363535333500F1
:10064000746D696E6573742E70636F3D30007473E2
:1006500065636573742E70636F3D3000746D696EF1
:100660006573742E70636F3D363535333500746DA8
:10067000696E7365632E7478743D222530322E3096
:1006800066220000747365637365632E7478743D2D
:10069000222530322E306622000066656368612EA6
:1006A0007478743D2246656368613A253032752F4F
:1006B000253032752F3230253032752020202048E9
:1006C0006F72613A20253032753A253032753A25FD
:1006D00030327522000070616765205072696E6368
:1006E0006970616C00007473657474656D2E747844
:1006F000743D2225322E31662200706167652052DA
:10070000616D706173007473657474656D2E7478B7
:10071000743D2225322E3166220066656368612EA3
:100720007478743D2246656368613A253032752FCE
:10073000253032752F323025303275202020204868
:100740006F72613A20253032753A253032753A257C
:1007500030327522000070616765205072696E63E7
:100760006970616C00007473657474656D2E7478C3
:10077000743D2225322E306622007061676520525A
:10078000616D706173007473657474656D2E747837
:10079000743D222530327522000062302E62636F74
:1007A0003D323031360062302E62636F3D36333475
:1007B0003838000062312E62636F3D3230313600CE
:1007C00062312E62636F3D36333438380000623256
:1007D0002E62636F3D323031360062322E62636FBB
:1007E0003D3633343838000062332E62636F3D3259
:1007F0003031360062332E62636F3D363334383821
:10080000000062342E62636F3D3230313600623454
:100810002E62636F3D3633343838000062352E6205
:10082000636F3D323031360062352E62636F3D3684
:1008300033343838000062362E62636F3D32303117
:10084000360062362E62636F3D363334383800002E
:1008500062382E62636F3D323031360062382E626C
:10086000636F3D3633343838000062392E62636F6F
:100870003D323031360062392E62636F3D3633349B
:10088000383800006231302E62636F3D32303136CD
:1008900000006231302E62636F3D363334383800E9
:1008A0006231322E62636F3D323031360000623188
:1008B000322E62636F3D3633343838006231332E66
:1008C0007478743D22414443303A25332E306622F9
:1008D00000006231342E7478743D22414443313A31
:1008E00025332E30662200006231352E7478743D37
:1008F0002241323A25332E30662025322E316622AF
:1009000000006231382E7478743D2241333A253329
:100910002E30662025322E31662200006231392EBB
:100920007478743D2254323A25332E316622000009
:100930006232302E7478743D2254313A25332E3190
:100940006622000070616765205072696E6369708D
:10095000616C000070616765205072696E63697038
:10096000616C000074686F72612E7478743D22258A
:10097000303275220000746D696E75746F732E7459
:1009800078743D22253032752200746469612E74BA
:1009900078743D22253032752200746D65732E7493
:1009A00078743D2225303275220074796561722E8B
:1009B0007478743D222530327522000066656368C4
:1009C000612E7478743D2246656368613A25303241
:1009D000752F253032752F32302530327520486F13
:1009E00072613A20253032753A253032753A253019
:1009F0003275220074332E7478743D225061736F07
:100A0000732050726F6772616D61646F732025305F
:100A1000327522006369636C6F2E7478743D2250C6
:100A200061736F2025303275220074656D702E74ED
:100A300078743D2254656D70657261747572613AA7
:100A40002025322E3166B043220068756D2E7478F1
:100A5000743D2248756D656461643A2025303275B5
:100A60002025252200007469656D706F2E747874DE
:100A70003D225469656D706F3A202530322E306604
:100A80003A2530322E30662022006369636C6F2E67
:100A90007478743D225061736F202D2D220074658F
:100AA0006D702E7478743D2254656D70657261743A
:100AB0007572613A202D2D22000068756D2E7478B4
:100AC000743D2248756D656461643A202D2D2200C5
:100AD0007469656D706F2E7478743D225469656D0C
:100AE000706F3A202D2D3A2D2D2200006369636C22
:100AF0006F2E7478743D225061736F2025303275EB
:100B0000220074656D702E7478743D2254656D708A
:100B1000657261747572613A2025322E3166B04378
:100B2000220068756D2E7478743D2248756D656479
:100B300061643A2025303275202525220000746931
:100B4000656D706F2E7478743D225469656D706F99
:100B50003A202530322E30663A2530322E3066204B
:100B60002200706167652054656D706572617475EF
:100B700072610000706167652048756D656461642D
:100B8000000070616765205469656D706F00706169
:100B90006765205072696E636970616C00007061F6
:100BA0006765205072696E636970616C00007061E6
:100BB000676520436C617665000066656368612E39
:100BC0007478743D2246656368613A253032752F2A
:100BD000253032752F3230253032752020202048C4
:100BE0006F72613A20253032753A253032753A25D8
:100BF000303275220000706167652054656D706544
:100C00007261747572610000706167652048756D6E
:100C100065646164000070616765205469656D708A
:100C20006F007061676520436C61766500007061DC
:100C3000676520436C6176650000706167652046DA
:100C40006563686100007061676520436C6176656B
:100C50000000706167652052616D706173006235DC
:100C60002E7069633D38350062342E7069633D38FB
:100C7000350062362E7069633D38350074382E7445
:100C800078743D225061736F202530327522000048
:100C900074382E7478743D22496E666F2200623675
:100CA0002E7069633D38340062352E7069633D38BB
:100CB0003500737461747573482E7478743D2244E2
:100CC0006574656E69646F22000062352E70696319
:100CD0003D38340062342E7069633D3835007374DA
:100CE00061747573542E7478743D22446574656E16
:100CF00069646F22000062342E7069633D383400ED
:100D00007374617475732E7478743D2245737461C5
:100D1000646F3A416C61726D6120303122007374EE
:100D200061747573482E7478743D222D2D2D2D2DF0
:100D30002200737461747573542E7478743D222D7F
:100D40002D2D2D2D22007374617475732E7478749B
:100D50003D2245737461646F3A5075657274612009
:100D60004162696572746122000073746174757305
:100D7000482E7478743D222D2D2D2D2D2200737454
:100D800061747573542E7478743D222D2D2D2D2D84
:100D900022007374617475732E7478743D224573E8
:100DA0007461646F3A4C6C656E616E646F22000012
:100DB0007374617475732E7478743D224573746115
:100DC000646F3A2D2D2D220074382E7478743D22D4
:100DD0005061736F202D2D22000073746174757340
:100DE0002E7478743D225265696E69636965206569
:100DF0006C2065717569706F220062342E706963B2
:100E00003D38340062352E7069633D3834006236F7
:100E10002E7069633D383400737461747573542E99
:100E20007478743D2246696E616C697A61646F22E0
:100E30000000737461747573482E7478743D224693
:100E4000696E616C697A61646F22000074656D700F
:100E5000657261747572612E7478743D22543A2DF6
:100E60002D2D2D22000074656D7065726174757290
:100E7000612E7478743D22543A25322E3166B04387
:100E800022007374656D70657261747572612E7481
:100E900078743D225345543A25322E316620B043B2
:100EA00022007368756D656461642E7478743D22E8
:100EB0005345543A25322E31662025252200687587
:100EC0006D656461642E7478743D2248523A25320F
:100ED0002E31662025252200737469656D706F2E92
:100EE0007478743D225345543A2530322E30663A98
:100EF0002530322E3066202848483A4D4D292200B0
:100F00007469656D706F2E7478743D222530322EB1
:100F100030663A2530322E3066220000706F7454ED
:100F20002E7478743D22506F742E20543A25322E40
:100F300030662025252200007374617475732E7449
:100F400078743D2246696E616C697A61646F220033
:100F5000436F6E6669672E7432632E7478743D2217
:100F600050726F706F7263696F6E616C22007433C0
:100F7000632E7478743D2225322E30662200436F32
:100F80006E6669672E7432632E7478743D224465F0
:100F9000726976617469766F22007433632E747897
:100FA000743D222575220000436F6E6669672E74BA
:100FB00032632E7478743D22496E74656772616C79
:100FC00022007433632E7478743D2225752200004C
:100FD000436F6E6669672E7432632E7478743D2297
:100FE000546369636C6F22007433632E7478743DAC
:100FF0002225322E30662200436F6E6669672E749A
:1010000032632E7478743D22416A75737465202BA7
:1010100022007433632E7478743D222575220000FB
:10102000436F6E6669672E7432632E7478743D2246
:10103000416A75737465202D22007433632E7478B1
:10104000743D222575220000436F6E6669672E7419
:1010500032632E7478743D224D656469612200000C
:101060007433632E7478743D2225752200007061FC
:101070006765205072696E636970616C0000666517
:101080006368612E7478743D2246656368613A2511
:101090003032752F253032752F32302530327520A1
:1010A000202020486F72613A20253032753A253071
:1010B00032752200850ECD6E9D80C150C00B0A098D
:1010C000C16EC050C00B0609C06EC08EC280F19EBA
:1010D000D180C00EF21271EF3DF08E0E006E18C876
:1010E00001F017C802F0036A015209E102C001F0E1
:1010F000026A080E005E015202E1006A08D0D89030
:1011000001BE04D0023601360006F9D7019E000C5C
:10111000070EEA6EE80EE96EEF500DE0060E016E66
:10112000006A002EFED7012EFBD77B0E006E002E2C
:10113000FED7EF2EF3D7000C08010C51D8B4A5D080
:10114000186F1051D8B4A1D0185F05E37F0E18278F
:10115000D8B09BD006D0810E185FD8A096D0D8B456
:1011600094D018C800F0016A026A036A176B0DC8B0
:1011700016F8168F0EC815F80FC814F8190E186F48
:101180001351145F0DE2010E155F0AE2165F08E2CB
:10119000175F06E2172B162B152B1351142728D097
:1011A0001251155F12E2010E165F0FE2175F0DE29A
:1011B000172B162B125115271351142719E3152B32
:1011C00017E1162B15E1172B13D011518009165F6B
:1011D0000EE2010E175F0BE2172B11518009162743
:1011E00012511527E9E3162BE7E1172BE5D703800A
:1011F000182F01D00BD0D890143715371637173762
:10120000D8900336023601361937BAD719A106D05D
:10121000D890013202320332193302D0000635E091
:1012200019BF1ED0D89014371537163717371351FA
:10123000145F07E2010E155F04E2165F02E2175F1A
:101240001AE31251155F05E2010E165F02E2175F05
:1012500012E311518009165F03E2010E175F0BE3E1
:10126000032A09E1022A07E1012A05E1002A0DE02B
:101270000132023203320DC818F81151181B18AF91
:1012800002D0018E06D0019E04D0006A016A026A73
:10129000036A0001000C800ED8A202D008011C1BBA
:1012A0000801216B226B18C820F81C51201B175114
:1012B000D8B4DFD01F6F006E1B51D8B4E3D01F5FCE
:1012C000D8B483D03EE31CC825F8258F1DC824F868
:1012D0001EC823F8226BD8902533243323332233BE
:1012E0001F2FF8D720AF03D02181E0D021911F918B
:1012F0002189080EEA6E1A0EE96EEBD0219920BF03
:101300000AD01FA113D02533243323332233002ADC
:10131000D8B4C7D00BD025BF0CD0D89022372337F4
:10132000243725370006D8B4BCD0F5D7218D6DD031
:10133000219D18C820F818AF02D0258FABD0259F6B
:10134000A9D01BC81FF81BC800F017511F5F18C891
:1013500025F8258F19C824F81AC823F8226BD890CD
:1013600025332433233322331F2FF8D720AF03D064
:1013700021839CD021931F91218B080EEA6E1E0EB3
:10138000E96EA7D0219B20BF0AD01FA113D025331F
:10139000243323332233002AD8B483D00BD025BF83
:1013A0000CD0D89022372337243725370006D8B4FD
:1013B00078D0F5D7218F29D0219F1CC820F81CAFE9
:1013C00002D0258F67D0259F65D01CC825F8258FB2
:1013D0001DC824F81EC823F820AF04D0259F2185FE
:1013E00065D02195226B1F91080EEA6E1A0EE96EE8
:1013F00070D020BF1CD018C820F81FA106D02533FC
:10140000243323332233002A4CE022AF0BD0232B8A
:1014100009E1242B07E1252B05E125332433233370
:10142000002A3FE021BD84D721BFC6D71CD0800E43
:10143000251B25AF04D03AD01CC820F80AD018C804
:1014400020F8255306E1245304E1235302E1006A06
:1014500021D025BF08D0D89022372337243725370D
:10146000002EF7D71ED020AF02D0258F13D0259F96
:1014700011D01BC800F01CC825F81DC824F81EC8D0
:1014800023F808D017C800F018C825F819C824F8A0
:101490001AC823F825C801F024C802F023C803F0B5
:1014A00034D0006A016A026A036A2FD0226B231FBC
:1014B000241F251F221F222B05E1232B03E1242BB0
:1014C00001E1252B21B112D721B354D721B589D7FA
:1014D000B3D7EF50232705E3242B03E1252BD8B402
:1014E0001F81ED52EF50242703E3252BD8B41F8131
:1014F000ED52EF50EFBE01D0800A2527D8B01F81F2
:1015000021B9FCD621BB3ED774D70001000C0701DE
:10151000E351E503F3CF01F0F4CF00F0E603F3501D
:101520000026E451E503F3500020026E0001000C98
:101530000801186BBEC717F80001CFDD03C0C2F762
:1015400002C0C1F701C0C0F700C0BFF7C2C70FF8A3
:10155000C1C70EF8C0C70DF8BFC70CF80801136B60
:10156000126B200E116F820E106F0001E5DDEAEFA5
:101570000EF014C81BF8080118511B1B1BAF05D037
:10158000D894D89014BFD8802FD014C81BF817C88F
:101590001CF813511C5F06E01BAF26D0D850010A7F
:1015A000D86E22D018C81CF814511C5F06E01BAF7F
:1015B0001BD0D850010AD86E17D019C81CF8155185
:1015C0001C5F06E01BAF10D0D850010AD86E0CD0BB
:1015D0001AC81CF816511C5F06E01BAF05D0D85086
:1015E000010AD86E01D0D8900001000CF2CFBAF7F2
:1015F000F29CF29EAA6AA96AA69CA69EA680A85002
:101600000701BABDF28CBABFF28E0801186B176FD2
:10161000000163DD03C0A5F502C0A4F501C0A3F578
:1016200000C0A2F50A0E0701E86F000171DDF2CFDC
:10163000BAF7F29CF29EAA6A010EA96EA69CA69E1B
:10164000A680A8500701BABDF28CBABFF28E08017D
:10165000186B176F000141DD03C0A9F502C0A8F5A2
:1016600001C0A7F500C0A6F50A0E0701E86F00014A
:101670004FDDF2CFBAF7F29CF29EAA6A500EA96E25
:10168000A69CA69EA680A8500701BABDF28CBABF40
:10169000F28E0501C56F0A0E0701E86F000138DD03
:1016A000F2CFBAF7F29CF29EAA6A510EA96EA69CDE
:1016B000A69EA680A8500701BABDF28CBABFF28ED2
:1016C0000801186B176F000108DD03C033F602C074
:1016D00032F601C031F600C030F633C60FF832C61C
:1016E0000EF831C60DF830C60CF80801136B126BFA
:1016F000200E116F820E106F00011EDD03C033F645
:1017000002C032F601C031F600C030F60801186B95
:10171000C5C517F80001E1DCD89203C01AF802C071
:1017200019F801C018F800C017F833C61EF832C601
:101730001DF831C61CF830C61BF8ADDD03C02FF60E
:1017400002C02EF601C02DF600C02CF60A0E0701CD
:10175000E86F0001DDDCF2CFBAF7F29CF29EAA6AD4
:10176000520EA96EA69CA69EA680A8500701BABDDF
:10177000F28CBABFF28E0501C56F0A0E0701E86F41
:101780000001C6DCF2CFBAF7F29CF29EAA6A530EB1
:10179000A96EA69CA69EA680A8500701BABDF28C91
:1017A000BABFF28E0801186B176F000196DC03C0F8
:1017B00033F602C032F601C031F600C030F633C64F
:1017C0000FF832C60EF831C60DF830C60CF8080115
:1017D000136B126B200E116F820E106F0001ACDCC8
:1017E00003C033F602C032F601C031F600C030F655
:1017F0000801186BC5C517F800016FDCD89203C04B
:101800001AF802C019F801C018F800C017F833C65A
:101810001EF832C61DF831C61CF830C61BF83BDD79
:1018200003C037F602C036F601C035F600C034F604
:101830000A0E0701E86F00016BDCF2CFBAF7F29CE9
:10184000F29EAA6A0A0EA96EA69CA69EA680A85021
:101850000701BABDF28CBABFF28E0501E86F0A0E1D
:101860000701E86F000154DCF2CFBAF7F29CF29E58
:10187000AA6A0B0EA96EA69CA69EA680A850070178
:10188000BABDF28CBABFF28E0501E96F0A0E0701EC
:10189000E86F00013DDCF2CFBAF7F29CF29EAA6A33
:1018A0000C0EA96EA69CA69EA680A8500701BABDE4
:1018B000F28CBABFF28E0501EA6F0A0E0701E86FDB
:1018C000000126DCF2CFBAF7F29CF29EAA6A0D0E56
:1018D000A96EA69CA69EA680A8500701BABDF28C50
:1018E000BABFF28E0501EB6F0A0E0701E86F000127
:1018F0000FDCF2CFBAF7F29CF29EAA6A1E0EA96E16
:10190000A69CA69EA680A8500701BABDF28CBABFBD
:10191000F28E0801186B176F00016DEC08F003C020
:101920000BF602C00AF601C009F600C008F60A0E5E
:101930000701E86F000188EC08F0F2CFBAF7F29CDB
:10194000F29EAA6A1F0EA96EA69CA69EA680A8500B
:101950000701BABDF28CBABFF28E0501976F0A0E6D
:101960000701E86F000188EC08F0F2CFBAF7F29CAB
:10197000F29EAA6A200EA96EA69CA69EA680A850DA
:101980000701BABDF28CBABFF28E0501986F0A0E3C
:101990000701E86F000188EC08F0F2CFBAF7F29C7B
:1019A000F29EAA6A210EA96EA69CA69EA680A850A9
:1019B0000701BABDF28CBABFF28E0801186B176F1F
:1019C00000016DEC08F003C0F3F502C0F2F501C0B0
:1019D000F1F500C0F0F50A0E0701E86F000188EC90
:1019E00008F0F2CFBAF7F29CF29EAA6A220EA96E14
:1019F000A69CA69EA680A8500701BABDF28CBABFCD
:101A0000F28E05018E6F0A0E0701E86F000188EC67
:101A100008F0F2CFBAF7F29CF29EAA6A230EA96EE2
:101A2000A69CA69EA680A8500701BABDF28CBABF9C
:101A3000F28E05018F6F0A0E0701E86F000188EC36
:101A400008F0F2CFBAF7F29CF29EAA6A240EA96EB1
:101A5000A69CA69EA680A8500701BABDF28CBABF6C
:101A6000F28E0501906F0A0E0701E86F000188EC05
:101A700008F0F2CFBAF7F29CF29EAA6A250EA96E80
:101A8000A69CA69EA680A8500701BABDF28CBABF3C
:101A9000F28E0801186B176F00016DEC08F003C09F
:101AA00017F602C016F601C015F600C014F60A0EAD
:101AB0000701E86F000188EC08F0F2CFBAF7F29C5A
:101AC000F29EAA6A260EA96EA69CA69EA680A85083
:101AD0000701BABDF28CBABFF28E0801186B176FFE
:101AE00000016DEC08F003C02BF602C02AF601C01D
:101AF00029F600C028F60A0E0701E86F000188ECFD
:101B000008F00BC60FF60AC60EF609C60DF608C693
:101B10000CF60501BF6BBF511308D8A0DED2070138
:101B2000E46BBFC5E3F7E66B0F0EE56F0001EFDC7A
:101B300002C0BBF701C0BAF7010E0701BA25016E5A
:101B4000000EBB21036E01508E0FE96E060E0320BE
:101B5000EA6E0501BF51050DF350640F0701BC6F1C
:101B6000F2CFBDF7F29CF29EAA6ABCC7A9FFA69C61
:101B7000A69EA680A850BDBDF28CBDBFF28EEF6EB2
:101B8000E46BBFC5E3F7E66B0F0EE56F0001BFDC4A
:101B900002C0BBF701C0BAF78E0E0701BA25E96E85
:101BA000060EBB21EA6E0501BF51050DF350650F0E
:101BB0000701BC6FF2CFBDF7F29CF29EAA6ABCC7C8
:101BC000A9FFA69CA69EA680A850BDBDF28CBDBF55
:101BD000F28EEF6EE46BBFC5E3F7E66B0F0EE56FB9
:101BE000000195DC02C0BBF701C0BAF7020E070185
:101BF000BA25016E000EBB21036E01508E0FE96EF7
:101C0000060E0320EA6E0501BF51050DF350660F65
:101C10000701BC6FF2CFBDF7F29CF29EAA6ABCC767
:101C2000A9FFA69CA69EA680A850BDBDF28CBDBFF4
:101C3000F28EEF6EE46BBFC5E3F7E66B0F0EE56F58
:101C4000000165DC02C0BBF701C0BAF7030E070153
:101C5000BA25016E000EBB21036E01508E0FE96E96
:101C6000060E0320EA6E0501BF51050DF350670F04
:101C70000701BC6FF2CFBDF7F29CF29EAA6ABCC707
:101C8000A9FFA69CA69EA680A850BDBDF28CBDBF94
:101C9000F28E0801186B176F00016DEC08F000C0A0
:101CA000EFFF01C0ECFF02C0ECFF03C0ECFFED5200
:101CB000ED52ED520701E46BBFC5E3F7E66B0F0E83
:101CC000E56F000124DC02C0BBF701C0BAF7070EC4
:101CD0000701BA25016E000EBB21036E01508E0F65
:101CE000E96E060E0320EA6E0501BF51050DF350A3
:101CF000680F0701BC6FF2CFBDF7F29CF29EAA6A93
:101D0000BCC7A9FFA69CA69EA680A850BDBDF28C0C
:101D1000BDBFF28E0801186B176F00016DEC08F063
:101D200000C0EFFF01C0ECFF02C0ECFF03C0ECFFFE
:101D3000ED52ED52ED520701E46BBFC5E3F7E66BE0
:101D40000F0EE56F000187EC0AF001C0BAF70B0E29
:101D500007010124016E000E0220036E01508E0F58
:101D6000016E060E032201C0BAF703C0BBF7E46B95
:101D7000BFC5E3F7E66B0F0EE56F000187EC0AF0D5
:101D800002C0BDF701C0BCF7010E07010124016EBE
:101D9000000E0220036E01508E0FE96E060E032026
:101DA000EA6EEFCFBCF7E46BBFC5E3F7E66B0F0E4F
:101DB000E56F000187EC0AF08E0E07010124E96E41
:101DC000060E0220EA6EEFCFBDF7BDC7BEF70001D9
:101DD00098EF0AF000C0BDF701C0BEF702C0BFF720
:101DE00003C0C0F70801186BBCC717F800016DEC01
:101DF00008F0EACFC2F7E9CFC1F7D89203C01AF8CA
:101E000002C019F801C018F800C017F8C0C71EF8C2
:101E1000BFC71DF8BEC71CF8BDC71BF84BEC09F0C7
:101E2000C2C7EAFFC1C7E9FFBBC7EAFFBAC7E9FFFC
:101E300000C0EFFF01C0ECFF02C0ECFF03C0ECFFED
:101E40000701E46BBFC5E3F7E66B0F0EE56F00011A
:101E500087EC0AF001C0BAF70B0E07010124016EEE
:101E6000000E0220036E01508E0FE96E060E032055
:101E7000EA6EEFCFBAF7ECCFBBF7ECCFBCF7ECCF05
:101E8000BDF70801166B156B700E146F840E136F7F
:101E9000BDC71AF8BCC719F8BBC718F8BAC717F8F6
:101EA0000001B9EC0AF01FE30701E46BBFC5E3F7DB
:101EB000E66B0F0EE56F000187EC0AF001C0BAF780
:101EC0000B0E07010124016E000E0220036E01506B
:101ED0008E0FE96E060E0320EA6E830EEF6E700E13
:101EE000EC6EEC6AEC6A0701E46BBFC5E3F7E66BE6
:101EF0000F0EE56F000187EC0AF002C0BBF701C0CE
:101F0000BAF7020E07010124016E000E0220036ED3
:101F100001508E0FE96E060E0320EA6E0801186B61
:101F2000EFCF17F800016DEC08F00801166B156B88
:101F3000340E146F850E136F03C01AF802C019F81F
:101F400001C018F800C017F80001B9EC0AF01BE353
:101F50000701E46BBFC5E3F7E66B0F0EE56F000109
:101F600087EC0AF001C0BAF7020E07010124016EE6
:101F7000000E0220036E01508E0FE96E060E032044
:101F8000EA6E3C0EEF6E0701E46BBFC5E3F7E66B4C
:101F90000F0EE56F000187EC0AF001C0BAF7030EDF
:101FA00007010124016E000E0220036E01508E0F06
:101FB000E96E060E0320EA6EEFCFBAF7ECCFBBF75F
:101FC000ECCFBCF7ECCFBDF70801166B156B460ED6
:101FD000146F850E136FBDC71AF8BCC719F8BBC7BD
:101FE00018F8BAC717F80001B9EC0AF01FE30701A7
:101FF000E46BBFC5E3F7E66B0F0EE56F000187ECFE
:102000000AF001C0BAF7030E07010124016E000EA9
:102010000220036E01508E0FE96E060E0320EA6E59
:10202000820EEF6E200EEC6EEC6AEC6A0701E46B38
:10203000BFC5E3F7E66B0F0EE56F000187EC0AF012
:1020400001C0BAF7070E07010124016E000E02203D
:10205000036E01508E0FE96E060E0320EA6EEFCF7D
:10206000BAF7ECCFBBF7ECCFBCF7ECCFBDF708016C
:10207000166B156B6C0E146F840E136FBDC71AF8B8
:10208000BCC719F8BBC718F8BAC717F80001B9ECF4
:102090000AF020E30701E46BBFC5E3F7E66B0F0E20
:1020A000E56F000187EC0AF001C0BAF7070E0701DF
:1020B0000124016E000E0220036E01508E0FE96EA6
:1020C000060E0320EA6E820EEF6E200EEC6EEC6AB6
:1020D000EC6A00010501BF2B1ED5000173EF3DF036
:1020E0000801166B156B6C0E146F840E136FA5C56B
:1020F0001AF8A4C519F8A3C518F8A2C517F8000165
:10210000B9EC0AF023E30501A56BA46B200EA36FC5
:10211000820EA26FAA6AA96A0A0EA86EA69CA69E43
:10212000A684F250006EF29CF29E0F01550EA76E2F
:10213000AA0EA76EA682A6B2FED7A6940050F212EF
:10214000140E0701E86F000188EC08F00801166B17
:10215000156B460E146F850E136FA9C51AF8A8C526
:1021600019F8A7C518F8A6C517F80001B9EC0AF0C8
:1021700024E30501A96BA86B200EA76F820EA66F42
:10218000AA6A010EA96E0A0EA86EA69CA69EA68437
:10219000F250006EF29CF29E0F01550EA76EAA0E31
:1021A000A76EA682A6B2FED7A6940050F212140E15
:1021B0000701E86F000188EC08F00501E8BF03D0D3
:1021C000E851090803E3E8BF01D01ED0E86BAA6A12
:1021D0000A0EA96EA86AA69CA69EA684F250006E5E
:1021E000F29CF29E0F01550EA76EAA0EA76EA68254
:1021F000A6B2FED7A6940050F212140E0701E86FA3
:10220000000188EC08F00501E9BF03D0E951090895
:1022100003E3E9BF01D01ED0E96BAA6A0B0EA96ED9
:10222000A86AA69CA69EA684F250006EF29CF29E1E
:102230000F01550EA76EAA0EA76EA682A6B2FED7F4
:10224000A6940050F212140E0701E86F000188EC0A
:1022500008F00501EABF03D0EA51090803E3EABF29
:1022600001D01ED0EA6BAA6A0C0EA96EA86AA69CC1
:10227000A69EA684F250006EF29CF29E0F01550EAF
:10228000A76EAA0EA76EA682A6B2FED7A69400508D
:10229000F212140E0701E86F000188EC08F0050146
:1022A000EBBF03D0EB51090803E3EBBF01D01DD016
:1022B000EB6BAA6A0D0EA96EA86AA69CA69EA684C0
:1022C000F250006EF29CF29E0F01550EA76EAA0E00
:1022D000A76EA682A6B2FED7A6940050F212140EE4
:1022E0000701E86F000188EC08F00801166B156B18
:1022F000700E146F840E136F2FC61AF82EC619F8BD
:102300002DC618F82CC617F80001B9EC0AF040E306
:1023100006012F6B2E6B700E2D6F830E2C6FAA6A29
:10232000500EA96E1E0EA86EA69CA69EA684F25004
:10233000006EF29CF29E0F01550EA76EAA0EA76EBC
:10234000A682A6B2FED7A6940050F212140E070180
:10235000E86F000188EC08F0AA6A510EA96EA86A1D
:10236000A69CA69EA684F250006EF29CF29E0F01DF
:10237000550EA76EAA0EA76EA682A6B2FED7A69489
:102380000050F212140E0701E86F000188EC08F00B
:102390000801166B156B340E146F850E136F37C65C
:1023A0001AF836C619F835C618F834C617F80001F9
:1023B000B9EC0AF013E237C616F836C615F835C67A
:1023C00014F834C613F808011A6B196B200E186F35
:1023D000820E176F0001B9EC0AF040E30601376B7B
:1023E000366B480E356F840E346FAA6A520EA96E92
:1023F000320EA86EA69CA69EA684F250006EF29C99
:10240000F29E0F01550EA76EAA0EA76EA682A6B267
:10241000FED7A6940050F212140E0701E86F0001D7
:1024200088EC08F0AA6A530EA96EA86AA69CA69E1C
:10243000A684F250006EF29CF29E0F01550EA76E1C
:10244000AA0EA76EA682A6B2FED7A6940050F212DC
:10245000140E0701E86F000188EC08F00801166B04
:10246000156B200E146F840E136F0BC61AF80AC674
:1024700019F809C618F808C617F80001B9EC0AF0EF
:1024800023E306010B6B0A6B096B800E086FAA6AC7
:102490001E0EA96E020EA86EA69CA69EA684F250E1
:1024A000006EF29CF29E0F01550EA76EAA0EA76E4B
:1024B000A682A6B2FED7A6940050F212140E07010F
:1024C000E86F000188EC08F005019751500820E200
:1024D000500E976FAA6A1F0EA96E500EA86EA69C8A
:1024E000A69EA684F250006EF29CF29E0F01550E3D
:1024F000A76EAA0EA76EA682A6B2FED7A69400501B
:10250000F212140E0701E86F000188EC08F00501D3
:10251000985104081FE2010E986FAA6A200EA96E56
:10252000010EA86EA69CA69EA684F250006EF29C98
:10253000F29E0F01550EA76EAA0EA76EA682A6B236
:10254000FED7A6940050F212140E0701E86F0001A6
:1025500088EC08F00801166B156B200E146F840EC2
:10256000136FF3C51AF8F2C519F8F1C518F8F0C5DC
:1025700017F80001B9EC0AF024E30501F36BF26BE4
:10258000200EF16F810EF06FAA6A210EA96E050E62
:10259000A86EA69CA69EA684F250006EF29CF29EA7
:1025A0000F01550EA76EAA0EA76EA682A6B2FED781
:1025B000A6940050F212140E0701E86F000188EC97
:1025C00008F005018E5164081EE28E6BAA6A220E85
:1025D000A96EA86AA69CA69EA684F250006EF29CE4
:1025E000F29E0F01550EA76EAA0EA76EA682A6B286
:1025F000FED7A6940050F212140E0701E86F0001F6
:1026000088EC08F005018F5164081EE28F6BAA6AFE
:10261000230EA96EA86AA69CA69EA684F250006E00
:10262000F29CF29E0F01550EA76EAA0EA76EA6820F
:10263000A6B2FED7A6940050F212140E0701E86F5E
:10264000000188EC08F005019051500820E2500E7E
:10265000906FAA6A240EA96E500EA86EA69CA69E24
:10266000A684F250006EF29CF29E0F01550EA76EEA
:10267000AA0EA76EA682A6B2FED7A6940050F212AA
:10268000140E0701E86F000188EC08F00501000155
:1026900075EF3DF00701C46BC45107080DE3D890F6
:1026A000C33302E28C9A01D08C8A959A95988C88D3
:1026B00095988C98C42BF0D70001000C959C8C8CBD
:1026C000C1C7C3F7E7DFC2C7C3F7E4DF959C8C9CA3
:1026D000000C959C8C8CBEC7C3F7DCDF958A100E6E
:1026E000006E002EFED700000701BF6BBF51070828
:1026F00015E3958A83BA02D0D89001D0D880C03330
:1027000095988C88210E006E002EFED795988C9897
:10271000210E006E002EFED7BF2BE8D7959C8C9C17
:10272000C0C701F00001000C959C8C9C210E006E2E
:10273000002EFED795988C988E0E0701C16FC26B44
:102740000001BCDF900E0701C16FA40EC26F000133
:10275000B5DF810E0701BE6F0001BBDF01C0BAF714
:102760000701BA51800B06E0800EC16FC26B0001F9
:10277000A5DF0701000177EF3DF00900F55211E0F8
:10278000F6CFBAF7F7CFBBF7F8CFBCF7F5509EA856
:10279000FED7AD6EBAC7F6FFBBC7F7FFBCC7F8FFE1
:1027A000ECD7000C9EA8FED7AD6E000C100E006E8C
:1027B000002EFED70000FF0EF5DF100E006E002E7B
:1027C000FED70000FF0EEEDF100E006E002EFED7CB
:1027D0000000FF0EE7DF100E006E002EFED7000097
:1027E000000C0701E335006E0036FC0E001600C039
:1027F00001F0C250C30B0010C26E010EE86F000161
:1028000088EC08F0C282C2B2FED7C4CF18F8C3CF9A
:1028100017F800016DEC08F003C0E7F702C0E6F717
:1028200001C0E5F700C0E4F7E4C700F0E5C701F038
:10283000E6C702F0E7C703F0000C08011351D8B453
:1028400071D0006E1751D8B46DD0002604E3810E0C
:10285000002668E204D07F0E005E64E363E014C8E3
:102860001BF818511B1B148F188F16511A03F4CF25
:102870001DF815511903F4CF03F0F3CF1CF81A0318
:10288000F3501D27F4501C23000E03221651190388
:10289000F3501D27F4501C23000E026A032202226B
:1028A00014511A03F3501C27F4500322000E022285
:1028B00014511903F3500326F4500222000E016A4A
:1028C000012216511803F3501C27F4500322000E66
:1028D0000222012215511803F3500326F45002225C
:1028E000000E012214511803F3500226F450012265
:1028F000002A01BE05D01C37033602360136000619
:10290000000E1CAF0AD0032A02220122015005E169
:10291000025003E1035001E1002A1BBF018E1BAFEF
:10292000019E04D0006A016A026A036A0001000C79
:102930000501FF6BFE6BFD6BFC6B0701E36B000198
:1029400050DF03C0EFF502C0EEF501C0EDF500C0A9
:10295000ECF5EFC50FF8EEC50EF8EDC50DF8ECC5BA
:102960000CF8F60E0801136F280E126F520E116F3D
:10297000850E106F00019CEC08F003C0EFF502C05B
:10298000EEF501C0EDF500C0ECF5D892EFC51AF8F0
:10299000EEC519F8EDC518F8ECC517F8CD0E08010D
:1029A0001E6FCC0E1D6F700E1C6F820E1B6F000110
:1029B0004BEC09F003C0EFF502C0EEF501C0EDF5F8
:1029C00000C0ECF508010F6BC00E0E6F7F0E0D6F8F
:1029D000880E0C6FEFC513F8EEC512F8EDC511F8AF
:1029E000ECC510F800019CEC08F000C0BBF701C07A
:1029F000BCF702C0BDF703C0BEF7D88203C01AF807
:102A000002C019F801C018F800C017F808011E6BC1
:102A10001D6B1C6B7F0E1B6F00014BEC09F0080156
:102A20000F6B300E0E6F540E0D6F8B0E0C6F03C0BC
:102A300013F802C012F801C011F800C010F800012C
:102A40009CEC08F003C01BF602C01AF601C019F690
:102A500000C018F6010E0701BA5D05018D5D02E0A8
:102A600001E38D6B0701E46B8DC5E3F7E66B040EA4
:102A7000E56F000187EC0AF00150590FE96E000E76
:102A80000220EA6E18C6EFFF19C6ECFF1AC6ECFF6B
:102A90001BC6ECFF05018D2B8C6B0701BA5105019C
:102AA0008C5D40E20701E46B8CC5E3F7E66B040E36
:102AB000E56F000187EC0AF002C003F00150590FE6
:102AC000E96E000E0220EA6EEFCF00F0ECCF01F0CD
:102AD000ECCF02F0ECCF03F0EACFBCF7E9CFBBF7C5
:102AE000D892FFC51AF8FEC519F8FDC518F8FCC53F
:102AF00017F803C01EF802C01DF801C01CF800C082
:102B00001BF84BEC09F0BCC7EAFFBBC7E9FF03C0E9
:102B1000FFF502C0FEF501C0FDF500C0FCF50501A2
:102B20008C2BBBD70801186BBAC717F800016DECE6
:102B300008F0FFC50FF8FEC50EF8FDC50DF8FCC581
:102B40000CF803C013F802C012F801C011F800C05D
:102B500010F89CEC08F003C0FFF502C0FEF501C0C0
:102B6000FDF500C0FCF5FFC516F8FEC515F8FDC55E
:102B700014F8FCC513F8FFC51AF8FEC519F8FDC511
:102B800018F8FCC517F859DE00C0BBF701C0BCF748
:102B900002C0BDF703C0BEF703C016F802C015F8A7
:102BA00001C014F800C013F83BC61AF83AC619F869
:102BB00039C618F838C617F840DE00C0BBF701C0A8
:102BC000BCF702C0BDF703C0BEF7FFC516F8FEC5CF
:102BD00015F8FDC514F8FCC513F83FC61AF83EC633
:102BE00019F83DC618F83CC617F827DED892BEC7BC
:102BF0001AF8BDC719F8BCC718F8BBC717F803C047
:102C00001EF802C01DF801C01CF800C01BF84BECF8
:102C100009F000C0BBF701C0BCF702C0BDF703C09C
:102C2000BEF7D89203C01AF802C019F801C018F80C
:102C300000C017F843C61EF842C61DF841C61CF86E
:102C400040C61BF84BEC09F003C003F602C002F6C5
:102C500001C001F600C000F60801186B8EC517F818
:102C600000016DEC08F0D89203C61AF802C619F8F4
:102C700001C618F800C617F803C01EF802C01DF8F8
:102C800001C01CF800C01BF84BEC09F000C0BBF7FA
:102C900001C0BCF702C0BDF703C0BEF70801186B46
:102CA0008FC517F800016DEC08F0D882BEC71AF87E
:102CB000BDC719F8BCC718F8BBC717F803C01EF882
:102CC00002C01DF801C01CF800C01BF84BEC09F055
:102CD000000C8E0E006E08011351005E14C802F045
:102CE00015C801F0028E005209E0D890025202E1AC
:102CF000015204E002320132002EF7D714AF05D0A2
:102D0000011E021E012AD8B4022A0001000C08018B
:102D1000129106C80BF805C80AF804C809F803C8D8
:102D200008F806C816F805C815F804C814F803C84A
:102D300013F81A6B196B186B176B0001B9EC0AF0DA
:102D400005E3080112810951800A096F0BC816F8C2
:102D50000AC815F809C814F808C813F808011A6B4E
:102D6000196B186B8E0E176F0001B9EC0AF001E2B7
:102D700018E10BC816F80AC815F809C814F808C8ED
:102D800013F8A7DF02C018F801C017F86DEC08F0BF
:102D900003C00FF802C00EF801C00DF800C00CF817
:102DA000CDD00BC816F80AC815F809C814F808C819
:102DB00013F8800E08011A6F960E196F180E186F0F
:102DC000960E176F0001B9EC0AF0D8A0AFD00BC86F
:102DD00016F80AC815F809C814F808C813F8080145
:102DE0001A6B196B186B700E176F000126DD03C08C
:102DF00016F802C015F801C014F800C013F869DF16
:102E000002C011F801C010F80BC816F80AC815F86E
:102E100009C814F808C813F808011A6B196B186B65
:102E2000700E176F000109DD00C013F801C014F81F
:102E300002C015F803C016F811C818F810C817F822
:102E40006DEC08F0D88216C81AF815C819F814C81D
:102E500018F813C817F803C01EF802C01DF801C007
:102E60001CF800C01BF84BEC09F00801166B156B41
:102E7000146B8E0E136F03C01AF802C019F801C04C
:102E800018F800C017F80001D8DC03C00BF802C026
:102E90000AF801C009F800C008F811C818F810C8ED
:102EA00017F86DEC08F00801166B156B146B8E0E9D
:102EB000136F03C01AF802C019F801C018F800C057
:102EC00017F80001BADC03C00FF802C00EF801C009
:102ED0000DF800C00CF80BC816F80AC815F809C898
:102EE00014F808C813F8F5DE02C018F801C017F886
:102EF0006DEC08F0D8920FC81AF80EC819F80DC872
:102F000018F80CC817F803C01EF802C01DF801C05D
:102F10001CF800C01BF84BEC09F003C00FF802C00E
:102F20000EF801C00DF800C00CF808D00BC80FF85F
:102F30000AC80EF809C80DF808C80CF80BC816F82E
:102F40000AC815F809C814F808C813F8C2DE02C088
:102F500018F801C017F86DEC08F0D8820BC81AF801
:102F60000AC819F809C818F808C817F803C01EF8E5
:102F700002C01DF801C01CF800C01BF84BEC09F0A2
:102F800003C00BF802C00AF801C009F800C008F835
:102F9000080112A103D00D51800A0D6F0BC816F85D
:102FA0000AC815F809C814F808C813F81A6B196B81
:102FB000186B176B0001B9EC0AF03CE0080112A194
:102FC0001CD007531AE1D8820FC81AF80EC819F896
:102FD0000DC818F80CC817F81E6B1D6B1C6B7F0E04
:102FE0001B6F00014BEC09F003C00FF802C00EF894
:102FF00001C00DF800C00CF8080112B11CD0072D5B
:103000001AD0D8920FC81AF80EC819F80DC818F8B7
:103010000CC817F81E6B1D6B1C6B7F0E1B6F00011D
:103020004BEC09F003C00FF802C00EF801C00DF818
:1030300000C00CF8080106C816F805C815F804C841
:1030400014F803C813F81A6B196B186B176B00018F
:10305000B9EC0AF006E108010F6B0E6B0D6B0C6BFF
:1030600000010CC800F00DC801F00EC802F00FC836
:1030700003F0000C02C806F801C805F800C804F8FF
:10308000FFC703F8010E0801076F000140DEB7EF2C
:1030900018F002C806F801C805F800C804F8FFC710
:1030A00003F80801076B000132DEDBEF18F0F6C70A
:1030B00016F8F5C715F8F4C714F8F3C713F80801A4
:1030C0001A6B196B186B176B0001B9EC0AF0D8B4C6
:1030D000A1D0F2C70FF8F1C70EF8F0C70DF8EFC78F
:1030E0000CF8F6C713F8F5C712F8F4C711F8F3C7D0
:1030F00010F89CEC08F000C0FBF701C0FCF702C020
:10310000FDF703C0FEF703C016F802C015F801C0B2
:1031100014F800C013F808011A6B196B186B176BC1
:103120000001B9EC0AF024E3F2C70FF8F1C70EF87A
:10313000F0C70DF8EFC70CF8F6C713F8F5C712F88B
:10314000F4C711F8F3C710F89CEC08F000C0FBF7C7
:1031500001C0FCF702C0FDF703C0FEF703C002F890
:1031600002C001F801C000F800C0FFF783D723D0E8
:10317000F2C70FF8F1C70EF8F0C70DF8EFC70CF85B
:10318000F6C713F8F5C712F8F4C711F8F3C710F82B
:103190009CEC08F000C0FBF701C0FCF702C0FDF793
:1031A00003C0FEF703C002F802C001F801C000F836
:1031B00000C0FFF76ED703C0FAF702C0F9F701C0ED
:1031C000F8F700C0F7F7FAC716F8F9C715F8F8C707
:1031D00014F8F7C713F8F6C71AF8F5C719F8F4C7C3
:1031E00018F8F3C717F81DEC14F0D882F2C71AF8D4
:1031F000F1C719F8F0C718F8EFC717F803C01EF8A1
:1032000002C01DF801C01CF800C01BF84BEC09F00F
:1032100001D000D0000C8E0E006E0AC801F009C863
:1032200002F0036A01AE05D0011E021E022A01E16E
:10323000012A015209E102C001F0026A080E005E93
:10324000015202E1006A0DD0D89001BE04D00236CE
:1032500001360006F9D708010AAF02D0000101D0FB
:10326000019E0001000CF6C7FAF7F5C7F9F7F4C79D
:10327000F8F7F3C7F7F7FAC716F8F9C715F8F8C75C
:1032800014F8F7C713F808011A6B196B186B7F0E47
:10329000176F0001B9EC0AF0D8B49FD1070E0801EE
:1032A000096FF70EE96E09C8EAFF7E0EEF6ED8824D
:1032B000FAC71AF8F9C719F8F8C718F8F7C717F8CE
:1032C0001E6B1D6B1C6B7F0E1B6F00014BEC09F01E
:1032D00000C008F801C009F802C00AF803C00BF8E2
:1032E000D892FAC71AF8F9C719F8F8C718F8F7C743
:1032F00017F808011E6B1D6B1C6B7F0E1B6F000106
:103300004BEC09F00BC80FF80AC80EF809C80DF805
:1033100008C80CF803C013F802C012F801C011F875
:1033200000C010F89CEC08F003C0FAF702C0F9F7EF
:1033300001C0F8F700C0F7F7FAC716F8F9C715F893
:10334000F8C714F8F7C713F8FAC71AF8F9C719F845
:10335000F8C718F8F7C717F81DEC14F003C006F803
:1033600002C005F801C004F800C003F8990E080176
:10337000166F470E156F8A0E146F7F0E136F06C8F7
:103380001AF805C819F804C818F803C817F8000196
:103390001DEC14F000C008F801C009F802C00AF8DA
:1033A00003C00BF8D89203C01AF802C019F801C084
:1033B00018F800C017F808011E6B1D6B1C6B800EFF
:1033C0001B6F00014BEC09F003C0FEF702C0FDF7D4
:1033D00001C0FCF700C0FBF74C0E0801166FF30E9E
:1033E000156F3A0E146F7B0E136F06C81AF805C8D6
:1033F00019F804C818F803C817F800011DEC14F0F8
:1034000000C008F801C009F802C00AF803C00BF8B0
:10341000D89203C01AF802C019F801C018F800C009
:1034200017F82B0E08011E6F9D0E1D6FDF0E1C6F0F
:103430007E0E1B6F00014BEC09F003C002F802C0C6
:1034400001F801C000F800C0FFF702C816F801C873
:1034500015F800C814F8FFC713F806C81AF805C80D
:1034600019F804C818F803C817F81DEC14F000C0C8
:1034700008F801C009F802C00AF803C00BF8D89296
:1034800003C01AF802C019F801C018F800C017F8F4
:1034900008011E6B1D6B1C6B7F0E1B6F00014BEC3C
:1034A00009F003C002F802C001F801C000F800C032
:1034B000FFF7FAC716F8F9C715F8F8C714F8F7C7F1
:1034C00013F8FEC71AF8FDC719F8FCC718F8FBC7B0
:1034D00017F81DEC14F000C008F801C009F802C08C
:1034E0000AF803C00BF803C00FF802C00EF801C0C1
:1034F0000DF800C00CF802C813F801C812F800C893
:1035000011F8FFC710F89CEC08F003C0FEF702C0EA
:10351000FDF701C0FCF700C0FBF7070E0801096FBB
:10352000F30EE96E09C8EAFF7E0EEF5C076F07BF76
:1035300001D014D0000ED88007550A6B096F09BF5F
:103540000A07000168DE00C0FFF70150800A080189
:10355000006F02C001F803C002F810D00A6B07C860
:1035600009F809BF0A07000156DE03C002F802C0CD
:1035700001F801C000F800C0FFF7080102C816F802
:1035800001C815F800C814F8FFC713F8180E1A6F11
:10359000720E196F310E186F7E0E176F00011DEC41
:1035A00014F0D892FEC71AF8FDC719F8FCC718F82E
:1035B000FBC717F803C01EF802C01DF801C01CF8B5
:1035C00000C01BF84BEC09F003C0FEF702C0FDF78A
:1035D00001C0FCF700C0FBF706D00701FE6BFD6BD6
:1035E000FC6BFB6B0001FBC700F0FCC701F0FDC7E3
:1035F00002F0FEC703F0000CF6C716F8F5C715F881
:10360000F4C714F8F3C713F83B0E08011A6FAA0E9B
:10361000196F380E186F7F0E176F00011DEC14F034
:1036200003C016F802C015F801C014F800C013F862
:1036300069EC16F001C003F808010491F6C7FAF727
:10364000F5C7F9F7F4C7F8F7F3C7F7F7F6C716F8B1
:10365000F5C715F8F4C714F8F3C713F81A6B196B0C
:10366000186B176B0001B9EC0AF007E3080104813D
:10367000036D0701F851800AF86F0701FE6BFD6BBF
:10368000FC6BFB6B070E0801066FFB0EE96E06C8AC
:10369000EAFF7F0E0325EF6EFAC716F8F9C715F893
:1036A000F8C714F8F7C713F83B0E1A6FAA0E196F74
:1036B000380E186F7F0E176F00011DEC14F000C05C
:1036C00005F801C006F802C007F803C008F80801B1
:1036D0000A6B03C809F809BF0A0700019CDDD882FC
:1036E00008C81AF807C819F806C818F805C817F85E
:1036F00003C01EF802C01DF801C01CF800C01BF872
:103700004BEC09F003C0FAF702C0F9F701C0F8F773
:1037100000C0F7F77C0E0801166F880E156F590E62
:10372000146F720E136FFAC71AF8F9C719F8F8C7B1
:1037300018F8F7C717F800011DEC14F000C005F8E1
:1037400001C006F802C007F803C008F8D89203C009
:103750001AF802C019F801C018F800C017F8E00EF6
:1037600008011E6F970E1D6F260E1C6F750E1B6FC6
:1037700000014BEC09F003C002F802C001F801C0DF
:1037800000F800C0FFF702C816F801C815F800C815
:1037900014F8FFC713F8FAC71AF8F9C719F8F8C7E9
:1037A00018F8F7C717F81DEC14F000C005F801C0B1
:1037B00006F802C007F803C008F8D89203C01AF848
:1037C00002C019F801C018F800C017F8C40E0801AB
:1037D0001E6F1D0E1D6F1E0E1C6F780E1B6F0001DD
:1037E0004BEC09F003C002F802C001F801C000F878
:1037F00000C0FFF702C816F801C815F800C814F891
:10380000FFC713F8FAC71AF8F9C719F8F8C718F874
:10381000F7C717F81DEC14F000C005F801C006F852
:1038200002C007F803C008F8D89203C01AF802C013
:1038300019F801C018F800C017F85E0E08011E6FD5
:10384000500E1D6F630E1C6F7A0E1B6F00014BEC48
:1038500009F003C002F802C001F801C000F800C07E
:10386000FFF702C816F801C815F800C814F8FFC71A
:1038700013F8FAC71AF8F9C719F8F8C718F8F7C70C
:1038800017F81DEC14F000C005F801C006F802C0DE
:1038900007F803C008F8D89203C01AF802C019F854
:1038A00001C018F800C017F81A0E08011E6FFE0EAE
:1038B0001D6F750E1C6F7C0E1B6F00014BEC09F029
:1038C00003C002F802C001F801C000F800C0FFF711
:1038D00002C816F801C815F800C814F8FFC713F895
:1038E000FAC71AF8F9C719F8F8C718F8F7C717F898
:1038F0001DEC14F000C005F801C006F802C007F87E
:1039000003C008F8D89203C01AF802C019F801C021
:1039100018F800C017F8180E08011E6F720E1D6F00
:10392000310E1C6F7E0E1B6F00014BEC09F003C0C3
:1039300002F802C001F801C000F800C0FFF7FAC7A2
:1039400016F8F9C715F8F8C714F8F7C713F802C83E
:103950001AF801C819F800C818F8FFC717F81DECC5
:1039600014F0D89208011A6B196B186B7F0E176F41
:1039700003C01EF802C01DF801C01CF800C01BF8EF
:1039800000014BEC09F0FEC716F8FDC715F8FCC79F
:1039900014F8FBC713F803C01AF802C019F801C0E5
:1039A00018F800C017F81DEC14F003C0FEF702C0B1
:1039B000FDF701C0FCF700C0FBF7080104A119D016
:1039C0000F6B0E6B0D6B7F0E0C6FFEC713F8FDC7F0
:1039D00012F8FCC711F8FBC710F800019CEC08F0C6
:1039E00003C0FEF702C0FDF701C0FCF700C0FBF703
:1039F0000801FBC700F0FCC701F0FDC702F0FEC7DD
:103A000003F00001000CEAC716F8E9C715F8E8C78B
:103A100014F8E7C713F808011A6B196B186B176BCA
:103A20000001B9EC0AF0D8A0D9D0EEC7F2F7EDC783
:103A3000F1F7ECC7F0F7EBC7EFF70701F66BF56BA3
:103A4000F46B7F0EF36F000157EC18F000C0EFF736
:103A500001C0F0F702C0F1F703C0F2F703C016F897
:103A600002C015F801C014F800C013F808011A6B61
:103A7000196B186B176B0001B9EC0AF0D8A4AED023
:103A8000EEC7F2F7EDC7F1F7ECC7F0F7EBC7EFF7CA
:103A90000701F66BF56BF46B800EF36F000157ECCA
:103AA00018F000C0EFF701C0F0F702C0F1F703C053
:103AB000F2F703C016F802C015F801C014F800C0F0
:103AC00013F808011A6B196B186B176B0001B9EC2E
:103AD0000AF041E1E7C7EFF70701E851800AF06F0C
:103AE000E9C7F1F7EAC7F2F7EAC7F6F7E9C7F5F76A
:103AF000F46FE7C7F3F7000133EC19F000C0EFF7FC
:103B000001C0F0F702C0F1F703C0F2F703C016F8E6
:103B100002C015F801C014F800C013F8EEC71AF877
:103B2000EDC719F8ECC718F8EBC717F81DEC14F03F
:103B300000C0EFF701C0F0F702C0F1F703C0F2F7E1
:103B400003C0F6F702C0F5F701C0F4F700C0F3F7C1
:103B500053DDDED042D0E7C7EFF70701E851800A16
:103B6000F06FE9C7F1F7EAC7F2F7EAC7F6F7E9C776
:103B7000F5F7F46FE7C7F3F7000133EC19F000C075
:103B8000EFF701C0F0F702C0F1F703C0F2F703C08E
:103B900016F802C015F801C014F800C013F8EEC7FB
:103BA0001AF8EDC719F8ECC718F8EBC717F81DECB1
:103BB00014F000C0EFF701C0F0F702C0F1F703C046
:103BC000F2F703C0F6F702C0F5F701C0F4F700C042
:103BD000F3F712DD800E011A9BD09AD0EAC716F8CF
:103BE000E9C715F8E8C714F8E7C713F808011A6B16
:103BF000196B186B176B0001B9EC0AF030E3EEC7D4
:103C0000F2F7EDC7F1F7ECC7F0F7EBC7EFF70701F5
:103C1000F66BF56BF46B7F0EF36F000157EC18F049
:103C200000C0EFF701C0F0F702C0F1F703C0F2F7F0
:103C300003C016F802C015F801C014F800C013F84C
:103C400008011A6B196B186B176B0001B9EC0AF0BD
:103C500006E0006A016A026A036A5AD059D0EAC7CC
:103C600016F8E9C715F8E8C714F8E7C713F808010C
:103C70001A6B196B186B176B0001B9EC0AF012E1A3
:103C8000EEC716F8EDC715F8ECC714F8EBC713F834
:103C900008011A6B196B186B176B0001B9EC0AF06D
:103CA00001E236E1EAC7F6F7E9C7F5F7E8C7F4F746
:103CB000E7C7F3F733EC19F000C0EFF701C0F0F7F6
:103CC00002C0F1F703C0F2F703C016F802C015F8FE
:103CD00001C014F800C013F8EEC71AF8EDC719F8C0
:103CE000ECC718F8EBC717F81DEC14F000C0EFF79D
:103CF00001C0F0F702C0F1F703C0F2F703C0F6F716
:103D000002C0F5F701C0F4F700C0F3F775DC00D08E
:103D1000000C0701BE6BBD6BBC6BBB6BC26BC16B98
:103D2000C06BBF6BC66BC56BC46BC36BCA6BC96B17
:103D3000C86BC76B1B0ECE6F2F0ECD6F9D0ECC6F59
:103D4000800ECB6F730ED26F680ED16F1E0ED06FC8
:103D5000830ECF6FD70ED66F630ED56F920ED46FD2
:103D6000850ED36F9A0EDA6F190ED96F750ED86F54
:103D7000850ED76FDE6BDD6BDC6BDB6BE26BE16BB3
:103D8000E06BDF6BDE6BDD6BDC6BDB6BE26BE16BE7
:103D9000E06BDF6B020EE36F0001F1EC13F000C08B
:103DA000E3F701C0E4F702C0E5F703C0E6F703C09C
:103DB0000FF802C00EF801C00DF800C00CF80801A1
:103DC000136BC00E126F7F0E116F880E106F000103
:103DD0009CEC08F000C0E3F701C0E4F702C0E5F78F
:103DE00003C0E6F703C016F802C015F801C014F8C6
:103DF00000C013F808011A6B196B200E186F810EA2
:103E0000176F00011DEC14F003C0BEF702C0BDF730
:103E100001C0BCF700C0BBF7030E0701E36F000150
:103E2000F1EC13F000C0E3F701C0E4F702C0E5F7DE
:103E300003C0E6F703C00FF802C00EF801C00DF88A
:103E400000C00CF80801136BC00E126F7F0E116FCB
:103E5000880E106F00019CEC08F000C0E3F701C071
:103E6000E4F702C0E5F703C0E6F703C016F802C0A6
:103E700015F801C014F800C013F808011A6B196B8B
:103E8000200E186F810E176F00011DEC14F003C097
:103E9000CAF702C0C9F701C0C8F700C0C7F7BEC75C
:103EA00016F8BDC715F8BCC714F8BBC713F808014E
:103EB0001A6B196B7A0E186F880E176F00011DECC4
:103EC00014F003C0BEF702C0BDF701C0BCF700C0CC
:103ED000BBF7CAC7EAF7C9C7E9F7C8C7E8F7C7C752
:103EE000E7F70701EE6BED6B400EEC6F800EEB6FAA
:103EF000000189DD00C0E3F701C0E4F702C0E5F787
:103F000003C0E6F703C016F802C015F801C014F8A4
:103F100000C013F8CEC71AF8CDC719F8CCC718F8E7
:103F2000CBC717F81DEC14F000C0E3F701C0E4F7AD
:103F300002C0E5F703C0E6F7CAC7EAF7C9C7E9F761
:103F4000C8C7E8F7C7C7E7F70701EE6BED6BEC6B87
:103F5000800EEB6F000157DD00C0E7F701C0E8F706
:103F600002C0E9F703C0EAF703C016F802C015F86B
:103F700001C014F800C013F8D2C71AF8D1C719F855
:103F8000D0C718F8CFC717F81DEC14F0EACFE8F740
:103F9000E9CFE7F7D892E6C71AF8E5C719F8E4C7FA
:103FA00018F8E3C717F803C01EF802C01DF801C0D7
:103FB0001CF800C01BF84BEC09F0E8C7EAFFE7C7A4
:103FC000E9FF00C0E3F701C0E4F702C0E5F703C072
:103FD000E6F7CAC716F8C9C715F8C8C714F8C7C79F
:103FE00013F8D6C71AF8D5C719F8D4C718F8D3C725
:103FF00017F81DEC14F0EACFEAF7E9CFE9F7D89209
:10400000E6C71AF8E5C719F8E4C718F8E3C717F8C0
:1040100003C01EF802C01DF801C01CF800C01BF848
:104020004BEC09F0EAC7EAFFE9C7E9FF00C0E3F794
:1040300001C0E4F702C0E5F703C0E6F7EACFECF70A
:10404000E9CFEBF7D89203C01AF802C019F801C003
:1040500018F800C017F8DAC71EF8D9C71DF8D8C776
:104060001CF8D7C71BF84BEC09F0ECC7EAFFEBC70D
:10407000E9FF03C0C6F702C0C5F701C0C4F700C01E
:10408000C3F7C6C7E3F5C5C7E2F5C4C7E1F5C3C7C3
:10409000E0F5010E0701BA5D05019F5D02E001E355
:1040A0009F6B0701E46B9FC5E3F7E66B040EE56FBA
:1040B000000187EC0AF00150A10FE96E030E022007
:1040C000EA6EC3C7EFFFC4C7ECFFC5C7ECFFC6C7A6
:1040D000ECFF05019F2B8C6B0701BA5105018C5D2C
:1040E00040E20701E46B8CC5E3F7E66B040EE56F75
:1040F000000187EC0AF002C003F00150A10FE96E45
:10410000030E0220EA6EEFCF00F0ECCF01F0ECCF0F
:1041100002F0ECCF03F0EACFE4F7E9CFE3F7D8926F
:10412000E2C71AF8E1C719F8E0C718F8DFC717F8AF
:1041300003C01EF802C01DF801C01CF800C01BF827
:104140004BEC09F0E4C7EAFFE3C7E9FF03C0E2F77D
:1041500002C0E1F701C0E0F700C0DFF705018C2BDA
:10416000BBD70801186BBAC717F800016DEC08F04F
:10417000E2C70FF8E1C70EF8E0C70DF8DFC70CF88B
:1041800003C013F802C012F801C011F800C010F803
:104190009CEC08F003C0E2F702C0E1F701C0E0F7D1
:1041A00000C0DFF7BEC7EAF7BDC7E9F7BCC7E8F74D
:1041B000BBC7E7F70701EE6BED6B400EEC6F800EAF
:1041C000EB6F000120DC8D0E0801166FFB0E156FE2
:1041D000830E146F620E136F03C01AF802C019F831
:1041E00001C018F800C017F800011DEC14F000C061
:1041F000E3F701C0E4F702C0E5F703C0E6F7BEC786
:10420000EAF7BDC7E9F7BCC7E8F7BBC7E7F707019F
:10421000EE6BED6BEC6B800EEB6F000103EC1DF0B1
:10422000AE0E0801166F160E156F710E146F6E0E1E
:10423000136F03C01AF802C019F801C018F800C0C3
:1042400017F800011DEC14F0EACFE8F7E9CFE7F723
:10425000D892E6C71AF8E5C719F8E4C718F8E3C713
:1042600017F803C01EF802C01DF801C01CF800C0FA
:104270001BF84BEC09F0E8C7EAFFE7C7E9FF00C00D
:10428000E3F701C0E4F702C0E5F703C0E6F7DB0E91
:104290000801166F320E156F600E146F760E136FD5
:1042A000BEC71AF8BDC719F8BCC718F8BBC717F8BE
:1042B00000011DEC14F0EACFEAF7E9CFE9F7D89254
:1042C000E6C71AF8E5C719F8E4C718F8E3C717F8FE
:1042D00003C01EF802C01DF801C01CF800C01BF886
:1042E0004BEC09F0EAC7EAFFE9C7E9FF00C0E3F7D2
:1042F00001C0E4F702C0E5F703C0E6F7EACFECF748
:10430000E9CFEBF7D88203C01AF802C019F801C050
:1043100018F800C017F8660E08011E6F1D6F460ED4
:104320001C6F820E1B6F00014BEC09F0ECC7EAFF1B
:10433000EBC7E9FF00C0E3F701C0E4F702C0E5F70F
:1043400003C0E6F7EACFEEF7E9CFEDF7D882E2C790
:104350001AF8E1C719F8E0C718F8DFC717F808011D
:104360001E6B1D6B380E1C6F830E1B6F00014BEC18
:1043700009F0EEC7EAFFEDC7E9FF00C0EFF701C0A3
:10438000F0F702C0F1F703C0F2F703C016F802C05D
:1043900015F801C014F800C013F8520E08011A6F86
:1043A000490E196F1D0E186F760E176F00011DEC68
:1043B00014F0EACFF0F7E9CFEFF7D89208011A6BC3
:1043C000196B186B7F0E176F03C01EF802C01DF823
:1043D00001C01CF800C01BF800014BEC09F0F0C74D
:1043E000EAFFEFC7E9FFE6C70FF8E5C70EF8E4C735
:1043F0000DF8E3C70CF803C013F802C012F801C0AF
:1044000011F800C010F89CEC08F003C0C2F702C01D
:10441000C1F701C0C0F700C0BFF79A0E0801166FC0
:10442000990E156F190E146F7A0E136FBEC71AF816
:10443000BDC719F8BCC718F8BBC717F800011DECB9
:1044400014F000C0E3F701C0E4F702C0E5F703C0D1
:10445000E6F7D88203C01AF802C019F801C018F8AC
:1044600000C017F8CD0E08011E6FCC0E1D6F160E82
:104470001C6F840E1B6F00014BEC09F003C0E7F5C5
:1044800002C0E6F501C0E5F500C0E4F5010E070144
:10449000BA5D0501BD5D02E001E3BD6B0701E46BA0
:1044A000BDC5E3F7E66B040EE56F000187EC0AF08B
:1044B0000150C10FE96E010E0220EA6EBFC7EFFF87
:1044C000C0C7ECFFC1C7ECFFC2C7ECFF0501BD2BA5
:1044D0008C6B0701BA5105018C5D40E20701E46B6A
:1044E0008CC5E3F7E66B040EE56F000187EC0AF07C
:1044F00002C003F00150C10FE96E010E0220EA6E06
:10450000EFCF00F0ECCF01F0ECCF02F0ECCF03F0F6
:10451000EACFE4F7E9CFE3F7D892DEC71AF8DDC7B0
:1045200019F8DCC718F8DBC717F803C01EF802C07B
:104530001DF801C01CF800C01BF84BEC09F0E4C7E3
:10454000EAFFE3C7E9FF03C0DEF702C0DDF701C001
:10455000DCF700C0DBF705018C2BBBD70801186B1B
:10456000BAC717F800016DEC08F0DEC70FF8DDC719
:104570000EF8DCC70DF8DBC70CF803C013F802C057
:1045800012F801C011F800C010F89CEC08F003C04C
:10459000DEF702C0DDF701C0DCF700C0DBF7DBC7E8
:1045A00000F0DCC701F0DDC702F0DEC703F0000C4D
:1045B000BFC7C0F70701C039006E0F0E00160050CC
:1045C0000A0DF3CFBFF7C039006EF00E0016005091
:1045D000003A0F0E00160050BF27BFC701F00001C0
:1045E000000C0501C6510508D8A4A4D035C02AF096
:1045F00036C02BF037C02CF038C02DF039C02EF06B
:104600003AC02FF03BC030F03CC031F03DC032F03A
:104610003EC033F02D2C07D0BE6BBE51C75D02E00B
:10462000BEC5C7F586D02D50020808E1010EBE6F49
:10463000BE51C75D02E0BEC5C7F57BD02D50040852
:1046400008E1020EBE6FBE51C75D02E0BEC5C7F5F0
:1046500070D02D50050808E1030EBE6FBE51C75D36
:1046600002E0BEC5C7F565D02D50060808E1040E6E
:10467000BE6FBE51C75D02E0BEC5C7F55AD02D5012
:10468000070808E1060EBE6FBE51C75D02E0BEC559
:10469000C7F54FD02D50080808E1070EBE6FBE5178
:1046A000C75D02E0BEC5C7F544D02D50090808E13A
:1046B000080EBE6FBE51C75D02E0BEC5C7F539D05A
:1046C0002D500F0801E135D02D501A0808E1140EC5
:1046D000BE6FBE51C75D02E0BEC5C7F52AD02D50E2
:1046E0001B0808E10F0EBE6FBE51C75D02E0BEC5DC
:1046F000C7F51FD02D501C0808E1100EBE6FBE512B
:10470000C75D02E0BEC5C7F514D02D502C0808E1E6
:10471000640EBE6FBE51C75D02E0BEC5C7F509D0CD
:104720002D50CC0806E1F00EBE6FC751F00801E035
:10473000FF0006D0996B9951090802E3992BFBD72A
:10474000000186EF3FF08C9E959E8B9494948B9203
:1047500094928B9094908B9694968C9095908C924A
:1047600095928B9A949A8B9894988C9695968C9413
:1047700095948D9296928D949694000C0900F6CFA4
:10478000C3F7F7CFC4F7F8CFC5F7F5509EA8FED70B
:10479000AD6EC3C7F6FFC4C7F7FFC5C7F8FF070173
:1047A000C22F01D002D00001E9D70001000C07019F
:1047B000C451016AC35D03E2C3C700F00CD0006AB4
:1047C000080EC56FC3370036C451005CD8B0006E08
:1047D0000136C52FF7D70001000C0150BBC7C3F746
:1047E000640E0701C46F0001E2DF00C0BBF7015097
:1047F000300E08E10701BCA30ED0BCB70CD0BCB989
:10480000200E04D00701BC97BC99BC810126015041
:104810009EA8FED7AD6EBBC7C3F70A0EC46F0001DA
:10482000C6DF00C0BBF70150300E08E10701BCB77E
:104830000BD0BCA109D0BCB9200E0001012601504B
:104840009EA8FED7AD6E0701300EBB27BB519EA8B8
:10485000FED7AD6E0001000C0701CF51B608CF6F37
:10486000036AD0C7D3F7D08FD890D033D133D233A7
:104870000332023201320032CF2FF6D7D3AF0BD042
:10488000001E011E021E031E002AD8B4012AD8B43D
:10489000022AD8B4032A0001BBEF24F0006A016A9F
:1048A000026A036A0701D76BD86BD96BDA6BD651F2
:1048B000D511D411D3112CE0200EDB6FD890CF3757
:1048C000D037D137D237D737D837D937DA37D6516B
:1048D000DA5D08E1D551D95D05E1D451D85D02E139
:1048E000D351D75D0FE3D351D75FD451D8A0D43D76
:1048F000D85FD551D8A0D53DD95FD651D8A0D63DE7
:10490000DA5FD8800036013602360336DB2FD6D781
:10491000070EEA6ED70EE96E0001000CE9500701A0
:10492000C76FC651C96F1DE0C5C716F8C4C715F8D3
:10493000C3C714F8C2C713F808011A6B196B200E0D
:10494000186F820E176F00011DEC14F003C0C5F73D
:1049500002C0C4F701C0C3F700C0C2F70701C92FE6
:10496000E3D7C5C7D2F7C4C7D1F7C3C7D0F7C2C70B
:10497000CFF7000171D703C0C5F702C0C4F701C06B
:10498000C3F700C0C2F70701C5AF0DD0C707C78B7B
:10499000C21FC31FC41FC51FC22BD8B4C32BD8B49A
:1049A000C42BD8B4C52B3B0ECE6F9A0ECD6FCA0E5A
:1049B000CC6FCB6B0A0EC96FC651D8B4C72BC5C715
:1049C000D2F7C4C7D1F7C3C7D0F7C2C7CFF7CEC796
:1049D000D6F7CDC7D5F7CCC7D4F7CBC7D3F70001EF
:1049E0005DDF0150EFCFC2F7ECCFC3F7ECCFC4F7D8
:1049F000ECCFC5F7005213E10701C629C95DD8A461
:104A000002D000010CD0C7510DE00F0BC95D01E0D1
:104A10003CE2C7BF3AD0C7BD05D0200E31D0200E32
:104A20000701C717C7AB0DD0C79BC651D8A4C7078E
:104A30000050C76F2D0E9EA8FED7AD6EC751006EF9
:104A4000C76BC651C95D0BE10050C76F2E0E9EA803
:104A5000FED7AD6EC751006E200EC717000E300E88
:104A6000C7AB0ED0C79BC651D8A4C7070050C76FAD
:104A70002D0E9EA8FED7AD6EC751006EC76B300ECF
:104A8000002600509EA8FED7AD6ECEC7D2F7CDC788
:104A9000D1F7CCC7D0F7CBC7CFF7D66BD56BD46BDC
:104AA0000A0ED36F0001FADE03C0CEF702C0CDF7C5
:104AB00001C0CCF700C0CBF70701C92F80D7000198
:104AC000000C0701C66BC56BC46BC36BCA6BC96BAB
:104AD000C86BC76BC2C716F8C1C715F8C0C714F8B2
:104AE000BFC713F8000169EC16F00801186B01C08C
:104AF00017F800016DEC08F003C0C6F702C0C5F757
:104B000001C0C4F700C0C3F7D882C2C71AF8C1C732
:104B100019F8C0C718F8BFC717F8C6C71EF8C5C729
:104B20001DF8C4C71CF8C3C71BF84BEC09F000C044
:104B3000CBF701C0CCF702C0CDF703C0CEF703C05E
:104B400016F802C015F801C014F800C013F80801E7
:104B50001A6B196B200E186F820E176F00011DEC77
:104B600014F003C0CAF702C0C9F701C0C8F700C0FB
:104B7000C7F7CAC716F8C9C715F8C8C714F8C7C712
:104B800013F869EC16F00150000C016A026A006A21
:104B9000036A0701BE5102E1BD5118E0100EBF6F5C
:104BA000D890BB37BC3700360336BE51035C02E1F8
:104BB000BD51005C07E3BD51005ED8A00306BE51A5
:104BC000035ED88001360236BF2FEAD70001FFEF1F
:104BD00025F00701BA51030B09E1BAC7C3F7640E08
:104BE000C46F0001E4DD005218E10701BC6BBAC7D5
:104BF000BBF7010EBE6F900EBD6F0001C6D700C09F
:104C0000BBF7070103C0BCF7BB5305E1BC53D8A4F5
:104C100002D0000102D0000E02D0010E0701016E89
:104C20000001000CC0C7C3F70A0E0701C46F0001E2
:104C3000BEDD01C0C1F70701C1510A0DF350C05DCF
:104C4000C26FC139006EF00E00160050C211016E25
:104C50000001000CBAC7C0F7E5DF01C0C0F7860E3F
:104C60000701C16F01C0C2F700015EEC13F0BBC7C2
:104C7000C0F7D8DF01C0C0F7880E0701C16F01C0BF
:104C8000C2F700015EEC13F0BCC7C0F7CBDF01C078
:104C9000C0F78C0E0701C16F01C0C2F700015EECC6
:104CA00013F0BDC7C0F7BEDF01C0C0F78A0E070111
:104CB000C16F01C0C2F700015EEC13F0BEC7C0F7C0
:104CC000B1DF01C0C0F7840E0701C16F01C0C2F798
:104CD00000015EEC13F0BFC7C0F7A4DF01C0C0F74E
:104CE000820E0701C16F01C0C2F700015EEC13F034
:104CF0000701C06B000196DF01C0C0F7800E0701FD
:104D0000C16F01C0C2F700015EEC13F0D4EF57F0A1
:104D1000060188510C0802E20A0E886F89511F08AB
:104D200002E2100E896F8751630802E2120E876F4C
:104D30008A51180802E20B0E8A6F8B513B0802E27F
:104D40001E0E8B6F8851020815E187C6BAF7000165
:104D500040DF015208E0060189511D0802E21D0EE4
:104D6000896F07D00001060189511C0802E21C0E60
:104D7000896F15D08851070809E38851010B05E1B7
:104D800089511E0802E21E0E896F09D08851010B5D
:104D9000010805E189511E0802E21E0E896F00011B
:104DA00037EF59F005018BAB18D06BC616F86AC601
:104DB00015F869C614F868C613F808011A6B196B60
:104DC000186B176B0001B9EC0AF0D8A402D00501EA
:104DD00004D0010E0501C36F46D08BAB1CD06BC64F
:104DE00016F86AC615F869C614F868C613F80801FB
:104DF0001A6B196B186B176B0001B9EC0AF0D8B479
:104E000002D0050108D005018AAF03D0010EC36F9F
:104E100001D0C36B28D08BB504D08BB702D0C36B45
:104E200022D08BA509D08BB707D08AAF03D0010E53
:104E3000C36F01D0C36B17D08BB509D08BA707D038
:104E40008AAD03D0010EC36F01D0C36B0CD08BA50C
:104E50000AD08BA708D08AAF05D08AAD03D0010E47
:104E6000C36F01D0C36B0001000C05018BAF15D1DE
:104E7000D88237C61AF836C619F835C618F834C6B7
:104E800017F808011E6B1D6B1C6B800E1B6F000159
:104E90004BEC09F01FC616F81EC615F81DC614F80F
:104EA0001CC613F803C01AF802C019F801C018F89C
:104EB00000C017F8B9EC0AF018E3440EF66E010EC4
:104EC000F76E000EF86EBDEC13F0D6EC13F08D9279
:104ED0009692938C81BC03D08D84969402D08D944D
:104EE000969405018A9DD6D00001D88237C61AF85B
:104EF00036C619F835C618F834C617F8CD0E0801AD
:104F00001E6FCC0E1D6F4C0E1C6F7B0E1B6F0001B5
:104F10004BEC09F01FC616F81EC615F81DC614F88E
:104F20001CC613F803C01AF802C019F801C018F81B
:104F300000C017F8B9EC0AF042E3D88237C61AF875
:104F400036C619F835C618F834C617F8660E0801C3
:104F50001E6F1D6F1C6F7F0E1B6F00014BEC09F065
:104F600003C016F802C015F801C014F800C013F809
:104F70001FC61AF81EC619F81DC618F81CC617F861
:104F8000B9EC0AF01CE3600EF66E010EF76E000E2F
:104F9000F86EBDEC13F0D6EC13F08D929692938CD4
:104FA00081BC03D08D84969402D08D949694050193
:104FB0008AB702D08A8D01D08A9D6CD0000137C695
:104FC00016F836C615F835C614F834C613F81FC6D9
:104FD0001AF81EC619F81DC618F81CC617F8B9EC41
:104FE0000AF031E3D89237C61AF836C619F835C632
:104FF00018F834C617F808011E6B1D6B1C6B800E69
:105000001B6F00014BEC09F01FC616F81EC615F801
:105010001DC614F81CC613F803C01AF802C019F80C
:1050200001C018F800C017F8B9EC0AF00CE38D9431
:1050300096948D92969205018AB702D08A8D01D0FE
:105040008A9D28D00001D89237C61AF836C619F8BA
:1050500035C618F834C617F808011E6B1D6B1C6B9B
:10506000800E1B6F00014BEC09F003C016F802C064
:1050700015F801C014F800C013F81FC61AF81EC6B0
:1050800019F81DC618F81CC617F8B9EC0AF003E3A6
:1050900005018B9F000107D10501D89237C61AF888
:1050A00036C619F835C618F834C617F808011E6B4D
:1050B0001D6B1C6B800E1B6F00014BEC09F003C0D5
:1050C00016F802C015F801C014F800C013F81FC686
:1050D0001AF81EC619F81DC618F81CC617F8B9EC40
:1050E0000AF012E37A0EF66E010EF76E000EF86EFD
:1050F000BDEC13F0D6EC13F08D8296928D949694BD
:1051000005018A9DD0D0000137C616F836C615F8BD
:1051100035C614F834C613F81FC61AF81EC619F897
:105120001DC618F81CC617F8B9EC0AF03CE3D89273
:1051300037C61AF836C619F835C618F834C617F83F
:10514000660E08011E6F1D6F1C6F7F0E1B6F000126
:105150004BEC09F01FC616F81EC615F81DC614F84C
:105160001CC613F803C01AF802C019F801C018F8D9
:1051700000C017F8B9EC0AF016E39A0EF66E010EAD
:10518000F76E000EF86EBDEC13F0D6EC13F08D82C6
:1051900096928D94969405018AB702D08A8D01D09B
:1051A0008A9D81D00001D88237C61AF836C619F810
:1051B00035C618F834C617F8CD0E08011E6FCC0E90
:1051C0001D6F4C0E1C6F7B0E1B6F00014BEC09F02A
:1051D0001FC616F81EC615F81DC614F81CC613F80F
:1051E00003C01AF802C019F801C018F800C017F877
:1051F000B9EC0AF031E3D88237C61AF836C619F886
:1052000035C618F834C617F808011E6B1D6B1C6BE9
:10521000800E1B6F00014BEC09F003C016F802C0B2
:1052200015F801C014F800C013F81FC61AF81EC6FE
:1052300019F81DC618F81CC617F8B9EC0AF00CE3EB
:105240008D9496948D92969205018AB702D08A8D9C
:1052500001D08A9D28D00001D88237C61AF836C6F8
:1052600019F835C618F834C617F808011E6B1D6BFF
:105270001C6B800E1B6F00014BEC09F01FC616F86B
:105280001EC615F81DC614F81CC613F803C01AF87C
:1052900002C019F801C018F800C017F8B9EC0AF0FC
:1052A00002E305018B8F0001000C0501BB51040DC9
:1052B000F350036A810FE96E050E0320EA6E24C6DF
:1052C000EFFF25C6ECFF26C6ECFF27C6ECFFBB2B85
:1052D000BB510108D8B02DD1BB6BD88288C51AF854
:1052E00087C519F886C518F885C517F884C51EF84E
:1052F00083C51DF882C51CF881C51BF800014BEC65
:1053000009F003C023F602C022F601C021F600C056
:1053100020F6B9C55BF6B8C55AF6B7C559F6B6C595
:1053200058F6B5C55FF6B4C55EF6B3C55DF6B2C551
:105330005CF65BC616F85AC615F859C614F858C676
:1053400013F808011A6B196B610E186F8A0E176F2C
:1053500000011DEC14F000C0BAF701C0BBF702C099
:10536000BCF703C0BDF75FC616F85EC615F85DC68C
:1053700014F85CC613F808011A6B196B700E186FDD
:10538000840E176F00011DEC14F0D892BDC71AF8F7
:10539000BCC719F8BBC718F8BAC717F803C01EF87E
:1053A00002C01DF801C01CF800C01BF84BEC09F04E
:1053B00000C0BAF701C0BBF702C0BCF703C0BDF71D
:1053C000CFC518F8CEC517F86DEC08F0D892BDC758
:1053D0001AF8BCC719F8BBC718F8BAC717F803C042
:1053E0001EF802C01DF801C01CF800C01BF84BECF1
:1053F00009F0D8824FC61AF84EC619F84DC618F8EB
:105400004CC617F803C01EF802C01DF801C01CF8F6
:1054100000C01BF84BEC09F003C053F602C052F673
:1054200001C051F600C050F6D8822FC61AF82EC619
:1054300019F82DC618F82CC617F827C61EF826C668
:105440001DF825C61CF824C61BF84BEC09F000C05B
:10545000BAF701C0BBF702C0BCF703C0BDF703C079
:105460000FF802C00EF801C00DF800C00CF853C6CA
:1054700013F852C612F851C611F850C610F89CEC39
:1054800008F003C057F602C056F601C055F600C03A
:1054900054F657C616F856C615F855C614F854C62D
:1054A00013F808011A6B196B200E186F830E176F13
:1054B00000011DEC14F000C0BAF701C0BBF702C038
:1054C000BCF703C0BDF7D88203C01AF802C019F8B0
:1054D00001C018F800C017F823C61EF822C61DF830
:1054E00021C61CF820C61BF84BEC09F003C06FF670
:1054F00002C06EF601C06DF600C06CF66FC616F8FD
:105500006EC615F86DC614F86CC613F808011A6B50
:10551000196B200E186F810E176F00011DEC14F02F
:1055200003C06FF602C06EF601C06DF600C06CF6E7
:1055300005010001000C05018BBB08D09751915D5E
:1055400004E30001B2DE0501916B07D09151090817
:1055500004E20001AADE0501916B8B8894988BAB65
:105560005DD3A153D8A42DD18BBD2AD194C616F8F2
:1055700093C615F892C614F891C613F808011A6B71
:10558000196B610E186F8A0E176F00011DEC14F075
:1055900000C0BAF701C0BBF702C0BCF703C0BDF73B
:1055A00098C616F897C615F896C614F895C613F857
:1055B00008011A6B196B700E186F840E176F0001BB
:1055C0001DEC14F0D892BDC71AF8BCC719F8BBC7B8
:1055D00018F8BAC717F803C01EF802C01DF801C0BA
:1055E0001CF800C01BF84BEC09F003C04FF602C0DA
:1055F0004EF601C04DF600C04CF69CC62FF69BC679
:105600002EF69AC62DF699C62CF6D8822FC61AF811
:105610002EC619F82DC618F82CC617F84BC61EF85A
:105620004AC61DF849C61CF848C61BF84BEC09F0E1
:1056300000C0BAF701C0BBF702C0BCF703C0BDF79A
:1056400003C00FF802C00EF801C00DF800C00CF83E
:105650004FC613F84EC612F84DC611F84CC610F8D6
:105660009CEC08F003C06BF602C06AF601C069F654
:1056700000C068F694C6A9F593C6A8F592C6A7F52A
:1056800091C6A6F598C6A5F597C6A4F596C6A3F546
:1056900095C6A2F505018B8D0A0E0701E86F000182
:1056A00088EC08F02FC616F82EC615F82DC614F88B
:1056B0002CC613F827C61AF826C619F825C618F8F6
:1056C00024C617F8B9EC0AF030E3010E0501946F17
:1056D0002FC60FF82EC60EF82DC60DF82CC60CF8E6
:1056E0000801136B126B320E116F840E106F0001E4
:1056F0009CEC08F00FC616F80EC615F80DC614F887
:105700000CC613F803C01AF802C019F801C018F843
:1057100000C017F81DEC14F003C00BF602C00AF627
:1057200001C009F600C008F64AD00501946B2FC6E7
:105730000FF82EC60EF82DC60DF82CC60CF8080171
:10574000136B126B320E116F840E106F00019CEC04
:1057500008F00FC616F80EC615F80DC614F80CC6DC
:1057600013F803C01AF802C019F801C018F800C0F5
:1057700017F81DEC14F003C00BF602C00AF601C0C6
:1057800009F600C008F63D0E0801166F0A0E156FE7
:10579000570E146F7C0E136F2FC61AF82EC619F809
:1057A0002DC618F82CC617F800011DEC14F003C024
:1057B000DFF502C0DEF501C0DDF500C0DCF5050156
:1057C0002DD28BBD2BD20701E46BA1C5E3F7E66BAD
:1057D0000F0EE56F000187EC0AF001C0BAF7030E67
:1057E00007010124016E000E0220036E01508E0F8E
:1057F000E96E060E0320EA6EEFCFBAF7ECCFBBF7E7
:10580000ECCFBCF7ECCFBDF7BDC716F8BCC715F899
:10581000BBC714F8BAC713F808011A6B196B610EED
:10582000186F8A0E176F00011DEC14F000C0BAF754
:1058300001C0BBF702C0BCF703C0BDF70701E46BB2
:10584000A1C5E3F7E66B0F0EE56F000187EC0AF0E8
:1058500001C0BEF7070E07010124016E000E0220F1
:10586000036E01508E0FE96E060E0320EA6EEFCF35
:10587000BEF7ECCFBFF7ECCFC0F7ECCFC1F7C1C795
:1058800016F8C0C715F8BFC714F8BEC713F808014B
:105890001A6B196B700E186F840E176F00011DECD8
:1058A00014F0EACFBFF7E9CFBEF7D892BDC71AF818
:1058B000BCC719F8BBC718F8BAC717F803C01EF859
:1058C00002C01DF801C01CF800C01BF84BEC09F029
:1058D000BFC7EAFFBEC7E9FF03C04FF602C04EF6DE
:1058E00001C04DF600C04CF60701E46BA1C5E3F71B
:1058F000E66B0F0EE56F000187EC0AF002C0BBF704
:1059000001C0BAF70B0E07010124016E000E022040
:10591000036E01508E0FE96E060E0320EA6EEFCF84
:1059200000F0ECCF01F0ECCF02F0ECCF03F003C0BD
:105930002FF602C02EF601C02DF600C02CF6E46B47
:10594000A1C5E3F7E66B0F0EE56F000187EC0AF0E7
:1059500001C0BAF70B0E07010124016E000E0220F0
:10596000036E01508E0FE96E060E0320EA6EEFCF34
:10597000BAF7ECCFBBF7ECCFBCF7ECCFBDF7010E1D
:105980000501A15D0701BF6FE46BE36FE66B0F0ECE
:10599000E56F000187EC0AF002C0BFF701C0BEF757
:1059A0000B0E07010124016E000E0220036E015050
:1059B0008E0FE96E060E0320EA6EEFCF00F0ECCFFB
:1059C00001F0ECCF02F0ECCF03F0EACFBFF7E9CF64
:1059D000BEF7D882BDC71AF8BCC719F8BBC718F8FC
:1059E000BAC717F803C01EF802C01DF801C01CF8A2
:1059F00000C01BF800014BEC09F0BFC7EAFFBEC7AF
:105A0000E9FF00C0BAF701C0BBF702C0BCF703C092
:105A1000BDF703C00FF802C00EF801C00DF800C0BA
:105A20000CF84FC613F84EC612F84DC611F84CC606
:105A300010F89CEC08F003C06BF602C06AF601C0D7
:105A400069F600C068F60701E46BA1C5E3F7E66BF1
:105A50000F0EE56F000187EC0AF002C0BBF701C032
:105A6000BAF7030E07010124016E000E0220036E37
:105A700001508E0FE96E060E0320EA6EEFCF00F0A4
:105A8000ECCF01F0ECCF02F0ECCF03F003C0A9F5AE
:105A900002C0A8F501C0A7F500C0A6F5E46BA1C53A
:105AA000E3F7E66B0F0EE56F000187EC0AF002C02A
:105AB000BBF701C0BAF7070E07010124016E000E03
:105AC0000220036E01508E0FE96E060E0320EA6E6F
:105AD000EFCF00F0ECCF01F0ECCF02F0ECCF03F011
