:04000000B3EF9DF0CD
:080008005DEF00F000000000B4
:100010000000000000000000046ED8CF05F0E0CF23
:1000200006F00001E9CF0CF0EACF07F0E1CF08F0CD
:10003000E2CF09F0D9CF0AF0DACF0BF0F3CF12F00C
:10004000F4CF13F0FACF14F0FBCF15F000C00EF090
:1000500001C00FF002C010F003C011F09DA034EFFA
:1000600000F09EB05CEF08F09DA23AEF00F09EB267
:100070003EEF09F00EC000F00FC001F010C002F01A
:1000800011C003F00CC0E9FF07C0EAFF078E08C0EB
:10009000E1FF09C0E2FF0AC0D9FF0BC0DAFF12C0BE
:1000A000F3FF13C0F4FF14C0FAFF15C0FBFF0450A8
:1000B00006C0E0FF05C0D8FF1000176ED8CF18F0BB
:1000C000E0CF19F00001E9CF1FF0EACF1AF0E1CF3D
:1000D0001BF0E2CF1CF0D9CF1DF0DACF1EF0F3CF2A
:1000E00025F0F4CF26F0FACF27F0FBCF28F000C0A0
:1000F00021F001C022F002C023F003C024F09DAA29
:1001000085EF00F09EBA2CEF08F021C000F022C06D
:1001100001F023C002F024C003F01FC0E9FF1AC0A1
:10012000EAFF1A8E1BC0E1FF1CC0E2FF1DC0D9FF11
:100130001EC0DAFF25C0F3FF26C0F4FF27C0FAFF78
:1001400028C0FBFF175019C0E0FF18C0D8FF1000EF
:10015000737461747573542E7478743D22215465E0
:10016000726D6F737461746F212200007374617417
:100170007573542E7478743D22436F6E74726F6C75
:10018000616E646F2200737461747573542E747899
:10019000743D224D6573657461220000737461744F
:1001A0007573542E7478743D2252616D7061202DE8
:1001B0002200737461747573542E7478743D2245F3
:1001C0006E667269616E646F220073746174757318
:1001D000542E7478743D22436F6E74726F6C616E2E
:1001E000646F2200737461747573542E7478743D57
:1001F000224D6573657461220000737461747573B8
:10020000542E7478743D2252616D7061202B22004F
:10021000737461747573542E7478743D2243616CE9
:10022000656E74616E646F2200007374617475731F
:10023000542E7478743D22215465726D6F7374610D
:10024000746F21220000737461747573542E747876
:10025000743D22436F6E74726F6C616E646F202DFB
:100260002200737461747573542E7478743D224542
:100270006E667269616E646F220073746174757367
:10028000542E7478743D22436F6E74726F6C616E7D
:10029000646F202B2200737461747573542E74780C
:1002A000743D2243616C656E74616E646F22000060
:1002B000737461747573542E7478743D222154657F
:1002C0006D702E2042616A61212200007374617496
:1002D0007573542E7478743D222154656D702E20F0
:1002E000416C746121220000737461747573542E23
:1002F0007478743D22436F6E74726F6C616E646FBC
:10030000202D2200737461747573542E7478743DBB
:1003100022436F6E74726F6C616E646F202D2200C9
:10032000737461747573542E7478743D22456E66CF
:100330007269616E646F2200737461747573542EF8
:100340007478743D22436F6E74726F6C616E646F6B
:10035000202B2200737461747573542E7478743D6D
:1003600022436F6E74726F6C616E646F202B22007B
:10037000737461747573542E7478743D2243616C88
:10038000656E74616E646F22000074254C752E7466
:1003900078743D22253032753A25303275220000BE
:1003A000737461747573482E7478743D2221487596
:1003B0006D2E2042616A612122007374617475732D
:1003C000482E7478743D222148756D2E20416C743E
:1003D00061212200737461747573482E7478743DC2
:1003E0002248756D696469666963616E646F220095
:1003F000737461747573482E7478743D22436F6E04
:1004000074726F6C616E646F2200737461747573C3
:10041000482E7478743D22436F6E74726F6C616EF7
:10042000646F2200737461747573482E7478743D20
:100430002244657368756D696469666963616E6499
:100440006F220000737461747573482E7478743D64
:1004500022436F6E74726F6C616E646F22007374EE
:1004600061747573482E7478743D22436F6E747294
:100470006F6C616E646F220066656368612E7478CC
:10048000743D2246656368613A253032752F253008
:1004900032752F32302530327520202020486F727F
:1004A000613A20253032753A253032753A2530329E
:1004B0007522000070616765205072696E63697013
:1004C000616C0000746D696E7365632E7478743DA1
:1004D0002225303275220000747365637365632EC4
:1004E0007478743D22253032752200007061676592
:1004F0002052616D70617300746D696E7365632E57
:100500007478743D2225303275220000747365635F
:100510007365632E7478743D222530327522000095
:1005200063302E76616C3D31000063312E76616C54
:100530003D30000063322E76616C3D300000633048
:100540002E76616C3D30000063312E76616C3D315A
:10055000000063322E76616C3D30000063302E76F1
:10056000616C3D30000063312E76616C3D300000DF
:1005700063322E76616C3D31000066656368612EE2
:100580007478743D2246656368613A253032752F70
:10059000253032752F32302530327520202020480A
:1005A0006F72613A20253032753A253032753A251E
:1005B0003032752200007473657474656D2E747822
:1005C000743D2225322E316622007061676520500D
:1005D00072696E636970616C000074736574746530
:1005E0006D2E7478743D2225322E316622007061A2
:1005F00067652052616D7061730066656368612E86
:100600007478743D2246656368613A253032752FEF
:10061000253032752F323025303275202020204889
:100620006F72613A20253032753A253032753A259D
:1006300030327522000063302E76616C3D3100004F
:1006400063312E76616C3D30000063322E76616C32
:100650003D30000063302E76616C3D300000633128
:100660002E76616C3D31000063322E76616C3D3038
:10067000000070616765205072696E636970616C1B
:1006800000007473657474656D2E7478743D222552
:10069000303275220000706167652052616D7061B3
:1006A00073007473657474656D2E7478743D2225BF
:1006B0003032752200006231322E62636F3D31307C
:1006C000323400006231322E62636F3D363334388B
:1006D000380062302E62636F3D3130323400623058
:1006E0002E62636F3D3633343838000062312E623B
:1006F000636F3D313032340062312E62636F3D36BC
:1007000033343838000062322E62636F3D3130324C
:10071000340062322E62636F3D3633343838000065
:100720006231312E62636F3D31303234000062310C
:10073000312E62636F3D36333438380062332E62B7
:10074000636F3D313032340062332E62636F3D3669
:1007500033343838000062342E62636F3D313032FA
:10076000340062342E62636F3D3633343838000013
:1007700062362E62636F3D313032340062362E6253
:10078000636F3D3633343838000062382E62636F51
:100790003D313032340062382E62636F3D3633347F
:1007A0003838000062392E62636F3D3130323400D8
:1007B00062392E62636F3D3633343838000062315F
:1007C000372E62636F3D3130323400006231372E94
:1007D00062636F3D3633343838006232312E6263E3
:1007E0006F3D3130323400006232312E62636F3D32
:1007F0003633343838006231372E7478743D224EE7
:100800006976656C2042616A6F2200006232312E87
:100810007478743D224E6976656C20416C746F2249
:1008200000006231362E7478743D22416C3A2530D6
:10083000327522006231332E7478743D2241444374
:10084000313A2530332E30662025312E3166220094
:100850006231342E7478743D22414443323A25305B
:10086000332E30662025312E316622006231352E3E
:100870007478743D2254313A25312E32662022009C
:1008800062352E7478743D225433353A256C6422D7
:1008900000006231382E7478743D2254323A25318A
:1008A0002E32662200006232302E7478743D22545B
:1008B00068756D3A25312E32662200006231392E7C
:1008C0007478743D2248756D3A25312E326625259F
:1008D00022007061676520416A757374657300005A
:1008E0007061676520416A75737465730000746890
:1008F0006F72612E7478743D2225303275220000AB
:10090000746D696E75746F732E7478743D22253022
:1009100032752200746469612E7478743D2225302A
:1009200032752200746D65732E7478743D22253003
:100930003275220074796561722E7478743D2225B7
:1009400030327522000070616765205072696E63F5
:100950006970616C000061646420312C302C257555
:10096000000061646420312C312C25750000743046
:100970002E7478743D22436F6E74726F6C206465C0
:100980002054656D70657261747572612041637485
:10099000697661646F22000074302E7478743D2291
:1009A000436F6E74726F6C2064652048756D65646A
:1009B000616420416374697661646F220000743061
:1009C0002E7478743D22436F6E74726F6C20646570
:1009D0002054656D7065726174757261207920486C
:1009E000756D6564616420416374697661646F222A
:1009F000000074302E7478743D22436F6E74726FF1
:100A00006C20706F722052616D706173204163744D
:100A1000697661646F22000074302E7478743D2210
:100A2000436F6E74726F6C65732044657361637499
:100A3000697661646F73220074656D702E747874CA
:100A40003D2225312E3166B04322000068756D6568
:100A5000642E7478743D2225312E316625252200BE
:100A600061646420312C302C25312E3066006164A5
:100A70006420312C312C25312E3066006970312EE6
:100A80007478743D2225752200006970322E7478C6
:100A9000743D2225752200006970332E7478743DF0
:100AA0002225752200006970342E7478743D222549
:100AB0007522000067312E7478743D22257522005E
:100AC00067322E7478743D222575220067332E74A8
:100AD00078743D222575220067342E7478743D2287
:100AE0002575220073312E7478743D2225752200FD
:100AF00073322E7478743D222575220073332E7460
:100B000078743D222575220073342E7478743D224A
:100B1000257522006D312E7478743D2225752200D2
:100B20006D322E7478743D22257522006D332E743B
:100B300078743D22257522006D342E7478743D2220
:100B4000257522006D352E7478743D22257522009E
:100B50006D362E7478743D222575220070616765AC
:100B600020416A7573746573000074254C752E629C
:100B7000636F3D3237353031000074254C752E706F
:100B8000636F3D3635353335000074254C752E6264
:100B9000636F3D3635353335000074254C752E7046
:100BA000636F3D3000007061676520416A75737442
:100BB0006573000074254C752E7478743D226D3178
:100BC0003A25322E32662062313A25322E326620A4
:100BD0006D323A25322E32662062323A25322E327A
:100BE0006622000074302E7478743D2225322E3136
:100BF00066B04322000074312E7478743D22253291
:100C00002E3166B04322000074322E7478743D2277
:100C100025322E3166B04322000074332E7478746E
:100C20003D2225322E3166B04322000074342E74EA
:100C300078743D2225322E3166B04322000074358F
:100C40002E7478743D2225322E3166B04322000086
:100C500074362E7478743D2225322E3166B04322CC
:100C6000000074372E7478743D2225322E3166B020
:100C70004322000074382E7478743D2225322E31C0
:100C800066B04322000074392E7478743D222532F8
:100C90002E3166B0432200007431302E7478743DDA
:100CA0002225322E3166B04322007431312E747801
:100CB000743D2225322E3166B04322006236312E39
:100CC0007478743D22494E4943494F2200006236F0
:100CD000312E62636F3D3130323400006236312E86
:100CE0007478743D22444554454E45522200623684
:100CF000312E62636F3D3633343838007469747254
:100D0000616D7061732E7478743D2250726F6772DA
:100D1000616D61202530324C752C205061736F73EA
:100D20002050726F6772616D61646F73202530327D
:100D3000752C205061736F2073656C656363696FF8
:100D40006E61646F3A202530324C75220000746564
:100D50006D702E7478743D2254656D706572617487
:100D60007572613A54413A25322E3166432020543F
:100D70003A25322E31664322000074656D702E7460
:100D800078743D2254656D70657261747572613A54
:100D900054413A2D2D2D2020543A25322E316643D0
:100DA00022007469656D706F2E7478743D225469E9
:100DB000656D706F3A253032753A253032752028CE
:100DC00048483A4D4D29220068756D2E7478743D5F
:100DD0002248756D656461643A2530337520252598
:100DE0002022000074656D702E7478743D22546565
:100DF0006D70657261747572613A202D2D2200004C
:100E00007469656D706F2E7478743D225469656DD8
:100E1000706F3A2D2D3A2D2D220068756D2E747845
:100E2000743D2248756D656461643A202D2D220061
:100E300074656D702E7478743D2254656D706572A2
:100E400061747572613A54413A25322E31664320FD
:100E500020543A25322E31664322000074656D70AD
:100E60002E7478743D2254656D706572617475726C
:100E7000613A54413A2D2D2D2020543A25322E31FD
:100E8000664322007469656D706F2E7478743D221C
:100E90005469656D706F3A253032753A2530327578
:100EA000202848483A4D4D29220068756D2E7478E7
:100EB000743D2248756D656461643A253033752050
:100EC000252520220000706167652054656D7065DE
:100ED0007261747572610000706167652048756D9C
:100EE00065646164000070616765205469656D70B8
:100EF0006F0070616765205072696E636970616C24
:100F000000007061676520496E69636961646F0004
:100F100074697472616D7061732E7478743D2221EE
:100F200050726F6772616D6120566163696F2C202A
:100F300070726F6772616D6520616C206D656E6F98
:100F4000732031207365676D656E746F2122000018
:100F50007061676520496E69636961646F007061E3
:100F6000676520456C696D696E61646F0000706132
:100F700067652052616D706173007472616D70619C
:100F80002E7478743D2250726F6772616D612025F6
:100F900030324C7520496E69636961646F220000CC
:100FA0007472616D70612E7478743D2250726F6737
:100FB00072616D6120446574656E69646F22000022
:100FC00070616765205072696E636970616C0000C2
:100FD0007474656D702E70636F3D36353533350032
:100FE0007468756D2E70636F3D3000007468756DA8
:100FF0002E70636F3D363535333500007474656D82
:10100000702E70636F3D30007061676520416A75B6
:101010007374657300007474656D702E7478743D1C
:10102000222B2F2D25312E31662200007468756D1C
:101030002E7478743D222B2F2D25312E3066220000
:101040009EAAFED7ABCF2AF0AECF01F02AA202D0E3
:10105000AB98AB882DEF08F0F3D701C058F1010130
:101060005851650802E11C8D536B1CAD0AD0036A10
:101070005351480FE96E010E0320EA6E58C1EFFF8D
:10108000532B5351090802E2536B1C9D535310E13B
:10109000485165080BE1493D09D04A3D07D05053FE
:1010A00005E1513D03D0050E596F02D00A0E596F6C
:1010B0009E9A000185EF00F09E0ECF6E580ECE6E08
:1010C00006012F2BD8B4302B312BD8B4322B332B35
:1010D000D8B4342B928880A80BD036510B0807E384
:1010E00003E13551B70803E3352BD8B4362B02D0D2
:1010F000366B356B0001A8A724D0060134510001DE
:10110000F35D0EE308E1F2510601335DD8A002D091
:10111000000106D000018A8693968A88939804D0AD
:101120008A9693968A989398F1510601345D08E364
:1011300005E10001F0510601335D02E3346B336BCE
:101140000001A7A103D0C32BD8B4C42B060132538E
:1011500003E13151130805E201016A8D0601326B8A
:10116000316B305304E12F51C708D8B083D0306BB6
:101170002F6B01018C837A2BD8B47B2B7C2BD8B4BA
:101180007D2B7E2BD8B47F2B6A7B6A830001A8ABB2
:1011900006D00101EF2BD8B4F02B04D000010101DF
:1011A000F06BEF6BED2BD8B4EE2B5A5114080AE11B
:1011B0008EB308D08DA906D00001BF2BD8B4C02BA8
:1011C00004D001010001C06BBF6B01015A5114082A
:1011D0000AE18EB508D08DAB06D00001C12BD8B482
:1011E000C22B04D001010001C26BC16BA7BF02D0AA
:1011F000A8A114D0AD51010803E38B8094900DD0C9
:10120000AD51050806E3AD51000803E28B909490C0
:1012100004D0AD51050801E2AD6BAD2BA7A703D0FB
:10122000E02BD8B4E12BA6AB03D0AF2BD8B4B02BB6
:10123000A6AD03D0B12BD8B4B22B01018DA303D03E
:10124000EB2BD8B4EC2B6AAF03D0802BD8B4812B16
:101250006F2D01D003D06F5102080BE1822BD8B45F
:10126000832B010E1827D8B0192BD8B41A2BD8B459
:101270001B2B06019E9000013AEF00F0CE0ECC6EC3
:10128000EC2BD8B4ED2BEE2BD8B4EF2BED5303E1C0
:10129000EC513B0802E2ED6BEC6BED510101555D49
:1012A0000CE308E154510001EC5DD8A002D001012B
:1012B00004D001018B84949402D08B949494000107
:1012C000EF5303E1EE513B0802E2EF6BEE6BEF519F
:1012D000BA5D07E303E1B951EE5D03E28B829492BC
:1012E00002D08B9294929E923AEF00F07061676503
:1012F000204269656E76656E69646100626B636D3C
:10130000643D30007061676520496E69636961649E
:101310006F0070616765205072696E636970616CFF
:101320000000626B636D643D3000626B636D643D11
:1013300030007061676520436C6176650000706104
:101340006765205072696E636970616C0000746932
:1013500074756C6F2E7478743D22436C61766520D1
:101360004E75657661220000646F6576656E7473F4
:101370000000746974756C6F2E7478743D22436C30
:101380006176652041637475616C2200646F6576D7
:10139000656E74730000746974756C6F2E74787464
:1013A0003D22436C617665205465636E69636F22EC
:1013B0000000646F6576656E7473000074697475FF
:1013C0006C6F2E7478743D22496E67726573652068
:1013D000436C6176652200007061676520436C6133
:1013E0007665436F72726563746100007061676552
:1013F00020436C61766542616400706167652043DB
:101400006F6E6669670070616765205072696E6310
:101410006970616C00007061676520436C6176657E
:101420000000746974756C6F2E7478743D22436C7F
:10143000617665204E756576612200007061676592
:10144000205072696E636970616C00007469747514
:101450006C6F2E7478743D22436C617665204E75F6
:1014600065766122000070616765205072696E6365
:101470006970616C00007061676520546573740069
:1014800070616765205072696E636970616C0000FD
:10149000706167652043616C696200007061676517
:1014A000205072696E636970616C000066656368E4
:1014B000612E7478743D2246656368613A25303246
:1014C000752F253032752F32302530327520486F18
:1014D00072613A20253032753A253032753A25301E
:1014E000327522007061676520526564000070618A
:1014F0006765204665636861000070616765204329
:101500006C617665000070616765205465737400D6
:101510007061676520436C61766500007061676586
:1015200020477261666963610000706167652041F0
:101530006C61726D61730000706167652050726943
:101540006E636970616C000070616765205072693C
:101550006E636970616C00007061676520436C6147
:1015600076650000746974756C6F2E7478743D2212
:1015700050726F6772616D61202530324C752C207E
:101580005061736F202530327522000074697475C4
:101590006C6F2E7478743D2250726F6772616D614A
:1015A000202530324C752046696E616C697A616421
:1015B0006F220000746974756C6F2E7478743D220C
:1015C00043616D61726120436C696D61746963612F
:1015D000204A5020496E676C6F62616C2050723AED
:1015E00025322E3166B04322000066656368612EA5
:1015F0007478743D2246656368613A253032752FF0
:10160000253032752F323025303275202020204889
:101610006F72613A20253032753A253032753A259D
:10162000303275220000706167652054656D706509
:101630007261747572610000706167652048756D34
:1016400065646164000070616765205469656D7050
:101650006F007061676520416A757374657300007F
:10166000706167652052616D7061730070616765BC
:1016700020436C6176650000626C757A2E70696338
:101680003D3131390000626C757A2E7069633D31ED
:1016900032300000626C757A2E7069633D313230F1
:1016A0000000626C757A2E706963323D3132300011
:1016B000626C757A2E7069633D3131390000626C5D
:1016C000757A2E706963323D3131390073746174FB
:1016D00075732E7478743D22507565727461206341
:1016E000657272616461220062342E7069633D35F7
:1016F000320062362E7069633D3532007468756D54
:10170000656461642E7478743D222153696E2041B2
:101710006775612122007468756D656461642E745B
:1017200078743D2248756D656461642200006235FD
:101730002E7069633D353200737461747573482E81
:101740007478743D22446574656E69646F2200008C
:101750007468756D656461642E7478743D222153DC
:10176000696E20416775612122007468756D65643A
:1017700061642E7478743D2248756D6564616422DD
:10178000000062352E7069633D35310073746174F9
:101790007573542E7478743D22215465726D6F7385
:1017A0007461746F212200007468756D65646164F2
:1017B0002E7478743D222153696E20416775612132
:1017C00022007468756D656461642E7478743D22BE
:1017D00048756D6564616422000062352E7069632E
:1017E0003D353200737461747573482E7478743D9E
:1017F00022446574656E69646F2200007468756DBB
:10180000656461642E7478743D222153696E2041B1
:101810006775612122007468756D656461642E745A
:1018200078743D2248756D656461642200006235FC
:101830002E7069633D35310062342E7069633D3529
:101840003200737461747573542E7478743D22443D
:101850006574656E69646F22000062342E7069637E
:101860003D35310062342E7069633D35310062359B
:101870002E7069633D35310062362E7069633D35E7
:101880003100737461747573482E7478743D222D21
:101890002D2D2D2D2200737461747573542E747860
:1018A000743D222D2D2D2D2D2200737461747573BE
:1018B0002E7478743D22507565727461206162697E
:1018C00065727461220062342E7069633D353100A7
:1018D00062352E7069633D35310062362E70696362
:1018E0003D353100737461747573542E7478743D92
:1018F0002246696E616C697A61646F2200007374BC
:1019000061747573482E7478743D2246696E616CFB
:10191000697A61646F22000074656D70657261742C
:101920007572612E7478743D2254313A25312E310E
:1019300066B04322000074656D70657261747572E3
:10194000612E7478743D2254313A2D2D2D2D2D2287
:10195000000074656D7065726174757261322E7409
:1019600078743D2254323A25312E3166B04322003C
:1019700074656D7065726174757261322E747874FD
:101980003D2254323A2D2D2D2D2D22007374656D7C
:1019900070657261747572612E7478743D2253455E
:1019A000543A25312E3166B0432200007368756DBC
:1019B000656461642E7478743D225345543A253031
:1019C000337525252022000068756D656461642EDD
:1019D0007478743D2248523A2530332E31662525DD
:1019E000220068756D656461642E7478743D2248C8
:1019F000523A313030252522000068756D656461EA
:101A0000642E7478743D2248523A2D2D2D2D2200DB
:101A1000737469656D706F2E7478743D22534554EC
:101A20003A253032753A25303275202848483A4DEB
:101A30004D2922007469656D706F2E7478743D2293
:101A4000253032753A25303275202200706F74547B
:101A50002E7478743D22502E543A25322E30662052
:101A6000252520502E483A25322E30662025252265
:101A700000007374617475732E7478743D22466926
:101A80006E616C697A61646F2200436F6E6669678C
:101A90002E7432632E7478743D2250726F706F72A0
:101AA00063696F6E616C22007433632E7478743DC9
:101AB000222575220000436F6E6669672E743263BB
:101AC0002E7478743D224465726976617469766F0C
:101AD00022007433632E7478743D22257522000031
:101AE000436F6E6669672E7432632E7478743D227C
:101AF000496E74656772616C22007433632E74786A
:101B0000743D222575220000436F6E6669672E744E
:101B100032632E7478743D22546369636C6F2200C3
:101B20007433632E7478743D222575220000436F50
:101B30006E6669672E7432632E7478743D22416A32
:101B400075737465202B22007433632E7478743D92
:101B5000222575220000436F6E6669672E7432631A
:101B60002E7478743D22416A75737465202D2200AD
:101B70007433632E7478743D222575220000436F00
:101B80006E6669672E7432632E7478743D224D65DB
:101B90006469612200007433632E7478743D2225D9
:101BA00075220000436F6E6669672E7432632E746F
:101BB00078743D224D656469612048756D2200008E
:101BC0007433632E7478743D222575220000436FB0
:101BD0006E6669672E7432632E7478743D22416A92
:101BE0007573746532202B2200007433632E747871
:101BF000743D222575220000436F6E6669672E745E
:101C000032632E7478743D22416A75737465322094
:101C10002D2200007433632E7478743D22257522C2
:101C20000000436F6E6669672E7432632E74787499
:101C30003D224D7565737472656F22007433632E97
:101C40007478743D2225303375220000436F6E6630
:101C500069672E7432632E7478743D2274436F6EFC
:101C600067656C6122007433632E7478743D22259D
:101C700030334C752200436F6E6669672E74326391
:101C80002E7478743D2274446973706C61792200FB
:101C90007433632E7478743D22253033752200002E
:101CA000436F6E6669672E7432632E7478743D22BA
:101CB000502E2048756D6564616422007433632E74
:101CC0007478743D222575220000436F6E66696743
:101CD0002E7432632E7478743D2274446566726F7C
:101CE0007374322200007433632E7478743D22259D
:101CF00030334C752200436F6E6669672E74326311
:101D00002E7478743D22744C757A22007433632EDD
:101D10007478743D222530334C75220070616765FC
:101D200020416A757374657300000C0EEA6E840EB0
:101D3000E96EEF500DE0060E016E006A002EFED730
:101D4000012EFBD77B0E006E002EFED7EF2EF3D7B1
:101D500012000C01686B685107080DE3D8906733D7
:101D600002E28C9C01D08C8C959C959A8C8A959AD9
:101D70008C9A682BF0D700011200959E8C8E65CC52
:101D800067FCE7DF66CC67FCE4DF959E8C9E120063
:101D9000959E8C8E62CC67FCDCDF958C100E006EFD
:101DA000002EFED700000C01636B6351070819E396
:101DB000958C83BC02D0D89001D0D8806433959A9A
:101DC0008C8A200E006E002EFED700D00000959A5F
:101DD0008C9A200E006E002EFED700D00000632BE0
:101DE000E4D7959E8C9E64CC01F000011200959E74
:101DF0008C9E200E006E002EFED700D00000959A1B
:101E00008C9A8E0E0C01656F666B0001B6DF900E2A
:101E10000C01656FA40E666F0001AFDF810E0C012F
:101E2000626F0001B5DF01C05EFC0C015E51800BEA
:101E300006E0800E656F666B00019FDF0C010001FC
:101E40003EEFA0F00C015F5302E18B9001D08B803C
:101E5000949000011200F2CF60FCF29CF29EAA6AFC
:101E60005FCCA9FFA69CA69EA680A8500C0160BDD1
:101E7000F28C60BFF28E016E000112008E0E006EB9
:101E8000B4CC01F0B3CC02F0036A015209E102C004
:101E900001F0026A080E005E015202E1006A08D0F9
:101EA000D89001BE04D0023601360006F9D7019E53
:101EB00012000C01A851D8B4A5D0B46FAC51D8B45D
:101EC000A1D0B45F05E37F0EB427D8B09BD006D075
:101ED000810EB45FD8A096D0D8B494D0B4CC00F022
:101EE000016A026A036AB36BA9CCB2FCB28FAACCB6
:101EF000B1FCABCCB0FC190EB46FAF51B05F0DE2CA
:101F0000010EB15F0AE2B25F08E2B35F06E2B32BF3
:101F1000B22BB12BAF51B02728D0AE51B15F12E236
:101F2000010EB25F0FE2B35F0DE2B32BB22BAE51E5
:101F3000B127AF51B02719E3B12B17E1B22B15E14F
:101F4000B32B13D0AD518009B25F0EE2010EB35F27
:101F50000BE2B32BAD518009B227AE51B127E9E3B3
:101F6000B22BE7E1B32BE5D70380B42F01D00BD020
:101F7000D890B037B137B237B337D890033602367E
:101F80000136B537BAD7B5A106D0D89001320232A2
:101F90000332B53302D0000635E0B5BF1ED0D8906D
:101FA000B037B137B237B337AF51B05F07E2010E88
:101FB000B15F04E2B25F02E2B35F1AE3AE51B15F18
:101FC00005E2010EB25F02E2B35F12E3AD51800998
:101FD000B25F03E2010EB35F0BE3032A09E1022AB9
:101FE00007E1012A05E1002A0DE001320232033245
:101FF000A9CCB4FCAD51B41BB4AF02D0018E06D055
:10200000019E04D0006A016A026A036A000112009C
:10201000800ED8A202D00C01B81B0C01BD6BBE6BA8
:10202000B4CCBCFCB851BC1BB351D8B4DFD0BB6F2F
:10203000006EB751D8B4E3D0BB5FD8B483D03EE3D1
:10204000B8CCC1FCC18FB9CCC0FCBACCBFFCBE6B54
:10205000D890C133C033BF33BE33BB2FF8D7BCAF2A
:1020600003D0BD81E0D0BD91BB91BD890C0EEA6E5D
:10207000B60EE96EEBD0BD99BCBF0AD0BBA113D0A0
:10208000C133C033BF33BE33002AD8B4C7D00BD05E
:10209000C1BF0CD0D890BE37BF37C037C13700069C
:1020A000D8B4BCD0F5D7BD8D6DD0BD9DB4CCBCFC33
:1020B000B4AF02D0C18FABD0C19FA9D0B7CCBBFC0D
:1020C000B7CC00F0B351BB5FB4CCC1FCC18FB5CC71
:1020D000C0FCB6CCBFFCBE6BD890C133C033BF339D
:1020E000BE33BB2FF8D7BCAF03D0BD839CD0BD930C
:1020F000BB91BD8B0C0EEA6EBA0EE96EA7D0BD9BEC
:10210000BCBF0AD0BBA113D0C133C033BF33BE3371
:10211000002AD8B483D00BD0C1BF0CD0D890BE3722
:10212000BF37C037C1370006D8B478D0F5D7BD8FD8
:1021300029D0BD9FB8CCBCFCB8AF02D0C18F67D04E
:10214000C19F65D0B8CCC1FCC18FB9CCC0FCBACCA2
:10215000BFFCBCAF04D0C19FBD8565D0BD95BE6B33
:10216000BB910C0EEA6EB60EE96E70D0BCBF1CD0EF
:10217000B4CCBCFCBBA106D0C133C033BF33BE332B
:10218000002A4CE0BEAF0BD0BF2B09E1C02B07E10A
:10219000C12B05E1C133C033BF33002A3FE0BDBDD1
:1021A00084D7BDBFC6D71CD0800EC11BC1AF04D021
:1021B0003AD0B8CCBCFC0AD0B4CCBCFCC15306E1CC
:1021C000C05304E1BF5302E1006A21D0C1BF08D06F
:1021D000D890BE37BF37C037C137002EF7D71ED0D3
:1021E000BCAF02D0C18F13D0C19F11D0B7CC00F0CB
:1021F000B8CCC1FCB9CCC0FCBACCBFFC08D0B3CCC5
:1022000000F0B4CCC1FCB5CCC0FCB6CCBFFCC1CC9A
:1022100001F0C0CC02F0BFCC03F034D0006A016AF8
:10222000026A036A2FD0BE6BBF1FC01FC11FBE1F33
:10223000BE2B05E1BF2B03E1C02B01E1C12BBDB1DA
:1022400012D7BDB354D7BDB589D7B3D7EF50BF2789
:1022500005E3C02B03E1C12BD8B4BB81ED52EF5095
:10226000C02703E3C12BD8B4BB81ED52EF50EFBEC2
:1022700001D0800AC127D8B0BB81BDB9FCD6BDBB97
:102280003ED774D7000112000C01B46B63CCB3FCD1
:102290000001F4DD03C067FC02C066FC01C065FC00
:1022A00000C064FC67CCABFC66CCAAFC65CCA9FC86
:1022B00064CCA8FC0C01AF6BAE6B200EAD6F820E30
:1022C000AC6F0001F6DD12000C015F6B0001C3DD95
:1022D00001C074F1050E0C01846F000126DD010EB2
:1022E0000C015F6F0001B7DD01C073F1050E0C0139
:1022F000846F00011ADD020E0C015F6F0001ABDD7F
:1023000001C031F2050E0C01846F00010EDD030ED9
:102310000C015F6F00019FDD0C01B46B01C0B3FCC9
:102320000001ACDD03C039F202C038F201C037F25F
:1023300000C036F2050E0C01846F0001F6DC39C2D4
:10234000ABFC38C2AAFC37C2A9FC36C2A8FC0C01FF
:10235000AF6BAE6B200EAD6F820EAC6F0001A9DDCE
:1023600003C039F202C038F201C037F200C036F2C1
:102370000C01B46B31C2B3FC000180DDD89203C004
:10238000B6FC02C0B5FC01C0B4FC00C0B3FC39C24D
:10239000BAFC38C2B9FC37C2B8FC36C2B7FC38DE6A
:1023A00003C0F7F002C0F6F001C0F5F000C0F4F091
:1023B000040E0C015F6F00014EDD01C0C8F0050E78
:1023C0000C01846F0001B1DCF2CF5EFCF29CF29E46
:1023D000AA6A070EA96EA69CA69EA680A8500C010C
:1023E0005EBDF28C5EBFF28E0001E96BE86F050EF8
:1023F0000C01846F000199DCF2CF5EFCF29CF29E2E
:10240000AA6A080EA96EA69CA69EA680A8500C01DA
:102410005EBDF28C5EBFF28E0001BC6BBB6F050E21
:102420000C01846F000181DC090E0C015F6F00015B
:1024300012DD01C0ACF0050E0C01846F000175DCEB
:102440000A0E0C015F6F000106DD01C06BF1050E85
:102450000C01846F000169DC0B0E0C015F6F000141
:10246000FADC01C06CF1050E0C01846F00015DDC2B
:102470000C0E0C015F6F0001EEDC01C06DF1050E6A
:102480000C01846F000151DC0D0E0C015F6F000127
:10249000E2DC01C06EF1050E0C01846F000145DC29
:1024A0000E0E0C015F6F0001D6DC0101F26B01C062
:1024B000F1F1050E0C01846F000137DC0F0E0C01E9
:1024C0005F6F0001C8DC01C077F1050E0C01846F5D
:1024D00000012BDC01017751180822E20201446B54
:1024E000436B456B0101776BF250006EF29CF29EDC
:1024F000AA6A0F0EA96EA86AA69CA69EA6840F01C2
:10250000550EA76EAA0EA76EA682A6B2FED7A694F7
:102510000050F212050E0C01846F000106DC01016F
:102520001B0E0C015F6F000196DC0C01B46B01C047
:10253000B3FC0001A3DC03C030F102C02FF101C0E5
:102540002EF100C02DF1050E0C01846F000195ECF9
:102550000EF01E0E0C015F6F00017DDC0C01B46BF0
:1025600001C0B3FC00018ADC03C020F102C01FF1EE
:1025700001C01EF100C01DF1050E0C01846F0001A9
:1025800095EC0EF01F0E0C015F6F000164DC01C0C2
:10259000CFF0050E0C01846F000195EC0EF0200EBB
:1025A0000C015F6F000157DC01C0D0F0050E0C017B
:1025B000846F000195EC0EF0210E0C015F6F00019D
:1025C0004ADC01C0D3F0050E0C01846F000195ECCC
:1025D0000EF0220E0C015F6F00013DDC01C0D4F053
:1025E000050E0C01846F000195EC0EF0230E0C011A
:1025F0005F6F000130DC01C0D5F0050E0C01846F67
:10260000000195EC0EF0240E0C015F6F000123DC3D
:1026100001C0D1F0050E0C01846F000195EC0EF0A5
:10262000250E0C015F6F000116DC01C0D6F0050E0F
:102630000C01846F000195EC0EF0260E0C015F6F0B
:10264000000109DC01C0D7F0050E0C01846F000108
:1026500095EC0EF0270E0C015F6F00012BEC0FF0D4
:1026600001C0D2F0050E0C01846F000195EC0EF054
:10267000280E0C015F6F00012BEC0FF001C041F23E
:10268000050E0C01846F000195EC0EF0290E0C0173
:102690005F6F00012BEC0FF001C044F2050E0C013E
:1026A000846F000195EC0EF02A0E0C015F6F0001A3
:1026B0002BEC0FF001C043F2050E0C01846F0001FA
:1026C00095EC0EF02B0E0C015F6F00012BEC0FF060
:1026D00001C045F2050E0C01846F000195EC0EF06F
:1026E000F2CF5EFCF29CF29EAA6A180EA96EA69C1E
:1026F000A69EA680A8500C015EBDF28C5EBFF28E35
:10270000B46BB36F00013EEC0FF003C00FF102C0D9
:102710000EF101C00DF100C00CF10A0E0C01846F26
:10272000000195EC0EF00FC1ABFC0EC1AAFC0DC16F
:10273000A9FC0CC1A8FC0C01AF6BAE6B200EAD6FF9
:10274000820EAC6F000159EC0FF003C00FF102C014
:102750000EF101C00DF100C00CF10A0E0C01846FE6
:10276000000195EC0EF0F2CF5EFCF29CF29EAA6A9C
:10277000170EA96EA69CA69EA680A8500C015EBD51
:10278000F28C5EBFF28EB46BB36F00013EEC0FF0C3
:10279000D89203C0B6FC02C0B5FC01C0B4FC00C0B6
:1027A000B3FC0FC1BAFC0EC1B9FC0DC1B8FC0CC121
:1027B000B7FC2EDC03C007F102C006F101C005F131
:1027C00000C004F10A0E0C01846F000195EC0EF0BC
:1027D000F2CF5EFCF29CF29EAA6A1A0EA96EA69C2B
:1027E000A69EA680A8500C015EBDF28C5EBFF28E44
:1027F000B46BB36F00013EEC0FF003C00FF102C0E9
:102800000EF101C00DF100C00CF10A0E0C01846F35
:10281000000195EC0EF00FC1ABFC0EC1AAFC0DC17E
:10282000A9FC0CC1A8FC0C01AF6BAE6B200EAD6F08
:10283000820EAC6F000159EC0FF003C00FF102C023
:102840000EF101C00DF100C00CF10A0E0C01846FF5
:10285000000195EC0EF0F2CF5EFCF29CF29EAA6AAB
:10286000190EA96EA69CA69EA680A8500C015EBD5E
:10287000F28C5EBFF28EB46BB36F00013EEC0FF0D2
:10288000D89203C0B6FC02C0B5FC01C0B4FC00C0C5
:10289000B3FC0FC1BAFC0EC1B9FC0DC1B8FC0CC130
:1028A000B7FC08EC10F003C00BF102C00AF101C044
:1028B00009F100C008F10A0E0C01846F000195ECCB
:1028C0000EF02F0E0C015F6F00012BEC0FF001C01A
:1028D00064F6050E0C01846F000195EC0EF0300ECD
:1028E0000C015F6F00012BEC0FF001C065F6050EC7
:1028F0000C01846F000195EC0EF0310E0C015F6F3E
:1029000000012BEC0FF001C066F6050E0C01846F80
:10291000000195EC0EF0320E0C015F6F00012BEC04
:102920000FF001C067F6050E0C01846F000195ECF5
:102930000EF0330E0C015F6F00012BEC0FF001C0A5
:1029400068F6050E0C01846F000195EC0EF0340E54
:102950000C015F6F00012BEC0FF001C069F6050E52
:102960000C01846F000195EC0EF0350E0C015F6FC9
:1029700000012BEC0FF001C06AF6050E0C01846F0C
:10298000000195EC0EF0360E0C015F6F00012BEC90
:102990000FF001C06BF6050E0C01846F000195EC81
:1029A0000EF0370E0C015F6F00012BEC0FF001C031
:1029B0006CF6050E0C01846F000195EC0EF0380EDC
:1029C0000C015F6F00012BEC0FF001C06DF6050EDE
:1029D0000C01846F000195EC0EF0390E0C015F6F55
:1029E00000012BEC0FF001C06EF6050E0C01846F98
:1029F000000195EC0EF03A0E0C015F6F00012BEC1C
:102A00000FF001C06FF6050E0C01846F000195EC0C
:102A10000EF0400E0C015F6F00012BEC0FF001C0B7
:102A20005EFC410E0C015F6F00012BEC0FF001C04A
:102A30005FFC01C063FC28DC03C062FC02C061FCD7
:102A400001C060FC00C05FFC0C01B46B5ECCB3FC49
:102A500000013EEC0FF0EACF64FCE9CF63FCD892B2
:102A600003C0B6FC02C0B5FC01C0B4FC00C0B3FC9E
:102A700062CCBAFC61CCB9FC60CCB8FC5FCCB7FCD2
:102A800008EC10F064CCEAFF63CCE9FF03C019FC4A
:102A900002C018FC01C017FC00C016FC050E0C019A
:102AA000846F000195EC0EF0420E0C015F6F000187
:102AB0002BEC0FF001C05EFC430E0C015F6F0001B8
:102AC0002BEC0FF001C05FFC01C063FC44EC11F083
:102AD00003C062FC02C061FC01C060FC00C05FFC7E
:102AE0000C01B46B5ECCB3FC00013EEC0FF0EACFFE
:102AF00064FCE9CF63FCD89203C0B6FC02C0B5FC0D
:102B000001C0B4FC00C0B3FC62CCBAFC61CCB9FC1F
:102B100060CCB8FC5FCCB7FC08EC10F064CCEAFFEA
:102B200063CCE9FF03C01DFC02C01CFC01C01BFC00
:102B300000C01AFC050E0C01846F000195EC0EF02C
:102B4000440E0C015F6F00012BEC0FF001C05EFC26
:102B5000450E0C015F6F00012BEC0FF001C05FFC14
:102B600001C063FC44EC11F003C062FC02C061FCD4
:102B700001C060FC00C05FFC0C01B46B5ECCB3FC18
:102B800000013EEC0FF0EACF64FCE9CF63FCD89281
:102B900003C0B6FC02C0B5FC01C0B4FC00C0B3FC6D
:102BA00062CCBAFC61CCB9FC60CCB8FC5FCCB7FCA1
:102BB00008EC10F064CCEAFF63CCE9FF03C021FC11
:102BC00002C020FC01C01FFC00C01EFC050E0C0151
:102BD000846F000195EC0EF0460E0C015F6F000152
:102BE0002BEC0FF001C05EFC470E0C015F6F000183
:102BF0002BEC0FF001C05FFC01C063FC44EC11F052
:102C000003C062FC02C061FC01C060FC00C05FFC4C
:102C10000C01B46B5ECCB3FC00013EEC0FF0EACFCC
:102C200064FCE9CF63FCD89203C0B6FC02C0B5FCDB
:102C300001C0B4FC00C0B3FC62CCBAFC61CCB9FCEE
:102C400060CCB8FC5FCCB7FC08EC10F064CCEAFFB9
:102C500063CCE9FF03C001FC02C000FC01C0FFFB24
:102C600000C0FEFB050E0C01846F000195EC0EF018
:102C7000480E0C015F6F00012BEC0FF001C05EFCF1
:102C8000490E0C015F6F00012BEC0FF001C05FFCDF
:102C900001C063FC44EC11F003C062FC02C061FCA3
:102CA00001C060FC00C05FFC0C01B46B5ECCB3FCE7
:102CB00000013EEC0FF0EACF64FCE9CF63FCD89250
:102CC00003C0B6FC02C0B5FC01C0B4FC00C0B3FC3C
:102CD00062CCBAFC61CCB9FC60CCB8FC5FCCB7FC70
:102CE00008EC10F064CCEAFF63CCE9FF03C005FCFC
:102CF00002C004FC01C003FC00C002FC050E0C0174
:102D0000846F000195EC0EF04A0E0C015F6F00011C
:102D10002BEC0FF001C05EFC4B0E0C015F6F00014D
:102D20002BEC0FF001C05FFC01C063FC44EC11F020
:102D300003C062FC02C061FC01C060FC00C05FFC1B
:102D40000C01B46B5ECCB3FC00013EEC0FF0EACF9B
:102D500064FCE9CF63FCD89203C0B6FC02C0B5FCAA
:102D600001C0B4FC00C0B3FC62CCBAFC61CCB9FCBD
:102D700060CCB8FC5FCCB7FC08EC10F064CCEAFF88
:102D800063CCE9FF03C009FC02C008FC01C007FCDA
:102D900000C006FC050E0C01846F000195EC0EF0DE
:102DA0004C0E0C015F6F00012BEC0FF001C05EFCBC
:102DB0004D0E0C015F6F00012BEC0FF001C05FFCAA
:102DC00001C063FC44EC11F003C062FC02C061FC72
:102DD00001C060FC00C05FFC0C01B46B5ECCB3FCB6
:102DE00000013EEC0FF0EACF64FCE9CF63FCD8921F
:102DF00003C0B6FC02C0B5FC01C0B4FC00C0B3FC0B
:102E000062CCBAFC61CCB9FC60CCB8FC5FCCB7FC3E
:102E100008EC10F064CCEAFF63CCE9FF03C049FC86
:102E200002C048FC01C047FC00C046FC050E0C0176
:102E3000846F000195EC0EF04E0E0C015F6F0001E7
:102E40002BEC0FF001C05EFC4F0E0C015F6F000118
:102E50002BEC0FF001C05FFC01C063FC44EC11F0EF
:102E600003C062FC02C061FC01C060FC00C05FFCEA
:102E70000C01B46B5ECCB3FC00013EEC0FF0EACF6A
:102E800064FCE9CF63FCD89203C0B6FC02C0B5FC79
:102E900001C0B4FC00C0B3FC62CCBAFC61CCB9FC8C
:102EA00060CCB8FC5FCCB7FC08EC10F064CCEAFF57
:102EB00063CCE9FF03C04DFC02C04CFC01C04BFCDD
:102EC00000C04AFC050E0C01846F000195EC0EF069
:102ED000500E0C015F6F00012BEC0FF001C05EFC87
:102EE000510E0C015F6F00012BEC0FF001C05FFC75
:102EF00001C063FC44EC11F003C062FC02C061FC41
:102F000001C060FC00C05FFC0C01B46B5ECCB3FC84
:102F100000013EEC0FF0EACF64FCE9CF63FCD892ED
:102F200003C0B6FC02C0B5FC01C0B4FC00C0B3FCD9
:102F300062CCBAFC61CCB9FC60CCB8FC5FCCB7FC0D
:102F400008EC10F064CCEAFF63CCE9FF03C051FC4D
:102F500002C050FC01C04FFC00C04EFC050E0C012D
:102F6000846F000195EC0EF0520E0C015F6F0001B2
:102F70002BEC0FF001C05EFC530E0C015F6F0001E3
:102F80002BEC0FF001C05FFC01C063FC44EC11F0BE
:102F900003C062FC02C061FC01C060FC00C05FFCB9
:102FA0000C01B46B5ECCB3FC00013EEC0FF0EACF39
:102FB00064FCE9CF63FCD89203C0B6FC02C0B5FC48
:102FC00001C0B4FC00C0B3FC62CCBAFC61CCB9FC5B
:102FD00060CCB8FC5FCCB7FC08EC10F064CCEAFF26
:102FE00063CCE9FF03C031FC02C030FC01C02FFC00
:102FF00000C02EFC050E0C01846F000195EC0EF054
:10300000540E0C015F6F00012BEC0FF001C05EFC51
:10301000550E0C015F6F00012BEC0FF001C05FFC3F
:1030200001C063FC44EC11F003C062FC02C061FC0F
:1030300001C060FC00C05FFC0C01B46B5ECCB3FC53
:1030400000013EEC0FF0EACF64FCE9CF63FCD892BC
:1030500003C0B6FC02C0B5FC01C0B4FC00C0B3FCA8
:1030600062CCBAFC61CCB9FC60CCB8FC5FCCB7FCDC
:1030700008EC10F064CCEAFF63CCE9FF03C035FC38
:1030800002C034FC01C033FC00C032FC050E0C0150
:10309000846F000195EC0EF0560E0C015F6F00017D
:1030A0002BEC0FF001C05EFC570E0C015F6F0001AE
:1030B0002BEC0FF001C05FFC01C063FC44EC11F08D
:1030C00003C062FC02C061FC01C060FC00C05FFC88
:1030D0000C01B46B5ECCB3FC00013EEC0FF0EACF08
:1030E00064FCE9CF63FCD89203C0B6FC02C0B5FC17
:1030F00001C0B4FC00C0B3FC62CCBAFC61CCB9FC2A
:1031000060CCB8FC5FCCB7FC08EC10F064CCEAFFF4
:1031100063CCE9FF03C039FC02C038FC01C037FCB6
:1031200000C036FC050E0C01846F000195EC0EF01A
:1031300073EFA0F0F250006EF29CF29EAA6A60CC8F
:10314000A9FF5FCCA8FFA69CA69EA6840F01550EE2
:10315000A76EAA0EA76EA682A6B2FED7A6940050AE
:10316000F21200011200B0CCB7FC0C01B451B71B35
:10317000B7AF05D0D894D890B0BFD8802FD0B0CCFE
:10318000B7FCB3CCB8FCAF51B85F06E0B7AF26D000
:10319000D850010AD86E22D0B4CCB8FCB051B85F78
:1031A00006E0B7AF1BD0D850010AD86E17D0B5CC07
:1031B000B8FCB151B85F06E0B7AF10D0D850010AE3
:1031C000D86E0CD0B6CCB8FCB251B85F06E0B7AF41
:1031D00005D0D850010AD86E01D0D8900001120055
:1031E0000C017F518103F3CF01F0F4CF00F0820393
:1031F000F350002680518103F3500020026E00013D
:1032000012000C01AF51D8B471D0006EB351D8B4D4
:103210006DD0002604E3810E002668E204D07F0E04
:10322000005E64E363E0B0CCB7FCB451B71BB08F71
:10323000B48FB251B603F4CFB9FCB151B503F4CF9A
:1032400003F0F3CFB8FCB603F350B927F450B8231A
:10325000000E0322B251B503F350B927F450B8233E
:10326000000E026A03220222B051B603F350B827BF
:10327000F4500322000E0222B051B503F35003268E
:10328000F4500222000E016A0122B251B403F3503D
:10329000B827F4500322000E02220122B151B403D8
:1032A000F3500326F4500222000E0122B051B40361
:1032B000F3500226F4500122002A01BE05D0B8378F
:1032C0000336023601360006000EB8AF0AD0032AD4
:1032D00002220122015005E1025003E1035001E105
:1032E000002AB7BF018EB7AF019E04D0006A016A01
:1032F000026A036A000112008E0E006E0C01AF51CB
:10330000005EB0CC02F0B1CC01F0028E005209E0B8
:10331000D890025202E1015204E002320132002E42
:10332000F7D7B0AF05D0011E021E012AD8B4022A79
:1033300000011200010174513B080EE20A0E746F85
:103340000C015F6F606B0001F5DE140E0C01846FE1
:10335000000195EC0EF00101735163080FE20A0EB3
:10336000736F0C015F6F010E606F0001E3DE140EDE
:103370000C01846F000195EC0EF001010C01B26BA1
:10338000B16B0C0EB06F850EAF6FF7C0B6FCF6C018
:10339000B5FCF5C0B4FCF4C0B3FC0001E4DE10E2FF
:1033A000F7C0B2FCF6C0B1FCF5C0B0FCF4C0AFFC95
:1033B0000C01B66BB56BB46BB36B0001D4DE1FE3CD
:1033C000F76BF66B700EF56F830EF46F640E0C01E5
:1033D0005F6F020E606F0001ADDE140E0C01846F92
:1033E000000195EC0EF00C015F6B030E606F0001A5
:1033F000A1DE140E0C01846F000195EC0EF00C019F
:10340000B46BC8C0B3FC00013EEC0FF00C01B26B12
:10341000B16B340EB06F850EAF6F03C0B6FC02C047
:10342000B5FC01C0B4FC00C0B3FC00019CDE19E295
:103430000C01B46BC8C0B3FC00013EEC0FF003C03C
:10344000B2FC02C0B1FC01C0B0FC00C0AFFC0C017A
:10345000B66BB56B200EB46F820EB36F000183DEC6
:103460000EE33C0EC86F0C015F6F040E606F00012D
:1034700061DE140E0C01846F000195EC0EF0E9532F
:1034800007E1E851C80804E3E85311E1E9530FE10B
:10349000E96BC80EE86F0C015F6F070E606F0001EB
:1034A00049DE140E0C01846F000195EC0EF0BC5344
:1034B00007E1BB51C80804E3BB5311E1BC530FE162
:1034C000BC6B3C0EBB6F0C015F6F080E606F0001A0
:1034D00031DE140E0C01846F000195EC0EF0AC513E
:1034E0003C0802E3AC530EE1050EAC6F0C015F6FBC
:1034F000090E606F00011EDE140E0C01846F0001C6
:1035000095EC0EF001016B5109080EE26B6B0C019A
:103510005F6B0A0E606F00010DDE140E0C01846FEC
:10352000000195EC0EF001016C5109080EE26C6B84
:103530000C015F6B0B0E606F0001FCDD140E0C01C3
:10354000846F000195EC0EF001016D5109080EE247
:103550006D6B0C015F6B0C0E606F0001EBDD140EE8
:103560000C01846F000195EC0EF001016E51090809
:103570000EE26E6B0C015F6B0D0E606F0001DADD09
:10358000140E0C01846F000195EC0EF00101F25352
:1035900007E1F151C80804E3F15312E1F25310E1DD
:1035A000F26B010EF16F0C015F6F0E0E606F000188
:1035B000C1DD140E0C01846F000195EC0EF00101C9
:1035C0000C01B26BB16B200EB06F830EAF6F30C1C8
:1035D000B6FC2FC1B5FC2EC1B4FC2DC1B3FC00015B
:1035E000C2DD11E230C1B2FC2FC1B1FC2EC1B0FC72
:1035F0002DC1AFFC0C01B66BB56BB46B7F0EB36F16
:103600000001B1DD13E30101306B2F6B2E6B800ED7
:103610002D6F020E0C015F6F1B0E606F00018ADDC3
:10362000140E0C01846F000195EC0EF00C01B26BCE
:10363000B16B200EB06F830EAF6F20C1B6FC1FC1FF
:10364000B5FC1EC1B4FC1DC1B3FC00018CDD11E250
:1036500020C1B2FC1FC1B1FC1EC1B0FC1DC1AFFC3A
:103660000C01B66BB56BB46B7F0EB36F00017BDDE5
:1036700013E30101206B1F6B1E6B800E1D6F020E8A
:103680000C015F6F1E0E606F000154DD140E0C0103
:10369000846F000195EC0EF0CF51500803E3CF5139
:1036A00004080EE3500ECF6F0C015F6F1F0E606FAA
:1036B000000140DD140E0C01846F000195EC0EF04A
:1036C000D051040802E3D0530EE1010ED06F0C017B
:1036D0005F6F200E606F00012DDD140E0C01846FF2
:1036E000000195EC0EF0D351140803E3D351040804
:1036F0000EE3050ED36F0C015F6F210E606F0001AA
:1037000019DD140E0C01846F000195EC0EF0D451FC
:1037100064080DE2D46B0C015F6B220E606F000138
:1037200009DD140E0C01846F000195EC0EF0D551EB
:1037300064080DE2D56B0C015F6B230E606F000116
:10374000F9DC140E0C01846F000195EC0EF0D151E0
:10375000500803E3D15109080EE3500ED16F0C015C
:103760005F6F240E606F0001E5DC140E0C01846FA6
:10377000000195EC0EF0D65164080DE2D66B0C01F9
:103780005F6B250E606F0001D5DC140E0C01846F99
:10379000000195EC0EF0D75164080DE2D76B0C01D7
:1037A0005F6B260E606F0001C5DC140E0C01846F88
:1037B000000195EC0EF0D251500803E3D2510908F4
:1037C0000EE3280ED26F0C015F6F270E606F0001B1
:1037D000B1DC140E0C01846F000195EC0EF00201B7
:1037E00041530FE1140E416F0C015F6F280E606FA3
:1037F0000001A0DC140E0C01846F000195EC0EF0AA
:103800000201445101080EE2446B0C015F6B290E6A
:10381000606F00018FDC140E0C01846F000195ECC9
:103820000EF00201435101080EE2436B0C015F6B85
:103830002A0E606F00017EDC140E0C01846F000103
:1038400095EC0EF00201455101080EE2456B0C01AA
:103850005F6B2B0E606F00016DDC140E0C01846F2A
:10386000000195EC0EF002010C01B26BB16B200E61
:10387000B06F830EAF6F07C1B6FC06C1B5FC05C1C2
:10388000B4FC04C1B3FC00016EDC11E207C1B2FC60
:1038900006C1B1FC05C1B0FC04C1AFFC0C01B66BA4
:1038A000B56BB46B7E0EB36F00015DDC3FE30101CD
:1038B000076B066B056B7F0E046FF250006EF29C77
:1038C000F29EAA6A320EA96E010EA86EA69CA69E52
:1038D000A6840F01550EA76EAA0EA76EA682A6B2E9
:1038E000FED7A6940050F212140E0C01846F000152
:1038F00095EC0EF0F250006EF29CF29EAA6A330E26
:10390000A96EA86AA69CA69EA6840F01550EA76E56
:10391000AA0EA76EA682A6B2FED7A6940050F212F7
:10392000140E0C01846F000195EC0EF00C01B26BCB
:10393000B16B200EB06F840EAF6F0BC1B6FC0AC125
:10394000B5FC09C1B4FC08C1B3FC00010CDC13E2F6
:103950000BC1B2FC0AC1B1FC09C1B0FC08C1AFFC8B
:103960000C01B66BB56B200EB46F810EB36F000106
:10397000B3EC18F040E301010B6B0A6B200E096FEA
:10398000810E086FF250006EF29CF29EAA6A340E0D
:10399000A96E050EA86EA69CA69EA6840F01550EC4
:1039A000A76EAA0EA76EA682A6B2FED7A694005056
:1039B000F212140E0C01846F000195EC0EF0F2501F
:1039C000006EF29CF29EAA6A350EA96EA86AA69CA9
:1039D000A69EA6840F01550EA76EAA0EA76EA682FC
:1039E000A6B2FED7A6940050F212140E0C01846FFA
:1039F000000195EC0EF00C01B26BB16B480EB06F8C
:103A0000830EAF6F19CCB6FC18CCB5FC17CCB4FC48
:103A100016CCB3FC0001B3EC18F012E219CCB2FCE6
:103A200018CCB1FC17CCB0FC16CCAFFC0C01B66BBB
:103A3000B56BB46B7F0EB36F0001B3EC18F040E3CD
:103A40000C01196B186B200E176F820E166FF25057
:103A5000006EF29CF29EAA6A400EA96E0A0EA86E33
:103A6000A69CA69EA6840F01550EA76EAA0EA76E51
:103A7000A682A6B2FED7A6940050F212140E0C0134
:103A8000846F000195EC0EF0F250006EF29CF29EF5
:103A9000AA6A410EA96EA86AA69CA69EA6840F01DA
:103AA000550EA76EAA0EA76EA682A6B2FED7A69442
:103AB0000050F212140E0C01846F000195EC0EF010
:103AC0000C01B26BB16B200EB06F840EAF6F1DCCCA
:103AD000B6FC1CCCB5FC1BCCB4FC1ACCB3FC00016E
:103AE000B3EC18F013E21DCCB2FC1CCCB1FC1BCC27
:103AF000B0FC1ACCAFFC0C01B66BB56B480EB46FC2
:103B0000830EB36F0001B3EC18F040E30C011D6BA2
:103B10001C6B700E1B6F830E1A6FF250006EF29CBE
:103B2000F29EAA6A420EA96E1E0EA86EA69CA69EC2
:103B3000A6840F01550EA76EAA0EA76EA682A6B286
:103B4000FED7A6940050F212140E0C01846F0001EF
:103B500095EC0EF0F250006EF29CF29EAA6A430EB3
:103B6000A96EA86AA69CA69EA6840F01550EA76EF4
:103B7000AA0EA76EA682A6B2FED7A6940050F21295
:103B8000140E0C01846F000195EC0EF00C01B26B69
:103B9000B16B0C0EB06F850EAF6F21CCB6FC20CC94
:103BA000B5FC1FCCB4FC1ECCB3FC0001B3EC18F088
:103BB00013E221CCB2FC20CCB1FC1FCCB0FC1ECC5B
:103BC000AFFC0C01B66BB56B200EB46F840EB36FF7
:103BD0000001B3EC18F040E30C01216B206B200EC8
:103BE0001F6F840E1E6FF250006EF29CF29EAA6A46
:103BF000440EA96E280EA86EA69CA69EA6840F0150
:103C0000550EA76EAA0EA76EA682A6B2FED7A694E0
:103C10000050F212140E0C01846F000195EC0EF0AE
:103C2000F250006EF29CF29EAA6A450EA96EA86A36
:103C3000A69CA69EA6840F01550EA76EAA0EA76E7F
:103C4000A682A6B2FED7A6940050F212140E0C0162
:103C5000846F000195EC0EF00C01B26BB16B480E55
:103C6000B06F830EAF6F01CCB6FC00CCB5FCFFCBC0
:103C7000B4FCFECBB3FC0001B3EC18F012E201CCB3
:103C8000B2FC00CCB1FCFFCBB0FCFECBAFFC0C0116
:103C9000B66BB56BB46B7F0EB36F0001B3EC18F06D
:103CA00041E30C01016B006B200E0B01FF6F820ED4
:103CB000FE6FF250006EF29CF29EAA6A460EA96E4A
:103CC0000A0EA86EA69CA69EA6840F01550EA76E8E
:103CD000AA0EA76EA682A6B2FED7A6940050F21234
:103CE000140E0C01846F000195EC0EF0F250006E82
:103CF000F29CF29EAA6A470EA96EA86AA69CA69E8E
:103D0000A6840F01550EA76EAA0EA76EA682A6B2B4
:103D1000FED7A6940050F212140E0C01846F00011D
:103D200095EC0EF00C01B26BB16B200EB06F840EEF
:103D3000AF6F05CCB6FC04CCB5FC03CCB4FC02CC14
:103D4000B3FC0001B3EC18F013E205CCB2FC04CCD8
:103D5000B1FC03CCB0FC02CCAFFC0C01B66BB56B74
:103D6000480EB46F830EB36F0001B3EC18F040E35C
:103D70000C01056B046B700E036F830E026FF25023
:103D8000006EF29CF29EAA6A480EA96E1E0EA86EE4
:103D9000A69CA69EA6840F01550EA76EAA0EA76E1E
:103DA000A682A6B2FED7A6940050F212140E0C0101
:103DB000846F000195EC0EF0F250006EF29CF29EC2
:103DC000AA6A490EA96EA86AA69CA69EA6840F019F
:103DD000550EA76EAA0EA76EA682A6B2FED7A6940F
:103DE0000050F212140E0C01846F000195EC0EF0DD
:103DF0000C01B26BB16B0C0EB06F850EAF6F09CCBE
:103E0000B6FC08CCB5FC07CCB4FC06CCB3FC000176
:103E1000B3EC18F013E209CCB2FC08CCB1FC07CC2F
:103E2000B0FC06CCAFFC0C01B66BB56B200EB46FCA
:103E3000840EB36F0001B3EC18F040E30C01096B82
:103E4000086B200E076F840E066FF250006EF29C16
:103E5000F29EAA6A4A0EA96E280EA86EA69CA69E7D
:103E6000A6840F01550EA76EAA0EA76EA682A6B253
:103E7000FED7A6940050F212140E0C01846F0001BC
:103E800095EC0EF0F250006EF29CF29EAA6A4B0E78
:103E9000A96EA86AA69CA69EA6840F01550EA76EC1
:103EA000AA0EA76EA682A6B2FED7A6940050F21262
:103EB000140E0C01846F000195EC0EF00C01B26B36
:103EC000B16B700EB06F830EAF6F49CCB6FC48CCAF
:103ED000B5FC47CCB4FC46CCB3FC0001B3EC18F005
:103EE00012E249CCB2FC48CCB1FC47CCB0FC46CC89
:103EF000AFFC0C01B66BB56BB46B7F0EB36F0001FA
:103F0000B3EC18F040E30C01496B486B200E476F8F
:103F1000820E466FF250006EF29CF29EAA6A4C0E20
:103F2000A96E0A0EA86EA69CA69EA6840F01550E29
:103F3000A76EAA0EA76EA682A6B2FED7A6940050C0
:103F4000F212140E0C01846F000195EC0EF0F25089
:103F5000006EF29CF29EAA6A4D0EA96EA86AA69CFB
:103F6000A69EA6840F01550EA76EAA0EA76EA68266
:103F7000A6B2FED7A6940050F212140E0C01846F64
:103F8000000195EC0EF00C01B26BB16B0C0EB06F32
:103F9000850EAF6F4DCCB6FC4CCCB5FC4BCCB4FC15
:103FA0004ACCB3FC0001B3EC18F013E24DCCB2FCE8
:103FB0004CCCB1FC4BCCB0FC4ACCAFFC0C01B66B8A
:103FC000B56B700EB46F830EB36F0001B3EC18F0D5
:103FD00040E30C014D6B4C6B480E4B6F840E4A6FE7
:103FE000F250006EF29CF29EAA6A4E0EA96E320E3C
:103FF000A86EA69CA69EA6840F01550EA76EAA0EBB
:10400000A76EA682A6B2FED7A6940050F212140E96
:104010000C01846F000195EC0EF0F250006EF29CE2
:10402000F29EAA6A4F0EA96EA86AA69CA69EA684B6
:104030000F01550EA76EAA0EA76EA682A6B2FED7D6
:10404000A6940050F212140E0C01846F000195EC3E
:104050000EF00C01B26BB16B480EB06F850EAF6FF6
:1040600051CCB6FC50CCB5FC4FCCB4FC4ECCB3FC20
:104070000001B3EC18F013E251CCB2FC50CCB1FC0F
:104080004FCCB0FC4ECCAFFC0C01B66BB56B0C0E3C
:10409000B46F850EB36F0001B3EC18F040E30C0170
:1040A000516B506B0C0E4F6F850E4E6FF250006EC1
:1040B000F29CF29EAA6A500EA96E460EA86EA69CAD
:1040C000A69EA6840F01550EA76EAA0EA76EA68205
:1040D000A6B2FED7A6940050F212140E0C01846F03
:1040E000000195EC0EF0F250006EF29CF29EAA6A6E
:1040F000510EA96EA86AA69CA69EA6840F01550E15
:10410000A76EAA0EA76EA682A6B2FED7A6940050EE
:10411000F212140E0C01846F000195EC0EF00C01EC
:10412000B26BB16B700EB06F830EAF6F31CCB6FC5B
:1041300030CCB5FC2FCCB4FC2ECCB3FC0001B3ECDE
:1041400018F012E231CCB2FC30CCB1FC2FCCB0FC78
:104150002ECCAFFC0C01B66BB56BB46B7F0EB36F9E
:104160000001B3EC18F040E30C01316B306B200E12
:104170002F6F820E2E6FF250006EF29CF29EAA6A92
:10418000520EA96E0A0EA86EA69CA69EA6840F01CA
:10419000550EA76EAA0EA76EA682A6B2FED7A6944B
:1041A0000050F212140E0C01846F000195EC0EF019
:1041B000F250006EF29CF29EAA6A530EA96EA86A93
:1041C000A69CA69EA6840F01550EA76EAA0EA76EEA
:1041D000A682A6B2FED7A6940050F212140E0C01CD
:1041E000846F000195EC0EF00C01B26BB16B0C0EFC
:1041F000B06F850EAF6F35CCB6FC34CCB5FC33CC8C
:10420000B4FC32CCB3FC0001B3EC18F013E235CCB3
:10421000B2FC34CCB1FC33CCB0FC32CCAFFC0C01E2
:10422000B66BB56B700EB46F830EB36F0001B3EC59
:1042300018F03FE30C01356B346B480E336F840E7E
:10424000326FF250006EF29CF29EAA6A540EA96E72
:10425000320EA86EA69CA69EA6840F01550EA76ED0
:10426000AA0EA76EA682A6B2FED7A6940050F2129E
:10427000140E0C01846F000195EC0EF0F250006EEC
:10428000F29CF29EAA6A550EA96EA86AA69CA69EEA
:10429000A6840F01A76EAA0EA76EA682A6B2FED7AD
:1042A000A6940050F212140E0C01846F000195ECDC
:1042B0000EF00C01B26BB16B480EB06F850EAF6F94
:1042C00039CCB6FC38CCB5FC37CCB4FC36CCB3FC1E
:1042D0000001B3EC18F013E239CCB2FC38CCB1FCDD
:1042E00037CCB0FC36CCAFFC0C01B66BB56B0C0E0A
:1042F000B46F850EB36F0001B3EC18F040E30C010E
:10430000396B386B0C0E376F850E366FF250006EBE
:10431000F29CF29EAA6A560EA96E460EA86EA69C44
:10432000A69EA6840F01550EA76EAA0EA76EA682A2
:10433000A6B2FED7A6940050F212140E0C01846FA0
:10434000000195EC0EF0F250006EF29CF29EAA6A0B
:10435000570EA96EA86AA69CA69EA6840F01550EAC
:10436000A76EAA0EA76EA682A6B2FED7A69400508C
:10437000F212140E0C01846F000195EC0EF0E36B49
:10438000E26BE353D8A482D3E2510108D8A07ED3D4
:10439000E3C080FCE2C07FFC0C01826B300E816FB9
:1043A0000001F0EC18F001C05EFC0C0E0C010124C1
:1043B000016E000E0220036E0150FE0F016E0B0E07
:1043C000032201C05EFC03C05FFCE3C080FCE2C0CE
:1043D0007FFC826B300E816F0001F0EC18F001C0A1
:1043E00060FC040E0C010124016E000E0220036E1D
:1043F0000150FE0FE96E0B0E0320EA6EEFCF60FC5A
:10440000ECCF61FCECCF62FCECCF63FCE3C080FC42
:10441000E2C07FFC826B300E816F0001F0EC18F07F
:1044200002C065FC01C064FCFE0E0C010124E96EB3
:104430000B0E0220EA6EEFCF00F0ECCF01F0ECCFD4
:1044400002F0ECCF03F0EACF67FCE9CF66FCD8823C
:1044500063CCB6FC62CCB5FC61CCB4FC60CCB3FCE4
:1044600003C0BAFC02C0B9FC01C0B8FC00C0B7FC74
:10447000000108EC10F067CCEAFF66CCE9FF03C04E
:1044800063FC02C062FC01C061FC00C060FCE3C0D0
:1044900080FCE2C07FFC0C01826B300E816F00015A
:1044A000F0EC18F001C068FC1C0E0C010124016E38
:1044B000000E0220036E0150FE0FE96E0B0E03206A
:1044C000EA6EEFCF68FCECCF69FCECCF6AFCECCF76
:1044D0006BFCE3C080FCE2C07FFC826B300E816F1E
:1044E0000001F0EC18F002C06DFC01C06CFC180E6D
:1044F0000C010124016E000E0220036E0150FE0F1C
:10450000E96E0B0E0320EA6EEFCF00F0ECCF01F066
:10451000ECCF02F0ECCF03F0EACF6DFCE9CF6CFCFE
:10452000D8826BCCB6FC6ACCB5FC69CCB4FC68CC48
:10453000B3FC03C0BAFC02C0B9FC01C0B8FC00C0A7
:10454000B7FC000108EC10F06DCCEAFF6CCCE9FF81
:1045500063CCABFC62CCAAFC61CCA9FC60CCA8FC0F
:1045600003C0AFFC02C0AEFC01C0ADFC00C0ACFC9F
:1045700059EC0FF05FCCEAFF5ECCE9FF00C0EFFF23
:1045800001C0ECFF02C0ECFF03C0ECFFE3C080FC05
:10459000E2C07FFC0C01826B300E816F0001F0ECF9
:1045A00018F001C05EFC240E0C010124016E000E07
:1045B0000220036E0150FE0F016E0B0E032201C09C
:1045C0005EFC03C05FFCE3C080FCE2C07FFC826B4A
:1045D000300E816F0001F0EC18F001C060FC040E99
:1045E0000C010124016E000E0220036E0150FE0F2B
:1045F000E96E0B0E0320EA6EEFCF60FCECCF61FC9E
:10460000ECCF62FCECCF63FCE3C080FCE2C07FFC3B
:10461000826B300E816F0001F0EC18F001C064FC79
:104620000C0E0C010124016E000E0220036E0150DD
:10463000FE0FE96E0B0E0320EA6EEFCF64FCECCFA9
:1046400065FCECCF66FCECCF67FCE3C080FCE2C00D
:104650007FFC826B300E816F0001F0EC18F002C01D
:1046600069FC01C068FC1C0E0C010124016E000EE7
:104670000220036E0150FE0FE96E0B0E0320EA6E5E
:10468000EFCF00F0ECCF01F0ECCF02F0ECCF03F075
:1046900067CCB2FC66CCB1FC65CCB0FC64CCAFFCA2
:1046A00003C0B6FC02C0B5FC01C0B4FC00C0B3FC42
:1046B000000101EC19F0EACF65FCE9CF64FCD88277
:1046C00063CCB6FC62CCB5FC61CCB4FC60CCB3FC72
:1046D00003C0BAFC02C0B9FC01C0B8FC00C0B7FC02
:1046E00008EC10F065CCEAFF64CCE9FF5FCCEAFF90
:1046F0005ECCE9FF00C0EFFF01C0ECFF02C0ECFFA1
:1047000003C0ECFFE3C080FCE2C07FFC0C01826BC5
:10471000300E816F0001F0EC18F001C05EFC100E4D
:104720000C010124016E000E0220036E0150FE0FE9
:10473000016E0B0E032201C05EFC03C05FFCE3C0F0
:1047400080FCE2C07FFC826B300E816F0001F0ECD8
:1047500018F001C060FC080E0C010124016E000E6F
:104760000220036E0150FE0FE96E0B0E0320EA6E6D
:10477000EFCF60FCECCF61FCECCF62FCECCF63FCD4
:10478000E3C080FCE2C07FFC826B300E816F0001D1
:10479000F0EC18F002C065FC01C064FC040E0C01D2
:1047A0000124016E000E0220036E0150FE0FE96E1F
:1047B0000B0E0320EA6EEFCF00F0ECCF01F0ECCF50
:1047C00002F0ECCF03F0EACF65FCE9CF64FCD882BD
:1047D00063CCB6FC62CCB5FC61CCB4FC60CCB3FC61
:1047E00003C0BAFC02C0B9FC01C0B8FC00C0B7FCF1
:1047F000000108EC10F065CCEAFF64CCE9FF03C0CF
:1048000063FC02C062FC01C061FC00C060FCE3C04C
:1048100080FCE2C07FFC0C01826B300E816F0001D6
:10482000F0EC18F001C066FC200E0C010124016EB2
:10483000000E0220036E0150FE0FE96E0B0E0320E6
:10484000EA6EEFCF66FCECCF67FCECCF68FCECCFF8
:1048500069FCE3C080FCE2C07FFC826B300E816F9C
:104860000001F0EC18F002C06BFC01C06AFC1C0EE9
:104870000C010124016E000E0220036E0150FE0F98
:10488000E96E0B0E0320EA6EEFCF00F0ECCF01F0E3
:10489000ECCF02F0ECCF03F0EACF6BFCE9CF6AFC7F
:1048A000D88269CCB6FC68CCB5FC67CCB4FC66CCCD
:1048B000B3FC03C0BAFC02C0B9FC01C0B8FC00C024
:1048C000B7FC000108EC10F06BCCEAFF6ACCE9FF02
:1048D00063CCABFC62CCAAFC61CCA9FC60CCA8FC8C
:1048E00003C0AFFC02C0AEFC01C0ADFC00C0ACFC1C
:1048F00059EC0FF05FCCEAFF5ECCE9FF00C0EFFFA0
:1049000001C0ECFF02C0ECFF03C0ECFFE3C080FC81
:10491000E2C07FFC0C01826B300E816F0001F0EC75
:1049200018F001C05EFC280E0C010124016E000E7F
:104930000220036E0150FE0F016E0B0E032201C018
:104940005EFC03C05FFCE3C080FCE2C07FFC826BC6
:10495000300E816F0001F0EC18F001C060FC080E11
:104960000C010124016E000E0220036E0150FE0FA7
:10497000E96E0B0E0320EA6EEFCF60FCECCF61FC1A
:10498000ECCF62FCECCF63FCE3C080FCE2C07FFCB8
:10499000826B300E816F0001F0EC18F001C064FCF6
:1049A000100E0C010124016E000E0220036E015056
:1049B000FE0FE96E0B0E0320EA6EEFCF64FCECCF26
:1049C00065FCECCF66FCECCF67FCE3C080FCE2C08A
:1049D0007FFC826B300E816F0001F0EC18F002C09A
:1049E00069FC01C068FC200E0C010124016E000E60
:1049F0000220036E0150FE0FE96E0B0E0320EA6EDB
:104A0000EFCF00F0ECCF01F0ECCF02F0ECCF03F0F1
:104A100067CCB2FC66CCB1FC65CCB0FC64CCAFFC1E
:104A200003C0B6FC02C0B5FC01C0B4FC00C0B3FCBE
:104A3000000101EC19F0EACF65FCE9CF64FCD882F3
:104A400063CCB6FC62CCB5FC61CCB4FC60CCB3FCEE
:104A500003C0BAFC02C0B9FC01C0B8FC00C0B7FC7E
:104A600008EC10F065CCEAFF64CCE9FF5FCCEAFF0C
:104A70005ECCE9FF00C0EFFF01C0ECFF02C0ECFF1D
:104A800003C0ECFFE22BD8B4E32B7BD420C1B2FCF3
:104A90001FC1B1FC1EC1B0FC1DC1AFFC7CEC19F004
:104AA00001C0F3F130C1B2FC2FC1B1FC2EC1B0FC8A
:104AB0002DC1AFFC7CEC19F00C01B46B01C0B3FC50
:104AC00000013EEC0FF003C034F102C033F101C02D
:104AD00032F100C031F1DB6BCFC0DAF075EFA0F03E
:104AE0000C017F35006E0036FC0E001600C001F090
:104AF000C250C30B0010C26E010E846F000195EC12
:104B00000EF0C282C2B2FED7C4CFB4FCC3CFB3FC96
:104B100000013EEC0FF003C083FC02C082FC01C028
:104B200081FC00C080FC80CC00F081CC01F082CC04
:104B300002F083CC03F012000C01646B636B626BB8
:104B4000616B686B676B666B656B0201116B106B59
:104B50000F6B0E6B0101F96BF86BF76BF66B010EC7
:104B60000C017F6F0001BCDF03C0B2FC02C0B1FCCE
:104B700001C0B0FC00C0AFFC7CEC19F002C060FCCE
:104B800001C05FFC010E0C015E5D0101615D02E090
:104B900001E3616BD8906135036A470FE96E020E3D
:104BA0000320EA6E60CCECFFED525FCCEFFF612B8F
:104BB000606B0C015E510101605D38E2D890603598
:104BC000036A470FE96E020E0320EA6EECCF03F092
:104BD000ED52EFCFB3FC03C0B4FC00013EEC0FF08C
:104BE000EACF6EFCE9CF6DFCD892F9C1B6FCF8C1F2
:104BF000B5FCF7C1B4FCF6C1B3FC03C0BAFC02C0FB
:104C0000B9FC01C0B8FC00C0B7FC08EC10F06ECCD9
:104C1000EAFF6DCCE9FF03C0F9F102C0F8F101C071
:104C2000F7F100C0F6F10101602BC3D70C01B46BA2
:104C30005ECCB3FC00013EEC0FF0F9C1ABFCF8C157
:104C4000AAFCF7C1A9FCF6C1A8FC03C0AFFC02C0D6
:104C5000AEFC01C0ADFC00C0ACFC59EC0FF003C0D1
:104C600001F202C000F201C0FFF100C0FEF101C27A
:104C7000ABFC00C2AAFCFFC1A9FCFEC1A8FCB80E97
:104C80000C01AF6F1E0EAE6F530EAD6F850EAC6F85
:104C9000000159EC0FF003C001F202C000F201C0A4
:104CA000FFF100C0FEF1D89201C2B6FC00C2B5FC13
:104CB000FFC1B4FCFEC1B3FCD70E0C01BA6FA30E4A
:104CC000B96F6C0EB86F820EB76F000108EC10F070
:104CD00003C001F202C000F201C0FFF100C0FEF10A
:104CE0000C01AB6BC00EAA6F7F0EA96F880EA86F68
:104CF00001C2AFFC00C2AEFCFFC1ADFCFEC1ACFC0A
:104D0000000159EC0FF003C070FC02C06FFC01C041
:104D10006EFC00C06DFCD88203C0B6FC02C0B5FCBE
:104D200001C0B4FC00C0B3FC0C01BA6BB96BB86B2A
:104D30007F0EB76F000108EC10F00C01AB6B800E1A
:104D4000AA6F540EA96F8B0EA86F03C0AFFC02C0F0
:104D5000AEFC01C0ADFC00C0ACFC000159EC0FF092
:104D600003C011F202C010F201C00FF200C00EF237
:104D700011C2B2FC10C2B1FC0FC2B0FC0EC2AFFC3B
:104D800011C2B6FC10C2B5FC0FC2B4FC0EC2B3FC1B
:104D900001EC19F003C070FC02C06FFC01C06EFC96
:104DA00000C06DFC03C0B2FC02C0B1FC01C0B0FC8D
:104DB00000C0AFFC5BC6B6FC5AC6B5FC59C6B4FC15
:104DC00058C6B3FC01EC19F003C070FC02C06FFCC4
:104DD00001C06EFC00C06DFC11C2B2FC10C2B1FC7F
:104DE0000FC2B0FC0EC2AFFC5FC6B6FC5EC6B5FC1F
:104DF0005DC6B4FC5CC6B3FC01EC19F0D89270CC73
:104E0000B6FC6FCCB5FC6ECCB4FC6DCCB3FC03C06F
:104E1000BAFC02C0B9FC01C0B8FC00C0B7FC08EC89
:104E200010F003C070FC02C06FFC01C06EFC00C03B
:104E30006DFCD89203C0B6FC02C0B5FC01C0B4FC46
:104E400000C0B3FC63C6BAFC62C6B9FC61C6B8FC5C
:104E500060C6B7FC08EC10F003C009F202C008F20B
:104E600001C007F200C006F20C01B46BD4C0B3FC61
:104E700000013EEC0FF003C064FC02C063FC01C003
:104E800062FC00C061FC64CCABFC63CCAAFC62CCCD
:104E9000A9FC61CCA8FC0C01AF6BAE6B200EAD6F12
:104EA000820EAC6F000159EC0FF003C064FC02C02D
:104EB00063FC01C062FC00C061FC0C01B46BD5C096
:104EC000B3FC00013EEC0FF003C068FC02C067FCBD
:104ED00001C066FC00C065FC68CCABFC67CCAAFCDA
:104EE00066CCA9FC65CCA8FC0C01AF6BAE6B200EA8
:104EF000AD6F820EAC6F000159EC0FF003C068FC7F
:104F000002C067FC01C066FC00C065FCD88264CCAE
:104F1000B6FC63CCB5FC62CCB4FC61CCB3FC68CC11
:104F2000BAFC67CCB9FC66CCB8FC65CCB7FC08EC25
:104F300010F0D89209C2B6FC08C2B5FC07C2B4FC96
:104F400006C2B3FC03C0BAFC02C0B9FC01C0B8FC85
:104F500000C0B7FC08EC10F003C009F202C008F270
:104F600001C007F200C006F209C2B2FC08C2B1FCDF
:104F700007C2B0FC06C2AFFC05CCB6FC04CCB5FC45
:104F800003CCB4FC02CCB3FCB3EC18F001E236E184
:104F9000D88209C2B6FC08C2B5FC07C2B4FC06C27E
:104FA000B3FC25CCBAFC24CCB9FC23CCB8FC22CC75
:104FB000B7FC08EC10F003C070FC02C06FFC01C02D
:104FC0006EFC00C06DFC03C0ABFC02C0AAFC01C0BB
:104FD000A9FC00C0A8FC0DCCAFFC0CCCAEFC0BCCEB
:104FE000ADFC0ACCACFC59EC0FF003C06CFC02C069
:104FF0006BFC01C06AFC00C069FC35D0D88209C2D4
:10500000B6FC08C2B5FC07C2B4FC06C2B3FC29CC8E
:10501000BAFC28CCB9FC27CCB8FC26CCB7FC08ECF1
:1050200010F003C070FC02C06FFC01C06EFC00C039
:105030006DFC03C0ABFC02C0AAFC01C0A9FC00C00F
:10504000A8FC11CCAFFC10CCAEFC0FCCADFC0ECC50
:10505000ACFC59EC0FF003C06CFC02C06BFC01C04F
:105060006AFC00C069FC69CC00F06ACC01F06BCC32
:1050700002F06CCC03F012000201156B146B136B81
:10508000126B0101FD6BFC6BFB6BFA6B0C01646B2B
:10509000636B626B616B020E7F6F000121DD03C0E9
:1050A000B2FC02C0B1FC01C0B0FC00C0AFFC7CECA3
:1050B00019F002C060FC01C05FFC010E0C015E5DD6
:1050C0000201325D02E001E3326BD8903235036AAF
:1050D000E70FE96E020E0320EA6E60CCECFFED52A2
:1050E0005FCCEFFF322B336B0C015E510201335D5D
:1050F00038E2D8903335036AE70FE96E020E0320D9
:10510000EA6EECCF03F0ED52EFCFB3FC03C0B4FC7A
:1051100000013EEC0FF0EACF6EFCE9CF6DFCD892B7
:10512000FDC1B6FCFCC1B5FCFBC1B4FCFAC1B3FCCB
:1051300003C0BAFC02C0B9FC01C0B8FC00C0B7FC97
:1051400008EC10F06ECCEAFF6DCCE9FF03C0FDF176
:1051500002C0FCF101C0FBF100C0FAF10201332BE7
:10516000C3D70C01B46B5ECCB3FC00013EEC0FF076
:10517000FDC1ABFCFCC1AAFCFBC1A9FCFAC1A8FCA7
:1051800003C0AFFC02C0AEFC01C0ADFC00C0ACFC73
:1051900059EC0FF003C005F202C004F201C003F2A3
:1051A00000C002F205C2ABFC04C2AAFC03C2A9FC07
:1051B00002C2A8FCB80E0C01AF6F1E0EAE6F530EEC
:1051C000AD6F850EAC6F000159EC0FF003C005F216
:1051D00002C004F201C003F200C002F2D89205C27C
:1051E000B6FC04C2B5FC03C2B4FC02C2B3FCD70EC9
:1051F0000C01BA6FA30EB96F6C0EB86F820EB76F49
:10520000000108EC10F003C005F202C004F201C076
:1052100003F200C002F20C01AB6BC00EAA6F7F0E4E
:10522000A96F880EA86F05C2AFFC04C2AEFC03C212
:10523000ADFC02C2ACFC000159EC0FF003C070FCE5
:1052400002C06FFC01C06EFC00C06DFCD88203C0C0
:10525000B6FC02C0B5FC01C0B4FC00C0B3FC0C013C
:10526000BA6BB96BB86B7F0EB76F000108EC10F02A
:105270000C01AB6B800EAA6F540EA96F8B0EA86F3A
:1052800003C0AFFC02C0AEFC01C0ADFC00C0ACFC72
:10529000000159EC0FF003C015F202C014F201C076
:1052A00013F200C012F215C2B2FC14C2B1FC13C258
:1052B000B0FC12C2AFFC15C2B6FC14C2B5FC13C2DE
:1052C000B4FC12C2B3FC01EC19F003C070FC02C0C4
:1052D0006FFC01C06EFC00C06DFC03C0B2FC02C0DC
:1052E000B1FC01C0B0FC00C0AFFC5BC6B6FC5AC646
:1052F000B5FC59C6B4FC58C6B3FC01EC19F003C0A8
:1053000070FC02C06FFC01C06EFC00C06DFC15C2D9
:10531000B2FC14C2B1FC13C2B0FC12C2AFFC5FC637
:10532000B6FC5EC6B5FC5DC6B4FC5CC6B3FC01EC65
:1053300019F0D89270CCB6FC6FCCB5FC6ECCB4FC36
:105340006DCCB3FC03C0BAFC02C0B9FC01C0B8FC10
:1053500000C0B7FC08EC10F003C070FC02C06FFC8A
:1053600001C06EFC00C06DFCD89203C0B6FC02C048
:10537000B5FC01C0B4FC00C0B3FC63C6BAFC62C695
:10538000B9FC61C6B8FC60C6B7FC08EC10F003C0FD
:105390000DF202C00CF201C00BF200C00AF20C01C7
:1053A000B46BD6C0B3FC00013EEC0FF003C068FC48
:1053B00002C067FC01C066FC00C065FC68CCABFCA9
:1053C00067CCAAFC66CCA9FC65CCA8FC0C01AF6B31
:1053D000AE6B200EAD6F820EAC6F000159EC0FF07A
:1053E00003C068FC02C067FC01C066FC00C065FC2D
:1053F0000C01B46BD7C0B3FC00013EEC0FF003C04E
:105400006CFC02C06BFC01C06AFC00C069FC6CCC87
:10541000ABFC6BCCAAFC6ACCA9FC69CCA8FC0C0147
:10542000AF6BAE6B200EAD6F820EAC6F000159EC0E
:105430000FF003C06CFC02C06BFC01C06AFC00C032
:1054400069FCD88268CCB6FC67CCB5FC66CCB4FCF1
:1054500065CCB3FC6CCCBAFC6BCCB9FC6ACCB8FCA8
:1054600069CCB7FC08EC10F0D8920DC2B6FC0CC2A7
:10547000B5FC0BC2B4FC0AC2B3FC03C0BAFC02C048
:10548000B9FC01C0B8FC00C0B7FC08EC10F003C0C8
:105490000DF202C00CF201C00BF200C00AF20AC207
:1054A00000F00BC201F00CC202F00DC203F01200BA
:1054B0000C01AE91A2CCA7FCA1CCA6FCA0CCA5FC73
:1054C0009FCCA4FCA2CCB2FCA1CCB1FCA0CCB0FC83
:1054D0009FCCAFFCB66BB56BB46BB36B0001B3EC98
:1054E00018F006E30C01AE81A551800AA56F0001FA
:1054F000A7CCB2FCA6CCB1FCA5CCB0FCA4CCAFFC34
:105500000C01B66BB56BB46B8E0EB36F0001B3ECD0
:1055100018F001E219E1A7CCB2FCA6CCB1FCA5CCF5
:10552000B0FCA4CCAFFC7CEC19F002C0B4FC01C010
:10553000B3FC3EEC0FF003C0ABFC02C0AAFC01C000
:10554000A9FC00C0A8FCD3D0A7CCB2FCA6CCB1FC6F
:10555000A5CCB0FCA4CCAFFC800E0C01B66F960EAF
:10556000B56F180EB46F960EB36F0001B3EC18F060
:10557000D8A0B5D0A7CCB2FCA6CCB1FCA5CCB0FCD1
:10558000A4CCAFFC0C01B66BB56BB46B700EB36FF3
:10559000000101EC19F003C0B2FC02C0B1FC01C073
:1055A000B0FC00C0AFFC7CEC19F002C0ADFC01C047
:1055B000ACFCA7CCB2FCA6CCB1FCA5CCB0FCA4CC76
:1055C000AFFC0C01B66BB56BB46B700EB36F000122
:1055D00001EC19F003C0B2FC02C0B1FC01C0B0FC88
:1055E00000C0AFFCADCCB4FCACCCB3FC3EEC0FF0D7
:1055F000D882B2CCB6FCB1CCB5FCB0CCB4FCAFCC4C
:10560000B3FC03C0BAFC02C0B9FC01C0B8FC00C0C6
:10561000B7FC08EC10F00C01B26BB16BB06B8E0EE6
:10562000AF6F03C0B6FC02C0B5FC01C0B4FC00C043
:10563000B3FC000101EC19F003C0A7FC02C0A6FCFA
:1056400001C0A5FC00C0A4FCADCCB4FCACCCB3FC48
:105650003EEC0FF00C01B26BB16BB06B8E0EAF6F06
:1056600003C0B6FC02C0B5FC01C0B4FC00C0B3FC72
:10567000000101EC19F003C0ABFC02C0AAFC01C0A0
:10568000A9FC00C0A8FCA7CCB2FCA6CCB1FCA5CC60
:10569000B0FCA4CCAFFC7CEC19F002C0B4FC01C09F
:1056A000B3FC3EEC0FF0D892ABCCB6FCAACCB5FC68
:1056B000A9CCB4FCA8CCB3FC03C0BAFC02C0B9FCB2
:1056C00001C0B8FC00C0B7FC08EC10F003C0ABFC94
:1056D00002C0AAFC01C0A9FC00C0A8FC08D0A7CC4D
:1056E000ABFCA6CCAAFCA5CCA9FCA4CCA8FCA7CC5E
:1056F000B2FCA6CCB1FCA5CCB0FCA4CCAFFC7CEC3D
:1057000019F002C0B4FC01C0B3FC3EEC0FF0D8822B
:10571000A7CCB6FCA6CCB5FCA5CCB4FCA4CCB3FC01
:1057200003C0BAFC02C0B9FC01C0B8FC00C0B7FCA1
:1057300008EC10F003C0A7FC02C0A6FC01C0A5FC49
:1057400000C0A4FC0C01AEA103D0A951800AA96F2E
:10575000A7CCB2FCA6CCB1FCA5CCB0FCA4CCAFFCD1
:10576000B66BB56BB46BB36B0001B3EC18F03CE0F7
:105770000C01AEA11CD0A3531AE1D882ABCCB6FC6D
:10578000AACCB5FCA9CCB4FCA8CCB3FCBA6BB96B61
:10579000B86B7F0EB76F000108EC10F003C0ABFCD4
:1057A00002C0AAFC01C0A9FC00C0A8FC0C01AEB15B
:1057B0001CD0A32D1AD0D892ABCCB6FCAACCB5FC89
:1057C000A9CCB4FCA8CCB3FCBA6BB96BB86B7F0E98
:1057D000B76F000108EC10F003C0ABFC02C0AAFCDC
:1057E00001C0A9FC00C0A8FC0C01A2CCB2FCA1CC59
:1057F000B1FCA0CCB0FC9FCCAFFCB66BB56BB46B6E
:10580000B36B0001B3EC18F006E10C01AB6BAA6BB3
:10581000A96BA86B0001A8CC00F0A9CC01F0AACC20
:1058200002F0ABCC03F012009ECCA2FC9DCCA1FCFC
:105830009CCCA0FC9BCC9FFC010E0C01A36F000133
:1058400037DE91EF2CF09ECCA2FC9DCCA1FC9CCC31
:10585000A0FC9BCC9FFC0C01A36B000129DEB5EFE3
:105860002CF092CCB2FC91CCB1FC90CCB0FC8FCCA3
:10587000AFFC0C01B66BB56BB46BB36B0001B3EC52
:1058800018F0D8B4A0D08ECCABFC8DCCAAFC8CCCBC
:10589000A9FC8BCCA8FC92CCAFFC91CCAEFC90CCFC
:1058A000ADFC8FCCACFC59EC0FF003C09AFC02C0ED
:1058B00099FC01C098FC00C097FC03C0B2FC02C078
:1058C000B1FC01C0B0FC00C0AFFC0C01B66BB56B05
:1058D000B46BB36B0001B3EC18F024E38ECCABFCDB
:1058E0008DCCAAFC8CCCA9FC8BCCA8FC92CCAFFCB8
:1058F00091CCAEFC90CCADFC8FCCACFC59EC0FF055
:1059000003C09AFC02C099FC01C098FC00C097FC3F
:1059100003C09EFC02C09DFC01C09CFC00C09BFC1F
:1059200083D723D08ECCABFC8DCCAAFC8CCCA9FC2D
:105930008BCCA8FC92CCAFFC91CCAEFC90CCADFC57
:105940008FCCACFC59EC0FF003C09AFC02C099FC60
:1059500001C098FC00C097FC03C09EFC02C09DFCE7
:1059600001C09CFC00C09BFC6ED703C096FC02C02B
:1059700095FC01C094FC00C093FC96CCB2FC95CC85
:10598000B1FC94CCB0FC93CCAFFC92CCB6FC91CCE7
:10599000B5FC90CCB4FC8FCCB3FC01EC19F0D882F0
:1059A0008ECCB6FC8DCCB5FC8CCCB4FC8BCCB3FCD3
:1059B00003C0BAFC02C0B9FC01C0B8FC00C0B7FC0F
:1059C00008EC10F000D012008E0E006EA6CC01F094
:1059D000A5CC02F0036A01AE05D0011E021E022A08
:1059E00001E1012A015209E102C001F0026A080E38
:1059F000005E015202E1006A0ED0D89001BE04D0D0
:105A0000023601360006F9D70C01A6AF02D000011C
:105A100002D0019E0001120092CC96FC91CC95FC24
:105A200090CC94FC8FCC93FC96CCB2FC95CCB1FC82
:105A300094CCB0FC93CCAFFC0C01B66BB56BB46BE3
:105A40007F0EB36F0001B3EC18F0D8B49ED10C0EEA
:105A50000C01A56F930EE96EA5CCEAFF7E0EEF6EEA
:105A6000D88296CCB6FC95CCB5FC94CCB4FC93CC47
:105A7000B3FCBA6BB96BB86B7F0EB76F000108EC63
:105A800010F003C0A7FC02C0A6FC01C0A5FC00C02A
:105A9000A4FCD89296CCB6FC95CCB5FC94CCB4FCC6
:105AA00093CCB3FC0C01BA6BB96BB86B7F0EB76FBC
:105AB000000108EC10F0A7CCABFCA6CCAAFCA5CC4E
:105AC000A9FCA4CCA8FC03C0AFFC02C0AEFC01C082
:105AD000ADFC00C0ACFC59EC0FF003C096FC02C05A
