:4000000000800020110000009D7200009D72000008B5044B1A6803F53F5302331A6007F05DF900BFFA46004010B5054C237833B9044B13B10448AFF300800123237010BDFC
:40004000E881FF1F00000000F8E70000084B10B51BB108490848AFF300800848036803B910BD074B002BFBD0BDE81040184700BF00000000EC81FF1FF8E70000C880FF1F04
:400080000000000008B5564A138801331380554A138801331380544A138801339BB21380524AB2F90020012A14D1514A1288934202D300224C4B1A804B4B1A884D4B1B8817
:4000C0009A4203D8012009F02BFA0AE0002009F027FA06E0484BB3F9003013B9002009F01FFA404B1B88C72B15D90122434B1A80434BB3F900301BB1424A13880133138016
:40010000414BB3F900301BB1404A1388013313800022344B1A80324B1B88B3F5FA7F5ED300222F4B1A800122394B1A8039490B8813440B8038490B8813440B8037490B887B
:4001400013440B803649B1F90030B3FA83F35B090B80344B1A8009F0D5FF012807D1324B1B88B3F5167F02D201332F4A13802F4BB3F900301BB12E4A1388013313802D4B66
:40018000B3F900301BB12C4A1388013313802B4BB3F900301BB12A4A138801331380294BB3F90030012B03D1274A138801331380264B1B78013BDBB2012B07D8244A1388C7
:4001C00001331380234A136801331360224BB3F90030012B03D1214A13880133138008BDE084FF1FEA84FF1F3C88FF1F0884FF1FA885FF1F5888FF1F3484FF1F0A89FF1F64
:400200003684FF1F2C84FF1FC688FF1FCA88FF1FCE84FF1FE284FF1FD284FF1FC088FF1FEC83FF1FFA83FF1F2889FF1F4484FF1FC488FF1F3884FF1FA68AFF1FEA83FF1F74
:40024000D686FF1F2089FF1F1889FF1FA085FF1F6885FF1F7485FF1FC085FF1FD486FF1F08B508F0E1FFC0B21D4B1870652805D101221C4B1A8000221B4B1A70194BB3F99E
:400280000030012B05D1184A13781849C85401331370154B1B78092B04D90023124A1370104A1380104B1B78CBB9104B1B78652B12D10E4B5B78FF2B0ED10C4B9B78FF2B5C
:4002C0000AD10A4B1B7A3BB9084B5B7AFF2B03D10522074B1A7008BD0A22054B1A7008BDFE83FF1F1285FF1F0482FF1FB085FF1F0B84FF1F000000002DE9F843002009F02A
:40030000FBF8C94B1870052007F02EF9012009F0F3F8C64B1870052007F026F9502009F0EBF8C34E3070052007F01EF9512009F0E3F8C04C0BF0A8FF2060052007F014F946
:40034000BD4920680CF0ACF80546206030780BF09FFF29460BF0E8FEB84B1860522009F0CBF8B74B1880052007F0FEF80A2009F0C3F8B44C2070052007F0F6F80B2009F002
:40038000BBF86070052007F0EFF80C2009F0B4F8A070052007F0E8F80D2009F0ADF8E070052007F0E1F81E2009F0A6F8A64C0BF06BFF2060052007F0D7F81F2009F09CF867
:4003C000A24B1870052007F0CFF8202009F094F89F4B1870052007F0C7F8212009F08CF89C4B1870052007F0BFF8222009F084F8994B1870052007F0B7F8232009F07CF8F5
:40040000964B1870052007F0AFF8242009F074F8934B1870052007F0A7F8252009F06CF8904B1870052007F09FF8262009F064F88D4B1870052007F097F8272009F05CF8D4
:400440008A4B1870052007F08FF8282009F054F8874B1870052007F087F8292009F04CF8844B1870052007F07FF82A2009F044F8814B1870052007F077F82B2009F03CF8B4
:400480007E4B1870052007F06FF82C2009F034F87B4B1870052007F067F82D2009F02CF8784B1870052007F05FF82E2009F024F8754B1870052007F057F820680CF028F94B
:4004C000724B18700022724B1A70A2E004EB44035800643080B209F00FF86E4D04EB4404A3002B4458706A4E347804EB44035800653080B209F000F804EB4404A300E854EC
:40050000347804EB44035800663080B208F0F4FF04EB4404A3002B441871347804EB44035800673080B208F0E7FF04EB4404A3002B449870347804EB44035800683080B2C6
:4005400008F0DAFF04EB4404A3002B44D870347867003A199300EA1892F80190E85C06F049FA804648460BF093FE41460BF0DCFD3C44A3002B449860347804EB440293004D
:400580001D44AD68444928460CF092F840B928460BF028FA22A3D3E900230BF0E9FC30B104EB440293003B4A13443C4A9A6004EB44029300374A13441B790A3BDBB2552BB1
:4005C00006D904EB44029300324A13443C221A7104EB440293002F4A13449B78632B06D904EB440293002B4A13440A229A7004EB44029300274A1344DB783B2B06D904EB9F
:4006000044029300234A13440A22DA700134204B1C701F4B1C78132C7FF658AFBDE8F8839A9999999999B93FB08AFF1F4C84FF1F4084FF1FE486FF1F000020415884FF1F08
:400640007285FF1FF488FF1F948AFF1FD084FF1FEA88FF1F258CFF1FC285FF1F7985FF1F2289FF1F988AFF1F1384FF1F0C84FF1FF58BFF1F3F88FF1FD888FF1FBE85FF1F6F
:40068000FF83FF1FF48BFF1FEE88FF1FDC83FF1FAC85FF1FE485FF1F000070420000F04110B5B34B1B783B2B08D90A20B04B1870002108F0B9FE142006F056FFAD4B1B780F
:4006C000632B08D90A20AB4B1870012108F0ACFE142006F049FFA84B1B78092B08D90020A54B18700A2108F09FFE142006F03CFFA14B5B78092B08D900209F4B58700B2183
:4007000008F092FE142006F02FFF9B4B9B78092B08D90020984B98700C2108F085FE142006F022FF944BDB78092B08D90020924BD8700D2108F078FE142006F015FF8F4B8D
:400740001C688F4920460BF0B3FF20B9002120460BF090FF80B18B4A884B1A605021642008F062FE142006F0FFFE5121002008F05BFE142006F0F8FE834B1B880A3B9BB253
:40078000552B08D93C20804B1880522108F04CFE142006F0E9FE7D4B1C687D4920460BF087FF28B94FF07E5120460BF063FF50B14FF08042754B1A601E21022008F034FEE1
:4007C000142006F0D1FE734B1B78053BDBB24B2B08D950206F4B18701F2108F025FE142006F0C2FE6C4B1B78013BDBB2032B08D90120694B1870202108F016FE142006F09E
:40080000B3FE664B1B78053BDBB20F2B08D90520624B1870212108F007FE142006F0A4FE5F4B1B78642B08D900205D4B1870222108F0FAFD142006F097FE5A4B1B78642BC1
:4008400008D90020574B1870232108F0EDFD142006F08AFE544B1B780A3BDBB2462B08D95020514B1870242108F0DEFD142006F07BFE4E4B1B78642B08D900204B4B1870F6
:40088000252108F0D1FD142006F06EFE484B1B78642B08D90020464B1870262108F0C4FD142006F061FE434B1B780A3BDBB2462B08D928203F4B1870272108F0B5FD142079
:4008C00006F052FE3C4B1B78012B08D900203A4B1870292108F0A8FD142006F045FE374B1B78012B08D90020344B18702A2108F09BFD142006F038FE314B1B78012B08D96A
:4009000000202F4B18702B2108F08EFD142006F02BFE2C4B1B78043BDBB2382B08D90A20284B18702C2108F07FFD142006F01CFE254B1B78043BDBB2382B08D91E20224B71
:4009400018702D2108F070FD142006F00DFE1F4B1B78043BDBB2382B08D906201B4B18702E2108F061FD142006F0FEFD10BD00BFB08AFF1F4C84FF1FF488FF1F5884FF1FB6
:40098000000070420000F0417285FF1F948AFF1F0000A041D084FF1FEA88FF1F258CFF1FC285FF1F7985FF1F2289FF1F988AFF1F1384FF1F0C84FF1F3F88FF1FD888FF1F01
:4009C000BE85FF1FFF83FF1FF48BFF1FEE88FF1F70B526490B78264A1468264A02EB830254600133DBB20B70012B3DD900220A70204B596898680BF095FB05461E4B18602F
:400A00001E4B1A781E4B1A801E4B1B781E490B80C2EB0212C2EB0212C3EB03139B0003EB02131A4A16881E44194B1A88961BB6B2184B1E802146184B18680BF073FB044665
:400A400030460BF025FC014620460BF029FD134B186013490BF070FC29460BF063FB11490BF06AFC104B186070BD00BF5C88FF1F5C84FF1F0482FF1F0484FF1FE286FF1F6B
:400A80006482FF1F108CFF1FF086FF1F6885FF1FE088FF1FA285FF1F5884FF1F4488FF1F0000A0410000A040FC84FF1F000000002DE9F843974BB3F900305BB9964B1A7835
:400AC000964B1B889A420ED8FFF782FF0022934B1A8008E0914B1B88092B04D9FFF778FF00228E4B1A80002009F014FB894BB3F90050002D00F09280894B1B78002B45D156
:400B0000884AB2F90020002A40F0888086488678C478C6EB0612C2EB02121701C4EB0412910039448FB2814A1780D0F80880804AC2F8008003EB43039A00024412797D4BDB
:400B40001A807D4B196840460BF0ECFA814638460BF09AFB014648460BF0A2FC774B1860774B1E70774B1C7001226E4B1A80764940460BF095FC0446744B18780BF088FBB2
:400B800021460BF0D9FB724B186047E0654AB2F90020002A42D16448590019448A00024492F80280D778C8EB0811C1EB01110C01C7EB0716B1000C44A4B25C490C80966873
:400BC0005B490E6011795B4A1180013B03EB43039A000244916830460BF0A4FA814620460BF052FB014648460BF05AFC534B1860534B83F80080534B1F700122494B1A8003
:400C0000514930460BF04CFC0446504B18780BF03FFB21460BF090FB4D4B1860474B1C68002120460BF01CFD002840F0E480002D00F0E180474B1B78C3EB0313C3EB031322
:400C40001801454B1B78C3EB03139A001044434B1B88184480B2424B1880314B1D785DB90BF016FB21460BF067FB334B19680BF05BFA3C4B18600FE00BF00AFB21460BF00C
:400C80005BFB013D05EB4505AB00274A134499680BF04AFA334B1860334B1968314B18680BF040FA31490BF047FB314B19680BF0F7FB05462F4B1860002120460BF0DAFC57
:400CC00000285BD0002128460BF0D4FC78B12A4928460BF0EDFC50B1002128460BF0CAFC00285CD005F10045224B1D6057E0224928460BF0BFFC18B11C4A1E4B1A604EE089
:400D0000002128460BF0D4FC002848D00022194B1A6044E0268CFF1FD084FF1FC088FF1F1084FF1F4A88FF1FE485FF1FE088FF1F5884FF1F7285FF1FE085FF1F6C85FF1FFD
:400D40004C84FF1FB08AFF1F00004843DC83FF1F948AFF1FE286FF1F108CFF1F6885FF1F0A8CFF1FB888FF1F5C84FF1F0000C842CC80FF1FCC85FF1F0000C8C296492846D4
:400D80000BF096FC10B1944A944B1A600021934B18680BF06FFC10B10022904B1A60904BB3F90030012B0CD1002009F053F9002009F03CF9002009F061F9002009F08EF90B
:400DC0000BE0012009F046F9012009F02FF9012009F054F9012009F081F9824B18780BF057FA7E4B19680BF0A7FA7B490BF058FB7D4B1860B0E37A4BB3F90030012B40F001
:400E00000F81002009F026F9002009F00FF9002009F034F9002009F061F9744B1D6828460AF0E0FD0022724B0AF07CFC06460F46704B18680AF0D6FD02460B4630463946FF
:400E40000AF070FC0BF01AF904466B4B18600AF0C9FD55A3D3E900230BF08AF8002862D0664B1E6830460AF0BDFD8046894650A3D3E900230BF09AF8002854D06049614B22
:400E800018680BF0F7FB00284DD05F4B1B885F4A1278B3EB420F46DB00225B4B1A8046A3D3E90023404649460BF080F848B1584E584B18780BF0ECF931680BF035F930603A
:400EC00031E0002130460BF0F3FBB0B1514B18780AF076FD3AA3D3E900230AF023FC804689464B4E30680AF07DFD42464B460AF01BFC0BF0C3F8306015E0464B18780AF0D8
:400F00005FFD31A3D3E900230AF00CFC804689463F4E30680AF066FD42464B460AF004FC0BF0ACF83060002120460BF0C1FB10B10022314B1A60304B1C6804F100441C607C
:400F4000334B18680AF04EFD21A3D3E900230BF00FF810B1304A2E4B1A602D4B196820460BF0EAF90446014628460BF083FB00B12C46002120460BF07DFB00B10024294645
:400F800020460BF08DFA0546164B1C7820460BF07FF929460BF0D0F9134B186001221F4B1A80D9E2AFF300809A9999999999D9BF9A9999999999C9BF9A9999999999C93F36
:400FC0009A9999999999D93F666666666666E63F9A9999999999B93F0000C842CC85FF1FCC84FF1F258CFF1FD886FF1F5884FF1F0000E03F5C84FF1FD088FF1F0484FF1FC5
:401000000000B4421485FF1FD284FF1FD084FF1F948AFF1FEA88FF1FCDCCCC3DDC86FF1F012009F017F8012009F000F8012009F025F8012009F052F88F4B1D6828460AF092
:40104000D1FC00228D4B0AF06FFB06460F468C4B18680AF0C7FC02460B46304639460AF061FB0BF00BF80446864B186086490BF015FB002873D0854BD3F8009048460AF023
:40108000B1FC06460F4674A3D3E900230AF07AFF002864D07E4B93F800804FEA88087D4BA3F8008000237C4A13807C4A13800A227B4B1A707B497C4B18680BF0DBFA002849
:4010C00000F0A081794B1B88984500F29B810022764B1A804FF03F4148460BF0CBFA48B1734E744B18780BF0D3F831680BF01CF8306087E15AA3D3E90023304639460AF0C9
:4011000037FFA8B16B4B18780AF05AFC00225B4B0AF0BCFC80468946654E30680AF062FC42464B460AF000FB0AF0A8FF306069E1604B18780AF044FC4BA3D3E900230AF013
:40114000A5FC804689465A4E30680AF04BFC42464B460AF0E9FA0AF091FF306052E1564920460BF09BFA002800F0AA80464920460BF080FA002800F0A380444B1F684FF0A4
:401180007C5138460BF080FA002800F09980404B1B7803EB43063F4B1E8000233E4A13803E4A13800A223E4B1A7044493E4B18680BF060FA002800F025813C4B1B889E4276
:4011C00000F220810022394B1A804FF03F4138460BF050FA48B1364E364B18780BF058F831680AF0A1FF30600CE138460AF0FAFB1BA3D3E900230AF0BBFEB0B12D4B1878EB
:401200000AF0DEFB18A3D3E900230AF03FFC80468946274E30680AF0E5FB42464B460AF083FA0AF02BFF3060ECE0224B18780AF0C7FB0FA3D3E900230AF028FC8046894683
:401240001B4E30680AF0CEFB42464B460AF06CFA0AF014FF3060D5E0666666666666E63F9A9999999999B9BF333333333333D33F9A9999999999B93F5884FF1F0000E03F5B
:401280005C84FF1FD088FF1F0000A0410484FF1FD084FF1F0289FF1F5A88FF1F3888FF1F0C89FF1F0000B4421485FF1FD284FF1F948AFF1FEA88FF1F0000C04000008C42CC
:4012C0004FF07E5120460BF0E9F9002800F09A80354920460BF0CEF9002800F09380334B1F6838460AF07EFB804689462AA3D3E900230AF047FE002800F084802C4B1E78FB
:4013000076002C4B1E8000232B4A13802B4A13800A222B4B1A702B492B4B18680BF0AAF900286FD0294B1B889E426BD80022274B1A804FF03F4138460BF09CF948B1244EB4
:40134000244B18780AF0A4FF31680AF0EDFE306058E013A3D3E90023404649460AF008FE002839D01B4B18780AF02AFB0AA3D3E900230AF08BFB80468946154E30680AF005
:4013800031FB42464B460AF0CFF90AF077FE306038E000BFAFF30080333333333333D33F9A9999999999B9BF000020410484FF1FD084FF1F0289FF1F5A88FF1F3888FF1FDB
:4013C0000C89FF1F000048421485FF1FD284FF1F948AFF1FEA88FF1F774B18780AF0F0FA6DA3D3E900230AF051FB80468946734E30680AF0F7FA42464B460AF095F90AF0DA
:401400003DFE3060002120460BF034F968B16C4928460BF045F806466A4B18780AF038FF31460AF089FF654B1860644B18680AF0D9FA59A3D3E900230AF09AFD10B1624A06
:401440005E4B1A60002120460BF014F910B100225E4B1A605D4B1E68584B196830460AF06BFF0446014628460BF004F900B12C46002120460BF0FEF800B10024294620464C
:401480000BF00EF80446524B18780AF001FF21460AF052FF04464F4B18604FF07E5130460BF0E8F8002857D0002130460BF000F9002851D030460AF095FA8046894638A3BB
:4014C000D3E900230AF05EFD80B1002130460BF0EFF858B1404BB3F900303BB93F4B1C6001223D4B1A8005223D4B1A702EA3D3E90023404649460AF045FD80B1002130465D
:401500000BF0D6F858B1374BB3F900303BB9364B1C600122334B1A800522314B1A70314BB3F90030012B08D12F4B1D68294620460BF0A0F808B1274B1D60274BB3F9003068
:40154000012B09D1254B1C682146224B18680BF0AFF808B11F4B1C601E4B18680AF042FA13A3D3E900230AF0BBFB0AF067FD1F4B1880174B18780AF023FA0DA3D3E9002380
:401580000AF0AEFB0AF05AFD194B18800122194B1A80BDE8F88300BF9A9999999999B93F333333333333E33F989999999999B93FFCA9F1D24D62603FEA88FF1F948AFF1F49
:4015C00000004843DC83FF1FCDCCCC3DD088FF1F258CFF1FD886FF1F5A88FF1F7C85FF1F0C89FF1F3888FF1F048CFF1F5888FF1FA885FF1F0884FF1F124B1B883B2B1FD9D1
:4016000010B500220F4B1A800F4C20780AF0D8F900220E4B0AF088F80AF010FDC0B220703B280CD900222270094C20780AF0C8F90022064B0AF078F80AF000FD207010BD3E
:40164000704700BF6885FF1F108CFF1F0000F03FE286FF1F10B5314BB3F900404CB100212F4B18680AF0FCFF18B901222D4B1A7010BD8CB100212A4B18680AF0F1FF58B137
:40168000294BB3F900301BB10122264B1A7010BD0022244B1A7010BD244BB3F9003033B9234AB2F9002012B91E4B1A7010BD7BB11F4AB2F900205AB91B4BB3F900301BB1C0
:4016C0000122184B1A7010BD0022164B1A7010BD7BB9174AB2F900205AB1164BB3F900301BB101220F4B1A7010BD00220D4B1A7010BD93B10E4BB3F9003073B10A4BB3F97C
:4017000000303BB10B4BB3F900301BB10122054B1A7010BD0022034B1A7010BD268CFF1F6C85FF1FA085FF1F1085FF1FF288FF1F0C85FF1FBC85FF1F08B507F08BFD0A201D
:4017400005F028FFFF2007F079FD0A2005F022FFFF2007F073FD0A2005F01CFFFF2007F06DFD0A2005F016FF08BD00BFA24B1B78052B40F0E680A14A1178A14B1970517891
:40178000597091789970D178D970107918715079587190799871D079D871107A1872527A5A7201290AD10022964B1A70964B1B78002B00F0D180944B1A70CDE002290AD13A
:4017C0000122904B1A70904B1B78934200F0C4808D4B1A70C0E004290AD10222894B1A70894B1B78934200F0B780874B1A70B3E005290AD10322834B1A70834B1B78934250
:4018000000F0AA80804B1A70A6E006290AD104227C4B1A707C4B1B78934200F09D807A4B1A7099E007290AD10622764B1A70764B1B78934200F09080734B1A708CE00829A2
:401840000AD107226F4B1A706F4B1B78934200F083806D4B1A707FE0092909D10822694B1A70694B1B78934276D0674B1A7073E00A2909D10922634B1A70634B1B7893427F
:401880006AD0614B1A7067E00F2965D01A2909D114225C4B1A705C4B1B7893425CD05A4B1A7059E01B2909D10F22564B1A70564B1B78934250D0544B1A704DE01C2909D1C5
:4018C0001022504B1A70504B1B78934244D04E4B1A7041E01D2909D111224A4B1A704A4B1B78934238D0484B1A7035E01E2909D11222444B1A70444B1B7893422CD0424B9F
:401900001A7029E02C2909D164223E4B1A703E4B1B78934220D03C4B1A701DE0CC291BD13A4B1B784BB93A4B1B7833B9394B1B781BB97822334B1A700EE01422314B1A70A5
:401940000AE00022344B1A7002E00133324A1370314B1B78092BF8D9304B1B78052B40F0DB802F4A11782F4B19705178597091789970D178D9701079187150795871907978
:401980009871D079D871107A1872527A5A7201290AD10022244B1A70244B1B78002B00F0C680224B1A70704702290AD101221E4B1A701E4B1B78934200F0B9801B4B1A70A9
:4019C000704704290AD10222174B1A70174B1B78934200F0AC80154B1A707047052927D10322114B1A70114B1B78934200F09F800E4B1A70704700BF0B84FF1FB085FF1F34
:401A00004C88FF1F248CFF1FCC88FF1F3F88FF1FD888FF1FBE85FF1F8F85FF1FD184FF1FF88BFF1F1C84FF1FC888FF1F7B85FF1F062909D105223E4B1A703E4B1B789342EC
:401A400075D03C4B1A707047072909D10622384B1A70384B1B78934269D0364B1A707047082909D10722324B1A70324B1B7893425DD0304B1A707047092909D108222C4B7E
:401A80001A702C4B1B78934251D02A4B1A7070470A2909D10922264B1A70264B1B78934245D0244B1A7070470F2940D01A2909D114221F4B1A701F4B1B78934237D01D4B45
:401AC0001A7070471B2909D10F22194B1A70194B1B7893422BD0174B1A7070471C2909D11022134B1A70134B1B7893421FD0114B1A7070472C2909D164220D4B1A700D4B84
:401B00001B78934213D00B4B1A707047CC290ED17822074B1A7070470022074B1A7002E00133054A1370044B1B78092BF8D97047C888FF1F7B85FF1F8F85FF1F0000000080
:401B40002DE9F0419A4BB3F90030012B40F09680984B186809F046FF04460D46964BD3F80080404609F03EFF06460F460022934B09F0DAFD02460B46204629460AF002FAF0
:401B800058B300228D4B3046394609F0CBFD02460B46204629460AF0FFF9F0B10021884B18680AF05DFD28B98648FFF7C5FD0122854B1A800021824B18680AF051FD28B11E
:401BC0008248FFF7B9FD01227F4B1A80FEF770FF00227F4B1A80BDE8F0810022774B3046394609F09FFD02460B46204629460AF0BFF9B8B100246E4B1C80764940460AF039
:401C00004FFC0546744B18780AF042FB29460AF093FB724B1860204607F082FC704B1C80BDE8F08160A3D3E900233046394609F07BFD02460B46204629460AF0B7F900288C
:401C400000F0AF8000215E4B18680AF009FD28B96448FFF771FD01225B4B1A800021584B18680AF0FDFC28B15F48FFF765FD0022554B1A80FEF71CFFBDE8F0814D4B1868FE
:401C800009F0B0FE04460D464B4BD3F80080404609F0A8FE06460F460022484B09F042FD02460B46204629460AF076F958B30022424B3046394609F037FD02460B4620469A
:401CC00029460AF05FF9F0B100213D4B18680AF0C7FC28B93B48FFF72FFD01223A4B1A800021374B18680AF0BBFC28B13748FFF723FD0122344B1A80FEF7DAFE0022344BE8
:401D00001A80BDE8F08100222C4B3046394609F00BFD02460B46204629460AF047F9C0B10122234B1A802B4940460AF0B9FB0446294B18780AF0ACFA21460AF0FDFA274BC0
:401D40001860002007F0ECFB0022254B1A80BDE8F08115A3D3E900233046394609F0E2FC02460B46204629460AF002F9C8B10021134B18680AF074FC28B91C48FFF7DCFCF0
:401D80000122114B1A8000210D4B18680AF068FC28B11748FFF7D0FC00220B4B1A80FEF787FEBDE8F08100BF333333333333E33FCC84FF1F5C84FF1F5884FF1F0000E03F7F
:401DC0006C85FF1FB4E800001085FF1FD0E80000C085FF1F00004843DC83FF1F948AFF1F0884FF1FE8E8000000E9000018E9000030E90000F8B506460022404B1A6004F095
:401E000003FE3F4B1860002104F018FE3D4B186007F04EFF3C4B18603C4C84FB0023C417C4EB63143A4B1C606FF0630303FB0400384B1860002801DA40421860354B186846
:401E40000AF026FA054620460AF022FA0746284609F0C8FD0022304B09F042FF04460D46384609F0BFFD22462B4609F05DFC0AF005F92A4B18602A4B1A78731E9A4202DDFE
:401E80000022274B1A70264A1378264941F82300013313700022244B1A700AE0174D214B53F8241028680AF03FF9286001341E4B1C701D4B1C78A642F0D81C4B18780AF022
:401EC000E3F91B490AF0ECFA05461A4B18780AF0DBF917490AF0E4FA044630460AF0D8F90146064B18680AF0DBFA014628460AF01BF921460AF016F9F8BD00BF0885FF1FB8
:401F00001C89FF1F9485FF1F6088FF1F1F85EB511089FF1F148CFF1F000059402489FF1F0085FF1F2C89FF1FE288FF1FC285FF1F000020417985FF1FF8B506460022404B62
:401F40001A6004F061FD3F4B1860012104F076FD3D4B586007F0ACFE3C4B58603C4C84FB0023C417C4EB63143A4B5C606FF0630303FB0400384B5860002801DA404258603F
:401F8000354B58680AF084F9054620460AF080F90746284609F026FD0022304B09F0A0FE04460D46384609F01DFD22462B4609F0BBFB0AF063F82A4B18602A4B1A78731EAB
:401FC0009A4202DD0022274B1A70264A1378264941F82300013313700022244B1A700AE0174D214B53F8241028680AF09DF8286001341E4B1C701D4B1C78A642F0D81C4B53
:4020000018780AF041F91B490AF04AFA05461A4B18780AF039F917490AF042FA044630460AF036F90146064B18680AF039FA014628460AF079F821460AF074F8F8BD00BFA9
:40204000C885FF1F1C89FF1F9485FF1F6088FF1F1F85EB511089FF1F148CFF1F000059400485FF1FC385FF1F6882FF1F0489FF1F988AFF1F000020411384FF1F074A116827
:40208000C1EB0020031203EB8303D8000B181360C3F3C01000EB2320704700BFF084FF1F38B5002007F004FB002007F00DFB194B186007F017FBFFF7E1FF174B1860174B88
:4020C0001B78042B02D90022144B1A70134D2C780AF0DAF8124B43F8240001342C700022104B1A70002007E00D4B53F824100AF01BF801340B4B1C700A4B1C78042CF3D9ED
:4021000009490AF0CDF909490AF016F90AF0DAFA38BD00BFE083FF1FAC8AFF1F0185FF1F6888FF1F0989FF1F0000A040000020412DE9F84F0446002007F0BAFA012007F0AE
:40214000C3FA07F0D3FA0546022007F0BDFA07F0CDFA0646964928460AF0EEF80546304609F040FC06460F460022924B08F0FCF979A3D3E9002309F089FC804689460022D9
:402180004FF080433046394608F0EEF974A3D3E9002309F07BFC02460B464046494609F0C3FA8046894670A3D3E900233046394609F06CFC02460B464046494609F0B4FA4D
:4021C0006BA3D3E9002309F0AFFA09F057FF7A4B1B782646671EBB4202DD0022764B1A70754A1378754941F82300013313700022734B1A704FF000090BE0704B53F8281079
:40220000484609F091FF814608F101086C4B83F800806B4B93F800804645EEDC20460AF037F88346014648460AF03AF98246654B1860284609F0D6FB04460D4600225D4B0D
:4022400008F092F94CA3D3E9002309F01FFC8046894600224FF080432046294608F084F947A3D3E9002309F011FC02460B464046494609F059FA8046894643A3D3E90023D3
:402280002046294609F002FC02460B464046494609F04AFA3EA3D3E9002309F043FA804689464949504609F03DFF09F09BFB3AA3D3E9002309F0EAFB0022444B09F034FA7E
:4022C00002460B464046494609F00AFD09F0D6FE804600210AF0CEF908B14FF000083C4940460AF0E5F908B1DFF8E4802CA3D3E900232046294609F0C9FB2BA3D3E90023F7
:4023000009F010FA09F0BAFE324B1860324B1B789F4202DA0022304B1A702F4A13782F4941F82380013313700022254B1A70002007E02A4B53F8241009F0F6FE0134204B4D
:402340001C701F4B1C78A642F3DC59460AF0A8F8BDE8F88FAFF30080D9CEF753E3A503C0931804560ECD334014AE47E17A4C52C03333333333A35E40E2EE37AE717F20BE81
:40238000C8A0EAC2D522EE3EEFE4D3635B066C3FCDCCCCCCCCCC2840613255302AA9633F333333333333A33F9A99999999D9424000007A44000008401884FF1FB48AFF1F8A
:4023C000E288FF1F9C85FF1F0000B8410000F03F0000C8424088FF1F0A84FF1FF886FF1F10F0030F09D1084BA3FB00235B09642202FB130313F0FF0F02D118B9012070472C
:4024000001207047002070471F85EB5108B52A4B1B7B0C2B02D90A22274B1A73264B5B7B1F2B02D91022244B5A73234B9B7B632B02D91222204B9A731F4BDB7B182B02D9B7
:402440000B221D4BDA731C4B1B7C3B2B02D91E22194B1A74184B1B7B022B14D1164B987BFFF7BEFF38B1144B5B7B1D2B22D91D22114B5A7308BD104B5B7B1C2B1AD91C22A0
:402480000D4B5A7308BD072B0AD813F0010F11D1094B5B7B1E2B0DD91E22074B5A7308BD13F0010F06D0044B5B7B1E2B02D91E22014B5A7308BD00BF0482FF1F08B500201C
:4024C00007F0AAFB002007F0C5FD002007F0AEFD002007F0D3FD002007F000FE002007F0E9FD012007F016FE012007F027FE002007F038FE002007F013F808BD000000000F
:402500002DE9F843B64BB3F90030002B00F023810023B44A1380B44A1380B44BD3F80080404609F05FFA04460D46B14BB3F80090484609F045FA06460F4600224FF08043E8
:4025400009F0F0F802460B462046294609F010FD002863D0A748FFF7EFF80122A64B1A80002007F0A7FD07F0CDFD002837D10022A24B1A809D4B186809F034FA04460D46B0
:402580009B4B188809F01CFA00229D4B09F0CAF802460B462046294609F0EAFC18B1002007F0CCFD1EE0974B1A78974B1B889A4203D3002007F0C2FD14E09A4207D2934AC6
:4025C0001278934203D2012007F0B8FD0AE08F4A1278934206D900228B4B1A8002E0012007F0ACFD814B186809F0FCF904460D467F4B188809F0E4F90022854B09F092F818
:4026000002460B462046294609F0B2FC002800F0B98100227F4B1A80BDE8F8836CA3D3E900233046394609F07DF802460B462046294609F09DFC002849D067A3D3E9002312
:402640003046394609F06EF802460B462046294609F0ACFC00283AD06F48FFF76DF80122654B1A80002007F025FD07F04BFDE8B90022624B1A80694B1A78634B1B889A4251
:4026800002D307F05BFD14E09A4207D25F4A1278934203D2012007F051FD0AE05B4A1278934206D90022584B1A8002E0012007F045FD5B4BB3F9003023B90122554B1A80E7
:4026C000BDE8F8830022534B1A80BDE8F883484609F0DEFD0146404609F0EAFF30B300224FF080433046394609F01EF802460B462046294609F03CFCC0B1012007F01EFDE1
:40270000002007F0D7FC00233B4A13803E4A1380434BB3F9003023B901223E4B1A80BDE8F88300223B4B1A80BDE8F88300224FF080433046394608F0F7FF02460B46204645
:40274000294609F033FC002800F01C810022244B1A80BDE8F8830023274A13802A4A1380224BD3F80080404609F03CF904460D461F4BB3F80090484609F022F906460F46A3
:4027800000224FF0804308F0CFFF02460B462046294609F00BFC00286BD02248FEF7CCFF0122104B1A80104B1B88B3F5967F03D2104607F07FFC3DE0A3F5967292B23B2A5E
:4027C00032D8002007F076FC34E000BFAFF30080333333333333D33FCDCCCCCCCCCCFC3F8C85FF1F4484FF1FC488FF1F208CFF1F7285FF1F4CE900003884FF1F2889FF1FCD
:4028000000001840FF83FF1FA68AFF1FF48BFF1F00001440BC85FF1F68E90000EE88FF1FE488FF1F84E90000B3F5B47F02D30022594B1A80012007F081FC584B186809F065
:40284000D1F804460D46564B188809F0B9F80022544B08F069FF02460B462046294609F0A5FB002800F08E8000224F4B1A80BDE8F883484609F00CFD0146404609F018FFD6
:40288000002839D040A3D3E900233046394608F04BFF02460B462046294609F069FB58B34248FEF749FF3C4B1B88B3F5967F03D2012007F0FFFB0EE0A3F5967292B23B2A4C
:4028C00003D8002007F0F6FB05E0B3F5B47F02D30022314B1A80012007F030FC344BB3F9003023B90122304B1A80BDE8F88300222D4B1A80BDE8F88325A3D3E900233046E4
:40290000394608F00FFF02460B462046294609F02FFB30B300224FF080433046394608F001FF02460B462046294609F03FFBC0B10024204B1C80184B1C80012007F0FEFB40
:40294000204607F0B7FB1A4BB3F9003023B90122154B1A80BDE8F8830022134B1A80BDE8F88300224FF080433046394608F0DAFE02460B462046294609F0FAFA10B101228C
:402980000D4B1A80BDE8F883CDCCCCCCCCCCFC3F9A9999999999B93FC488FF1F208CFF1F7285FF1F00001440BC85FF1F68E90000E488FF1F4484FF1F8C85FF1F0000000086
:4029C0002DE9F04107F06EFB012806D0964B1C689649204609F06CFE38B39548FEF7ACFE002006F09DFD0024924B1C809249934B186809F055FD0546914B187809F048FCF8
:402A0000294609F099FC8F4B1860012007F004F94FF4967004F0A8FD204607F0FDF84FF4967004F0A1FDBDE8F081874BB3F90030012B7AD1204608F0D5FF04460D467F4B4F
:402A4000D3F80080404608F0CDFF06460F4600227E4B08F069FE02460B462046294609F091FA08B30022794B3046394608F05AFE02460B462046294609F08EFAA0B1744802
:402A8000FEF75AFE734BB3F900301BB90122724B1A8002E00022704B1A80FEF709F800226E4B1A80BDE8F0810022684B3046394608F038FE02460B462046294609F058FA56
:402AC000B8B10024604B1C805B49404609F0E8FC05465B4B187809F0DBFB294609F02CFC584B1860204606F01BFD524B1C80BDE8F0814BA3D3E900233046394608F014FE71
:402B000002460B462046294609F050FA002800F085800024514B1C805148FEF70DFE4E4B1C80FDF7C5FFBDE8F081204608F05AFF04460D46414BD3F80080404608F052FFD5
:402B400006460F460022414B08F0ECFD02460B462046294609F020FA08B300223B4B3046394608F0E1FD02460B462046294609F009FAA0B13B48FEF7DFFD364BB3F900300A
:402B80001BB90122344B1A8002E00022324B1A80FDF78EFF0022314B1A80BDE8F08100222A4B3046394608F0BFFD02460B462046294609F0FBF9C0B10122234B1A801E497D
:402BC000404609F06DFC04461D4B187809F060FB214609F0B1FB1B4B1860002006F0A0FC0022144B1A80BDE8F0810DA3D3E900233046394608F096FD02460B46204629460D
:402C000009F0B6F950B10122144B1A801648FEF793FD0022104B1A80FDF74AFFBDE8F081333333333333E33F5C84FF1F00007042A4E900000884FF1F000048435884FF1FC2
:402C4000DC83FF1F948AFF1FCC84FF1F0000E03FC0E90000E488FF1F1085FF1FC085FF1F00E90000DCE9000030E90000000000002DE980488BB062B6594805F06BF806F0DE
:402C8000B7FA584806F0B8FB06F05EFB06F056FF06F0C6FB04F0C0FE06F0F2FC06F004FD06F07EFD06F0A6FF06F0CAFF06F05AFB0121002005F058F9012006F051FC012019
:402CC00006F042FC642004F04FFC474B1A68474B1A600120464B18700024464B1C8006F09BFFFDF709FBFDF7DBFC204606F094FF414B1C7015E0414C2078FFF77BF8404BCA
:402D000018602078FFF718F93E4B18603E4B93F90000FFF70DFA3D4B1860374A137801331370354B1B784F2BE5D90022324B1A7016E003EB43018A0035490A4492784AB9A7
:402D400003EB43018A0032490A44D27812B9314A137009E00133DBB22E4A1370264A1370254B1B78132BE4D92B4B1B78DBB92B4A1278C2B92A4A1278AAB97823294A13701C
:402D8000294A13700023294A1380294A1380294A13802948FEF7D0FC2848FEF7CDFC0A2004F0E2FB5DE01E4A1278012A03D10121204A118002E000211E4A1180012B03D146
:402DC00001221A4B1A8002E00022184B1A80134B1B78012B34D10122154B1A8033E000BF8500000061020000CC80FF1FFC88FF1F3E88FF1F0884FF1FAC85FF1F2289FF1F05
:402E00005C84FF1F8885FF1F0C84FF1F208CFF1FE485FF1F1284FF1F3F88FF1FD888FF1FBE85FF1F248CFF1FC888FF1FF288FF1F0C85FF1F268CFF1FF8E9000008EA0000CC
:402E400000227D4B1A807D48FEF776FC7C48FEF773FC0A2004F088FB14237A4A13707A4A137000218E2003F0C3FE0021902003F0BFFE05F0B1F840B1744BB3F9003023B90A
:402E800005F082F90122714B1A80714B714A7249724803F02BFF724A7249734803F058FF724BB3F90030DBB10122714B1A8000226E4B1A806F4C2078FEF79CFF6E4B18607D
:402EC0002078FFF739F86D4B1860FFF7E9F86C4B18606C4B93F90000FFF72AF96A4B18606A4BB3F90030002B00F00B810022674B1A80674A13780133DBB21370654A1278F5
:402F00009342C0F0FE800022614B1A704F4BB3F90030002B00F0F5805F4B1B685F4A93422FDD5D4A51685D4A91422ADD524B186808F058FD04460D46494B1B780993494B3A
:402F40001B780893484B1B780793424B1B780693414B1B780593414B1B7804934A4B186808F040FDCDE90201444B186808F03AFDCDE9000122462B4649494A480AF098F8BE
:402F8000BCE0494A934229DC434A5168434A914224DD3A4B186808F025FD04460D46304B1B7807932F4B1B7806932F4B1B780593284B1B780493284B1B780393274B1B7874
:402FC0000293314B186808F00DFDCDE9000122462B46364933480AF06BF88FE02F4A934268DD2D4A5168304A914263DC224B186808F0F8FC04460D46194B1B780793194B2E
:403000001B780693184B1B780593124B1B780493114B1B780393114B1B7802931A4B186808F0E0FCCDE9000122462B4620491D480AF03EF862E000BF0C85FF1F10EA000055
:4030400008EA0000248CFF1FC888FF1F8485FF1FF884FF1FBC88FF1F2389FF1F3A88FF1FC485FF1F0084FF1FE888FF1F0A89FF1F0689FF1F2289FF1F5C84FF1F8885FF1F6E
:40308000E484FF1F0C84FF1F208CFF1FFA83FF1FD283FF1FF58BFF1F9485FF1F8038010020EA00006484FF1F7F38010068EA0000ACEA0000984A934220DC984B5A68964B8D
:4030C0009A421BDC964B186808F08CFC954B1B780593954B1B780493944B1B780393944B1B780293934B1B780193934B1B78009302460B469149924809F0DAFF904805F003
:403100008FF8FEF733FB8F4B1B78782B09D18E48FEF712FB4FF4487004F026FA8B48FEF70BFB884B1B78002B40F0D2810022884B1A80884B1B79112B05D1874B1B7813B101
:403140008648FEF7F9FA844B1B78032B06D18448FEF7F2FA8348FEF7EFFA25E0022B06D18148FEF7E9FA7F48FEF7E6FA1CE0012B01D0042B06D17D48FEF7DEFA7948FEF74F
:40318000DBFA11E083B96E4D794C0FCC28606960AA60EB6003CC286169612288A3782A83AB762846FEF7C8FA6A4BDB780F2B40F08F81694B1B78002B7CD1664B1B792F2B52
:4031C00039D9644A52792F2A35D9624989792F2931D96048C0792F282DD9392B2BD8392A29D8392927D8392825D8332B23D1382A21D139291FD132281DD10A21002006F085
:4032000013F9142004F0B0F90B21002006F00CF9142004F0A9F90C21002006F005F9142004F0A2F90D21002006F0FEF8142004F09BF904F091F9474B1B792F2B40F24881AD
:40324000444A52792F2A40F24381424989792F2940F23E813F48C0792F2840F23981392B00F23681392A00F23381392900F23081392800F22D813F4C24783034A34215D15B
:403280003C4B5B7830339A4210D13A4B9B78303399420BD1374BDB783033984206D13648FEF74AFA0022354B1A8011E13448FEF743FA0DE1012B67D1264B1B792F2B40F283
:4032C0000781244A52792F2A40F20281214989792F2940F2FD801F48C0792F2840F2F880392B00F2F580392A00F2F280392900F2EF80392800F2EC80342B09D1342A07D168
:40330000342905D1342803D11E48FEF715FADFE01248FEF711FADBE07F3801009485FF1F208CFF1FC485FF1F0084FF1FE888FF1FBC88FF1F2389FF1F3A88FF1FF0EA0000B6
:403340006484FF1F248CFF1F08EA000030EB0000D484FF1F4C88FF1FD885FF1F10EA00003CEB000058EB000064EB000080EB00009CEB0000F488FF1FB8EB00006084FF1FA5
:40338000CCEB0000DCEB0000022B45D1994B1B792F2B40F29D80974A52792F2A40F29880944988792F2840F29380C9792F2940F28F80392B00F28C80392A00F28980392866
:4033C00000F28680392900F283808B4C24783034A3421DD1884B5B7830339A4218D1864B9B783033984213D1834BDB78303399420ED18248FEF7A0F98148FEF79DF90322F2
:40340000804B1A7000237B4AD3707F4AD3705FE07E48FEF791F95BE0032B40D17848FEF78BF97A48FEF788F9794BB3F900303BBB704C207930380A21C0B205F0F5FF142084
:4034400004F092F8607930380B21C0B205F0ECFF142004F089F8A07930380C21C0B205F0E3FF142004F080F8E07930380D21C0B205F0DAFF142004F077F80122644B1A809D
:403480005C4A11795C4B30391970517930395970917930399970D279303ADA7018E0042B16D1544B1B79342B0FD1524B5B79342B0BD1504B9B79342B07D14E4BDB79342B6E
:4034C00003D15448FEF738F902E05048FEF734F9514B1B78012B40F0DF8100234C4A13804E4A13804E4A1380424BDB780F2B40F0A380052004F038F83E4BDB780F2B40F011
:40350000CB813C4B1B79372B10D13C48FEF714F9414B1A78434B1A7001223A4B1A700023344AD370384AD3703F4A13703E4B1B78072B11D13148FEF7FFF8374B1A78394B11
:403540001A7002222F4B1A7000232A4AD3702E4AD370354A13709FE1062B0AD12D48FEF7EBF80022314B1A702B4B1A782D4B1A7092E1052B0AD12E48FEF7DEF8264B1A7835
:40358000284B1A7005222B4B1A7085E1042B09D12748FEF7D1F80222224B1A700422254B1A7079E1012B09D12148FEF7C5F802221C4B1A7001221F4B1A706DE1032B0AD112
:4035C0001B48FEF7B9F8144B1A78164B1A700322184B1A7060E1022B40F05E811448FEF7ABF80D4B1A780F4B1A700222114B1A7052E100BF4C88FF1FF488FF1F30EB0000F2
:403600003CEB0000D885FF1FB085FF1F10EA0000E086FF1FE8EB0000248CFF1F3484FF1F6084FF1F0D84FF1F3E88FF1F2E84FF1FF4EB00009C8AFF1F554B1B78072B02D9D8
:403640000122534B1A70524B1B7813B90722504B1A704F4B1B78012B4AD1013B4D4D2B444D4C1A794D49204609F022FD2046FEF763F8474E33782B441A7D4949204609F0CF
:4036800017FD2046FEF758F8AA7E4649204609F00FFD2046FEF750F83378013B2B441A794149204609F004FD2046FEF745F833782B441A7D3D49204609F0FAFC2046FEF734
:4036C0003BF8AA7E3A49204609F0F2FC2046FEF733F83378013B03EB83039A00354B1A443549204609F0E4FC2046FEF725F8B5E0072B63D1013B274D2B44274C1A79274981
:40370000204609F0D5FC2046FEF716F82A7D2449204609F0CDFC2046FEF70EF81C4E3378023B2B441A7D1F49204609F0C1FC2046FEF702F83378013B2B441A791A49204670
:4037400009F0B6FC2046FDF7F7FF2A7D1749204609F0AEFC2046FDF7EFFF3378023B1D442A7D1349204609F0A3FC2046FDF7E4FF3378013B03EB83039A000E4B1A440E496C
:40378000204609F095FC2046FDF7D6FF66E000BF3E88FF1FCC80FF1F6484FF1F00EC00000CEC000018EC000024EC000030EC00003CEC000000E8000048EC0000013B9E4E11
:4037C00033449E4C1A799E49204609F071FC2046FDF7B2FF9B4D2B7833441A7D9A49204609F066FC2046FDF7A7FF2B78023B33441A7D9649204609F05BFC2046FDF79CFF62
:403800002B78013B33441A799149204609F050FC2046FDF791FF2B7833441A7D8D49204609F046FC2046FDF787FF2B78023B1E44327D8949204609F03BFC2046FDF77CFFFA
:403840002B78013B03EB83039A00844B1A448449204609F02DFC2046FDF76EFF814B1B790C3BDBB2012B08D8764A13780133137000237C4A13717C4A13717A4B1B790E3B77
:40388000DBB2012B08D86F4A1378013B13700023744A1371744A1371744B1B78022B40F04C820023724A1380724A1380724B1B78724A1278614C7249097803917149097839
:4038C00002917149097801917049097800917049204609F0EDFB2046FDF72EFF6D4BB3F90030002B40F0EE805E4B1B790A2B09D1002269490A8001206849088068490A807A
:4039000068490A800B2B09D10121634A1180002262490A8062490A8062490A80112B36D1C82003F021FE4F4B1B79112B2FD10023594A1380594A13805B48FDF7FDFE5B4BAD
:40394000B3F900301BBB5A4C0021207805F06CFD0A2003F009FE0121564B187805F064FD0A2003F001FE237833B9524B1B781BB90122514B1A8002E000224F4B1A800122B0
:403980004A4B1A800023464A1380464A1380444BB3F9003093B1404BB3F900301BB1444A1378013313703D4BB3F900301BB1414A137801331370642003F0D6FD394BB3F946
:4039C0000030B3B1344BB3F900302BB1384B1B7813B1013B364A1370304BB3F900302BB1344B1B7813B1013B324A1370642003F0BBFD304B1B78632B02D901222D4B1A70D4
:403A00002B4B1B783B2B02D90022294B1A700B4C284B1A782949204609F04AFB2046FDF78BFE234B1A782649204609F041FB2046FDF782FE48E100BFCC80FF1F6484FF1F8B
:403A400000EC00003E88FF1F0CEC000018EC000024EC000030EC00003CEC000000E8000048EC00004C88FF1FB085FF1F248CFF1F6084FF1F2A84FF1F2389FF1F3A88FF1F7F
:403A8000C485FF1F0084FF1FE888FF1FBC88FF1F58EC00009A8AFF1FD083FF1F1C8CFF1F0285FF1FA485FF1F10EA0000E086FF1FB08AFF1F4C84FF1FE488FF1F94EC000096
:403AC000A8EC0000AB4B1B790A2B05D10021AA4A11800121A94A11800B2B05D10121A64A11800021A54A1180112B3CD1C82003F03BFDA04B1B79112B35D100239E4A138046
:403B00009E4A13809E48FDF717FE9E4BB3F9003023BB9D4D2B78013B03EB830167319B4C03EB43039A00224489B2907805F07CFC0A2003F019FD2B78013B03EB83016831BD
:403B400003EB43039A00224489B2D07805F06CFC0A2003F009FD01228A4B1A8000238C4A13808C4A13808A4BB3F9003073B3824BB3F900308BB1844B1B78013B8349580009
:403B8000C418A2008C18E07807F01AFF0022824B07F0CAFD08F052FAE070784BB3F900308BB1794B1B78013B78495800C418A2008C18A07807F004FF0022774B07F0B4FDF3
:403BC00008F03CFAA070642003F0CEFC714BB3F90030002B3AD0684BB3F90030BBB16A4B1B78013B03EB43018A0068490A44D07868B103EB43039A000C46144407F0E0FE91
:403C00000022654B07F08EFD08F018FAE0705B4BB3F90030BBB15C4B1B78013B03EB43018A005A490A44907868B103EB43039A000C46144407F0C4FE0022574B07F072FD49
:403C400008F0FCF9A070642003F08EFC4E4B1B78013B03EB43018A004C490A449278632A06D903EB43018A0048490A440121917003EB43018A0045490A44D2783B2A06D9E5
:403C800003EB43018A0041490A440021D1703F4D03EB43039A002A44404C92784049204609F006FA2046FDF747FD374B1B78013B03EB43039A002A44D2783A49204609F071
:403CC000F7F92046FDF738FD2A4B1B790D2B0AD101222F4B1A8000232E4A1380254A1371314A137129E00E2B09D10023284A1380284A13801F4A13712B4A13711DE00C2B6F
:403D00000AD10122234B1A800023214A1380194A1371254A137110E00B2B09D100231C4A13801C4A1380134A13711F4A137104E00023174A1380174A13801C4B1B78032B88
:403D400040F0658300231A4A13801A4A1380094B1B790D2B30D101220D4B1A8000230D4A1380044A1371104A1371642003F0FCFB9DE000BF4C88FF1FD083FF1F1C8CFF1F54
:403D8000F4EB0000E086FF1F7A85FF1FE485FF1F0285FF1FA485FF1F0000F03F6484FF1F94EC0000A8EC0000B085FF1F248CFF1F6084FF1F2A84FF1F0E2B0CD10023A04AB5
:403DC0001380A04A1380A04A1371A04A1371642003F0CAFB6BE00C2B0DD10122994B1A800023974A1380984A1371984A1371642003F0BAFB5BE00B2B0CD10023904A13802D
:403E0000904A1380904A1371904A1371642003F0ABFB4CE0202B15D101228D4B1A8000248C4B1C808C4B1C808C48FDF785FC8C48FDF782FC8B48FDF77FFC834B1C71834B46
:403E40001C7134E0212B15D10024814B1C800122804B1A80804B1C808348FDF76DFC8348FDF76AFC7F48FDF767FC774B1C71774B1C711CE0222B15D10024754B1C80754B7C
:403E80001C800122744B1A807748FDF755FC7448FDF752FC7648FDF74FFC6B4B1C716B4B1C7104E00023664A1380664A1380714B1B78714A1278714C7149097803917149FE
:403EC000097802917049097801917049097800916F49204609F0ECF82046FDF72DFC6D4BB3F90030002B40F021816B4B186807F079FD02460B466949204609F0D9F8204684
:403F0000FDF71AFC504B1B79112B4FD10023644A1380644A13806448FDF70EFC634BB3F900309BB95C4C206808F0CCFB5021C0B205F07AFA206802F049FD512105F074FAEF
:403F40000A2003F011FB0122584B1A8000233C4A13803C4A1380504B1C68554B1968204608F088FB88B10122524B1A805249204608F096FA0446514B187808F089F92146CF
:403F800008F0DAF94E4B186010E00022494B1A804949204608F084FA0446484B187808F077F9214608F0C8F9454B1860244BB3F900304BB3264BB3F9003063B1364C2068C6
:403FC00007F010FD1CA3D3E9002307F0ADFB08F055F8206015E01F4BB3F900303BB12E4C4FF07E51206808F09FF8206009E01A4BB3F900302BB1284C3249206808F094F874
:404000002060642003F0B0FA0E4BB3F90030002B73D00F4BB3F90030002B55D01E4C206807F0E0FC04A3D3E9002307F07BFB08F025F820605EE000BF9A9999999999B93FDD
:404040000285FF1FA485FF1F4C88FF1FB085FF1FE688FF1FF888FF1FE884FF1FBCEC0000C8EC0000D4EC0000E0EC0000ECEC0000F8EC00002389FF1F3A88FF1F6484FF1F07
:40408000C485FF1F0084FF1FE888FF1FBC88FF1F58EC00009A8AFF1F5884FF1F04ED00001C8CFF1FD083FF1F10EA0000E086FF1F5C84FF1FCC84FF1F00004843DC83FF1F6D
:4040C000948AFF1F00002041994BB3F900303BB1984C4FF07E51206808F024F8206009E0954BB3F900302BB1924C9449206808F019F82060642003F037FA8E4B186807F024
:4041000071FC89A3D3E9002307F032FF10B18C4A884B1A608A49874B186808F0C9FA002800F07581874A834B1A6070E1864B1B78013B03EB43039A00844B1A44906807F019
:4041400051FC834C02460B468249204608F0B0FF2046FDF7F1FA804B1B79112B6ED100237E4A13707E4A13707E4A13807E4A13807E48FDF7E1FA7E4BB3F9003073BB724DFD
:404180002B78013B714E03EB43018A00324403EB830303F16404A4B2906808F0B9FA2146C0B205F041F90A2003F0DEF92B78013B03EB43039A003244906802F007FC2B78B7
:4041C000013B03EB830303F1650189B205F02CF90A2003F0C9F90122654B1A800023654A1380654A1380534B1C68644B1968204608F040FA88B10122614B1A8061492046D1
:4042000008F04EF90446604B187808F041F8214608F092F85D4B186010E00022584B1A805849204608F03CF90446574B187808F02FF8214608F080F8544B18604D4BB3F930
:404240000030002B3ED0524BB3F900309BB13E4B1B78013B3D495800C418A2008C18A06807F0C0FB30A3D3E9002307F05DFA07F005FFA06023E02E4BB3F9003073B1324B0A
:404280001B78013B31495800C418A2008C184FF07E51A06807F048FFA06010E0264BB3F9003063B1284B1B78013B28495800C418A2008C182149A06807F036FFA060642047
:4042C00003F052F92C4BB3F90030002B76D0304BB3F900309BB11C4B1B78013B1B495800C418A2008C18A06807F07CFB0EA3D3E9002307F017FA07F0C1FEA0605BE00C4BAF
:40430000B3F90030002B45D00F4B1B78013B0F495800C418A2008C184FF07E51A06807F001FFA06047E000BF9A9999999999B93FF888FF1F5884FF1FE884FF1F0000204161
:4043400000007042CDCCCC3D7A85FF1FE485FF1F6484FF1F04ED00004C88FF1F0A84FF1FE988FF1F1C8CFF1FD083FF1FF4EB0000E086FF1F0285FF1FA485FF1F5C84FF1F9D
:40438000CC84FF1F00004843DC83FF1F948AFF1FE688FF1F904BB3F9003063B18F4B1B78013B8F495800C418A2008C188D49A06807F0B8FEA060642003F0D6F8874B1C78C3
:4043C000013C04EB44029300854A1344986807F009FB7FA3D3E9002307F0CAFD30B104EB440293007E4A13447F4A9A6004EB440293007B4A13447C49986808F059F930B179
:4044000004EB4404A300764A1344784A9A60784B1B78042B40F00782764B1B78764A1278764C7749097803917649097802917649097801917549097800917549204608F0CB
:4044400037FE2046FDF778F9724B1B790D2B0DD10122714B1A800023704A13806D4A13716F4A1371642003F07FF862E00E2B0CD10023694A1380694A1380664A1371684A99
:404480001371642003F070F853E00C2B0DD10122624B1A800023604A13805E4A1371604A1371642003F060F843E00B2B0CD10023594A1380594A1380564A1371584A13714F
:4044C000642003F051F834E0202B15D10122554B1A800024544B1C803F4B1C805348FDF72BF95348FDF728F95248FDF725F9494B1C714B4B1C711CE0212B15D10024494B9C
:404500001C800122484B1A80334B1C804A48FDF713F94A48FDF710F94648FDF70DF93D4B1C713F4B1C7104E000233B4A13803B4A1380434BB3F90030002B40F0B180354BF3
:404540001B79112B1BD100233E4A13803E4A13803E48FDF7F1F83E4BB3F9003053B952213C4B187804F060FF0A2002F0FDFF0122374B1A800023284A1380284A1380264B80
:40458000B3F900309BB1274BB3F9003023B1314A13880133138007E0234BB3F900301BB12C4A13880A331380642002F0DDFF1B4BB3F90030002B5AD01A4BB3F90030002BA1
:4045C0004AD0244A1388013B13804DE0AFF300809A9999999999B93FE884FF1F7A85FF1FE485FF1F0000204100007042CDCCCC3D248CFF1F2389FF1F3A88FF1F6484FF1F8A
:40460000C485FF1F0084FF1FE888FF1FBC88FF1F58EC00004C88FF1F0285FF1FA485FF1FB085FF1FE688FF1FF888FF1FBCEC0000C8EC0000D4EC0000E0EC0000ECEC000022
:404640009A8AFF1F1C8CFF1FD083FF1F10EA0000E086FF1F7285FF1F444BB3F900301BB1434A13880A3B1380642002F07DFF404B1B88092B02D85F223D4B1A803C4B1B88FC
:404680005F2B02D90A223A4B1A803A4C384B1A883949204608F00CFD2046FDF74DF8C2E0364B1B79112B25D10023354A1380354A13803548FDF740F8344BB3F90030A3B987
:4046C000334B1B78013B03EB8301663103EB43039A00304B1A4489B2107904F0A5FE0A2002F042FF0122294B1A8000232A4A13802A4A1380284BB3F900300BB3284BB3F977
:4047000000305BB1224B1B78013B22485900CC18A20002441379013313710EE0134BB3F9003053B11A4B1B78013B1A485900CC18A200024413790A331371642002F014FF71
:40474000164BB3F90030002B3ED0154BB3F9003043B30F4B1B78013B0E485900CC18A20002441379013B13712BE000BFF888FF1F7285FF1F6484FF1F18ED00004C88FF1F27
:404780001C8CFF1FD083FF1FF4EB0000E086FF1F7A85FF1FE485FF1F0285FF1FA485FF1FE688FF1FB44BB3F9003053B1B34B1B78013BB3485900CC18A200024413790A3BA6
:4047C0001371642002F0D0FEAC4B1B78013B03EB43018A00AA490A441279092A06D803EB43018A00A6490A445F21117103EB43018A00A3490A4412795F2A06D903EB43017C
:404800008A009F490A440A21117103EB43039A009B4B1A449B4C12799B49204608F048FC2046FCF789FF994B1B78062B40F0C9810122974B1A800022964B1A80964B1B794D
:40484000212B09D19548FCF777FF0023904A1380914A1371924A13718F4B1B79082B0BD1904AB2F90030B3FA83F35B0913800023894A13718A4A1371874B1B79132B0BD1DF
:4048800005F0D6F9B0FA80F0400905F0C5F90023814A1371824A13717F4B1B79012B0BD105F0E4FBB0FA80F0400905F0D3FB0023794A13717A4A1371774B1B79022B0BD1EB
:4048C00005F0C0FBB0FA80F0400905F0AFFB0023714A1371724A13716F4B1B79032B0BD105F0D8FBB0FA80F0400905F0C7FB0023694A13716A4A1371674B1B79042B0BD147
:4049000005F0F8FBB0FA80F0400905F0E7FB0023614A1371624A13715F4B1B79052B0BD105F0D4FBB0FA80F0400905F0C3FB0023594A13715A4A1371574B1B79062B0BD1FA
:4049400005F0F4FBB0FA80F0400905F0E3FB0023514A1371524A13714F4B1B79072B0BD105F0F8FBB0FA80F0400905F0E7FB0023494A13714A4A1371474B1B79122B0BD1CC
:4049800005F0FCFBB0FA80F0400905F0EBFB0023414A1371424A1371424BB3F9003033B1012004F0BDFD4048FCF7C6FE05E0002004F0B6FD3D48FCF7BFFE05F039F90128FF
:4049C00003D13B48FCF7B8FE02E03A48FCF7B4FE05F04CFB012803D13748FCF7ADFE02E03648FCF7A9FE05F02DFB012803D13448FCF7A2FE02E03348FCF79EFE05F04AFB0F
:404A0000012803D13048FCF797FE02E02F48FCF793FE05F06FFB012803D12D48FCF78CFE02E02C48FCF788FE05F050FB012803D12948FCF781FE02E02848FCF77DFE05F0AA
:404A400075FB18B92648FCF777FE02E02548FCF773FE05F07FFB18B92348FCF76DFE02E02248FCF769FE05F089FB012842D12048FCF762FE41E000BFF888FF1F7A85FF1FB2
:404A8000E485FF1F6484FF1F18ED0000248CFF1F3484FF1F0884FF1F4C88FF1F10EA0000B085FF1F0E85FF1F2CED000038ED000048ED000058ED000068ED000074ED0000B8
:404AC00084ED000090ED0000A0ED0000ACED0000BCED0000C8ED0000D8ED0000E4ED0000F4ED000000EE000010EE00001CEE00002CEE0000B148FCF71FFE04F01DFD18B9D5
:404B0000AF48FCF719FE02E0AE48FCF715FE05F0C9FA18B9AC48FCF70FFE02E0AB48FCF70BFE05F0EFFA30B9A948FCF705FE002005F018FB02E0A748FCF7FEFDA64DA74CCD
:404B40002A68A749204608F0B3FA2046FCF7F4FD6A68A449204608F0ABFA2046FCF7ECFDA14B186806F03EFF02460B469F49204608F09EFA2046FCF7DFFDFDF791FA024648
:404B80009B49204608F094FA2046FCF7D5FD994B186806F027FF02460B469749204608F087FA2046FCF7C8FD944B186806F01AFF02460B469249204608F07AFA2046FCF7F7
:404BC000BBFD904B1B78072B40F0E1818E4B1B790A2B02D104218D4A11700B2B02D105218A4A11700C2B02D10121884A11700D2B02D10221854A11700E2B02D10321834A5B
:404C00001170824A1278052A02D901217F4A11707E4A127812B905217C4A1170112B69D17B48FCF789FD7B4B9C7B2046FDF7D8FB40B1784B1B7B784A134493F92420774BEC
:404C40001A7007E0734B1B7B734A134493F93020724B1A70631E724883FB00011944DA17C2EBA102C2EBC2029A1A1846002B00DAD81C80106B4981FB0351DB17C3EB61133C
:404C8000013303EB43031946002B00DAD91CA0EBA100634D80FB0567C319C117C1EBA303C3EBC303C31A13445C4A12781A44594E707B5D4BA0FB0389C9EB000309EB5303D2
:404CC0009B08C3EBC303C31ADBB21A4482FB058902EB0901D317C3EBA103C3EBC303D31ADBB27374317B327C0192F27B0092224601F0A6FF444B1B792A2B40F0D380434B4F
:404D00001B78012B40F09280424B1B7B022B1CD1404B987BFDF764FB58B13E4B5B7B1C2B03D801333B4A5373B7E00122394B5A73B3E0384B5B7B1B2B03D80133354A5373AA
:404D4000ABE00122334B5A73A7E0072B1AD813F0010F0BD12F4B5B7B1D2B03D801332D4A53739AE001222B4B5A7396E0294B5B7B1E2B03D80133274A53738EE00122254B8C
:404D80005A738AE013F0010F0BD1224B5B7B1E2B03D801331F4A53737FE001221D4B5A737BE01C4B5B7B1D2B03D80133194A537373E00122174B5A736FE000BF3CEE000057
:404DC0004CEE000058EE000068EE000074EE000084EE000094EE00009485FF1F6484FF1FA4EE0000B8EE00005C84FF1FCCEE0000E0EE00008885FF1FF4EE00009C85FF1F40
:404E000008EF0000248CFF1F4C88FF1F3E88FF1F10EA00000482FF1FCC80FF1F0889FF1F932449921F85EB5125499224022B0BD1A14B1B7B0B2B03D801339F4A13732CE03F
:404E400001229D4B1A7328E0032B0BD19A4B9B7B622B03D80133984A93731EE00022964B9A731AE0042B0BD1934BDB7B172B03D80133914AD37310E000228F4BDA730CE02B
:404E8000052B0AD18C4B1B7C3A2B03D801338A4A137402E00022884B1A740023874A1371874A1371854B1B792B2B44D1854B1B78012B07D1804B5B7B002B37D0013B7E4A6B
:404EC000537333E0022B0BD17B4B1B7B012B03D9013B794A137329E00C22774B1A7325E0032B0AD1744B9B7B1BB1013B724A93731CE06322704B9A7318E0042B0AD16E4BB0
:404F0000DB7B1BB1013B6C4AD3730FE017226A4BDA730BE0052B09D1674B1B7C1BB1013B654A137402E03B22634B1A740023634A1371634A1371604D634CEA7B634920469E
:404F400008F0B6F82046FCF7F7FB2A7C6049204608F0AEF82046FCF7EFFB6A7B5D49204608F0A6F82046FCF7E7FB2A7B5A49204608F09EF82046FCF7DFFBAA7B574920464E
:404F800008F096F82046FCF7D7FBFDF73FFA544B1B78082B40F058810024524B1C80524B1B78524A1278484D514909780391514909780291504909780191504909780091A9
:404FC0004F49284608F074F82846FCF7B5FB01224C4B1A804C4B1C804C4B1C804C4B1C7016E003EB43018A004A490A4492784AB903EB43018A0047490A44D27812B9464A7A
:40500000137009E00133DBB2434A1370404A13703F4B1B78132BE4D92B4C3F4B1A783F49204608F045F82046FCF786FB00223C4B1A80224B1A79531EDBB2132B7CD8394929
:40504000204608F035F82046FCF776FB1B4D2B79013B304E03EB43039A003244906806F0C1FC02460B463049204608F021F82046FCF762FB2B79013B03EB43039A003244C3
:4050800012792A49204608F013F82046FCF754FB2B79013B5900C81882003244D37892782349204608F004F82046FCF745FB2A79204B1A7097E000BF0482FF1F4C88FF1FB8
:4050C000B085FF1F3E88FF1F6484FF1F20EF000034EF000048EF000058EF000068EF0000248CFF1F2884FF1F2389FF1F3A88FF1FC485FF1F0084FF1FE888FF1FBC88FF1F31
:405100007CEF0000E688FF1FF888FF1FE884FF1FAC85FF1FE485FF1F1284FF1FB4EF0000E086FF1FD4EF0000ECEF000010F000002CF000007A85FF1F074B1A78B2B907482A
:40514000FCF7FAFA0648FCF7F7FA0648FCF7F4FA0548FCF7F1FA46E07A85FF1F4CF0000060F000007CF0000094F00000531EDBB2132B38D8A24CA349204607F099FF20467C
:40518000FCF7DAFAA04E3378013BA04D03EB43039A002A44906806F025FC02460B469C49204607F085FF2046FCF7C6FA3378013B03EB43039A002A4412799649204607F0B9
:4051C00077FF2046FCF7B8FA3378013B5900C81882002A44D37892788F49204607F068FF2046FCF7A9FA8D4B1B79202B08D1864B1B782BB18A48FCF79FFA0122894B1A8072
:40520000864B1B79302B08D17F4B1B782BB18648FCF792FA0122834B1A80804B1B79402B08D1794B1B782BB18048FCF785FA01227C4B1A80794B1B79702B05D17C48FCF7B0
:405240007BFA0022774B1A807A4B1B780F2B0DD1794BB3F9003033B94FF4FA6002F084F90122754B1A807248FCF766FA714B1B78102B0DD1704BB3F9003033B94FF4FA6021
:4052800002F072F901226C4B1A806C48FCF754FA684B1B78112B0DD1694BB3F9003033B94FF4FA6002F060F90122654B1A806048FCF742FA5F4B1B78122B4CD10122614BBA
:4052C0001A80614B1B880A2B02D96048FCF734FA524B1B79012B32D15D48FCF72DFA00245C4B1C705C4B1C70474B1C70204604F017F95A4B1C800022594B1A60594B1C700A
:40530000594B1C80594B1C7059495A4B186807F0C7F8594B196807F00FF8584B1860584B1C80584B1C80584B1C80584B1C80584B1C80584B1C80394B1C71574B1C71374B06
:405340001B79022B07D14148FCF7F6F90023334A1371514A1371374B1B78142B40F0F68500234E4A13804E4A1380364A1380364A13804C4E224C06F1200735460FCD20604B
:405380006160A260E3602E461034BD42F5D128682060AA88AB79A280A371194C2046FCF7CBF9414B1B78414A12784149097803914049097802914049097801913F49097837
:4053C00000913F49204607F073FE2046FCF7B4F901223C4B1A8000233B4A13803B4A13800E4B1B79012B02D10D48FCF7A5F90B4B1B79022B6CD10C48FCF79EF968E000BF1E
:405400006484FF1FD4EF00007A85FF1FE485FF1FECEF000010F000002CF000004C88FF1FB0F000009A8AFF1FC4F00000D4F0000010EA0000248CFF1FD484FF1F30EB000063
:405440002884FF1FEA83FF1FD686FF1FE0F00000F4F00000108CFF1FE286FF1F0884FF1FD886FF1FA085FF1FC085FF1F1084FF1F0000C8425884FF1FE483FF1F948AFF1F26
:405480006885FF1FD483FF1F4A88FF1F1085FF1F268CFF1FAA85FF1FB085FF1FE086FF1F6084FF1F08F100002389FF1F3A88FF1FC485FF1F0084FF1FE888FF1FBC88FF1F37
:4054C00058EC0000E688FF1FF888FF1FE884FF1F924B1B79032B02D19148FCF72DF98F4B1B79042B05D18F48FCF726F904228E4B1A708A4B1B79052B05D18A48FCF71CF922
:405500000222894B1A70854B1B79062B12D18748FCF712F9864B874A12785A73864A12781A73864A12789A73854A1278DA73854A12781A74794B1B79072B05D17948FCF7BC
:40554000FBF80122784B1A70744B1B790A2B02D17D48FCF7F1F87D4BB3F90030002B40F0038303F0E9FF002840F0B0826B4B1B79082B36D1764BB3F90040B4FA84F464091E
:405580001C801CB10122734B1A8002E00022714B1A800023614A13716F4A13716F49704B186806F07DFF05466E4B187806F070FE294606F0C1FE6C4B18606C4B1B7833B938
:4055C0006B4B1B781BB901226A4B1A8002E00022684B1A802921204603F026FF142001F0C3FF4E4B1B79092B26D1634BB3F90000B0FA80F04009188018B101225F4B1A803F
:4056000002E000225D4B1A800023444A1371524A1371564B1B7833B9554B1B781BB90122544B1A8002E00022524B1A802A2103F0FBFE142001F098FF384B1B790B2B40F0A1
:40564000D7804F4B1B78002B00F0CD804B4BB3F90030002B40F0C7803E4BB3F90030002B40F0C180474AB2F90030B3FA83F35B091380002B00F09E80DFF8E4A0DAF800201D
:40568000414B1A60DFF824E1BEF800203F4B1A80DFF8DC8098F800203D4B1A70334F3A783C4B1A703C4B19683C4B19603C4B1B78DFF8FCC04FEA430909EB0300820062447B
:4056C0009678D578C6EB0610C0EB00100401C5EB051B4FEA8B00204484B2324804809068CAF800004B449A0062441379AEF8003006F018FD8146204606F0CAFD01464846E7
:4057000006F0CEFE284B186088F800603D700123194A13800E4A138065E000BF4C88FF1FD4F0000030EB0000D885FF1F30F100000482FF1F3A88FF1F2389FF1FBC88FF1F09
:40574000E888FF1F0084FF1FF4EB0000D483FF1FF288FF1FD684FF1FB085FF1F000048435884FF1FDC83FF1F948AFF1FB08AFF1F4C84FF1FE488FF1F0C85FF1F2A89FF1FB4
:405780001284FF1F268CFF1FEC86FF1FF883FF1F8E85FF1FF286FF1F5C84FF1FE085FF1F1084FF1FE088FF1F6C85FF1F7285FF1FE485FF1F9D4B1A689D4B1A609D4B1A88BB
:4057C0009D4B1A809D4B1A789D4B1A709D4B1A789D4B1A7000239D4A13709D4A13709D4A13809D4A138000239C4A13719C4A13719C4BB3F90030002B00F09180FBF72AFF63
:405800009948FBF799FF9948FBF796FF9848FBF793FF04F077FC012837D1964B1B88B3F5967F17D29448FBF787FF012004F086FC012004F097FC012004F0EEF94FF4967097
:4058400001F092FE002004F0E7F94FF4967001F08BFE25E08948FBF76FFF8948FBF76CFF012004F06BFC002004F07CFC012004F0D3F94FF4487001F077FE002004F0CCF969
:405880004FF4487001F070FE0AE07E48FBF754FF002004F067FCFCF733FE0022754B1A8004F000FC012805D07749784B186806F0FFFE30B37648FBF73FFF002003F030FE8C
:4058C0000024744B1C807449594B186806F0E8FD0546724B187806F0DBFC294606F02CFD6F4B1860012004F097F94FF4967001F03BFE204604F090F94FF4967001F034FEE1
:4059000001E0FCF71DF9674B1A78674C01326749204607F0CDFB2046FBF70EFF64E16448FBF70AFF6348FBF707FFFBF793FE494BB3F90030002B4AD004F0E4FB012837D14E
:405940004C4B1B88B3F5967F17D24B48FBF7F4FE012004F0F3FB012004F004FC012004F05BF94FF4967001F0FFFD002004F054F94FF4967001F0F8FD25E04048FBF7DCFE30
:405980003F48FBF7D9FE012004F0D8FB002004F0E9FB012004F040F94FF4487001F0E4FD002004F039F94FF4487001F0DDFD0AE03448FBF7C1FE002004F0D4FBFCF7A0FD06
:4059C00000222C4B1A802948FBF7B6FE11E03A48FBF7B2FE2B48FBF7AFFE3848FBF7ACFE012004F0ABFB002004F064FB002004F0B9FB194BB3F900302BB11B48FBF79CFE19
:405A0000FCF7DEFFF0E02E48FBF796FE2D48FBF793FE002003F084FD00221E4B1A800022294B1A60012004F075FBDDE0EC86FF1F5884FF1FF883FF1F7285FF1F8E85FF1F5E
:405A40004C84FF1FF286FF1FB08AFF1F108CFF1FE286FF1F0C85FF1FF288FF1F4C88FF1FB085FF1F268CFF1F3CF1000048F1000054F100002889FF1F60F1000080F1000072
:405A8000A8F10000C4F10000000070425C84FF1FA4E900000884FF1F00004843DC83FF1F948AFF1F1084FF1F6484FF1FE0F10000F4F1000004F2000010F2000028F20000ED
:405AC00034F200004CF20000D886FF1F03F034FD012840F0898004F031FB002004F0EAFA012004F017FB002004F03CFB0024834B1C80834B1C80834B1C80834B1C8083481F
:405B0000FBF71AFE8248FBF717FE8248FBF714FE814B1C80814B1C80814B1C808149824B186806F0BDFC0546804B187806F0B0FB294606F001FC7E4B18607E4B1C70204619
:405B400003F0EEFC00227C4B1A6001227B4B1A807B4B1C807B48FBF7EFFD7B48FBF7ECFD7A48FBF7E9FD3FE0012004F0E7FA002004F0A0FA002004F06DFA002004F056FA85
:405B8000002004F07BFA002004F0A8FA012004F0C1FA002004F0E6FA6D48FBF7CDFD6D48FBF7CAFD002003F0BBFC00235A4A13800021614A11605F4A1370674A1380674A81
:405BC0001380674A1380FCF779FC5048FBF7B4FD4F48FBF7B1FD4F48FBF7AEFD6148FBF7ABFD6148FBF7A8FD604BB3F90030012B40F0128100225D4B1A805D4B187805F036
:405C0000DFFE02460B4600205A4906F069F804460D46494B186805F0E5FE22462B4605F035FF06F02BFA544B1860544B1A68544B9A420ADD534B186805F0D4FE02460B4616
:405C40005149524807F034FA0DE0504D504C0FCC28606960AA60EB6003CC286169612288A3782A83AB764948FBF766FD434B5A68434B9A420ADD474B186805F0B3FE0246E8
:405C80000B464549414807F013FA0AE03F4D434C0FCC28606960AA60EB6007CC28616961AA613A4C2046FBF747FD1F4B186805F099FE02460B463A49204607F0F9F9204658
:405CC000FBF73AFD374B1A883749204607F0F0F92046FBF731FD354B1C680021204606F0E7FC002866D0204605F07CFE02460B462F49264807F0DCF967E000BF3884FF1F49
:405D0000A68AFF1F4484FF1FC488FF1F4CF2000028F2000004F200000884FF1FC085FF1FD486FF1F000048435884FF1FDC83FF1F948AFF1FA085FF1FD886FF1FEE83FF1F66
:405D4000088CFF1F58F2000074F2000088F200009CF20000B0F20000268CFF1FF288FF1F0C85FF1FD0F20000ECF20000CE84FF1F258CFF1F000059401485FF1F9485FF1F9A
:405D8000803801005C84FF1F08F300006484FF1F28F300008885FF1F44F3000064F3000080F300007285FF1FA0F30000208CFF1FBCF300009A4D9B4C0FCC28606960AA60BF
:405DC000EB6020682861A388AB82954C2046FBF7B3FC954B1B78954A12789549204607F067F92046FBF7A8FC924B1B78924A12789249204607F05CF92046FBF79DFC904B65
:405E0000186805F0EFFD02460B468E49204607F04FF92046FBF790FC834B1B7823B9834B1B78002B00F09280FBF7E6FB864BB3F90030002B42D07F4B1A787B4B1B789A42EF
:405E4000C0F084807C4B1A78784B1B789A427DD37E4BB3F90030002B78D100227C4B1A807C4B1A787C4B1B78013B9A4208DA0132784B1A700023704A13706E4A137002E04D
:405E80000122724B1A800022744B1A7011E0012003F0C2FE4FF47A7001F066FB002003F0BBFE4FF47A7001F05FFB6C4A1378013313706A4B1B78012BE9D947E05D4B1A78E6
:405EC000594B1B789A4241D35B4B1A78574B1B789A423BD3624B1B78012B37D1614BB3F90030A3B900245E4B1C7002225E4B1A8001255C4B1D80204603F012FB5B4B1C80FA
:405F000000225B4B1A605B4B1C80504B1D805A48FBF712FCFCF7D2FA0022504B1A7011E0012003F079FE4FF47A7001F01DFB002003F072FE4FF47A7001F016FB474A13787D
:405F400001331370454B1B78012BE9D94B4B1B78642B7CF48EAF4A4B1B780E2B02D90122474B1A70464B1B7813B90E22444B1A70434B1B78012B40F091804248FBF7DCFB5F
:405F8000274C414B1A784149204607F091F82046FBF7D2FB3E4B1B790A2B16D1142001F0E3FA3B4B1B790A2B0FD1374C207805F007FD0022374B05F0B7FB06F03FF8207035
:405FC0000023334A1371344A1371314B1B790B2B16D1142001F0C8FA2D4B1B790B2B0FD1294C207805F0ECFC00222A4B05F09AFB06F024F820700023254A1371264A13718E
:40600000214B1B78142B02D901221F4B1A701E4B1B78002B40F0E68314221B4B1A70E1E36484FF1FD8F30000B08AFF1F4C84FF1FF0F30000108CFF1FE286FF1F14F4000044
:406040001485FF1F2CF40000268CFF1FD483FF1F4A88FF1F1084FF1F1284FF1FAC85FF1FA085FF1FE886FF1FF083FF1F0884FF1FD886FF1F088CFF1F48F40000248CFF1F1D
:40608000F483FF1F60F40000DC83FF1F80F400004C88FF1F0000F03FB085FF1F022B44D18F48FBF749FB8F4C8F4B1A788F49204606F0FEFF2046FBF73FFB8D4B1B790A2B98
:4060C0000FD1142001F050FA894B1B790A2B08D1854A1378013313700023854A1371854A1371834B1B790B2B0FD1142001F03CFA7F4B1B790B2B08D17B4A1378013B1370B2
:4061000000237B4A13717B4A1371774B1B78502B02D90122744B1A70734B1B78002B40F061835022704B1A705CE3032B44D17248FBF702FB6B4C714B1A786C49204606F00B
:40614000B7FF2046FBF7F8FA694B1B790A2B0FD1142001F009FA664B1B790A2B08D1674A1378013313700023614A1371614A13715F4B1B790B2B0FD1142001F0F5F95C4BC5
:406180001B790B2B08D15D4A1378013B13700023574A1371574A1371584B1B78042B02D90122564B1A70554B1B78002B40F01A830422524B1A7015E3042B52D15048FBF704
:4061C000BBFA484C4F4B1A784849204606F070FF2046FBF7B1FA464B1B790A2B16D1142001F0C2F9424B1B790A2B0FD1454C207805F0E6FB0022444B05F096FA05F01EFF2D
:40620000207000233A4A13713A4A1371384B1B790B2B16D1142001F0A7F9354B1B790B2B0FD1384C207805F0CBFB0022364B05F079FA05F003FF207000232D4A13712D4A7A
:406240001371304B1B78142B02D905222D4B1A702C4B1B78042B00F2C5821422294B1A70C0E2052B56D12948FBF766FA1D4C284B1A781E49204606F01BFF2046FBF75CFAEE
:406280001B4B1B790A2B12D1142001F06DF9184B1B790A2B0BD11E4B1B78632B02D801331B4A13700023124A1371124A1371104B1B790B2B40F09682142001F055F90C4B9F
:4062C0001B790B2B40F08E82114B1B7813B1013B0F4A13700023064A1371064A137181E290F400006484FF1FD084FF1F80F400004C88FF1FB085FF1FACF40000EA88FF1FB6
:40630000C8F40000258CFF1F0000F03FE0F40000C285FF1F062B3CD19D48FBF70DFA9D4C9D4B1A789D49204606F0C2FE2046FBF703FA9B4B1B790A2B12D1142001F014F9D0
:40634000974B1B790A2B0BD1934B1B78632B02D80133914A13700023914A1371914A13718F4B1B790B2B40F03D82142001F0FCF88B4B1B790B2B40F03582874B1B7813B1EE
:40638000013B854A13700023854A1371854A137128E2072B3DD18448FBF7CEF97D4C834B1A787E49204606F083FE2046FBF7C4F97B4B1B790A2B12D1142001F0D5F8784BAE
:4063C0001B790A2B0BD1794B1B784F2B02D80133764A13700023724A1371724A1371704B1B790B2B40F0FE81142001F0BDF86C4B1B790B2B40F0F6816C4B1B780A2B02D9A3
:40640000013B6A4A13700023654A1371654A1371E8E1082B3DD16648FBF78EF95D4C654B1A785E49204606F043FE2046FBF784F95B4B1B790A2B12D1142001F095F8584B84
:406440001B790A2B0BD15B4B1B784F2B02D80133584A13700023524A1371524A1371504B1B790B2B40F0BE81142001F07DF84C4B1B790B2B40F0B6814E4B1B780A2B02D9BC
:40648000013B4C4A13700023454A1371454A1371A8E1092B3CD14848FBF74EF93D4C474B1A783E49204606F003FE2046FBF744F93B4B1B790A2B12D1142001F055F8384B5E
:4064C0001B790A2B0BD13D4B1B78632B02D801333A4A13700023324A1371324A1371304B1B790B2B40F07E81142001F03DF82C4B1B790B2B40F07681304B1B7813B1013BD2
:406500002E4A13700023264A1371264A137169E10A2B59D12A48FBF70FF91E4C294B1A781E49204606F0C4FD2046FBF705F91C4B1B790A2B12D1142001F016F8184B1B79B9
:406540000A2B0BD11F4B1B78632B02D801331D4A13700023124A1371124A1371104B1B790B2B40F03F81142000F0FEFF0C4B1B790B2B40F03781134B1B7813B1013B114A19
:4065800013700023064A1371064A13712AE100BFFCF400006484FF1F7985FF1F80F400004C88FF1FB085FF1F18F500002289FF1F30F500000C84FF1F4CF50000988AFF1FCE
:4065C00068F500001384FF1F0B2B37D15B48FBF7B3F85B4C5B4B1A785B49204606F068FD2046FBF7A9F8594B1B790A2B0FD1142000F0BAFF554B1B790A2B08D1514A13783C
:40660000013313700023514A1371514A13714F4B1B790B2B40F0E680142000F0A5FF4B4B1B790B2B40F0DE80464A1378013B13700023464A1371464A1371D3E00C2B3ED174
:406640004448FBF779F8444C3D4D22784349284606F02EFD2846FBF76FF82378043BDBB2382B01D904222270384B1B790A2B0FD1142000F079FF354B1B790A2B08D1364ACF
:406680001378013313700023304A1371304A13712E4B1B790B2B40F0A580142000F064FF2A4B1B790B2B40F09D802B4A1378013B13700023254A1371254A137192E00D2B5C
:4066C00052D12748FBF738F8264C1D4D22782349284606F0EDFC2846FBF72EF82378043BDBB2382B01D904222270184B1B790A2B0FD1142000F038FF144B1B790A2B08D16D
:40670000184A1378013313700023104A1371104A13710E4B1B790B2B64D1142000F024FF0A4B1B790B2B5DD10E4A1378013B13700023064A1371064A137153E084F50000D1
:406740006484FF1FF58BFF1FA0F500004C88FF1FB085FF1FB0F50000FF83FF1FCCF50000DCF50000F48BFF1F0E2B3BD17E48FAF7E3FF7E4C7E4D22787E49284606F098FC5B
:406780002846FAF7D9FF2378043BDBB2382B01D904222270784B1B790A2B0FD1142000F0E3FE754B1B790A2B08D1704A1378013313700023704A1371704A13716E4B1B798B
:4067C0000B2B0FD1142000F0CFFE6B4B1B790B2B08D1664A1378013B13700023664A1371664A1371644B1B790C2B0FD1142000F0BBFE614B1B790C2B08D1614A13780133C3
:40680000137000235C4A13715C4A13715A4B1B790D2B0FD1142000F0A7FE574B1B790D2B08D1574A1378013B13700023524A1371524A1371504B1B79112B7CF41AAB1420DB
:4068400000F092FE4C4B1B79112B7CF412AB4D4BB3F90030002B40F0818020214A4B187802F0E2FD0A2000F07FFE1F21474B187802F0DAFD0A2000F077FE454C1E21207844
:4068800002F0D2FD0A2000F06FFE2221414B187802F0CAFD0A2000F067FE23213E4B187802F0C2FD0A2000F05FFE24213B4B187802F0BAFD0A2000F057FE2121384B1878AC
:4068C00002F0B2FD0A2000F04FFE2521354B187802F0AAFD0A2000F047FE2621324B187802F0A2FD0A2000F03FFE27212F4B187802F09AFD0A2000F037FE2D492D4B18686E
:4069000005F0CEFD0546207805F0C2FC294605F013FD294B18602821284B187802F084FD0A2000F021FE2C21254B187802F07CFD0A2000F019FE2D21224B187802F074FD12
:406940000A2000F011FE2E21084B187802F06CFD0A2000F009FE01220A4B1A801A48FAF7EBFEFCF786BA00BFF8F50000EE88FF1F6484FF1FCCF500004C88FF1FB085FF1F73
:40698000F483FF1FE086FF1FEA88FF1FD084FF1FDC83FF1FC285FF1F7985FF1F2289FF1F258CFF1F988AFF1F1384FF1F0C84FF1F000048435884FF1F948AFF1FF58BFF1F24
:4069C000FF83FF1FF48BFF1F10EA000010B5044605F078FE40B205F05BFC0146204605F0A1FB034905F0A8FC05F092FEC0B210BD0000204108B505F047FC024905F050FDDE
:406A000008BD00BF0000204110B5012003F028F9012002F0C3FC7D2003F0BAF801F010F8002001F01DF801F033F8044600F064F80021201A00F042F810BD00BF38B5054649
:406A40000C467D2003F0A4F874B9002003F008F9002002F0A3FC00F0F3FF002001F000F801F016F8044611E0012C0ED1022003F0F7F8022002F092FC00F0E2FF002000F0EE
:406A8000EFFF01F005F8044600E0002400F034F80121201A00F012F805F0FAFB0446284605F0F6FB0146204605F0FAFC024905F043FC05F007FE38BD0050C34780020D4B78
:406AC00053F8213003F54832904203DCA3F54832904203DA074B43F8210005E0C01A03EB2010044B43F82100024B53F821008012704700BF2082FF1F08B5002003F048F84F
:406B000000F09EFF002000F0ABFF00F0C1FF08BD08B5002003F07EFA002003F06FFA012003F078FA042000F035FD08BD08B5002003F070FA042000F02DFD08BD70B5064696
:406B40000D46002418E046FA04F000F0010003F041FA012000F01EFD012003F04FFA012000F018FD0DB1072C05D0002003F046FA012000F00FFD0134072CE4DD70BD00BF59
:406B800038B500252C4619E0012003F037FA012000F000FD002003F031FA012000F0FAFC03F024FA20B10123A3401D43EDB203E00123A34025EA03050134E4B2072CE3D91D
:406BC000284638BD70B50546FFF7A2FF0021BE20FFF7B4FF002406E06E1C00212878FFF7ADFF01343546072CF6DDFFF79FFF70BD38B50C4620F00105FFF78AFF002105F02B
:406C0000FE00FFF79BFF00212046FFF797FFFFF78DFF38BD70B50546FFF77AFF0121BF20FFF78CFF002405E06E1CFFF7A9FF287001343546072CF7DDFFF778FF70BD00BF02
:406C4000F8B59DF818E09DF81C60274C002525606560A5F13335A5FB06C7FF0807EB870CA6EB4C0C66786CF3030667F306166670A5FB0E67FF0807EB8706AEEB460EA678CF
:406C80006EF3030667F30516A670A5FB0076F60806EB8607A0EB4707E07867F3030066F30510E070A5FB0160C00800EB8006A1EB4606217966F3030160F304112171617924
:406CC00063F302016171A5FB0235ED0805EB8503A2EB4302A37962F3030365F30713A3712046FFF76FFFF8BDD085FF1F2DE9F04180460F4616461D46144C2046FFF78AFFFE
:406D0000E278C2F3011302F00F0103EB83035A000A4488F800202279C2F3001302F00F019A0013445A000A443A70A279C2F3031302F00F0103EB83035A000A443270637948
:406D4000C3F302032B70BDE8F08100BFD085FF1FF8B507460E461446114D2846FFF75AFFAA78C2F3011302F00F0103EB83035A000A443A706A78C2F3021302F00F0103EB63
:406D800083035A000A4432702A78C2F3021302F00F0103EB83035A000A442270F8BD00BFD085FF1FFEE700BFF0B40022174611E050F82760F3B226F0FF0608E001EB42059E
:406DC00011F812406D78A5550132013BDBB2002BF4D10137292FEBD9F0BC704708B50A46002105F0ECFC08BDF8B51F4B1B78DBB21E4E3478E4B21E4F3D78EDB203F0070145
:406E00001C4A11701B090132137044F00303337045F003033B700422174B1A70C02210331A704023154A1370023213700222144B1A701023134A1370653213708022124BD8
:406E40001A704C2224331A70202203331A70E0222D331A700A2000F09DFB3D70347044220A4B1A70F8BD00BFCF010049F8460040F94600406E5800400D5100400959004033
:406E8000845A00409B5A0040045B00407658004008B505F089FC08BD38B50024324B1C80502202331A70172202331A8018232F4A13704FF49C71023211800232137004224A
:406EC0002B492C48FFF7E4FF06222B4B1A705222A3F580731A70294B1B78DBB2284A13704FF4E162274B1A8041F25122023B1A8019250CE0244B1B7803F0010343EA4404F0
:406F000004F003044FF4F07003F042F9013D0DB1032CEFD115B90320FFF744FF1B4A4FF48073138007231370002319490B704820023108701370053213700222154B1A7037
:406F400004220A331A70144A137843F007031370013A137843F001031370013A137843F08003137038BD00BF8040004086400040400A004800410040004300400F01004953
:406F8000A14600402242004025420040044000400640004001400040A2430040022814D810B44000C0B2094B53F820101A18147E0A7822430A700130C0B253F820201844A5
:406FC000017E13780B43137010BC704714F60000022816D810B44000C0B20A4B53F820101A18147E0A7822EA04020A700130C0B253F820201844017E137823EA01031370D1
:4070000010BC704714F60000022818D810B44000C0B20B4B03EB8002116A1A1892F838400A7822430A700130C0B203EB8002126A184490F8381013780B43137010BC7047C3
:4070400014F6000002281AD810B44000C0B20C4B03EB8002116A1A1892F838400A7822EA04020A700130C0B203EB8002126A184490F83810137823EA0103137010BC704793
:4070800014F60000022818D810B44000C0B20B4B03EB8002116C1A1892F858400A7822430A700130C0B203EB8002126C184490F8581013780B43137010BC704714F6000078
:4070C00002281AD810B44000C0B20C4B03EB8002116C1A1892F858400A7822EA04020A700130C0B203EB8002126C184490F85810137823EA0103137010BC704714F60000CF
:4071000038B572B6474A137843F00403137000240CE0454863001A19510001440A46B1F86410106EFFF75AFE0134E4B2062CF0D900240DE03C49A300181942008818062225
:40714000D0F89010D0F88C00FFF7A2FE0134E4B2002CEFD035494FF09040FFF725FE0A24334B1C7004213348FFF738FE042232493248FFF78DFE324A137843F002031370FF
:407180001032137843F0020313702E4D2B7843F040032B70A2F58632513A137843F010031370224628492948FFF772FE224628492848FFF76DFE224627492848FFF768FEEC
:4071C000224627492748FFF763FE082226492748FFF75EFE224626492648FFF759FE082225492648FFF754FE082225492548FFF74FFE224624492548FFF74AFE244A1378F6
:4072000043F008031370234C61232370FFF744FE81232370FFF7E8FD0E2229461E48FFF737FE38BDE846004014F60000A80000488358004000760040440A0048087600400B
